{
	"Final_Project/IndianPoker_1_1.sol": {
		"IndianPoker_1_1": {
			"abi": [
				{
					"inputs": [],
					"stateMutability": "nonpayable",
					"type": "constructor"
				},
				{
					"anonymous": false,
					"inputs": [
						{
							"indexed": true,
							"internalType": "address",
							"name": "player",
							"type": "address"
						},
						{
							"indexed": false,
							"internalType": "enum IndianPoker_1_1.CardValue",
							"name": "card",
							"type": "uint8"
						}
					],
					"name": "CardDealt",
					"type": "event"
				},
				{
					"anonymous": false,
					"inputs": [
						{
							"indexed": false,
							"internalType": "address",
							"name": "player",
							"type": "address"
						},
						{
							"indexed": false,
							"internalType": "uint256",
							"name": "chips",
							"type": "uint256"
						},
						{
							"indexed": false,
							"internalType": "uint256",
							"name": "ethAmount",
							"type": "uint256"
						}
					],
					"name": "ChipsExchanged",
					"type": "event"
				},
				{
					"anonymous": false,
					"inputs": [
						{
							"indexed": false,
							"internalType": "address",
							"name": "player",
							"type": "address"
						},
						{
							"indexed": false,
							"internalType": "uint256",
							"name": "chips",
							"type": "uint256"
						}
					],
					"name": "ChipsPurchased",
					"type": "event"
				},
				{
					"anonymous": false,
					"inputs": [
						{
							"indexed": false,
							"internalType": "address",
							"name": "winner",
							"type": "address"
						},
						{
							"indexed": false,
							"internalType": "uint256",
							"name": "amount",
							"type": "uint256"
						}
					],
					"name": "GameEnded",
					"type": "event"
				},
				{
					"anonymous": false,
					"inputs": [],
					"name": "GameStarted",
					"type": "event"
				},
				{
					"anonymous": false,
					"inputs": [
						{
							"indexed": true,
							"internalType": "address",
							"name": "player",
							"type": "address"
						},
						{
							"indexed": false,
							"internalType": "enum IndianPoker_1_1.PlayerAction",
							"name": "action",
							"type": "uint8"
						},
						{
							"indexed": false,
							"internalType": "uint256",
							"name": "amount",
							"type": "uint256"
						}
					],
					"name": "PlayerActed",
					"type": "event"
				},
				{
					"anonymous": false,
					"inputs": [
						{
							"indexed": true,
							"internalType": "address",
							"name": "player",
							"type": "address"
						}
					],
					"name": "PlayerExited",
					"type": "event"
				},
				{
					"anonymous": false,
					"inputs": [
						{
							"indexed": true,
							"internalType": "address",
							"name": "player",
							"type": "address"
						}
					],
					"name": "PlayerJoined",
					"type": "event"
				},
				{
					"inputs": [],
					"name": "activeCount",
					"outputs": [
						{
							"internalType": "uint256",
							"name": "",
							"type": "uint256"
						}
					],
					"stateMutability": "view",
					"type": "function"
				},
				{
					"inputs": [
						{
							"internalType": "uint256",
							"name": "amount",
							"type": "uint256"
						}
					],
					"name": "bet",
					"outputs": [],
					"stateMutability": "nonpayable",
					"type": "function"
				},
				{
					"inputs": [],
					"name": "callAction",
					"outputs": [],
					"stateMutability": "nonpayable",
					"type": "function"
				},
				{
					"inputs": [],
					"name": "currentBet",
					"outputs": [
						{
							"internalType": "uint256",
							"name": "",
							"type": "uint256"
						}
					],
					"stateMutability": "view",
					"type": "function"
				},
				{
					"inputs": [],
					"name": "currentPlayerIdx",
					"outputs": [
						{
							"internalType": "uint256",
							"name": "",
							"type": "uint256"
						}
					],
					"stateMutability": "view",
					"type": "function"
				},
				{
					"inputs": [
						{
							"internalType": "uint256",
							"name": "chipAmount",
							"type": "uint256"
						}
					],
					"name": "exchange",
					"outputs": [],
					"stateMutability": "nonpayable",
					"type": "function"
				},
				{
					"inputs": [],
					"name": "exitGame",
					"outputs": [],
					"stateMutability": "nonpayable",
					"type": "function"
				},
				{
					"inputs": [],
					"name": "fold",
					"outputs": [],
					"stateMutability": "nonpayable",
					"type": "function"
				},
				{
					"inputs": [],
					"name": "getChip",
					"outputs": [],
					"stateMutability": "payable",
					"type": "function"
				},
				{
					"inputs": [
						{
							"internalType": "address",
							"name": "",
							"type": "address"
						}
					],
					"name": "isInGame",
					"outputs": [
						{
							"internalType": "bool",
							"name": "",
							"type": "bool"
						}
					],
					"stateMutability": "view",
					"type": "function"
				},
				{
					"inputs": [],
					"name": "joinGame",
					"outputs": [],
					"stateMutability": "payable",
					"type": "function"
				},
				{
					"inputs": [],
					"name": "minBet",
					"outputs": [
						{
							"internalType": "uint256",
							"name": "",
							"type": "uint256"
						}
					],
					"stateMutability": "view",
					"type": "function"
				},
				{
					"inputs": [],
					"name": "owner",
					"outputs": [
						{
							"internalType": "address",
							"name": "",
							"type": "address"
						}
					],
					"stateMutability": "view",
					"type": "function"
				},
				{
					"inputs": [],
					"name": "phase",
					"outputs": [
						{
							"internalType": "enum IndianPoker_1_1.GamePhase",
							"name": "",
							"type": "uint8"
						}
					],
					"stateMutability": "view",
					"type": "function"
				},
				{
					"inputs": [
						{
							"internalType": "address",
							"name": "",
							"type": "address"
						}
					],
					"name": "playerChips",
					"outputs": [
						{
							"internalType": "uint256",
							"name": "",
							"type": "uint256"
						}
					],
					"stateMutability": "view",
					"type": "function"
				},
				{
					"inputs": [
						{
							"internalType": "address",
							"name": "",
							"type": "address"
						}
					],
					"name": "playerGameId",
					"outputs": [
						{
							"internalType": "uint256",
							"name": "",
							"type": "uint256"
						}
					],
					"stateMutability": "view",
					"type": "function"
				},
				{
					"inputs": [
						{
							"internalType": "address",
							"name": "",
							"type": "address"
						}
					],
					"name": "playerIndex",
					"outputs": [
						{
							"internalType": "uint256",
							"name": "",
							"type": "uint256"
						}
					],
					"stateMutability": "view",
					"type": "function"
				},
				{
					"inputs": [
						{
							"internalType": "uint256",
							"name": "",
							"type": "uint256"
						}
					],
					"name": "players",
					"outputs": [
						{
							"internalType": "address",
							"name": "addr",
							"type": "address"
						},
						{
							"internalType": "uint256",
							"name": "chips",
							"type": "uint256"
						},
						{
							"internalType": "enum IndianPoker_1_1.CardValue",
							"name": "card",
							"type": "uint8"
						},
						{
							"internalType": "bool",
							"name": "isActive",
							"type": "bool"
						},
						{
							"internalType": "bool",
							"name": "hasFolded",
							"type": "bool"
						},
						{
							"internalType": "uint256",
							"name": "currentBet",
							"type": "uint256"
						},
						{
							"internalType": "enum IndianPoker_1_1.PlayerAction",
							"name": "lastAction",
							"type": "uint8"
						},
						{
							"internalType": "bool",
							"name": "isAllIn",
							"type": "bool"
						},
						{
							"internalType": "uint256",
							"name": "allInAmount",
							"type": "uint256"
						}
					],
					"stateMutability": "view",
					"type": "function"
				},
				{
					"inputs": [],
					"name": "pot",
					"outputs": [
						{
							"internalType": "uint256",
							"name": "",
							"type": "uint256"
						}
					],
					"stateMutability": "view",
					"type": "function"
				},
				{
					"inputs": [
						{
							"internalType": "uint256",
							"name": "raiseAmt",
							"type": "uint256"
						}
					],
					"name": "raise",
					"outputs": [],
					"stateMutability": "nonpayable",
					"type": "function"
				},
				{
					"inputs": [],
					"name": "startGame",
					"outputs": [],
					"stateMutability": "nonpayable",
					"type": "function"
				}
			],
			"devdoc": {
				"kind": "dev",
				"methods": {},
				"version": 1
			},
			"evm": {
				"assembly": "    /* \"Final_Project/IndianPoker_1_1.sol\":126:13569  contract IndianPoker_1_1 {... */\n  mstore(0x40, 0x80)\n    /* \"Final_Project/IndianPoker_1_1.sol\":3496:3718  constructor() {... */\n  callvalue\n  dup1\n  iszero\n  tag_1\n  jumpi\n  revert(0x00, 0x00)\ntag_1:\n  pop\n    /* \"Final_Project/IndianPoker_1_1.sol\":3529:3539  msg.sender */\n  caller\n    /* \"Final_Project/IndianPoker_1_1.sol\":3521:3526  owner */\n  0x00\n  0x01\n    /* \"Final_Project/IndianPoker_1_1.sol\":3521:3539  owner = msg.sender */\n  0x0100\n  exp\n  dup2\n  sload\n  dup2\n  0xffffffffffffffffffffffffffffffffffffffff\n  mul\n  not\n  and\n  swap1\n  dup4\n  0xffffffffffffffffffffffffffffffffffffffff\n  and\n  mul\n  or\n  swap1\n  sstore\n  pop\n    /* \"Final_Project/IndianPoker_1_1.sol\":3601:3618  GamePhase.WAITING */\n  0x00\n    /* \"Final_Project/IndianPoker_1_1.sol\":3593:3598  phase */\n  0x00\n  0x00\n    /* \"Final_Project/IndianPoker_1_1.sol\":3593:3618  phase = GamePhase.WAITING */\n  0x0100\n  exp\n  dup2\n  sload\n  dup2\n  0xff\n  mul\n  not\n  and\n  swap1\n  dup4\n  0x03\n  dup2\n  gt\n  iszero\n  tag_4\n  jumpi\n  tag_5\n  tag_6\n  jump\t// in\ntag_5:\ntag_4:\n  mul\n  or\n  swap1\n  sstore\n  pop\n    /* \"Final_Project/IndianPoker_1_1.sol\":3663:3664  1 */\n  0x01\n    /* \"Final_Project/IndianPoker_1_1.sol\":3654:3660  minBet */\n  0x09\n    /* \"Final_Project/IndianPoker_1_1.sol\":3654:3664  minBet = 1 */\n  dup2\n  swap1\n  sstore\n  pop\n    /* \"Final_Project/IndianPoker_1_1.sol\":126:13569  contract IndianPoker_1_1 {... */\n  jump(tag_7)\n    /* \"#utility.yul\":7:187   */\ntag_6:\n    /* \"#utility.yul\":55:132   */\n  0x4e487b7100000000000000000000000000000000000000000000000000000000\n    /* \"#utility.yul\":52:53   */\n  0x00\n    /* \"#utility.yul\":45:133   */\n  mstore\n    /* \"#utility.yul\":152:156   */\n  0x21\n    /* \"#utility.yul\":149:150   */\n  0x04\n    /* \"#utility.yul\":142:157   */\n  mstore\n    /* \"#utility.yul\":176:180   */\n  0x24\n    /* \"#utility.yul\":173:174   */\n  0x00\n    /* \"#utility.yul\":166:181   */\n  revert\n    /* \"Final_Project/IndianPoker_1_1.sol\":126:13569  contract IndianPoker_1_1 {... */\ntag_7:\n  dataSize(sub_0)\n  dup1\n  dataOffset(sub_0)\n  0x00\n  codecopy\n  0x00\n  return\nstop\n\nsub_0: assembly {\n        /* \"Final_Project/IndianPoker_1_1.sol\":126:13569  contract IndianPoker_1_1 {... */\n      mstore(0x40, 0x80)\n      jumpi(tag_1, lt(calldatasize, 0x04))\n      shr(0xe0, calldataload(0x00))\n      dup1\n      0x80acac88\n      gt\n      tag_23\n      jumpi\n      dup1\n      0xb1c9fe6e\n      gt\n      tag_24\n      jumpi\n      dup1\n      0xb1c9fe6e\n      eq\n      tag_17\n      jumpi\n      dup1\n      0xd4f77b1c\n      eq\n      tag_18\n      jumpi\n      dup1\n      0xd504cb65\n      eq\n      tag_19\n      jumpi\n      dup1\n      0xd65ab5f2\n      eq\n      tag_20\n      jumpi\n      dup1\n      0xe684f46a\n      eq\n      tag_21\n      jumpi\n      dup1\n      0xf71d96cb\n      eq\n      tag_22\n      jumpi\n      jump(tag_1)\n    tag_24:\n      dup1\n      0x80acac88\n      eq\n      tag_12\n      jumpi\n      dup1\n      0x8536b065\n      eq\n      tag_13\n      jumpi\n      dup1\n      0x885c7d36\n      eq\n      tag_14\n      jumpi\n      dup1\n      0x8da5cb5b\n      eq\n      tag_15\n      jumpi\n      dup1\n      0x9619367d\n      eq\n      tag_16\n      jumpi\n      jump(tag_1)\n    tag_23:\n      dup1\n      0x4ba2363a\n      gt\n      tag_25\n      jumpi\n      dup1\n      0x4ba2363a\n      eq\n      tag_7\n      jumpi\n      dup1\n      0x53556559\n      eq\n      tag_8\n      jumpi\n      dup1\n      0x64dbe271\n      eq\n      tag_9\n      jumpi\n      dup1\n      0x7365870b\n      eq\n      tag_10\n      jumpi\n      dup1\n      0x76e033c7\n      eq\n      tag_11\n      jumpi\n      jump(tag_1)\n    tag_25:\n      dup1\n      0x4f4803\n      eq\n      tag_2\n      jumpi\n      dup1\n      0x25b05c88\n      eq\n      tag_3\n      jumpi\n      dup1\n      0x27ef8c99\n      eq\n      tag_4\n      jumpi\n      dup1\n      0x38fcfa9e\n      eq\n      tag_5\n      jumpi\n      dup1\n      0x4331ed1f\n      eq\n      tag_6\n      jumpi\n    tag_1:\n      revert(0x00, 0x00)\n        /* \"Final_Project/IndianPoker_1_1.sol\":8928:9792  function raise(uint256 raiseAmt) external inPhase(GamePhase.BETTING) onlyPlayerActive {... */\n    tag_2:\n      callvalue\n      dup1\n      iszero\n      tag_26\n      jumpi\n      revert(0x00, 0x00)\n    tag_26:\n      pop\n      tag_27\n      0x04\n      dup1\n      calldatasize\n      sub\n      dup2\n      add\n      swap1\n      tag_28\n      swap2\n      swap1\n      tag_29\n      jump\t// in\n    tag_28:\n      tag_30\n      jump\t// in\n    tag_27:\n      stop\n        /* \"Final_Project/IndianPoker_1_1.sol\":1774:1821  mapping(address => uint256) public playerGameId */\n    tag_3:\n      callvalue\n      dup1\n      iszero\n      tag_31\n      jumpi\n      revert(0x00, 0x00)\n    tag_31:\n      pop\n      tag_32\n      0x04\n      dup1\n      calldatasize\n      sub\n      dup2\n      add\n      swap1\n      tag_33\n      swap2\n      swap1\n      tag_34\n      jump\t// in\n    tag_33:\n      tag_35\n      jump\t// in\n    tag_32:\n      mload(0x40)\n      tag_36\n      swap2\n      swap1\n      tag_37\n      jump\t// in\n    tag_36:\n      mload(0x40)\n      dup1\n      swap2\n      sub\n      swap1\n      return\n        /* \"Final_Project/IndianPoker_1_1.sol\":1693:1739  mapping(address => uint256) public playerChips */\n    tag_4:\n      callvalue\n      dup1\n      iszero\n      tag_38\n      jumpi\n      revert(0x00, 0x00)\n    tag_38:\n      pop\n      tag_39\n      0x04\n      dup1\n      calldatasize\n      sub\n      dup2\n      add\n      swap1\n      tag_40\n      swap2\n      swap1\n      tag_34\n      jump\t// in\n    tag_40:\n      tag_41\n      jump\t// in\n    tag_39:\n      mload(0x40)\n      tag_42\n      swap2\n      swap1\n      tag_37\n      jump\t// in\n    tag_42:\n      mload(0x40)\n      dup1\n      swap2\n      sub\n      swap1\n      return\n        /* \"Final_Project/IndianPoker_1_1.sol\":3753:4239  function getChip() external payable {... */\n    tag_5:\n      tag_43\n      tag_44\n      jump\t// in\n    tag_43:\n      stop\n        /* \"Final_Project/IndianPoker_1_1.sol\":2196:2222  uint256 public activeCount */\n    tag_6:\n      callvalue\n      dup1\n      iszero\n      tag_45\n      jumpi\n      revert(0x00, 0x00)\n    tag_45:\n      pop\n      tag_46\n      tag_47\n      jump\t// in\n    tag_46:\n      mload(0x40)\n      tag_48\n      swap2\n      swap1\n      tag_37\n      jump\t// in\n    tag_48:\n      mload(0x40)\n      dup1\n      swap2\n      sub\n      swap1\n      return\n        /* \"Final_Project/IndianPoker_1_1.sol\":1861:1879  uint256 public pot */\n    tag_7:\n      callvalue\n      dup1\n      iszero\n      tag_49\n      jumpi\n      revert(0x00, 0x00)\n    tag_49:\n      pop\n      tag_50\n      tag_51\n      jump\t// in\n    tag_50:\n      mload(0x40)\n      tag_52\n      swap2\n      swap1\n      tag_37\n      jump\t// in\n    tag_52:\n      mload(0x40)\n      dup1\n      swap2\n      sub\n      swap1\n      return\n        /* \"Final_Project/IndianPoker_1_1.sol\":4278:4724  function exchange(uint256 chipAmount) external {... */\n    tag_8:\n      callvalue\n      dup1\n      iszero\n      tag_53\n      jumpi\n      revert(0x00, 0x00)\n    tag_53:\n      pop\n      tag_54\n      0x04\n      dup1\n      calldatasize\n      sub\n      dup2\n      add\n      swap1\n      tag_55\n      swap2\n      swap1\n      tag_29\n      jump\t// in\n    tag_55:\n      tag_56\n      jump\t// in\n    tag_54:\n      stop\n        /* \"Final_Project/IndianPoker_1_1.sol\":5516:6047  function exitGame() external onlyPlayerActive {... */\n    tag_9:\n      callvalue\n      dup1\n      iszero\n      tag_57\n      jumpi\n      revert(0x00, 0x00)\n    tag_57:\n      pop\n      tag_58\n      tag_59\n      jump\t// in\n    tag_58:\n      stop\n        /* \"Final_Project/IndianPoker_1_1.sol\":7296:7972  function bet(uint256 amount) external inPhase(GamePhase.BETTING) onlyPlayerActive {... */\n    tag_10:\n      callvalue\n      dup1\n      iszero\n      tag_60\n      jumpi\n      revert(0x00, 0x00)\n    tag_60:\n      pop\n      tag_61\n      0x04\n      dup1\n      calldatasize\n      sub\n      dup2\n      add\n      swap1\n      tag_62\n      swap2\n      swap1\n      tag_29\n      jump\t// in\n    tag_62:\n      tag_63\n      jump\t// in\n    tag_61:\n      stop\n        /* \"Final_Project/IndianPoker_1_1.sol\":1585:1625  mapping(address => bool) public isInGame */\n    tag_11:\n      callvalue\n      dup1\n      iszero\n      tag_64\n      jumpi\n      revert(0x00, 0x00)\n    tag_64:\n      pop\n      tag_65\n      0x04\n      dup1\n      calldatasize\n      sub\n      dup2\n      add\n      swap1\n      tag_66\n      swap2\n      swap1\n      tag_34\n      jump\t// in\n    tag_66:\n      tag_67\n      jump\t// in\n    tag_65:\n      mload(0x40)\n      tag_68\n      swap2\n      swap1\n      tag_69\n      jump\t// in\n    tag_68:\n      mload(0x40)\n      dup1\n      swap2\n      sub\n      swap1\n      return\n        /* \"Final_Project/IndianPoker_1_1.sol\":2031:2062  uint256 public currentPlayerIdx */\n    tag_12:\n      callvalue\n      dup1\n      iszero\n      tag_70\n      jumpi\n      revert(0x00, 0x00)\n    tag_70:\n      pop\n      tag_71\n      tag_72\n      jump\t// in\n    tag_71:\n      mload(0x40)\n      tag_73\n      swap2\n      swap1\n      tag_37\n      jump\t// in\n    tag_73:\n      mload(0x40)\n      dup1\n      swap2\n      sub\n      swap1\n      return\n        /* \"Final_Project/IndianPoker_1_1.sol\":8014:8894  function callAction() external inPhase(GamePhase.BETTING) onlyPlayerActive {... */\n    tag_13:\n      callvalue\n      dup1\n      iszero\n      tag_74\n      jumpi\n      revert(0x00, 0x00)\n    tag_74:\n      pop\n      tag_75\n      tag_76\n      jump\t// in\n    tag_75:\n      stop\n        /* \"Final_Project/IndianPoker_1_1.sol\":1493:1539  mapping(address => uint256) public playerIndex */\n    tag_14:\n      callvalue\n      dup1\n      iszero\n      tag_77\n      jumpi\n      revert(0x00, 0x00)\n    tag_77:\n      pop\n      tag_78\n      0x04\n      dup1\n      calldatasize\n      sub\n      dup2\n      add\n      swap1\n      tag_79\n      swap2\n      swap1\n      tag_34\n      jump\t// in\n    tag_79:\n      tag_80\n      jump\t// in\n    tag_78:\n      mload(0x40)\n      tag_81\n      swap2\n      swap1\n      tag_37\n      jump\t// in\n    tag_81:\n      mload(0x40)\n      dup1\n      swap2\n      sub\n      swap1\n      return\n        /* \"Final_Project/IndianPoker_1_1.sol\":1333:1353  address public owner */\n    tag_15:\n      callvalue\n      dup1\n      iszero\n      tag_82\n      jumpi\n      revert(0x00, 0x00)\n    tag_82:\n      pop\n      tag_83\n      tag_84\n      jump\t// in\n    tag_83:\n      mload(0x40)\n      tag_85\n      swap2\n      swap1\n      tag_86\n      jump\t// in\n    tag_85:\n      mload(0x40)\n      dup1\n      swap2\n      sub\n      swap1\n      return\n        /* \"Final_Project/IndianPoker_1_1.sol\":2125:2146  uint256 public minBet */\n    tag_16:\n      callvalue\n      dup1\n      iszero\n      tag_87\n      jumpi\n      revert(0x00, 0x00)\n    tag_87:\n      pop\n      tag_88\n      tag_89\n      jump\t// in\n    tag_88:\n      mload(0x40)\n      tag_90\n      swap2\n      swap1\n      tag_37\n      jump\t// in\n    tag_90:\n      mload(0x40)\n      dup1\n      swap2\n      sub\n      swap1\n      return\n        /* \"Final_Project/IndianPoker_1_1.sol\":1262:1284  GamePhase public phase */\n    tag_17:\n      callvalue\n      dup1\n      iszero\n      tag_91\n      jumpi\n      revert(0x00, 0x00)\n    tag_91:\n      pop\n      tag_92\n      tag_93\n      jump\t// in\n    tag_92:\n      mload(0x40)\n      tag_94\n      swap2\n      swap1\n      tag_95\n      jump\t// in\n    tag_94:\n      mload(0x40)\n      dup1\n      swap2\n      sub\n      swap1\n      return\n        /* \"Final_Project/IndianPoker_1_1.sol\":4762:5471  function joinGame() external payable inPhase(GamePhase.WAITING) {... */\n    tag_18:\n      tag_96\n      tag_97\n      jump\t// in\n    tag_96:\n      stop\n        /* \"Final_Project/IndianPoker_1_1.sol\":1943:1968  uint256 public currentBet */\n    tag_19:\n      callvalue\n      dup1\n      iszero\n      tag_98\n      jumpi\n      revert(0x00, 0x00)\n    tag_98:\n      pop\n      tag_99\n      tag_100\n      jump\t// in\n    tag_99:\n      mload(0x40)\n      tag_101\n      swap2\n      swap1\n      tag_37\n      jump\t// in\n    tag_101:\n      mload(0x40)\n      dup1\n      swap2\n      sub\n      swap1\n      return\n        /* \"Final_Project/IndianPoker_1_1.sol\":6111:7265  function startGame() external onlyOwner inPhase(GamePhase.WAITING) {... */\n    tag_20:\n      callvalue\n      dup1\n      iszero\n      tag_102\n      jumpi\n      revert(0x00, 0x00)\n    tag_102:\n      pop\n      tag_103\n      tag_104\n      jump\t// in\n    tag_103:\n      stop\n        /* \"Final_Project/IndianPoker_1_1.sol\":9823:10600  function fold() external inPhase(GamePhase.BETTING) onlyPlayerActive {... */\n    tag_21:\n      callvalue\n      dup1\n      iszero\n      tag_105\n      jumpi\n      revert(0x00, 0x00)\n    tag_105:\n      pop\n      tag_106\n      tag_107\n      jump\t// in\n    tag_106:\n      stop\n        /* \"Final_Project/IndianPoker_1_1.sol\":1414:1437  Player[] public players */\n    tag_22:\n      callvalue\n      dup1\n      iszero\n      tag_108\n      jumpi\n      revert(0x00, 0x00)\n    tag_108:\n      pop\n      tag_109\n      0x04\n      dup1\n      calldatasize\n      sub\n      dup2\n      add\n      swap1\n      tag_110\n      swap2\n      swap1\n      tag_29\n      jump\t// in\n    tag_110:\n      tag_111\n      jump\t// in\n    tag_109:\n      mload(0x40)\n      tag_112\n      swap10\n      swap9\n      swap8\n      swap7\n      swap6\n      swap5\n      swap4\n      swap3\n      swap2\n      swap1\n      tag_113\n      jump\t// in\n    tag_112:\n      mload(0x40)\n      dup1\n      swap2\n      sub\n      swap1\n      return\n        /* \"Final_Project/IndianPoker_1_1.sol\":8928:9792  function raise(uint256 raiseAmt) external inPhase(GamePhase.BETTING) onlyPlayerActive {... */\n    tag_30:\n        /* \"Final_Project/IndianPoker_1_1.sol\":8978:8995  GamePhase.BETTING */\n      0x01\n        /* \"Final_Project/IndianPoker_1_1.sol\":3332:3333  p */\n      dup1\n        /* \"Final_Project/IndianPoker_1_1.sol\":3323:3333  phase == p */\n      0x03\n      dup2\n      gt\n      iszero\n      tag_115\n      jumpi\n      tag_116\n      tag_117\n      jump\t// in\n    tag_116:\n    tag_115:\n        /* \"Final_Project/IndianPoker_1_1.sol\":3323:3328  phase */\n      0x00\n      0x00\n      swap1\n      sload\n      swap1\n      0x0100\n      exp\n      swap1\n      div\n      0xff\n      and\n        /* \"Final_Project/IndianPoker_1_1.sol\":3323:3333  phase == p */\n      0x03\n      dup2\n      gt\n      iszero\n      tag_118\n      jumpi\n      tag_119\n      tag_117\n      jump\t// in\n    tag_119:\n    tag_118:\n      eq\n        /* \"Final_Project/IndianPoker_1_1.sol\":3315:3351  require(phase == p, \"Invalid phase\") */\n      tag_120\n      jumpi\n      mload(0x40)\n      0x08c379a000000000000000000000000000000000000000000000000000000000\n      dup2\n      mstore\n      0x04\n      add\n      tag_121\n      swap1\n      tag_122\n      jump\t// in\n    tag_121:\n      mload(0x40)\n      dup1\n      swap2\n      sub\n      swap1\n      revert\n    tag_120:\n        /* \"Final_Project/IndianPoker_1_1.sol\":3415:3423  isInGame */\n      0x03\n        /* \"Final_Project/IndianPoker_1_1.sol\":3415:3435  isInGame[msg.sender] */\n      0x00\n        /* \"Final_Project/IndianPoker_1_1.sol\":3424:3434  msg.sender */\n      caller\n        /* \"Final_Project/IndianPoker_1_1.sol\":3415:3435  isInGame[msg.sender] */\n      0xffffffffffffffffffffffffffffffffffffffff\n      and\n      0xffffffffffffffffffffffffffffffffffffffff\n      and\n      dup2\n      mstore\n      0x20\n      add\n      swap1\n      dup2\n      mstore\n      0x20\n      add\n      0x00\n      keccak256\n      0x00\n      swap1\n      sload\n      swap1\n      0x0100\n      exp\n      swap1\n      div\n      0xff\n      and\n        /* \"Final_Project/IndianPoker_1_1.sol\":3407:3451  require(isInGame[msg.sender], \"Not in game\") */\n      tag_124\n      jumpi\n      mload(0x40)\n      0x08c379a000000000000000000000000000000000000000000000000000000000\n      dup2\n      mstore\n      0x04\n      add\n      tag_125\n      swap1\n      tag_126\n      jump\t// in\n    tag_125:\n      mload(0x40)\n      dup1\n      swap2\n      sub\n      swap1\n      revert\n    tag_124:\n        /* \"Final_Project/IndianPoker_1_1.sol\":9025:9041  Player storage p */\n      0x00\n        /* \"Final_Project/IndianPoker_1_1.sol\":9044:9051  players */\n      0x01\n        /* \"Final_Project/IndianPoker_1_1.sol\":9052:9063  playerIndex */\n      0x02\n        /* \"Final_Project/IndianPoker_1_1.sol\":9052:9075  playerIndex[msg.sender] */\n      0x00\n        /* \"Final_Project/IndianPoker_1_1.sol\":9064:9074  msg.sender */\n      caller\n        /* \"Final_Project/IndianPoker_1_1.sol\":9052:9075  playerIndex[msg.sender] */\n      0xffffffffffffffffffffffffffffffffffffffff\n      and\n      0xffffffffffffffffffffffffffffffffffffffff\n      and\n      dup2\n      mstore\n      0x20\n      add\n      swap1\n      dup2\n      mstore\n      0x20\n      add\n      0x00\n      keccak256\n      sload\n        /* \"Final_Project/IndianPoker_1_1.sol\":9044:9076  players[playerIndex[msg.sender]] */\n      dup2\n      sload\n      dup2\n      lt\n      tag_128\n      jumpi\n      tag_129\n      tag_130\n      jump\t// in\n    tag_129:\n    tag_128:\n      swap1\n      0x00\n      mstore\n      keccak256(0x00, 0x20)\n      swap1\n      0x06\n      mul\n      add\n        /* \"Final_Project/IndianPoker_1_1.sol\":9025:9076  Player storage p = players[playerIndex[msg.sender]] */\n      swap1\n      pop\n        /* \"Final_Project/IndianPoker_1_1.sol\":9087:9096  uint need */\n      0x00\n        /* \"Final_Project/IndianPoker_1_1.sol\":9112:9113  p */\n      dup2\n        /* \"Final_Project/IndianPoker_1_1.sol\":9112:9124  p.currentBet */\n      0x03\n      add\n      sload\n        /* \"Final_Project/IndianPoker_1_1.sol\":9099:9109  currentBet */\n      sload(0x07)\n        /* \"Final_Project/IndianPoker_1_1.sol\":9099:9124  currentBet - p.currentBet */\n      tag_132\n      swap2\n      swap1\n      tag_133\n      jump\t// in\n    tag_132:\n        /* \"Final_Project/IndianPoker_1_1.sol\":9087:9124  uint need = currentBet - p.currentBet */\n      swap1\n      pop\n        /* \"Final_Project/IndianPoker_1_1.sol\":9135:9145  uint total */\n      0x00\n        /* \"Final_Project/IndianPoker_1_1.sol\":9155:9163  raiseAmt */\n      dup5\n        /* \"Final_Project/IndianPoker_1_1.sol\":9148:9152  need */\n      dup3\n        /* \"Final_Project/IndianPoker_1_1.sol\":9148:9163  need + raiseAmt */\n      tag_134\n      swap2\n      swap1\n      tag_135\n      jump\t// in\n    tag_134:\n        /* \"Final_Project/IndianPoker_1_1.sol\":9135:9163  uint total = need + raiseAmt */\n      swap1\n      pop\n        /* \"Final_Project/IndianPoker_1_1.sol\":9193:9194  0 */\n      0x00\n        /* \"Final_Project/IndianPoker_1_1.sol\":9182:9190  raiseAmt */\n      dup6\n        /* \"Final_Project/IndianPoker_1_1.sol\":9182:9194  raiseAmt > 0 */\n      gt\n        /* \"Final_Project/IndianPoker_1_1.sol\":9182:9214  raiseAmt > 0 && p.chips >= total */\n      dup1\n      iszero\n      tag_136\n      jumpi\n      pop\n        /* \"Final_Project/IndianPoker_1_1.sol\":9209:9214  total */\n      dup1\n        /* \"Final_Project/IndianPoker_1_1.sol\":9198:9199  p */\n      dup4\n        /* \"Final_Project/IndianPoker_1_1.sol\":9198:9205  p.chips */\n      0x01\n      add\n      sload\n        /* \"Final_Project/IndianPoker_1_1.sol\":9198:9214  p.chips >= total */\n      lt\n      iszero\n        /* \"Final_Project/IndianPoker_1_1.sol\":9182:9214  raiseAmt > 0 && p.chips >= total */\n    tag_136:\n        /* \"Final_Project/IndianPoker_1_1.sol\":9174:9232  require(raiseAmt > 0 && p.chips >= total, \"Invalid raise\") */\n      tag_137\n      jumpi\n      mload(0x40)\n      0x08c379a000000000000000000000000000000000000000000000000000000000\n      dup2\n      mstore\n      0x04\n      add\n      tag_138\n      swap1\n      tag_139\n      jump\t// in\n    tag_138:\n      mload(0x40)\n      dup1\n      swap2\n      sub\n      swap1\n      revert\n    tag_137:\n        /* \"Final_Project/IndianPoker_1_1.sol\":9254:9259  total */\n      dup1\n        /* \"Final_Project/IndianPoker_1_1.sol\":9243:9244  p */\n      dup4\n        /* \"Final_Project/IndianPoker_1_1.sol\":9243:9250  p.chips */\n      0x01\n      add\n      0x00\n        /* \"Final_Project/IndianPoker_1_1.sol\":9243:9259  p.chips -= total */\n      dup3\n      dup3\n      sload\n      tag_140\n      swap2\n      swap1\n      tag_133\n      jump\t// in\n    tag_140:\n      swap3\n      pop\n      pop\n      dup2\n      swap1\n      sstore\n      pop\n        /* \"Final_Project/IndianPoker_1_1.sol\":9286:9291  total */\n      dup1\n        /* \"Final_Project/IndianPoker_1_1.sol\":9270:9271  p */\n      dup4\n        /* \"Final_Project/IndianPoker_1_1.sol\":9270:9282  p.currentBet */\n      0x03\n      add\n      0x00\n        /* \"Final_Project/IndianPoker_1_1.sol\":9270:9291  p.currentBet += total */\n      dup3\n      dup3\n      sload\n      tag_141\n      swap2\n      swap1\n      tag_135\n      jump\t// in\n    tag_141:\n      swap3\n      pop\n      pop\n      dup2\n      swap1\n      sstore\n      pop\n        /* \"Final_Project/IndianPoker_1_1.sol\":9309:9314  total */\n      dup1\n        /* \"Final_Project/IndianPoker_1_1.sol\":9302:9305  pot */\n      0x06\n      0x00\n        /* \"Final_Project/IndianPoker_1_1.sol\":9302:9314  pot += total */\n      dup3\n      dup3\n      sload\n      tag_142\n      swap2\n      swap1\n      tag_135\n      jump\t// in\n    tag_142:\n      swap3\n      pop\n      pop\n      dup2\n      swap1\n      sstore\n      pop\n        /* \"Final_Project/IndianPoker_1_1.sol\":9338:9339  p */\n      dup3\n        /* \"Final_Project/IndianPoker_1_1.sol\":9338:9350  p.currentBet */\n      0x03\n      add\n      sload\n        /* \"Final_Project/IndianPoker_1_1.sol\":9325:9335  currentBet */\n      0x07\n        /* \"Final_Project/IndianPoker_1_1.sol\":9325:9350  currentBet = p.currentBet */\n      dup2\n      swap1\n      sstore\n      pop\n        /* \"Final_Project/IndianPoker_1_1.sol\":9376:9394  PlayerAction.RAISE */\n      0x03\n        /* \"Final_Project/IndianPoker_1_1.sol\":9361:9362  p */\n      dup4\n        /* \"Final_Project/IndianPoker_1_1.sol\":9361:9373  p.lastAction */\n      0x04\n      add\n      0x00\n        /* \"Final_Project/IndianPoker_1_1.sol\":9361:9394  p.lastAction = PlayerAction.RAISE */\n      0x0100\n      exp\n      dup2\n      sload\n      dup2\n      0xff\n      mul\n      not\n      and\n      swap1\n      dup4\n      0x05\n      dup2\n      gt\n      iszero\n      tag_143\n      jumpi\n      tag_144\n      tag_117\n      jump\t// in\n    tag_144:\n    tag_143:\n      mul\n      or\n      swap1\n      sstore\n      pop\n        /* \"Final_Project/IndianPoker_1_1.sol\":9517:9523  uint i */\n      0x00\n        /* \"Final_Project/IndianPoker_1_1.sol\":9524:9525  0 */\n      0x00\n        /* \"Final_Project/IndianPoker_1_1.sol\":9517:9525  uint i=0 */\n      swap1\n      pop\n        /* \"Final_Project/IndianPoker_1_1.sol\":9513:9692  for(uint i=0;i<players.length;i++){ ... */\n    tag_145:\n        /* \"Final_Project/IndianPoker_1_1.sol\":9528:9535  players */\n      0x01\n        /* \"Final_Project/IndianPoker_1_1.sol\":9528:9542  players.length */\n      dup1\n      sload\n      swap1\n      pop\n        /* \"Final_Project/IndianPoker_1_1.sol\":9526:9527  i */\n      dup2\n        /* \"Final_Project/IndianPoker_1_1.sol\":9526:9542  i<players.length */\n      lt\n        /* \"Final_Project/IndianPoker_1_1.sol\":9513:9692  for(uint i=0;i<players.length;i++){ ... */\n      iszero\n      tag_146\n      jumpi\n        /* \"Final_Project/IndianPoker_1_1.sol\":9566:9573  players */\n      0x01\n        /* \"Final_Project/IndianPoker_1_1.sol\":9574:9575  i */\n      dup2\n        /* \"Final_Project/IndianPoker_1_1.sol\":9566:9576  players[i] */\n      dup2\n      sload\n      dup2\n      lt\n      tag_148\n      jumpi\n      tag_149\n      tag_130\n      jump\t// in\n    tag_149:\n    tag_148:\n      swap1\n      0x00\n      mstore\n      keccak256(0x00, 0x20)\n      swap1\n      0x06\n      mul\n      add\n        /* \"Final_Project/IndianPoker_1_1.sol\":9566:9585  players[i].isActive */\n      0x02\n      add\n      0x01\n      swap1\n      sload\n      swap1\n      0x0100\n      exp\n      swap1\n      div\n      0xff\n      and\n        /* \"Final_Project/IndianPoker_1_1.sol\":9566:9618  players[i].isActive && players[i].addr != msg.sender */\n      dup1\n      iszero\n      tag_151\n      jumpi\n      pop\n        /* \"Final_Project/IndianPoker_1_1.sol\":9608:9618  msg.sender */\n      caller\n        /* \"Final_Project/IndianPoker_1_1.sol\":9589:9618  players[i].addr != msg.sender */\n      0xffffffffffffffffffffffffffffffffffffffff\n      and\n        /* \"Final_Project/IndianPoker_1_1.sol\":9589:9596  players */\n      0x01\n        /* \"Final_Project/IndianPoker_1_1.sol\":9597:9598  i */\n      dup3\n        /* \"Final_Project/IndianPoker_1_1.sol\":9589:9599  players[i] */\n      dup2\n      sload\n      dup2\n      lt\n      tag_152\n      jumpi\n      tag_153\n      tag_130\n      jump\t// in\n    tag_153:\n    tag_152:\n      swap1\n      0x00\n      mstore\n      keccak256(0x00, 0x20)\n      swap1\n      0x06\n      mul\n      add\n        /* \"Final_Project/IndianPoker_1_1.sol\":9589:9604  players[i].addr */\n      0x00\n      add\n      0x00\n      swap1\n      sload\n      swap1\n      0x0100\n      exp\n      swap1\n      div\n      0xffffffffffffffffffffffffffffffffffffffff\n      and\n        /* \"Final_Project/IndianPoker_1_1.sol\":9589:9618  players[i].addr != msg.sender */\n      0xffffffffffffffffffffffffffffffffffffffff\n      and\n      eq\n      iszero\n        /* \"Final_Project/IndianPoker_1_1.sol\":9566:9618  players[i].isActive && players[i].addr != msg.sender */\n    tag_151:\n        /* \"Final_Project/IndianPoker_1_1.sol\":9563:9679  if(players[i].isActive && players[i].addr != msg.sender) ... */\n      iszero\n      tag_155\n      jumpi\n        /* \"Final_Project/IndianPoker_1_1.sol\":9662:9679  PlayerAction.NONE */\n      0x00\n        /* \"Final_Project/IndianPoker_1_1.sol\":9638:9645  players */\n      0x01\n        /* \"Final_Project/IndianPoker_1_1.sol\":9646:9647  i */\n      dup3\n        /* \"Final_Project/IndianPoker_1_1.sol\":9638:9648  players[i] */\n      dup2\n      sload\n      dup2\n      lt\n      tag_156\n      jumpi\n      tag_157\n      tag_130\n      jump\t// in\n    tag_157:\n    tag_156:\n      swap1\n      0x00\n      mstore\n      keccak256(0x00, 0x20)\n      swap1\n      0x06\n      mul\n      add\n        /* \"Final_Project/IndianPoker_1_1.sol\":9638:9659  players[i].lastAction */\n      0x04\n      add\n      0x00\n        /* \"Final_Project/IndianPoker_1_1.sol\":9638:9679  players[i].lastAction = PlayerAction.NONE */\n      0x0100\n      exp\n      dup2\n      sload\n      dup2\n      0xff\n      mul\n      not\n      and\n      swap1\n      dup4\n      0x05\n      dup2\n      gt\n      iszero\n      tag_159\n      jumpi\n      tag_160\n      tag_117\n      jump\t// in\n    tag_160:\n    tag_159:\n      mul\n      or\n      swap1\n      sstore\n      pop\n        /* \"Final_Project/IndianPoker_1_1.sol\":9563:9679  if(players[i].isActive && players[i].addr != msg.sender) ... */\n    tag_155:\n        /* \"Final_Project/IndianPoker_1_1.sol\":9543:9546  i++ */\n      dup1\n      dup1\n      0x01\n      add\n      swap2\n      pop\n      pop\n        /* \"Final_Project/IndianPoker_1_1.sol\":9513:9692  for(uint i=0;i<players.length;i++){ ... */\n      jump(tag_145)\n    tag_146:\n      pop\n        /* \"Final_Project/IndianPoker_1_1.sol\":9719:9729  msg.sender */\n      caller\n        /* \"Final_Project/IndianPoker_1_1.sol\":9707:9760  PlayerActed(msg.sender, PlayerAction.RAISE, raiseAmt) */\n      0xffffffffffffffffffffffffffffffffffffffff\n      and\n      0x67c29155f1efde8516a854ad304ad39dbf9a2f4edaf7294fce3e7db25af24f7b\n        /* \"Final_Project/IndianPoker_1_1.sol\":9731:9749  PlayerAction.RAISE */\n      0x03\n        /* \"Final_Project/IndianPoker_1_1.sol\":9751:9759  raiseAmt */\n      dup8\n        /* \"Final_Project/IndianPoker_1_1.sol\":9707:9760  PlayerActed(msg.sender, PlayerAction.RAISE, raiseAmt) */\n      mload(0x40)\n      tag_161\n      swap3\n      swap2\n      swap1\n      tag_162\n      jump\t// in\n    tag_161:\n      mload(0x40)\n      dup1\n      swap2\n      sub\n      swap1\n      log2\n        /* \"Final_Project/IndianPoker_1_1.sol\":9771:9784  advanceTurn() */\n      tag_163\n        /* \"Final_Project/IndianPoker_1_1.sol\":9771:9782  advanceTurn */\n      tag_164\n        /* \"Final_Project/IndianPoker_1_1.sol\":9771:9784  advanceTurn() */\n      jump\t// in\n    tag_163:\n        /* \"Final_Project/IndianPoker_1_1.sol\":9014:9792  {... */\n      pop\n      pop\n      pop\n        /* \"Final_Project/IndianPoker_1_1.sol\":8928:9792  function raise(uint256 raiseAmt) external inPhase(GamePhase.BETTING) onlyPlayerActive {... */\n      pop\n      pop\n      jump\t// out\n        /* \"Final_Project/IndianPoker_1_1.sol\":1774:1821  mapping(address => uint256) public playerGameId */\n    tag_35:\n      mstore(0x20, 0x05)\n      dup1\n      0x00\n      mstore\n      keccak256(0x00, 0x40)\n      0x00\n      swap2\n      pop\n      swap1\n      pop\n      sload\n      dup2\n      jump\t// out\n        /* \"Final_Project/IndianPoker_1_1.sol\":1693:1739  mapping(address => uint256) public playerChips */\n    tag_41:\n      mstore(0x20, 0x04)\n      dup1\n      0x00\n      mstore\n      keccak256(0x00, 0x40)\n      0x00\n      swap2\n      pop\n      swap1\n      pop\n      sload\n      dup2\n      jump\t// out\n        /* \"Final_Project/IndianPoker_1_1.sol\":3753:4239  function getChip() external payable {... */\n    tag_44:\n        /* \"Final_Project/IndianPoker_1_1.sol\":2599:2610  0.001 ether */\n      0x038d7ea4c68000\n        /* \"Final_Project/IndianPoker_1_1.sol\":3863:3872  msg.value */\n      callvalue\n        /* \"Final_Project/IndianPoker_1_1.sol\":3863:3885  msg.value >= ENTRY_FEE */\n      lt\n      iszero\n        /* \"Final_Project/IndianPoker_1_1.sol\":3863:3915  msg.value >= ENTRY_FEE && msg.value % ENTRY_FEE == 0 */\n      dup1\n      iszero\n      tag_166\n      jumpi\n      pop\n        /* \"Final_Project/IndianPoker_1_1.sol\":3914:3915  0 */\n      0x00\n        /* \"Final_Project/IndianPoker_1_1.sol\":2599:2610  0.001 ether */\n      0x038d7ea4c68000\n        /* \"Final_Project/IndianPoker_1_1.sol\":3889:3898  msg.value */\n      callvalue\n        /* \"Final_Project/IndianPoker_1_1.sol\":3889:3910  msg.value % ENTRY_FEE */\n      tag_167\n      swap2\n      swap1\n      tag_168\n      jump\t// in\n    tag_167:\n        /* \"Final_Project/IndianPoker_1_1.sol\":3889:3915  msg.value % ENTRY_FEE == 0 */\n      eq\n        /* \"Final_Project/IndianPoker_1_1.sol\":3863:3915  msg.value >= ENTRY_FEE && msg.value % ENTRY_FEE == 0 */\n    tag_166:\n        /* \"Final_Project/IndianPoker_1_1.sol\":3855:3940  require(msg.value >= ENTRY_FEE && msg.value % ENTRY_FEE == 0, \"0.001 ETH increments\") */\n      tag_169\n      jumpi\n      mload(0x40)\n      0x08c379a000000000000000000000000000000000000000000000000000000000\n      dup2\n      mstore\n      0x04\n      add\n      tag_170\n      swap1\n      tag_171\n      jump\t// in\n    tag_170:\n      mload(0x40)\n      dup1\n      swap2\n      sub\n      swap1\n      revert\n    tag_169:\n        /* \"Final_Project/IndianPoker_1_1.sol\":3951:3964  uint256 chips */\n      0x00\n        /* \"Final_Project/IndianPoker_1_1.sol\":2599:2610  0.001 ether */\n      0x038d7ea4c68000\n        /* \"Final_Project/IndianPoker_1_1.sol\":2435:2437  20 */\n      0x14\n        /* \"Final_Project/IndianPoker_1_1.sol\":3968:3977  msg.value */\n      callvalue\n        /* \"Final_Project/IndianPoker_1_1.sol\":3968:3989  msg.value * CHIP_RATE */\n      tag_172\n      swap2\n      swap1\n      tag_173\n      jump\t// in\n    tag_172:\n        /* \"Final_Project/IndianPoker_1_1.sol\":3967:4002  (msg.value * CHIP_RATE) / ENTRY_FEE */\n      tag_174\n      swap2\n      swap1\n      tag_175\n      jump\t// in\n    tag_174:\n        /* \"Final_Project/IndianPoker_1_1.sol\":3951:4002  uint256 chips = (msg.value * CHIP_RATE) / ENTRY_FEE */\n      swap1\n      pop\n        /* \"Final_Project/IndianPoker_1_1.sol\":4087:4095  isInGame */\n      0x03\n        /* \"Final_Project/IndianPoker_1_1.sol\":4087:4107  isInGame[msg.sender] */\n      0x00\n        /* \"Final_Project/IndianPoker_1_1.sol\":4096:4106  msg.sender */\n      caller\n        /* \"Final_Project/IndianPoker_1_1.sol\":4087:4107  isInGame[msg.sender] */\n      0xffffffffffffffffffffffffffffffffffffffff\n      and\n      0xffffffffffffffffffffffffffffffffffffffff\n      and\n      dup2\n      mstore\n      0x20\n      add\n      swap1\n      dup2\n      mstore\n      0x20\n      add\n      0x00\n      keccak256\n      0x00\n      swap1\n      sload\n      swap1\n      0x0100\n      exp\n      swap1\n      div\n      0xff\n      and\n        /* \"Final_Project/IndianPoker_1_1.sol\":4083:4183  if (isInGame[msg.sender]) {... */\n      iszero\n      tag_176\n      jumpi\n        /* \"Final_Project/IndianPoker_1_1.sol\":4166:4171  chips */\n      dup1\n        /* \"Final_Project/IndianPoker_1_1.sol\":4124:4131  players */\n      0x01\n        /* \"Final_Project/IndianPoker_1_1.sol\":4132:4143  playerIndex */\n      0x02\n        /* \"Final_Project/IndianPoker_1_1.sol\":4132:4155  playerIndex[msg.sender] */\n      0x00\n        /* \"Final_Project/IndianPoker_1_1.sol\":4144:4154  msg.sender */\n      caller\n        /* \"Final_Project/IndianPoker_1_1.sol\":4132:4155  playerIndex[msg.sender] */\n      0xffffffffffffffffffffffffffffffffffffffff\n      and\n      0xffffffffffffffffffffffffffffffffffffffff\n      and\n      dup2\n      mstore\n      0x20\n      add\n      swap1\n      dup2\n      mstore\n      0x20\n      add\n      0x00\n      keccak256\n      sload\n        /* \"Final_Project/IndianPoker_1_1.sol\":4124:4156  players[playerIndex[msg.sender]] */\n      dup2\n      sload\n      dup2\n      lt\n      tag_177\n      jumpi\n      tag_178\n      tag_130\n      jump\t// in\n    tag_178:\n    tag_177:\n      swap1\n      0x00\n      mstore\n      keccak256(0x00, 0x20)\n      swap1\n      0x06\n      mul\n      add\n        /* \"Final_Project/IndianPoker_1_1.sol\":4124:4162  players[playerIndex[msg.sender]].chips */\n      0x01\n      add\n      0x00\n        /* \"Final_Project/IndianPoker_1_1.sol\":4124:4171  players[playerIndex[msg.sender]].chips += chips */\n      dup3\n      dup3\n      sload\n      tag_180\n      swap2\n      swap1\n      tag_135\n      jump\t// in\n    tag_180:\n      swap3\n      pop\n      pop\n      dup2\n      swap1\n      sstore\n      pop\n        /* \"Final_Project/IndianPoker_1_1.sol\":4083:4183  if (isInGame[msg.sender]) {... */\n    tag_176:\n        /* \"Final_Project/IndianPoker_1_1.sol\":4198:4231  ChipsPurchased(msg.sender, chips) */\n      0x85637b17e1b2f58ee0bd3b882c032092a3b8453f44026dc397be30023bf78696\n        /* \"Final_Project/IndianPoker_1_1.sol\":4213:4223  msg.sender */\n      caller\n        /* \"Final_Project/IndianPoker_1_1.sol\":4225:4230  chips */\n      dup3\n        /* \"Final_Project/IndianPoker_1_1.sol\":4198:4231  ChipsPurchased(msg.sender, chips) */\n      mload(0x40)\n      tag_181\n      swap3\n      swap2\n      swap1\n      tag_182\n      jump\t// in\n    tag_181:\n      mload(0x40)\n      dup1\n      swap2\n      sub\n      swap1\n      log1\n        /* \"Final_Project/IndianPoker_1_1.sol\":3789:4239  {... */\n      pop\n        /* \"Final_Project/IndianPoker_1_1.sol\":3753:4239  function getChip() external payable {... */\n      jump\t// out\n        /* \"Final_Project/IndianPoker_1_1.sol\":2196:2222  uint256 public activeCount */\n    tag_47:\n      sload(0x0a)\n      dup2\n      jump\t// out\n        /* \"Final_Project/IndianPoker_1_1.sol\":1861:1879  uint256 public pot */\n    tag_51:\n      sload(0x06)\n      dup2\n      jump\t// out\n        /* \"Final_Project/IndianPoker_1_1.sol\":4278:4724  function exchange(uint256 chipAmount) external {... */\n    tag_56:\n        /* \"Final_Project/IndianPoker_1_1.sol\":4357:4358  0 */\n      0x00\n        /* \"Final_Project/IndianPoker_1_1.sol\":4344:4354  chipAmount */\n      dup2\n        /* \"Final_Project/IndianPoker_1_1.sol\":4344:4358  chipAmount > 0 */\n      gt\n        /* \"Final_Project/IndianPoker_1_1.sol\":4336:4365  require(chipAmount > 0, \">0\") */\n      tag_184\n      jumpi\n      mload(0x40)\n      0x08c379a000000000000000000000000000000000000000000000000000000000\n      dup2\n      mstore\n      0x04\n      add\n      tag_185\n      swap1\n      tag_186\n      jump\t// in\n    tag_185:\n      mload(0x40)\n      dup1\n      swap2\n      sub\n      swap1\n      revert\n    tag_184:\n        /* \"Final_Project/IndianPoker_1_1.sol\":4385:4393  isInGame */\n      0x03\n        /* \"Final_Project/IndianPoker_1_1.sol\":4385:4405  isInGame[msg.sender] */\n      0x00\n        /* \"Final_Project/IndianPoker_1_1.sol\":4394:4404  msg.sender */\n      caller\n        /* \"Final_Project/IndianPoker_1_1.sol\":4385:4405  isInGame[msg.sender] */\n      0xffffffffffffffffffffffffffffffffffffffff\n      and\n      0xffffffffffffffffffffffffffffffffffffffff\n      and\n      dup2\n      mstore\n      0x20\n      add\n      swap1\n      dup2\n      mstore\n      0x20\n      add\n      0x00\n      keccak256\n      0x00\n      swap1\n      sload\n      swap1\n      0x0100\n      exp\n      swap1\n      div\n      0xff\n      and\n        /* \"Final_Project/IndianPoker_1_1.sol\":4384:4405  !isInGame[msg.sender] */\n      iszero\n        /* \"Final_Project/IndianPoker_1_1.sol\":4376:4432  require(!isInGame[msg.sender], \"Leave game to exchange\") */\n      tag_187\n      jumpi\n      mload(0x40)\n      0x08c379a000000000000000000000000000000000000000000000000000000000\n      dup2\n      mstore\n      0x04\n      add\n      tag_188\n      swap1\n      tag_189\n      jump\t// in\n    tag_188:\n      mload(0x40)\n      dup1\n      swap2\n      sub\n      swap1\n      revert\n    tag_187:\n        /* \"Final_Project/IndianPoker_1_1.sol\":4484:4498  uint256 ethAmt */\n      0x00\n        /* \"Final_Project/IndianPoker_1_1.sol\":2524:2538  50000000000000 */\n      0x2d79883d2000\n        /* \"Final_Project/IndianPoker_1_1.sol\":4501:4511  chipAmount */\n      dup3\n        /* \"Final_Project/IndianPoker_1_1.sol\":4501:4527  chipAmount * EXCHANGE_RATE */\n      tag_190\n      swap2\n      swap1\n      tag_173\n      jump\t// in\n    tag_190:\n        /* \"Final_Project/IndianPoker_1_1.sol\":4484:4527  uint256 ethAmt = chipAmount * EXCHANGE_RATE */\n      swap1\n      pop\n        /* \"Final_Project/IndianPoker_1_1.sol\":4571:4577  ethAmt */\n      dup1\n        /* \"Final_Project/IndianPoker_1_1.sol\":4546:4567  address(this).balance */\n      selfbalance\n        /* \"Final_Project/IndianPoker_1_1.sol\":4546:4577  address(this).balance >= ethAmt */\n      lt\n      iszero\n        /* \"Final_Project/IndianPoker_1_1.sol\":4538:4607  require(address(this).balance >= ethAmt, \"Insufficient contract ETH\") */\n      tag_191\n      jumpi\n      mload(0x40)\n      0x08c379a000000000000000000000000000000000000000000000000000000000\n      dup2\n      mstore\n      0x04\n      add\n      tag_192\n      swap1\n      tag_193\n      jump\t// in\n    tag_192:\n      mload(0x40)\n      dup1\n      swap2\n      sub\n      swap1\n      revert\n    tag_191:\n        /* \"Final_Project/IndianPoker_1_1.sol\":4626:4636  msg.sender */\n      caller\n        /* \"Final_Project/IndianPoker_1_1.sol\":4618:4646  payable(msg.sender).transfer */\n      0xffffffffffffffffffffffffffffffffffffffff\n      and\n        /* \"Final_Project/IndianPoker_1_1.sol\":4618:4654  payable(msg.sender).transfer(ethAmt) */\n      0x08fc\n        /* \"Final_Project/IndianPoker_1_1.sol\":4647:4653  ethAmt */\n      dup3\n        /* \"Final_Project/IndianPoker_1_1.sol\":4618:4654  payable(msg.sender).transfer(ethAmt) */\n      swap1\n      dup2\n      iszero\n      mul\n      swap1\n      mload(0x40)\n      0x00\n      mload(0x40)\n      dup1\n      dup4\n      sub\n      dup2\n      dup6\n      dup9\n      dup9\n      call\n      swap4\n      pop\n      pop\n      pop\n      pop\n      iszero\n      dup1\n      iszero\n      tag_195\n      jumpi\n      returndatacopy(0x00, 0x00, returndatasize)\n      revert(0x00, returndatasize)\n    tag_195:\n      pop\n        /* \"Final_Project/IndianPoker_1_1.sol\":4670:4716  ChipsExchanged(msg.sender, chipAmount, ethAmt) */\n      0x10a411a628953c6facff7cf4822b3c924b8b4cc322922727569c217b636505a8\n        /* \"Final_Project/IndianPoker_1_1.sol\":4685:4695  msg.sender */\n      caller\n        /* \"Final_Project/IndianPoker_1_1.sol\":4697:4707  chipAmount */\n      dup4\n        /* \"Final_Project/IndianPoker_1_1.sol\":4709:4715  ethAmt */\n      dup4\n        /* \"Final_Project/IndianPoker_1_1.sol\":4670:4716  ChipsExchanged(msg.sender, chipAmount, ethAmt) */\n      mload(0x40)\n      tag_196\n      swap4\n      swap3\n      swap2\n      swap1\n      tag_197\n      jump\t// in\n    tag_196:\n      mload(0x40)\n      dup1\n      swap2\n      sub\n      swap1\n      log1\n        /* \"Final_Project/IndianPoker_1_1.sol\":4325:4724  {... */\n      pop\n        /* \"Final_Project/IndianPoker_1_1.sol\":4278:4724  function exchange(uint256 chipAmount) external {... */\n      pop\n      jump\t// out\n        /* \"Final_Project/IndianPoker_1_1.sol\":5516:6047  function exitGame() external onlyPlayerActive {... */\n    tag_59:\n        /* \"Final_Project/IndianPoker_1_1.sol\":3415:3423  isInGame */\n      0x03\n        /* \"Final_Project/IndianPoker_1_1.sol\":3415:3435  isInGame[msg.sender] */\n      0x00\n        /* \"Final_Project/IndianPoker_1_1.sol\":3424:3434  msg.sender */\n      caller\n        /* \"Final_Project/IndianPoker_1_1.sol\":3415:3435  isInGame[msg.sender] */\n      0xffffffffffffffffffffffffffffffffffffffff\n      and\n      0xffffffffffffffffffffffffffffffffffffffff\n      and\n      dup2\n      mstore\n      0x20\n      add\n      swap1\n      dup2\n      mstore\n      0x20\n      add\n      0x00\n      keccak256\n      0x00\n      swap1\n      sload\n      swap1\n      0x0100\n      exp\n      swap1\n      div\n      0xff\n      and\n        /* \"Final_Project/IndianPoker_1_1.sol\":3407:3451  require(isInGame[msg.sender], \"Not in game\") */\n      tag_199\n      jumpi\n      mload(0x40)\n      0x08c379a000000000000000000000000000000000000000000000000000000000\n      dup2\n      mstore\n      0x04\n      add\n      tag_200\n      swap1\n      tag_126\n      jump\t// in\n    tag_200:\n      mload(0x40)\n      dup1\n      swap2\n      sub\n      swap1\n      revert\n    tag_199:\n        /* \"Final_Project/IndianPoker_1_1.sol\":5573:5581  uint idx */\n      0x00\n        /* \"Final_Project/IndianPoker_1_1.sol\":5584:5595  playerIndex */\n      0x02\n        /* \"Final_Project/IndianPoker_1_1.sol\":5584:5607  playerIndex[msg.sender] */\n      0x00\n        /* \"Final_Project/IndianPoker_1_1.sol\":5596:5606  msg.sender */\n      caller\n        /* \"Final_Project/IndianPoker_1_1.sol\":5584:5607  playerIndex[msg.sender] */\n      0xffffffffffffffffffffffffffffffffffffffff\n      and\n      0xffffffffffffffffffffffffffffffffffffffff\n      and\n      dup2\n      mstore\n      0x20\n      add\n      swap1\n      dup2\n      mstore\n      0x20\n      add\n      0x00\n      keccak256\n      sload\n        /* \"Final_Project/IndianPoker_1_1.sol\":5573:5607  uint idx = playerIndex[msg.sender] */\n      swap1\n      pop\n        /* \"Final_Project/IndianPoker_1_1.sol\":5618:5634  Player storage p */\n      0x00\n        /* \"Final_Project/IndianPoker_1_1.sol\":5637:5644  players */\n      0x01\n        /* \"Final_Project/IndianPoker_1_1.sol\":5645:5648  idx */\n      dup3\n        /* \"Final_Project/IndianPoker_1_1.sol\":5637:5649  players[idx] */\n      dup2\n      sload\n      dup2\n      lt\n      tag_202\n      jumpi\n      tag_203\n      tag_130\n      jump\t// in\n    tag_203:\n    tag_202:\n      swap1\n      0x00\n      mstore\n      keccak256(0x00, 0x20)\n      swap1\n      0x06\n      mul\n      add\n        /* \"Final_Project/IndianPoker_1_1.sol\":5618:5649  Player storage p = players[idx] */\n      swap1\n      pop\n        /* \"Final_Project/IndianPoker_1_1.sol\":5677:5694  GamePhase.WAITING */\n      0x00\n        /* \"Final_Project/IndianPoker_1_1.sol\":5668:5694  phase == GamePhase.WAITING */\n      0x03\n      dup2\n      gt\n      iszero\n      tag_205\n      jumpi\n      tag_206\n      tag_117\n      jump\t// in\n    tag_206:\n    tag_205:\n        /* \"Final_Project/IndianPoker_1_1.sol\":5668:5673  phase */\n      0x00\n      0x00\n      swap1\n      sload\n      swap1\n      0x0100\n      exp\n      swap1\n      div\n      0xff\n      and\n        /* \"Final_Project/IndianPoker_1_1.sol\":5668:5694  phase == GamePhase.WAITING */\n      0x03\n      dup2\n      gt\n      iszero\n      tag_207\n      jumpi\n      tag_208\n      tag_117\n      jump\t// in\n    tag_208:\n    tag_207:\n      eq\n        /* \"Final_Project/IndianPoker_1_1.sol\":5668:5708  phase == GamePhase.WAITING || p.isActive */\n      dup1\n      tag_209\n      jumpi\n      pop\n        /* \"Final_Project/IndianPoker_1_1.sol\":5698:5699  p */\n      dup1\n        /* \"Final_Project/IndianPoker_1_1.sol\":5698:5708  p.isActive */\n      0x02\n      add\n      0x01\n      swap1\n      sload\n      swap1\n      0x0100\n      exp\n      swap1\n      div\n      0xff\n      and\n        /* \"Final_Project/IndianPoker_1_1.sol\":5668:5708  phase == GamePhase.WAITING || p.isActive */\n    tag_209:\n        /* \"Final_Project/IndianPoker_1_1.sol\":5660:5728  require(phase == GamePhase.WAITING || p.isActive, \"Cannot exit now\") */\n      tag_210\n      jumpi\n      mload(0x40)\n      0x08c379a000000000000000000000000000000000000000000000000000000000\n      dup2\n      mstore\n      0x04\n      add\n      tag_211\n      swap1\n      tag_212\n      jump\t// in\n    tag_211:\n      mload(0x40)\n      dup1\n      swap2\n      sub\n      swap1\n      revert\n    tag_210:\n        /* \"Final_Project/IndianPoker_1_1.sol\":5789:5829  playerChipsTransfer(msg.sender, p.chips) */\n      tag_213\n        /* \"Final_Project/IndianPoker_1_1.sol\":5809:5819  msg.sender */\n      caller\n        /* \"Final_Project/IndianPoker_1_1.sol\":5821:5822  p */\n      dup3\n        /* \"Final_Project/IndianPoker_1_1.sol\":5821:5828  p.chips */\n      0x01\n      add\n      sload\n        /* \"Final_Project/IndianPoker_1_1.sol\":5789:5808  playerChipsTransfer */\n      tag_214\n        /* \"Final_Project/IndianPoker_1_1.sol\":5789:5829  playerChipsTransfer(msg.sender, p.chips) */\n      jump\t// in\n    tag_213:\n        /* \"Final_Project/IndianPoker_1_1.sol\":5931:5936  false */\n      0x00\n        /* \"Final_Project/IndianPoker_1_1.sol\":5918:5919  p */\n      dup2\n        /* \"Final_Project/IndianPoker_1_1.sol\":5918:5928  p.isActive */\n      0x02\n      add\n      0x01\n        /* \"Final_Project/IndianPoker_1_1.sol\":5918:5936  p.isActive = false */\n      0x0100\n      exp\n      dup2\n      sload\n      dup2\n      0xff\n      mul\n      not\n      and\n      swap1\n      dup4\n      iszero\n      iszero\n      mul\n      or\n      swap1\n      sstore\n      pop\n        /* \"Final_Project/IndianPoker_1_1.sol\":5970:5975  false */\n      0x00\n        /* \"Final_Project/IndianPoker_1_1.sol\":5947:5955  isInGame */\n      0x03\n        /* \"Final_Project/IndianPoker_1_1.sol\":5947:5967  isInGame[msg.sender] */\n      0x00\n        /* \"Final_Project/IndianPoker_1_1.sol\":5956:5966  msg.sender */\n      caller\n        /* \"Final_Project/IndianPoker_1_1.sol\":5947:5967  isInGame[msg.sender] */\n      0xffffffffffffffffffffffffffffffffffffffff\n      and\n      0xffffffffffffffffffffffffffffffffffffffff\n      and\n      dup2\n      mstore\n      0x20\n      add\n      swap1\n      dup2\n      mstore\n      0x20\n      add\n      0x00\n      keccak256\n      0x00\n        /* \"Final_Project/IndianPoker_1_1.sol\":5947:5975  isInGame[msg.sender] = false */\n      0x0100\n      exp\n      dup2\n      sload\n      dup2\n      0xff\n      mul\n      not\n      and\n      swap1\n      dup4\n      iszero\n      iszero\n      mul\n      or\n      swap1\n      sstore\n      pop\n        /* \"Final_Project/IndianPoker_1_1.sol\":5986:5997  activeCount */\n      0x0a\n      0x00\n        /* \"Final_Project/IndianPoker_1_1.sol\":5986:5999  activeCount-- */\n      dup2\n      sload\n      dup1\n      swap3\n      swap2\n      swap1\n      tag_215\n      swap1\n      tag_216\n      jump\t// in\n    tag_215:\n      swap2\n      swap1\n      pop\n      sstore\n      pop\n        /* \"Final_Project/IndianPoker_1_1.sol\":6028:6038  msg.sender */\n      caller\n        /* \"Final_Project/IndianPoker_1_1.sol\":6015:6039  PlayerExited(msg.sender) */\n      0xffffffffffffffffffffffffffffffffffffffff\n      and\n      0x8f68d81a4f1aab885e5461d1ce75736aff7e07d3de92b4335afc79f8cd8cb1b4\n      mload(0x40)\n      mload(0x40)\n      dup1\n      swap2\n      sub\n      swap1\n      log2\n        /* \"Final_Project/IndianPoker_1_1.sol\":5562:6047  {... */\n      pop\n      pop\n        /* \"Final_Project/IndianPoker_1_1.sol\":5516:6047  function exitGame() external onlyPlayerActive {... */\n      jump\t// out\n        /* \"Final_Project/IndianPoker_1_1.sol\":7296:7972  function bet(uint256 amount) external inPhase(GamePhase.BETTING) onlyPlayerActive {... */\n    tag_63:\n        /* \"Final_Project/IndianPoker_1_1.sol\":7342:7359  GamePhase.BETTING */\n      0x01\n        /* \"Final_Project/IndianPoker_1_1.sol\":3332:3333  p */\n      dup1\n        /* \"Final_Project/IndianPoker_1_1.sol\":3323:3333  phase == p */\n      0x03\n      dup2\n      gt\n      iszero\n      tag_218\n      jumpi\n      tag_219\n      tag_117\n      jump\t// in\n    tag_219:\n    tag_218:\n        /* \"Final_Project/IndianPoker_1_1.sol\":3323:3328  phase */\n      0x00\n      0x00\n      swap1\n      sload\n      swap1\n      0x0100\n      exp\n      swap1\n      div\n      0xff\n      and\n        /* \"Final_Project/IndianPoker_1_1.sol\":3323:3333  phase == p */\n      0x03\n      dup2\n      gt\n      iszero\n      tag_220\n      jumpi\n      tag_221\n      tag_117\n      jump\t// in\n    tag_221:\n    tag_220:\n      eq\n        /* \"Final_Project/IndianPoker_1_1.sol\":3315:3351  require(phase == p, \"Invalid phase\") */\n      tag_222\n      jumpi\n      mload(0x40)\n      0x08c379a000000000000000000000000000000000000000000000000000000000\n      dup2\n      mstore\n      0x04\n      add\n      tag_223\n      swap1\n      tag_122\n      jump\t// in\n    tag_223:\n      mload(0x40)\n      dup1\n      swap2\n      sub\n      swap1\n      revert\n    tag_222:\n        /* \"Final_Project/IndianPoker_1_1.sol\":3415:3423  isInGame */\n      0x03\n        /* \"Final_Project/IndianPoker_1_1.sol\":3415:3435  isInGame[msg.sender] */\n      0x00\n        /* \"Final_Project/IndianPoker_1_1.sol\":3424:3434  msg.sender */\n      caller\n        /* \"Final_Project/IndianPoker_1_1.sol\":3415:3435  isInGame[msg.sender] */\n      0xffffffffffffffffffffffffffffffffffffffff\n      and\n      0xffffffffffffffffffffffffffffffffffffffff\n      and\n      dup2\n      mstore\n      0x20\n      add\n      swap1\n      dup2\n      mstore\n      0x20\n      add\n      0x00\n      keccak256\n      0x00\n      swap1\n      sload\n      swap1\n      0x0100\n      exp\n      swap1\n      div\n      0xff\n      and\n        /* \"Final_Project/IndianPoker_1_1.sol\":3407:3451  require(isInGame[msg.sender], \"Not in game\") */\n      tag_225\n      jumpi\n      mload(0x40)\n      0x08c379a000000000000000000000000000000000000000000000000000000000\n      dup2\n      mstore\n      0x04\n      add\n      tag_226\n      swap1\n      tag_126\n      jump\t// in\n    tag_226:\n      mload(0x40)\n      dup1\n      swap2\n      sub\n      swap1\n      revert\n    tag_225:\n        /* \"Final_Project/IndianPoker_1_1.sol\":7389:7405  Player storage p */\n      0x00\n        /* \"Final_Project/IndianPoker_1_1.sol\":7408:7415  players */\n      0x01\n        /* \"Final_Project/IndianPoker_1_1.sol\":7416:7427  playerIndex */\n      0x02\n        /* \"Final_Project/IndianPoker_1_1.sol\":7416:7439  playerIndex[msg.sender] */\n      0x00\n        /* \"Final_Project/IndianPoker_1_1.sol\":7428:7438  msg.sender */\n      caller\n        /* \"Final_Project/IndianPoker_1_1.sol\":7416:7439  playerIndex[msg.sender] */\n      0xffffffffffffffffffffffffffffffffffffffff\n      and\n      0xffffffffffffffffffffffffffffffffffffffff\n      and\n      dup2\n      mstore\n      0x20\n      add\n      swap1\n      dup2\n      mstore\n      0x20\n      add\n      0x00\n      keccak256\n      sload\n        /* \"Final_Project/IndianPoker_1_1.sol\":7408:7440  players[playerIndex[msg.sender]] */\n      dup2\n      sload\n      dup2\n      lt\n      tag_228\n      jumpi\n      tag_229\n      tag_130\n      jump\t// in\n    tag_229:\n    tag_228:\n      swap1\n      0x00\n      mstore\n      keccak256(0x00, 0x20)\n      swap1\n      0x06\n      mul\n      add\n        /* \"Final_Project/IndianPoker_1_1.sol\":7389:7440  Player storage p = players[playerIndex[msg.sender]] */\n      swap1\n      pop\n        /* \"Final_Project/IndianPoker_1_1.sol\":7459:7460  p */\n      dup1\n        /* \"Final_Project/IndianPoker_1_1.sol\":7459:7469  p.isActive */\n      0x02\n      add\n      0x01\n      swap1\n      sload\n      swap1\n      0x0100\n      exp\n      swap1\n      div\n      0xff\n      and\n        /* \"Final_Project/IndianPoker_1_1.sol\":7459:7485  p.isActive && !p.hasFolded */\n      dup1\n      iszero\n      tag_231\n      jumpi\n      pop\n        /* \"Final_Project/IndianPoker_1_1.sol\":7474:7475  p */\n      dup1\n        /* \"Final_Project/IndianPoker_1_1.sol\":7474:7485  p.hasFolded */\n      0x02\n      add\n      0x02\n      swap1\n      sload\n      swap1\n      0x0100\n      exp\n      swap1\n      div\n      0xff\n      and\n        /* \"Final_Project/IndianPoker_1_1.sol\":7473:7485  !p.hasFolded */\n      iszero\n        /* \"Final_Project/IndianPoker_1_1.sol\":7459:7485  p.isActive && !p.hasFolded */\n    tag_231:\n        /* \"Final_Project/IndianPoker_1_1.sol\":7451:7500  require(p.isActive && !p.hasFolded, \"Not active\") */\n      tag_232\n      jumpi\n      mload(0x40)\n      0x08c379a000000000000000000000000000000000000000000000000000000000\n      dup2\n      mstore\n      0x04\n      add\n      tag_233\n      swap1\n      tag_234\n      jump\t// in\n    tag_233:\n      mload(0x40)\n      dup1\n      swap2\n      sub\n      swap1\n      revert\n    tag_232:\n        /* \"Final_Project/IndianPoker_1_1.sol\":7529:7535  minBet */\n      sload(0x09)\n        /* \"Final_Project/IndianPoker_1_1.sol\":7519:7525  amount */\n      dup4\n        /* \"Final_Project/IndianPoker_1_1.sol\":7519:7535  amount >= minBet */\n      lt\n      iszero\n        /* \"Final_Project/IndianPoker_1_1.sol\":7519:7556  amount >= minBet && p.chips >= amount */\n      dup1\n      iszero\n      tag_235\n      jumpi\n      pop\n        /* \"Final_Project/IndianPoker_1_1.sol\":7550:7556  amount */\n      dup3\n        /* \"Final_Project/IndianPoker_1_1.sol\":7539:7540  p */\n      dup2\n        /* \"Final_Project/IndianPoker_1_1.sol\":7539:7546  p.chips */\n      0x01\n      add\n      sload\n        /* \"Final_Project/IndianPoker_1_1.sol\":7539:7556  p.chips >= amount */\n      lt\n      iszero\n        /* \"Final_Project/IndianPoker_1_1.sol\":7519:7556  amount >= minBet && p.chips >= amount */\n    tag_235:\n        /* \"Final_Project/IndianPoker_1_1.sol\":7511:7572  require(amount >= minBet && p.chips >= amount, \"Invalid bet\") */\n      tag_236\n      jumpi\n      mload(0x40)\n      0x08c379a000000000000000000000000000000000000000000000000000000000\n      dup2\n      mstore\n      0x04\n      add\n      tag_237\n      swap1\n      tag_238\n      jump\t// in\n    tag_237:\n      mload(0x40)\n      dup1\n      swap2\n      sub\n      swap1\n      revert\n    tag_236:\n        /* \"Final_Project/IndianPoker_1_1.sol\":7607:7624  PlayerAction.NONE */\n      0x00\n        /* \"Final_Project/IndianPoker_1_1.sol\":7591:7624  p.lastAction == PlayerAction.NONE */\n      0x05\n      dup2\n      gt\n      iszero\n      tag_239\n      jumpi\n      tag_240\n      tag_117\n      jump\t// in\n    tag_240:\n    tag_239:\n        /* \"Final_Project/IndianPoker_1_1.sol\":7591:7592  p */\n      dup2\n        /* \"Final_Project/IndianPoker_1_1.sol\":7591:7603  p.lastAction */\n      0x04\n      add\n      0x00\n      swap1\n      sload\n      swap1\n      0x0100\n      exp\n      swap1\n      div\n      0xff\n      and\n        /* \"Final_Project/IndianPoker_1_1.sol\":7591:7624  p.lastAction == PlayerAction.NONE */\n      0x05\n      dup2\n      gt\n      iszero\n      tag_241\n      jumpi\n      tag_242\n      tag_117\n      jump\t// in\n    tag_242:\n    tag_241:\n      eq\n        /* \"Final_Project/IndianPoker_1_1.sol\":7583:7642  require(p.lastAction == PlayerAction.NONE, \"Already acted\") */\n      tag_243\n      jumpi\n      mload(0x40)\n      0x08c379a000000000000000000000000000000000000000000000000000000000\n      dup2\n      mstore\n      0x04\n      add\n      tag_244\n      swap1\n      tag_245\n      jump\t// in\n    tag_244:\n      mload(0x40)\n      dup1\n      swap2\n      sub\n      swap1\n      revert\n    tag_243:\n        /* \"Final_Project/IndianPoker_1_1.sol\":7674:7680  amount */\n      dup3\n        /* \"Final_Project/IndianPoker_1_1.sol\":7663:7664  p */\n      dup2\n        /* \"Final_Project/IndianPoker_1_1.sol\":7663:7670  p.chips */\n      0x01\n      add\n      0x00\n        /* \"Final_Project/IndianPoker_1_1.sol\":7663:7680  p.chips -= amount */\n      dup3\n      dup3\n      sload\n      tag_246\n      swap2\n      swap1\n      tag_133\n      jump\t// in\n    tag_246:\n      swap3\n      pop\n      pop\n      dup2\n      swap1\n      sstore\n      pop\n        /* \"Final_Project/IndianPoker_1_1.sol\":7707:7713  amount */\n      dup3\n        /* \"Final_Project/IndianPoker_1_1.sol\":7691:7692  p */\n      dup2\n        /* \"Final_Project/IndianPoker_1_1.sol\":7691:7703  p.currentBet */\n      0x03\n      add\n      0x00\n        /* \"Final_Project/IndianPoker_1_1.sol\":7691:7713  p.currentBet += amount */\n      dup3\n      dup3\n      sload\n      tag_247\n      swap2\n      swap1\n      tag_135\n      jump\t// in\n    tag_247:\n      swap3\n      pop\n      pop\n      dup2\n      swap1\n      sstore\n      pop\n        /* \"Final_Project/IndianPoker_1_1.sol\":7731:7737  amount */\n      dup3\n        /* \"Final_Project/IndianPoker_1_1.sol\":7724:7727  pot */\n      0x06\n      0x00\n        /* \"Final_Project/IndianPoker_1_1.sol\":7724:7737  pot += amount */\n      dup3\n      dup3\n      sload\n      tag_248\n      swap2\n      swap1\n      tag_135\n      jump\t// in\n    tag_248:\n      swap3\n      pop\n      pop\n      dup2\n      swap1\n      sstore\n      pop\n        /* \"Final_Project/IndianPoker_1_1.sol\":7766:7776  currentBet */\n      sload(0x07)\n        /* \"Final_Project/IndianPoker_1_1.sol\":7751:7752  p */\n      dup2\n        /* \"Final_Project/IndianPoker_1_1.sol\":7751:7763  p.currentBet */\n      0x03\n      add\n      sload\n        /* \"Final_Project/IndianPoker_1_1.sol\":7751:7776  p.currentBet > currentBet */\n      gt\n        /* \"Final_Project/IndianPoker_1_1.sol\":7748:7803  if(p.currentBet > currentBet) currentBet = p.currentBet */\n      iszero\n      tag_249\n      jumpi\n        /* \"Final_Project/IndianPoker_1_1.sol\":7791:7792  p */\n      dup1\n        /* \"Final_Project/IndianPoker_1_1.sol\":7791:7803  p.currentBet */\n      0x03\n      add\n      sload\n        /* \"Final_Project/IndianPoker_1_1.sol\":7778:7788  currentBet */\n      0x07\n        /* \"Final_Project/IndianPoker_1_1.sol\":7778:7803  currentBet = p.currentBet */\n      dup2\n      swap1\n      sstore\n      pop\n        /* \"Final_Project/IndianPoker_1_1.sol\":7748:7803  if(p.currentBet > currentBet) currentBet = p.currentBet */\n    tag_249:\n        /* \"Final_Project/IndianPoker_1_1.sol\":7829:7845  PlayerAction.BET */\n      0x01\n        /* \"Final_Project/IndianPoker_1_1.sol\":7814:7815  p */\n      dup2\n        /* \"Final_Project/IndianPoker_1_1.sol\":7814:7826  p.lastAction */\n      0x04\n      add\n      0x00\n        /* \"Final_Project/IndianPoker_1_1.sol\":7814:7845  p.lastAction = PlayerAction.BET */\n      0x0100\n      exp\n      dup2\n      sload\n      dup2\n      0xff\n      mul\n      not\n      and\n      swap1\n      dup4\n      0x05\n      dup2\n      gt\n      iszero\n      tag_250\n      jumpi\n      tag_251\n      tag_117\n      jump\t// in\n    tag_251:\n    tag_250:\n      mul\n      or\n      swap1\n      sstore\n      pop\n        /* \"Final_Project/IndianPoker_1_1.sol\":7873:7883  msg.sender */\n      caller\n        /* \"Final_Project/IndianPoker_1_1.sol\":7861:7910  PlayerActed(msg.sender, PlayerAction.BET, amount) */\n      0xffffffffffffffffffffffffffffffffffffffff\n      and\n      0x67c29155f1efde8516a854ad304ad39dbf9a2f4edaf7294fce3e7db25af24f7b\n        /* \"Final_Project/IndianPoker_1_1.sol\":7885:7901  PlayerAction.BET */\n      0x01\n        /* \"Final_Project/IndianPoker_1_1.sol\":7903:7909  amount */\n      dup6\n        /* \"Final_Project/IndianPoker_1_1.sol\":7861:7910  PlayerActed(msg.sender, PlayerAction.BET, amount) */\n      mload(0x40)\n      tag_252\n      swap3\n      swap2\n      swap1\n      tag_162\n      jump\t// in\n    tag_252:\n      mload(0x40)\n      dup1\n      swap2\n      sub\n      swap1\n      log2\n        /* \"Final_Project/IndianPoker_1_1.sol\":7921:7934  advanceTurn() */\n      tag_253\n        /* \"Final_Project/IndianPoker_1_1.sol\":7921:7932  advanceTurn */\n      tag_164\n        /* \"Final_Project/IndianPoker_1_1.sol\":7921:7934  advanceTurn() */\n      jump\t// in\n    tag_253:\n        /* \"Final_Project/IndianPoker_1_1.sol\":7378:7972  {... */\n      pop\n        /* \"Final_Project/IndianPoker_1_1.sol\":7296:7972  function bet(uint256 amount) external inPhase(GamePhase.BETTING) onlyPlayerActive {... */\n      pop\n      pop\n      jump\t// out\n        /* \"Final_Project/IndianPoker_1_1.sol\":1585:1625  mapping(address => bool) public isInGame */\n    tag_67:\n      mstore(0x20, 0x03)\n      dup1\n      0x00\n      mstore\n      keccak256(0x00, 0x40)\n      0x00\n      swap2\n      pop\n      sload\n      swap1\n      0x0100\n      exp\n      swap1\n      div\n      0xff\n      and\n      dup2\n      jump\t// out\n        /* \"Final_Project/IndianPoker_1_1.sol\":2031:2062  uint256 public currentPlayerIdx */\n    tag_72:\n      sload(0x08)\n      dup2\n      jump\t// out\n        /* \"Final_Project/IndianPoker_1_1.sol\":8014:8894  function callAction() external inPhase(GamePhase.BETTING) onlyPlayerActive {... */\n    tag_76:\n        /* \"Final_Project/IndianPoker_1_1.sol\":8053:8070  GamePhase.BETTING */\n      0x01\n        /* \"Final_Project/IndianPoker_1_1.sol\":3332:3333  p */\n      dup1\n        /* \"Final_Project/IndianPoker_1_1.sol\":3323:3333  phase == p */\n      0x03\n      dup2\n      gt\n      iszero\n      tag_255\n      jumpi\n      tag_256\n      tag_117\n      jump\t// in\n    tag_256:\n    tag_255:\n        /* \"Final_Project/IndianPoker_1_1.sol\":3323:3328  phase */\n      0x00\n      0x00\n      swap1\n      sload\n      swap1\n      0x0100\n      exp\n      swap1\n      div\n      0xff\n      and\n        /* \"Final_Project/IndianPoker_1_1.sol\":3323:3333  phase == p */\n      0x03\n      dup2\n      gt\n      iszero\n      tag_257\n      jumpi\n      tag_258\n      tag_117\n      jump\t// in\n    tag_258:\n    tag_257:\n      eq\n        /* \"Final_Project/IndianPoker_1_1.sol\":3315:3351  require(phase == p, \"Invalid phase\") */\n      tag_259\n      jumpi\n      mload(0x40)\n      0x08c379a000000000000000000000000000000000000000000000000000000000\n      dup2\n      mstore\n      0x04\n      add\n      tag_260\n      swap1\n      tag_122\n      jump\t// in\n    tag_260:\n      mload(0x40)\n      dup1\n      swap2\n      sub\n      swap1\n      revert\n    tag_259:\n        /* \"Final_Project/IndianPoker_1_1.sol\":3415:3423  isInGame */\n      0x03\n        /* \"Final_Project/IndianPoker_1_1.sol\":3415:3435  isInGame[msg.sender] */\n      0x00\n        /* \"Final_Project/IndianPoker_1_1.sol\":3424:3434  msg.sender */\n      caller\n        /* \"Final_Project/IndianPoker_1_1.sol\":3415:3435  isInGame[msg.sender] */\n      0xffffffffffffffffffffffffffffffffffffffff\n      and\n      0xffffffffffffffffffffffffffffffffffffffff\n      and\n      dup2\n      mstore\n      0x20\n      add\n      swap1\n      dup2\n      mstore\n      0x20\n      add\n      0x00\n      keccak256\n      0x00\n      swap1\n      sload\n      swap1\n      0x0100\n      exp\n      swap1\n      div\n      0xff\n      and\n        /* \"Final_Project/IndianPoker_1_1.sol\":3407:3451  require(isInGame[msg.sender], \"Not in game\") */\n      tag_262\n      jumpi\n      mload(0x40)\n      0x08c379a000000000000000000000000000000000000000000000000000000000\n      dup2\n      mstore\n      0x04\n      add\n      tag_263\n      swap1\n      tag_126\n      jump\t// in\n    tag_263:\n      mload(0x40)\n      dup1\n      swap2\n      sub\n      swap1\n      revert\n    tag_262:\n        /* \"Final_Project/IndianPoker_1_1.sol\":8100:8116  Player storage p */\n      0x00\n        /* \"Final_Project/IndianPoker_1_1.sol\":8119:8126  players */\n      0x01\n        /* \"Final_Project/IndianPoker_1_1.sol\":8127:8138  playerIndex */\n      0x02\n        /* \"Final_Project/IndianPoker_1_1.sol\":8127:8150  playerIndex[msg.sender] */\n      0x00\n        /* \"Final_Project/IndianPoker_1_1.sol\":8139:8149  msg.sender */\n      caller\n        /* \"Final_Project/IndianPoker_1_1.sol\":8127:8150  playerIndex[msg.sender] */\n      0xffffffffffffffffffffffffffffffffffffffff\n      and\n      0xffffffffffffffffffffffffffffffffffffffff\n      and\n      dup2\n      mstore\n      0x20\n      add\n      swap1\n      dup2\n      mstore\n      0x20\n      add\n      0x00\n      keccak256\n      sload\n        /* \"Final_Project/IndianPoker_1_1.sol\":8119:8151  players[playerIndex[msg.sender]] */\n      dup2\n      sload\n      dup2\n      lt\n      tag_265\n      jumpi\n      tag_266\n      tag_130\n      jump\t// in\n    tag_266:\n    tag_265:\n      swap1\n      0x00\n      mstore\n      keccak256(0x00, 0x20)\n      swap1\n      0x06\n      mul\n      add\n        /* \"Final_Project/IndianPoker_1_1.sol\":8100:8151  Player storage p = players[playerIndex[msg.sender]] */\n      swap1\n      pop\n        /* \"Final_Project/IndianPoker_1_1.sol\":8162:8171  uint need */\n      0x00\n        /* \"Final_Project/IndianPoker_1_1.sol\":8187:8188  p */\n      dup2\n        /* \"Final_Project/IndianPoker_1_1.sol\":8187:8199  p.currentBet */\n      0x03\n      add\n      sload\n        /* \"Final_Project/IndianPoker_1_1.sol\":8174:8184  currentBet */\n      sload(0x07)\n        /* \"Final_Project/IndianPoker_1_1.sol\":8174:8199  currentBet - p.currentBet */\n      tag_268\n      swap2\n      swap1\n      tag_133\n      jump\t// in\n    tag_268:\n        /* \"Final_Project/IndianPoker_1_1.sol\":8162:8199  uint need = currentBet - p.currentBet */\n      swap1\n      pop\n        /* \"Final_Project/IndianPoker_1_1.sol\":8225:8226  0 */\n      0x00\n        /* \"Final_Project/IndianPoker_1_1.sol\":8218:8222  need */\n      dup2\n        /* \"Final_Project/IndianPoker_1_1.sol\":8218:8226  need > 0 */\n      gt\n        /* \"Final_Project/IndianPoker_1_1.sol\":8218:8241  need > 0 && p.chips > 0 */\n      dup1\n      iszero\n      tag_269\n      jumpi\n      pop\n        /* \"Final_Project/IndianPoker_1_1.sol\":8240:8241  0 */\n      0x00\n        /* \"Final_Project/IndianPoker_1_1.sol\":8230:8231  p */\n      dup3\n        /* \"Final_Project/IndianPoker_1_1.sol\":8230:8237  p.chips */\n      0x01\n      add\n      sload\n        /* \"Final_Project/IndianPoker_1_1.sol\":8230:8241  p.chips > 0 */\n      gt\n        /* \"Final_Project/IndianPoker_1_1.sol\":8218:8241  need > 0 && p.chips > 0 */\n    tag_269:\n        /* \"Final_Project/IndianPoker_1_1.sol\":8210:8261  require(need > 0 && p.chips > 0, \"Nothing to call\") */\n      tag_270\n      jumpi\n      mload(0x40)\n      0x08c379a000000000000000000000000000000000000000000000000000000000\n      dup2\n      mstore\n      0x04\n      add\n      tag_271\n      swap1\n      tag_272\n      jump\t// in\n    tag_271:\n      mload(0x40)\n      dup1\n      swap2\n      sub\n      swap1\n      revert\n    tag_270:\n        /* \"Final_Project/IndianPoker_1_1.sol\":8272:8284  uint callAmt */\n      0x00\n        /* \"Final_Project/IndianPoker_1_1.sol\":8298:8302  need */\n      dup2\n        /* \"Final_Project/IndianPoker_1_1.sol\":8287:8288  p */\n      dup4\n        /* \"Final_Project/IndianPoker_1_1.sol\":8287:8294  p.chips */\n      0x01\n      add\n      sload\n        /* \"Final_Project/IndianPoker_1_1.sol\":8287:8302  p.chips <= need */\n      gt\n      iszero\n        /* \"Final_Project/IndianPoker_1_1.sol\":8287:8319  p.chips <= need ? p.chips : need */\n      tag_273\n      jumpi\n        /* \"Final_Project/IndianPoker_1_1.sol\":8315:8319  need */\n      dup2\n        /* \"Final_Project/IndianPoker_1_1.sol\":8287:8319  p.chips <= need ? p.chips : need */\n      jump(tag_274)\n    tag_273:\n        /* \"Final_Project/IndianPoker_1_1.sol\":8305:8306  p */\n      dup3\n        /* \"Final_Project/IndianPoker_1_1.sol\":8305:8312  p.chips */\n      0x01\n      add\n      sload\n        /* \"Final_Project/IndianPoker_1_1.sol\":8287:8319  p.chips <= need ? p.chips : need */\n    tag_274:\n        /* \"Final_Project/IndianPoker_1_1.sol\":8272:8319  uint callAmt = p.chips <= need ? p.chips : need */\n      swap1\n      pop\n        /* \"Final_Project/IndianPoker_1_1.sol\":8341:8348  callAmt */\n      dup1\n        /* \"Final_Project/IndianPoker_1_1.sol\":8330:8331  p */\n      dup4\n        /* \"Final_Project/IndianPoker_1_1.sol\":8330:8337  p.chips */\n      0x01\n      add\n      0x00\n        /* \"Final_Project/IndianPoker_1_1.sol\":8330:8348  p.chips -= callAmt */\n      dup3\n      dup3\n      sload\n      tag_275\n      swap2\n      swap1\n      tag_133\n      jump\t// in\n    tag_275:\n      swap3\n      pop\n      pop\n      dup2\n      swap1\n      sstore\n      pop\n        /* \"Final_Project/IndianPoker_1_1.sol\":8375:8382  callAmt */\n      dup1\n        /* \"Final_Project/IndianPoker_1_1.sol\":8359:8360  p */\n      dup4\n        /* \"Final_Project/IndianPoker_1_1.sol\":8359:8371  p.currentBet */\n      0x03\n      add\n      0x00\n        /* \"Final_Project/IndianPoker_1_1.sol\":8359:8382  p.currentBet += callAmt */\n      dup3\n      dup3\n      sload\n      tag_276\n      swap2\n      swap1\n      tag_135\n      jump\t// in\n    tag_276:\n      swap3\n      pop\n      pop\n      dup2\n      swap1\n      sstore\n      pop\n        /* \"Final_Project/IndianPoker_1_1.sol\":8400:8407  callAmt */\n      dup1\n        /* \"Final_Project/IndianPoker_1_1.sol\":8393:8396  pot */\n      0x06\n      0x00\n        /* \"Final_Project/IndianPoker_1_1.sol\":8393:8407  pot += callAmt */\n      dup3\n      dup3\n      sload\n      tag_277\n      swap2\n      swap1\n      tag_135\n      jump\t// in\n    tag_277:\n      swap3\n      pop\n      pop\n      dup2\n      swap1\n      sstore\n      pop\n        /* \"Final_Project/IndianPoker_1_1.sol\":8431:8435  need */\n      dup2\n        /* \"Final_Project/IndianPoker_1_1.sol\":8421:8428  callAmt */\n      dup2\n        /* \"Final_Project/IndianPoker_1_1.sol\":8421:8435  callAmt < need */\n      lt\n        /* \"Final_Project/IndianPoker_1_1.sol\":8418:8863  if(callAmt < need) { ... */\n      iszero\n      tag_278\n      jumpi\n        /* \"Final_Project/IndianPoker_1_1.sol\":8519:8523  true */\n      0x01\n        /* \"Final_Project/IndianPoker_1_1.sol\":8507:8508  p */\n      dup4\n        /* \"Final_Project/IndianPoker_1_1.sol\":8507:8516  p.isAllIn */\n      0x04\n      add\n      0x01\n        /* \"Final_Project/IndianPoker_1_1.sol\":8507:8523  p.isAllIn = true */\n      0x0100\n      exp\n      dup2\n      sload\n      dup2\n      0xff\n      mul\n      not\n      and\n      swap1\n      dup4\n      iszero\n      iszero\n      mul\n      or\n      swap1\n      sstore\n      pop\n        /* \"Final_Project/IndianPoker_1_1.sol\":8554:8555  p */\n      dup3\n        /* \"Final_Project/IndianPoker_1_1.sol\":8554:8566  p.currentBet */\n      0x03\n      add\n      sload\n        /* \"Final_Project/IndianPoker_1_1.sol\":8538:8539  p */\n      dup4\n        /* \"Final_Project/IndianPoker_1_1.sol\":8538:8551  p.allInAmount */\n      0x05\n      add\n        /* \"Final_Project/IndianPoker_1_1.sol\":8538:8566  p.allInAmount = p.currentBet */\n      dup2\n      swap1\n      sstore\n      pop\n        /* \"Final_Project/IndianPoker_1_1.sol\":8596:8615  PlayerAction.ALL_IN */\n      0x05\n        /* \"Final_Project/IndianPoker_1_1.sol\":8581:8582  p */\n      dup4\n        /* \"Final_Project/IndianPoker_1_1.sol\":8581:8593  p.lastAction */\n      0x04\n      add\n      0x00\n        /* \"Final_Project/IndianPoker_1_1.sol\":8581:8615  p.lastAction = PlayerAction.ALL_IN */\n      0x0100\n      exp\n      dup2\n      sload\n      dup2\n      0xff\n      mul\n      not\n      and\n      swap1\n      dup4\n      0x05\n      dup2\n      gt\n      iszero\n      tag_279\n      jumpi\n      tag_280\n      tag_117\n      jump\t// in\n    tag_280:\n    tag_279:\n      mul\n      or\n      swap1\n      sstore\n      pop\n        /* \"Final_Project/IndianPoker_1_1.sol\":8647:8657  msg.sender */\n      caller\n        /* \"Final_Project/IndianPoker_1_1.sol\":8635:8688  PlayerActed(msg.sender, PlayerAction.ALL_IN, callAmt) */\n      0xffffffffffffffffffffffffffffffffffffffff\n      and\n      0x67c29155f1efde8516a854ad304ad39dbf9a2f4edaf7294fce3e7db25af24f7b\n        /* \"Final_Project/IndianPoker_1_1.sol\":8659:8678  PlayerAction.ALL_IN */\n      0x05\n        /* \"Final_Project/IndianPoker_1_1.sol\":8680:8687  callAmt */\n      dup4\n        /* \"Final_Project/IndianPoker_1_1.sol\":8635:8688  PlayerActed(msg.sender, PlayerAction.ALL_IN, callAmt) */\n      mload(0x40)\n      tag_281\n      swap3\n      swap2\n      swap1\n      tag_162\n      jump\t// in\n    tag_281:\n      mload(0x40)\n      dup1\n      swap2\n      sub\n      swap1\n      log2\n        /* \"Final_Project/IndianPoker_1_1.sol\":8418:8863  if(callAmt < need) { ... */\n      jump(tag_282)\n    tag_278:\n        /* \"Final_Project/IndianPoker_1_1.sol\":8763:8780  PlayerAction.CALL */\n      0x02\n        /* \"Final_Project/IndianPoker_1_1.sol\":8748:8749  p */\n      dup4\n        /* \"Final_Project/IndianPoker_1_1.sol\":8748:8760  p.lastAction */\n      0x04\n      add\n      0x00\n        /* \"Final_Project/IndianPoker_1_1.sol\":8748:8780  p.lastAction = PlayerAction.CALL */\n      0x0100\n      exp\n      dup2\n      sload\n      dup2\n      0xff\n      mul\n      not\n      and\n      swap1\n      dup4\n      0x05\n      dup2\n      gt\n      iszero\n      tag_283\n      jumpi\n      tag_284\n      tag_117\n      jump\t// in\n    tag_284:\n    tag_283:\n      mul\n      or\n      swap1\n      sstore\n      pop\n        /* \"Final_Project/IndianPoker_1_1.sol\":8812:8822  msg.sender */\n      caller\n        /* \"Final_Project/IndianPoker_1_1.sol\":8800:8851  PlayerActed(msg.sender, PlayerAction.CALL, callAmt) */\n      0xffffffffffffffffffffffffffffffffffffffff\n      and\n      0x67c29155f1efde8516a854ad304ad39dbf9a2f4edaf7294fce3e7db25af24f7b\n        /* \"Final_Project/IndianPoker_1_1.sol\":8824:8841  PlayerAction.CALL */\n      0x02\n        /* \"Final_Project/IndianPoker_1_1.sol\":8843:8850  callAmt */\n      dup4\n        /* \"Final_Project/IndianPoker_1_1.sol\":8800:8851  PlayerActed(msg.sender, PlayerAction.CALL, callAmt) */\n      mload(0x40)\n      tag_285\n      swap3\n      swap2\n      swap1\n      tag_162\n      jump\t// in\n    tag_285:\n      mload(0x40)\n      dup1\n      swap2\n      sub\n      swap1\n      log2\n        /* \"Final_Project/IndianPoker_1_1.sol\":8418:8863  if(callAmt < need) { ... */\n    tag_282:\n        /* \"Final_Project/IndianPoker_1_1.sol\":8873:8886  advanceTurn() */\n      tag_286\n        /* \"Final_Project/IndianPoker_1_1.sol\":8873:8884  advanceTurn */\n      tag_164\n        /* \"Final_Project/IndianPoker_1_1.sol\":8873:8886  advanceTurn() */\n      jump\t// in\n    tag_286:\n        /* \"Final_Project/IndianPoker_1_1.sol\":8089:8894  {... */\n      pop\n      pop\n      pop\n        /* \"Final_Project/IndianPoker_1_1.sol\":8014:8894  function callAction() external inPhase(GamePhase.BETTING) onlyPlayerActive {... */\n      pop\n      jump\t// out\n        /* \"Final_Project/IndianPoker_1_1.sol\":1493:1539  mapping(address => uint256) public playerIndex */\n    tag_80:\n      mstore(0x20, 0x02)\n      dup1\n      0x00\n      mstore\n      keccak256(0x00, 0x40)\n      0x00\n      swap2\n      pop\n      swap1\n      pop\n      sload\n      dup2\n      jump\t// out\n        /* \"Final_Project/IndianPoker_1_1.sol\":1333:1353  address public owner */\n    tag_84:\n      0x00\n      0x01\n      swap1\n      sload\n      swap1\n      0x0100\n      exp\n      swap1\n      div\n      0xffffffffffffffffffffffffffffffffffffffff\n      and\n      dup2\n      jump\t// out\n        /* \"Final_Project/IndianPoker_1_1.sol\":2125:2146  uint256 public minBet */\n    tag_89:\n      sload(0x09)\n      dup2\n      jump\t// out\n        /* \"Final_Project/IndianPoker_1_1.sol\":1262:1284  GamePhase public phase */\n    tag_93:\n      0x00\n      0x00\n      swap1\n      sload\n      swap1\n      0x0100\n      exp\n      swap1\n      div\n      0xff\n      and\n      dup2\n      jump\t// out\n        /* \"Final_Project/IndianPoker_1_1.sol\":4762:5471  function joinGame() external payable inPhase(GamePhase.WAITING) {... */\n    tag_97:\n        /* \"Final_Project/IndianPoker_1_1.sol\":4807:4824  GamePhase.WAITING */\n      0x00\n        /* \"Final_Project/IndianPoker_1_1.sol\":3332:3333  p */\n      dup1\n        /* \"Final_Project/IndianPoker_1_1.sol\":3323:3333  phase == p */\n      0x03\n      dup2\n      gt\n      iszero\n      tag_288\n      jumpi\n      tag_289\n      tag_117\n      jump\t// in\n    tag_289:\n    tag_288:\n        /* \"Final_Project/IndianPoker_1_1.sol\":3323:3328  phase */\n      0x00\n      0x00\n      swap1\n      sload\n      swap1\n      0x0100\n      exp\n      swap1\n      div\n      0xff\n      and\n        /* \"Final_Project/IndianPoker_1_1.sol\":3323:3333  phase == p */\n      0x03\n      dup2\n      gt\n      iszero\n      tag_290\n      jumpi\n      tag_291\n      tag_117\n      jump\t// in\n    tag_291:\n    tag_290:\n      eq\n        /* \"Final_Project/IndianPoker_1_1.sol\":3315:3351  require(phase == p, \"Invalid phase\") */\n      tag_292\n      jumpi\n      mload(0x40)\n      0x08c379a000000000000000000000000000000000000000000000000000000000\n      dup2\n      mstore\n      0x04\n      add\n      tag_293\n      swap1\n      tag_122\n      jump\t// in\n    tag_293:\n      mload(0x40)\n      dup1\n      swap2\n      sub\n      swap1\n      revert\n    tag_292:\n        /* \"Final_Project/IndianPoker_1_1.sol\":4837:4852  Player memory p */\n      tag_295\n      tag_296\n      jump\t// in\n    tag_295:\n        /* \"Final_Project/IndianPoker_1_1.sol\":2352:2354  20 */\n      0x14\n        /* \"Final_Project/IndianPoker_1_1.sol\":4866:4867  p */\n      dup2\n        /* \"Final_Project/IndianPoker_1_1.sol\":4866:4873  p.chips */\n      0x20\n      add\n      mload\n        /* \"Final_Project/IndianPoker_1_1.sol\":4866:4888  p.chips >= ENTRY_CHIPS */\n      lt\n        /* \"Final_Project/IndianPoker_1_1.sol\":4863:5454  if(p.chips >= ENTRY_CHIPS){ // 20칩 이상 보유 확인... */\n      tag_297\n      jumpi\n        /* \"Final_Project/IndianPoker_1_1.sol\":4943:4951  isInGame */\n      0x03\n        /* \"Final_Project/IndianPoker_1_1.sol\":4943:4963  isInGame[msg.sender] */\n      0x00\n        /* \"Final_Project/IndianPoker_1_1.sol\":4952:4962  msg.sender */\n      caller\n        /* \"Final_Project/IndianPoker_1_1.sol\":4943:4963  isInGame[msg.sender] */\n      0xffffffffffffffffffffffffffffffffffffffff\n      and\n      0xffffffffffffffffffffffffffffffffffffffff\n      and\n      dup2\n      mstore\n      0x20\n      add\n      swap1\n      dup2\n      mstore\n      0x20\n      add\n      0x00\n      keccak256\n      0x00\n      swap1\n      sload\n      swap1\n      0x0100\n      exp\n      swap1\n      div\n      0xff\n      and\n        /* \"Final_Project/IndianPoker_1_1.sol\":4942:4963  !isInGame[msg.sender] */\n      iszero\n        /* \"Final_Project/IndianPoker_1_1.sol\":4934:4983  require(!isInGame[msg.sender], \"Already in game\") */\n      tag_298\n      jumpi\n      mload(0x40)\n      0x08c379a000000000000000000000000000000000000000000000000000000000\n      dup2\n      mstore\n      0x04\n      add\n      tag_299\n      swap1\n      tag_300\n      jump\t// in\n    tag_299:\n      mload(0x40)\n      dup1\n      swap2\n      sub\n      swap1\n      revert\n    tag_298:\n        /* \"Final_Project/IndianPoker_1_1.sol\":2599:2610  0.001 ether */\n      0x038d7ea4c68000\n        /* \"Final_Project/IndianPoker_1_1.sol\":5006:5015  msg.value */\n      callvalue\n        /* \"Final_Project/IndianPoker_1_1.sol\":5006:5028  msg.value == ENTRY_FEE */\n      eq\n        /* \"Final_Project/IndianPoker_1_1.sol\":4998:5055  require(msg.value == ENTRY_FEE, \"Send 0.001 ETH to join\") */\n      tag_301\n      jumpi\n      mload(0x40)\n      0x08c379a000000000000000000000000000000000000000000000000000000000\n      dup2\n      mstore\n      0x04\n      add\n      tag_302\n      swap1\n      tag_303\n      jump\t// in\n    tag_302:\n      mload(0x40)\n      dup1\n      swap2\n      sub\n      swap1\n      revert\n    tag_301:\n        /* \"Final_Project/IndianPoker_1_1.sol\":5095:5096  6 */\n      0x06\n        /* \"Final_Project/IndianPoker_1_1.sol\":5078:5085  players */\n      0x01\n        /* \"Final_Project/IndianPoker_1_1.sol\":5078:5092  players.length */\n      dup1\n      sload\n      swap1\n      pop\n        /* \"Final_Project/IndianPoker_1_1.sol\":5078:5096  players.length < 6 */\n      lt\n        /* \"Final_Project/IndianPoker_1_1.sol\":5070:5114  require(players.length < 6, \"Max 6 players\") */\n      tag_304\n      jumpi\n      mload(0x40)\n      0x08c379a000000000000000000000000000000000000000000000000000000000\n      dup2\n      mstore\n      0x04\n      add\n      tag_305\n      swap1\n      tag_306\n      jump\t// in\n    tag_305:\n      mload(0x40)\n      dup1\n      swap2\n      sub\n      swap1\n      revert\n    tag_304:\n        /* \"Final_Project/IndianPoker_1_1.sol\":5174:5184  msg.sender */\n      caller\n        /* \"Final_Project/IndianPoker_1_1.sol\":5165:5166  p */\n      dup2\n        /* \"Final_Project/IndianPoker_1_1.sol\":5165:5171  p.addr */\n      0x00\n      add\n        /* \"Final_Project/IndianPoker_1_1.sol\":5165:5184  p.addr = msg.sender */\n      swap1\n      0xffffffffffffffffffffffffffffffffffffffff\n      and\n      swap1\n      dup2\n      0xffffffffffffffffffffffffffffffffffffffff\n      and\n      dup2\n      mstore\n      pop\n      pop\n        /* \"Final_Project/IndianPoker_1_1.sol\":5212:5216  true */\n      0x01\n        /* \"Final_Project/IndianPoker_1_1.sol\":5199:5200  p */\n      dup2\n        /* \"Final_Project/IndianPoker_1_1.sol\":5199:5209  p.isActive */\n      0x60\n      add\n        /* \"Final_Project/IndianPoker_1_1.sol\":5199:5216  p.isActive = true */\n      swap1\n      iszero\n      iszero\n      swap1\n      dup2\n      iszero\n      iszero\n      dup2\n      mstore\n      pop\n      pop\n        /* \"Final_Project/IndianPoker_1_1.sol\":5254:5261  players */\n      0x01\n        /* \"Final_Project/IndianPoker_1_1.sol\":5267:5268  p */\n      dup2\n        /* \"Final_Project/IndianPoker_1_1.sol\":5254:5269  players.push(p) */\n      swap1\n      dup1\n      0x01\n      dup2\n      sload\n      add\n      dup1\n      dup3\n      sstore\n      dup1\n      swap2\n      pop\n      pop\n      0x01\n      swap1\n      sub\n      swap1\n      0x00\n      mstore\n      keccak256(0x00, 0x20)\n      swap1\n      0x06\n      mul\n      add\n      0x00\n      swap1\n      swap2\n      swap1\n      swap2\n      swap1\n      swap2\n      pop\n      0x00\n      dup3\n      add\n      mload\n      dup2\n      0x00\n      add\n      exp(0x0100, 0x00)\n      dup2\n      sload\n      dup2\n      0xffffffffffffffffffffffffffffffffffffffff\n      mul\n      not\n      and\n      swap1\n      dup4\n      0xffffffffffffffffffffffffffffffffffffffff\n      and\n      mul\n      or\n      swap1\n      sstore\n      pop\n      0x20\n      dup3\n      add\n      mload\n      dup2\n      0x01\n      add\n      sstore\n      0x40\n      dup3\n      add\n      mload\n      dup2\n      0x02\n      add\n      exp(0x0100, 0x00)\n      dup2\n      sload\n      dup2\n      0xff\n      mul\n      not\n      and\n      swap1\n      dup4\n      0x0d\n      dup2\n      gt\n      iszero\n      tag_308\n      jumpi\n      tag_309\n      tag_117\n      jump\t// in\n    tag_309:\n    tag_308:\n      mul\n      or\n      swap1\n      sstore\n      pop\n      0x60\n      dup3\n      add\n      mload\n      dup2\n      0x02\n      add\n      exp(0x0100, 0x01)\n      dup2\n      sload\n      dup2\n      0xff\n      mul\n      not\n      and\n      swap1\n      dup4\n      iszero\n      iszero\n      mul\n      or\n      swap1\n      sstore\n      pop\n      0x80\n      dup3\n      add\n      mload\n      dup2\n      0x02\n      add\n      exp(0x0100, 0x02)\n      dup2\n      sload\n      dup2\n      0xff\n      mul\n      not\n      and\n      swap1\n      dup4\n      iszero\n      iszero\n      mul\n      or\n      swap1\n      sstore\n      pop\n      0xa0\n      dup3\n      add\n      mload\n      dup2\n      0x03\n      add\n      sstore\n      0xc0\n      dup3\n      add\n      mload\n      dup2\n      0x04\n      add\n      exp(0x0100, 0x00)\n      dup2\n      sload\n      dup2\n      0xff\n      mul\n      not\n      and\n      swap1\n      dup4\n      0x05\n      dup2\n      gt\n      iszero\n      tag_310\n      jumpi\n      tag_311\n      tag_117\n      jump\t// in\n    tag_311:\n    tag_310:\n      mul\n      or\n      swap1\n      sstore\n      pop\n      0xe0\n      dup3\n      add\n      mload\n      dup2\n      0x04\n      add\n      exp(0x0100, 0x01)\n      dup2\n      sload\n      dup2\n      0xff\n      mul\n      not\n      and\n      swap1\n      dup4\n      iszero\n      iszero\n      mul\n      or\n      swap1\n      sstore\n      pop\n      0x0100\n      dup3\n      add\n      mload\n      dup2\n      0x05\n      add\n      sstore\n      pop\n      pop\n        /* \"Final_Project/IndianPoker_1_1.sol\":5327:5328  1 */\n      0x01\n        /* \"Final_Project/IndianPoker_1_1.sol\":5310:5317  players */\n      dup1\n        /* \"Final_Project/IndianPoker_1_1.sol\":5310:5324  players.length */\n      dup1\n      sload\n      swap1\n      pop\n        /* \"Final_Project/IndianPoker_1_1.sol\":5310:5328  players.length - 1 */\n      tag_312\n      swap2\n      swap1\n      tag_133\n      jump\t// in\n    tag_312:\n        /* \"Final_Project/IndianPoker_1_1.sol\":5284:5295  playerIndex */\n      0x02\n        /* \"Final_Project/IndianPoker_1_1.sol\":5284:5307  playerIndex[msg.sender] */\n      0x00\n        /* \"Final_Project/IndianPoker_1_1.sol\":5296:5306  msg.sender */\n      caller\n        /* \"Final_Project/IndianPoker_1_1.sol\":5284:5307  playerIndex[msg.sender] */\n      0xffffffffffffffffffffffffffffffffffffffff\n      and\n      0xffffffffffffffffffffffffffffffffffffffff\n      and\n      dup2\n      mstore\n      0x20\n      add\n      swap1\n      dup2\n      mstore\n      0x20\n      add\n      0x00\n      keccak256\n        /* \"Final_Project/IndianPoker_1_1.sol\":5284:5328  playerIndex[msg.sender] = players.length - 1 */\n      dup2\n      swap1\n      sstore\n      pop\n        /* \"Final_Project/IndianPoker_1_1.sol\":5366:5370  true */\n      0x01\n        /* \"Final_Project/IndianPoker_1_1.sol\":5343:5351  isInGame */\n      0x03\n        /* \"Final_Project/IndianPoker_1_1.sol\":5343:5363  isInGame[msg.sender] */\n      0x00\n        /* \"Final_Project/IndianPoker_1_1.sol\":5352:5362  msg.sender */\n      caller\n        /* \"Final_Project/IndianPoker_1_1.sol\":5343:5363  isInGame[msg.sender] */\n      0xffffffffffffffffffffffffffffffffffffffff\n      and\n      0xffffffffffffffffffffffffffffffffffffffff\n      and\n      dup2\n      mstore\n      0x20\n      add\n      swap1\n      dup2\n      mstore\n      0x20\n      add\n      0x00\n      keccak256\n      0x00\n        /* \"Final_Project/IndianPoker_1_1.sol\":5343:5370  isInGame[msg.sender] = true */\n      0x0100\n      exp\n      dup2\n      sload\n      dup2\n      0xff\n      mul\n      not\n      and\n      swap1\n      dup4\n      iszero\n      iszero\n      mul\n      or\n      swap1\n      sstore\n      pop\n        /* \"Final_Project/IndianPoker_1_1.sol\":5385:5396  activeCount */\n      0x0a\n      0x00\n        /* \"Final_Project/IndianPoker_1_1.sol\":5385:5398  activeCount++ */\n      dup2\n      sload\n      dup1\n      swap3\n      swap2\n      swap1\n      tag_313\n      swap1\n      tag_314\n      jump\t// in\n    tag_313:\n      swap2\n      swap1\n      pop\n      sstore\n      pop\n        /* \"Final_Project/IndianPoker_1_1.sol\":5431:5441  msg.sender */\n      caller\n        /* \"Final_Project/IndianPoker_1_1.sol\":5418:5442  PlayerJoined(msg.sender) */\n      0xffffffffffffffffffffffffffffffffffffffff\n      and\n      0x31e760aa525306aba638a784082a013b6a1cc0a9a1789f3f22281c0453b10b1f\n      mload(0x40)\n      mload(0x40)\n      dup1\n      swap2\n      sub\n      swap1\n      log2\n        /* \"Final_Project/IndianPoker_1_1.sol\":4863:5454  if(p.chips >= ENTRY_CHIPS){ // 20칩 이상 보유 확인... */\n    tag_297:\n        /* \"Final_Project/IndianPoker_1_1.sol\":4826:5471  {... */\n      pop\n        /* \"Final_Project/IndianPoker_1_1.sol\":4762:5471  function joinGame() external payable inPhase(GamePhase.WAITING) {... */\n      pop\n      jump\t// out\n        /* \"Final_Project/IndianPoker_1_1.sol\":1943:1968  uint256 public currentBet */\n    tag_100:\n      sload(0x07)\n      dup2\n      jump\t// out\n        /* \"Final_Project/IndianPoker_1_1.sol\":6111:7265  function startGame() external onlyOwner inPhase(GamePhase.WAITING) {... */\n    tag_104:\n        /* \"Final_Project/IndianPoker_1_1.sol\":3237:3242  owner */\n      0x00\n      0x01\n      swap1\n      sload\n      swap1\n      0x0100\n      exp\n      swap1\n      div\n      0xffffffffffffffffffffffffffffffffffffffff\n      and\n        /* \"Final_Project/IndianPoker_1_1.sol\":3223:3242  msg.sender == owner */\n      0xffffffffffffffffffffffffffffffffffffffff\n      and\n        /* \"Final_Project/IndianPoker_1_1.sol\":3223:3233  msg.sender */\n      caller\n        /* \"Final_Project/IndianPoker_1_1.sol\":3223:3242  msg.sender == owner */\n      0xffffffffffffffffffffffffffffffffffffffff\n      and\n      eq\n        /* \"Final_Project/IndianPoker_1_1.sol\":3215:3257  require(msg.sender == owner, \"Only owner\") */\n      tag_316\n      jumpi\n      mload(0x40)\n      0x08c379a000000000000000000000000000000000000000000000000000000000\n      dup2\n      mstore\n      0x04\n      add\n      tag_317\n      swap1\n      tag_318\n      jump\t// in\n    tag_317:\n      mload(0x40)\n      dup1\n      swap2\n      sub\n      swap1\n      revert\n    tag_316:\n        /* \"Final_Project/IndianPoker_1_1.sol\":6159:6176  GamePhase.WAITING */\n      0x00\n        /* \"Final_Project/IndianPoker_1_1.sol\":3332:3333  p */\n      dup1\n        /* \"Final_Project/IndianPoker_1_1.sol\":3323:3333  phase == p */\n      0x03\n      dup2\n      gt\n      iszero\n      tag_320\n      jumpi\n      tag_321\n      tag_117\n      jump\t// in\n    tag_321:\n    tag_320:\n        /* \"Final_Project/IndianPoker_1_1.sol\":3323:3328  phase */\n      0x00\n      0x00\n      swap1\n      sload\n      swap1\n      0x0100\n      exp\n      swap1\n      div\n      0xff\n      and\n        /* \"Final_Project/IndianPoker_1_1.sol\":3323:3333  phase == p */\n      0x03\n      dup2\n      gt\n      iszero\n      tag_322\n      jumpi\n      tag_323\n      tag_117\n      jump\t// in\n    tag_323:\n    tag_322:\n      eq\n        /* \"Final_Project/IndianPoker_1_1.sol\":3315:3351  require(phase == p, \"Invalid phase\") */\n      tag_324\n      jumpi\n      mload(0x40)\n      0x08c379a000000000000000000000000000000000000000000000000000000000\n      dup2\n      mstore\n      0x04\n      add\n      tag_325\n      swap1\n      tag_122\n      jump\t// in\n    tag_325:\n      mload(0x40)\n      dup1\n      swap2\n      sub\n      swap1\n      revert\n    tag_324:\n        /* \"Final_Project/IndianPoker_1_1.sol\":6212:6213  2 */\n      0x02\n        /* \"Final_Project/IndianPoker_1_1.sol\":6197:6208  activeCount */\n      sload(0x0a)\n        /* \"Final_Project/IndianPoker_1_1.sol\":6197:6213  activeCount >= 2 */\n      lt\n      iszero\n        /* \"Final_Project/IndianPoker_1_1.sol\":6189:6226  require(activeCount >= 2, \"Need >=2\") */\n      tag_327\n      jumpi\n      mload(0x40)\n      0x08c379a000000000000000000000000000000000000000000000000000000000\n      dup2\n      mstore\n      0x04\n      add\n      tag_328\n      swap1\n      tag_329\n      jump\t// in\n    tag_328:\n      mload(0x40)\n      dup1\n      swap2\n      sub\n      swap1\n      revert\n    tag_327:\n        /* \"Final_Project/IndianPoker_1_1.sol\":6267:6284  GamePhase.BETTING */\n      0x01\n        /* \"Final_Project/IndianPoker_1_1.sol\":6259:6264  phase */\n      0x00\n      0x00\n        /* \"Final_Project/IndianPoker_1_1.sol\":6259:6284  phase = GamePhase.BETTING */\n      0x0100\n      exp\n      dup2\n      sload\n      dup2\n      0xff\n      mul\n      not\n      and\n      swap1\n      dup4\n      0x03\n      dup2\n      gt\n      iszero\n      tag_330\n      jumpi\n      tag_331\n      tag_117\n      jump\t// in\n    tag_331:\n    tag_330:\n      mul\n      or\n      swap1\n      sstore\n      pop\n        /* \"Final_Project/IndianPoker_1_1.sol\":6308:6309  0 */\n      0x00\n        /* \"Final_Project/IndianPoker_1_1.sol\":6295:6305  currentBet */\n      0x07\n        /* \"Final_Project/IndianPoker_1_1.sol\":6295:6309  currentBet = 0 */\n      dup2\n      swap1\n      sstore\n      pop\n        /* \"Final_Project/IndianPoker_1_1.sol\":6326:6327  0 */\n      0x00\n        /* \"Final_Project/IndianPoker_1_1.sol\":6320:6323  pot */\n      0x06\n        /* \"Final_Project/IndianPoker_1_1.sol\":6320:6327  pot = 0 */\n      dup2\n      swap1\n      sstore\n      pop\n        /* \"Final_Project/IndianPoker_1_1.sol\":6357:6358  0 */\n      0x00\n        /* \"Final_Project/IndianPoker_1_1.sol\":6338:6354  currentPlayerIdx */\n      0x08\n        /* \"Final_Project/IndianPoker_1_1.sol\":6338:6358  currentPlayerIdx = 0 */\n      dup2\n      swap1\n      sstore\n      pop\n        /* \"Final_Project/IndianPoker_1_1.sol\":6470:6476  uint i */\n      0x00\n        /* \"Final_Project/IndianPoker_1_1.sol\":6477:6478  0 */\n      0x00\n        /* \"Final_Project/IndianPoker_1_1.sol\":6470:6478  uint i=0 */\n      swap1\n      pop\n        /* \"Final_Project/IndianPoker_1_1.sol\":6466:6797  for(uint i=0;i<players.length;i++){... */\n    tag_332:\n        /* \"Final_Project/IndianPoker_1_1.sol\":6481:6488  players */\n      0x01\n        /* \"Final_Project/IndianPoker_1_1.sol\":6481:6495  players.length */\n      dup1\n      sload\n      swap1\n      pop\n        /* \"Final_Project/IndianPoker_1_1.sol\":6479:6480  i */\n      dup2\n        /* \"Final_Project/IndianPoker_1_1.sol\":6479:6495  i<players.length */\n      lt\n        /* \"Final_Project/IndianPoker_1_1.sol\":6466:6797  for(uint i=0;i<players.length;i++){... */\n      iszero\n      tag_333\n      jumpi\n        /* \"Final_Project/IndianPoker_1_1.sol\":6515:6531  Player storage p */\n      0x00\n        /* \"Final_Project/IndianPoker_1_1.sol\":6534:6541  players */\n      0x01\n        /* \"Final_Project/IndianPoker_1_1.sol\":6542:6543  i */\n      dup3\n        /* \"Final_Project/IndianPoker_1_1.sol\":6534:6544  players[i] */\n      dup2\n      sload\n      dup2\n      lt\n      tag_335\n      jumpi\n      tag_336\n      tag_130\n      jump\t// in\n    tag_336:\n    tag_335:\n      swap1\n      0x00\n      mstore\n      keccak256(0x00, 0x20)\n      swap1\n      0x06\n      mul\n      add\n        /* \"Final_Project/IndianPoker_1_1.sol\":6515:6544  Player storage p = players[i] */\n      swap1\n      pop\n        /* \"Final_Project/IndianPoker_1_1.sol\":6562:6563  p */\n      dup1\n        /* \"Final_Project/IndianPoker_1_1.sol\":6562:6572  p.isActive */\n      0x02\n      add\n      0x01\n      swap1\n      sload\n      swap1\n      0x0100\n      exp\n      swap1\n      div\n      0xff\n      and\n        /* \"Final_Project/IndianPoker_1_1.sol\":6559:6786  if(p.isActive){ ... */\n      iszero\n      tag_338\n      jumpi\n        /* \"Final_Project/IndianPoker_1_1.sol\":6607:6612  false */\n      0x00\n        /* \"Final_Project/IndianPoker_1_1.sol\":6593:6594  p */\n      dup2\n        /* \"Final_Project/IndianPoker_1_1.sol\":6593:6604  p.hasFolded */\n      0x02\n      add\n      0x02\n        /* \"Final_Project/IndianPoker_1_1.sol\":6593:6612  p.hasFolded = false */\n      0x0100\n      exp\n      dup2\n      sload\n      dup2\n      0xff\n      mul\n      not\n      and\n      swap1\n      dup4\n      iszero\n      iszero\n      mul\n      or\n      swap1\n      sstore\n      pop\n        /* \"Final_Project/IndianPoker_1_1.sol\":6646:6647  0 */\n      0x00\n        /* \"Final_Project/IndianPoker_1_1.sol\":6631:6632  p */\n      dup2\n        /* \"Final_Project/IndianPoker_1_1.sol\":6631:6643  p.currentBet */\n      0x03\n      add\n        /* \"Final_Project/IndianPoker_1_1.sol\":6631:6647  p.currentBet = 0 */\n      dup2\n      swap1\n      sstore\n      pop\n        /* \"Final_Project/IndianPoker_1_1.sol\":6681:6698  PlayerAction.NONE */\n      0x00\n        /* \"Final_Project/IndianPoker_1_1.sol\":6666:6667  p */\n      dup2\n        /* \"Final_Project/IndianPoker_1_1.sol\":6666:6678  p.lastAction */\n      0x04\n      add\n      0x00\n        /* \"Final_Project/IndianPoker_1_1.sol\":6666:6698  p.lastAction = PlayerAction.NONE */\n      0x0100\n      exp\n      dup2\n      sload\n      dup2\n      0xff\n      mul\n      not\n      and\n      swap1\n      dup4\n      0x05\n      dup2\n      gt\n      iszero\n      tag_339\n      jumpi\n      tag_340\n      tag_117\n      jump\t// in\n    tag_340:\n    tag_339:\n      mul\n      or\n      swap1\n      sstore\n      pop\n        /* \"Final_Project/IndianPoker_1_1.sol\":6729:6734  false */\n      0x00\n        /* \"Final_Project/IndianPoker_1_1.sol\":6717:6718  p */\n      dup2\n        /* \"Final_Project/IndianPoker_1_1.sol\":6717:6726  p.isAllIn */\n      0x04\n      add\n      0x01\n        /* \"Final_Project/IndianPoker_1_1.sol\":6717:6734  p.isAllIn = false */\n      0x0100\n      exp\n      dup2\n      sload\n      dup2\n      0xff\n      mul\n      not\n      and\n      swap1\n      dup4\n      iszero\n      iszero\n      mul\n      or\n      swap1\n      sstore\n      pop\n        /* \"Final_Project/IndianPoker_1_1.sol\":6769:6770  0 */\n      0x00\n        /* \"Final_Project/IndianPoker_1_1.sol\":6753:6754  p */\n      dup2\n        /* \"Final_Project/IndianPoker_1_1.sol\":6753:6766  p.allInAmount */\n      0x05\n      add\n        /* \"Final_Project/IndianPoker_1_1.sol\":6753:6770  p.allInAmount = 0 */\n      dup2\n      swap1\n      sstore\n      pop\n        /* \"Final_Project/IndianPoker_1_1.sol\":6559:6786  if(p.isActive){ ... */\n    tag_338:\n        /* \"Final_Project/IndianPoker_1_1.sol\":6500:6797  {... */\n      pop\n        /* \"Final_Project/IndianPoker_1_1.sol\":6496:6499  i++ */\n      dup1\n      dup1\n      0x01\n      add\n      swap2\n      pop\n      pop\n        /* \"Final_Project/IndianPoker_1_1.sol\":6466:6797  for(uint i=0;i<players.length;i++){... */\n      jump(tag_332)\n    tag_333:\n      pop\n        /* \"Final_Project/IndianPoker_1_1.sol\":6910:6916  uint i */\n      0x00\n        /* \"Final_Project/IndianPoker_1_1.sol\":6917:6918  0 */\n      0x00\n        /* \"Final_Project/IndianPoker_1_1.sol\":6910:6918  uint i=0 */\n      swap1\n      pop\n        /* \"Final_Project/IndianPoker_1_1.sol\":6906:7229  for(uint i=0;i<players.length;i++){... */\n    tag_341:\n        /* \"Final_Project/IndianPoker_1_1.sol\":6921:6928  players */\n      0x01\n        /* \"Final_Project/IndianPoker_1_1.sol\":6921:6935  players.length */\n      dup1\n      sload\n      swap1\n      pop\n        /* \"Final_Project/IndianPoker_1_1.sol\":6919:6920  i */\n      dup2\n        /* \"Final_Project/IndianPoker_1_1.sol\":6919:6935  i<players.length */\n      lt\n        /* \"Final_Project/IndianPoker_1_1.sol\":6906:7229  for(uint i=0;i<players.length;i++){... */\n      iszero\n      tag_342\n      jumpi\n        /* \"Final_Project/IndianPoker_1_1.sol\":6958:6965  players */\n      0x01\n        /* \"Final_Project/IndianPoker_1_1.sol\":6966:6967  i */\n      dup2\n        /* \"Final_Project/IndianPoker_1_1.sol\":6958:6968  players[i] */\n      dup2\n      sload\n      dup2\n      lt\n      tag_344\n      jumpi\n      tag_345\n      tag_130\n      jump\t// in\n    tag_345:\n    tag_344:\n      swap1\n      0x00\n      mstore\n      keccak256(0x00, 0x20)\n      swap1\n      0x06\n      mul\n      add\n        /* \"Final_Project/IndianPoker_1_1.sol\":6958:6977  players[i].isActive */\n      0x02\n      add\n      0x01\n      swap1\n      sload\n      swap1\n      0x0100\n      exp\n      swap1\n      div\n      0xff\n      and\n        /* \"Final_Project/IndianPoker_1_1.sol\":6955:7218  if(players[i].isActive){... */\n      iszero\n      tag_347\n      jumpi\n        /* \"Final_Project/IndianPoker_1_1.sol\":6997:7005  uint val */\n      0x00\n        /* \"Final_Project/IndianPoker_1_1.sol\":7082:7084  14 */\n      0x0e\n        /* \"Final_Project/IndianPoker_1_1.sol\":7040:7055  block.timestamp */\n      timestamp\n        /* \"Final_Project/IndianPoker_1_1.sol\":7057:7073  block.prevrandao */\n      prevrandao\n        /* \"Final_Project/IndianPoker_1_1.sol\":7075:7076  i */\n      dup5\n        /* \"Final_Project/IndianPoker_1_1.sol\":7023:7077  abi.encodePacked(block.timestamp, block.prevrandao, i) */\n      add(0x20, mload(0x40))\n      tag_348\n      swap4\n      swap3\n      swap2\n      swap1\n      tag_349\n      jump\t// in\n    tag_348:\n      mload(0x40)\n      0x20\n      dup2\n      dup4\n      sub\n      sub\n      dup2\n      mstore\n      swap1\n      0x40\n      mstore\n        /* \"Final_Project/IndianPoker_1_1.sol\":7013:7078  keccak256(abi.encodePacked(block.timestamp, block.prevrandao, i)) */\n      dup1\n      mload\n      swap1\n      0x20\n      add\n      keccak256\n        /* \"Final_Project/IndianPoker_1_1.sol\":7008:7079  uint(keccak256(abi.encodePacked(block.timestamp, block.prevrandao, i))) */\n      0x00\n      shr\n        /* \"Final_Project/IndianPoker_1_1.sol\":7008:7084  uint(keccak256(abi.encodePacked(block.timestamp, block.prevrandao, i))) % 14 */\n      tag_350\n      swap2\n      swap1\n      tag_168\n      jump\t// in\n    tag_350:\n        /* \"Final_Project/IndianPoker_1_1.sol\":6997:7084  uint val = uint(keccak256(abi.encodePacked(block.timestamp, block.prevrandao, i))) % 14 */\n      swap1\n      pop\n        /* \"Final_Project/IndianPoker_1_1.sol\":7131:7134  val */\n      dup1\n        /* \"Final_Project/IndianPoker_1_1.sol\":7121:7135  CardValue(val) */\n      0x0d\n      dup2\n      gt\n      iszero\n      tag_351\n      jumpi\n      tag_352\n      tag_117\n      jump\t// in\n    tag_352:\n    tag_351:\n        /* \"Final_Project/IndianPoker_1_1.sol\":7103:7110  players */\n      0x01\n        /* \"Final_Project/IndianPoker_1_1.sol\":7111:7112  i */\n      dup4\n        /* \"Final_Project/IndianPoker_1_1.sol\":7103:7113  players[i] */\n      dup2\n      sload\n      dup2\n      lt\n      tag_353\n      jumpi\n      tag_354\n      tag_130\n      jump\t// in\n    tag_354:\n    tag_353:\n      swap1\n      0x00\n      mstore\n      keccak256(0x00, 0x20)\n      swap1\n      0x06\n      mul\n      add\n        /* \"Final_Project/IndianPoker_1_1.sol\":7103:7118  players[i].card */\n      0x02\n      add\n      0x00\n        /* \"Final_Project/IndianPoker_1_1.sol\":7103:7135  players[i].card = CardValue(val) */\n      0x0100\n      exp\n      dup2\n      sload\n      dup2\n      0xff\n      mul\n      not\n      and\n      swap1\n      dup4\n      0x0d\n      dup2\n      gt\n      iszero\n      tag_356\n      jumpi\n      tag_357\n      tag_117\n      jump\t// in\n    tag_357:\n    tag_356:\n      mul\n      or\n      swap1\n      sstore\n      pop\n        /* \"Final_Project/IndianPoker_1_1.sol\":7169:7176  players */\n      0x01\n        /* \"Final_Project/IndianPoker_1_1.sol\":7177:7178  i */\n      dup3\n        /* \"Final_Project/IndianPoker_1_1.sol\":7169:7179  players[i] */\n      dup2\n      sload\n      dup2\n      lt\n      tag_358\n      jumpi\n      tag_359\n      tag_130\n      jump\t// in\n    tag_359:\n    tag_358:\n      swap1\n      0x00\n      mstore\n      keccak256(0x00, 0x20)\n      swap1\n      0x06\n      mul\n      add\n        /* \"Final_Project/IndianPoker_1_1.sol\":7169:7184  players[i].addr */\n      0x00\n      add\n      0x00\n      swap1\n      sload\n      swap1\n      0x0100\n      exp\n      swap1\n      div\n      0xffffffffffffffffffffffffffffffffffffffff\n      and\n        /* \"Final_Project/IndianPoker_1_1.sol\":7159:7202  CardDealt(players[i].addr, players[i].card) */\n      0xffffffffffffffffffffffffffffffffffffffff\n      and\n      0x946dcf24b8c08c25fbbe3a10158be25f72f147d17a725912e2af62a98ad05353\n        /* \"Final_Project/IndianPoker_1_1.sol\":7186:7193  players */\n      0x01\n        /* \"Final_Project/IndianPoker_1_1.sol\":7194:7195  i */\n      dup5\n        /* \"Final_Project/IndianPoker_1_1.sol\":7186:7196  players[i] */\n      dup2\n      sload\n      dup2\n      lt\n      tag_361\n      jumpi\n      tag_362\n      tag_130\n      jump\t// in\n    tag_362:\n    tag_361:\n      swap1\n      0x00\n      mstore\n      keccak256(0x00, 0x20)\n      swap1\n      0x06\n      mul\n      add\n        /* \"Final_Project/IndianPoker_1_1.sol\":7186:7201  players[i].card */\n      0x02\n      add\n      0x00\n      swap1\n      sload\n      swap1\n      0x0100\n      exp\n      swap1\n      div\n      0xff\n      and\n        /* \"Final_Project/IndianPoker_1_1.sol\":7159:7202  CardDealt(players[i].addr, players[i].card) */\n      mload(0x40)\n      tag_364\n      swap2\n      swap1\n      tag_365\n      jump\t// in\n    tag_364:\n      mload(0x40)\n      dup1\n      swap2\n      sub\n      swap1\n      log2\n        /* \"Final_Project/IndianPoker_1_1.sol\":6978:7218  {... */\n      pop\n        /* \"Final_Project/IndianPoker_1_1.sol\":6955:7218  if(players[i].isActive){... */\n    tag_347:\n        /* \"Final_Project/IndianPoker_1_1.sol\":6936:6939  i++ */\n      dup1\n      dup1\n      0x01\n      add\n      swap2\n      pop\n      pop\n        /* \"Final_Project/IndianPoker_1_1.sol\":6906:7229  for(uint i=0;i<players.length;i++){... */\n      jump(tag_341)\n    tag_342:\n      pop\n        /* \"Final_Project/IndianPoker_1_1.sol\":7244:7257  GameStarted() */\n      0x762f260439bb4be3ef6e4dc2786e2e7bd187d3d80b79057d7a424fe98563e335\n      mload(0x40)\n      mload(0x40)\n      dup1\n      swap2\n      sub\n      swap1\n      log1\n        /* \"Final_Project/IndianPoker_1_1.sol\":3259:3260  _ */\n      pop\n        /* \"Final_Project/IndianPoker_1_1.sol\":6111:7265  function startGame() external onlyOwner inPhase(GamePhase.WAITING) {... */\n      jump\t// out\n        /* \"Final_Project/IndianPoker_1_1.sol\":9823:10600  function fold() external inPhase(GamePhase.BETTING) onlyPlayerActive {... */\n    tag_107:\n        /* \"Final_Project/IndianPoker_1_1.sol\":9856:9873  GamePhase.BETTING */\n      0x01\n        /* \"Final_Project/IndianPoker_1_1.sol\":3332:3333  p */\n      dup1\n        /* \"Final_Project/IndianPoker_1_1.sol\":3323:3333  phase == p */\n      0x03\n      dup2\n      gt\n      iszero\n      tag_367\n      jumpi\n      tag_368\n      tag_117\n      jump\t// in\n    tag_368:\n    tag_367:\n        /* \"Final_Project/IndianPoker_1_1.sol\":3323:3328  phase */\n      0x00\n      0x00\n      swap1\n      sload\n      swap1\n      0x0100\n      exp\n      swap1\n      div\n      0xff\n      and\n        /* \"Final_Project/IndianPoker_1_1.sol\":3323:3333  phase == p */\n      0x03\n      dup2\n      gt\n      iszero\n      tag_369\n      jumpi\n      tag_370\n      tag_117\n      jump\t// in\n    tag_370:\n    tag_369:\n      eq\n        /* \"Final_Project/IndianPoker_1_1.sol\":3315:3351  require(phase == p, \"Invalid phase\") */\n      tag_371\n      jumpi\n      mload(0x40)\n      0x08c379a000000000000000000000000000000000000000000000000000000000\n      dup2\n      mstore\n      0x04\n      add\n      tag_372\n      swap1\n      tag_122\n      jump\t// in\n    tag_372:\n      mload(0x40)\n      dup1\n      swap2\n      sub\n      swap1\n      revert\n    tag_371:\n        /* \"Final_Project/IndianPoker_1_1.sol\":3415:3423  isInGame */\n      0x03\n        /* \"Final_Project/IndianPoker_1_1.sol\":3415:3435  isInGame[msg.sender] */\n      0x00\n        /* \"Final_Project/IndianPoker_1_1.sol\":3424:3434  msg.sender */\n      caller\n        /* \"Final_Project/IndianPoker_1_1.sol\":3415:3435  isInGame[msg.sender] */\n      0xffffffffffffffffffffffffffffffffffffffff\n      and\n      0xffffffffffffffffffffffffffffffffffffffff\n      and\n      dup2\n      mstore\n      0x20\n      add\n      swap1\n      dup2\n      mstore\n      0x20\n      add\n      0x00\n      keccak256\n      0x00\n      swap1\n      sload\n      swap1\n      0x0100\n      exp\n      swap1\n      div\n      0xff\n      and\n        /* \"Final_Project/IndianPoker_1_1.sol\":3407:3451  require(isInGame[msg.sender], \"Not in game\") */\n      tag_374\n      jumpi\n      mload(0x40)\n      0x08c379a000000000000000000000000000000000000000000000000000000000\n      dup2\n      mstore\n      0x04\n      add\n      tag_375\n      swap1\n      tag_126\n      jump\t// in\n    tag_375:\n      mload(0x40)\n      dup1\n      swap2\n      sub\n      swap1\n      revert\n    tag_374:\n        /* \"Final_Project/IndianPoker_1_1.sol\":9903:9919  Player storage p */\n      0x00\n        /* \"Final_Project/IndianPoker_1_1.sol\":9922:9929  players */\n      0x01\n        /* \"Final_Project/IndianPoker_1_1.sol\":9930:9941  playerIndex */\n      0x02\n        /* \"Final_Project/IndianPoker_1_1.sol\":9930:9953  playerIndex[msg.sender] */\n      0x00\n        /* \"Final_Project/IndianPoker_1_1.sol\":9942:9952  msg.sender */\n      caller\n        /* \"Final_Project/IndianPoker_1_1.sol\":9930:9953  playerIndex[msg.sender] */\n      0xffffffffffffffffffffffffffffffffffffffff\n      and\n      0xffffffffffffffffffffffffffffffffffffffff\n      and\n      dup2\n      mstore\n      0x20\n      add\n      swap1\n      dup2\n      mstore\n      0x20\n      add\n      0x00\n      keccak256\n      sload\n        /* \"Final_Project/IndianPoker_1_1.sol\":9922:9954  players[playerIndex[msg.sender]] */\n      dup2\n      sload\n      dup2\n      lt\n      tag_377\n      jumpi\n      tag_378\n      tag_130\n      jump\t// in\n    tag_378:\n    tag_377:\n      swap1\n      0x00\n      mstore\n      keccak256(0x00, 0x20)\n      swap1\n      0x06\n      mul\n      add\n        /* \"Final_Project/IndianPoker_1_1.sol\":9903:9954  Player storage p = players[playerIndex[msg.sender]] */\n      swap1\n      pop\n        /* \"Final_Project/IndianPoker_1_1.sol\":9979:9983  true */\n      0x01\n        /* \"Final_Project/IndianPoker_1_1.sol\":9965:9966  p */\n      dup2\n        /* \"Final_Project/IndianPoker_1_1.sol\":9965:9976  p.hasFolded */\n      0x02\n      add\n      0x02\n        /* \"Final_Project/IndianPoker_1_1.sol\":9965:9983  p.hasFolded = true */\n      0x0100\n      exp\n      dup2\n      sload\n      dup2\n      0xff\n      mul\n      not\n      and\n      swap1\n      dup4\n      iszero\n      iszero\n      mul\n      or\n      swap1\n      sstore\n      pop\n        /* \"Final_Project/IndianPoker_1_1.sol\":10007:10012  false */\n      0x00\n        /* \"Final_Project/IndianPoker_1_1.sol\":9994:9995  p */\n      dup2\n        /* \"Final_Project/IndianPoker_1_1.sol\":9994:10004  p.isActive */\n      0x02\n      add\n      0x01\n        /* \"Final_Project/IndianPoker_1_1.sol\":9994:10012  p.isActive = false */\n      0x0100\n      exp\n      dup2\n      sload\n      dup2\n      0xff\n      mul\n      not\n      and\n      swap1\n      dup4\n      iszero\n      iszero\n      mul\n      or\n      swap1\n      sstore\n      pop\n        /* \"Final_Project/IndianPoker_1_1.sol\":10023:10034  activeCount */\n      0x0a\n      0x00\n        /* \"Final_Project/IndianPoker_1_1.sol\":10023:10036  activeCount-- */\n      dup2\n      sload\n      dup1\n      swap3\n      swap2\n      swap1\n      tag_380\n      swap1\n      tag_216\n      jump\t// in\n    tag_380:\n      swap2\n      swap1\n      pop\n      sstore\n      pop\n        /* \"Final_Project/IndianPoker_1_1.sol\":10062:10079  PlayerAction.FOLD */\n      0x04\n        /* \"Final_Project/IndianPoker_1_1.sol\":10047:10048  p */\n      dup2\n        /* \"Final_Project/IndianPoker_1_1.sol\":10047:10059  p.lastAction */\n      0x04\n      add\n      0x00\n        /* \"Final_Project/IndianPoker_1_1.sol\":10047:10079  p.lastAction = PlayerAction.FOLD */\n      0x0100\n      exp\n      dup2\n      sload\n      dup2\n      0xff\n      mul\n      not\n      and\n      swap1\n      dup4\n      0x05\n      dup2\n      gt\n      iszero\n      tag_381\n      jumpi\n      tag_382\n      tag_117\n      jump\t// in\n    tag_382:\n    tag_381:\n      mul\n      or\n      swap1\n      sstore\n      pop\n        /* \"Final_Project/IndianPoker_1_1.sol\":10206:10219  CardValue.ACE */\n      0x0d\n        /* \"Final_Project/IndianPoker_1_1.sol\":10196:10219  p.card == CardValue.ACE */\n      dup1\n      dup2\n      gt\n      iszero\n      tag_383\n      jumpi\n      tag_384\n      tag_117\n      jump\t// in\n    tag_384:\n    tag_383:\n        /* \"Final_Project/IndianPoker_1_1.sol\":10196:10197  p */\n      dup2\n        /* \"Final_Project/IndianPoker_1_1.sol\":10196:10202  p.card */\n      0x02\n      add\n      0x00\n      swap1\n      sload\n      swap1\n      0x0100\n      exp\n      swap1\n      div\n      0xff\n      and\n        /* \"Final_Project/IndianPoker_1_1.sol\":10196:10219  p.card == CardValue.ACE */\n      0x0d\n      dup2\n      gt\n      iszero\n      tag_385\n      jumpi\n      tag_386\n      tag_117\n      jump\t// in\n    tag_386:\n    tag_385:\n      eq\n        /* \"Final_Project/IndianPoker_1_1.sol\":10196:10234  p.card == CardValue.ACE && p.chips > 0 */\n      dup1\n      iszero\n      tag_387\n      jumpi\n      pop\n        /* \"Final_Project/IndianPoker_1_1.sol\":10233:10234  0 */\n      0x00\n        /* \"Final_Project/IndianPoker_1_1.sol\":10223:10224  p */\n      dup2\n        /* \"Final_Project/IndianPoker_1_1.sol\":10223:10230  p.chips */\n      0x01\n      add\n      sload\n        /* \"Final_Project/IndianPoker_1_1.sol\":10223:10234  p.chips > 0 */\n      gt\n        /* \"Final_Project/IndianPoker_1_1.sol\":10196:10234  p.card == CardValue.ACE && p.chips > 0 */\n    tag_387:\n        /* \"Final_Project/IndianPoker_1_1.sol\":10193:10383  if(p.card == CardValue.ACE && p.chips > 0) {... */\n      iszero\n      tag_388\n      jumpi\n        /* \"Final_Project/IndianPoker_1_1.sol\":10251:10262  uint256 pen */\n      0x00\n        /* \"Final_Project/IndianPoker_1_1.sol\":10275:10276  2 */\n      0x02\n        /* \"Final_Project/IndianPoker_1_1.sol\":10265:10266  p */\n      dup3\n        /* \"Final_Project/IndianPoker_1_1.sol\":10265:10272  p.chips */\n      0x01\n      add\n      sload\n        /* \"Final_Project/IndianPoker_1_1.sol\":10265:10276  p.chips / 2 */\n      tag_389\n      swap2\n      swap1\n      tag_175\n      jump\t// in\n    tag_389:\n        /* \"Final_Project/IndianPoker_1_1.sol\":10251:10276  uint256 pen = p.chips / 2 */\n      swap1\n      pop\n        /* \"Final_Project/IndianPoker_1_1.sol\":10309:10310  1 */\n      0x01\n        /* \"Final_Project/IndianPoker_1_1.sol\":10304:10305  2 */\n      0x02\n        /* \"Final_Project/IndianPoker_1_1.sol\":10294:10295  p */\n      dup4\n        /* \"Final_Project/IndianPoker_1_1.sol\":10294:10301  p.chips */\n      0x01\n      add\n      sload\n        /* \"Final_Project/IndianPoker_1_1.sol\":10294:10305  p.chips % 2 */\n      tag_390\n      swap2\n      swap1\n      tag_168\n      jump\t// in\n    tag_390:\n        /* \"Final_Project/IndianPoker_1_1.sol\":10294:10310  p.chips % 2 == 1 */\n      sub\n        /* \"Final_Project/IndianPoker_1_1.sol\":10291:10317  if(p.chips % 2 == 1) pen++ */\n      tag_391\n      jumpi\n        /* \"Final_Project/IndianPoker_1_1.sol\":10312:10317  pen++ */\n      dup1\n      dup1\n      tag_392\n      swap1\n      tag_314\n      jump\t// in\n    tag_392:\n      swap2\n      pop\n      pop\n        /* \"Final_Project/IndianPoker_1_1.sol\":10291:10317  if(p.chips % 2 == 1) pen++ */\n    tag_391:\n        /* \"Final_Project/IndianPoker_1_1.sol\":10343:10346  pen */\n      dup1\n        /* \"Final_Project/IndianPoker_1_1.sol\":10332:10333  p */\n      dup3\n        /* \"Final_Project/IndianPoker_1_1.sol\":10332:10339  p.chips */\n      0x01\n      add\n      0x00\n        /* \"Final_Project/IndianPoker_1_1.sol\":10332:10346  p.chips -= pen */\n      dup3\n      dup3\n      sload\n      tag_393\n      swap2\n      swap1\n      tag_133\n      jump\t// in\n    tag_393:\n      swap3\n      pop\n      pop\n      dup2\n      swap1\n      sstore\n      pop\n        /* \"Final_Project/IndianPoker_1_1.sol\":10368:10371  pen */\n      dup1\n        /* \"Final_Project/IndianPoker_1_1.sol\":10361:10364  pot */\n      0x06\n      0x00\n        /* \"Final_Project/IndianPoker_1_1.sol\":10361:10371  pot += pen */\n      dup3\n      dup3\n      sload\n      tag_394\n      swap2\n      swap1\n      tag_135\n      jump\t// in\n    tag_394:\n      swap3\n      pop\n      pop\n      dup2\n      swap1\n      sstore\n      pop\n        /* \"Final_Project/IndianPoker_1_1.sol\":10236:10383  {... */\n      pop\n        /* \"Final_Project/IndianPoker_1_1.sol\":10193:10383  if(p.card == CardValue.ACE && p.chips > 0) {... */\n    tag_388:\n        /* \"Final_Project/IndianPoker_1_1.sol\":10410:10420  msg.sender */\n      caller\n        /* \"Final_Project/IndianPoker_1_1.sol\":10398:10443  PlayerActed(msg.sender, PlayerAction.FOLD, 0) */\n      0xffffffffffffffffffffffffffffffffffffffff\n      and\n      0x67c29155f1efde8516a854ad304ad39dbf9a2f4edaf7294fce3e7db25af24f7b\n        /* \"Final_Project/IndianPoker_1_1.sol\":10422:10439  PlayerAction.FOLD */\n      0x04\n        /* \"Final_Project/IndianPoker_1_1.sol\":10441:10442  0 */\n      0x00\n        /* \"Final_Project/IndianPoker_1_1.sol\":10398:10443  PlayerActed(msg.sender, PlayerAction.FOLD, 0) */\n      mload(0x40)\n      tag_395\n      swap3\n      swap2\n      swap1\n      tag_396\n      jump\t// in\n    tag_395:\n      mload(0x40)\n      dup1\n      swap2\n      sub\n      swap1\n      log2\n        /* \"Final_Project/IndianPoker_1_1.sol\":10557:10558  1 */\n      0x01\n        /* \"Final_Project/IndianPoker_1_1.sol\":10542:10553  activeCount */\n      sload(0x0a)\n        /* \"Final_Project/IndianPoker_1_1.sol\":10542:10558  activeCount == 1 */\n      sub\n        /* \"Final_Project/IndianPoker_1_1.sol\":10539:10592  if(activeCount == 1) finishGame(); else advanceTurn() */\n      tag_397\n      jumpi\n        /* \"Final_Project/IndianPoker_1_1.sol\":10560:10572  finishGame() */\n      tag_398\n        /* \"Final_Project/IndianPoker_1_1.sol\":10560:10570  finishGame */\n      tag_399\n        /* \"Final_Project/IndianPoker_1_1.sol\":10560:10572  finishGame() */\n      jump\t// in\n    tag_398:\n        /* \"Final_Project/IndianPoker_1_1.sol\":10539:10592  if(activeCount == 1) finishGame(); else advanceTurn() */\n      jump(tag_400)\n    tag_397:\n        /* \"Final_Project/IndianPoker_1_1.sol\":10579:10592  advanceTurn() */\n      tag_401\n        /* \"Final_Project/IndianPoker_1_1.sol\":10579:10590  advanceTurn */\n      tag_164\n        /* \"Final_Project/IndianPoker_1_1.sol\":10579:10592  advanceTurn() */\n      jump\t// in\n    tag_401:\n        /* \"Final_Project/IndianPoker_1_1.sol\":10539:10592  if(activeCount == 1) finishGame(); else advanceTurn() */\n    tag_400:\n        /* \"Final_Project/IndianPoker_1_1.sol\":9892:10600  {... */\n      pop\n        /* \"Final_Project/IndianPoker_1_1.sol\":9823:10600  function fold() external inPhase(GamePhase.BETTING) onlyPlayerActive {... */\n      pop\n      jump\t// out\n        /* \"Final_Project/IndianPoker_1_1.sol\":1414:1437  Player[] public players */\n    tag_111:\n      0x01\n      dup2\n      dup2\n      sload\n      dup2\n      lt\n      tag_402\n      jumpi\n      0x00\n      dup1\n      revert\n    tag_402:\n      swap1\n      0x00\n      mstore\n      keccak256(0x00, 0x20)\n      swap1\n      0x06\n      mul\n      add\n      0x00\n      swap2\n      pop\n      swap1\n      pop\n      dup1\n      0x00\n      add\n      0x00\n      swap1\n      sload\n      swap1\n      0x0100\n      exp\n      swap1\n      div\n      0xffffffffffffffffffffffffffffffffffffffff\n      and\n      swap1\n      dup1\n      0x01\n      add\n      sload\n      swap1\n      dup1\n      0x02\n      add\n      0x00\n      swap1\n      sload\n      swap1\n      0x0100\n      exp\n      swap1\n      div\n      0xff\n      and\n      swap1\n      dup1\n      0x02\n      add\n      0x01\n      swap1\n      sload\n      swap1\n      0x0100\n      exp\n      swap1\n      div\n      0xff\n      and\n      swap1\n      dup1\n      0x02\n      add\n      0x02\n      swap1\n      sload\n      swap1\n      0x0100\n      exp\n      swap1\n      div\n      0xff\n      and\n      swap1\n      dup1\n      0x03\n      add\n      sload\n      swap1\n      dup1\n      0x04\n      add\n      0x00\n      swap1\n      sload\n      swap1\n      0x0100\n      exp\n      swap1\n      div\n      0xff\n      and\n      swap1\n      dup1\n      0x04\n      add\n      0x01\n      swap1\n      sload\n      swap1\n      0x0100\n      exp\n      swap1\n      div\n      0xff\n      and\n      swap1\n      dup1\n      0x05\n      add\n      sload\n      swap1\n      pop\n      dup10\n      jump\t// out\n        /* \"Final_Project/IndianPoker_1_1.sol\":10664:11299  function advanceTurn() internal {... */\n    tag_164:\n        /* \"Final_Project/IndianPoker_1_1.sol\":10707:10717  uint start */\n      0x00\n        /* \"Final_Project/IndianPoker_1_1.sol\":10720:10736  currentPlayerIdx */\n      sload(0x08)\n        /* \"Final_Project/IndianPoker_1_1.sol\":10707:10736  uint start = currentPlayerIdx */\n      swap1\n      pop\n        /* \"Final_Project/IndianPoker_1_1.sol\":10747:11181  do {... */\n    tag_405:\n        /* \"Final_Project/IndianPoker_1_1.sol\":10809:10816  players */\n      0x01\n        /* \"Final_Project/IndianPoker_1_1.sol\":10809:10823  players.length */\n      dup1\n      sload\n      swap1\n      pop\n        /* \"Final_Project/IndianPoker_1_1.sol\":10804:10805  1 */\n      0x01\n        /* \"Final_Project/IndianPoker_1_1.sol\":10785:10801  currentPlayerIdx */\n      sload(0x08)\n        /* \"Final_Project/IndianPoker_1_1.sol\":10785:10805  currentPlayerIdx + 1 */\n      tag_408\n      swap2\n      swap1\n      tag_135\n      jump\t// in\n    tag_408:\n        /* \"Final_Project/IndianPoker_1_1.sol\":10784:10823  (currentPlayerIdx + 1) % players.length */\n      tag_409\n      swap2\n      swap1\n      tag_168\n      jump\t// in\n    tag_409:\n        /* \"Final_Project/IndianPoker_1_1.sol\":10765:10781  currentPlayerIdx */\n      0x08\n        /* \"Final_Project/IndianPoker_1_1.sol\":10765:10823  currentPlayerIdx = (currentPlayerIdx + 1) % players.length */\n      dup2\n      swap1\n      sstore\n      pop\n        /* \"Final_Project/IndianPoker_1_1.sol\":10838:10855  Player storage np */\n      0x00\n        /* \"Final_Project/IndianPoker_1_1.sol\":10858:10865  players */\n      0x01\n        /* \"Final_Project/IndianPoker_1_1.sol\":10866:10882  currentPlayerIdx */\n      sload(0x08)\n        /* \"Final_Project/IndianPoker_1_1.sol\":10858:10883  players[currentPlayerIdx] */\n      dup2\n      sload\n      dup2\n      lt\n      tag_410\n      jumpi\n      tag_411\n      tag_130\n      jump\t// in\n    tag_411:\n    tag_410:\n      swap1\n      0x00\n      mstore\n      keccak256(0x00, 0x20)\n      swap1\n      0x06\n      mul\n      add\n        /* \"Final_Project/IndianPoker_1_1.sol\":10838:10883  Player storage np = players[currentPlayerIdx] */\n      swap1\n      pop\n        /* \"Final_Project/IndianPoker_1_1.sol\":11061:11063  np */\n      dup1\n        /* \"Final_Project/IndianPoker_1_1.sol\":11061:11072  np.isActive */\n      0x02\n      add\n      0x01\n      swap1\n      sload\n      swap1\n      0x0100\n      exp\n      swap1\n      div\n      0xff\n      and\n        /* \"Final_Project/IndianPoker_1_1.sol\":11061:11089  np.isActive && !np.hasFolded */\n      dup1\n      iszero\n      tag_413\n      jumpi\n      pop\n        /* \"Final_Project/IndianPoker_1_1.sol\":11077:11079  np */\n      dup1\n        /* \"Final_Project/IndianPoker_1_1.sol\":11077:11089  np.hasFolded */\n      0x02\n      add\n      0x02\n      swap1\n      sload\n      swap1\n      0x0100\n      exp\n      swap1\n      div\n      0xff\n      and\n        /* \"Final_Project/IndianPoker_1_1.sol\":11076:11089  !np.hasFolded */\n      iszero\n        /* \"Final_Project/IndianPoker_1_1.sol\":11061:11089  np.isActive && !np.hasFolded */\n    tag_413:\n        /* \"Final_Project/IndianPoker_1_1.sol\":11061:11127  np.isActive && !np.hasFolded && np.lastAction == PlayerAction.NONE */\n      dup1\n      iszero\n      tag_414\n      jumpi\n      pop\n        /* \"Final_Project/IndianPoker_1_1.sol\":11110:11127  PlayerAction.NONE */\n      0x00\n        /* \"Final_Project/IndianPoker_1_1.sol\":11093:11127  np.lastAction == PlayerAction.NONE */\n      0x05\n      dup2\n      gt\n      iszero\n      tag_415\n      jumpi\n      tag_416\n      tag_117\n      jump\t// in\n    tag_416:\n    tag_415:\n        /* \"Final_Project/IndianPoker_1_1.sol\":11093:11095  np */\n      dup2\n        /* \"Final_Project/IndianPoker_1_1.sol\":11093:11106  np.lastAction */\n      0x04\n      add\n      0x00\n      swap1\n      sload\n      swap1\n      0x0100\n      exp\n      swap1\n      div\n      0xff\n      and\n        /* \"Final_Project/IndianPoker_1_1.sol\":11093:11127  np.lastAction == PlayerAction.NONE */\n      0x05\n      dup2\n      gt\n      iszero\n      tag_417\n      jumpi\n      tag_418\n      tag_117\n      jump\t// in\n    tag_418:\n    tag_417:\n      eq\n        /* \"Final_Project/IndianPoker_1_1.sol\":11061:11127  np.isActive && !np.hasFolded && np.lastAction == PlayerAction.NONE */\n    tag_414:\n        /* \"Final_Project/IndianPoker_1_1.sol\":11058:11136  if(np.isActive && !np.hasFolded && np.lastAction == PlayerAction.NONE) return; */\n      iszero\n      tag_419\n      jumpi\n        /* \"Final_Project/IndianPoker_1_1.sol\":11129:11136  return; */\n      pop\n      pop\n      jump(tag_404)\n        /* \"Final_Project/IndianPoker_1_1.sol\":11058:11136  if(np.isActive && !np.hasFolded && np.lastAction == PlayerAction.NONE) return; */\n    tag_419:\n        /* \"Final_Project/IndianPoker_1_1.sol\":10750:11147  {... */\n      pop\n        /* \"Final_Project/IndianPoker_1_1.sol\":11174:11179  start */\n      dup1\n        /* \"Final_Project/IndianPoker_1_1.sol\":11154:11170  currentPlayerIdx */\n      sload(0x08)\n        /* \"Final_Project/IndianPoker_1_1.sol\":11154:11179  currentPlayerIdx != start */\n      sub\n        /* \"Final_Project/IndianPoker_1_1.sol\":10747:11181  do {... */\n      tag_405\n      jumpi\n        /* \"Final_Project/IndianPoker_1_1.sol\":11279:11291  finishGame() */\n      tag_420\n        /* \"Final_Project/IndianPoker_1_1.sol\":11279:11289  finishGame */\n      tag_399\n        /* \"Final_Project/IndianPoker_1_1.sol\":11279:11291  finishGame() */\n      jump\t// in\n    tag_420:\n        /* \"Final_Project/IndianPoker_1_1.sol\":10696:11299  {... */\n      pop\n        /* \"Final_Project/IndianPoker_1_1.sol\":10664:11299  function advanceTurn() internal {... */\n    tag_404:\n      jump\t// out\n        /* \"Final_Project/IndianPoker_1_1.sol\":13456:13566  function playerChipsTransfer(address to, uint256 amount) internal {... */\n    tag_214:\n        /* \"Final_Project/IndianPoker_1_1.sol\":13552:13558  amount */\n      dup1\n        /* \"Final_Project/IndianPoker_1_1.sol\":13533:13544  playerChips */\n      0x04\n        /* \"Final_Project/IndianPoker_1_1.sol\":13533:13548  playerChips[to] */\n      0x00\n        /* \"Final_Project/IndianPoker_1_1.sol\":13545:13547  to */\n      dup5\n        /* \"Final_Project/IndianPoker_1_1.sol\":13533:13548  playerChips[to] */\n      0xffffffffffffffffffffffffffffffffffffffff\n      and\n      0xffffffffffffffffffffffffffffffffffffffff\n      and\n      dup2\n      mstore\n      0x20\n      add\n      swap1\n      dup2\n      mstore\n      0x20\n      add\n      0x00\n      keccak256\n      0x00\n        /* \"Final_Project/IndianPoker_1_1.sol\":13533:13558  playerChips[to] += amount */\n      dup3\n      dup3\n      sload\n      tag_422\n      swap2\n      swap1\n      tag_135\n      jump\t// in\n    tag_422:\n      swap3\n      pop\n      pop\n      dup2\n      swap1\n      sstore\n      pop\n        /* \"Final_Project/IndianPoker_1_1.sol\":13456:13566  function playerChipsTransfer(address to, uint256 amount) internal {... */\n      pop\n      pop\n      jump\t// out\n        /* \"Final_Project/IndianPoker_1_1.sol\":11367:12570  function finishGame() internal {... */\n    tag_399:\n        /* \"Final_Project/IndianPoker_1_1.sol\":11417:11435  GamePhase.SHOWDOWN */\n      0x02\n        /* \"Final_Project/IndianPoker_1_1.sol\":11409:11414  phase */\n      0x00\n      0x00\n        /* \"Final_Project/IndianPoker_1_1.sol\":11409:11435  phase = GamePhase.SHOWDOWN */\n      0x0100\n      exp\n      dup2\n      sload\n      dup2\n      0xff\n      mul\n      not\n      and\n      swap1\n      dup4\n      0x03\n      dup2\n      gt\n      iszero\n      tag_424\n      jumpi\n      tag_425\n      tag_117\n      jump\t// in\n    tag_425:\n    tag_424:\n      mul\n      or\n      swap1\n      sstore\n      pop\n        /* \"Final_Project/IndianPoker_1_1.sol\":11506:11520  address winner */\n      0x00\n        /* \"Final_Project/IndianPoker_1_1.sol\":11531:11545  CardValue best */\n      0x00\n        /* \"Final_Project/IndianPoker_1_1.sol\":11560:11566  uint i */\n      0x00\n        /* \"Final_Project/IndianPoker_1_1.sol\":11567:11568  0 */\n      0x00\n        /* \"Final_Project/IndianPoker_1_1.sol\":11560:11568  uint i=0 */\n      swap1\n      pop\n        /* \"Final_Project/IndianPoker_1_1.sol\":11556:11874  for(uint i=0;i<players.length;i++){... */\n    tag_426:\n        /* \"Final_Project/IndianPoker_1_1.sol\":11571:11578  players */\n      0x01\n        /* \"Final_Project/IndianPoker_1_1.sol\":11571:11585  players.length */\n      dup1\n      sload\n      swap1\n      pop\n        /* \"Final_Project/IndianPoker_1_1.sol\":11569:11570  i */\n      dup2\n        /* \"Final_Project/IndianPoker_1_1.sol\":11569:11585  i<players.length */\n      lt\n        /* \"Final_Project/IndianPoker_1_1.sol\":11556:11874  for(uint i=0;i<players.length;i++){... */\n      iszero\n      tag_427\n      jumpi\n        /* \"Final_Project/IndianPoker_1_1.sol\":11605:11621  Player storage p */\n      0x00\n        /* \"Final_Project/IndianPoker_1_1.sol\":11624:11631  players */\n      0x01\n        /* \"Final_Project/IndianPoker_1_1.sol\":11632:11633  i */\n      dup3\n        /* \"Final_Project/IndianPoker_1_1.sol\":11624:11634  players[i] */\n      dup2\n      sload\n      dup2\n      lt\n      tag_429\n      jumpi\n      tag_430\n      tag_130\n      jump\t// in\n    tag_430:\n    tag_429:\n      swap1\n      0x00\n      mstore\n      keccak256(0x00, 0x20)\n      swap1\n      0x06\n      mul\n      add\n        /* \"Final_Project/IndianPoker_1_1.sol\":11605:11634  Player storage p = players[i] */\n      swap1\n      pop\n        /* \"Final_Project/IndianPoker_1_1.sol\":11652:11653  p */\n      dup1\n        /* \"Final_Project/IndianPoker_1_1.sol\":11652:11662  p.isActive */\n      0x02\n      add\n      0x01\n      swap1\n      sload\n      swap1\n      0x0100\n      exp\n      swap1\n      div\n      0xff\n      and\n        /* \"Final_Project/IndianPoker_1_1.sol\":11652:11678  p.isActive && !p.hasFolded */\n      dup1\n      iszero\n      tag_432\n      jumpi\n      pop\n        /* \"Final_Project/IndianPoker_1_1.sol\":11667:11668  p */\n      dup1\n        /* \"Final_Project/IndianPoker_1_1.sol\":11667:11678  p.hasFolded */\n      0x02\n      add\n      0x02\n      swap1\n      sload\n      swap1\n      0x0100\n      exp\n      swap1\n      div\n      0xff\n      and\n        /* \"Final_Project/IndianPoker_1_1.sol\":11666:11678  !p.hasFolded */\n      iszero\n        /* \"Final_Project/IndianPoker_1_1.sol\":11652:11678  p.isActive && !p.hasFolded */\n    tag_432:\n        /* \"Final_Project/IndianPoker_1_1.sol\":11649:11863  if(p.isActive && !p.hasFolded) {... */\n      iszero\n      tag_433\n      jumpi\n        /* \"Final_Project/IndianPoker_1_1.sol\":11720:11721  0 */\n      0x00\n        /* \"Final_Project/IndianPoker_1_1.sol\":11702:11722  winner == address(0) */\n      0xffffffffffffffffffffffffffffffffffffffff\n      and\n        /* \"Final_Project/IndianPoker_1_1.sol\":11702:11708  winner */\n      dup5\n        /* \"Final_Project/IndianPoker_1_1.sol\":11702:11722  winner == address(0) */\n      0xffffffffffffffffffffffffffffffffffffffff\n      and\n      eq\n        /* \"Final_Project/IndianPoker_1_1.sol\":11702:11752  winner == address(0) || compareCards(p.card, best) */\n      dup1\n      tag_434\n      jumpi\n      pop\n        /* \"Final_Project/IndianPoker_1_1.sol\":11726:11752  compareCards(p.card, best) */\n      tag_435\n        /* \"Final_Project/IndianPoker_1_1.sol\":11739:11740  p */\n      dup2\n        /* \"Final_Project/IndianPoker_1_1.sol\":11739:11745  p.card */\n      0x02\n      add\n      0x00\n      swap1\n      sload\n      swap1\n      0x0100\n      exp\n      swap1\n      div\n      0xff\n      and\n        /* \"Final_Project/IndianPoker_1_1.sol\":11747:11751  best */\n      dup5\n        /* \"Final_Project/IndianPoker_1_1.sol\":11726:11738  compareCards */\n      tag_436\n        /* \"Final_Project/IndianPoker_1_1.sol\":11726:11752  compareCards(p.card, best) */\n      jump\t// in\n    tag_435:\n        /* \"Final_Project/IndianPoker_1_1.sol\":11702:11752  winner == address(0) || compareCards(p.card, best) */\n    tag_434:\n        /* \"Final_Project/IndianPoker_1_1.sol\":11699:11848  if(winner == address(0) || compareCards(p.card, best)) {... */\n      iszero\n      tag_437\n      jumpi\n        /* \"Final_Project/IndianPoker_1_1.sol\":11786:11787  p */\n      dup1\n        /* \"Final_Project/IndianPoker_1_1.sol\":11786:11792  p.addr */\n      0x00\n      add\n      0x00\n      swap1\n      sload\n      swap1\n      0x0100\n      exp\n      swap1\n      div\n      0xffffffffffffffffffffffffffffffffffffffff\n      and\n        /* \"Final_Project/IndianPoker_1_1.sol\":11777:11792  winner = p.addr */\n      swap4\n      pop\n        /* \"Final_Project/IndianPoker_1_1.sol\":11822:11823  p */\n      dup1\n        /* \"Final_Project/IndianPoker_1_1.sol\":11822:11828  p.card */\n      0x02\n      add\n      0x00\n      swap1\n      sload\n      swap1\n      0x0100\n      exp\n      swap1\n      div\n      0xff\n      and\n        /* \"Final_Project/IndianPoker_1_1.sol\":11815:11828  best = p.card */\n      swap3\n      pop\n        /* \"Final_Project/IndianPoker_1_1.sol\":11699:11848  if(winner == address(0) || compareCards(p.card, best)) {... */\n    tag_437:\n        /* \"Final_Project/IndianPoker_1_1.sol\":11649:11863  if(p.isActive && !p.hasFolded) {... */\n    tag_433:\n        /* \"Final_Project/IndianPoker_1_1.sol\":11590:11874  {... */\n      pop\n        /* \"Final_Project/IndianPoker_1_1.sol\":11586:11589  i++ */\n      dup1\n      dup1\n      0x01\n      add\n      swap2\n      pop\n      pop\n        /* \"Final_Project/IndianPoker_1_1.sol\":11556:11874  for(uint i=0;i<players.length;i++){... */\n      jump(tag_426)\n    tag_427:\n      pop\n        /* \"Final_Project/IndianPoker_1_1.sol\":11910:11911  0 */\n      0x00\n        /* \"Final_Project/IndianPoker_1_1.sol\":11892:11912  winner != address(0) */\n      0xffffffffffffffffffffffffffffffffffffffff\n      and\n        /* \"Final_Project/IndianPoker_1_1.sol\":11892:11898  winner */\n      dup3\n        /* \"Final_Project/IndianPoker_1_1.sol\":11892:11912  winner != address(0) */\n      0xffffffffffffffffffffffffffffffffffffffff\n      and\n      sub\n        /* \"Final_Project/IndianPoker_1_1.sol\":11884:11926  require(winner != address(0), \"No winner\") */\n      tag_438\n      jumpi\n      mload(0x40)\n      0x08c379a000000000000000000000000000000000000000000000000000000000\n      dup2\n      mstore\n      0x04\n      add\n      tag_439\n      swap1\n      tag_440\n      jump\t// in\n    tag_439:\n      mload(0x40)\n      dup1\n      swap2\n      sub\n      swap1\n      revert\n    tag_438:\n        /* \"Final_Project/IndianPoker_1_1.sol\":12018:12021  pot */\n      sload(0x06)\n        /* \"Final_Project/IndianPoker_1_1.sol\":11980:11987  players */\n      0x01\n        /* \"Final_Project/IndianPoker_1_1.sol\":11988:11999  playerIndex */\n      0x02\n        /* \"Final_Project/IndianPoker_1_1.sol\":11988:12007  playerIndex[winner] */\n      0x00\n        /* \"Final_Project/IndianPoker_1_1.sol\":12000:12006  winner */\n      dup6\n        /* \"Final_Project/IndianPoker_1_1.sol\":11988:12007  playerIndex[winner] */\n      0xffffffffffffffffffffffffffffffffffffffff\n      and\n      0xffffffffffffffffffffffffffffffffffffffff\n      and\n      dup2\n      mstore\n      0x20\n      add\n      swap1\n      dup2\n      mstore\n      0x20\n      add\n      0x00\n      keccak256\n      sload\n        /* \"Final_Project/IndianPoker_1_1.sol\":11980:12008  players[playerIndex[winner]] */\n      dup2\n      sload\n      dup2\n      lt\n      tag_441\n      jumpi\n      tag_442\n      tag_130\n      jump\t// in\n    tag_442:\n    tag_441:\n      swap1\n      0x00\n      mstore\n      keccak256(0x00, 0x20)\n      swap1\n      0x06\n      mul\n      add\n        /* \"Final_Project/IndianPoker_1_1.sol\":11980:12014  players[playerIndex[winner]].chips */\n      0x01\n      add\n      0x00\n        /* \"Final_Project/IndianPoker_1_1.sol\":11980:12021  players[playerIndex[winner]].chips += pot */\n      dup3\n      dup3\n      sload\n      tag_444\n      swap2\n      swap1\n      tag_135\n      jump\t// in\n    tag_444:\n      swap3\n      pop\n      pop\n      dup2\n      swap1\n      sstore\n      pop\n        /* \"Final_Project/IndianPoker_1_1.sol\":12037:12059  GameEnded(winner, pot) */\n      0xd4ba6fec82d9b0e8ffe50b9fed9e4be3b25c984ce1e0e016405a5528726e8a2c\n        /* \"Final_Project/IndianPoker_1_1.sol\":12047:12053  winner */\n      dup3\n        /* \"Final_Project/IndianPoker_1_1.sol\":12055:12058  pot */\n      sload(0x06)\n        /* \"Final_Project/IndianPoker_1_1.sol\":12037:12059  GameEnded(winner, pot) */\n      mload(0x40)\n      tag_445\n      swap3\n      swap2\n      swap1\n      tag_182\n      jump\t// in\n    tag_445:\n      mload(0x40)\n      dup1\n      swap2\n      sub\n      swap1\n      log1\n        /* \"Final_Project/IndianPoker_1_1.sol\":12078:12096  GamePhase.FINISHED */\n      0x03\n        /* \"Final_Project/IndianPoker_1_1.sol\":12070:12075  phase */\n      0x00\n      0x00\n        /* \"Final_Project/IndianPoker_1_1.sol\":12070:12096  phase = GamePhase.FINISHED */\n      0x0100\n      exp\n      dup2\n      sload\n      dup2\n      0xff\n      mul\n      not\n      and\n      swap1\n      dup4\n      0x03\n      dup2\n      gt\n      iszero\n      tag_446\n      jumpi\n      tag_447\n      tag_117\n      jump\t// in\n    tag_447:\n    tag_446:\n      mul\n      or\n      swap1\n      sstore\n      pop\n        /* \"Final_Project/IndianPoker_1_1.sol\":12181:12187  uint i */\n      0x00\n        /* \"Final_Project/IndianPoker_1_1.sol\":12188:12189  0 */\n      0x00\n        /* \"Final_Project/IndianPoker_1_1.sol\":12181:12189  uint i=0 */\n      swap1\n      pop\n        /* \"Final_Project/IndianPoker_1_1.sol\":12177:12498  for(uint i=0;i<players.length;i++){... */\n    tag_448:\n        /* \"Final_Project/IndianPoker_1_1.sol\":12192:12199  players */\n      0x01\n        /* \"Final_Project/IndianPoker_1_1.sol\":12192:12206  players.length */\n      dup1\n      sload\n      swap1\n      pop\n        /* \"Final_Project/IndianPoker_1_1.sol\":12190:12191  i */\n      dup2\n        /* \"Final_Project/IndianPoker_1_1.sol\":12190:12206  i<players.length */\n      lt\n        /* \"Final_Project/IndianPoker_1_1.sol\":12177:12498  for(uint i=0;i<players.length;i++){... */\n      iszero\n      tag_449\n      jumpi\n        /* \"Final_Project/IndianPoker_1_1.sol\":12226:12242  Player storage p */\n      0x00\n        /* \"Final_Project/IndianPoker_1_1.sol\":12245:12252  players */\n      0x01\n        /* \"Final_Project/IndianPoker_1_1.sol\":12253:12254  i */\n      dup3\n        /* \"Final_Project/IndianPoker_1_1.sol\":12245:12255  players[i] */\n      dup2\n      sload\n      dup2\n      lt\n      tag_451\n      jumpi\n      tag_452\n      tag_130\n      jump\t// in\n    tag_452:\n    tag_451:\n      swap1\n      0x00\n      mstore\n      keccak256(0x00, 0x20)\n      swap1\n      0x06\n      mul\n      add\n        /* \"Final_Project/IndianPoker_1_1.sol\":12226:12255  Player storage p = players[i] */\n      swap1\n      pop\n        /* \"Final_Project/IndianPoker_1_1.sol\":12283:12289  winner */\n      dup4\n        /* \"Final_Project/IndianPoker_1_1.sol\":12273:12289  p.addr != winner */\n      0xffffffffffffffffffffffffffffffffffffffff\n      and\n        /* \"Final_Project/IndianPoker_1_1.sol\":12273:12274  p */\n      dup2\n        /* \"Final_Project/IndianPoker_1_1.sol\":12273:12279  p.addr */\n      0x00\n      add\n      0x00\n      swap1\n      sload\n      swap1\n      0x0100\n      exp\n      swap1\n      div\n      0xffffffffffffffffffffffffffffffffffffffff\n      and\n        /* \"Final_Project/IndianPoker_1_1.sol\":12273:12289  p.addr != winner */\n      0xffffffffffffffffffffffffffffffffffffffff\n      and\n      eq\n        /* \"Final_Project/IndianPoker_1_1.sol\":12270:12362  if(p.addr != winner) {... */\n      tag_454\n      jumpi\n        /* \"Final_Project/IndianPoker_1_1.sol\":12310:12346  playerChipsTransfer(p.addr, p.chips) */\n      tag_455\n        /* \"Final_Project/IndianPoker_1_1.sol\":12330:12331  p */\n      dup2\n        /* \"Final_Project/IndianPoker_1_1.sol\":12330:12336  p.addr */\n      0x00\n      add\n      0x00\n      swap1\n      sload\n      swap1\n      0x0100\n      exp\n      swap1\n      div\n      0xffffffffffffffffffffffffffffffffffffffff\n      and\n        /* \"Final_Project/IndianPoker_1_1.sol\":12338:12339  p */\n      dup3\n        /* \"Final_Project/IndianPoker_1_1.sol\":12338:12345  p.chips */\n      0x01\n      add\n      sload\n        /* \"Final_Project/IndianPoker_1_1.sol\":12310:12329  playerChipsTransfer */\n      tag_214\n        /* \"Final_Project/IndianPoker_1_1.sol\":12310:12346  playerChipsTransfer(p.addr, p.chips) */\n      jump\t// in\n    tag_455:\n        /* \"Final_Project/IndianPoker_1_1.sol\":12270:12362  if(p.addr != winner) {... */\n    tag_454:\n        /* \"Final_Project/IndianPoker_1_1.sol\":12446:12447  0 */\n      0x00\n        /* \"Final_Project/IndianPoker_1_1.sol\":12423:12435  playerGameId */\n      0x05\n        /* \"Final_Project/IndianPoker_1_1.sol\":12423:12443  playerGameId[p.addr] */\n      0x00\n        /* \"Final_Project/IndianPoker_1_1.sol\":12436:12437  p */\n      dup4\n        /* \"Final_Project/IndianPoker_1_1.sol\":12436:12442  p.addr */\n      0x00\n      add\n      0x00\n      swap1\n      sload\n      swap1\n      0x0100\n      exp\n      swap1\n      div\n      0xffffffffffffffffffffffffffffffffffffffff\n      and\n        /* \"Final_Project/IndianPoker_1_1.sol\":12423:12443  playerGameId[p.addr] */\n      0xffffffffffffffffffffffffffffffffffffffff\n      and\n      0xffffffffffffffffffffffffffffffffffffffff\n      and\n      dup2\n      mstore\n      0x20\n      add\n      swap1\n      dup2\n      mstore\n      0x20\n      add\n      0x00\n      keccak256\n        /* \"Final_Project/IndianPoker_1_1.sol\":12423:12447  playerGameId[p.addr] = 0 */\n      dup2\n      swap1\n      sstore\n      pop\n        /* \"Final_Project/IndianPoker_1_1.sol\":12481:12486  false */\n      0x00\n        /* \"Final_Project/IndianPoker_1_1.sol\":12462:12470  isInGame */\n      0x03\n        /* \"Final_Project/IndianPoker_1_1.sol\":12462:12478  isInGame[p.addr] */\n      0x00\n        /* \"Final_Project/IndianPoker_1_1.sol\":12471:12472  p */\n      dup4\n        /* \"Final_Project/IndianPoker_1_1.sol\":12471:12477  p.addr */\n      0x00\n      add\n      0x00\n      swap1\n      sload\n      swap1\n      0x0100\n      exp\n      swap1\n      div\n      0xffffffffffffffffffffffffffffffffffffffff\n      and\n        /* \"Final_Project/IndianPoker_1_1.sol\":12462:12478  isInGame[p.addr] */\n      0xffffffffffffffffffffffffffffffffffffffff\n      and\n      0xffffffffffffffffffffffffffffffffffffffff\n      and\n      dup2\n      mstore\n      0x20\n      add\n      swap1\n      dup2\n      mstore\n      0x20\n      add\n      0x00\n      keccak256\n      0x00\n        /* \"Final_Project/IndianPoker_1_1.sol\":12462:12486  isInGame[p.addr] = false */\n      0x0100\n      exp\n      dup2\n      sload\n      dup2\n      0xff\n      mul\n      not\n      and\n      swap1\n      dup4\n      iszero\n      iszero\n      mul\n      or\n      swap1\n      sstore\n      pop\n        /* \"Final_Project/IndianPoker_1_1.sol\":12211:12498  {... */\n      pop\n        /* \"Final_Project/IndianPoker_1_1.sol\":12207:12210  i++ */\n      dup1\n      dup1\n      0x01\n      add\n      swap2\n      pop\n      pop\n        /* \"Final_Project/IndianPoker_1_1.sol\":12177:12498  for(uint i=0;i<players.length;i++){... */\n      jump(tag_448)\n    tag_449:\n      pop\n        /* \"Final_Project/IndianPoker_1_1.sol\":12508:12519  autoReset() */\n      tag_456\n        /* \"Final_Project/IndianPoker_1_1.sol\":12508:12517  autoReset */\n      tag_457\n        /* \"Final_Project/IndianPoker_1_1.sol\":12508:12519  autoReset() */\n      jump\t// in\n    tag_456:\n        /* \"Final_Project/IndianPoker_1_1.sol\":11398:12570  {... */\n      pop\n      pop\n        /* \"Final_Project/IndianPoker_1_1.sol\":11367:12570  function finishGame() internal {... */\n      jump\t// out\n        /* \"Final_Project/IndianPoker_1_1.sol\":12923:13407  function compareCards(CardValue c1, CardValue c2) internal pure returns(bool) {... */\n    tag_436:\n        /* \"Final_Project/IndianPoker_1_1.sol\":12995:12999  bool */\n      0x00\n        /* \"Final_Project/IndianPoker_1_1.sol\":13094:13109  CardValue.JOKER */\n      0x00\n        /* \"Final_Project/IndianPoker_1_1.sol\":13088:13109  c1 == CardValue.JOKER */\n      0x0d\n      dup2\n      gt\n      iszero\n      tag_459\n      jumpi\n      tag_460\n      tag_117\n      jump\t// in\n    tag_460:\n    tag_459:\n        /* \"Final_Project/IndianPoker_1_1.sol\":13088:13090  c1 */\n      dup4\n        /* \"Final_Project/IndianPoker_1_1.sol\":13088:13109  c1 == CardValue.JOKER */\n      0x0d\n      dup2\n      gt\n      iszero\n      tag_461\n      jumpi\n      tag_462\n      tag_117\n      jump\t// in\n    tag_462:\n    tag_461:\n      eq\n        /* \"Final_Project/IndianPoker_1_1.sol\":13088:13132  c1 == CardValue.JOKER && c2 == CardValue.ACE */\n      dup1\n      iszero\n      tag_463\n      jumpi\n      pop\n        /* \"Final_Project/IndianPoker_1_1.sol\":13119:13132  CardValue.ACE */\n      0x0d\n        /* \"Final_Project/IndianPoker_1_1.sol\":13113:13132  c2 == CardValue.ACE */\n      dup1\n      dup2\n      gt\n      iszero\n      tag_464\n      jumpi\n      tag_465\n      tag_117\n      jump\t// in\n    tag_465:\n    tag_464:\n        /* \"Final_Project/IndianPoker_1_1.sol\":13113:13115  c2 */\n      dup3\n        /* \"Final_Project/IndianPoker_1_1.sol\":13113:13132  c2 == CardValue.ACE */\n      0x0d\n      dup2\n      gt\n      iszero\n      tag_466\n      jumpi\n      tag_467\n      tag_117\n      jump\t// in\n    tag_467:\n    tag_466:\n      eq\n        /* \"Final_Project/IndianPoker_1_1.sol\":13088:13132  c1 == CardValue.JOKER && c2 == CardValue.ACE */\n    tag_463:\n        /* \"Final_Project/IndianPoker_1_1.sol\":13085:13145  if(c1 == CardValue.JOKER && c2 == CardValue.ACE) return true */\n      iszero\n      tag_468\n      jumpi\n        /* \"Final_Project/IndianPoker_1_1.sol\":13141:13145  true */\n      0x01\n        /* \"Final_Project/IndianPoker_1_1.sol\":13134:13145  return true */\n      swap1\n      pop\n      jump(tag_458)\n        /* \"Final_Project/IndianPoker_1_1.sol\":13085:13145  if(c1 == CardValue.JOKER && c2 == CardValue.ACE) return true */\n    tag_468:\n        /* \"Final_Project/IndianPoker_1_1.sol\":13165:13180  CardValue.JOKER */\n      0x00\n        /* \"Final_Project/IndianPoker_1_1.sol\":13159:13180  c1 == CardValue.JOKER */\n      0x0d\n      dup2\n      gt\n      iszero\n      tag_469\n      jumpi\n      tag_470\n      tag_117\n      jump\t// in\n    tag_470:\n    tag_469:\n        /* \"Final_Project/IndianPoker_1_1.sol\":13159:13161  c1 */\n      dup4\n        /* \"Final_Project/IndianPoker_1_1.sol\":13159:13180  c1 == CardValue.JOKER */\n      0x0d\n      dup2\n      gt\n      iszero\n      tag_471\n      jumpi\n      tag_472\n      tag_117\n      jump\t// in\n    tag_472:\n    tag_471:\n      eq\n        /* \"Final_Project/IndianPoker_1_1.sol\":13159:13203  c1 == CardValue.JOKER && c2 != CardValue.ACE */\n      dup1\n      iszero\n      tag_473\n      jumpi\n      pop\n        /* \"Final_Project/IndianPoker_1_1.sol\":13190:13203  CardValue.ACE */\n      0x0d\n        /* \"Final_Project/IndianPoker_1_1.sol\":13184:13203  c2 != CardValue.ACE */\n      dup1\n      dup2\n      gt\n      iszero\n      tag_474\n      jumpi\n      tag_475\n      tag_117\n      jump\t// in\n    tag_475:\n    tag_474:\n        /* \"Final_Project/IndianPoker_1_1.sol\":13184:13186  c2 */\n      dup3\n        /* \"Final_Project/IndianPoker_1_1.sol\":13184:13203  c2 != CardValue.ACE */\n      0x0d\n      dup2\n      gt\n      iszero\n      tag_476\n      jumpi\n      tag_477\n      tag_117\n      jump\t// in\n    tag_477:\n    tag_476:\n      eq\n      iszero\n        /* \"Final_Project/IndianPoker_1_1.sol\":13159:13203  c1 == CardValue.JOKER && c2 != CardValue.ACE */\n    tag_473:\n        /* \"Final_Project/IndianPoker_1_1.sol\":13156:13217  if(c1 == CardValue.JOKER && c2 != CardValue.ACE) return false */\n      iszero\n      tag_478\n      jumpi\n        /* \"Final_Project/IndianPoker_1_1.sol\":13212:13217  false */\n      0x00\n        /* \"Final_Project/IndianPoker_1_1.sol\":13205:13217  return false */\n      swap1\n      pop\n      jump(tag_458)\n        /* \"Final_Project/IndianPoker_1_1.sol\":13156:13217  if(c1 == CardValue.JOKER && c2 != CardValue.ACE) return false */\n    tag_478:\n        /* \"Final_Project/IndianPoker_1_1.sol\":13237:13252  CardValue.JOKER */\n      0x00\n        /* \"Final_Project/IndianPoker_1_1.sol\":13231:13252  c2 == CardValue.JOKER */\n      0x0d\n      dup2\n      gt\n      iszero\n      tag_479\n      jumpi\n      tag_480\n      tag_117\n      jump\t// in\n    tag_480:\n    tag_479:\n        /* \"Final_Project/IndianPoker_1_1.sol\":13231:13233  c2 */\n      dup3\n        /* \"Final_Project/IndianPoker_1_1.sol\":13231:13252  c2 == CardValue.JOKER */\n      0x0d\n      dup2\n      gt\n      iszero\n      tag_481\n      jumpi\n      tag_482\n      tag_117\n      jump\t// in\n    tag_482:\n    tag_481:\n      eq\n        /* \"Final_Project/IndianPoker_1_1.sol\":13231:13275  c2 == CardValue.JOKER && c1 == CardValue.ACE */\n      dup1\n      iszero\n      tag_483\n      jumpi\n      pop\n        /* \"Final_Project/IndianPoker_1_1.sol\":13262:13275  CardValue.ACE */\n      0x0d\n        /* \"Final_Project/IndianPoker_1_1.sol\":13256:13275  c1 == CardValue.ACE */\n      dup1\n      dup2\n      gt\n      iszero\n      tag_484\n      jumpi\n      tag_485\n      tag_117\n      jump\t// in\n    tag_485:\n    tag_484:\n        /* \"Final_Project/IndianPoker_1_1.sol\":13256:13258  c1 */\n      dup4\n        /* \"Final_Project/IndianPoker_1_1.sol\":13256:13275  c1 == CardValue.ACE */\n      0x0d\n      dup2\n      gt\n      iszero\n      tag_486\n      jumpi\n      tag_487\n      tag_117\n      jump\t// in\n    tag_487:\n    tag_486:\n      eq\n        /* \"Final_Project/IndianPoker_1_1.sol\":13231:13275  c2 == CardValue.JOKER && c1 == CardValue.ACE */\n    tag_483:\n        /* \"Final_Project/IndianPoker_1_1.sol\":13228:13289  if(c2 == CardValue.JOKER && c1 == CardValue.ACE) return false */\n      iszero\n      tag_488\n      jumpi\n        /* \"Final_Project/IndianPoker_1_1.sol\":13284:13289  false */\n      0x00\n        /* \"Final_Project/IndianPoker_1_1.sol\":13277:13289  return false */\n      swap1\n      pop\n      jump(tag_458)\n        /* \"Final_Project/IndianPoker_1_1.sol\":13228:13289  if(c2 == CardValue.JOKER && c1 == CardValue.ACE) return false */\n    tag_488:\n        /* \"Final_Project/IndianPoker_1_1.sol\":13309:13324  CardValue.JOKER */\n      0x00\n        /* \"Final_Project/IndianPoker_1_1.sol\":13303:13324  c2 == CardValue.JOKER */\n      0x0d\n      dup2\n      gt\n      iszero\n      tag_489\n      jumpi\n      tag_490\n      tag_117\n      jump\t// in\n    tag_490:\n    tag_489:\n        /* \"Final_Project/IndianPoker_1_1.sol\":13303:13305  c2 */\n      dup3\n        /* \"Final_Project/IndianPoker_1_1.sol\":13303:13324  c2 == CardValue.JOKER */\n      0x0d\n      dup2\n      gt\n      iszero\n      tag_491\n      jumpi\n      tag_492\n      tag_117\n      jump\t// in\n    tag_492:\n    tag_491:\n      eq\n        /* \"Final_Project/IndianPoker_1_1.sol\":13303:13347  c2 == CardValue.JOKER && c1 != CardValue.ACE */\n      dup1\n      iszero\n      tag_493\n      jumpi\n      pop\n        /* \"Final_Project/IndianPoker_1_1.sol\":13334:13347  CardValue.ACE */\n      0x0d\n        /* \"Final_Project/IndianPoker_1_1.sol\":13328:13347  c1 != CardValue.ACE */\n      dup1\n      dup2\n      gt\n      iszero\n      tag_494\n      jumpi\n      tag_495\n      tag_117\n      jump\t// in\n    tag_495:\n    tag_494:\n        /* \"Final_Project/IndianPoker_1_1.sol\":13328:13330  c1 */\n      dup4\n        /* \"Final_Project/IndianPoker_1_1.sol\":13328:13347  c1 != CardValue.ACE */\n      0x0d\n      dup2\n      gt\n      iszero\n      tag_496\n      jumpi\n      tag_497\n      tag_117\n      jump\t// in\n    tag_497:\n    tag_496:\n      eq\n      iszero\n        /* \"Final_Project/IndianPoker_1_1.sol\":13303:13347  c2 == CardValue.JOKER && c1 != CardValue.ACE */\n    tag_493:\n        /* \"Final_Project/IndianPoker_1_1.sol\":13300:13360  if(c2 == CardValue.JOKER && c1 != CardValue.ACE) return true */\n      iszero\n      tag_498\n      jumpi\n        /* \"Final_Project/IndianPoker_1_1.sol\":13356:13360  true */\n      0x01\n        /* \"Final_Project/IndianPoker_1_1.sol\":13349:13360  return true */\n      swap1\n      pop\n      jump(tag_458)\n        /* \"Final_Project/IndianPoker_1_1.sol\":13300:13360  if(c2 == CardValue.JOKER && c1 != CardValue.ACE) return true */\n    tag_498:\n        /* \"Final_Project/IndianPoker_1_1.sol\":13396:13398  c2 */\n      dup2\n        /* \"Final_Project/IndianPoker_1_1.sol\":13390:13399  uint8(c2) */\n      0x0d\n      dup2\n      gt\n      iszero\n      tag_499\n      jumpi\n      tag_500\n      tag_117\n      jump\t// in\n    tag_500:\n    tag_499:\n        /* \"Final_Project/IndianPoker_1_1.sol\":13378:13399  uint8(c1) > uint8(c2) */\n      0xff\n      and\n        /* \"Final_Project/IndianPoker_1_1.sol\":13384:13386  c1 */\n      dup4\n        /* \"Final_Project/IndianPoker_1_1.sol\":13378:13387  uint8(c1) */\n      0x0d\n      dup2\n      gt\n      iszero\n      tag_501\n      jumpi\n      tag_502\n      tag_117\n      jump\t// in\n    tag_502:\n    tag_501:\n        /* \"Final_Project/IndianPoker_1_1.sol\":13378:13399  uint8(c1) > uint8(c2) */\n      0xff\n      and\n      gt\n        /* \"Final_Project/IndianPoker_1_1.sol\":13371:13399  return uint8(c1) > uint8(c2) */\n      swap1\n      pop\n        /* \"Final_Project/IndianPoker_1_1.sol\":12923:13407  function compareCards(CardValue c1, CardValue c2) internal pure returns(bool) {... */\n    tag_458:\n      swap3\n      swap2\n      pop\n      pop\n      jump\t// out\n        /* \"Final_Project/IndianPoker_1_1.sol\":12627:12869  function autoReset() internal {... */\n    tag_457:\n        /* \"Final_Project/IndianPoker_1_1.sol\":12675:12682  players */\n      0x01\n      0x00\n        /* \"Final_Project/IndianPoker_1_1.sol\":12668:12682  delete players */\n      tag_504\n      swap2\n      swap1\n      tag_505\n      jump\t// in\n    tag_504:\n        /* \"Final_Project/IndianPoker_1_1.sol\":12745:12762  GamePhase.WAITING */\n      0x00\n        /* \"Final_Project/IndianPoker_1_1.sol\":12737:12742  phase */\n      0x00\n      0x00\n        /* \"Final_Project/IndianPoker_1_1.sol\":12737:12762  phase = GamePhase.WAITING */\n      0x0100\n      exp\n      dup2\n      sload\n      dup2\n      0xff\n      mul\n      not\n      and\n      swap1\n      dup4\n      0x03\n      dup2\n      gt\n      iszero\n      tag_506\n      jumpi\n      tag_507\n      tag_117\n      jump\t// in\n    tag_507:\n    tag_506:\n      mul\n      or\n      swap1\n      sstore\n      pop\n        /* \"Final_Project/IndianPoker_1_1.sol\":12809:12810  0 */\n      0x00\n        /* \"Final_Project/IndianPoker_1_1.sol\":12803:12806  pot */\n      0x06\n        /* \"Final_Project/IndianPoker_1_1.sol\":12803:12810  pot = 0 */\n      dup2\n      swap1\n      sstore\n      pop\n        /* \"Final_Project/IndianPoker_1_1.sol\":12834:12835  0 */\n      0x00\n        /* \"Final_Project/IndianPoker_1_1.sol\":12821:12831  currentBet */\n      0x07\n        /* \"Final_Project/IndianPoker_1_1.sol\":12821:12835  currentBet = 0 */\n      dup2\n      swap1\n      sstore\n      pop\n        /* \"Final_Project/IndianPoker_1_1.sol\":12860:12861  0 */\n      0x00\n        /* \"Final_Project/IndianPoker_1_1.sol\":12846:12857  activeCount */\n      0x0a\n        /* \"Final_Project/IndianPoker_1_1.sol\":12846:12861  activeCount = 0 */\n      dup2\n      swap1\n      sstore\n      pop\n        /* \"Final_Project/IndianPoker_1_1.sol\":12627:12869  function autoReset() internal {... */\n      jump\t// out\n    tag_296:\n      mload(0x40)\n      dup1\n      0x0120\n      add\n      0x40\n      mstore\n      dup1\n      and(0xffffffffffffffffffffffffffffffffffffffff, 0x00)\n      dup2\n      mstore\n      0x20\n      add\n      0x00\n      dup2\n      mstore\n      0x20\n      add\n      0x00\n      0x0d\n      dup2\n      gt\n      iszero\n      tag_508\n      jumpi\n      tag_509\n      tag_117\n      jump\t// in\n    tag_509:\n    tag_508:\n      dup2\n      mstore\n      0x20\n      add\n      iszero(iszero(0x00))\n      dup2\n      mstore\n      0x20\n      add\n      iszero(iszero(0x00))\n      dup2\n      mstore\n      0x20\n      add\n      0x00\n      dup2\n      mstore\n      0x20\n      add\n      0x00\n      0x05\n      dup2\n      gt\n      iszero\n      tag_510\n      jumpi\n      tag_511\n      tag_117\n      jump\t// in\n    tag_511:\n    tag_510:\n      dup2\n      mstore\n      0x20\n      add\n      iszero(iszero(0x00))\n      dup2\n      mstore\n      0x20\n      add\n      0x00\n      dup2\n      mstore\n      pop\n      swap1\n      jump\t// out\n    tag_505:\n      pop\n      dup1\n      sload\n      0x00\n      dup3\n      sstore\n      0x06\n      mul\n      swap1\n      0x00\n      mstore\n      keccak256(0x00, 0x20)\n      swap1\n      dup2\n      add\n      swap1\n      tag_513\n      swap2\n      swap1\n      tag_514\n      jump\t// in\n    tag_513:\n      pop\n      jump\t// out\n    tag_514:\n    tag_515:\n      dup1\n      dup3\n      gt\n      iszero\n      tag_516\n      jumpi\n      0x00\n      0x00\n      dup3\n      add\n      exp(0x0100, 0x00)\n      dup2\n      sload\n      swap1\n      0xffffffffffffffffffffffffffffffffffffffff\n      mul\n      not\n      and\n      swap1\n      sstore\n      0x01\n      dup3\n      add\n      0x00\n      swap1\n      sstore\n      0x02\n      dup3\n      add\n      exp(0x0100, 0x00)\n      dup2\n      sload\n      swap1\n      0xff\n      mul\n      not\n      and\n      swap1\n      sstore\n      0x02\n      dup3\n      add\n      exp(0x0100, 0x01)\n      dup2\n      sload\n      swap1\n      0xff\n      mul\n      not\n      and\n      swap1\n      sstore\n      0x02\n      dup3\n      add\n      exp(0x0100, 0x02)\n      dup2\n      sload\n      swap1\n      0xff\n      mul\n      not\n      and\n      swap1\n      sstore\n      0x03\n      dup3\n      add\n      0x00\n      swap1\n      sstore\n      0x04\n      dup3\n      add\n      exp(0x0100, 0x00)\n      dup2\n      sload\n      swap1\n      0xff\n      mul\n      not\n      and\n      swap1\n      sstore\n      0x04\n      dup3\n      add\n      exp(0x0100, 0x01)\n      dup2\n      sload\n      swap1\n      0xff\n      mul\n      not\n      and\n      swap1\n      sstore\n      0x05\n      dup3\n      add\n      0x00\n      swap1\n      sstore\n      pop\n      0x06\n      add\n      jump(tag_515)\n    tag_516:\n      pop\n      swap1\n      jump\t// out\n        /* \"#utility.yul\":88:205   */\n    tag_518:\n        /* \"#utility.yul\":197:198   */\n      0x00\n        /* \"#utility.yul\":194:195   */\n      0x00\n        /* \"#utility.yul\":187:199   */\n      revert\n        /* \"#utility.yul\":334:411   */\n    tag_520:\n        /* \"#utility.yul\":371:378   */\n      0x00\n        /* \"#utility.yul\":400:405   */\n      dup2\n        /* \"#utility.yul\":389:405   */\n      swap1\n      pop\n        /* \"#utility.yul\":334:411   */\n      swap2\n      swap1\n      pop\n      jump\t// out\n        /* \"#utility.yul\":417:539   */\n    tag_521:\n        /* \"#utility.yul\":490:514   */\n      tag_594\n        /* \"#utility.yul\":508:513   */\n      dup2\n        /* \"#utility.yul\":490:514   */\n      tag_520\n      jump\t// in\n    tag_594:\n        /* \"#utility.yul\":483:488   */\n      dup2\n        /* \"#utility.yul\":480:515   */\n      eq\n        /* \"#utility.yul\":470:533   */\n      tag_595\n      jumpi\n        /* \"#utility.yul\":529:530   */\n      0x00\n        /* \"#utility.yul\":526:527   */\n      0x00\n        /* \"#utility.yul\":519:531   */\n      revert\n        /* \"#utility.yul\":470:533   */\n    tag_595:\n        /* \"#utility.yul\":417:539   */\n      pop\n      jump\t// out\n        /* \"#utility.yul\":545:684   */\n    tag_522:\n        /* \"#utility.yul\":591:596   */\n      0x00\n        /* \"#utility.yul\":629:635   */\n      dup2\n        /* \"#utility.yul\":616:636   */\n      calldataload\n        /* \"#utility.yul\":607:636   */\n      swap1\n      pop\n        /* \"#utility.yul\":645:678   */\n      tag_597\n        /* \"#utility.yul\":672:677   */\n      dup2\n        /* \"#utility.yul\":645:678   */\n      tag_521\n      jump\t// in\n    tag_597:\n        /* \"#utility.yul\":545:684   */\n      swap3\n      swap2\n      pop\n      pop\n      jump\t// out\n        /* \"#utility.yul\":690:1019   */\n    tag_29:\n        /* \"#utility.yul\":749:755   */\n      0x00\n        /* \"#utility.yul\":798:800   */\n      0x20\n        /* \"#utility.yul\":786:795   */\n      dup3\n        /* \"#utility.yul\":777:784   */\n      dup5\n        /* \"#utility.yul\":773:796   */\n      sub\n        /* \"#utility.yul\":769:801   */\n      slt\n        /* \"#utility.yul\":766:885   */\n      iszero\n      tag_599\n      jumpi\n        /* \"#utility.yul\":804:883   */\n      tag_600\n      tag_518\n      jump\t// in\n    tag_600:\n        /* \"#utility.yul\":766:885   */\n    tag_599:\n        /* \"#utility.yul\":924:925   */\n      0x00\n        /* \"#utility.yul\":949:1002   */\n      tag_601\n        /* \"#utility.yul\":994:1001   */\n      dup5\n        /* \"#utility.yul\":985:991   */\n      dup3\n        /* \"#utility.yul\":974:983   */\n      dup6\n        /* \"#utility.yul\":970:992   */\n      add\n        /* \"#utility.yul\":949:1002   */\n      tag_522\n      jump\t// in\n    tag_601:\n        /* \"#utility.yul\":939:1002   */\n      swap2\n      pop\n        /* \"#utility.yul\":895:1012   */\n      pop\n        /* \"#utility.yul\":690:1019   */\n      swap3\n      swap2\n      pop\n      pop\n      jump\t// out\n        /* \"#utility.yul\":1025:1151   */\n    tag_523:\n        /* \"#utility.yul\":1062:1069   */\n      0x00\n        /* \"#utility.yul\":1102:1144   */\n      0xffffffffffffffffffffffffffffffffffffffff\n        /* \"#utility.yul\":1095:1100   */\n      dup3\n        /* \"#utility.yul\":1091:1145   */\n      and\n        /* \"#utility.yul\":1080:1145   */\n      swap1\n      pop\n        /* \"#utility.yul\":1025:1151   */\n      swap2\n      swap1\n      pop\n      jump\t// out\n        /* \"#utility.yul\":1157:1253   */\n    tag_524:\n        /* \"#utility.yul\":1194:1201   */\n      0x00\n        /* \"#utility.yul\":1223:1247   */\n      tag_604\n        /* \"#utility.yul\":1241:1246   */\n      dup3\n        /* \"#utility.yul\":1223:1247   */\n      tag_523\n      jump\t// in\n    tag_604:\n        /* \"#utility.yul\":1212:1247   */\n      swap1\n      pop\n        /* \"#utility.yul\":1157:1253   */\n      swap2\n      swap1\n      pop\n      jump\t// out\n        /* \"#utility.yul\":1259:1381   */\n    tag_525:\n        /* \"#utility.yul\":1332:1356   */\n      tag_606\n        /* \"#utility.yul\":1350:1355   */\n      dup2\n        /* \"#utility.yul\":1332:1356   */\n      tag_524\n      jump\t// in\n    tag_606:\n        /* \"#utility.yul\":1325:1330   */\n      dup2\n        /* \"#utility.yul\":1322:1357   */\n      eq\n        /* \"#utility.yul\":1312:1375   */\n      tag_607\n      jumpi\n        /* \"#utility.yul\":1371:1372   */\n      0x00\n        /* \"#utility.yul\":1368:1369   */\n      0x00\n        /* \"#utility.yul\":1361:1373   */\n      revert\n        /* \"#utility.yul\":1312:1375   */\n    tag_607:\n        /* \"#utility.yul\":1259:1381   */\n      pop\n      jump\t// out\n        /* \"#utility.yul\":1387:1526   */\n    tag_526:\n        /* \"#utility.yul\":1433:1438   */\n      0x00\n        /* \"#utility.yul\":1471:1477   */\n      dup2\n        /* \"#utility.yul\":1458:1478   */\n      calldataload\n        /* \"#utility.yul\":1449:1478   */\n      swap1\n      pop\n        /* \"#utility.yul\":1487:1520   */\n      tag_609\n        /* \"#utility.yul\":1514:1519   */\n      dup2\n        /* \"#utility.yul\":1487:1520   */\n      tag_525\n      jump\t// in\n    tag_609:\n        /* \"#utility.yul\":1387:1526   */\n      swap3\n      swap2\n      pop\n      pop\n      jump\t// out\n        /* \"#utility.yul\":1532:1861   */\n    tag_34:\n        /* \"#utility.yul\":1591:1597   */\n      0x00\n        /* \"#utility.yul\":1640:1642   */\n      0x20\n        /* \"#utility.yul\":1628:1637   */\n      dup3\n        /* \"#utility.yul\":1619:1626   */\n      dup5\n        /* \"#utility.yul\":1615:1638   */\n      sub\n        /* \"#utility.yul\":1611:1643   */\n      slt\n        /* \"#utility.yul\":1608:1727   */\n      iszero\n      tag_611\n      jumpi\n        /* \"#utility.yul\":1646:1725   */\n      tag_612\n      tag_518\n      jump\t// in\n    tag_612:\n        /* \"#utility.yul\":1608:1727   */\n    tag_611:\n        /* \"#utility.yul\":1766:1767   */\n      0x00\n        /* \"#utility.yul\":1791:1844   */\n      tag_613\n        /* \"#utility.yul\":1836:1843   */\n      dup5\n        /* \"#utility.yul\":1827:1833   */\n      dup3\n        /* \"#utility.yul\":1816:1825   */\n      dup6\n        /* \"#utility.yul\":1812:1834   */\n      add\n        /* \"#utility.yul\":1791:1844   */\n      tag_526\n      jump\t// in\n    tag_613:\n        /* \"#utility.yul\":1781:1844   */\n      swap2\n      pop\n        /* \"#utility.yul\":1737:1854   */\n      pop\n        /* \"#utility.yul\":1532:1861   */\n      swap3\n      swap2\n      pop\n      pop\n      jump\t// out\n        /* \"#utility.yul\":1867:1985   */\n    tag_527:\n        /* \"#utility.yul\":1954:1978   */\n      tag_615\n        /* \"#utility.yul\":1972:1977   */\n      dup2\n        /* \"#utility.yul\":1954:1978   */\n      tag_520\n      jump\t// in\n    tag_615:\n        /* \"#utility.yul\":1949:1952   */\n      dup3\n        /* \"#utility.yul\":1942:1979   */\n      mstore\n        /* \"#utility.yul\":1867:1985   */\n      pop\n      pop\n      jump\t// out\n        /* \"#utility.yul\":1991:2213   */\n    tag_37:\n        /* \"#utility.yul\":2084:2088   */\n      0x00\n        /* \"#utility.yul\":2122:2124   */\n      0x20\n        /* \"#utility.yul\":2111:2120   */\n      dup3\n        /* \"#utility.yul\":2107:2125   */\n      add\n        /* \"#utility.yul\":2099:2125   */\n      swap1\n      pop\n        /* \"#utility.yul\":2135:2206   */\n      tag_617\n        /* \"#utility.yul\":2203:2204   */\n      0x00\n        /* \"#utility.yul\":2192:2201   */\n      dup4\n        /* \"#utility.yul\":2188:2205   */\n      add\n        /* \"#utility.yul\":2179:2185   */\n      dup5\n        /* \"#utility.yul\":2135:2206   */\n      tag_527\n      jump\t// in\n    tag_617:\n        /* \"#utility.yul\":1991:2213   */\n      swap3\n      swap2\n      pop\n      pop\n      jump\t// out\n        /* \"#utility.yul\":2219:2309   */\n    tag_528:\n        /* \"#utility.yul\":2253:2260   */\n      0x00\n        /* \"#utility.yul\":2296:2301   */\n      dup2\n        /* \"#utility.yul\":2289:2302   */\n      iszero\n        /* \"#utility.yul\":2282:2303   */\n      iszero\n        /* \"#utility.yul\":2271:2303   */\n      swap1\n      pop\n        /* \"#utility.yul\":2219:2309   */\n      swap2\n      swap1\n      pop\n      jump\t// out\n        /* \"#utility.yul\":2315:2424   */\n    tag_529:\n        /* \"#utility.yul\":2396:2417   */\n      tag_620\n        /* \"#utility.yul\":2411:2416   */\n      dup2\n        /* \"#utility.yul\":2396:2417   */\n      tag_528\n      jump\t// in\n    tag_620:\n        /* \"#utility.yul\":2391:2394   */\n      dup3\n        /* \"#utility.yul\":2384:2418   */\n      mstore\n        /* \"#utility.yul\":2315:2424   */\n      pop\n      pop\n      jump\t// out\n        /* \"#utility.yul\":2430:2640   */\n    tag_69:\n        /* \"#utility.yul\":2517:2521   */\n      0x00\n        /* \"#utility.yul\":2555:2557   */\n      0x20\n        /* \"#utility.yul\":2544:2553   */\n      dup3\n        /* \"#utility.yul\":2540:2558   */\n      add\n        /* \"#utility.yul\":2532:2558   */\n      swap1\n      pop\n        /* \"#utility.yul\":2568:2633   */\n      tag_622\n        /* \"#utility.yul\":2630:2631   */\n      0x00\n        /* \"#utility.yul\":2619:2628   */\n      dup4\n        /* \"#utility.yul\":2615:2632   */\n      add\n        /* \"#utility.yul\":2606:2612   */\n      dup5\n        /* \"#utility.yul\":2568:2633   */\n      tag_529\n      jump\t// in\n    tag_622:\n        /* \"#utility.yul\":2430:2640   */\n      swap3\n      swap2\n      pop\n      pop\n      jump\t// out\n        /* \"#utility.yul\":2646:2764   */\n    tag_530:\n        /* \"#utility.yul\":2733:2757   */\n      tag_624\n        /* \"#utility.yul\":2751:2756   */\n      dup2\n        /* \"#utility.yul\":2733:2757   */\n      tag_524\n      jump\t// in\n    tag_624:\n        /* \"#utility.yul\":2728:2731   */\n      dup3\n        /* \"#utility.yul\":2721:2758   */\n      mstore\n        /* \"#utility.yul\":2646:2764   */\n      pop\n      pop\n      jump\t// out\n        /* \"#utility.yul\":2770:2992   */\n    tag_86:\n        /* \"#utility.yul\":2863:2867   */\n      0x00\n        /* \"#utility.yul\":2901:2903   */\n      0x20\n        /* \"#utility.yul\":2890:2899   */\n      dup3\n        /* \"#utility.yul\":2886:2904   */\n      add\n        /* \"#utility.yul\":2878:2904   */\n      swap1\n      pop\n        /* \"#utility.yul\":2914:2985   */\n      tag_626\n        /* \"#utility.yul\":2982:2983   */\n      0x00\n        /* \"#utility.yul\":2971:2980   */\n      dup4\n        /* \"#utility.yul\":2967:2984   */\n      add\n        /* \"#utility.yul\":2958:2964   */\n      dup5\n        /* \"#utility.yul\":2914:2985   */\n      tag_530\n      jump\t// in\n    tag_626:\n        /* \"#utility.yul\":2770:2992   */\n      swap3\n      swap2\n      pop\n      pop\n      jump\t// out\n        /* \"#utility.yul\":2998:3178   */\n    tag_117:\n        /* \"#utility.yul\":3046:3123   */\n      0x4e487b7100000000000000000000000000000000000000000000000000000000\n        /* \"#utility.yul\":3043:3044   */\n      0x00\n        /* \"#utility.yul\":3036:3124   */\n      mstore\n        /* \"#utility.yul\":3143:3147   */\n      0x21\n        /* \"#utility.yul\":3140:3141   */\n      0x04\n        /* \"#utility.yul\":3133:3148   */\n      mstore\n        /* \"#utility.yul\":3167:3171   */\n      0x24\n        /* \"#utility.yul\":3164:3165   */\n      0x00\n        /* \"#utility.yul\":3157:3172   */\n      revert\n        /* \"#utility.yul\":3184:3301   */\n    tag_531:\n        /* \"#utility.yul\":3269:3270   */\n      0x04\n        /* \"#utility.yul\":3262:3267   */\n      dup2\n        /* \"#utility.yul\":3259:3271   */\n      lt\n        /* \"#utility.yul\":3249:3295   */\n      tag_629\n      jumpi\n        /* \"#utility.yul\":3275:3293   */\n      tag_630\n      tag_117\n      jump\t// in\n    tag_630:\n        /* \"#utility.yul\":3249:3295   */\n    tag_629:\n        /* \"#utility.yul\":3184:3301   */\n      pop\n      jump\t// out\n        /* \"#utility.yul\":3307:3442   */\n    tag_532:\n        /* \"#utility.yul\":3356:3363   */\n      0x00\n        /* \"#utility.yul\":3385:3390   */\n      dup2\n        /* \"#utility.yul\":3374:3390   */\n      swap1\n      pop\n        /* \"#utility.yul\":3391:3436   */\n      tag_632\n        /* \"#utility.yul\":3430:3435   */\n      dup3\n        /* \"#utility.yul\":3391:3436   */\n      tag_531\n      jump\t// in\n    tag_632:\n        /* \"#utility.yul\":3307:3442   */\n      swap2\n      swap1\n      pop\n      jump\t// out\n        /* \"#utility.yul\":3448:3583   */\n    tag_533:\n        /* \"#utility.yul\":3508:3517   */\n      0x00\n        /* \"#utility.yul\":3541:3577   */\n      tag_634\n        /* \"#utility.yul\":3571:3576   */\n      dup3\n        /* \"#utility.yul\":3541:3577   */\n      tag_532\n      jump\t// in\n    tag_634:\n        /* \"#utility.yul\":3528:3577   */\n      swap1\n      pop\n        /* \"#utility.yul\":3448:3583   */\n      swap2\n      swap1\n      pop\n      jump\t// out\n        /* \"#utility.yul\":3589:3740   */\n    tag_534:\n        /* \"#utility.yul\":3686:3733   */\n      tag_636\n        /* \"#utility.yul\":3727:3732   */\n      dup2\n        /* \"#utility.yul\":3686:3733   */\n      tag_533\n      jump\t// in\n    tag_636:\n        /* \"#utility.yul\":3681:3684   */\n      dup3\n        /* \"#utility.yul\":3674:3734   */\n      mstore\n        /* \"#utility.yul\":3589:3740   */\n      pop\n      pop\n      jump\t// out\n        /* \"#utility.yul\":3746:3988   */\n    tag_95:\n        /* \"#utility.yul\":3849:3853   */\n      0x00\n        /* \"#utility.yul\":3887:3889   */\n      0x20\n        /* \"#utility.yul\":3876:3885   */\n      dup3\n        /* \"#utility.yul\":3872:3890   */\n      add\n        /* \"#utility.yul\":3864:3890   */\n      swap1\n      pop\n        /* \"#utility.yul\":3900:3981   */\n      tag_638\n        /* \"#utility.yul\":3978:3979   */\n      0x00\n        /* \"#utility.yul\":3967:3976   */\n      dup4\n        /* \"#utility.yul\":3963:3980   */\n      add\n        /* \"#utility.yul\":3954:3960   */\n      dup5\n        /* \"#utility.yul\":3900:3981   */\n      tag_534\n      jump\t// in\n    tag_638:\n        /* \"#utility.yul\":3746:3988   */\n      swap3\n      swap2\n      pop\n      pop\n      jump\t// out\n        /* \"#utility.yul\":3994:4112   */\n    tag_535:\n        /* \"#utility.yul\":4079:4081   */\n      0x0e\n        /* \"#utility.yul\":4072:4077   */\n      dup2\n        /* \"#utility.yul\":4069:4082   */\n      lt\n        /* \"#utility.yul\":4059:4106   */\n      tag_640\n      jumpi\n        /* \"#utility.yul\":4086:4104   */\n      tag_641\n      tag_117\n      jump\t// in\n    tag_641:\n        /* \"#utility.yul\":4059:4106   */\n    tag_640:\n        /* \"#utility.yul\":3994:4112   */\n      pop\n      jump\t// out\n        /* \"#utility.yul\":4118:4253   */\n    tag_536:\n        /* \"#utility.yul\":4167:4174   */\n      0x00\n        /* \"#utility.yul\":4196:4201   */\n      dup2\n        /* \"#utility.yul\":4185:4201   */\n      swap1\n      pop\n        /* \"#utility.yul\":4202:4247   */\n      tag_643\n        /* \"#utility.yul\":4241:4246   */\n      dup3\n        /* \"#utility.yul\":4202:4247   */\n      tag_535\n      jump\t// in\n    tag_643:\n        /* \"#utility.yul\":4118:4253   */\n      swap2\n      swap1\n      pop\n      jump\t// out\n        /* \"#utility.yul\":4259:4394   */\n    tag_537:\n        /* \"#utility.yul\":4319:4328   */\n      0x00\n        /* \"#utility.yul\":4352:4388   */\n      tag_645\n        /* \"#utility.yul\":4382:4387   */\n      dup3\n        /* \"#utility.yul\":4352:4388   */\n      tag_536\n      jump\t// in\n    tag_645:\n        /* \"#utility.yul\":4339:4388   */\n      swap1\n      pop\n        /* \"#utility.yul\":4259:4394   */\n      swap2\n      swap1\n      pop\n      jump\t// out\n        /* \"#utility.yul\":4400:4551   */\n    tag_538:\n        /* \"#utility.yul\":4497:4544   */\n      tag_647\n        /* \"#utility.yul\":4538:4543   */\n      dup2\n        /* \"#utility.yul\":4497:4544   */\n      tag_537\n      jump\t// in\n    tag_647:\n        /* \"#utility.yul\":4492:4495   */\n      dup3\n        /* \"#utility.yul\":4485:4545   */\n      mstore\n        /* \"#utility.yul\":4400:4551   */\n      pop\n      pop\n      jump\t// out\n        /* \"#utility.yul\":4557:4677   */\n    tag_539:\n        /* \"#utility.yul\":4645:4646   */\n      0x06\n        /* \"#utility.yul\":4638:4643   */\n      dup2\n        /* \"#utility.yul\":4635:4647   */\n      lt\n        /* \"#utility.yul\":4625:4671   */\n      tag_649\n      jumpi\n        /* \"#utility.yul\":4651:4669   */\n      tag_650\n      tag_117\n      jump\t// in\n    tag_650:\n        /* \"#utility.yul\":4625:4671   */\n    tag_649:\n        /* \"#utility.yul\":4557:4677   */\n      pop\n      jump\t// out\n        /* \"#utility.yul\":4683:4824   */\n    tag_540:\n        /* \"#utility.yul\":4735:4742   */\n      0x00\n        /* \"#utility.yul\":4764:4769   */\n      dup2\n        /* \"#utility.yul\":4753:4769   */\n      swap1\n      pop\n        /* \"#utility.yul\":4770:4818   */\n      tag_652\n        /* \"#utility.yul\":4812:4817   */\n      dup3\n        /* \"#utility.yul\":4770:4818   */\n      tag_539\n      jump\t// in\n    tag_652:\n        /* \"#utility.yul\":4683:4824   */\n      swap2\n      swap1\n      pop\n      jump\t// out\n        /* \"#utility.yul\":4830:4971   */\n    tag_541:\n        /* \"#utility.yul\":4893:4902   */\n      0x00\n        /* \"#utility.yul\":4926:4965   */\n      tag_654\n        /* \"#utility.yul\":4959:4964   */\n      dup3\n        /* \"#utility.yul\":4926:4965   */\n      tag_540\n      jump\t// in\n    tag_654:\n        /* \"#utility.yul\":4913:4965   */\n      swap1\n      pop\n        /* \"#utility.yul\":4830:4971   */\n      swap2\n      swap1\n      pop\n      jump\t// out\n        /* \"#utility.yul\":4977:5134   */\n    tag_542:\n        /* \"#utility.yul\":5077:5127   */\n      tag_656\n        /* \"#utility.yul\":5121:5126   */\n      dup2\n        /* \"#utility.yul\":5077:5127   */\n      tag_541\n      jump\t// in\n    tag_656:\n        /* \"#utility.yul\":5072:5075   */\n      dup3\n        /* \"#utility.yul\":5065:5128   */\n      mstore\n        /* \"#utility.yul\":4977:5134   */\n      pop\n      pop\n      jump\t// out\n        /* \"#utility.yul\":5140:6258   */\n    tag_113:\n        /* \"#utility.yul\":5462:5466   */\n      0x00\n        /* \"#utility.yul\":5500:5503   */\n      0x0120\n        /* \"#utility.yul\":5489:5498   */\n      dup3\n        /* \"#utility.yul\":5485:5504   */\n      add\n        /* \"#utility.yul\":5477:5504   */\n      swap1\n      pop\n        /* \"#utility.yul\":5514:5585   */\n      tag_658\n        /* \"#utility.yul\":5582:5583   */\n      0x00\n        /* \"#utility.yul\":5571:5580   */\n      dup4\n        /* \"#utility.yul\":5567:5584   */\n      add\n        /* \"#utility.yul\":5558:5564   */\n      dup13\n        /* \"#utility.yul\":5514:5585   */\n      tag_530\n      jump\t// in\n    tag_658:\n        /* \"#utility.yul\":5595:5667   */\n      tag_659\n        /* \"#utility.yul\":5663:5665   */\n      0x20\n        /* \"#utility.yul\":5652:5661   */\n      dup4\n        /* \"#utility.yul\":5648:5666   */\n      add\n        /* \"#utility.yul\":5639:5645   */\n      dup12\n        /* \"#utility.yul\":5595:5667   */\n      tag_527\n      jump\t// in\n    tag_659:\n        /* \"#utility.yul\":5677:5759   */\n      tag_660\n        /* \"#utility.yul\":5755:5757   */\n      0x40\n        /* \"#utility.yul\":5744:5753   */\n      dup4\n        /* \"#utility.yul\":5740:5758   */\n      add\n        /* \"#utility.yul\":5731:5737   */\n      dup11\n        /* \"#utility.yul\":5677:5759   */\n      tag_538\n      jump\t// in\n    tag_660:\n        /* \"#utility.yul\":5769:5835   */\n      tag_661\n        /* \"#utility.yul\":5831:5833   */\n      0x60\n        /* \"#utility.yul\":5820:5829   */\n      dup4\n        /* \"#utility.yul\":5816:5834   */\n      add\n        /* \"#utility.yul\":5807:5813   */\n      dup10\n        /* \"#utility.yul\":5769:5835   */\n      tag_529\n      jump\t// in\n    tag_661:\n        /* \"#utility.yul\":5845:5912   */\n      tag_662\n        /* \"#utility.yul\":5907:5910   */\n      0x80\n        /* \"#utility.yul\":5896:5905   */\n      dup4\n        /* \"#utility.yul\":5892:5911   */\n      add\n        /* \"#utility.yul\":5883:5889   */\n      dup9\n        /* \"#utility.yul\":5845:5912   */\n      tag_529\n      jump\t// in\n    tag_662:\n        /* \"#utility.yul\":5922:5995   */\n      tag_663\n        /* \"#utility.yul\":5990:5993   */\n      0xa0\n        /* \"#utility.yul\":5979:5988   */\n      dup4\n        /* \"#utility.yul\":5975:5994   */\n      add\n        /* \"#utility.yul\":5966:5972   */\n      dup8\n        /* \"#utility.yul\":5922:5995   */\n      tag_527\n      jump\t// in\n    tag_663:\n        /* \"#utility.yul\":6005:6091   */\n      tag_664\n        /* \"#utility.yul\":6086:6089   */\n      0xc0\n        /* \"#utility.yul\":6075:6084   */\n      dup4\n        /* \"#utility.yul\":6071:6090   */\n      add\n        /* \"#utility.yul\":6062:6068   */\n      dup7\n        /* \"#utility.yul\":6005:6091   */\n      tag_542\n      jump\t// in\n    tag_664:\n        /* \"#utility.yul\":6101:6168   */\n      tag_665\n        /* \"#utility.yul\":6163:6166   */\n      0xe0\n        /* \"#utility.yul\":6152:6161   */\n      dup4\n        /* \"#utility.yul\":6148:6167   */\n      add\n        /* \"#utility.yul\":6139:6145   */\n      dup6\n        /* \"#utility.yul\":6101:6168   */\n      tag_529\n      jump\t// in\n    tag_665:\n        /* \"#utility.yul\":6178:6251   */\n      tag_666\n        /* \"#utility.yul\":6246:6249   */\n      0x0100\n        /* \"#utility.yul\":6235:6244   */\n      dup4\n        /* \"#utility.yul\":6231:6250   */\n      add\n        /* \"#utility.yul\":6222:6228   */\n      dup5\n        /* \"#utility.yul\":6178:6251   */\n      tag_527\n      jump\t// in\n    tag_666:\n        /* \"#utility.yul\":5140:6258   */\n      swap11\n      swap10\n      pop\n      pop\n      pop\n      pop\n      pop\n      pop\n      pop\n      pop\n      pop\n      pop\n      jump\t// out\n        /* \"#utility.yul\":6264:6433   */\n    tag_543:\n        /* \"#utility.yul\":6348:6359   */\n      0x00\n        /* \"#utility.yul\":6382:6388   */\n      dup3\n        /* \"#utility.yul\":6377:6380   */\n      dup3\n        /* \"#utility.yul\":6370:6389   */\n      mstore\n        /* \"#utility.yul\":6422:6426   */\n      0x20\n        /* \"#utility.yul\":6417:6420   */\n      dup3\n        /* \"#utility.yul\":6413:6427   */\n      add\n        /* \"#utility.yul\":6398:6427   */\n      swap1\n      pop\n        /* \"#utility.yul\":6264:6433   */\n      swap3\n      swap2\n      pop\n      pop\n      jump\t// out\n        /* \"#utility.yul\":6439:6602   */\n    tag_544:\n        /* \"#utility.yul\":6579:6594   */\n      0x496e76616c696420706861736500000000000000000000000000000000000000\n        /* \"#utility.yul\":6575:6576   */\n      0x00\n        /* \"#utility.yul\":6567:6573   */\n      dup3\n        /* \"#utility.yul\":6563:6577   */\n      add\n        /* \"#utility.yul\":6556:6595   */\n      mstore\n        /* \"#utility.yul\":6439:6602   */\n      pop\n      jump\t// out\n        /* \"#utility.yul\":6608:6974   */\n    tag_545:\n        /* \"#utility.yul\":6750:6753   */\n      0x00\n        /* \"#utility.yul\":6771:6838   */\n      tag_670\n        /* \"#utility.yul\":6835:6837   */\n      0x0d\n        /* \"#utility.yul\":6830:6833   */\n      dup4\n        /* \"#utility.yul\":6771:6838   */\n      tag_543\n      jump\t// in\n    tag_670:\n        /* \"#utility.yul\":6764:6838   */\n      swap2\n      pop\n        /* \"#utility.yul\":6847:6940   */\n      tag_671\n        /* \"#utility.yul\":6936:6939   */\n      dup3\n        /* \"#utility.yul\":6847:6940   */\n      tag_544\n      jump\t// in\n    tag_671:\n        /* \"#utility.yul\":6965:6967   */\n      0x20\n        /* \"#utility.yul\":6960:6963   */\n      dup3\n        /* \"#utility.yul\":6956:6968   */\n      add\n        /* \"#utility.yul\":6949:6968   */\n      swap1\n      pop\n        /* \"#utility.yul\":6608:6974   */\n      swap2\n      swap1\n      pop\n      jump\t// out\n        /* \"#utility.yul\":6980:7399   */\n    tag_122:\n        /* \"#utility.yul\":7146:7150   */\n      0x00\n        /* \"#utility.yul\":7184:7186   */\n      0x20\n        /* \"#utility.yul\":7173:7182   */\n      dup3\n        /* \"#utility.yul\":7169:7187   */\n      add\n        /* \"#utility.yul\":7161:7187   */\n      swap1\n      pop\n        /* \"#utility.yul\":7233:7242   */\n      dup2\n        /* \"#utility.yul\":7227:7231   */\n      dup2\n        /* \"#utility.yul\":7223:7243   */\n      sub\n        /* \"#utility.yul\":7219:7220   */\n      0x00\n        /* \"#utility.yul\":7208:7217   */\n      dup4\n        /* \"#utility.yul\":7204:7221   */\n      add\n        /* \"#utility.yul\":7197:7244   */\n      mstore\n        /* \"#utility.yul\":7261:7392   */\n      tag_673\n        /* \"#utility.yul\":7387:7391   */\n      dup2\n        /* \"#utility.yul\":7261:7392   */\n      tag_545\n      jump\t// in\n    tag_673:\n        /* \"#utility.yul\":7253:7392   */\n      swap1\n      pop\n        /* \"#utility.yul\":6980:7399   */\n      swap2\n      swap1\n      pop\n      jump\t// out\n        /* \"#utility.yul\":7405:7566   */\n    tag_546:\n        /* \"#utility.yul\":7545:7558   */\n      0x4e6f7420696e2067616d65000000000000000000000000000000000000000000\n        /* \"#utility.yul\":7541:7542   */\n      0x00\n        /* \"#utility.yul\":7533:7539   */\n      dup3\n        /* \"#utility.yul\":7529:7543   */\n      add\n        /* \"#utility.yul\":7522:7559   */\n      mstore\n        /* \"#utility.yul\":7405:7566   */\n      pop\n      jump\t// out\n        /* \"#utility.yul\":7572:7938   */\n    tag_547:\n        /* \"#utility.yul\":7714:7717   */\n      0x00\n        /* \"#utility.yul\":7735:7802   */\n      tag_676\n        /* \"#utility.yul\":7799:7801   */\n      0x0b\n        /* \"#utility.yul\":7794:7797   */\n      dup4\n        /* \"#utility.yul\":7735:7802   */\n      tag_543\n      jump\t// in\n    tag_676:\n        /* \"#utility.yul\":7728:7802   */\n      swap2\n      pop\n        /* \"#utility.yul\":7811:7904   */\n      tag_677\n        /* \"#utility.yul\":7900:7903   */\n      dup3\n        /* \"#utility.yul\":7811:7904   */\n      tag_546\n      jump\t// in\n    tag_677:\n        /* \"#utility.yul\":7929:7931   */\n      0x20\n        /* \"#utility.yul\":7924:7927   */\n      dup3\n        /* \"#utility.yul\":7920:7932   */\n      add\n        /* \"#utility.yul\":7913:7932   */\n      swap1\n      pop\n        /* \"#utility.yul\":7572:7938   */\n      swap2\n      swap1\n      pop\n      jump\t// out\n        /* \"#utility.yul\":7944:8363   */\n    tag_126:\n        /* \"#utility.yul\":8110:8114   */\n      0x00\n        /* \"#utility.yul\":8148:8150   */\n      0x20\n        /* \"#utility.yul\":8137:8146   */\n      dup3\n        /* \"#utility.yul\":8133:8151   */\n      add\n        /* \"#utility.yul\":8125:8151   */\n      swap1\n      pop\n        /* \"#utility.yul\":8197:8206   */\n      dup2\n        /* \"#utility.yul\":8191:8195   */\n      dup2\n        /* \"#utility.yul\":8187:8207   */\n      sub\n        /* \"#utility.yul\":8183:8184   */\n      0x00\n        /* \"#utility.yul\":8172:8181   */\n      dup4\n        /* \"#utility.yul\":8168:8185   */\n      add\n        /* \"#utility.yul\":8161:8208   */\n      mstore\n        /* \"#utility.yul\":8225:8356   */\n      tag_679\n        /* \"#utility.yul\":8351:8355   */\n      dup2\n        /* \"#utility.yul\":8225:8356   */\n      tag_547\n      jump\t// in\n    tag_679:\n        /* \"#utility.yul\":8217:8356   */\n      swap1\n      pop\n        /* \"#utility.yul\":7944:8363   */\n      swap2\n      swap1\n      pop\n      jump\t// out\n        /* \"#utility.yul\":8369:8549   */\n    tag_130:\n        /* \"#utility.yul\":8417:8494   */\n      0x4e487b7100000000000000000000000000000000000000000000000000000000\n        /* \"#utility.yul\":8414:8415   */\n      0x00\n        /* \"#utility.yul\":8407:8495   */\n      mstore\n        /* \"#utility.yul\":8514:8518   */\n      0x32\n        /* \"#utility.yul\":8511:8512   */\n      0x04\n        /* \"#utility.yul\":8504:8519   */\n      mstore\n        /* \"#utility.yul\":8538:8542   */\n      0x24\n        /* \"#utility.yul\":8535:8536   */\n      0x00\n        /* \"#utility.yul\":8528:8543   */\n      revert\n        /* \"#utility.yul\":8555:8735   */\n    tag_548:\n        /* \"#utility.yul\":8603:8680   */\n      0x4e487b7100000000000000000000000000000000000000000000000000000000\n        /* \"#utility.yul\":8600:8601   */\n      0x00\n        /* \"#utility.yul\":8593:8681   */\n      mstore\n        /* \"#utility.yul\":8700:8704   */\n      0x11\n        /* \"#utility.yul\":8697:8698   */\n      0x04\n        /* \"#utility.yul\":8690:8705   */\n      mstore\n        /* \"#utility.yul\":8724:8728   */\n      0x24\n        /* \"#utility.yul\":8721:8722   */\n      0x00\n        /* \"#utility.yul\":8714:8729   */\n      revert\n        /* \"#utility.yul\":8741:8935   */\n    tag_133:\n        /* \"#utility.yul\":8781:8785   */\n      0x00\n        /* \"#utility.yul\":8801:8821   */\n      tag_683\n        /* \"#utility.yul\":8819:8820   */\n      dup3\n        /* \"#utility.yul\":8801:8821   */\n      tag_520\n      jump\t// in\n    tag_683:\n        /* \"#utility.yul\":8796:8821   */\n      swap2\n      pop\n        /* \"#utility.yul\":8835:8855   */\n      tag_684\n        /* \"#utility.yul\":8853:8854   */\n      dup4\n        /* \"#utility.yul\":8835:8855   */\n      tag_520\n      jump\t// in\n    tag_684:\n        /* \"#utility.yul\":8830:8855   */\n      swap3\n      pop\n        /* \"#utility.yul\":8879:8880   */\n      dup3\n        /* \"#utility.yul\":8876:8877   */\n      dup3\n        /* \"#utility.yul\":8872:8881   */\n      sub\n        /* \"#utility.yul\":8864:8881   */\n      swap1\n      pop\n        /* \"#utility.yul\":8903:8904   */\n      dup2\n        /* \"#utility.yul\":8897:8901   */\n      dup2\n        /* \"#utility.yul\":8894:8905   */\n      gt\n        /* \"#utility.yul\":8891:8928   */\n      iszero\n      tag_685\n      jumpi\n        /* \"#utility.yul\":8908:8926   */\n      tag_686\n      tag_548\n      jump\t// in\n    tag_686:\n        /* \"#utility.yul\":8891:8928   */\n    tag_685:\n        /* \"#utility.yul\":8741:8935   */\n      swap3\n      swap2\n      pop\n      pop\n      jump\t// out\n        /* \"#utility.yul\":8941:9132   */\n    tag_135:\n        /* \"#utility.yul\":8981:8984   */\n      0x00\n        /* \"#utility.yul\":9000:9020   */\n      tag_688\n        /* \"#utility.yul\":9018:9019   */\n      dup3\n        /* \"#utility.yul\":9000:9020   */\n      tag_520\n      jump\t// in\n    tag_688:\n        /* \"#utility.yul\":8995:9020   */\n      swap2\n      pop\n        /* \"#utility.yul\":9034:9054   */\n      tag_689\n        /* \"#utility.yul\":9052:9053   */\n      dup4\n        /* \"#utility.yul\":9034:9054   */\n      tag_520\n      jump\t// in\n    tag_689:\n        /* \"#utility.yul\":9029:9054   */\n      swap3\n      pop\n        /* \"#utility.yul\":9077:9078   */\n      dup3\n        /* \"#utility.yul\":9074:9075   */\n      dup3\n        /* \"#utility.yul\":9070:9079   */\n      add\n        /* \"#utility.yul\":9063:9079   */\n      swap1\n      pop\n        /* \"#utility.yul\":9098:9101   */\n      dup1\n        /* \"#utility.yul\":9095:9096   */\n      dup3\n        /* \"#utility.yul\":9092:9102   */\n      gt\n        /* \"#utility.yul\":9089:9125   */\n      iszero\n      tag_690\n      jumpi\n        /* \"#utility.yul\":9105:9123   */\n      tag_691\n      tag_548\n      jump\t// in\n    tag_691:\n        /* \"#utility.yul\":9089:9125   */\n    tag_690:\n        /* \"#utility.yul\":8941:9132   */\n      swap3\n      swap2\n      pop\n      pop\n      jump\t// out\n        /* \"#utility.yul\":9138:9301   */\n    tag_549:\n        /* \"#utility.yul\":9278:9293   */\n      0x496e76616c696420726169736500000000000000000000000000000000000000\n        /* \"#utility.yul\":9274:9275   */\n      0x00\n        /* \"#utility.yul\":9266:9272   */\n      dup3\n        /* \"#utility.yul\":9262:9276   */\n      add\n        /* \"#utility.yul\":9255:9294   */\n      mstore\n        /* \"#utility.yul\":9138:9301   */\n      pop\n      jump\t// out\n        /* \"#utility.yul\":9307:9673   */\n    tag_550:\n        /* \"#utility.yul\":9449:9452   */\n      0x00\n        /* \"#utility.yul\":9470:9537   */\n      tag_694\n        /* \"#utility.yul\":9534:9536   */\n      0x0d\n        /* \"#utility.yul\":9529:9532   */\n      dup4\n        /* \"#utility.yul\":9470:9537   */\n      tag_543\n      jump\t// in\n    tag_694:\n        /* \"#utility.yul\":9463:9537   */\n      swap2\n      pop\n        /* \"#utility.yul\":9546:9639   */\n      tag_695\n        /* \"#utility.yul\":9635:9638   */\n      dup3\n        /* \"#utility.yul\":9546:9639   */\n      tag_549\n      jump\t// in\n    tag_695:\n        /* \"#utility.yul\":9664:9666   */\n      0x20\n        /* \"#utility.yul\":9659:9662   */\n      dup3\n        /* \"#utility.yul\":9655:9667   */\n      add\n        /* \"#utility.yul\":9648:9667   */\n      swap1\n      pop\n        /* \"#utility.yul\":9307:9673   */\n      swap2\n      swap1\n      pop\n      jump\t// out\n        /* \"#utility.yul\":9679:10098   */\n    tag_139:\n        /* \"#utility.yul\":9845:9849   */\n      0x00\n        /* \"#utility.yul\":9883:9885   */\n      0x20\n        /* \"#utility.yul\":9872:9881   */\n      dup3\n        /* \"#utility.yul\":9868:9886   */\n      add\n        /* \"#utility.yul\":9860:9886   */\n      swap1\n      pop\n        /* \"#utility.yul\":9932:9941   */\n      dup2\n        /* \"#utility.yul\":9926:9930   */\n      dup2\n        /* \"#utility.yul\":9922:9942   */\n      sub\n        /* \"#utility.yul\":9918:9919   */\n      0x00\n        /* \"#utility.yul\":9907:9916   */\n      dup4\n        /* \"#utility.yul\":9903:9920   */\n      add\n        /* \"#utility.yul\":9896:9943   */\n      mstore\n        /* \"#utility.yul\":9960:10091   */\n      tag_697\n        /* \"#utility.yul\":10086:10090   */\n      dup2\n        /* \"#utility.yul\":9960:10091   */\n      tag_550\n      jump\t// in\n    tag_697:\n        /* \"#utility.yul\":9952:10091   */\n      swap1\n      pop\n        /* \"#utility.yul\":9679:10098   */\n      swap2\n      swap1\n      pop\n      jump\t// out\n        /* \"#utility.yul\":10104:10462   */\n    tag_162:\n        /* \"#utility.yul\":10238:10242   */\n      0x00\n        /* \"#utility.yul\":10276:10278   */\n      0x40\n        /* \"#utility.yul\":10265:10274   */\n      dup3\n        /* \"#utility.yul\":10261:10279   */\n      add\n        /* \"#utility.yul\":10253:10279   */\n      swap1\n      pop\n        /* \"#utility.yul\":10289:10373   */\n      tag_699\n        /* \"#utility.yul\":10370:10371   */\n      0x00\n        /* \"#utility.yul\":10359:10368   */\n      dup4\n        /* \"#utility.yul\":10355:10372   */\n      add\n        /* \"#utility.yul\":10346:10352   */\n      dup6\n        /* \"#utility.yul\":10289:10373   */\n      tag_542\n      jump\t// in\n    tag_699:\n        /* \"#utility.yul\":10383:10455   */\n      tag_700\n        /* \"#utility.yul\":10451:10453   */\n      0x20\n        /* \"#utility.yul\":10440:10449   */\n      dup4\n        /* \"#utility.yul\":10436:10454   */\n      add\n        /* \"#utility.yul\":10427:10433   */\n      dup5\n        /* \"#utility.yul\":10383:10455   */\n      tag_527\n      jump\t// in\n    tag_700:\n        /* \"#utility.yul\":10104:10462   */\n      swap4\n      swap3\n      pop\n      pop\n      pop\n      jump\t// out\n        /* \"#utility.yul\":10468:10648   */\n    tag_551:\n        /* \"#utility.yul\":10516:10593   */\n      0x4e487b7100000000000000000000000000000000000000000000000000000000\n        /* \"#utility.yul\":10513:10514   */\n      0x00\n        /* \"#utility.yul\":10506:10594   */\n      mstore\n        /* \"#utility.yul\":10613:10617   */\n      0x12\n        /* \"#utility.yul\":10610:10611   */\n      0x04\n        /* \"#utility.yul\":10603:10618   */\n      mstore\n        /* \"#utility.yul\":10637:10641   */\n      0x24\n        /* \"#utility.yul\":10634:10635   */\n      0x00\n        /* \"#utility.yul\":10627:10642   */\n      revert\n        /* \"#utility.yul\":10654:10830   */\n    tag_168:\n        /* \"#utility.yul\":10686:10687   */\n      0x00\n        /* \"#utility.yul\":10703:10723   */\n      tag_703\n        /* \"#utility.yul\":10721:10722   */\n      dup3\n        /* \"#utility.yul\":10703:10723   */\n      tag_520\n      jump\t// in\n    tag_703:\n        /* \"#utility.yul\":10698:10723   */\n      swap2\n      pop\n        /* \"#utility.yul\":10737:10757   */\n      tag_704\n        /* \"#utility.yul\":10755:10756   */\n      dup4\n        /* \"#utility.yul\":10737:10757   */\n      tag_520\n      jump\t// in\n    tag_704:\n        /* \"#utility.yul\":10732:10757   */\n      swap3\n      pop\n        /* \"#utility.yul\":10776:10777   */\n      dup3\n        /* \"#utility.yul\":10766:10801   */\n      tag_705\n      jumpi\n        /* \"#utility.yul\":10781:10799   */\n      tag_706\n      tag_551\n      jump\t// in\n    tag_706:\n        /* \"#utility.yul\":10766:10801   */\n    tag_705:\n        /* \"#utility.yul\":10822:10823   */\n      dup3\n        /* \"#utility.yul\":10819:10820   */\n      dup3\n        /* \"#utility.yul\":10815:10824   */\n      mod\n        /* \"#utility.yul\":10810:10824   */\n      swap1\n      pop\n        /* \"#utility.yul\":10654:10830   */\n      swap3\n      swap2\n      pop\n      pop\n      jump\t// out\n        /* \"#utility.yul\":10836:11006   */\n    tag_552:\n        /* \"#utility.yul\":10976:10998   */\n      0x302e3030312045544820696e6372656d656e7473000000000000000000000000\n        /* \"#utility.yul\":10972:10973   */\n      0x00\n        /* \"#utility.yul\":10964:10970   */\n      dup3\n        /* \"#utility.yul\":10960:10974   */\n      add\n        /* \"#utility.yul\":10953:10999   */\n      mstore\n        /* \"#utility.yul\":10836:11006   */\n      pop\n      jump\t// out\n        /* \"#utility.yul\":11012:11378   */\n    tag_553:\n        /* \"#utility.yul\":11154:11157   */\n      0x00\n        /* \"#utility.yul\":11175:11242   */\n      tag_709\n        /* \"#utility.yul\":11239:11241   */\n      0x14\n        /* \"#utility.yul\":11234:11237   */\n      dup4\n        /* \"#utility.yul\":11175:11242   */\n      tag_543\n      jump\t// in\n    tag_709:\n        /* \"#utility.yul\":11168:11242   */\n      swap2\n      pop\n        /* \"#utility.yul\":11251:11344   */\n      tag_710\n        /* \"#utility.yul\":11340:11343   */\n      dup3\n        /* \"#utility.yul\":11251:11344   */\n      tag_552\n      jump\t// in\n    tag_710:\n        /* \"#utility.yul\":11369:11371   */\n      0x20\n        /* \"#utility.yul\":11364:11367   */\n      dup3\n        /* \"#utility.yul\":11360:11372   */\n      add\n        /* \"#utility.yul\":11353:11372   */\n      swap1\n      pop\n        /* \"#utility.yul\":11012:11378   */\n      swap2\n      swap1\n      pop\n      jump\t// out\n        /* \"#utility.yul\":11384:11803   */\n    tag_171:\n        /* \"#utility.yul\":11550:11554   */\n      0x00\n        /* \"#utility.yul\":11588:11590   */\n      0x20\n        /* \"#utility.yul\":11577:11586   */\n      dup3\n        /* \"#utility.yul\":11573:11591   */\n      add\n        /* \"#utility.yul\":11565:11591   */\n      swap1\n      pop\n        /* \"#utility.yul\":11637:11646   */\n      dup2\n        /* \"#utility.yul\":11631:11635   */\n      dup2\n        /* \"#utility.yul\":11627:11647   */\n      sub\n        /* \"#utility.yul\":11623:11624   */\n      0x00\n        /* \"#utility.yul\":11612:11621   */\n      dup4\n        /* \"#utility.yul\":11608:11625   */\n      add\n        /* \"#utility.yul\":11601:11648   */\n      mstore\n        /* \"#utility.yul\":11665:11796   */\n      tag_712\n        /* \"#utility.yul\":11791:11795   */\n      dup2\n        /* \"#utility.yul\":11665:11796   */\n      tag_553\n      jump\t// in\n    tag_712:\n        /* \"#utility.yul\":11657:11796   */\n      swap1\n      pop\n        /* \"#utility.yul\":11384:11803   */\n      swap2\n      swap1\n      pop\n      jump\t// out\n        /* \"#utility.yul\":11809:12219   */\n    tag_173:\n        /* \"#utility.yul\":11849:11856   */\n      0x00\n        /* \"#utility.yul\":11872:11892   */\n      tag_714\n        /* \"#utility.yul\":11890:11891   */\n      dup3\n        /* \"#utility.yul\":11872:11892   */\n      tag_520\n      jump\t// in\n    tag_714:\n        /* \"#utility.yul\":11867:11892   */\n      swap2\n      pop\n        /* \"#utility.yul\":11906:11926   */\n      tag_715\n        /* \"#utility.yul\":11924:11925   */\n      dup4\n        /* \"#utility.yul\":11906:11926   */\n      tag_520\n      jump\t// in\n    tag_715:\n        /* \"#utility.yul\":11901:11926   */\n      swap3\n      pop\n        /* \"#utility.yul\":11961:11962   */\n      dup3\n        /* \"#utility.yul\":11958:11959   */\n      dup3\n        /* \"#utility.yul\":11954:11963   */\n      mul\n        /* \"#utility.yul\":11983:12013   */\n      tag_716\n        /* \"#utility.yul\":12001:12012   */\n      dup2\n        /* \"#utility.yul\":11983:12013   */\n      tag_520\n      jump\t// in\n    tag_716:\n        /* \"#utility.yul\":11972:12013   */\n      swap2\n      pop\n        /* \"#utility.yul\":12162:12163   */\n      dup3\n        /* \"#utility.yul\":12153:12160   */\n      dup3\n        /* \"#utility.yul\":12149:12164   */\n      div\n        /* \"#utility.yul\":12146:12147   */\n      dup5\n        /* \"#utility.yul\":12143:12165   */\n      eq\n        /* \"#utility.yul\":12123:12124   */\n      dup4\n        /* \"#utility.yul\":12116:12125   */\n      iszero\n        /* \"#utility.yul\":12096:12179   */\n      or\n        /* \"#utility.yul\":12073:12212   */\n      tag_717\n      jumpi\n        /* \"#utility.yul\":12192:12210   */\n      tag_718\n      tag_548\n      jump\t// in\n    tag_718:\n        /* \"#utility.yul\":12073:12212   */\n    tag_717:\n        /* \"#utility.yul\":11857:12219   */\n      pop\n        /* \"#utility.yul\":11809:12219   */\n      swap3\n      swap2\n      pop\n      pop\n      jump\t// out\n        /* \"#utility.yul\":12225:12410   */\n    tag_175:\n        /* \"#utility.yul\":12265:12266   */\n      0x00\n        /* \"#utility.yul\":12282:12302   */\n      tag_720\n        /* \"#utility.yul\":12300:12301   */\n      dup3\n        /* \"#utility.yul\":12282:12302   */\n      tag_520\n      jump\t// in\n    tag_720:\n        /* \"#utility.yul\":12277:12302   */\n      swap2\n      pop\n        /* \"#utility.yul\":12316:12336   */\n      tag_721\n        /* \"#utility.yul\":12334:12335   */\n      dup4\n        /* \"#utility.yul\":12316:12336   */\n      tag_520\n      jump\t// in\n    tag_721:\n        /* \"#utility.yul\":12311:12336   */\n      swap3\n      pop\n        /* \"#utility.yul\":12355:12356   */\n      dup3\n        /* \"#utility.yul\":12345:12380   */\n      tag_722\n      jumpi\n        /* \"#utility.yul\":12360:12378   */\n      tag_723\n      tag_551\n      jump\t// in\n    tag_723:\n        /* \"#utility.yul\":12345:12380   */\n    tag_722:\n        /* \"#utility.yul\":12402:12403   */\n      dup3\n        /* \"#utility.yul\":12399:12400   */\n      dup3\n        /* \"#utility.yul\":12395:12404   */\n      div\n        /* \"#utility.yul\":12390:12404   */\n      swap1\n      pop\n        /* \"#utility.yul\":12225:12410   */\n      swap3\n      swap2\n      pop\n      pop\n      jump\t// out\n        /* \"#utility.yul\":12416:12748   */\n    tag_182:\n        /* \"#utility.yul\":12537:12541   */\n      0x00\n        /* \"#utility.yul\":12575:12577   */\n      0x40\n        /* \"#utility.yul\":12564:12573   */\n      dup3\n        /* \"#utility.yul\":12560:12578   */\n      add\n        /* \"#utility.yul\":12552:12578   */\n      swap1\n      pop\n        /* \"#utility.yul\":12588:12659   */\n      tag_725\n        /* \"#utility.yul\":12656:12657   */\n      0x00\n        /* \"#utility.yul\":12645:12654   */\n      dup4\n        /* \"#utility.yul\":12641:12658   */\n      add\n        /* \"#utility.yul\":12632:12638   */\n      dup6\n        /* \"#utility.yul\":12588:12659   */\n      tag_530\n      jump\t// in\n    tag_725:\n        /* \"#utility.yul\":12669:12741   */\n      tag_726\n        /* \"#utility.yul\":12737:12739   */\n      0x20\n        /* \"#utility.yul\":12726:12735   */\n      dup4\n        /* \"#utility.yul\":12722:12740   */\n      add\n        /* \"#utility.yul\":12713:12719   */\n      dup5\n        /* \"#utility.yul\":12669:12741   */\n      tag_527\n      jump\t// in\n    tag_726:\n        /* \"#utility.yul\":12416:12748   */\n      swap4\n      swap3\n      pop\n      pop\n      pop\n      jump\t// out\n        /* \"#utility.yul\":12754:12906   */\n    tag_554:\n        /* \"#utility.yul\":12894:12898   */\n      0x3e30000000000000000000000000000000000000000000000000000000000000\n        /* \"#utility.yul\":12890:12891   */\n      0x00\n        /* \"#utility.yul\":12882:12888   */\n      dup3\n        /* \"#utility.yul\":12878:12892   */\n      add\n        /* \"#utility.yul\":12871:12899   */\n      mstore\n        /* \"#utility.yul\":12754:12906   */\n      pop\n      jump\t// out\n        /* \"#utility.yul\":12912:13277   */\n    tag_555:\n        /* \"#utility.yul\":13054:13057   */\n      0x00\n        /* \"#utility.yul\":13075:13141   */\n      tag_729\n        /* \"#utility.yul\":13139:13140   */\n      0x02\n        /* \"#utility.yul\":13134:13137   */\n      dup4\n        /* \"#utility.yul\":13075:13141   */\n      tag_543\n      jump\t// in\n    tag_729:\n        /* \"#utility.yul\":13068:13141   */\n      swap2\n      pop\n        /* \"#utility.yul\":13150:13243   */\n      tag_730\n        /* \"#utility.yul\":13239:13242   */\n      dup3\n        /* \"#utility.yul\":13150:13243   */\n      tag_554\n      jump\t// in\n    tag_730:\n        /* \"#utility.yul\":13268:13270   */\n      0x20\n        /* \"#utility.yul\":13263:13266   */\n      dup3\n        /* \"#utility.yul\":13259:13271   */\n      add\n        /* \"#utility.yul\":13252:13271   */\n      swap1\n      pop\n        /* \"#utility.yul\":12912:13277   */\n      swap2\n      swap1\n      pop\n      jump\t// out\n        /* \"#utility.yul\":13283:13702   */\n    tag_186:\n        /* \"#utility.yul\":13449:13453   */\n      0x00\n        /* \"#utility.yul\":13487:13489   */\n      0x20\n        /* \"#utility.yul\":13476:13485   */\n      dup3\n        /* \"#utility.yul\":13472:13490   */\n      add\n        /* \"#utility.yul\":13464:13490   */\n      swap1\n      pop\n        /* \"#utility.yul\":13536:13545   */\n      dup2\n        /* \"#utility.yul\":13530:13534   */\n      dup2\n        /* \"#utility.yul\":13526:13546   */\n      sub\n        /* \"#utility.yul\":13522:13523   */\n      0x00\n        /* \"#utility.yul\":13511:13520   */\n      dup4\n        /* \"#utility.yul\":13507:13524   */\n      add\n        /* \"#utility.yul\":13500:13547   */\n      mstore\n        /* \"#utility.yul\":13564:13695   */\n      tag_732\n        /* \"#utility.yul\":13690:13694   */\n      dup2\n        /* \"#utility.yul\":13564:13695   */\n      tag_555\n      jump\t// in\n    tag_732:\n        /* \"#utility.yul\":13556:13695   */\n      swap1\n      pop\n        /* \"#utility.yul\":13283:13702   */\n      swap2\n      swap1\n      pop\n      jump\t// out\n        /* \"#utility.yul\":13708:13880   */\n    tag_556:\n        /* \"#utility.yul\":13848:13872   */\n      0x4c656176652067616d6520746f2065786368616e676500000000000000000000\n        /* \"#utility.yul\":13844:13845   */\n      0x00\n        /* \"#utility.yul\":13836:13842   */\n      dup3\n        /* \"#utility.yul\":13832:13846   */\n      add\n        /* \"#utility.yul\":13825:13873   */\n      mstore\n        /* \"#utility.yul\":13708:13880   */\n      pop\n      jump\t// out\n        /* \"#utility.yul\":13886:14252   */\n    tag_557:\n        /* \"#utility.yul\":14028:14031   */\n      0x00\n        /* \"#utility.yul\":14049:14116   */\n      tag_735\n        /* \"#utility.yul\":14113:14115   */\n      0x16\n        /* \"#utility.yul\":14108:14111   */\n      dup4\n        /* \"#utility.yul\":14049:14116   */\n      tag_543\n      jump\t// in\n    tag_735:\n        /* \"#utility.yul\":14042:14116   */\n      swap2\n      pop\n        /* \"#utility.yul\":14125:14218   */\n      tag_736\n        /* \"#utility.yul\":14214:14217   */\n      dup3\n        /* \"#utility.yul\":14125:14218   */\n      tag_556\n      jump\t// in\n    tag_736:\n        /* \"#utility.yul\":14243:14245   */\n      0x20\n        /* \"#utility.yul\":14238:14241   */\n      dup3\n        /* \"#utility.yul\":14234:14246   */\n      add\n        /* \"#utility.yul\":14227:14246   */\n      swap1\n      pop\n        /* \"#utility.yul\":13886:14252   */\n      swap2\n      swap1\n      pop\n      jump\t// out\n        /* \"#utility.yul\":14258:14677   */\n    tag_189:\n        /* \"#utility.yul\":14424:14428   */\n      0x00\n        /* \"#utility.yul\":14462:14464   */\n      0x20\n        /* \"#utility.yul\":14451:14460   */\n      dup3\n        /* \"#utility.yul\":14447:14465   */\n      add\n        /* \"#utility.yul\":14439:14465   */\n      swap1\n      pop\n        /* \"#utility.yul\":14511:14520   */\n      dup2\n        /* \"#utility.yul\":14505:14509   */\n      dup2\n        /* \"#utility.yul\":14501:14521   */\n      sub\n        /* \"#utility.yul\":14497:14498   */\n      0x00\n        /* \"#utility.yul\":14486:14495   */\n      dup4\n        /* \"#utility.yul\":14482:14499   */\n      add\n        /* \"#utility.yul\":14475:14522   */\n      mstore\n        /* \"#utility.yul\":14539:14670   */\n      tag_738\n        /* \"#utility.yul\":14665:14669   */\n      dup2\n        /* \"#utility.yul\":14539:14670   */\n      tag_557\n      jump\t// in\n    tag_738:\n        /* \"#utility.yul\":14531:14670   */\n      swap1\n      pop\n        /* \"#utility.yul\":14258:14677   */\n      swap2\n      swap1\n      pop\n      jump\t// out\n        /* \"#utility.yul\":14683:14858   */\n    tag_558:\n        /* \"#utility.yul\":14823:14850   */\n      0x496e73756666696369656e7420636f6e74726163742045544800000000000000\n        /* \"#utility.yul\":14819:14820   */\n      0x00\n        /* \"#utility.yul\":14811:14817   */\n      dup3\n        /* \"#utility.yul\":14807:14821   */\n      add\n        /* \"#utility.yul\":14800:14851   */\n      mstore\n        /* \"#utility.yul\":14683:14858   */\n      pop\n      jump\t// out\n        /* \"#utility.yul\":14864:15230   */\n    tag_559:\n        /* \"#utility.yul\":15006:15009   */\n      0x00\n        /* \"#utility.yul\":15027:15094   */\n      tag_741\n        /* \"#utility.yul\":15091:15093   */\n      0x19\n        /* \"#utility.yul\":15086:15089   */\n      dup4\n        /* \"#utility.yul\":15027:15094   */\n      tag_543\n      jump\t// in\n    tag_741:\n        /* \"#utility.yul\":15020:15094   */\n      swap2\n      pop\n        /* \"#utility.yul\":15103:15196   */\n      tag_742\n        /* \"#utility.yul\":15192:15195   */\n      dup3\n        /* \"#utility.yul\":15103:15196   */\n      tag_558\n      jump\t// in\n    tag_742:\n        /* \"#utility.yul\":15221:15223   */\n      0x20\n        /* \"#utility.yul\":15216:15219   */\n      dup3\n        /* \"#utility.yul\":15212:15224   */\n      add\n        /* \"#utility.yul\":15205:15224   */\n      swap1\n      pop\n        /* \"#utility.yul\":14864:15230   */\n      swap2\n      swap1\n      pop\n      jump\t// out\n        /* \"#utility.yul\":15236:15655   */\n    tag_193:\n        /* \"#utility.yul\":15402:15406   */\n      0x00\n        /* \"#utility.yul\":15440:15442   */\n      0x20\n        /* \"#utility.yul\":15429:15438   */\n      dup3\n        /* \"#utility.yul\":15425:15443   */\n      add\n        /* \"#utility.yul\":15417:15443   */\n      swap1\n      pop\n        /* \"#utility.yul\":15489:15498   */\n      dup2\n        /* \"#utility.yul\":15483:15487   */\n      dup2\n        /* \"#utility.yul\":15479:15499   */\n      sub\n        /* \"#utility.yul\":15475:15476   */\n      0x00\n        /* \"#utility.yul\":15464:15473   */\n      dup4\n        /* \"#utility.yul\":15460:15477   */\n      add\n        /* \"#utility.yul\":15453:15500   */\n      mstore\n        /* \"#utility.yul\":15517:15648   */\n      tag_744\n        /* \"#utility.yul\":15643:15647   */\n      dup2\n        /* \"#utility.yul\":15517:15648   */\n      tag_559\n      jump\t// in\n    tag_744:\n        /* \"#utility.yul\":15509:15648   */\n      swap1\n      pop\n        /* \"#utility.yul\":15236:15655   */\n      swap2\n      swap1\n      pop\n      jump\t// out\n        /* \"#utility.yul\":15661:16103   */\n    tag_197:\n        /* \"#utility.yul\":15810:15814   */\n      0x00\n        /* \"#utility.yul\":15848:15850   */\n      0x60\n        /* \"#utility.yul\":15837:15846   */\n      dup3\n        /* \"#utility.yul\":15833:15851   */\n      add\n        /* \"#utility.yul\":15825:15851   */\n      swap1\n      pop\n        /* \"#utility.yul\":15861:15932   */\n      tag_746\n        /* \"#utility.yul\":15929:15930   */\n      0x00\n        /* \"#utility.yul\":15918:15927   */\n      dup4\n        /* \"#utility.yul\":15914:15931   */\n      add\n        /* \"#utility.yul\":15905:15911   */\n      dup7\n        /* \"#utility.yul\":15861:15932   */\n      tag_530\n      jump\t// in\n    tag_746:\n        /* \"#utility.yul\":15942:16014   */\n      tag_747\n        /* \"#utility.yul\":16010:16012   */\n      0x20\n        /* \"#utility.yul\":15999:16008   */\n      dup4\n        /* \"#utility.yul\":15995:16013   */\n      add\n        /* \"#utility.yul\":15986:15992   */\n      dup6\n        /* \"#utility.yul\":15942:16014   */\n      tag_527\n      jump\t// in\n    tag_747:\n        /* \"#utility.yul\":16024:16096   */\n      tag_748\n        /* \"#utility.yul\":16092:16094   */\n      0x40\n        /* \"#utility.yul\":16081:16090   */\n      dup4\n        /* \"#utility.yul\":16077:16095   */\n      add\n        /* \"#utility.yul\":16068:16074   */\n      dup5\n        /* \"#utility.yul\":16024:16096   */\n      tag_527\n      jump\t// in\n    tag_748:\n        /* \"#utility.yul\":15661:16103   */\n      swap5\n      swap4\n      pop\n      pop\n      pop\n      pop\n      jump\t// out\n        /* \"#utility.yul\":16109:16274   */\n    tag_560:\n        /* \"#utility.yul\":16249:16266   */\n      0x43616e6e6f742065786974206e6f770000000000000000000000000000000000\n        /* \"#utility.yul\":16245:16246   */\n      0x00\n        /* \"#utility.yul\":16237:16243   */\n      dup3\n        /* \"#utility.yul\":16233:16247   */\n      add\n        /* \"#utility.yul\":16226:16267   */\n      mstore\n        /* \"#utility.yul\":16109:16274   */\n      pop\n      jump\t// out\n        /* \"#utility.yul\":16280:16646   */\n    tag_561:\n        /* \"#utility.yul\":16422:16425   */\n      0x00\n        /* \"#utility.yul\":16443:16510   */\n      tag_751\n        /* \"#utility.yul\":16507:16509   */\n      0x0f\n        /* \"#utility.yul\":16502:16505   */\n      dup4\n        /* \"#utility.yul\":16443:16510   */\n      tag_543\n      jump\t// in\n    tag_751:\n        /* \"#utility.yul\":16436:16510   */\n      swap2\n      pop\n        /* \"#utility.yul\":16519:16612   */\n      tag_752\n        /* \"#utility.yul\":16608:16611   */\n      dup3\n        /* \"#utility.yul\":16519:16612   */\n      tag_560\n      jump\t// in\n    tag_752:\n        /* \"#utility.yul\":16637:16639   */\n      0x20\n        /* \"#utility.yul\":16632:16635   */\n      dup3\n        /* \"#utility.yul\":16628:16640   */\n      add\n        /* \"#utility.yul\":16621:16640   */\n      swap1\n      pop\n        /* \"#utility.yul\":16280:16646   */\n      swap2\n      swap1\n      pop\n      jump\t// out\n        /* \"#utility.yul\":16652:17071   */\n    tag_212:\n        /* \"#utility.yul\":16818:16822   */\n      0x00\n        /* \"#utility.yul\":16856:16858   */\n      0x20\n        /* \"#utility.yul\":16845:16854   */\n      dup3\n        /* \"#utility.yul\":16841:16859   */\n      add\n        /* \"#utility.yul\":16833:16859   */\n      swap1\n      pop\n        /* \"#utility.yul\":16905:16914   */\n      dup2\n        /* \"#utility.yul\":16899:16903   */\n      dup2\n        /* \"#utility.yul\":16895:16915   */\n      sub\n        /* \"#utility.yul\":16891:16892   */\n      0x00\n        /* \"#utility.yul\":16880:16889   */\n      dup4\n        /* \"#utility.yul\":16876:16893   */\n      add\n        /* \"#utility.yul\":16869:16916   */\n      mstore\n        /* \"#utility.yul\":16933:17064   */\n      tag_754\n        /* \"#utility.yul\":17059:17063   */\n      dup2\n        /* \"#utility.yul\":16933:17064   */\n      tag_561\n      jump\t// in\n    tag_754:\n        /* \"#utility.yul\":16925:17064   */\n      swap1\n      pop\n        /* \"#utility.yul\":16652:17071   */\n      swap2\n      swap1\n      pop\n      jump\t// out\n        /* \"#utility.yul\":17077:17248   */\n    tag_216:\n        /* \"#utility.yul\":17116:17119   */\n      0x00\n        /* \"#utility.yul\":17139:17163   */\n      tag_756\n        /* \"#utility.yul\":17157:17162   */\n      dup3\n        /* \"#utility.yul\":17139:17163   */\n      tag_520\n      jump\t// in\n    tag_756:\n        /* \"#utility.yul\":17130:17163   */\n      swap2\n      pop\n        /* \"#utility.yul\":17185:17189   */\n      0x00\n        /* \"#utility.yul\":17178:17183   */\n      dup3\n        /* \"#utility.yul\":17175:17190   */\n      sub\n        /* \"#utility.yul\":17172:17213   */\n      tag_757\n      jumpi\n        /* \"#utility.yul\":17193:17211   */\n      tag_758\n      tag_548\n      jump\t// in\n    tag_758:\n        /* \"#utility.yul\":17172:17213   */\n    tag_757:\n        /* \"#utility.yul\":17240:17241   */\n      0x01\n        /* \"#utility.yul\":17233:17238   */\n      dup3\n        /* \"#utility.yul\":17229:17242   */\n      sub\n        /* \"#utility.yul\":17222:17242   */\n      swap1\n      pop\n        /* \"#utility.yul\":17077:17248   */\n      swap2\n      swap1\n      pop\n      jump\t// out\n        /* \"#utility.yul\":17254:17414   */\n    tag_562:\n        /* \"#utility.yul\":17394:17406   */\n      0x4e6f742061637469766500000000000000000000000000000000000000000000\n        /* \"#utility.yul\":17390:17391   */\n      0x00\n        /* \"#utility.yul\":17382:17388   */\n      dup3\n        /* \"#utility.yul\":17378:17392   */\n      add\n        /* \"#utility.yul\":17371:17407   */\n      mstore\n        /* \"#utility.yul\":17254:17414   */\n      pop\n      jump\t// out\n        /* \"#utility.yul\":17420:17786   */\n    tag_563:\n        /* \"#utility.yul\":17562:17565   */\n      0x00\n        /* \"#utility.yul\":17583:17650   */\n      tag_761\n        /* \"#utility.yul\":17647:17649   */\n      0x0a\n        /* \"#utility.yul\":17642:17645   */\n      dup4\n        /* \"#utility.yul\":17583:17650   */\n      tag_543\n      jump\t// in\n    tag_761:\n        /* \"#utility.yul\":17576:17650   */\n      swap2\n      pop\n        /* \"#utility.yul\":17659:17752   */\n      tag_762\n        /* \"#utility.yul\":17748:17751   */\n      dup3\n        /* \"#utility.yul\":17659:17752   */\n      tag_562\n      jump\t// in\n    tag_762:\n        /* \"#utility.yul\":17777:17779   */\n      0x20\n        /* \"#utility.yul\":17772:17775   */\n      dup3\n        /* \"#utility.yul\":17768:17780   */\n      add\n        /* \"#utility.yul\":17761:17780   */\n      swap1\n      pop\n        /* \"#utility.yul\":17420:17786   */\n      swap2\n      swap1\n      pop\n      jump\t// out\n        /* \"#utility.yul\":17792:18211   */\n    tag_234:\n        /* \"#utility.yul\":17958:17962   */\n      0x00\n        /* \"#utility.yul\":17996:17998   */\n      0x20\n        /* \"#utility.yul\":17985:17994   */\n      dup3\n        /* \"#utility.yul\":17981:17999   */\n      add\n        /* \"#utility.yul\":17973:17999   */\n      swap1\n      pop\n        /* \"#utility.yul\":18045:18054   */\n      dup2\n        /* \"#utility.yul\":18039:18043   */\n      dup2\n        /* \"#utility.yul\":18035:18055   */\n      sub\n        /* \"#utility.yul\":18031:18032   */\n      0x00\n        /* \"#utility.yul\":18020:18029   */\n      dup4\n        /* \"#utility.yul\":18016:18033   */\n      add\n        /* \"#utility.yul\":18009:18056   */\n      mstore\n        /* \"#utility.yul\":18073:18204   */\n      tag_764\n        /* \"#utility.yul\":18199:18203   */\n      dup2\n        /* \"#utility.yul\":18073:18204   */\n      tag_563\n      jump\t// in\n    tag_764:\n        /* \"#utility.yul\":18065:18204   */\n      swap1\n      pop\n        /* \"#utility.yul\":17792:18211   */\n      swap2\n      swap1\n      pop\n      jump\t// out\n        /* \"#utility.yul\":18217:18378   */\n    tag_564:\n        /* \"#utility.yul\":18357:18370   */\n      0x496e76616c696420626574000000000000000000000000000000000000000000\n        /* \"#utility.yul\":18353:18354   */\n      0x00\n        /* \"#utility.yul\":18345:18351   */\n      dup3\n        /* \"#utility.yul\":18341:18355   */\n      add\n        /* \"#utility.yul\":18334:18371   */\n      mstore\n        /* \"#utility.yul\":18217:18378   */\n      pop\n      jump\t// out\n        /* \"#utility.yul\":18384:18750   */\n    tag_565:\n        /* \"#utility.yul\":18526:18529   */\n      0x00\n        /* \"#utility.yul\":18547:18614   */\n      tag_767\n        /* \"#utility.yul\":18611:18613   */\n      0x0b\n        /* \"#utility.yul\":18606:18609   */\n      dup4\n        /* \"#utility.yul\":18547:18614   */\n      tag_543\n      jump\t// in\n    tag_767:\n        /* \"#utility.yul\":18540:18614   */\n      swap2\n      pop\n        /* \"#utility.yul\":18623:18716   */\n      tag_768\n        /* \"#utility.yul\":18712:18715   */\n      dup3\n        /* \"#utility.yul\":18623:18716   */\n      tag_564\n      jump\t// in\n    tag_768:\n        /* \"#utility.yul\":18741:18743   */\n      0x20\n        /* \"#utility.yul\":18736:18739   */\n      dup3\n        /* \"#utility.yul\":18732:18744   */\n      add\n        /* \"#utility.yul\":18725:18744   */\n      swap1\n      pop\n        /* \"#utility.yul\":18384:18750   */\n      swap2\n      swap1\n      pop\n      jump\t// out\n        /* \"#utility.yul\":18756:19175   */\n    tag_238:\n        /* \"#utility.yul\":18922:18926   */\n      0x00\n        /* \"#utility.yul\":18960:18962   */\n      0x20\n        /* \"#utility.yul\":18949:18958   */\n      dup3\n        /* \"#utility.yul\":18945:18963   */\n      add\n        /* \"#utility.yul\":18937:18963   */\n      swap1\n      pop\n        /* \"#utility.yul\":19009:19018   */\n      dup2\n        /* \"#utility.yul\":19003:19007   */\n      dup2\n        /* \"#utility.yul\":18999:19019   */\n      sub\n        /* \"#utility.yul\":18995:18996   */\n      0x00\n        /* \"#utility.yul\":18984:18993   */\n      dup4\n        /* \"#utility.yul\":18980:18997   */\n      add\n        /* \"#utility.yul\":18973:19020   */\n      mstore\n        /* \"#utility.yul\":19037:19168   */\n      tag_770\n        /* \"#utility.yul\":19163:19167   */\n      dup2\n        /* \"#utility.yul\":19037:19168   */\n      tag_565\n      jump\t// in\n    tag_770:\n        /* \"#utility.yul\":19029:19168   */\n      swap1\n      pop\n        /* \"#utility.yul\":18756:19175   */\n      swap2\n      swap1\n      pop\n      jump\t// out\n        /* \"#utility.yul\":19181:19344   */\n    tag_566:\n        /* \"#utility.yul\":19321:19336   */\n      0x416c726561647920616374656400000000000000000000000000000000000000\n        /* \"#utility.yul\":19317:19318   */\n      0x00\n        /* \"#utility.yul\":19309:19315   */\n      dup3\n        /* \"#utility.yul\":19305:19319   */\n      add\n        /* \"#utility.yul\":19298:19337   */\n      mstore\n        /* \"#utility.yul\":19181:19344   */\n      pop\n      jump\t// out\n        /* \"#utility.yul\":19350:19716   */\n    tag_567:\n        /* \"#utility.yul\":19492:19495   */\n      0x00\n        /* \"#utility.yul\":19513:19580   */\n      tag_773\n        /* \"#utility.yul\":19577:19579   */\n      0x0d\n        /* \"#utility.yul\":19572:19575   */\n      dup4\n        /* \"#utility.yul\":19513:19580   */\n      tag_543\n      jump\t// in\n    tag_773:\n        /* \"#utility.yul\":19506:19580   */\n      swap2\n      pop\n        /* \"#utility.yul\":19589:19682   */\n      tag_774\n        /* \"#utility.yul\":19678:19681   */\n      dup3\n        /* \"#utility.yul\":19589:19682   */\n      tag_566\n      jump\t// in\n    tag_774:\n        /* \"#utility.yul\":19707:19709   */\n      0x20\n        /* \"#utility.yul\":19702:19705   */\n      dup3\n        /* \"#utility.yul\":19698:19710   */\n      add\n        /* \"#utility.yul\":19691:19710   */\n      swap1\n      pop\n        /* \"#utility.yul\":19350:19716   */\n      swap2\n      swap1\n      pop\n      jump\t// out\n        /* \"#utility.yul\":19722:20141   */\n    tag_245:\n        /* \"#utility.yul\":19888:19892   */\n      0x00\n        /* \"#utility.yul\":19926:19928   */\n      0x20\n        /* \"#utility.yul\":19915:19924   */\n      dup3\n        /* \"#utility.yul\":19911:19929   */\n      add\n        /* \"#utility.yul\":19903:19929   */\n      swap1\n      pop\n        /* \"#utility.yul\":19975:19984   */\n      dup2\n        /* \"#utility.yul\":19969:19973   */\n      dup2\n        /* \"#utility.yul\":19965:19985   */\n      sub\n        /* \"#utility.yul\":19961:19962   */\n      0x00\n        /* \"#utility.yul\":19950:19959   */\n      dup4\n        /* \"#utility.yul\":19946:19963   */\n      add\n        /* \"#utility.yul\":19939:19986   */\n      mstore\n        /* \"#utility.yul\":20003:20134   */\n      tag_776\n        /* \"#utility.yul\":20129:20133   */\n      dup2\n        /* \"#utility.yul\":20003:20134   */\n      tag_567\n      jump\t// in\n    tag_776:\n        /* \"#utility.yul\":19995:20134   */\n      swap1\n      pop\n        /* \"#utility.yul\":19722:20141   */\n      swap2\n      swap1\n      pop\n      jump\t// out\n        /* \"#utility.yul\":20147:20312   */\n    tag_568:\n        /* \"#utility.yul\":20287:20304   */\n      0x4e6f7468696e6720746f2063616c6c0000000000000000000000000000000000\n        /* \"#utility.yul\":20283:20284   */\n      0x00\n        /* \"#utility.yul\":20275:20281   */\n      dup3\n        /* \"#utility.yul\":20271:20285   */\n      add\n        /* \"#utility.yul\":20264:20305   */\n      mstore\n        /* \"#utility.yul\":20147:20312   */\n      pop\n      jump\t// out\n        /* \"#utility.yul\":20318:20684   */\n    tag_569:\n        /* \"#utility.yul\":20460:20463   */\n      0x00\n        /* \"#utility.yul\":20481:20548   */\n      tag_779\n        /* \"#utility.yul\":20545:20547   */\n      0x0f\n        /* \"#utility.yul\":20540:20543   */\n      dup4\n        /* \"#utility.yul\":20481:20548   */\n      tag_543\n      jump\t// in\n    tag_779:\n        /* \"#utility.yul\":20474:20548   */\n      swap2\n      pop\n        /* \"#utility.yul\":20557:20650   */\n      tag_780\n        /* \"#utility.yul\":20646:20649   */\n      dup3\n        /* \"#utility.yul\":20557:20650   */\n      tag_568\n      jump\t// in\n    tag_780:\n        /* \"#utility.yul\":20675:20677   */\n      0x20\n        /* \"#utility.yul\":20670:20673   */\n      dup3\n        /* \"#utility.yul\":20666:20678   */\n      add\n        /* \"#utility.yul\":20659:20678   */\n      swap1\n      pop\n        /* \"#utility.yul\":20318:20684   */\n      swap2\n      swap1\n      pop\n      jump\t// out\n        /* \"#utility.yul\":20690:21109   */\n    tag_272:\n        /* \"#utility.yul\":20856:20860   */\n      0x00\n        /* \"#utility.yul\":20894:20896   */\n      0x20\n        /* \"#utility.yul\":20883:20892   */\n      dup3\n        /* \"#utility.yul\":20879:20897   */\n      add\n        /* \"#utility.yul\":20871:20897   */\n      swap1\n      pop\n        /* \"#utility.yul\":20943:20952   */\n      dup2\n        /* \"#utility.yul\":20937:20941   */\n      dup2\n        /* \"#utility.yul\":20933:20953   */\n      sub\n        /* \"#utility.yul\":20929:20930   */\n      0x00\n        /* \"#utility.yul\":20918:20927   */\n      dup4\n        /* \"#utility.yul\":20914:20931   */\n      add\n        /* \"#utility.yul\":20907:20954   */\n      mstore\n        /* \"#utility.yul\":20971:21102   */\n      tag_782\n        /* \"#utility.yul\":21097:21101   */\n      dup2\n        /* \"#utility.yul\":20971:21102   */\n      tag_569\n      jump\t// in\n    tag_782:\n        /* \"#utility.yul\":20963:21102   */\n      swap1\n      pop\n        /* \"#utility.yul\":20690:21109   */\n      swap2\n      swap1\n      pop\n      jump\t// out\n        /* \"#utility.yul\":21115:21280   */\n    tag_570:\n        /* \"#utility.yul\":21255:21272   */\n      0x416c726561647920696e2067616d650000000000000000000000000000000000\n        /* \"#utility.yul\":21251:21252   */\n      0x00\n        /* \"#utility.yul\":21243:21249   */\n      dup3\n        /* \"#utility.yul\":21239:21253   */\n      add\n        /* \"#utility.yul\":21232:21273   */\n      mstore\n        /* \"#utility.yul\":21115:21280   */\n      pop\n      jump\t// out\n        /* \"#utility.yul\":21286:21652   */\n    tag_571:\n        /* \"#utility.yul\":21428:21431   */\n      0x00\n        /* \"#utility.yul\":21449:21516   */\n      tag_785\n        /* \"#utility.yul\":21513:21515   */\n      0x0f\n        /* \"#utility.yul\":21508:21511   */\n      dup4\n        /* \"#utility.yul\":21449:21516   */\n      tag_543\n      jump\t// in\n    tag_785:\n        /* \"#utility.yul\":21442:21516   */\n      swap2\n      pop\n        /* \"#utility.yul\":21525:21618   */\n      tag_786\n        /* \"#utility.yul\":21614:21617   */\n      dup3\n        /* \"#utility.yul\":21525:21618   */\n      tag_570\n      jump\t// in\n    tag_786:\n        /* \"#utility.yul\":21643:21645   */\n      0x20\n        /* \"#utility.yul\":21638:21641   */\n      dup3\n        /* \"#utility.yul\":21634:21646   */\n      add\n        /* \"#utility.yul\":21627:21646   */\n      swap1\n      pop\n        /* \"#utility.yul\":21286:21652   */\n      swap2\n      swap1\n      pop\n      jump\t// out\n        /* \"#utility.yul\":21658:22077   */\n    tag_300:\n        /* \"#utility.yul\":21824:21828   */\n      0x00\n        /* \"#utility.yul\":21862:21864   */\n      0x20\n        /* \"#utility.yul\":21851:21860   */\n      dup3\n        /* \"#utility.yul\":21847:21865   */\n      add\n        /* \"#utility.yul\":21839:21865   */\n      swap1\n      pop\n        /* \"#utility.yul\":21911:21920   */\n      dup2\n        /* \"#utility.yul\":21905:21909   */\n      dup2\n        /* \"#utility.yul\":21901:21921   */\n      sub\n        /* \"#utility.yul\":21897:21898   */\n      0x00\n        /* \"#utility.yul\":21886:21895   */\n      dup4\n        /* \"#utility.yul\":21882:21899   */\n      add\n        /* \"#utility.yul\":21875:21922   */\n      mstore\n        /* \"#utility.yul\":21939:22070   */\n      tag_788\n        /* \"#utility.yul\":22065:22069   */\n      dup2\n        /* \"#utility.yul\":21939:22070   */\n      tag_571\n      jump\t// in\n    tag_788:\n        /* \"#utility.yul\":21931:22070   */\n      swap1\n      pop\n        /* \"#utility.yul\":21658:22077   */\n      swap2\n      swap1\n      pop\n      jump\t// out\n        /* \"#utility.yul\":22083:22255   */\n    tag_572:\n        /* \"#utility.yul\":22223:22247   */\n      0x53656e6420302e3030312045544820746f206a6f696e00000000000000000000\n        /* \"#utility.yul\":22219:22220   */\n      0x00\n        /* \"#utility.yul\":22211:22217   */\n      dup3\n        /* \"#utility.yul\":22207:22221   */\n      add\n        /* \"#utility.yul\":22200:22248   */\n      mstore\n        /* \"#utility.yul\":22083:22255   */\n      pop\n      jump\t// out\n        /* \"#utility.yul\":22261:22627   */\n    tag_573:\n        /* \"#utility.yul\":22403:22406   */\n      0x00\n        /* \"#utility.yul\":22424:22491   */\n      tag_791\n        /* \"#utility.yul\":22488:22490   */\n      0x16\n        /* \"#utility.yul\":22483:22486   */\n      dup4\n        /* \"#utility.yul\":22424:22491   */\n      tag_543\n      jump\t// in\n    tag_791:\n        /* \"#utility.yul\":22417:22491   */\n      swap2\n      pop\n        /* \"#utility.yul\":22500:22593   */\n      tag_792\n        /* \"#utility.yul\":22589:22592   */\n      dup3\n        /* \"#utility.yul\":22500:22593   */\n      tag_572\n      jump\t// in\n    tag_792:\n        /* \"#utility.yul\":22618:22620   */\n      0x20\n        /* \"#utility.yul\":22613:22616   */\n      dup3\n        /* \"#utility.yul\":22609:22621   */\n      add\n        /* \"#utility.yul\":22602:22621   */\n      swap1\n      pop\n        /* \"#utility.yul\":22261:22627   */\n      swap2\n      swap1\n      pop\n      jump\t// out\n        /* \"#utility.yul\":22633:23052   */\n    tag_303:\n        /* \"#utility.yul\":22799:22803   */\n      0x00\n        /* \"#utility.yul\":22837:22839   */\n      0x20\n        /* \"#utility.yul\":22826:22835   */\n      dup3\n        /* \"#utility.yul\":22822:22840   */\n      add\n        /* \"#utility.yul\":22814:22840   */\n      swap1\n      pop\n        /* \"#utility.yul\":22886:22895   */\n      dup2\n        /* \"#utility.yul\":22880:22884   */\n      dup2\n        /* \"#utility.yul\":22876:22896   */\n      sub\n        /* \"#utility.yul\":22872:22873   */\n      0x00\n        /* \"#utility.yul\":22861:22870   */\n      dup4\n        /* \"#utility.yul\":22857:22874   */\n      add\n        /* \"#utility.yul\":22850:22897   */\n      mstore\n        /* \"#utility.yul\":22914:23045   */\n      tag_794\n        /* \"#utility.yul\":23040:23044   */\n      dup2\n        /* \"#utility.yul\":22914:23045   */\n      tag_573\n      jump\t// in\n    tag_794:\n        /* \"#utility.yul\":22906:23045   */\n      swap1\n      pop\n        /* \"#utility.yul\":22633:23052   */\n      swap2\n      swap1\n      pop\n      jump\t// out\n        /* \"#utility.yul\":23058:23221   */\n    tag_574:\n        /* \"#utility.yul\":23198:23213   */\n      0x4d6178203620706c617965727300000000000000000000000000000000000000\n        /* \"#utility.yul\":23194:23195   */\n      0x00\n        /* \"#utility.yul\":23186:23192   */\n      dup3\n        /* \"#utility.yul\":23182:23196   */\n      add\n        /* \"#utility.yul\":23175:23214   */\n      mstore\n        /* \"#utility.yul\":23058:23221   */\n      pop\n      jump\t// out\n        /* \"#utility.yul\":23227:23593   */\n    tag_575:\n        /* \"#utility.yul\":23369:23372   */\n      0x00\n        /* \"#utility.yul\":23390:23457   */\n      tag_797\n        /* \"#utility.yul\":23454:23456   */\n      0x0d\n        /* \"#utility.yul\":23449:23452   */\n      dup4\n        /* \"#utility.yul\":23390:23457   */\n      tag_543\n      jump\t// in\n    tag_797:\n        /* \"#utility.yul\":23383:23457   */\n      swap2\n      pop\n        /* \"#utility.yul\":23466:23559   */\n      tag_798\n        /* \"#utility.yul\":23555:23558   */\n      dup3\n        /* \"#utility.yul\":23466:23559   */\n      tag_574\n      jump\t// in\n    tag_798:\n        /* \"#utility.yul\":23584:23586   */\n      0x20\n        /* \"#utility.yul\":23579:23582   */\n      dup3\n        /* \"#utility.yul\":23575:23587   */\n      add\n        /* \"#utility.yul\":23568:23587   */\n      swap1\n      pop\n        /* \"#utility.yul\":23227:23593   */\n      swap2\n      swap1\n      pop\n      jump\t// out\n        /* \"#utility.yul\":23599:24018   */\n    tag_306:\n        /* \"#utility.yul\":23765:23769   */\n      0x00\n        /* \"#utility.yul\":23803:23805   */\n      0x20\n        /* \"#utility.yul\":23792:23801   */\n      dup3\n        /* \"#utility.yul\":23788:23806   */\n      add\n        /* \"#utility.yul\":23780:23806   */\n      swap1\n      pop\n        /* \"#utility.yul\":23852:23861   */\n      dup2\n        /* \"#utility.yul\":23846:23850   */\n      dup2\n        /* \"#utility.yul\":23842:23862   */\n      sub\n        /* \"#utility.yul\":23838:23839   */\n      0x00\n        /* \"#utility.yul\":23827:23836   */\n      dup4\n        /* \"#utility.yul\":23823:23840   */\n      add\n        /* \"#utility.yul\":23816:23863   */\n      mstore\n        /* \"#utility.yul\":23880:24011   */\n      tag_800\n        /* \"#utility.yul\":24006:24010   */\n      dup2\n        /* \"#utility.yul\":23880:24011   */\n      tag_575\n      jump\t// in\n    tag_800:\n        /* \"#utility.yul\":23872:24011   */\n      swap1\n      pop\n        /* \"#utility.yul\":23599:24018   */\n      swap2\n      swap1\n      pop\n      jump\t// out\n        /* \"#utility.yul\":24024:24257   */\n    tag_314:\n        /* \"#utility.yul\":24063:24066   */\n      0x00\n        /* \"#utility.yul\":24086:24110   */\n      tag_802\n        /* \"#utility.yul\":24104:24109   */\n      dup3\n        /* \"#utility.yul\":24086:24110   */\n      tag_520\n      jump\t// in\n    tag_802:\n        /* \"#utility.yul\":24077:24110   */\n      swap2\n      pop\n        /* \"#utility.yul\":24132:24198   */\n      0xffffffffffffffffffffffffffffffffffffffffffffffffffffffffffffffff\n        /* \"#utility.yul\":24125:24130   */\n      dup3\n        /* \"#utility.yul\":24122:24199   */\n      sub\n        /* \"#utility.yul\":24119:24222   */\n      tag_803\n      jumpi\n        /* \"#utility.yul\":24202:24220   */\n      tag_804\n      tag_548\n      jump\t// in\n    tag_804:\n        /* \"#utility.yul\":24119:24222   */\n    tag_803:\n        /* \"#utility.yul\":24249:24250   */\n      0x01\n        /* \"#utility.yul\":24242:24247   */\n      dup3\n        /* \"#utility.yul\":24238:24251   */\n      add\n        /* \"#utility.yul\":24231:24251   */\n      swap1\n      pop\n        /* \"#utility.yul\":24024:24257   */\n      swap2\n      swap1\n      pop\n      jump\t// out\n        /* \"#utility.yul\":24263:24423   */\n    tag_576:\n        /* \"#utility.yul\":24403:24415   */\n      0x4f6e6c79206f776e657200000000000000000000000000000000000000000000\n        /* \"#utility.yul\":24399:24400   */\n      0x00\n        /* \"#utility.yul\":24391:24397   */\n      dup3\n        /* \"#utility.yul\":24387:24401   */\n      add\n        /* \"#utility.yul\":24380:24416   */\n      mstore\n        /* \"#utility.yul\":24263:24423   */\n      pop\n      jump\t// out\n        /* \"#utility.yul\":24429:24795   */\n    tag_577:\n        /* \"#utility.yul\":24571:24574   */\n      0x00\n        /* \"#utility.yul\":24592:24659   */\n      tag_807\n        /* \"#utility.yul\":24656:24658   */\n      0x0a\n        /* \"#utility.yul\":24651:24654   */\n      dup4\n        /* \"#utility.yul\":24592:24659   */\n      tag_543\n      jump\t// in\n    tag_807:\n        /* \"#utility.yul\":24585:24659   */\n      swap2\n      pop\n        /* \"#utility.yul\":24668:24761   */\n      tag_808\n        /* \"#utility.yul\":24757:24760   */\n      dup3\n        /* \"#utility.yul\":24668:24761   */\n      tag_576\n      jump\t// in\n    tag_808:\n        /* \"#utility.yul\":24786:24788   */\n      0x20\n        /* \"#utility.yul\":24781:24784   */\n      dup3\n        /* \"#utility.yul\":24777:24789   */\n      add\n        /* \"#utility.yul\":24770:24789   */\n      swap1\n      pop\n        /* \"#utility.yul\":24429:24795   */\n      swap2\n      swap1\n      pop\n      jump\t// out\n        /* \"#utility.yul\":24801:25220   */\n    tag_318:\n        /* \"#utility.yul\":24967:24971   */\n      0x00\n        /* \"#utility.yul\":25005:25007   */\n      0x20\n        /* \"#utility.yul\":24994:25003   */\n      dup3\n        /* \"#utility.yul\":24990:25008   */\n      add\n        /* \"#utility.yul\":24982:25008   */\n      swap1\n      pop\n        /* \"#utility.yul\":25054:25063   */\n      dup2\n        /* \"#utility.yul\":25048:25052   */\n      dup2\n        /* \"#utility.yul\":25044:25064   */\n      sub\n        /* \"#utility.yul\":25040:25041   */\n      0x00\n        /* \"#utility.yul\":25029:25038   */\n      dup4\n        /* \"#utility.yul\":25025:25042   */\n      add\n        /* \"#utility.yul\":25018:25065   */\n      mstore\n        /* \"#utility.yul\":25082:25213   */\n      tag_810\n        /* \"#utility.yul\":25208:25212   */\n      dup2\n        /* \"#utility.yul\":25082:25213   */\n      tag_577\n      jump\t// in\n    tag_810:\n        /* \"#utility.yul\":25074:25213   */\n      swap1\n      pop\n        /* \"#utility.yul\":24801:25220   */\n      swap2\n      swap1\n      pop\n      jump\t// out\n        /* \"#utility.yul\":25226:25384   */\n    tag_578:\n        /* \"#utility.yul\":25366:25376   */\n      0x4e656564203e3d32000000000000000000000000000000000000000000000000\n        /* \"#utility.yul\":25362:25363   */\n      0x00\n        /* \"#utility.yul\":25354:25360   */\n      dup3\n        /* \"#utility.yul\":25350:25364   */\n      add\n        /* \"#utility.yul\":25343:25377   */\n      mstore\n        /* \"#utility.yul\":25226:25384   */\n      pop\n      jump\t// out\n        /* \"#utility.yul\":25390:25755   */\n    tag_579:\n        /* \"#utility.yul\":25532:25535   */\n      0x00\n        /* \"#utility.yul\":25553:25619   */\n      tag_813\n        /* \"#utility.yul\":25617:25618   */\n      0x08\n        /* \"#utility.yul\":25612:25615   */\n      dup4\n        /* \"#utility.yul\":25553:25619   */\n      tag_543\n      jump\t// in\n    tag_813:\n        /* \"#utility.yul\":25546:25619   */\n      swap2\n      pop\n        /* \"#utility.yul\":25628:25721   */\n      tag_814\n        /* \"#utility.yul\":25717:25720   */\n      dup3\n        /* \"#utility.yul\":25628:25721   */\n      tag_578\n      jump\t// in\n    tag_814:\n        /* \"#utility.yul\":25746:25748   */\n      0x20\n        /* \"#utility.yul\":25741:25744   */\n      dup3\n        /* \"#utility.yul\":25737:25749   */\n      add\n        /* \"#utility.yul\":25730:25749   */\n      swap1\n      pop\n        /* \"#utility.yul\":25390:25755   */\n      swap2\n      swap1\n      pop\n      jump\t// out\n        /* \"#utility.yul\":25761:26180   */\n    tag_329:\n        /* \"#utility.yul\":25927:25931   */\n      0x00\n        /* \"#utility.yul\":25965:25967   */\n      0x20\n        /* \"#utility.yul\":25954:25963   */\n      dup3\n        /* \"#utility.yul\":25950:25968   */\n      add\n        /* \"#utility.yul\":25942:25968   */\n      swap1\n      pop\n        /* \"#utility.yul\":26014:26023   */\n      dup2\n        /* \"#utility.yul\":26008:26012   */\n      dup2\n        /* \"#utility.yul\":26004:26024   */\n      sub\n        /* \"#utility.yul\":26000:26001   */\n      0x00\n        /* \"#utility.yul\":25989:25998   */\n      dup4\n        /* \"#utility.yul\":25985:26002   */\n      add\n        /* \"#utility.yul\":25978:26025   */\n      mstore\n        /* \"#utility.yul\":26042:26173   */\n      tag_816\n        /* \"#utility.yul\":26168:26172   */\n      dup2\n        /* \"#utility.yul\":26042:26173   */\n      tag_579\n      jump\t// in\n    tag_816:\n        /* \"#utility.yul\":26034:26173   */\n      swap1\n      pop\n        /* \"#utility.yul\":25761:26180   */\n      swap2\n      swap1\n      pop\n      jump\t// out\n        /* \"#utility.yul\":26186:26265   */\n    tag_580:\n        /* \"#utility.yul\":26225:26232   */\n      0x00\n        /* \"#utility.yul\":26254:26259   */\n      dup2\n        /* \"#utility.yul\":26243:26259   */\n      swap1\n      pop\n        /* \"#utility.yul\":26186:26265   */\n      swap2\n      swap1\n      pop\n      jump\t// out\n        /* \"#utility.yul\":26271:26428   */\n    tag_581:\n        /* \"#utility.yul\":26376:26421   */\n      tag_819\n        /* \"#utility.yul\":26396:26420   */\n      tag_820\n        /* \"#utility.yul\":26414:26419   */\n      dup3\n        /* \"#utility.yul\":26396:26420   */\n      tag_520\n      jump\t// in\n    tag_820:\n        /* \"#utility.yul\":26376:26421   */\n      tag_580\n      jump\t// in\n    tag_819:\n        /* \"#utility.yul\":26371:26374   */\n      dup3\n        /* \"#utility.yul\":26364:26422   */\n      mstore\n        /* \"#utility.yul\":26271:26428   */\n      pop\n      pop\n      jump\t// out\n        /* \"#utility.yul\":26434:26972   */\n    tag_349:\n        /* \"#utility.yul\":26602:26605   */\n      0x00\n        /* \"#utility.yul\":26617:26692   */\n      tag_822\n        /* \"#utility.yul\":26688:26691   */\n      dup3\n        /* \"#utility.yul\":26679:26685   */\n      dup7\n        /* \"#utility.yul\":26617:26692   */\n      tag_581\n      jump\t// in\n    tag_822:\n        /* \"#utility.yul\":26717:26719   */\n      0x20\n        /* \"#utility.yul\":26712:26715   */\n      dup3\n        /* \"#utility.yul\":26708:26720   */\n      add\n        /* \"#utility.yul\":26701:26720   */\n      swap2\n      pop\n        /* \"#utility.yul\":26730:26805   */\n      tag_823\n        /* \"#utility.yul\":26801:26804   */\n      dup3\n        /* \"#utility.yul\":26792:26798   */\n      dup6\n        /* \"#utility.yul\":26730:26805   */\n      tag_581\n      jump\t// in\n    tag_823:\n        /* \"#utility.yul\":26830:26832   */\n      0x20\n        /* \"#utility.yul\":26825:26828   */\n      dup3\n        /* \"#utility.yul\":26821:26833   */\n      add\n        /* \"#utility.yul\":26814:26833   */\n      swap2\n      pop\n        /* \"#utility.yul\":26843:26918   */\n      tag_824\n        /* \"#utility.yul\":26914:26917   */\n      dup3\n        /* \"#utility.yul\":26905:26911   */\n      dup5\n        /* \"#utility.yul\":26843:26918   */\n      tag_581\n      jump\t// in\n    tag_824:\n        /* \"#utility.yul\":26943:26945   */\n      0x20\n        /* \"#utility.yul\":26938:26941   */\n      dup3\n        /* \"#utility.yul\":26934:26946   */\n      add\n        /* \"#utility.yul\":26927:26946   */\n      swap2\n      pop\n        /* \"#utility.yul\":26963:26966   */\n      dup2\n        /* \"#utility.yul\":26956:26966   */\n      swap1\n      pop\n        /* \"#utility.yul\":26434:26972   */\n      swap5\n      swap4\n      pop\n      pop\n      pop\n      pop\n      jump\t// out\n        /* \"#utility.yul\":26978:27220   */\n    tag_365:\n        /* \"#utility.yul\":27081:27085   */\n      0x00\n        /* \"#utility.yul\":27119:27121   */\n      0x20\n        /* \"#utility.yul\":27108:27117   */\n      dup3\n        /* \"#utility.yul\":27104:27122   */\n      add\n        /* \"#utility.yul\":27096:27122   */\n      swap1\n      pop\n        /* \"#utility.yul\":27132:27213   */\n      tag_826\n        /* \"#utility.yul\":27210:27211   */\n      0x00\n        /* \"#utility.yul\":27199:27208   */\n      dup4\n        /* \"#utility.yul\":27195:27212   */\n      add\n        /* \"#utility.yul\":27186:27192   */\n      dup5\n        /* \"#utility.yul\":27132:27213   */\n      tag_538\n      jump\t// in\n    tag_826:\n        /* \"#utility.yul\":26978:27220   */\n      swap3\n      swap2\n      pop\n      pop\n      jump\t// out\n        /* \"#utility.yul\":27226:27311   */\n    tag_582:\n        /* \"#utility.yul\":27271:27278   */\n      0x00\n        /* \"#utility.yul\":27300:27305   */\n      dup2\n        /* \"#utility.yul\":27289:27305   */\n      swap1\n      pop\n        /* \"#utility.yul\":27226:27311   */\n      swap2\n      swap1\n      pop\n      jump\t// out\n        /* \"#utility.yul\":27317:27377   */\n    tag_583:\n        /* \"#utility.yul\":27345:27348   */\n      0x00\n        /* \"#utility.yul\":27366:27371   */\n      dup2\n        /* \"#utility.yul\":27359:27371   */\n      swap1\n      pop\n        /* \"#utility.yul\":27317:27377   */\n      swap2\n      swap1\n      pop\n      jump\t// out\n        /* \"#utility.yul\":27383:27541   */\n    tag_584:\n        /* \"#utility.yul\":27441:27450   */\n      0x00\n        /* \"#utility.yul\":27474:27535   */\n      tag_830\n        /* \"#utility.yul\":27492:27534   */\n      tag_831\n        /* \"#utility.yul\":27501:27533   */\n      tag_832\n        /* \"#utility.yul\":27527:27532   */\n      dup5\n        /* \"#utility.yul\":27501:27533   */\n      tag_582\n      jump\t// in\n    tag_832:\n        /* \"#utility.yul\":27492:27534   */\n      tag_583\n      jump\t// in\n    tag_831:\n        /* \"#utility.yul\":27474:27535   */\n      tag_520\n      jump\t// in\n    tag_830:\n        /* \"#utility.yul\":27461:27535   */\n      swap1\n      pop\n        /* \"#utility.yul\":27383:27541   */\n      swap2\n      swap1\n      pop\n      jump\t// out\n        /* \"#utility.yul\":27547:27694   */\n    tag_585:\n        /* \"#utility.yul\":27642:27687   */\n      tag_834\n        /* \"#utility.yul\":27681:27686   */\n      dup2\n        /* \"#utility.yul\":27642:27687   */\n      tag_584\n      jump\t// in\n    tag_834:\n        /* \"#utility.yul\":27637:27640   */\n      dup3\n        /* \"#utility.yul\":27630:27688   */\n      mstore\n        /* \"#utility.yul\":27547:27694   */\n      pop\n      pop\n      jump\t// out\n        /* \"#utility.yul\":27700:28074   */\n    tag_396:\n        /* \"#utility.yul\":27842:27846   */\n      0x00\n        /* \"#utility.yul\":27880:27882   */\n      0x40\n        /* \"#utility.yul\":27869:27878   */\n      dup3\n        /* \"#utility.yul\":27865:27883   */\n      add\n        /* \"#utility.yul\":27857:27883   */\n      swap1\n      pop\n        /* \"#utility.yul\":27893:27977   */\n      tag_836\n        /* \"#utility.yul\":27974:27975   */\n      0x00\n        /* \"#utility.yul\":27963:27972   */\n      dup4\n        /* \"#utility.yul\":27959:27976   */\n      add\n        /* \"#utility.yul\":27950:27956   */\n      dup6\n        /* \"#utility.yul\":27893:27977   */\n      tag_542\n      jump\t// in\n    tag_836:\n        /* \"#utility.yul\":27987:28067   */\n      tag_837\n        /* \"#utility.yul\":28063:28065   */\n      0x20\n        /* \"#utility.yul\":28052:28061   */\n      dup4\n        /* \"#utility.yul\":28048:28066   */\n      add\n        /* \"#utility.yul\":28039:28045   */\n      dup5\n        /* \"#utility.yul\":27987:28067   */\n      tag_585\n      jump\t// in\n    tag_837:\n        /* \"#utility.yul\":27700:28074   */\n      swap4\n      swap3\n      pop\n      pop\n      pop\n      jump\t// out\n        /* \"#utility.yul\":28080:28239   */\n    tag_586:\n        /* \"#utility.yul\":28220:28231   */\n      0x4e6f2077696e6e65720000000000000000000000000000000000000000000000\n        /* \"#utility.yul\":28216:28217   */\n      0x00\n        /* \"#utility.yul\":28208:28214   */\n      dup3\n        /* \"#utility.yul\":28204:28218   */\n      add\n        /* \"#utility.yul\":28197:28232   */\n      mstore\n        /* \"#utility.yul\":28080:28239   */\n      pop\n      jump\t// out\n        /* \"#utility.yul\":28245:28610   */\n    tag_587:\n        /* \"#utility.yul\":28387:28390   */\n      0x00\n        /* \"#utility.yul\":28408:28474   */\n      tag_840\n        /* \"#utility.yul\":28472:28473   */\n      0x09\n        /* \"#utility.yul\":28467:28470   */\n      dup4\n        /* \"#utility.yul\":28408:28474   */\n      tag_543\n      jump\t// in\n    tag_840:\n        /* \"#utility.yul\":28401:28474   */\n      swap2\n      pop\n        /* \"#utility.yul\":28483:28576   */\n      tag_841\n        /* \"#utility.yul\":28572:28575   */\n      dup3\n        /* \"#utility.yul\":28483:28576   */\n      tag_586\n      jump\t// in\n    tag_841:\n        /* \"#utility.yul\":28601:28603   */\n      0x20\n        /* \"#utility.yul\":28596:28599   */\n      dup3\n        /* \"#utility.yul\":28592:28604   */\n      add\n        /* \"#utility.yul\":28585:28604   */\n      swap1\n      pop\n        /* \"#utility.yul\":28245:28610   */\n      swap2\n      swap1\n      pop\n      jump\t// out\n        /* \"#utility.yul\":28616:29035   */\n    tag_440:\n        /* \"#utility.yul\":28782:28786   */\n      0x00\n        /* \"#utility.yul\":28820:28822   */\n      0x20\n        /* \"#utility.yul\":28809:28818   */\n      dup3\n        /* \"#utility.yul\":28805:28823   */\n      add\n        /* \"#utility.yul\":28797:28823   */\n      swap1\n      pop\n        /* \"#utility.yul\":28869:28878   */\n      dup2\n        /* \"#utility.yul\":28863:28867   */\n      dup2\n        /* \"#utility.yul\":28859:28879   */\n      sub\n        /* \"#utility.yul\":28855:28856   */\n      0x00\n        /* \"#utility.yul\":28844:28853   */\n      dup4\n        /* \"#utility.yul\":28840:28857   */\n      add\n        /* \"#utility.yul\":28833:28880   */\n      mstore\n        /* \"#utility.yul\":28897:29028   */\n      tag_843\n        /* \"#utility.yul\":29023:29027   */\n      dup2\n        /* \"#utility.yul\":28897:29028   */\n      tag_587\n      jump\t// in\n    tag_843:\n        /* \"#utility.yul\":28889:29028   */\n      swap1\n      pop\n        /* \"#utility.yul\":28616:29035   */\n      swap2\n      swap1\n      pop\n      jump\t// out\n\n    auxdata: 0xa26469706673582212209b8f28607ee15fa6099a7b3fc9dbd766ab5adc3148f990c8b70b18c4f81a45dc64736f6c634300081e0033\n}\n",
				"bytecode": {
					"linkReferences": {},
					"object": "6080604052348015600e575f5ffd5b50335f60016101000a81548173ffffffffffffffffffffffffffffffffffffffff021916908373ffffffffffffffffffffffffffffffffffffffff1602179055505f5f5f6101000a81548160ff02191690836003811115606f57606e6080565b5b0217905550600160098190555060ad565b7f4e487b71000000000000000000000000000000000000000000000000000000005f52602160045260245ffd5b61385e806100ba5f395ff3fe608060405260043610610128575f3560e01c806380acac88116100aa578063b1c9fe6e1161006e578063b1c9fe6e1461039c578063d4f77b1c146103c6578063d504cb65146103d0578063d65ab5f2146103fa578063e684f46a14610410578063f71d96cb1461042657610128565b806380acac88146102cc5780638536b065146102f6578063885c7d361461030c5780638da5cb5b146103485780639619367d1461037257610128565b80634ba2363a116100f15780634ba2363a14610200578063535565591461022a57806364dbe271146102525780637365870b1461026857806376e033c71461029057610128565b80624f48031461012c57806325b05c881461015457806327ef8c991461019057806338fcfa9e146101cc5780634331ed1f146101d6575b5f5ffd5b348015610137575f5ffd5b50610152600480360381019061014d9190612a95565b61046a565b005b34801561015f575f5ffd5b5061017a60048036038101906101759190612b1a565b61083b565b6040516101879190612b54565b60405180910390f35b34801561019b575f5ffd5b506101b660048036038101906101b19190612b1a565b610850565b6040516101c39190612b54565b60405180910390f35b6101d4610865565b005b3480156101e1575f5ffd5b506101ea6109f0565b6040516101f79190612b54565b60405180910390f35b34801561020b575f5ffd5b506102146109f6565b6040516102219190612b54565b60405180910390f35b348015610235575f5ffd5b50610250600480360381019061024b9190612a95565b6109fc565b005b34801561025d575f5ffd5b50610266610ba3565b005b348015610273575f5ffd5b5061028e60048036038101906102899190612a95565b610df8565b005b34801561029b575f5ffd5b506102b660048036038101906102b19190612b1a565b61117d565b6040516102c39190612b87565b60405180910390f35b3480156102d7575f5ffd5b506102e061119a565b6040516102ed9190612b54565b60405180910390f35b348015610301575f5ffd5b5061030a6111a0565b005b348015610317575f5ffd5b50610332600480360381019061032d9190612b1a565b61150b565b60405161033f9190612b54565b60405180910390f35b348015610353575f5ffd5b5061035c611520565b6040516103699190612baf565b60405180910390f35b34801561037d575f5ffd5b50610386611545565b6040516103939190612b54565b60405180910390f35b3480156103a7575f5ffd5b506103b061154b565b6040516103bd9190612c3b565b60405180910390f35b6103ce61155c565b005b3480156103db575f5ffd5b506103e4611999565b6040516103f19190612b54565b60405180910390f35b348015610405575f5ffd5b5061040e61199f565b005b34801561041b575f5ffd5b50610424611dd4565b005b348015610431575f5ffd5b5061044c60048036038101906104479190612a95565b6120dd565b60405161046199989796959493929190612ce0565b60405180910390f35b600180600381111561047f5761047e612bc8565b5b5f5f9054906101000a900460ff16600381111561049f5761049e612bc8565b5b146104df576040517f08c379a00000000000000000000000000000000000000000000000000000000081526004016104d690612dc5565b60405180910390fd5b60035f3373ffffffffffffffffffffffffffffffffffffffff1673ffffffffffffffffffffffffffffffffffffffff1681526020019081526020015f205f9054906101000a900460ff16610568576040517f08c379a000000000000000000000000000000000000000000000000000000000815260040161055f90612e2d565b60405180910390fd5b5f600160025f3373ffffffffffffffffffffffffffffffffffffffff1673ffffffffffffffffffffffffffffffffffffffff1681526020019081526020015f2054815481106105ba576105b9612e4b565b5b905f5260205f20906006020190505f81600301546007546105db9190612ea5565b90505f84826105ea9190612ed8565b90505f851180156105ff575080836001015410155b61063e576040517f08c379a000000000000000000000000000000000000000000000000000000000815260040161063590612f55565b60405180910390fd5b80836001015f8282546106519190612ea5565b9250508190555080836003015f82825461066b9190612ed8565b925050819055508060065f8282546106839190612ed8565b9250508190555082600301546007819055506003836004015f6101000a81548160ff021916908360058111156106bc576106bb612bc8565b5b02179055505f5f90505b6001805490508110156107da57600181815481106106e7576106e6612e4b565b5b905f5260205f20906006020160020160019054906101000a900460ff16801561077d57503373ffffffffffffffffffffffffffffffffffffffff166001828154811061073657610735612e4b565b5b905f5260205f2090600602015f015f9054906101000a900473ffffffffffffffffffffffffffffffffffffffff1673ffffffffffffffffffffffffffffffffffffffff1614155b156107cd575f6001828154811061079757610796612e4b565b5b905f5260205f2090600602016004015f6101000a81548160ff021916908360058111156107c7576107c6612bc8565b5b02179055505b80806001019150506106c6565b503373ffffffffffffffffffffffffffffffffffffffff167f67c29155f1efde8516a854ad304ad39dbf9a2f4edaf7294fce3e7db25af24f7b600387604051610824929190612f73565b60405180910390a2610834612194565b5050505050565b6005602052805f5260405f205f915090505481565b6004602052805f5260405f205f915090505481565b66038d7ea4c68000341015801561088d57505f66038d7ea4c680003461088b9190612fc7565b145b6108cc576040517f08c379a00000000000000000000000000000000000000000000000000000000081526004016108c390613041565b60405180910390fd5b5f66038d7ea4c680006014346108e2919061305f565b6108ec91906130a0565b905060035f3373ffffffffffffffffffffffffffffffffffffffff1673ffffffffffffffffffffffffffffffffffffffff1681526020019081526020015f205f9054906101000a900460ff16156109b45780600160025f3373ffffffffffffffffffffffffffffffffffffffff1673ffffffffffffffffffffffffffffffffffffffff1681526020019081526020015f20548154811061098f5761098e612e4b565b5b905f5260205f2090600602016001015f8282546109ac9190612ed8565b925050819055505b7f85637b17e1b2f58ee0bd3b882c032092a3b8453f44026dc397be30023bf7869633826040516109e59291906130d0565b60405180910390a150565b600a5481565b60065481565b5f8111610a3e576040517f08c379a0000000000000000000000000000000000000000000000000000000008152600401610a3590613141565b60405180910390fd5b60035f3373ffffffffffffffffffffffffffffffffffffffff1673ffffffffffffffffffffffffffffffffffffffff1681526020019081526020015f205f9054906101000a900460ff1615610ac8576040517f08c379a0000000000000000000000000000000000000000000000000000000008152600401610abf906131a9565b60405180910390fd5b5f652d79883d200082610adb919061305f565b905080471015610b20576040517f08c379a0000000000000000000000000000000000000000000000000000000008152600401610b1790613211565b60405180910390fd5b3373ffffffffffffffffffffffffffffffffffffffff166108fc8290811502906040515f60405180830381858888f19350505050158015610b63573d5f5f3e3d5ffd5b507f10a411a628953c6facff7cf4822b3c924b8b4cc322922727569c217b636505a8338383604051610b979392919061322f565b60405180910390a15050565b60035f3373ffffffffffffffffffffffffffffffffffffffff1673ffffffffffffffffffffffffffffffffffffffff1681526020019081526020015f205f9054906101000a900460ff16610c2c576040517f08c379a0000000000000000000000000000000000000000000000000000000008152600401610c2390612e2d565b60405180910390fd5b5f60025f3373ffffffffffffffffffffffffffffffffffffffff1673ffffffffffffffffffffffffffffffffffffffff1681526020019081526020015f205490505f60018281548110610c8257610c81612e4b565b5b905f5260205f20906006020190505f6003811115610ca357610ca2612bc8565b5b5f5f9054906101000a900460ff166003811115610cc357610cc2612bc8565b5b1480610cdd57508060020160019054906101000a900460ff165b610d1c576040517f08c379a0000000000000000000000000000000000000000000000000000000008152600401610d13906132ae565b60405180910390fd5b610d2a338260010154612273565b5f8160020160016101000a81548160ff0219169083151502179055505f60035f3373ffffffffffffffffffffffffffffffffffffffff1673ffffffffffffffffffffffffffffffffffffffff1681526020019081526020015f205f6101000a81548160ff021916908315150217905550600a5f815480929190610dac906132cc565b91905055503373ffffffffffffffffffffffffffffffffffffffff167f8f68d81a4f1aab885e5461d1ce75736aff7e07d3de92b4335afc79f8cd8cb1b460405160405180910390a25050565b6001806003811115610e0d57610e0c612bc8565b5b5f5f9054906101000a900460ff166003811115610e2d57610e2c612bc8565b5b14610e6d576040517f08c379a0000000000000000000000000000000000000000000000000000000008152600401610e6490612dc5565b60405180910390fd5b60035f3373ffffffffffffffffffffffffffffffffffffffff1673ffffffffffffffffffffffffffffffffffffffff1681526020019081526020015f205f9054906101000a900460ff16610ef6576040517f08c379a0000000000000000000000000000000000000000000000000000000008152600401610eed90612e2d565b60405180910390fd5b5f600160025f3373ffffffffffffffffffffffffffffffffffffffff1673ffffffffffffffffffffffffffffffffffffffff1681526020019081526020015f205481548110610f4857610f47612e4b565b5b905f5260205f20906006020190508060020160019054906101000a900460ff168015610f8357508060020160029054906101000a900460ff16155b610fc2576040517f08c379a0000000000000000000000000000000000000000000000000000000008152600401610fb99061333d565b60405180910390fd5b6009548310158015610fd8575082816001015410155b611017576040517f08c379a000000000000000000000000000000000000000000000000000000000815260040161100e906133a5565b60405180910390fd5b5f600581111561102a57611029612bc8565b5b816004015f9054906101000a900460ff16600581111561104d5761104c612bc8565b5b1461108d576040517f08c379a00000000000000000000000000000000000000000000000000000000081526004016110849061340d565b60405180910390fd5b82816001015f8282546110a09190612ea5565b9250508190555082816003015f8282546110ba9190612ed8565b925050819055508260065f8282546110d29190612ed8565b92505081905550600754816003015411156110f35780600301546007819055505b6001816004015f6101000a81548160ff0219169083600581111561111a57611119612bc8565b5b02179055503373ffffffffffffffffffffffffffffffffffffffff167f67c29155f1efde8516a854ad304ad39dbf9a2f4edaf7294fce3e7db25af24f7b600185604051611168929190612f73565b60405180910390a2611178612194565b505050565b6003602052805f5260405f205f915054906101000a900460ff1681565b60085481565b60018060038111156111b5576111b4612bc8565b5b5f5f9054906101000a900460ff1660038111156111d5576111d4612bc8565b5b14611215576040517f08c379a000000000000000000000000000000000000000000000000000000000815260040161120c90612dc5565b60405180910390fd5b60035f3373ffffffffffffffffffffffffffffffffffffffff1673ffffffffffffffffffffffffffffffffffffffff1681526020019081526020015f205f9054906101000a900460ff1661129e576040517f08c379a000000000000000000000000000000000000000000000000000000000815260040161129590612e2d565b60405180910390fd5b5f600160025f3373ffffffffffffffffffffffffffffffffffffffff1673ffffffffffffffffffffffffffffffffffffffff1681526020019081526020015f2054815481106112f0576112ef612e4b565b5b905f5260205f20906006020190505f81600301546007546113119190612ea5565b90505f8111801561132557505f8260010154115b611364576040517f08c379a000000000000000000000000000000000000000000000000000000000815260040161135b90613475565b60405180910390fd5b5f8183600101541115611377578161137d565b82600101545b905080836001015f8282546113929190612ea5565b9250508190555080836003015f8282546113ac9190612ed8565b925050819055508060065f8282546113c49190612ed8565b925050819055508181101561147f5760018360040160016101000a81548160ff021916908315150217905550826003015483600501819055506005836004015f6101000a81548160ff0219169083600581111561142457611423612bc8565b5b02179055503373ffffffffffffffffffffffffffffffffffffffff167f67c29155f1efde8516a854ad304ad39dbf9a2f4edaf7294fce3e7db25af24f7b600583604051611472929190612f73565b60405180910390a26114fd565b6002836004015f6101000a81548160ff021916908360058111156114a6576114a5612bc8565b5b02179055503373ffffffffffffffffffffffffffffffffffffffff167f67c29155f1efde8516a854ad304ad39dbf9a2f4edaf7294fce3e7db25af24f7b6002836040516114f4929190612f73565b60405180910390a25b611505612194565b50505050565b6002602052805f5260405f205f915090505481565b5f60019054906101000a900473ffffffffffffffffffffffffffffffffffffffff1681565b60095481565b5f5f9054906101000a900460ff1681565b5f8060038111156115705761156f612bc8565b5b5f5f9054906101000a900460ff1660038111156115905761158f612bc8565b5b146115d0576040517f08c379a00000000000000000000000000000000000000000000000000000000081526004016115c790612dc5565b60405180910390fd5b6115d8612907565b60148160200151106119955760035f3373ffffffffffffffffffffffffffffffffffffffff1673ffffffffffffffffffffffffffffffffffffffff1681526020019081526020015f205f9054906101000a900460ff161561166e576040517f08c379a0000000000000000000000000000000000000000000000000000000008152600401611665906134dd565b60405180910390fd5b66038d7ea4c6800034146116b7576040517f08c379a00000000000000000000000000000000000000000000000000000000081526004016116ae90613545565b60405180910390fd5b6006600180549050106116ff576040517f08c379a00000000000000000000000000000000000000000000000000000000081526004016116f6906135ad565b60405180910390fd5b33815f019073ffffffffffffffffffffffffffffffffffffffff16908173ffffffffffffffffffffffffffffffffffffffff16815250506001816060019015159081151581525050600181908060018154018082558091505060019003905f5260205f2090600602015f909190919091505f820151815f015f6101000a81548173ffffffffffffffffffffffffffffffffffffffff021916908373ffffffffffffffffffffffffffffffffffffffff160217905550602082015181600101556040820151816002015f6101000a81548160ff0219169083600d8111156117e8576117e7612bc8565b5b021790555060608201518160020160016101000a81548160ff02191690831515021790555060808201518160020160026101000a81548160ff02191690831515021790555060a0820151816003015560c0820151816004015f6101000a81548160ff0219169083600581111561186157611860612bc8565b5b021790555060e08201518160040160016101000a81548160ff02191690831515021790555061010082015181600501555050600180805490506118a49190612ea5565b60025f3373ffffffffffffffffffffffffffffffffffffffff1673ffffffffffffffffffffffffffffffffffffffff1681526020019081526020015f2081905550600160035f3373ffffffffffffffffffffffffffffffffffffffff1673ffffffffffffffffffffffffffffffffffffffff1681526020019081526020015f205f6101000a81548160ff021916908315150217905550600a5f81548092919061194c906135cb565b91905055503373ffffffffffffffffffffffffffffffffffffffff167f31e760aa525306aba638a784082a013b6a1cc0a9a1789f3f22281c0453b10b1f60405160405180910390a25b5050565b60075481565b5f60019054906101000a900473ffffffffffffffffffffffffffffffffffffffff1673ffffffffffffffffffffffffffffffffffffffff163373ffffffffffffffffffffffffffffffffffffffff1614611a2e576040517f08c379a0000000000000000000000000000000000000000000000000000000008152600401611a259061365c565b60405180910390fd5b5f806003811115611a4257611a41612bc8565b5b5f5f9054906101000a900460ff166003811115611a6257611a61612bc8565b5b14611aa2576040517f08c379a0000000000000000000000000000000000000000000000000000000008152600401611a9990612dc5565b60405180910390fd5b6002600a541015611ae8576040517f08c379a0000000000000000000000000000000000000000000000000000000008152600401611adf906136c4565b60405180910390fd5b60015f5f6101000a81548160ff02191690836003811115611b0c57611b0b612bc8565b5b02179055505f6007819055505f6006819055505f6008819055505f5f90505b600180549050811015611bf6575f60018281548110611b4d57611b4c612e4b565b5b905f5260205f20906006020190508060020160019054906101000a900460ff1615611be8575f8160020160026101000a81548160ff0219169083151502179055505f81600301819055505f816004015f6101000a81548160ff02191690836005811115611bbd57611bbc612bc8565b5b02179055505f8160040160016101000a81548160ff0219169083151502179055505f81600501819055505b508080600101915050611b2b565b505f5f90505b600180549050811015611da45760018181548110611c1d57611c1c612e4b565b5b905f5260205f20906006020160020160019054906101000a900460ff1615611d97575f600e424484604051602001611c5793929190613702565b604051602081830303815290604052805190602001205f1c611c799190612fc7565b905080600d811115611c8e57611c8d612bc8565b5b60018381548110611ca257611ca1612e4b565b5b905f5260205f2090600602016002015f6101000a81548160ff0219169083600d811115611cd257611cd1612bc8565b5b021790555060018281548110611ceb57611cea612e4b565b5b905f5260205f2090600602015f015f9054906101000a900473ffffffffffffffffffffffffffffffffffffffff1673ffffffffffffffffffffffffffffffffffffffff167f946dcf24b8c08c25fbbe3a10158be25f72f147d17a725912e2af62a98ad0535360018481548110611d6457611d63612e4b565b5b905f5260205f2090600602016002015f9054906101000a900460ff16604051611d8d919061373e565b60405180910390a2505b8080600101915050611bfc565b507f762f260439bb4be3ef6e4dc2786e2e7bd187d3d80b79057d7a424fe98563e33560405160405180910390a150565b6001806003811115611de957611de8612bc8565b5b5f5f9054906101000a900460ff166003811115611e0957611e08612bc8565b5b14611e49576040517f08c379a0000000000000000000000000000000000000000000000000000000008152600401611e4090612dc5565b60405180910390fd5b60035f3373ffffffffffffffffffffffffffffffffffffffff1673ffffffffffffffffffffffffffffffffffffffff1681526020019081526020015f205f9054906101000a900460ff16611ed2576040517f08c379a0000000000000000000000000000000000000000000000000000000008152600401611ec990612e2d565b60405180910390fd5b5f600160025f3373ffffffffffffffffffffffffffffffffffffffff1673ffffffffffffffffffffffffffffffffffffffff1681526020019081526020015f205481548110611f2457611f23612e4b565b5b905f5260205f209060060201905060018160020160026101000a81548160ff0219169083151502179055505f8160020160016101000a81548160ff021916908315150217905550600a5f815480929190611f7d906132cc565b91905055506004816004015f6101000a81548160ff02191690836005811115611fa957611fa8612bc8565b5b0217905550600d80811115611fc157611fc0612bc8565b5b816002015f9054906101000a900460ff16600d811115611fe457611fe3612bc8565b5b148015611ff457505f8160010154115b15612068575f6002826001015461200b91906130a0565b90506001600283600101546120209190612fc7565b03612034578080612030906135cb565b9150505b80826001015f8282546120479190612ea5565b925050819055508060065f82825461205f9190612ed8565b92505081905550505b3373ffffffffffffffffffffffffffffffffffffffff167f67c29155f1efde8516a854ad304ad39dbf9a2f4edaf7294fce3e7db25af24f7b60045f6040516120b1929190613799565b60405180910390a26001600a54036120d0576120cb6122ca565b6120d9565b6120d8612194565b5b5050565b600181815481106120ec575f80fd5b905f5260205f2090600602015f91509050805f015f9054906101000a900473ffffffffffffffffffffffffffffffffffffffff1690806001015490806002015f9054906101000a900460ff16908060020160019054906101000a900460ff16908060020160029054906101000a900460ff1690806003015490806004015f9054906101000a900460ff16908060040160019054906101000a900460ff16908060050154905089565b5f60085490505b60018054905060016008546121b09190612ed8565b6121ba9190612fc7565b6008819055505f6001600854815481106121d7576121d6612e4b565b5b905f5260205f20906006020190508060020160019054906101000a900460ff16801561221257508060020160029054906101000a900460ff16155b801561225157505f600581111561222c5761222b612bc8565b5b816004015f9054906101000a900460ff16600581111561224f5761224e612bc8565b5b145b1561225d575050612271565b50806008540361219b5761226f6122ca565b505b565b8060045f8473ffffffffffffffffffffffffffffffffffffffff1673ffffffffffffffffffffffffffffffffffffffff1681526020019081526020015f205f8282546122bf9190612ed8565b925050819055505050565b60025f5f6101000a81548160ff021916908360038111156122ee576122ed612bc8565b5b02179055505f5f5f5f90505b6001805490508110156123f9575f6001828154811061231c5761231b612e4b565b5b905f5260205f20906006020190508060020160019054906101000a900460ff16801561235757508060020160029054906101000a900460ff16155b156123eb575f73ffffffffffffffffffffffffffffffffffffffff168473ffffffffffffffffffffffffffffffffffffffff1614806123ac57506123ab816002015f9054906101000a900460ff16846126f4565b5b156123ea57805f015f9054906101000a900473ffffffffffffffffffffffffffffffffffffffff169350806002015f9054906101000a900460ff1692505b5b5080806001019150506122fa565b505f73ffffffffffffffffffffffffffffffffffffffff168273ffffffffffffffffffffffffffffffffffffffff1603612468576040517f08c379a000000000000000000000000000000000000000000000000000000000815260040161245f9061380a565b60405180910390fd5b600654600160025f8573ffffffffffffffffffffffffffffffffffffffff1673ffffffffffffffffffffffffffffffffffffffff1681526020019081526020015f2054815481106124bc576124bb612e4b565b5b905f5260205f2090600602016001015f8282546124d99190612ed8565b925050819055507fd4ba6fec82d9b0e8ffe50b9fed9e4be3b25c984ce1e0e016405a5528726e8a2c826006546040516125139291906130d0565b60405180910390a160035f5f6101000a81548160ff0219169083600381111561253f5761253e612bc8565b5b02179055505f5f90505b6001805490508110156126e7575f6001828154811061256b5761256a612e4b565b5b905f5260205f20906006020190508373ffffffffffffffffffffffffffffffffffffffff16815f015f9054906101000a900473ffffffffffffffffffffffffffffffffffffffff1673ffffffffffffffffffffffffffffffffffffffff16146125ff576125fe815f015f9054906101000a900473ffffffffffffffffffffffffffffffffffffffff168260010154612273565b5b5f60055f835f015f9054906101000a900473ffffffffffffffffffffffffffffffffffffffff1673ffffffffffffffffffffffffffffffffffffffff1673ffffffffffffffffffffffffffffffffffffffff1681526020019081526020015f20819055505f60035f835f015f9054906101000a900473ffffffffffffffffffffffffffffffffffffffff1673ffffffffffffffffffffffffffffffffffffffff1673ffffffffffffffffffffffffffffffffffffffff1681526020019081526020015f205f6101000a81548160ff021916908315150217905550508080600101915050612549565b506126f06128bb565b5050565b5f5f600d81111561270857612707612bc8565b5b83600d81111561271b5761271a612bc8565b5b14801561274b5750600d8081111561273657612735612bc8565b5b82600d81111561274957612748612bc8565b5b145b1561275957600190506128b5565b5f600d81111561276c5761276b612bc8565b5b83600d81111561277f5761277e612bc8565b5b1480156127b05750600d8081111561279a57612799612bc8565b5b82600d8111156127ad576127ac612bc8565b5b14155b156127bd575f90506128b5565b5f600d8111156127d0576127cf612bc8565b5b82600d8111156127e3576127e2612bc8565b5b1480156128135750600d808111156127fe576127fd612bc8565b5b83600d81111561281157612810612bc8565b5b145b15612820575f90506128b5565b5f600d81111561283357612832612bc8565b5b82600d81111561284657612845612bc8565b5b1480156128775750600d8081111561286157612860612bc8565b5b83600d81111561287457612873612bc8565b5b14155b1561288557600190506128b5565b81600d81111561289857612897612bc8565b5b60ff1683600d8111156128ae576128ad612bc8565b5b60ff161190505b92915050565b60015f6128c8919061298a565b5f5f5f6101000a81548160ff021916908360038111156128eb576128ea612bc8565b5b02179055505f6006819055505f6007819055505f600a81905550565b6040518061012001604052805f73ffffffffffffffffffffffffffffffffffffffff1681526020015f81526020015f600d81111561294857612947612bc8565b5b81526020015f151581526020015f151581526020015f81526020015f600581111561297657612975612bc8565b5b81526020015f151581526020015f81525090565b5080545f8255600602905f5260205f20908101906129a891906129ab565b50565b5b80821115612a5a575f5f82015f6101000a81549073ffffffffffffffffffffffffffffffffffffffff0219169055600182015f9055600282015f6101000a81549060ff02191690556002820160016101000a81549060ff02191690556002820160026101000a81549060ff0219169055600382015f9055600482015f6101000a81549060ff02191690556004820160016101000a81549060ff0219169055600582015f9055506006016129ac565b5090565b5f5ffd5b5f819050919050565b612a7481612a62565b8114612a7e575f5ffd5b50565b5f81359050612a8f81612a6b565b92915050565b5f60208284031215612aaa57612aa9612a5e565b5b5f612ab784828501612a81565b91505092915050565b5f73ffffffffffffffffffffffffffffffffffffffff82169050919050565b5f612ae982612ac0565b9050919050565b612af981612adf565b8114612b03575f5ffd5b50565b5f81359050612b1481612af0565b92915050565b5f60208284031215612b2f57612b2e612a5e565b5b5f612b3c84828501612b06565b91505092915050565b612b4e81612a62565b82525050565b5f602082019050612b675f830184612b45565b92915050565b5f8115159050919050565b612b8181612b6d565b82525050565b5f602082019050612b9a5f830184612b78565b92915050565b612ba981612adf565b82525050565b5f602082019050612bc25f830184612ba0565b92915050565b7f4e487b71000000000000000000000000000000000000000000000000000000005f52602160045260245ffd5b60048110612c0657612c05612bc8565b5b50565b5f819050612c1682612bf5565b919050565b5f612c2582612c09565b9050919050565b612c3581612c1b565b82525050565b5f602082019050612c4e5f830184612c2c565b92915050565b600e8110612c6557612c64612bc8565b5b50565b5f819050612c7582612c54565b919050565b5f612c8482612c68565b9050919050565b612c9481612c7a565b82525050565b60068110612cab57612caa612bc8565b5b50565b5f819050612cbb82612c9a565b919050565b5f612cca82612cae565b9050919050565b612cda81612cc0565b82525050565b5f61012082019050612cf45f83018c612ba0565b612d01602083018b612b45565b612d0e604083018a612c8b565b612d1b6060830189612b78565b612d286080830188612b78565b612d3560a0830187612b45565b612d4260c0830186612cd1565b612d4f60e0830185612b78565b612d5d610100830184612b45565b9a9950505050505050505050565b5f82825260208201905092915050565b7f496e76616c6964207068617365000000000000000000000000000000000000005f82015250565b5f612daf600d83612d6b565b9150612dba82612d7b565b602082019050919050565b5f6020820190508181035f830152612ddc81612da3565b9050919050565b7f4e6f7420696e2067616d650000000000000000000000000000000000000000005f82015250565b5f612e17600b83612d6b565b9150612e2282612de3565b602082019050919050565b5f6020820190508181035f830152612e4481612e0b565b9050919050565b7f4e487b71000000000000000000000000000000000000000000000000000000005f52603260045260245ffd5b7f4e487b71000000000000000000000000000000000000000000000000000000005f52601160045260245ffd5b5f612eaf82612a62565b9150612eba83612a62565b9250828203905081811115612ed257612ed1612e78565b5b92915050565b5f612ee282612a62565b9150612eed83612a62565b9250828201905080821115612f0557612f04612e78565b5b92915050565b7f496e76616c6964207261697365000000000000000000000000000000000000005f82015250565b5f612f3f600d83612d6b565b9150612f4a82612f0b565b602082019050919050565b5f6020820190508181035f830152612f6c81612f33565b9050919050565b5f604082019050612f865f830185612cd1565b612f936020830184612b45565b9392505050565b7f4e487b71000000000000000000000000000000000000000000000000000000005f52601260045260245ffd5b5f612fd182612a62565b9150612fdc83612a62565b925082612fec57612feb612f9a565b5b828206905092915050565b7f302e3030312045544820696e6372656d656e74730000000000000000000000005f82015250565b5f61302b601483612d6b565b915061303682612ff7565b602082019050919050565b5f6020820190508181035f8301526130588161301f565b9050919050565b5f61306982612a62565b915061307483612a62565b925082820261308281612a62565b9150828204841483151761309957613098612e78565b5b5092915050565b5f6130aa82612a62565b91506130b583612a62565b9250826130c5576130c4612f9a565b5b828204905092915050565b5f6040820190506130e35f830185612ba0565b6130f06020830184612b45565b9392505050565b7f3e300000000000000000000000000000000000000000000000000000000000005f82015250565b5f61312b600283612d6b565b9150613136826130f7565b602082019050919050565b5f6020820190508181035f8301526131588161311f565b9050919050565b7f4c656176652067616d6520746f2065786368616e6765000000000000000000005f82015250565b5f613193601683612d6b565b915061319e8261315f565b602082019050919050565b5f6020820190508181035f8301526131c081613187565b9050919050565b7f496e73756666696369656e7420636f6e747261637420455448000000000000005f82015250565b5f6131fb601983612d6b565b9150613206826131c7565b602082019050919050565b5f6020820190508181035f830152613228816131ef565b9050919050565b5f6060820190506132425f830186612ba0565b61324f6020830185612b45565b61325c6040830184612b45565b949350505050565b7f43616e6e6f742065786974206e6f7700000000000000000000000000000000005f82015250565b5f613298600f83612d6b565b91506132a382613264565b602082019050919050565b5f6020820190508181035f8301526132c58161328c565b9050919050565b5f6132d682612a62565b91505f82036132e8576132e7612e78565b5b600182039050919050565b7f4e6f7420616374697665000000000000000000000000000000000000000000005f82015250565b5f613327600a83612d6b565b9150613332826132f3565b602082019050919050565b5f6020820190508181035f8301526133548161331b565b9050919050565b7f496e76616c6964206265740000000000000000000000000000000000000000005f82015250565b5f61338f600b83612d6b565b915061339a8261335b565b602082019050919050565b5f6020820190508181035f8301526133bc81613383565b9050919050565b7f416c7265616479206163746564000000000000000000000000000000000000005f82015250565b5f6133f7600d83612d6b565b9150613402826133c3565b602082019050919050565b5f6020820190508181035f830152613424816133eb565b9050919050565b7f4e6f7468696e6720746f2063616c6c00000000000000000000000000000000005f82015250565b5f61345f600f83612d6b565b915061346a8261342b565b602082019050919050565b5f6020820190508181035f83015261348c81613453565b9050919050565b7f416c726561647920696e2067616d6500000000000000000000000000000000005f82015250565b5f6134c7600f83612d6b565b91506134d282613493565b602082019050919050565b5f6020820190508181035f8301526134f4816134bb565b9050919050565b7f53656e6420302e3030312045544820746f206a6f696e000000000000000000005f82015250565b5f61352f601683612d6b565b915061353a826134fb565b602082019050919050565b5f6020820190508181035f83015261355c81613523565b9050919050565b7f4d6178203620706c6179657273000000000000000000000000000000000000005f82015250565b5f613597600d83612d6b565b91506135a282613563565b602082019050919050565b5f6020820190508181035f8301526135c48161358b565b9050919050565b5f6135d582612a62565b91507fffffffffffffffffffffffffffffffffffffffffffffffffffffffffffffffff820361360757613606612e78565b5b600182019050919050565b7f4f6e6c79206f776e6572000000000000000000000000000000000000000000005f82015250565b5f613646600a83612d6b565b915061365182613612565b602082019050919050565b5f6020820190508181035f8301526136738161363a565b9050919050565b7f4e656564203e3d320000000000000000000000000000000000000000000000005f82015250565b5f6136ae600883612d6b565b91506136b98261367a565b602082019050919050565b5f6020820190508181035f8301526136db816136a2565b9050919050565b5f819050919050565b6136fc6136f782612a62565b6136e2565b82525050565b5f61370d82866136eb565b60208201915061371d82856136eb565b60208201915061372d82846136eb565b602082019150819050949350505050565b5f6020820190506137515f830184612c8b565b92915050565b5f819050919050565b5f819050919050565b5f61378361377e61377984613757565b613760565b612a62565b9050919050565b61379381613769565b82525050565b5f6040820190506137ac5f830185612cd1565b6137b9602083018461378a565b9392505050565b7f4e6f2077696e6e657200000000000000000000000000000000000000000000005f82015250565b5f6137f4600983612d6b565b91506137ff826137c0565b602082019050919050565b5f6020820190508181035f830152613821816137e8565b905091905056fea26469706673582212209b8f28607ee15fa6099a7b3fc9dbd766ab5adc3148f990c8b70b18c4f81a45dc64736f6c634300081e0033",
					"opcodes": "PUSH1 0x80 PUSH1 0x40 MSTORE CALLVALUE DUP1 ISZERO PUSH1 0xE JUMPI PUSH0 PUSH0 REVERT JUMPDEST POP CALLER PUSH0 PUSH1 0x1 PUSH2 0x100 EXP DUP2 SLOAD DUP2 PUSH20 0xFFFFFFFFFFFFFFFFFFFFFFFFFFFFFFFFFFFFFFFF MUL NOT AND SWAP1 DUP4 PUSH20 0xFFFFFFFFFFFFFFFFFFFFFFFFFFFFFFFFFFFFFFFF AND MUL OR SWAP1 SSTORE POP PUSH0 PUSH0 PUSH0 PUSH2 0x100 EXP DUP2 SLOAD DUP2 PUSH1 0xFF MUL NOT AND SWAP1 DUP4 PUSH1 0x3 DUP2 GT ISZERO PUSH1 0x6F JUMPI PUSH1 0x6E PUSH1 0x80 JUMP JUMPDEST JUMPDEST MUL OR SWAP1 SSTORE POP PUSH1 0x1 PUSH1 0x9 DUP2 SWAP1 SSTORE POP PUSH1 0xAD JUMP JUMPDEST PUSH32 0x4E487B7100000000000000000000000000000000000000000000000000000000 PUSH0 MSTORE PUSH1 0x21 PUSH1 0x4 MSTORE PUSH1 0x24 PUSH0 REVERT JUMPDEST PUSH2 0x385E DUP1 PUSH2 0xBA PUSH0 CODECOPY PUSH0 RETURN INVALID PUSH1 0x80 PUSH1 0x40 MSTORE PUSH1 0x4 CALLDATASIZE LT PUSH2 0x128 JUMPI PUSH0 CALLDATALOAD PUSH1 0xE0 SHR DUP1 PUSH4 0x80ACAC88 GT PUSH2 0xAA JUMPI DUP1 PUSH4 0xB1C9FE6E GT PUSH2 0x6E JUMPI DUP1 PUSH4 0xB1C9FE6E EQ PUSH2 0x39C JUMPI DUP1 PUSH4 0xD4F77B1C EQ PUSH2 0x3C6 JUMPI DUP1 PUSH4 0xD504CB65 EQ PUSH2 0x3D0 JUMPI DUP1 PUSH4 0xD65AB5F2 EQ PUSH2 0x3FA JUMPI DUP1 PUSH4 0xE684F46A EQ PUSH2 0x410 JUMPI DUP1 PUSH4 0xF71D96CB EQ PUSH2 0x426 JUMPI PUSH2 0x128 JUMP JUMPDEST DUP1 PUSH4 0x80ACAC88 EQ PUSH2 0x2CC JUMPI DUP1 PUSH4 0x8536B065 EQ PUSH2 0x2F6 JUMPI DUP1 PUSH4 0x885C7D36 EQ PUSH2 0x30C JUMPI DUP1 PUSH4 0x8DA5CB5B EQ PUSH2 0x348 JUMPI DUP1 PUSH4 0x9619367D EQ PUSH2 0x372 JUMPI PUSH2 0x128 JUMP JUMPDEST DUP1 PUSH4 0x4BA2363A GT PUSH2 0xF1 JUMPI DUP1 PUSH4 0x4BA2363A EQ PUSH2 0x200 JUMPI DUP1 PUSH4 0x53556559 EQ PUSH2 0x22A JUMPI DUP1 PUSH4 0x64DBE271 EQ PUSH2 0x252 JUMPI DUP1 PUSH4 0x7365870B EQ PUSH2 0x268 JUMPI DUP1 PUSH4 0x76E033C7 EQ PUSH2 0x290 JUMPI PUSH2 0x128 JUMP JUMPDEST DUP1 PUSH3 0x4F4803 EQ PUSH2 0x12C JUMPI DUP1 PUSH4 0x25B05C88 EQ PUSH2 0x154 JUMPI DUP1 PUSH4 0x27EF8C99 EQ PUSH2 0x190 JUMPI DUP1 PUSH4 0x38FCFA9E EQ PUSH2 0x1CC JUMPI DUP1 PUSH4 0x4331ED1F EQ PUSH2 0x1D6 JUMPI JUMPDEST PUSH0 PUSH0 REVERT JUMPDEST CALLVALUE DUP1 ISZERO PUSH2 0x137 JUMPI PUSH0 PUSH0 REVERT JUMPDEST POP PUSH2 0x152 PUSH1 0x4 DUP1 CALLDATASIZE SUB DUP2 ADD SWAP1 PUSH2 0x14D SWAP2 SWAP1 PUSH2 0x2A95 JUMP JUMPDEST PUSH2 0x46A JUMP JUMPDEST STOP JUMPDEST CALLVALUE DUP1 ISZERO PUSH2 0x15F JUMPI PUSH0 PUSH0 REVERT JUMPDEST POP PUSH2 0x17A PUSH1 0x4 DUP1 CALLDATASIZE SUB DUP2 ADD SWAP1 PUSH2 0x175 SWAP2 SWAP1 PUSH2 0x2B1A JUMP JUMPDEST PUSH2 0x83B JUMP JUMPDEST PUSH1 0x40 MLOAD PUSH2 0x187 SWAP2 SWAP1 PUSH2 0x2B54 JUMP JUMPDEST PUSH1 0x40 MLOAD DUP1 SWAP2 SUB SWAP1 RETURN JUMPDEST CALLVALUE DUP1 ISZERO PUSH2 0x19B JUMPI PUSH0 PUSH0 REVERT JUMPDEST POP PUSH2 0x1B6 PUSH1 0x4 DUP1 CALLDATASIZE SUB DUP2 ADD SWAP1 PUSH2 0x1B1 SWAP2 SWAP1 PUSH2 0x2B1A JUMP JUMPDEST PUSH2 0x850 JUMP JUMPDEST PUSH1 0x40 MLOAD PUSH2 0x1C3 SWAP2 SWAP1 PUSH2 0x2B54 JUMP JUMPDEST PUSH1 0x40 MLOAD DUP1 SWAP2 SUB SWAP1 RETURN JUMPDEST PUSH2 0x1D4 PUSH2 0x865 JUMP JUMPDEST STOP JUMPDEST CALLVALUE DUP1 ISZERO PUSH2 0x1E1 JUMPI PUSH0 PUSH0 REVERT JUMPDEST POP PUSH2 0x1EA PUSH2 0x9F0 JUMP JUMPDEST PUSH1 0x40 MLOAD PUSH2 0x1F7 SWAP2 SWAP1 PUSH2 0x2B54 JUMP JUMPDEST PUSH1 0x40 MLOAD DUP1 SWAP2 SUB SWAP1 RETURN JUMPDEST CALLVALUE DUP1 ISZERO PUSH2 0x20B JUMPI PUSH0 PUSH0 REVERT JUMPDEST POP PUSH2 0x214 PUSH2 0x9F6 JUMP JUMPDEST PUSH1 0x40 MLOAD PUSH2 0x221 SWAP2 SWAP1 PUSH2 0x2B54 JUMP JUMPDEST PUSH1 0x40 MLOAD DUP1 SWAP2 SUB SWAP1 RETURN JUMPDEST CALLVALUE DUP1 ISZERO PUSH2 0x235 JUMPI PUSH0 PUSH0 REVERT JUMPDEST POP PUSH2 0x250 PUSH1 0x4 DUP1 CALLDATASIZE SUB DUP2 ADD SWAP1 PUSH2 0x24B SWAP2 SWAP1 PUSH2 0x2A95 JUMP JUMPDEST PUSH2 0x9FC JUMP JUMPDEST STOP JUMPDEST CALLVALUE DUP1 ISZERO PUSH2 0x25D JUMPI PUSH0 PUSH0 REVERT JUMPDEST POP PUSH2 0x266 PUSH2 0xBA3 JUMP JUMPDEST STOP JUMPDEST CALLVALUE DUP1 ISZERO PUSH2 0x273 JUMPI PUSH0 PUSH0 REVERT JUMPDEST POP PUSH2 0x28E PUSH1 0x4 DUP1 CALLDATASIZE SUB DUP2 ADD SWAP1 PUSH2 0x289 SWAP2 SWAP1 PUSH2 0x2A95 JUMP JUMPDEST PUSH2 0xDF8 JUMP JUMPDEST STOP JUMPDEST CALLVALUE DUP1 ISZERO PUSH2 0x29B JUMPI PUSH0 PUSH0 REVERT JUMPDEST POP PUSH2 0x2B6 PUSH1 0x4 DUP1 CALLDATASIZE SUB DUP2 ADD SWAP1 PUSH2 0x2B1 SWAP2 SWAP1 PUSH2 0x2B1A JUMP JUMPDEST PUSH2 0x117D JUMP JUMPDEST PUSH1 0x40 MLOAD PUSH2 0x2C3 SWAP2 SWAP1 PUSH2 0x2B87 JUMP JUMPDEST PUSH1 0x40 MLOAD DUP1 SWAP2 SUB SWAP1 RETURN JUMPDEST CALLVALUE DUP1 ISZERO PUSH2 0x2D7 JUMPI PUSH0 PUSH0 REVERT JUMPDEST POP PUSH2 0x2E0 PUSH2 0x119A JUMP JUMPDEST PUSH1 0x40 MLOAD PUSH2 0x2ED SWAP2 SWAP1 PUSH2 0x2B54 JUMP JUMPDEST PUSH1 0x40 MLOAD DUP1 SWAP2 SUB SWAP1 RETURN JUMPDEST CALLVALUE DUP1 ISZERO PUSH2 0x301 JUMPI PUSH0 PUSH0 REVERT JUMPDEST POP PUSH2 0x30A PUSH2 0x11A0 JUMP JUMPDEST STOP JUMPDEST CALLVALUE DUP1 ISZERO PUSH2 0x317 JUMPI PUSH0 PUSH0 REVERT JUMPDEST POP PUSH2 0x332 PUSH1 0x4 DUP1 CALLDATASIZE SUB DUP2 ADD SWAP1 PUSH2 0x32D SWAP2 SWAP1 PUSH2 0x2B1A JUMP JUMPDEST PUSH2 0x150B JUMP JUMPDEST PUSH1 0x40 MLOAD PUSH2 0x33F SWAP2 SWAP1 PUSH2 0x2B54 JUMP JUMPDEST PUSH1 0x40 MLOAD DUP1 SWAP2 SUB SWAP1 RETURN JUMPDEST CALLVALUE DUP1 ISZERO PUSH2 0x353 JUMPI PUSH0 PUSH0 REVERT JUMPDEST POP PUSH2 0x35C PUSH2 0x1520 JUMP JUMPDEST PUSH1 0x40 MLOAD PUSH2 0x369 SWAP2 SWAP1 PUSH2 0x2BAF JUMP JUMPDEST PUSH1 0x40 MLOAD DUP1 SWAP2 SUB SWAP1 RETURN JUMPDEST CALLVALUE DUP1 ISZERO PUSH2 0x37D JUMPI PUSH0 PUSH0 REVERT JUMPDEST POP PUSH2 0x386 PUSH2 0x1545 JUMP JUMPDEST PUSH1 0x40 MLOAD PUSH2 0x393 SWAP2 SWAP1 PUSH2 0x2B54 JUMP JUMPDEST PUSH1 0x40 MLOAD DUP1 SWAP2 SUB SWAP1 RETURN JUMPDEST CALLVALUE DUP1 ISZERO PUSH2 0x3A7 JUMPI PUSH0 PUSH0 REVERT JUMPDEST POP PUSH2 0x3B0 PUSH2 0x154B JUMP JUMPDEST PUSH1 0x40 MLOAD PUSH2 0x3BD SWAP2 SWAP1 PUSH2 0x2C3B JUMP JUMPDEST PUSH1 0x40 MLOAD DUP1 SWAP2 SUB SWAP1 RETURN JUMPDEST PUSH2 0x3CE PUSH2 0x155C JUMP JUMPDEST STOP JUMPDEST CALLVALUE DUP1 ISZERO PUSH2 0x3DB JUMPI PUSH0 PUSH0 REVERT JUMPDEST POP PUSH2 0x3E4 PUSH2 0x1999 JUMP JUMPDEST PUSH1 0x40 MLOAD PUSH2 0x3F1 SWAP2 SWAP1 PUSH2 0x2B54 JUMP JUMPDEST PUSH1 0x40 MLOAD DUP1 SWAP2 SUB SWAP1 RETURN JUMPDEST CALLVALUE DUP1 ISZERO PUSH2 0x405 JUMPI PUSH0 PUSH0 REVERT JUMPDEST POP PUSH2 0x40E PUSH2 0x199F JUMP JUMPDEST STOP JUMPDEST CALLVALUE DUP1 ISZERO PUSH2 0x41B JUMPI PUSH0 PUSH0 REVERT JUMPDEST POP PUSH2 0x424 PUSH2 0x1DD4 JUMP JUMPDEST STOP JUMPDEST CALLVALUE DUP1 ISZERO PUSH2 0x431 JUMPI PUSH0 PUSH0 REVERT JUMPDEST POP PUSH2 0x44C PUSH1 0x4 DUP1 CALLDATASIZE SUB DUP2 ADD SWAP1 PUSH2 0x447 SWAP2 SWAP1 PUSH2 0x2A95 JUMP JUMPDEST PUSH2 0x20DD JUMP JUMPDEST PUSH1 0x40 MLOAD PUSH2 0x461 SWAP10 SWAP9 SWAP8 SWAP7 SWAP6 SWAP5 SWAP4 SWAP3 SWAP2 SWAP1 PUSH2 0x2CE0 JUMP JUMPDEST PUSH1 0x40 MLOAD DUP1 SWAP2 SUB SWAP1 RETURN JUMPDEST PUSH1 0x1 DUP1 PUSH1 0x3 DUP2 GT ISZERO PUSH2 0x47F JUMPI PUSH2 0x47E PUSH2 0x2BC8 JUMP JUMPDEST JUMPDEST PUSH0 PUSH0 SWAP1 SLOAD SWAP1 PUSH2 0x100 EXP SWAP1 DIV PUSH1 0xFF AND PUSH1 0x3 DUP2 GT ISZERO PUSH2 0x49F JUMPI PUSH2 0x49E PUSH2 0x2BC8 JUMP JUMPDEST JUMPDEST EQ PUSH2 0x4DF JUMPI PUSH1 0x40 MLOAD PUSH32 0x8C379A000000000000000000000000000000000000000000000000000000000 DUP2 MSTORE PUSH1 0x4 ADD PUSH2 0x4D6 SWAP1 PUSH2 0x2DC5 JUMP JUMPDEST PUSH1 0x40 MLOAD DUP1 SWAP2 SUB SWAP1 REVERT JUMPDEST PUSH1 0x3 PUSH0 CALLER PUSH20 0xFFFFFFFFFFFFFFFFFFFFFFFFFFFFFFFFFFFFFFFF AND PUSH20 0xFFFFFFFFFFFFFFFFFFFFFFFFFFFFFFFFFFFFFFFF AND DUP2 MSTORE PUSH1 0x20 ADD SWAP1 DUP2 MSTORE PUSH1 0x20 ADD PUSH0 KECCAK256 PUSH0 SWAP1 SLOAD SWAP1 PUSH2 0x100 EXP SWAP1 DIV PUSH1 0xFF AND PUSH2 0x568 JUMPI PUSH1 0x40 MLOAD PUSH32 0x8C379A000000000000000000000000000000000000000000000000000000000 DUP2 MSTORE PUSH1 0x4 ADD PUSH2 0x55F SWAP1 PUSH2 0x2E2D JUMP JUMPDEST PUSH1 0x40 MLOAD DUP1 SWAP2 SUB SWAP1 REVERT JUMPDEST PUSH0 PUSH1 0x1 PUSH1 0x2 PUSH0 CALLER PUSH20 0xFFFFFFFFFFFFFFFFFFFFFFFFFFFFFFFFFFFFFFFF AND PUSH20 0xFFFFFFFFFFFFFFFFFFFFFFFFFFFFFFFFFFFFFFFF AND DUP2 MSTORE PUSH1 0x20 ADD SWAP1 DUP2 MSTORE PUSH1 0x20 ADD PUSH0 KECCAK256 SLOAD DUP2 SLOAD DUP2 LT PUSH2 0x5BA JUMPI PUSH2 0x5B9 PUSH2 0x2E4B JUMP JUMPDEST JUMPDEST SWAP1 PUSH0 MSTORE PUSH1 0x20 PUSH0 KECCAK256 SWAP1 PUSH1 0x6 MUL ADD SWAP1 POP PUSH0 DUP2 PUSH1 0x3 ADD SLOAD PUSH1 0x7 SLOAD PUSH2 0x5DB SWAP2 SWAP1 PUSH2 0x2EA5 JUMP JUMPDEST SWAP1 POP PUSH0 DUP5 DUP3 PUSH2 0x5EA SWAP2 SWAP1 PUSH2 0x2ED8 JUMP JUMPDEST SWAP1 POP PUSH0 DUP6 GT DUP1 ISZERO PUSH2 0x5FF JUMPI POP DUP1 DUP4 PUSH1 0x1 ADD SLOAD LT ISZERO JUMPDEST PUSH2 0x63E JUMPI PUSH1 0x40 MLOAD PUSH32 0x8C379A000000000000000000000000000000000000000000000000000000000 DUP2 MSTORE PUSH1 0x4 ADD PUSH2 0x635 SWAP1 PUSH2 0x2F55 JUMP JUMPDEST PUSH1 0x40 MLOAD DUP1 SWAP2 SUB SWAP1 REVERT JUMPDEST DUP1 DUP4 PUSH1 0x1 ADD PUSH0 DUP3 DUP3 SLOAD PUSH2 0x651 SWAP2 SWAP1 PUSH2 0x2EA5 JUMP JUMPDEST SWAP3 POP POP DUP2 SWAP1 SSTORE POP DUP1 DUP4 PUSH1 0x3 ADD PUSH0 DUP3 DUP3 SLOAD PUSH2 0x66B SWAP2 SWAP1 PUSH2 0x2ED8 JUMP JUMPDEST SWAP3 POP POP DUP2 SWAP1 SSTORE POP DUP1 PUSH1 0x6 PUSH0 DUP3 DUP3 SLOAD PUSH2 0x683 SWAP2 SWAP1 PUSH2 0x2ED8 JUMP JUMPDEST SWAP3 POP POP DUP2 SWAP1 SSTORE POP DUP3 PUSH1 0x3 ADD SLOAD PUSH1 0x7 DUP2 SWAP1 SSTORE POP PUSH1 0x3 DUP4 PUSH1 0x4 ADD PUSH0 PUSH2 0x100 EXP DUP2 SLOAD DUP2 PUSH1 0xFF MUL NOT AND SWAP1 DUP4 PUSH1 0x5 DUP2 GT ISZERO PUSH2 0x6BC JUMPI PUSH2 0x6BB PUSH2 0x2BC8 JUMP JUMPDEST JUMPDEST MUL OR SWAP1 SSTORE POP PUSH0 PUSH0 SWAP1 POP JUMPDEST PUSH1 0x1 DUP1 SLOAD SWAP1 POP DUP2 LT ISZERO PUSH2 0x7DA JUMPI PUSH1 0x1 DUP2 DUP2 SLOAD DUP2 LT PUSH2 0x6E7 JUMPI PUSH2 0x6E6 PUSH2 0x2E4B JUMP JUMPDEST JUMPDEST SWAP1 PUSH0 MSTORE PUSH1 0x20 PUSH0 KECCAK256 SWAP1 PUSH1 0x6 MUL ADD PUSH1 0x2 ADD PUSH1 0x1 SWAP1 SLOAD SWAP1 PUSH2 0x100 EXP SWAP1 DIV PUSH1 0xFF AND DUP1 ISZERO PUSH2 0x77D JUMPI POP CALLER PUSH20 0xFFFFFFFFFFFFFFFFFFFFFFFFFFFFFFFFFFFFFFFF AND PUSH1 0x1 DUP3 DUP2 SLOAD DUP2 LT PUSH2 0x736 JUMPI PUSH2 0x735 PUSH2 0x2E4B JUMP JUMPDEST JUMPDEST SWAP1 PUSH0 MSTORE PUSH1 0x20 PUSH0 KECCAK256 SWAP1 PUSH1 0x6 MUL ADD PUSH0 ADD PUSH0 SWAP1 SLOAD SWAP1 PUSH2 0x100 EXP SWAP1 DIV PUSH20 0xFFFFFFFFFFFFFFFFFFFFFFFFFFFFFFFFFFFFFFFF AND PUSH20 0xFFFFFFFFFFFFFFFFFFFFFFFFFFFFFFFFFFFFFFFF AND EQ ISZERO JUMPDEST ISZERO PUSH2 0x7CD JUMPI PUSH0 PUSH1 0x1 DUP3 DUP2 SLOAD DUP2 LT PUSH2 0x797 JUMPI PUSH2 0x796 PUSH2 0x2E4B JUMP JUMPDEST JUMPDEST SWAP1 PUSH0 MSTORE PUSH1 0x20 PUSH0 KECCAK256 SWAP1 PUSH1 0x6 MUL ADD PUSH1 0x4 ADD PUSH0 PUSH2 0x100 EXP DUP2 SLOAD DUP2 PUSH1 0xFF MUL NOT AND SWAP1 DUP4 PUSH1 0x5 DUP2 GT ISZERO PUSH2 0x7C7 JUMPI PUSH2 0x7C6 PUSH2 0x2BC8 JUMP JUMPDEST JUMPDEST MUL OR SWAP1 SSTORE POP JUMPDEST DUP1 DUP1 PUSH1 0x1 ADD SWAP2 POP POP PUSH2 0x6C6 JUMP JUMPDEST POP CALLER PUSH20 0xFFFFFFFFFFFFFFFFFFFFFFFFFFFFFFFFFFFFFFFF AND PUSH32 0x67C29155F1EFDE8516A854AD304AD39DBF9A2F4EDAF7294FCE3E7DB25AF24F7B PUSH1 0x3 DUP8 PUSH1 0x40 MLOAD PUSH2 0x824 SWAP3 SWAP2 SWAP1 PUSH2 0x2F73 JUMP JUMPDEST PUSH1 0x40 MLOAD DUP1 SWAP2 SUB SWAP1 LOG2 PUSH2 0x834 PUSH2 0x2194 JUMP JUMPDEST POP POP POP POP POP JUMP JUMPDEST PUSH1 0x5 PUSH1 0x20 MSTORE DUP1 PUSH0 MSTORE PUSH1 0x40 PUSH0 KECCAK256 PUSH0 SWAP2 POP SWAP1 POP SLOAD DUP2 JUMP JUMPDEST PUSH1 0x4 PUSH1 0x20 MSTORE DUP1 PUSH0 MSTORE PUSH1 0x40 PUSH0 KECCAK256 PUSH0 SWAP2 POP SWAP1 POP SLOAD DUP2 JUMP JUMPDEST PUSH7 0x38D7EA4C68000 CALLVALUE LT ISZERO DUP1 ISZERO PUSH2 0x88D JUMPI POP PUSH0 PUSH7 0x38D7EA4C68000 CALLVALUE PUSH2 0x88B SWAP2 SWAP1 PUSH2 0x2FC7 JUMP JUMPDEST EQ JUMPDEST PUSH2 0x8CC JUMPI PUSH1 0x40 MLOAD PUSH32 0x8C379A000000000000000000000000000000000000000000000000000000000 DUP2 MSTORE PUSH1 0x4 ADD PUSH2 0x8C3 SWAP1 PUSH2 0x3041 JUMP JUMPDEST PUSH1 0x40 MLOAD DUP1 SWAP2 SUB SWAP1 REVERT JUMPDEST PUSH0 PUSH7 0x38D7EA4C68000 PUSH1 0x14 CALLVALUE PUSH2 0x8E2 SWAP2 SWAP1 PUSH2 0x305F JUMP JUMPDEST PUSH2 0x8EC SWAP2 SWAP1 PUSH2 0x30A0 JUMP JUMPDEST SWAP1 POP PUSH1 0x3 PUSH0 CALLER PUSH20 0xFFFFFFFFFFFFFFFFFFFFFFFFFFFFFFFFFFFFFFFF AND PUSH20 0xFFFFFFFFFFFFFFFFFFFFFFFFFFFFFFFFFFFFFFFF AND DUP2 MSTORE PUSH1 0x20 ADD SWAP1 DUP2 MSTORE PUSH1 0x20 ADD PUSH0 KECCAK256 PUSH0 SWAP1 SLOAD SWAP1 PUSH2 0x100 EXP SWAP1 DIV PUSH1 0xFF AND ISZERO PUSH2 0x9B4 JUMPI DUP1 PUSH1 0x1 PUSH1 0x2 PUSH0 CALLER PUSH20 0xFFFFFFFFFFFFFFFFFFFFFFFFFFFFFFFFFFFFFFFF AND PUSH20 0xFFFFFFFFFFFFFFFFFFFFFFFFFFFFFFFFFFFFFFFF AND DUP2 MSTORE PUSH1 0x20 ADD SWAP1 DUP2 MSTORE PUSH1 0x20 ADD PUSH0 KECCAK256 SLOAD DUP2 SLOAD DUP2 LT PUSH2 0x98F JUMPI PUSH2 0x98E PUSH2 0x2E4B JUMP JUMPDEST JUMPDEST SWAP1 PUSH0 MSTORE PUSH1 0x20 PUSH0 KECCAK256 SWAP1 PUSH1 0x6 MUL ADD PUSH1 0x1 ADD PUSH0 DUP3 DUP3 SLOAD PUSH2 0x9AC SWAP2 SWAP1 PUSH2 0x2ED8 JUMP JUMPDEST SWAP3 POP POP DUP2 SWAP1 SSTORE POP JUMPDEST PUSH32 0x85637B17E1B2F58EE0BD3B882C032092A3B8453F44026DC397BE30023BF78696 CALLER DUP3 PUSH1 0x40 MLOAD PUSH2 0x9E5 SWAP3 SWAP2 SWAP1 PUSH2 0x30D0 JUMP JUMPDEST PUSH1 0x40 MLOAD DUP1 SWAP2 SUB SWAP1 LOG1 POP JUMP JUMPDEST PUSH1 0xA SLOAD DUP2 JUMP JUMPDEST PUSH1 0x6 SLOAD DUP2 JUMP JUMPDEST PUSH0 DUP2 GT PUSH2 0xA3E JUMPI PUSH1 0x40 MLOAD PUSH32 0x8C379A000000000000000000000000000000000000000000000000000000000 DUP2 MSTORE PUSH1 0x4 ADD PUSH2 0xA35 SWAP1 PUSH2 0x3141 JUMP JUMPDEST PUSH1 0x40 MLOAD DUP1 SWAP2 SUB SWAP1 REVERT JUMPDEST PUSH1 0x3 PUSH0 CALLER PUSH20 0xFFFFFFFFFFFFFFFFFFFFFFFFFFFFFFFFFFFFFFFF AND PUSH20 0xFFFFFFFFFFFFFFFFFFFFFFFFFFFFFFFFFFFFFFFF AND DUP2 MSTORE PUSH1 0x20 ADD SWAP1 DUP2 MSTORE PUSH1 0x20 ADD PUSH0 KECCAK256 PUSH0 SWAP1 SLOAD SWAP1 PUSH2 0x100 EXP SWAP1 DIV PUSH1 0xFF AND ISZERO PUSH2 0xAC8 JUMPI PUSH1 0x40 MLOAD PUSH32 0x8C379A000000000000000000000000000000000000000000000000000000000 DUP2 MSTORE PUSH1 0x4 ADD PUSH2 0xABF SWAP1 PUSH2 0x31A9 JUMP JUMPDEST PUSH1 0x40 MLOAD DUP1 SWAP2 SUB SWAP1 REVERT JUMPDEST PUSH0 PUSH6 0x2D79883D2000 DUP3 PUSH2 0xADB SWAP2 SWAP1 PUSH2 0x305F JUMP JUMPDEST SWAP1 POP DUP1 SELFBALANCE LT ISZERO PUSH2 0xB20 JUMPI PUSH1 0x40 MLOAD PUSH32 0x8C379A000000000000000000000000000000000000000000000000000000000 DUP2 MSTORE PUSH1 0x4 ADD PUSH2 0xB17 SWAP1 PUSH2 0x3211 JUMP JUMPDEST PUSH1 0x40 MLOAD DUP1 SWAP2 SUB SWAP1 REVERT JUMPDEST CALLER PUSH20 0xFFFFFFFFFFFFFFFFFFFFFFFFFFFFFFFFFFFFFFFF AND PUSH2 0x8FC DUP3 SWAP1 DUP2 ISZERO MUL SWAP1 PUSH1 0x40 MLOAD PUSH0 PUSH1 0x40 MLOAD DUP1 DUP4 SUB DUP2 DUP6 DUP9 DUP9 CALL SWAP4 POP POP POP POP ISZERO DUP1 ISZERO PUSH2 0xB63 JUMPI RETURNDATASIZE PUSH0 PUSH0 RETURNDATACOPY RETURNDATASIZE PUSH0 REVERT JUMPDEST POP PUSH32 0x10A411A628953C6FACFF7CF4822B3C924B8B4CC322922727569C217B636505A8 CALLER DUP4 DUP4 PUSH1 0x40 MLOAD PUSH2 0xB97 SWAP4 SWAP3 SWAP2 SWAP1 PUSH2 0x322F JUMP JUMPDEST PUSH1 0x40 MLOAD DUP1 SWAP2 SUB SWAP1 LOG1 POP POP JUMP JUMPDEST PUSH1 0x3 PUSH0 CALLER PUSH20 0xFFFFFFFFFFFFFFFFFFFFFFFFFFFFFFFFFFFFFFFF AND PUSH20 0xFFFFFFFFFFFFFFFFFFFFFFFFFFFFFFFFFFFFFFFF AND DUP2 MSTORE PUSH1 0x20 ADD SWAP1 DUP2 MSTORE PUSH1 0x20 ADD PUSH0 KECCAK256 PUSH0 SWAP1 SLOAD SWAP1 PUSH2 0x100 EXP SWAP1 DIV PUSH1 0xFF AND PUSH2 0xC2C JUMPI PUSH1 0x40 MLOAD PUSH32 0x8C379A000000000000000000000000000000000000000000000000000000000 DUP2 MSTORE PUSH1 0x4 ADD PUSH2 0xC23 SWAP1 PUSH2 0x2E2D JUMP JUMPDEST PUSH1 0x40 MLOAD DUP1 SWAP2 SUB SWAP1 REVERT JUMPDEST PUSH0 PUSH1 0x2 PUSH0 CALLER PUSH20 0xFFFFFFFFFFFFFFFFFFFFFFFFFFFFFFFFFFFFFFFF AND PUSH20 0xFFFFFFFFFFFFFFFFFFFFFFFFFFFFFFFFFFFFFFFF AND DUP2 MSTORE PUSH1 0x20 ADD SWAP1 DUP2 MSTORE PUSH1 0x20 ADD PUSH0 KECCAK256 SLOAD SWAP1 POP PUSH0 PUSH1 0x1 DUP3 DUP2 SLOAD DUP2 LT PUSH2 0xC82 JUMPI PUSH2 0xC81 PUSH2 0x2E4B JUMP JUMPDEST JUMPDEST SWAP1 PUSH0 MSTORE PUSH1 0x20 PUSH0 KECCAK256 SWAP1 PUSH1 0x6 MUL ADD SWAP1 POP PUSH0 PUSH1 0x3 DUP2 GT ISZERO PUSH2 0xCA3 JUMPI PUSH2 0xCA2 PUSH2 0x2BC8 JUMP JUMPDEST JUMPDEST PUSH0 PUSH0 SWAP1 SLOAD SWAP1 PUSH2 0x100 EXP SWAP1 DIV PUSH1 0xFF AND PUSH1 0x3 DUP2 GT ISZERO PUSH2 0xCC3 JUMPI PUSH2 0xCC2 PUSH2 0x2BC8 JUMP JUMPDEST JUMPDEST EQ DUP1 PUSH2 0xCDD JUMPI POP DUP1 PUSH1 0x2 ADD PUSH1 0x1 SWAP1 SLOAD SWAP1 PUSH2 0x100 EXP SWAP1 DIV PUSH1 0xFF AND JUMPDEST PUSH2 0xD1C JUMPI PUSH1 0x40 MLOAD PUSH32 0x8C379A000000000000000000000000000000000000000000000000000000000 DUP2 MSTORE PUSH1 0x4 ADD PUSH2 0xD13 SWAP1 PUSH2 0x32AE JUMP JUMPDEST PUSH1 0x40 MLOAD DUP1 SWAP2 SUB SWAP1 REVERT JUMPDEST PUSH2 0xD2A CALLER DUP3 PUSH1 0x1 ADD SLOAD PUSH2 0x2273 JUMP JUMPDEST PUSH0 DUP2 PUSH1 0x2 ADD PUSH1 0x1 PUSH2 0x100 EXP DUP2 SLOAD DUP2 PUSH1 0xFF MUL NOT AND SWAP1 DUP4 ISZERO ISZERO MUL OR SWAP1 SSTORE POP PUSH0 PUSH1 0x3 PUSH0 CALLER PUSH20 0xFFFFFFFFFFFFFFFFFFFFFFFFFFFFFFFFFFFFFFFF AND PUSH20 0xFFFFFFFFFFFFFFFFFFFFFFFFFFFFFFFFFFFFFFFF AND DUP2 MSTORE PUSH1 0x20 ADD SWAP1 DUP2 MSTORE PUSH1 0x20 ADD PUSH0 KECCAK256 PUSH0 PUSH2 0x100 EXP DUP2 SLOAD DUP2 PUSH1 0xFF MUL NOT AND SWAP1 DUP4 ISZERO ISZERO MUL OR SWAP1 SSTORE POP PUSH1 0xA PUSH0 DUP2 SLOAD DUP1 SWAP3 SWAP2 SWAP1 PUSH2 0xDAC SWAP1 PUSH2 0x32CC JUMP JUMPDEST SWAP2 SWAP1 POP SSTORE POP CALLER PUSH20 0xFFFFFFFFFFFFFFFFFFFFFFFFFFFFFFFFFFFFFFFF AND PUSH32 0x8F68D81A4F1AAB885E5461D1CE75736AFF7E07D3DE92B4335AFC79F8CD8CB1B4 PUSH1 0x40 MLOAD PUSH1 0x40 MLOAD DUP1 SWAP2 SUB SWAP1 LOG2 POP POP JUMP JUMPDEST PUSH1 0x1 DUP1 PUSH1 0x3 DUP2 GT ISZERO PUSH2 0xE0D JUMPI PUSH2 0xE0C PUSH2 0x2BC8 JUMP JUMPDEST JUMPDEST PUSH0 PUSH0 SWAP1 SLOAD SWAP1 PUSH2 0x100 EXP SWAP1 DIV PUSH1 0xFF AND PUSH1 0x3 DUP2 GT ISZERO PUSH2 0xE2D JUMPI PUSH2 0xE2C PUSH2 0x2BC8 JUMP JUMPDEST JUMPDEST EQ PUSH2 0xE6D JUMPI PUSH1 0x40 MLOAD PUSH32 0x8C379A000000000000000000000000000000000000000000000000000000000 DUP2 MSTORE PUSH1 0x4 ADD PUSH2 0xE64 SWAP1 PUSH2 0x2DC5 JUMP JUMPDEST PUSH1 0x40 MLOAD DUP1 SWAP2 SUB SWAP1 REVERT JUMPDEST PUSH1 0x3 PUSH0 CALLER PUSH20 0xFFFFFFFFFFFFFFFFFFFFFFFFFFFFFFFFFFFFFFFF AND PUSH20 0xFFFFFFFFFFFFFFFFFFFFFFFFFFFFFFFFFFFFFFFF AND DUP2 MSTORE PUSH1 0x20 ADD SWAP1 DUP2 MSTORE PUSH1 0x20 ADD PUSH0 KECCAK256 PUSH0 SWAP1 SLOAD SWAP1 PUSH2 0x100 EXP SWAP1 DIV PUSH1 0xFF AND PUSH2 0xEF6 JUMPI PUSH1 0x40 MLOAD PUSH32 0x8C379A000000000000000000000000000000000000000000000000000000000 DUP2 MSTORE PUSH1 0x4 ADD PUSH2 0xEED SWAP1 PUSH2 0x2E2D JUMP JUMPDEST PUSH1 0x40 MLOAD DUP1 SWAP2 SUB SWAP1 REVERT JUMPDEST PUSH0 PUSH1 0x1 PUSH1 0x2 PUSH0 CALLER PUSH20 0xFFFFFFFFFFFFFFFFFFFFFFFFFFFFFFFFFFFFFFFF AND PUSH20 0xFFFFFFFFFFFFFFFFFFFFFFFFFFFFFFFFFFFFFFFF AND DUP2 MSTORE PUSH1 0x20 ADD SWAP1 DUP2 MSTORE PUSH1 0x20 ADD PUSH0 KECCAK256 SLOAD DUP2 SLOAD DUP2 LT PUSH2 0xF48 JUMPI PUSH2 0xF47 PUSH2 0x2E4B JUMP JUMPDEST JUMPDEST SWAP1 PUSH0 MSTORE PUSH1 0x20 PUSH0 KECCAK256 SWAP1 PUSH1 0x6 MUL ADD SWAP1 POP DUP1 PUSH1 0x2 ADD PUSH1 0x1 SWAP1 SLOAD SWAP1 PUSH2 0x100 EXP SWAP1 DIV PUSH1 0xFF AND DUP1 ISZERO PUSH2 0xF83 JUMPI POP DUP1 PUSH1 0x2 ADD PUSH1 0x2 SWAP1 SLOAD SWAP1 PUSH2 0x100 EXP SWAP1 DIV PUSH1 0xFF AND ISZERO JUMPDEST PUSH2 0xFC2 JUMPI PUSH1 0x40 MLOAD PUSH32 0x8C379A000000000000000000000000000000000000000000000000000000000 DUP2 MSTORE PUSH1 0x4 ADD PUSH2 0xFB9 SWAP1 PUSH2 0x333D JUMP JUMPDEST PUSH1 0x40 MLOAD DUP1 SWAP2 SUB SWAP1 REVERT JUMPDEST PUSH1 0x9 SLOAD DUP4 LT ISZERO DUP1 ISZERO PUSH2 0xFD8 JUMPI POP DUP3 DUP2 PUSH1 0x1 ADD SLOAD LT ISZERO JUMPDEST PUSH2 0x1017 JUMPI PUSH1 0x40 MLOAD PUSH32 0x8C379A000000000000000000000000000000000000000000000000000000000 DUP2 MSTORE PUSH1 0x4 ADD PUSH2 0x100E SWAP1 PUSH2 0x33A5 JUMP JUMPDEST PUSH1 0x40 MLOAD DUP1 SWAP2 SUB SWAP1 REVERT JUMPDEST PUSH0 PUSH1 0x5 DUP2 GT ISZERO PUSH2 0x102A JUMPI PUSH2 0x1029 PUSH2 0x2BC8 JUMP JUMPDEST JUMPDEST DUP2 PUSH1 0x4 ADD PUSH0 SWAP1 SLOAD SWAP1 PUSH2 0x100 EXP SWAP1 DIV PUSH1 0xFF AND PUSH1 0x5 DUP2 GT ISZERO PUSH2 0x104D JUMPI PUSH2 0x104C PUSH2 0x2BC8 JUMP JUMPDEST JUMPDEST EQ PUSH2 0x108D JUMPI PUSH1 0x40 MLOAD PUSH32 0x8C379A000000000000000000000000000000000000000000000000000000000 DUP2 MSTORE PUSH1 0x4 ADD PUSH2 0x1084 SWAP1 PUSH2 0x340D JUMP JUMPDEST PUSH1 0x40 MLOAD DUP1 SWAP2 SUB SWAP1 REVERT JUMPDEST DUP3 DUP2 PUSH1 0x1 ADD PUSH0 DUP3 DUP3 SLOAD PUSH2 0x10A0 SWAP2 SWAP1 PUSH2 0x2EA5 JUMP JUMPDEST SWAP3 POP POP DUP2 SWAP1 SSTORE POP DUP3 DUP2 PUSH1 0x3 ADD PUSH0 DUP3 DUP3 SLOAD PUSH2 0x10BA SWAP2 SWAP1 PUSH2 0x2ED8 JUMP JUMPDEST SWAP3 POP POP DUP2 SWAP1 SSTORE POP DUP3 PUSH1 0x6 PUSH0 DUP3 DUP3 SLOAD PUSH2 0x10D2 SWAP2 SWAP1 PUSH2 0x2ED8 JUMP JUMPDEST SWAP3 POP POP DUP2 SWAP1 SSTORE POP PUSH1 0x7 SLOAD DUP2 PUSH1 0x3 ADD SLOAD GT ISZERO PUSH2 0x10F3 JUMPI DUP1 PUSH1 0x3 ADD SLOAD PUSH1 0x7 DUP2 SWAP1 SSTORE POP JUMPDEST PUSH1 0x1 DUP2 PUSH1 0x4 ADD PUSH0 PUSH2 0x100 EXP DUP2 SLOAD DUP2 PUSH1 0xFF MUL NOT AND SWAP1 DUP4 PUSH1 0x5 DUP2 GT ISZERO PUSH2 0x111A JUMPI PUSH2 0x1119 PUSH2 0x2BC8 JUMP JUMPDEST JUMPDEST MUL OR SWAP1 SSTORE POP CALLER PUSH20 0xFFFFFFFFFFFFFFFFFFFFFFFFFFFFFFFFFFFFFFFF AND PUSH32 0x67C29155F1EFDE8516A854AD304AD39DBF9A2F4EDAF7294FCE3E7DB25AF24F7B PUSH1 0x1 DUP6 PUSH1 0x40 MLOAD PUSH2 0x1168 SWAP3 SWAP2 SWAP1 PUSH2 0x2F73 JUMP JUMPDEST PUSH1 0x40 MLOAD DUP1 SWAP2 SUB SWAP1 LOG2 PUSH2 0x1178 PUSH2 0x2194 JUMP JUMPDEST POP POP POP JUMP JUMPDEST PUSH1 0x3 PUSH1 0x20 MSTORE DUP1 PUSH0 MSTORE PUSH1 0x40 PUSH0 KECCAK256 PUSH0 SWAP2 POP SLOAD SWAP1 PUSH2 0x100 EXP SWAP1 DIV PUSH1 0xFF AND DUP2 JUMP JUMPDEST PUSH1 0x8 SLOAD DUP2 JUMP JUMPDEST PUSH1 0x1 DUP1 PUSH1 0x3 DUP2 GT ISZERO PUSH2 0x11B5 JUMPI PUSH2 0x11B4 PUSH2 0x2BC8 JUMP JUMPDEST JUMPDEST PUSH0 PUSH0 SWAP1 SLOAD SWAP1 PUSH2 0x100 EXP SWAP1 DIV PUSH1 0xFF AND PUSH1 0x3 DUP2 GT ISZERO PUSH2 0x11D5 JUMPI PUSH2 0x11D4 PUSH2 0x2BC8 JUMP JUMPDEST JUMPDEST EQ PUSH2 0x1215 JUMPI PUSH1 0x40 MLOAD PUSH32 0x8C379A000000000000000000000000000000000000000000000000000000000 DUP2 MSTORE PUSH1 0x4 ADD PUSH2 0x120C SWAP1 PUSH2 0x2DC5 JUMP JUMPDEST PUSH1 0x40 MLOAD DUP1 SWAP2 SUB SWAP1 REVERT JUMPDEST PUSH1 0x3 PUSH0 CALLER PUSH20 0xFFFFFFFFFFFFFFFFFFFFFFFFFFFFFFFFFFFFFFFF AND PUSH20 0xFFFFFFFFFFFFFFFFFFFFFFFFFFFFFFFFFFFFFFFF AND DUP2 MSTORE PUSH1 0x20 ADD SWAP1 DUP2 MSTORE PUSH1 0x20 ADD PUSH0 KECCAK256 PUSH0 SWAP1 SLOAD SWAP1 PUSH2 0x100 EXP SWAP1 DIV PUSH1 0xFF AND PUSH2 0x129E JUMPI PUSH1 0x40 MLOAD PUSH32 0x8C379A000000000000000000000000000000000000000000000000000000000 DUP2 MSTORE PUSH1 0x4 ADD PUSH2 0x1295 SWAP1 PUSH2 0x2E2D JUMP JUMPDEST PUSH1 0x40 MLOAD DUP1 SWAP2 SUB SWAP1 REVERT JUMPDEST PUSH0 PUSH1 0x1 PUSH1 0x2 PUSH0 CALLER PUSH20 0xFFFFFFFFFFFFFFFFFFFFFFFFFFFFFFFFFFFFFFFF AND PUSH20 0xFFFFFFFFFFFFFFFFFFFFFFFFFFFFFFFFFFFFFFFF AND DUP2 MSTORE PUSH1 0x20 ADD SWAP1 DUP2 MSTORE PUSH1 0x20 ADD PUSH0 KECCAK256 SLOAD DUP2 SLOAD DUP2 LT PUSH2 0x12F0 JUMPI PUSH2 0x12EF PUSH2 0x2E4B JUMP JUMPDEST JUMPDEST SWAP1 PUSH0 MSTORE PUSH1 0x20 PUSH0 KECCAK256 SWAP1 PUSH1 0x6 MUL ADD SWAP1 POP PUSH0 DUP2 PUSH1 0x3 ADD SLOAD PUSH1 0x7 SLOAD PUSH2 0x1311 SWAP2 SWAP1 PUSH2 0x2EA5 JUMP JUMPDEST SWAP1 POP PUSH0 DUP2 GT DUP1 ISZERO PUSH2 0x1325 JUMPI POP PUSH0 DUP3 PUSH1 0x1 ADD SLOAD GT JUMPDEST PUSH2 0x1364 JUMPI PUSH1 0x40 MLOAD PUSH32 0x8C379A000000000000000000000000000000000000000000000000000000000 DUP2 MSTORE PUSH1 0x4 ADD PUSH2 0x135B SWAP1 PUSH2 0x3475 JUMP JUMPDEST PUSH1 0x40 MLOAD DUP1 SWAP2 SUB SWAP1 REVERT JUMPDEST PUSH0 DUP2 DUP4 PUSH1 0x1 ADD SLOAD GT ISZERO PUSH2 0x1377 JUMPI DUP2 PUSH2 0x137D JUMP JUMPDEST DUP3 PUSH1 0x1 ADD SLOAD JUMPDEST SWAP1 POP DUP1 DUP4 PUSH1 0x1 ADD PUSH0 DUP3 DUP3 SLOAD PUSH2 0x1392 SWAP2 SWAP1 PUSH2 0x2EA5 JUMP JUMPDEST SWAP3 POP POP DUP2 SWAP1 SSTORE POP DUP1 DUP4 PUSH1 0x3 ADD PUSH0 DUP3 DUP3 SLOAD PUSH2 0x13AC SWAP2 SWAP1 PUSH2 0x2ED8 JUMP JUMPDEST SWAP3 POP POP DUP2 SWAP1 SSTORE POP DUP1 PUSH1 0x6 PUSH0 DUP3 DUP3 SLOAD PUSH2 0x13C4 SWAP2 SWAP1 PUSH2 0x2ED8 JUMP JUMPDEST SWAP3 POP POP DUP2 SWAP1 SSTORE POP DUP2 DUP2 LT ISZERO PUSH2 0x147F JUMPI PUSH1 0x1 DUP4 PUSH1 0x4 ADD PUSH1 0x1 PUSH2 0x100 EXP DUP2 SLOAD DUP2 PUSH1 0xFF MUL NOT AND SWAP1 DUP4 ISZERO ISZERO MUL OR SWAP1 SSTORE POP DUP3 PUSH1 0x3 ADD SLOAD DUP4 PUSH1 0x5 ADD DUP2 SWAP1 SSTORE POP PUSH1 0x5 DUP4 PUSH1 0x4 ADD PUSH0 PUSH2 0x100 EXP DUP2 SLOAD DUP2 PUSH1 0xFF MUL NOT AND SWAP1 DUP4 PUSH1 0x5 DUP2 GT ISZERO PUSH2 0x1424 JUMPI PUSH2 0x1423 PUSH2 0x2BC8 JUMP JUMPDEST JUMPDEST MUL OR SWAP1 SSTORE POP CALLER PUSH20 0xFFFFFFFFFFFFFFFFFFFFFFFFFFFFFFFFFFFFFFFF AND PUSH32 0x67C29155F1EFDE8516A854AD304AD39DBF9A2F4EDAF7294FCE3E7DB25AF24F7B PUSH1 0x5 DUP4 PUSH1 0x40 MLOAD PUSH2 0x1472 SWAP3 SWAP2 SWAP1 PUSH2 0x2F73 JUMP JUMPDEST PUSH1 0x40 MLOAD DUP1 SWAP2 SUB SWAP1 LOG2 PUSH2 0x14FD JUMP JUMPDEST PUSH1 0x2 DUP4 PUSH1 0x4 ADD PUSH0 PUSH2 0x100 EXP DUP2 SLOAD DUP2 PUSH1 0xFF MUL NOT AND SWAP1 DUP4 PUSH1 0x5 DUP2 GT ISZERO PUSH2 0x14A6 JUMPI PUSH2 0x14A5 PUSH2 0x2BC8 JUMP JUMPDEST JUMPDEST MUL OR SWAP1 SSTORE POP CALLER PUSH20 0xFFFFFFFFFFFFFFFFFFFFFFFFFFFFFFFFFFFFFFFF AND PUSH32 0x67C29155F1EFDE8516A854AD304AD39DBF9A2F4EDAF7294FCE3E7DB25AF24F7B PUSH1 0x2 DUP4 PUSH1 0x40 MLOAD PUSH2 0x14F4 SWAP3 SWAP2 SWAP1 PUSH2 0x2F73 JUMP JUMPDEST PUSH1 0x40 MLOAD DUP1 SWAP2 SUB SWAP1 LOG2 JUMPDEST PUSH2 0x1505 PUSH2 0x2194 JUMP JUMPDEST POP POP POP POP JUMP JUMPDEST PUSH1 0x2 PUSH1 0x20 MSTORE DUP1 PUSH0 MSTORE PUSH1 0x40 PUSH0 KECCAK256 PUSH0 SWAP2 POP SWAP1 POP SLOAD DUP2 JUMP JUMPDEST PUSH0 PUSH1 0x1 SWAP1 SLOAD SWAP1 PUSH2 0x100 EXP SWAP1 DIV PUSH20 0xFFFFFFFFFFFFFFFFFFFFFFFFFFFFFFFFFFFFFFFF AND DUP2 JUMP JUMPDEST PUSH1 0x9 SLOAD DUP2 JUMP JUMPDEST PUSH0 PUSH0 SWAP1 SLOAD SWAP1 PUSH2 0x100 EXP SWAP1 DIV PUSH1 0xFF AND DUP2 JUMP JUMPDEST PUSH0 DUP1 PUSH1 0x3 DUP2 GT ISZERO PUSH2 0x1570 JUMPI PUSH2 0x156F PUSH2 0x2BC8 JUMP JUMPDEST JUMPDEST PUSH0 PUSH0 SWAP1 SLOAD SWAP1 PUSH2 0x100 EXP SWAP1 DIV PUSH1 0xFF AND PUSH1 0x3 DUP2 GT ISZERO PUSH2 0x1590 JUMPI PUSH2 0x158F PUSH2 0x2BC8 JUMP JUMPDEST JUMPDEST EQ PUSH2 0x15D0 JUMPI PUSH1 0x40 MLOAD PUSH32 0x8C379A000000000000000000000000000000000000000000000000000000000 DUP2 MSTORE PUSH1 0x4 ADD PUSH2 0x15C7 SWAP1 PUSH2 0x2DC5 JUMP JUMPDEST PUSH1 0x40 MLOAD DUP1 SWAP2 SUB SWAP1 REVERT JUMPDEST PUSH2 0x15D8 PUSH2 0x2907 JUMP JUMPDEST PUSH1 0x14 DUP2 PUSH1 0x20 ADD MLOAD LT PUSH2 0x1995 JUMPI PUSH1 0x3 PUSH0 CALLER PUSH20 0xFFFFFFFFFFFFFFFFFFFFFFFFFFFFFFFFFFFFFFFF AND PUSH20 0xFFFFFFFFFFFFFFFFFFFFFFFFFFFFFFFFFFFFFFFF AND DUP2 MSTORE PUSH1 0x20 ADD SWAP1 DUP2 MSTORE PUSH1 0x20 ADD PUSH0 KECCAK256 PUSH0 SWAP1 SLOAD SWAP1 PUSH2 0x100 EXP SWAP1 DIV PUSH1 0xFF AND ISZERO PUSH2 0x166E JUMPI PUSH1 0x40 MLOAD PUSH32 0x8C379A000000000000000000000000000000000000000000000000000000000 DUP2 MSTORE PUSH1 0x4 ADD PUSH2 0x1665 SWAP1 PUSH2 0x34DD JUMP JUMPDEST PUSH1 0x40 MLOAD DUP1 SWAP2 SUB SWAP1 REVERT JUMPDEST PUSH7 0x38D7EA4C68000 CALLVALUE EQ PUSH2 0x16B7 JUMPI PUSH1 0x40 MLOAD PUSH32 0x8C379A000000000000000000000000000000000000000000000000000000000 DUP2 MSTORE PUSH1 0x4 ADD PUSH2 0x16AE SWAP1 PUSH2 0x3545 JUMP JUMPDEST PUSH1 0x40 MLOAD DUP1 SWAP2 SUB SWAP1 REVERT JUMPDEST PUSH1 0x6 PUSH1 0x1 DUP1 SLOAD SWAP1 POP LT PUSH2 0x16FF JUMPI PUSH1 0x40 MLOAD PUSH32 0x8C379A000000000000000000000000000000000000000000000000000000000 DUP2 MSTORE PUSH1 0x4 ADD PUSH2 0x16F6 SWAP1 PUSH2 0x35AD JUMP JUMPDEST PUSH1 0x40 MLOAD DUP1 SWAP2 SUB SWAP1 REVERT JUMPDEST CALLER DUP2 PUSH0 ADD SWAP1 PUSH20 0xFFFFFFFFFFFFFFFFFFFFFFFFFFFFFFFFFFFFFFFF AND SWAP1 DUP2 PUSH20 0xFFFFFFFFFFFFFFFFFFFFFFFFFFFFFFFFFFFFFFFF AND DUP2 MSTORE POP POP PUSH1 0x1 DUP2 PUSH1 0x60 ADD SWAP1 ISZERO ISZERO SWAP1 DUP2 ISZERO ISZERO DUP2 MSTORE POP POP PUSH1 0x1 DUP2 SWAP1 DUP1 PUSH1 0x1 DUP2 SLOAD ADD DUP1 DUP3 SSTORE DUP1 SWAP2 POP POP PUSH1 0x1 SWAP1 SUB SWAP1 PUSH0 MSTORE PUSH1 0x20 PUSH0 KECCAK256 SWAP1 PUSH1 0x6 MUL ADD PUSH0 SWAP1 SWAP2 SWAP1 SWAP2 SWAP1 SWAP2 POP PUSH0 DUP3 ADD MLOAD DUP2 PUSH0 ADD PUSH0 PUSH2 0x100 EXP DUP2 SLOAD DUP2 PUSH20 0xFFFFFFFFFFFFFFFFFFFFFFFFFFFFFFFFFFFFFFFF MUL NOT AND SWAP1 DUP4 PUSH20 0xFFFFFFFFFFFFFFFFFFFFFFFFFFFFFFFFFFFFFFFF AND MUL OR SWAP1 SSTORE POP PUSH1 0x20 DUP3 ADD MLOAD DUP2 PUSH1 0x1 ADD SSTORE PUSH1 0x40 DUP3 ADD MLOAD DUP2 PUSH1 0x2 ADD PUSH0 PUSH2 0x100 EXP DUP2 SLOAD DUP2 PUSH1 0xFF MUL NOT AND SWAP1 DUP4 PUSH1 0xD DUP2 GT ISZERO PUSH2 0x17E8 JUMPI PUSH2 0x17E7 PUSH2 0x2BC8 JUMP JUMPDEST JUMPDEST MUL OR SWAP1 SSTORE POP PUSH1 0x60 DUP3 ADD MLOAD DUP2 PUSH1 0x2 ADD PUSH1 0x1 PUSH2 0x100 EXP DUP2 SLOAD DUP2 PUSH1 0xFF MUL NOT AND SWAP1 DUP4 ISZERO ISZERO MUL OR SWAP1 SSTORE POP PUSH1 0x80 DUP3 ADD MLOAD DUP2 PUSH1 0x2 ADD PUSH1 0x2 PUSH2 0x100 EXP DUP2 SLOAD DUP2 PUSH1 0xFF MUL NOT AND SWAP1 DUP4 ISZERO ISZERO MUL OR SWAP1 SSTORE POP PUSH1 0xA0 DUP3 ADD MLOAD DUP2 PUSH1 0x3 ADD SSTORE PUSH1 0xC0 DUP3 ADD MLOAD DUP2 PUSH1 0x4 ADD PUSH0 PUSH2 0x100 EXP DUP2 SLOAD DUP2 PUSH1 0xFF MUL NOT AND SWAP1 DUP4 PUSH1 0x5 DUP2 GT ISZERO PUSH2 0x1861 JUMPI PUSH2 0x1860 PUSH2 0x2BC8 JUMP JUMPDEST JUMPDEST MUL OR SWAP1 SSTORE POP PUSH1 0xE0 DUP3 ADD MLOAD DUP2 PUSH1 0x4 ADD PUSH1 0x1 PUSH2 0x100 EXP DUP2 SLOAD DUP2 PUSH1 0xFF MUL NOT AND SWAP1 DUP4 ISZERO ISZERO MUL OR SWAP1 SSTORE POP PUSH2 0x100 DUP3 ADD MLOAD DUP2 PUSH1 0x5 ADD SSTORE POP POP PUSH1 0x1 DUP1 DUP1 SLOAD SWAP1 POP PUSH2 0x18A4 SWAP2 SWAP1 PUSH2 0x2EA5 JUMP JUMPDEST PUSH1 0x2 PUSH0 CALLER PUSH20 0xFFFFFFFFFFFFFFFFFFFFFFFFFFFFFFFFFFFFFFFF AND PUSH20 0xFFFFFFFFFFFFFFFFFFFFFFFFFFFFFFFFFFFFFFFF AND DUP2 MSTORE PUSH1 0x20 ADD SWAP1 DUP2 MSTORE PUSH1 0x20 ADD PUSH0 KECCAK256 DUP2 SWAP1 SSTORE POP PUSH1 0x1 PUSH1 0x3 PUSH0 CALLER PUSH20 0xFFFFFFFFFFFFFFFFFFFFFFFFFFFFFFFFFFFFFFFF AND PUSH20 0xFFFFFFFFFFFFFFFFFFFFFFFFFFFFFFFFFFFFFFFF AND DUP2 MSTORE PUSH1 0x20 ADD SWAP1 DUP2 MSTORE PUSH1 0x20 ADD PUSH0 KECCAK256 PUSH0 PUSH2 0x100 EXP DUP2 SLOAD DUP2 PUSH1 0xFF MUL NOT AND SWAP1 DUP4 ISZERO ISZERO MUL OR SWAP1 SSTORE POP PUSH1 0xA PUSH0 DUP2 SLOAD DUP1 SWAP3 SWAP2 SWAP1 PUSH2 0x194C SWAP1 PUSH2 0x35CB JUMP JUMPDEST SWAP2 SWAP1 POP SSTORE POP CALLER PUSH20 0xFFFFFFFFFFFFFFFFFFFFFFFFFFFFFFFFFFFFFFFF AND PUSH32 0x31E760AA525306ABA638A784082A013B6A1CC0A9A1789F3F22281C0453B10B1F PUSH1 0x40 MLOAD PUSH1 0x40 MLOAD DUP1 SWAP2 SUB SWAP1 LOG2 JUMPDEST POP POP JUMP JUMPDEST PUSH1 0x7 SLOAD DUP2 JUMP JUMPDEST PUSH0 PUSH1 0x1 SWAP1 SLOAD SWAP1 PUSH2 0x100 EXP SWAP1 DIV PUSH20 0xFFFFFFFFFFFFFFFFFFFFFFFFFFFFFFFFFFFFFFFF AND PUSH20 0xFFFFFFFFFFFFFFFFFFFFFFFFFFFFFFFFFFFFFFFF AND CALLER PUSH20 0xFFFFFFFFFFFFFFFFFFFFFFFFFFFFFFFFFFFFFFFF AND EQ PUSH2 0x1A2E JUMPI PUSH1 0x40 MLOAD PUSH32 0x8C379A000000000000000000000000000000000000000000000000000000000 DUP2 MSTORE PUSH1 0x4 ADD PUSH2 0x1A25 SWAP1 PUSH2 0x365C JUMP JUMPDEST PUSH1 0x40 MLOAD DUP1 SWAP2 SUB SWAP1 REVERT JUMPDEST PUSH0 DUP1 PUSH1 0x3 DUP2 GT ISZERO PUSH2 0x1A42 JUMPI PUSH2 0x1A41 PUSH2 0x2BC8 JUMP JUMPDEST JUMPDEST PUSH0 PUSH0 SWAP1 SLOAD SWAP1 PUSH2 0x100 EXP SWAP1 DIV PUSH1 0xFF AND PUSH1 0x3 DUP2 GT ISZERO PUSH2 0x1A62 JUMPI PUSH2 0x1A61 PUSH2 0x2BC8 JUMP JUMPDEST JUMPDEST EQ PUSH2 0x1AA2 JUMPI PUSH1 0x40 MLOAD PUSH32 0x8C379A000000000000000000000000000000000000000000000000000000000 DUP2 MSTORE PUSH1 0x4 ADD PUSH2 0x1A99 SWAP1 PUSH2 0x2DC5 JUMP JUMPDEST PUSH1 0x40 MLOAD DUP1 SWAP2 SUB SWAP1 REVERT JUMPDEST PUSH1 0x2 PUSH1 0xA SLOAD LT ISZERO PUSH2 0x1AE8 JUMPI PUSH1 0x40 MLOAD PUSH32 0x8C379A000000000000000000000000000000000000000000000000000000000 DUP2 MSTORE PUSH1 0x4 ADD PUSH2 0x1ADF SWAP1 PUSH2 0x36C4 JUMP JUMPDEST PUSH1 0x40 MLOAD DUP1 SWAP2 SUB SWAP1 REVERT JUMPDEST PUSH1 0x1 PUSH0 PUSH0 PUSH2 0x100 EXP DUP2 SLOAD DUP2 PUSH1 0xFF MUL NOT AND SWAP1 DUP4 PUSH1 0x3 DUP2 GT ISZERO PUSH2 0x1B0C JUMPI PUSH2 0x1B0B PUSH2 0x2BC8 JUMP JUMPDEST JUMPDEST MUL OR SWAP1 SSTORE POP PUSH0 PUSH1 0x7 DUP2 SWAP1 SSTORE POP PUSH0 PUSH1 0x6 DUP2 SWAP1 SSTORE POP PUSH0 PUSH1 0x8 DUP2 SWAP1 SSTORE POP PUSH0 PUSH0 SWAP1 POP JUMPDEST PUSH1 0x1 DUP1 SLOAD SWAP1 POP DUP2 LT ISZERO PUSH2 0x1BF6 JUMPI PUSH0 PUSH1 0x1 DUP3 DUP2 SLOAD DUP2 LT PUSH2 0x1B4D JUMPI PUSH2 0x1B4C PUSH2 0x2E4B JUMP JUMPDEST JUMPDEST SWAP1 PUSH0 MSTORE PUSH1 0x20 PUSH0 KECCAK256 SWAP1 PUSH1 0x6 MUL ADD SWAP1 POP DUP1 PUSH1 0x2 ADD PUSH1 0x1 SWAP1 SLOAD SWAP1 PUSH2 0x100 EXP SWAP1 DIV PUSH1 0xFF AND ISZERO PUSH2 0x1BE8 JUMPI PUSH0 DUP2 PUSH1 0x2 ADD PUSH1 0x2 PUSH2 0x100 EXP DUP2 SLOAD DUP2 PUSH1 0xFF MUL NOT AND SWAP1 DUP4 ISZERO ISZERO MUL OR SWAP1 SSTORE POP PUSH0 DUP2 PUSH1 0x3 ADD DUP2 SWAP1 SSTORE POP PUSH0 DUP2 PUSH1 0x4 ADD PUSH0 PUSH2 0x100 EXP DUP2 SLOAD DUP2 PUSH1 0xFF MUL NOT AND SWAP1 DUP4 PUSH1 0x5 DUP2 GT ISZERO PUSH2 0x1BBD JUMPI PUSH2 0x1BBC PUSH2 0x2BC8 JUMP JUMPDEST JUMPDEST MUL OR SWAP1 SSTORE POP PUSH0 DUP2 PUSH1 0x4 ADD PUSH1 0x1 PUSH2 0x100 EXP DUP2 SLOAD DUP2 PUSH1 0xFF MUL NOT AND SWAP1 DUP4 ISZERO ISZERO MUL OR SWAP1 SSTORE POP PUSH0 DUP2 PUSH1 0x5 ADD DUP2 SWAP1 SSTORE POP JUMPDEST POP DUP1 DUP1 PUSH1 0x1 ADD SWAP2 POP POP PUSH2 0x1B2B JUMP JUMPDEST POP PUSH0 PUSH0 SWAP1 POP JUMPDEST PUSH1 0x1 DUP1 SLOAD SWAP1 POP DUP2 LT ISZERO PUSH2 0x1DA4 JUMPI PUSH1 0x1 DUP2 DUP2 SLOAD DUP2 LT PUSH2 0x1C1D JUMPI PUSH2 0x1C1C PUSH2 0x2E4B JUMP JUMPDEST JUMPDEST SWAP1 PUSH0 MSTORE PUSH1 0x20 PUSH0 KECCAK256 SWAP1 PUSH1 0x6 MUL ADD PUSH1 0x2 ADD PUSH1 0x1 SWAP1 SLOAD SWAP1 PUSH2 0x100 EXP SWAP1 DIV PUSH1 0xFF AND ISZERO PUSH2 0x1D97 JUMPI PUSH0 PUSH1 0xE TIMESTAMP PREVRANDAO DUP5 PUSH1 0x40 MLOAD PUSH1 0x20 ADD PUSH2 0x1C57 SWAP4 SWAP3 SWAP2 SWAP1 PUSH2 0x3702 JUMP JUMPDEST PUSH1 0x40 MLOAD PUSH1 0x20 DUP2 DUP4 SUB SUB DUP2 MSTORE SWAP1 PUSH1 0x40 MSTORE DUP1 MLOAD SWAP1 PUSH1 0x20 ADD KECCAK256 PUSH0 SHR PUSH2 0x1C79 SWAP2 SWAP1 PUSH2 0x2FC7 JUMP JUMPDEST SWAP1 POP DUP1 PUSH1 0xD DUP2 GT ISZERO PUSH2 0x1C8E JUMPI PUSH2 0x1C8D PUSH2 0x2BC8 JUMP JUMPDEST JUMPDEST PUSH1 0x1 DUP4 DUP2 SLOAD DUP2 LT PUSH2 0x1CA2 JUMPI PUSH2 0x1CA1 PUSH2 0x2E4B JUMP JUMPDEST JUMPDEST SWAP1 PUSH0 MSTORE PUSH1 0x20 PUSH0 KECCAK256 SWAP1 PUSH1 0x6 MUL ADD PUSH1 0x2 ADD PUSH0 PUSH2 0x100 EXP DUP2 SLOAD DUP2 PUSH1 0xFF MUL NOT AND SWAP1 DUP4 PUSH1 0xD DUP2 GT ISZERO PUSH2 0x1CD2 JUMPI PUSH2 0x1CD1 PUSH2 0x2BC8 JUMP JUMPDEST JUMPDEST MUL OR SWAP1 SSTORE POP PUSH1 0x1 DUP3 DUP2 SLOAD DUP2 LT PUSH2 0x1CEB JUMPI PUSH2 0x1CEA PUSH2 0x2E4B JUMP JUMPDEST JUMPDEST SWAP1 PUSH0 MSTORE PUSH1 0x20 PUSH0 KECCAK256 SWAP1 PUSH1 0x6 MUL ADD PUSH0 ADD PUSH0 SWAP1 SLOAD SWAP1 PUSH2 0x100 EXP SWAP1 DIV PUSH20 0xFFFFFFFFFFFFFFFFFFFFFFFFFFFFFFFFFFFFFFFF AND PUSH20 0xFFFFFFFFFFFFFFFFFFFFFFFFFFFFFFFFFFFFFFFF AND PUSH32 0x946DCF24B8C08C25FBBE3A10158BE25F72F147D17A725912E2AF62A98AD05353 PUSH1 0x1 DUP5 DUP2 SLOAD DUP2 LT PUSH2 0x1D64 JUMPI PUSH2 0x1D63 PUSH2 0x2E4B JUMP JUMPDEST JUMPDEST SWAP1 PUSH0 MSTORE PUSH1 0x20 PUSH0 KECCAK256 SWAP1 PUSH1 0x6 MUL ADD PUSH1 0x2 ADD PUSH0 SWAP1 SLOAD SWAP1 PUSH2 0x100 EXP SWAP1 DIV PUSH1 0xFF AND PUSH1 0x40 MLOAD PUSH2 0x1D8D SWAP2 SWAP1 PUSH2 0x373E JUMP JUMPDEST PUSH1 0x40 MLOAD DUP1 SWAP2 SUB SWAP1 LOG2 POP JUMPDEST DUP1 DUP1 PUSH1 0x1 ADD SWAP2 POP POP PUSH2 0x1BFC JUMP JUMPDEST POP PUSH32 0x762F260439BB4BE3EF6E4DC2786E2E7BD187D3D80B79057D7A424FE98563E335 PUSH1 0x40 MLOAD PUSH1 0x40 MLOAD DUP1 SWAP2 SUB SWAP1 LOG1 POP JUMP JUMPDEST PUSH1 0x1 DUP1 PUSH1 0x3 DUP2 GT ISZERO PUSH2 0x1DE9 JUMPI PUSH2 0x1DE8 PUSH2 0x2BC8 JUMP JUMPDEST JUMPDEST PUSH0 PUSH0 SWAP1 SLOAD SWAP1 PUSH2 0x100 EXP SWAP1 DIV PUSH1 0xFF AND PUSH1 0x3 DUP2 GT ISZERO PUSH2 0x1E09 JUMPI PUSH2 0x1E08 PUSH2 0x2BC8 JUMP JUMPDEST JUMPDEST EQ PUSH2 0x1E49 JUMPI PUSH1 0x40 MLOAD PUSH32 0x8C379A000000000000000000000000000000000000000000000000000000000 DUP2 MSTORE PUSH1 0x4 ADD PUSH2 0x1E40 SWAP1 PUSH2 0x2DC5 JUMP JUMPDEST PUSH1 0x40 MLOAD DUP1 SWAP2 SUB SWAP1 REVERT JUMPDEST PUSH1 0x3 PUSH0 CALLER PUSH20 0xFFFFFFFFFFFFFFFFFFFFFFFFFFFFFFFFFFFFFFFF AND PUSH20 0xFFFFFFFFFFFFFFFFFFFFFFFFFFFFFFFFFFFFFFFF AND DUP2 MSTORE PUSH1 0x20 ADD SWAP1 DUP2 MSTORE PUSH1 0x20 ADD PUSH0 KECCAK256 PUSH0 SWAP1 SLOAD SWAP1 PUSH2 0x100 EXP SWAP1 DIV PUSH1 0xFF AND PUSH2 0x1ED2 JUMPI PUSH1 0x40 MLOAD PUSH32 0x8C379A000000000000000000000000000000000000000000000000000000000 DUP2 MSTORE PUSH1 0x4 ADD PUSH2 0x1EC9 SWAP1 PUSH2 0x2E2D JUMP JUMPDEST PUSH1 0x40 MLOAD DUP1 SWAP2 SUB SWAP1 REVERT JUMPDEST PUSH0 PUSH1 0x1 PUSH1 0x2 PUSH0 CALLER PUSH20 0xFFFFFFFFFFFFFFFFFFFFFFFFFFFFFFFFFFFFFFFF AND PUSH20 0xFFFFFFFFFFFFFFFFFFFFFFFFFFFFFFFFFFFFFFFF AND DUP2 MSTORE PUSH1 0x20 ADD SWAP1 DUP2 MSTORE PUSH1 0x20 ADD PUSH0 KECCAK256 SLOAD DUP2 SLOAD DUP2 LT PUSH2 0x1F24 JUMPI PUSH2 0x1F23 PUSH2 0x2E4B JUMP JUMPDEST JUMPDEST SWAP1 PUSH0 MSTORE PUSH1 0x20 PUSH0 KECCAK256 SWAP1 PUSH1 0x6 MUL ADD SWAP1 POP PUSH1 0x1 DUP2 PUSH1 0x2 ADD PUSH1 0x2 PUSH2 0x100 EXP DUP2 SLOAD DUP2 PUSH1 0xFF MUL NOT AND SWAP1 DUP4 ISZERO ISZERO MUL OR SWAP1 SSTORE POP PUSH0 DUP2 PUSH1 0x2 ADD PUSH1 0x1 PUSH2 0x100 EXP DUP2 SLOAD DUP2 PUSH1 0xFF MUL NOT AND SWAP1 DUP4 ISZERO ISZERO MUL OR SWAP1 SSTORE POP PUSH1 0xA PUSH0 DUP2 SLOAD DUP1 SWAP3 SWAP2 SWAP1 PUSH2 0x1F7D SWAP1 PUSH2 0x32CC JUMP JUMPDEST SWAP2 SWAP1 POP SSTORE POP PUSH1 0x4 DUP2 PUSH1 0x4 ADD PUSH0 PUSH2 0x100 EXP DUP2 SLOAD DUP2 PUSH1 0xFF MUL NOT AND SWAP1 DUP4 PUSH1 0x5 DUP2 GT ISZERO PUSH2 0x1FA9 JUMPI PUSH2 0x1FA8 PUSH2 0x2BC8 JUMP JUMPDEST JUMPDEST MUL OR SWAP1 SSTORE POP PUSH1 0xD DUP1 DUP2 GT ISZERO PUSH2 0x1FC1 JUMPI PUSH2 0x1FC0 PUSH2 0x2BC8 JUMP JUMPDEST JUMPDEST DUP2 PUSH1 0x2 ADD PUSH0 SWAP1 SLOAD SWAP1 PUSH2 0x100 EXP SWAP1 DIV PUSH1 0xFF AND PUSH1 0xD DUP2 GT ISZERO PUSH2 0x1FE4 JUMPI PUSH2 0x1FE3 PUSH2 0x2BC8 JUMP JUMPDEST JUMPDEST EQ DUP1 ISZERO PUSH2 0x1FF4 JUMPI POP PUSH0 DUP2 PUSH1 0x1 ADD SLOAD GT JUMPDEST ISZERO PUSH2 0x2068 JUMPI PUSH0 PUSH1 0x2 DUP3 PUSH1 0x1 ADD SLOAD PUSH2 0x200B SWAP2 SWAP1 PUSH2 0x30A0 JUMP JUMPDEST SWAP1 POP PUSH1 0x1 PUSH1 0x2 DUP4 PUSH1 0x1 ADD SLOAD PUSH2 0x2020 SWAP2 SWAP1 PUSH2 0x2FC7 JUMP JUMPDEST SUB PUSH2 0x2034 JUMPI DUP1 DUP1 PUSH2 0x2030 SWAP1 PUSH2 0x35CB JUMP JUMPDEST SWAP2 POP POP JUMPDEST DUP1 DUP3 PUSH1 0x1 ADD PUSH0 DUP3 DUP3 SLOAD PUSH2 0x2047 SWAP2 SWAP1 PUSH2 0x2EA5 JUMP JUMPDEST SWAP3 POP POP DUP2 SWAP1 SSTORE POP DUP1 PUSH1 0x6 PUSH0 DUP3 DUP3 SLOAD PUSH2 0x205F SWAP2 SWAP1 PUSH2 0x2ED8 JUMP JUMPDEST SWAP3 POP POP DUP2 SWAP1 SSTORE POP POP JUMPDEST CALLER PUSH20 0xFFFFFFFFFFFFFFFFFFFFFFFFFFFFFFFFFFFFFFFF AND PUSH32 0x67C29155F1EFDE8516A854AD304AD39DBF9A2F4EDAF7294FCE3E7DB25AF24F7B PUSH1 0x4 PUSH0 PUSH1 0x40 MLOAD PUSH2 0x20B1 SWAP3 SWAP2 SWAP1 PUSH2 0x3799 JUMP JUMPDEST PUSH1 0x40 MLOAD DUP1 SWAP2 SUB SWAP1 LOG2 PUSH1 0x1 PUSH1 0xA SLOAD SUB PUSH2 0x20D0 JUMPI PUSH2 0x20CB PUSH2 0x22CA JUMP JUMPDEST PUSH2 0x20D9 JUMP JUMPDEST PUSH2 0x20D8 PUSH2 0x2194 JUMP JUMPDEST JUMPDEST POP POP JUMP JUMPDEST PUSH1 0x1 DUP2 DUP2 SLOAD DUP2 LT PUSH2 0x20EC JUMPI PUSH0 DUP1 REVERT JUMPDEST SWAP1 PUSH0 MSTORE PUSH1 0x20 PUSH0 KECCAK256 SWAP1 PUSH1 0x6 MUL ADD PUSH0 SWAP2 POP SWAP1 POP DUP1 PUSH0 ADD PUSH0 SWAP1 SLOAD SWAP1 PUSH2 0x100 EXP SWAP1 DIV PUSH20 0xFFFFFFFFFFFFFFFFFFFFFFFFFFFFFFFFFFFFFFFF AND SWAP1 DUP1 PUSH1 0x1 ADD SLOAD SWAP1 DUP1 PUSH1 0x2 ADD PUSH0 SWAP1 SLOAD SWAP1 PUSH2 0x100 EXP SWAP1 DIV PUSH1 0xFF AND SWAP1 DUP1 PUSH1 0x2 ADD PUSH1 0x1 SWAP1 SLOAD SWAP1 PUSH2 0x100 EXP SWAP1 DIV PUSH1 0xFF AND SWAP1 DUP1 PUSH1 0x2 ADD PUSH1 0x2 SWAP1 SLOAD SWAP1 PUSH2 0x100 EXP SWAP1 DIV PUSH1 0xFF AND SWAP1 DUP1 PUSH1 0x3 ADD SLOAD SWAP1 DUP1 PUSH1 0x4 ADD PUSH0 SWAP1 SLOAD SWAP1 PUSH2 0x100 EXP SWAP1 DIV PUSH1 0xFF AND SWAP1 DUP1 PUSH1 0x4 ADD PUSH1 0x1 SWAP1 SLOAD SWAP1 PUSH2 0x100 EXP SWAP1 DIV PUSH1 0xFF AND SWAP1 DUP1 PUSH1 0x5 ADD SLOAD SWAP1 POP DUP10 JUMP JUMPDEST PUSH0 PUSH1 0x8 SLOAD SWAP1 POP JUMPDEST PUSH1 0x1 DUP1 SLOAD SWAP1 POP PUSH1 0x1 PUSH1 0x8 SLOAD PUSH2 0x21B0 SWAP2 SWAP1 PUSH2 0x2ED8 JUMP JUMPDEST PUSH2 0x21BA SWAP2 SWAP1 PUSH2 0x2FC7 JUMP JUMPDEST PUSH1 0x8 DUP2 SWAP1 SSTORE POP PUSH0 PUSH1 0x1 PUSH1 0x8 SLOAD DUP2 SLOAD DUP2 LT PUSH2 0x21D7 JUMPI PUSH2 0x21D6 PUSH2 0x2E4B JUMP JUMPDEST JUMPDEST SWAP1 PUSH0 MSTORE PUSH1 0x20 PUSH0 KECCAK256 SWAP1 PUSH1 0x6 MUL ADD SWAP1 POP DUP1 PUSH1 0x2 ADD PUSH1 0x1 SWAP1 SLOAD SWAP1 PUSH2 0x100 EXP SWAP1 DIV PUSH1 0xFF AND DUP1 ISZERO PUSH2 0x2212 JUMPI POP DUP1 PUSH1 0x2 ADD PUSH1 0x2 SWAP1 SLOAD SWAP1 PUSH2 0x100 EXP SWAP1 DIV PUSH1 0xFF AND ISZERO JUMPDEST DUP1 ISZERO PUSH2 0x2251 JUMPI POP PUSH0 PUSH1 0x5 DUP2 GT ISZERO PUSH2 0x222C JUMPI PUSH2 0x222B PUSH2 0x2BC8 JUMP JUMPDEST JUMPDEST DUP2 PUSH1 0x4 ADD PUSH0 SWAP1 SLOAD SWAP1 PUSH2 0x100 EXP SWAP1 DIV PUSH1 0xFF AND PUSH1 0x5 DUP2 GT ISZERO PUSH2 0x224F JUMPI PUSH2 0x224E PUSH2 0x2BC8 JUMP JUMPDEST JUMPDEST EQ JUMPDEST ISZERO PUSH2 0x225D JUMPI POP POP PUSH2 0x2271 JUMP JUMPDEST POP DUP1 PUSH1 0x8 SLOAD SUB PUSH2 0x219B JUMPI PUSH2 0x226F PUSH2 0x22CA JUMP JUMPDEST POP JUMPDEST JUMP JUMPDEST DUP1 PUSH1 0x4 PUSH0 DUP5 PUSH20 0xFFFFFFFFFFFFFFFFFFFFFFFFFFFFFFFFFFFFFFFF AND PUSH20 0xFFFFFFFFFFFFFFFFFFFFFFFFFFFFFFFFFFFFFFFF AND DUP2 MSTORE PUSH1 0x20 ADD SWAP1 DUP2 MSTORE PUSH1 0x20 ADD PUSH0 KECCAK256 PUSH0 DUP3 DUP3 SLOAD PUSH2 0x22BF SWAP2 SWAP1 PUSH2 0x2ED8 JUMP JUMPDEST SWAP3 POP POP DUP2 SWAP1 SSTORE POP POP POP JUMP JUMPDEST PUSH1 0x2 PUSH0 PUSH0 PUSH2 0x100 EXP DUP2 SLOAD DUP2 PUSH1 0xFF MUL NOT AND SWAP1 DUP4 PUSH1 0x3 DUP2 GT ISZERO PUSH2 0x22EE JUMPI PUSH2 0x22ED PUSH2 0x2BC8 JUMP JUMPDEST JUMPDEST MUL OR SWAP1 SSTORE POP PUSH0 PUSH0 PUSH0 PUSH0 SWAP1 POP JUMPDEST PUSH1 0x1 DUP1 SLOAD SWAP1 POP DUP2 LT ISZERO PUSH2 0x23F9 JUMPI PUSH0 PUSH1 0x1 DUP3 DUP2 SLOAD DUP2 LT PUSH2 0x231C JUMPI PUSH2 0x231B PUSH2 0x2E4B JUMP JUMPDEST JUMPDEST SWAP1 PUSH0 MSTORE PUSH1 0x20 PUSH0 KECCAK256 SWAP1 PUSH1 0x6 MUL ADD SWAP1 POP DUP1 PUSH1 0x2 ADD PUSH1 0x1 SWAP1 SLOAD SWAP1 PUSH2 0x100 EXP SWAP1 DIV PUSH1 0xFF AND DUP1 ISZERO PUSH2 0x2357 JUMPI POP DUP1 PUSH1 0x2 ADD PUSH1 0x2 SWAP1 SLOAD SWAP1 PUSH2 0x100 EXP SWAP1 DIV PUSH1 0xFF AND ISZERO JUMPDEST ISZERO PUSH2 0x23EB JUMPI PUSH0 PUSH20 0xFFFFFFFFFFFFFFFFFFFFFFFFFFFFFFFFFFFFFFFF AND DUP5 PUSH20 0xFFFFFFFFFFFFFFFFFFFFFFFFFFFFFFFFFFFFFFFF AND EQ DUP1 PUSH2 0x23AC JUMPI POP PUSH2 0x23AB DUP2 PUSH1 0x2 ADD PUSH0 SWAP1 SLOAD SWAP1 PUSH2 0x100 EXP SWAP1 DIV PUSH1 0xFF AND DUP5 PUSH2 0x26F4 JUMP JUMPDEST JUMPDEST ISZERO PUSH2 0x23EA JUMPI DUP1 PUSH0 ADD PUSH0 SWAP1 SLOAD SWAP1 PUSH2 0x100 EXP SWAP1 DIV PUSH20 0xFFFFFFFFFFFFFFFFFFFFFFFFFFFFFFFFFFFFFFFF AND SWAP4 POP DUP1 PUSH1 0x2 ADD PUSH0 SWAP1 SLOAD SWAP1 PUSH2 0x100 EXP SWAP1 DIV PUSH1 0xFF AND SWAP3 POP JUMPDEST JUMPDEST POP DUP1 DUP1 PUSH1 0x1 ADD SWAP2 POP POP PUSH2 0x22FA JUMP JUMPDEST POP PUSH0 PUSH20 0xFFFFFFFFFFFFFFFFFFFFFFFFFFFFFFFFFFFFFFFF AND DUP3 PUSH20 0xFFFFFFFFFFFFFFFFFFFFFFFFFFFFFFFFFFFFFFFF AND SUB PUSH2 0x2468 JUMPI PUSH1 0x40 MLOAD PUSH32 0x8C379A000000000000000000000000000000000000000000000000000000000 DUP2 MSTORE PUSH1 0x4 ADD PUSH2 0x245F SWAP1 PUSH2 0x380A JUMP JUMPDEST PUSH1 0x40 MLOAD DUP1 SWAP2 SUB SWAP1 REVERT JUMPDEST PUSH1 0x6 SLOAD PUSH1 0x1 PUSH1 0x2 PUSH0 DUP6 PUSH20 0xFFFFFFFFFFFFFFFFFFFFFFFFFFFFFFFFFFFFFFFF AND PUSH20 0xFFFFFFFFFFFFFFFFFFFFFFFFFFFFFFFFFFFFFFFF AND DUP2 MSTORE PUSH1 0x20 ADD SWAP1 DUP2 MSTORE PUSH1 0x20 ADD PUSH0 KECCAK256 SLOAD DUP2 SLOAD DUP2 LT PUSH2 0x24BC JUMPI PUSH2 0x24BB PUSH2 0x2E4B JUMP JUMPDEST JUMPDEST SWAP1 PUSH0 MSTORE PUSH1 0x20 PUSH0 KECCAK256 SWAP1 PUSH1 0x6 MUL ADD PUSH1 0x1 ADD PUSH0 DUP3 DUP3 SLOAD PUSH2 0x24D9 SWAP2 SWAP1 PUSH2 0x2ED8 JUMP JUMPDEST SWAP3 POP POP DUP2 SWAP1 SSTORE POP PUSH32 0xD4BA6FEC82D9B0E8FFE50B9FED9E4BE3B25C984CE1E0E016405A5528726E8A2C DUP3 PUSH1 0x6 SLOAD PUSH1 0x40 MLOAD PUSH2 0x2513 SWAP3 SWAP2 SWAP1 PUSH2 0x30D0 JUMP JUMPDEST PUSH1 0x40 MLOAD DUP1 SWAP2 SUB SWAP1 LOG1 PUSH1 0x3 PUSH0 PUSH0 PUSH2 0x100 EXP DUP2 SLOAD DUP2 PUSH1 0xFF MUL NOT AND SWAP1 DUP4 PUSH1 0x3 DUP2 GT ISZERO PUSH2 0x253F JUMPI PUSH2 0x253E PUSH2 0x2BC8 JUMP JUMPDEST JUMPDEST MUL OR SWAP1 SSTORE POP PUSH0 PUSH0 SWAP1 POP JUMPDEST PUSH1 0x1 DUP1 SLOAD SWAP1 POP DUP2 LT ISZERO PUSH2 0x26E7 JUMPI PUSH0 PUSH1 0x1 DUP3 DUP2 SLOAD DUP2 LT PUSH2 0x256B JUMPI PUSH2 0x256A PUSH2 0x2E4B JUMP JUMPDEST JUMPDEST SWAP1 PUSH0 MSTORE PUSH1 0x20 PUSH0 KECCAK256 SWAP1 PUSH1 0x6 MUL ADD SWAP1 POP DUP4 PUSH20 0xFFFFFFFFFFFFFFFFFFFFFFFFFFFFFFFFFFFFFFFF AND DUP2 PUSH0 ADD PUSH0 SWAP1 SLOAD SWAP1 PUSH2 0x100 EXP SWAP1 DIV PUSH20 0xFFFFFFFFFFFFFFFFFFFFFFFFFFFFFFFFFFFFFFFF AND PUSH20 0xFFFFFFFFFFFFFFFFFFFFFFFFFFFFFFFFFFFFFFFF AND EQ PUSH2 0x25FF JUMPI PUSH2 0x25FE DUP2 PUSH0 ADD PUSH0 SWAP1 SLOAD SWAP1 PUSH2 0x100 EXP SWAP1 DIV PUSH20 0xFFFFFFFFFFFFFFFFFFFFFFFFFFFFFFFFFFFFFFFF AND DUP3 PUSH1 0x1 ADD SLOAD PUSH2 0x2273 JUMP JUMPDEST JUMPDEST PUSH0 PUSH1 0x5 PUSH0 DUP4 PUSH0 ADD PUSH0 SWAP1 SLOAD SWAP1 PUSH2 0x100 EXP SWAP1 DIV PUSH20 0xFFFFFFFFFFFFFFFFFFFFFFFFFFFFFFFFFFFFFFFF AND PUSH20 0xFFFFFFFFFFFFFFFFFFFFFFFFFFFFFFFFFFFFFFFF AND PUSH20 0xFFFFFFFFFFFFFFFFFFFFFFFFFFFFFFFFFFFFFFFF AND DUP2 MSTORE PUSH1 0x20 ADD SWAP1 DUP2 MSTORE PUSH1 0x20 ADD PUSH0 KECCAK256 DUP2 SWAP1 SSTORE POP PUSH0 PUSH1 0x3 PUSH0 DUP4 PUSH0 ADD PUSH0 SWAP1 SLOAD SWAP1 PUSH2 0x100 EXP SWAP1 DIV PUSH20 0xFFFFFFFFFFFFFFFFFFFFFFFFFFFFFFFFFFFFFFFF AND PUSH20 0xFFFFFFFFFFFFFFFFFFFFFFFFFFFFFFFFFFFFFFFF AND PUSH20 0xFFFFFFFFFFFFFFFFFFFFFFFFFFFFFFFFFFFFFFFF AND DUP2 MSTORE PUSH1 0x20 ADD SWAP1 DUP2 MSTORE PUSH1 0x20 ADD PUSH0 KECCAK256 PUSH0 PUSH2 0x100 EXP DUP2 SLOAD DUP2 PUSH1 0xFF MUL NOT AND SWAP1 DUP4 ISZERO ISZERO MUL OR SWAP1 SSTORE POP POP DUP1 DUP1 PUSH1 0x1 ADD SWAP2 POP POP PUSH2 0x2549 JUMP JUMPDEST POP PUSH2 0x26F0 PUSH2 0x28BB JUMP JUMPDEST POP POP JUMP JUMPDEST PUSH0 PUSH0 PUSH1 0xD DUP2 GT ISZERO PUSH2 0x2708 JUMPI PUSH2 0x2707 PUSH2 0x2BC8 JUMP JUMPDEST JUMPDEST DUP4 PUSH1 0xD DUP2 GT ISZERO PUSH2 0x271B JUMPI PUSH2 0x271A PUSH2 0x2BC8 JUMP JUMPDEST JUMPDEST EQ DUP1 ISZERO PUSH2 0x274B JUMPI POP PUSH1 0xD DUP1 DUP2 GT ISZERO PUSH2 0x2736 JUMPI PUSH2 0x2735 PUSH2 0x2BC8 JUMP JUMPDEST JUMPDEST DUP3 PUSH1 0xD DUP2 GT ISZERO PUSH2 0x2749 JUMPI PUSH2 0x2748 PUSH2 0x2BC8 JUMP JUMPDEST JUMPDEST EQ JUMPDEST ISZERO PUSH2 0x2759 JUMPI PUSH1 0x1 SWAP1 POP PUSH2 0x28B5 JUMP JUMPDEST PUSH0 PUSH1 0xD DUP2 GT ISZERO PUSH2 0x276C JUMPI PUSH2 0x276B PUSH2 0x2BC8 JUMP JUMPDEST JUMPDEST DUP4 PUSH1 0xD DUP2 GT ISZERO PUSH2 0x277F JUMPI PUSH2 0x277E PUSH2 0x2BC8 JUMP JUMPDEST JUMPDEST EQ DUP1 ISZERO PUSH2 0x27B0 JUMPI POP PUSH1 0xD DUP1 DUP2 GT ISZERO PUSH2 0x279A JUMPI PUSH2 0x2799 PUSH2 0x2BC8 JUMP JUMPDEST JUMPDEST DUP3 PUSH1 0xD DUP2 GT ISZERO PUSH2 0x27AD JUMPI PUSH2 0x27AC PUSH2 0x2BC8 JUMP JUMPDEST JUMPDEST EQ ISZERO JUMPDEST ISZERO PUSH2 0x27BD JUMPI PUSH0 SWAP1 POP PUSH2 0x28B5 JUMP JUMPDEST PUSH0 PUSH1 0xD DUP2 GT ISZERO PUSH2 0x27D0 JUMPI PUSH2 0x27CF PUSH2 0x2BC8 JUMP JUMPDEST JUMPDEST DUP3 PUSH1 0xD DUP2 GT ISZERO PUSH2 0x27E3 JUMPI PUSH2 0x27E2 PUSH2 0x2BC8 JUMP JUMPDEST JUMPDEST EQ DUP1 ISZERO PUSH2 0x2813 JUMPI POP PUSH1 0xD DUP1 DUP2 GT ISZERO PUSH2 0x27FE JUMPI PUSH2 0x27FD PUSH2 0x2BC8 JUMP JUMPDEST JUMPDEST DUP4 PUSH1 0xD DUP2 GT ISZERO PUSH2 0x2811 JUMPI PUSH2 0x2810 PUSH2 0x2BC8 JUMP JUMPDEST JUMPDEST EQ JUMPDEST ISZERO PUSH2 0x2820 JUMPI PUSH0 SWAP1 POP PUSH2 0x28B5 JUMP JUMPDEST PUSH0 PUSH1 0xD DUP2 GT ISZERO PUSH2 0x2833 JUMPI PUSH2 0x2832 PUSH2 0x2BC8 JUMP JUMPDEST JUMPDEST DUP3 PUSH1 0xD DUP2 GT ISZERO PUSH2 0x2846 JUMPI PUSH2 0x2845 PUSH2 0x2BC8 JUMP JUMPDEST JUMPDEST EQ DUP1 ISZERO PUSH2 0x2877 JUMPI POP PUSH1 0xD DUP1 DUP2 GT ISZERO PUSH2 0x2861 JUMPI PUSH2 0x2860 PUSH2 0x2BC8 JUMP JUMPDEST JUMPDEST DUP4 PUSH1 0xD DUP2 GT ISZERO PUSH2 0x2874 JUMPI PUSH2 0x2873 PUSH2 0x2BC8 JUMP JUMPDEST JUMPDEST EQ ISZERO JUMPDEST ISZERO PUSH2 0x2885 JUMPI PUSH1 0x1 SWAP1 POP PUSH2 0x28B5 JUMP JUMPDEST DUP2 PUSH1 0xD DUP2 GT ISZERO PUSH2 0x2898 JUMPI PUSH2 0x2897 PUSH2 0x2BC8 JUMP JUMPDEST JUMPDEST PUSH1 0xFF AND DUP4 PUSH1 0xD DUP2 GT ISZERO PUSH2 0x28AE JUMPI PUSH2 0x28AD PUSH2 0x2BC8 JUMP JUMPDEST JUMPDEST PUSH1 0xFF AND GT SWAP1 POP JUMPDEST SWAP3 SWAP2 POP POP JUMP JUMPDEST PUSH1 0x1 PUSH0 PUSH2 0x28C8 SWAP2 SWAP1 PUSH2 0x298A JUMP JUMPDEST PUSH0 PUSH0 PUSH0 PUSH2 0x100 EXP DUP2 SLOAD DUP2 PUSH1 0xFF MUL NOT AND SWAP1 DUP4 PUSH1 0x3 DUP2 GT ISZERO PUSH2 0x28EB JUMPI PUSH2 0x28EA PUSH2 0x2BC8 JUMP JUMPDEST JUMPDEST MUL OR SWAP1 SSTORE POP PUSH0 PUSH1 0x6 DUP2 SWAP1 SSTORE POP PUSH0 PUSH1 0x7 DUP2 SWAP1 SSTORE POP PUSH0 PUSH1 0xA DUP2 SWAP1 SSTORE POP JUMP JUMPDEST PUSH1 0x40 MLOAD DUP1 PUSH2 0x120 ADD PUSH1 0x40 MSTORE DUP1 PUSH0 PUSH20 0xFFFFFFFFFFFFFFFFFFFFFFFFFFFFFFFFFFFFFFFF AND DUP2 MSTORE PUSH1 0x20 ADD PUSH0 DUP2 MSTORE PUSH1 0x20 ADD PUSH0 PUSH1 0xD DUP2 GT ISZERO PUSH2 0x2948 JUMPI PUSH2 0x2947 PUSH2 0x2BC8 JUMP JUMPDEST JUMPDEST DUP2 MSTORE PUSH1 0x20 ADD PUSH0 ISZERO ISZERO DUP2 MSTORE PUSH1 0x20 ADD PUSH0 ISZERO ISZERO DUP2 MSTORE PUSH1 0x20 ADD PUSH0 DUP2 MSTORE PUSH1 0x20 ADD PUSH0 PUSH1 0x5 DUP2 GT ISZERO PUSH2 0x2976 JUMPI PUSH2 0x2975 PUSH2 0x2BC8 JUMP JUMPDEST JUMPDEST DUP2 MSTORE PUSH1 0x20 ADD PUSH0 ISZERO ISZERO DUP2 MSTORE PUSH1 0x20 ADD PUSH0 DUP2 MSTORE POP SWAP1 JUMP JUMPDEST POP DUP1 SLOAD PUSH0 DUP3 SSTORE PUSH1 0x6 MUL SWAP1 PUSH0 MSTORE PUSH1 0x20 PUSH0 KECCAK256 SWAP1 DUP2 ADD SWAP1 PUSH2 0x29A8 SWAP2 SWAP1 PUSH2 0x29AB JUMP JUMPDEST POP JUMP JUMPDEST JUMPDEST DUP1 DUP3 GT ISZERO PUSH2 0x2A5A JUMPI PUSH0 PUSH0 DUP3 ADD PUSH0 PUSH2 0x100 EXP DUP2 SLOAD SWAP1 PUSH20 0xFFFFFFFFFFFFFFFFFFFFFFFFFFFFFFFFFFFFFFFF MUL NOT AND SWAP1 SSTORE PUSH1 0x1 DUP3 ADD PUSH0 SWAP1 SSTORE PUSH1 0x2 DUP3 ADD PUSH0 PUSH2 0x100 EXP DUP2 SLOAD SWAP1 PUSH1 0xFF MUL NOT AND SWAP1 SSTORE PUSH1 0x2 DUP3 ADD PUSH1 0x1 PUSH2 0x100 EXP DUP2 SLOAD SWAP1 PUSH1 0xFF MUL NOT AND SWAP1 SSTORE PUSH1 0x2 DUP3 ADD PUSH1 0x2 PUSH2 0x100 EXP DUP2 SLOAD SWAP1 PUSH1 0xFF MUL NOT AND SWAP1 SSTORE PUSH1 0x3 DUP3 ADD PUSH0 SWAP1 SSTORE PUSH1 0x4 DUP3 ADD PUSH0 PUSH2 0x100 EXP DUP2 SLOAD SWAP1 PUSH1 0xFF MUL NOT AND SWAP1 SSTORE PUSH1 0x4 DUP3 ADD PUSH1 0x1 PUSH2 0x100 EXP DUP2 SLOAD SWAP1 PUSH1 0xFF MUL NOT AND SWAP1 SSTORE PUSH1 0x5 DUP3 ADD PUSH0 SWAP1 SSTORE POP PUSH1 0x6 ADD PUSH2 0x29AC JUMP JUMPDEST POP SWAP1 JUMP JUMPDEST PUSH0 PUSH0 REVERT JUMPDEST PUSH0 DUP2 SWAP1 POP SWAP2 SWAP1 POP JUMP JUMPDEST PUSH2 0x2A74 DUP2 PUSH2 0x2A62 JUMP JUMPDEST DUP2 EQ PUSH2 0x2A7E JUMPI PUSH0 PUSH0 REVERT JUMPDEST POP JUMP JUMPDEST PUSH0 DUP2 CALLDATALOAD SWAP1 POP PUSH2 0x2A8F DUP2 PUSH2 0x2A6B JUMP JUMPDEST SWAP3 SWAP2 POP POP JUMP JUMPDEST PUSH0 PUSH1 0x20 DUP3 DUP5 SUB SLT ISZERO PUSH2 0x2AAA JUMPI PUSH2 0x2AA9 PUSH2 0x2A5E JUMP JUMPDEST JUMPDEST PUSH0 PUSH2 0x2AB7 DUP5 DUP3 DUP6 ADD PUSH2 0x2A81 JUMP JUMPDEST SWAP2 POP POP SWAP3 SWAP2 POP POP JUMP JUMPDEST PUSH0 PUSH20 0xFFFFFFFFFFFFFFFFFFFFFFFFFFFFFFFFFFFFFFFF DUP3 AND SWAP1 POP SWAP2 SWAP1 POP JUMP JUMPDEST PUSH0 PUSH2 0x2AE9 DUP3 PUSH2 0x2AC0 JUMP JUMPDEST SWAP1 POP SWAP2 SWAP1 POP JUMP JUMPDEST PUSH2 0x2AF9 DUP2 PUSH2 0x2ADF JUMP JUMPDEST DUP2 EQ PUSH2 0x2B03 JUMPI PUSH0 PUSH0 REVERT JUMPDEST POP JUMP JUMPDEST PUSH0 DUP2 CALLDATALOAD SWAP1 POP PUSH2 0x2B14 DUP2 PUSH2 0x2AF0 JUMP JUMPDEST SWAP3 SWAP2 POP POP JUMP JUMPDEST PUSH0 PUSH1 0x20 DUP3 DUP5 SUB SLT ISZERO PUSH2 0x2B2F JUMPI PUSH2 0x2B2E PUSH2 0x2A5E JUMP JUMPDEST JUMPDEST PUSH0 PUSH2 0x2B3C DUP5 DUP3 DUP6 ADD PUSH2 0x2B06 JUMP JUMPDEST SWAP2 POP POP SWAP3 SWAP2 POP POP JUMP JUMPDEST PUSH2 0x2B4E DUP2 PUSH2 0x2A62 JUMP JUMPDEST DUP3 MSTORE POP POP JUMP JUMPDEST PUSH0 PUSH1 0x20 DUP3 ADD SWAP1 POP PUSH2 0x2B67 PUSH0 DUP4 ADD DUP5 PUSH2 0x2B45 JUMP JUMPDEST SWAP3 SWAP2 POP POP JUMP JUMPDEST PUSH0 DUP2 ISZERO ISZERO SWAP1 POP SWAP2 SWAP1 POP JUMP JUMPDEST PUSH2 0x2B81 DUP2 PUSH2 0x2B6D JUMP JUMPDEST DUP3 MSTORE POP POP JUMP JUMPDEST PUSH0 PUSH1 0x20 DUP3 ADD SWAP1 POP PUSH2 0x2B9A PUSH0 DUP4 ADD DUP5 PUSH2 0x2B78 JUMP JUMPDEST SWAP3 SWAP2 POP POP JUMP JUMPDEST PUSH2 0x2BA9 DUP2 PUSH2 0x2ADF JUMP JUMPDEST DUP3 MSTORE POP POP JUMP JUMPDEST PUSH0 PUSH1 0x20 DUP3 ADD SWAP1 POP PUSH2 0x2BC2 PUSH0 DUP4 ADD DUP5 PUSH2 0x2BA0 JUMP JUMPDEST SWAP3 SWAP2 POP POP JUMP JUMPDEST PUSH32 0x4E487B7100000000000000000000000000000000000000000000000000000000 PUSH0 MSTORE PUSH1 0x21 PUSH1 0x4 MSTORE PUSH1 0x24 PUSH0 REVERT JUMPDEST PUSH1 0x4 DUP2 LT PUSH2 0x2C06 JUMPI PUSH2 0x2C05 PUSH2 0x2BC8 JUMP JUMPDEST JUMPDEST POP JUMP JUMPDEST PUSH0 DUP2 SWAP1 POP PUSH2 0x2C16 DUP3 PUSH2 0x2BF5 JUMP JUMPDEST SWAP2 SWAP1 POP JUMP JUMPDEST PUSH0 PUSH2 0x2C25 DUP3 PUSH2 0x2C09 JUMP JUMPDEST SWAP1 POP SWAP2 SWAP1 POP JUMP JUMPDEST PUSH2 0x2C35 DUP2 PUSH2 0x2C1B JUMP JUMPDEST DUP3 MSTORE POP POP JUMP JUMPDEST PUSH0 PUSH1 0x20 DUP3 ADD SWAP1 POP PUSH2 0x2C4E PUSH0 DUP4 ADD DUP5 PUSH2 0x2C2C JUMP JUMPDEST SWAP3 SWAP2 POP POP JUMP JUMPDEST PUSH1 0xE DUP2 LT PUSH2 0x2C65 JUMPI PUSH2 0x2C64 PUSH2 0x2BC8 JUMP JUMPDEST JUMPDEST POP JUMP JUMPDEST PUSH0 DUP2 SWAP1 POP PUSH2 0x2C75 DUP3 PUSH2 0x2C54 JUMP JUMPDEST SWAP2 SWAP1 POP JUMP JUMPDEST PUSH0 PUSH2 0x2C84 DUP3 PUSH2 0x2C68 JUMP JUMPDEST SWAP1 POP SWAP2 SWAP1 POP JUMP JUMPDEST PUSH2 0x2C94 DUP2 PUSH2 0x2C7A JUMP JUMPDEST DUP3 MSTORE POP POP JUMP JUMPDEST PUSH1 0x6 DUP2 LT PUSH2 0x2CAB JUMPI PUSH2 0x2CAA PUSH2 0x2BC8 JUMP JUMPDEST JUMPDEST POP JUMP JUMPDEST PUSH0 DUP2 SWAP1 POP PUSH2 0x2CBB DUP3 PUSH2 0x2C9A JUMP JUMPDEST SWAP2 SWAP1 POP JUMP JUMPDEST PUSH0 PUSH2 0x2CCA DUP3 PUSH2 0x2CAE JUMP JUMPDEST SWAP1 POP SWAP2 SWAP1 POP JUMP JUMPDEST PUSH2 0x2CDA DUP2 PUSH2 0x2CC0 JUMP JUMPDEST DUP3 MSTORE POP POP JUMP JUMPDEST PUSH0 PUSH2 0x120 DUP3 ADD SWAP1 POP PUSH2 0x2CF4 PUSH0 DUP4 ADD DUP13 PUSH2 0x2BA0 JUMP JUMPDEST PUSH2 0x2D01 PUSH1 0x20 DUP4 ADD DUP12 PUSH2 0x2B45 JUMP JUMPDEST PUSH2 0x2D0E PUSH1 0x40 DUP4 ADD DUP11 PUSH2 0x2C8B JUMP JUMPDEST PUSH2 0x2D1B PUSH1 0x60 DUP4 ADD DUP10 PUSH2 0x2B78 JUMP JUMPDEST PUSH2 0x2D28 PUSH1 0x80 DUP4 ADD DUP9 PUSH2 0x2B78 JUMP JUMPDEST PUSH2 0x2D35 PUSH1 0xA0 DUP4 ADD DUP8 PUSH2 0x2B45 JUMP JUMPDEST PUSH2 0x2D42 PUSH1 0xC0 DUP4 ADD DUP7 PUSH2 0x2CD1 JUMP JUMPDEST PUSH2 0x2D4F PUSH1 0xE0 DUP4 ADD DUP6 PUSH2 0x2B78 JUMP JUMPDEST PUSH2 0x2D5D PUSH2 0x100 DUP4 ADD DUP5 PUSH2 0x2B45 JUMP JUMPDEST SWAP11 SWAP10 POP POP POP POP POP POP POP POP POP POP JUMP JUMPDEST PUSH0 DUP3 DUP3 MSTORE PUSH1 0x20 DUP3 ADD SWAP1 POP SWAP3 SWAP2 POP POP JUMP JUMPDEST PUSH32 0x496E76616C696420706861736500000000000000000000000000000000000000 PUSH0 DUP3 ADD MSTORE POP JUMP JUMPDEST PUSH0 PUSH2 0x2DAF PUSH1 0xD DUP4 PUSH2 0x2D6B JUMP JUMPDEST SWAP2 POP PUSH2 0x2DBA DUP3 PUSH2 0x2D7B JUMP JUMPDEST PUSH1 0x20 DUP3 ADD SWAP1 POP SWAP2 SWAP1 POP JUMP JUMPDEST PUSH0 PUSH1 0x20 DUP3 ADD SWAP1 POP DUP2 DUP2 SUB PUSH0 DUP4 ADD MSTORE PUSH2 0x2DDC DUP2 PUSH2 0x2DA3 JUMP JUMPDEST SWAP1 POP SWAP2 SWAP1 POP JUMP JUMPDEST PUSH32 0x4E6F7420696E2067616D65000000000000000000000000000000000000000000 PUSH0 DUP3 ADD MSTORE POP JUMP JUMPDEST PUSH0 PUSH2 0x2E17 PUSH1 0xB DUP4 PUSH2 0x2D6B JUMP JUMPDEST SWAP2 POP PUSH2 0x2E22 DUP3 PUSH2 0x2DE3 JUMP JUMPDEST PUSH1 0x20 DUP3 ADD SWAP1 POP SWAP2 SWAP1 POP JUMP JUMPDEST PUSH0 PUSH1 0x20 DUP3 ADD SWAP1 POP DUP2 DUP2 SUB PUSH0 DUP4 ADD MSTORE PUSH2 0x2E44 DUP2 PUSH2 0x2E0B JUMP JUMPDEST SWAP1 POP SWAP2 SWAP1 POP JUMP JUMPDEST PUSH32 0x4E487B7100000000000000000000000000000000000000000000000000000000 PUSH0 MSTORE PUSH1 0x32 PUSH1 0x4 MSTORE PUSH1 0x24 PUSH0 REVERT JUMPDEST PUSH32 0x4E487B7100000000000000000000000000000000000000000000000000000000 PUSH0 MSTORE PUSH1 0x11 PUSH1 0x4 MSTORE PUSH1 0x24 PUSH0 REVERT JUMPDEST PUSH0 PUSH2 0x2EAF DUP3 PUSH2 0x2A62 JUMP JUMPDEST SWAP2 POP PUSH2 0x2EBA DUP4 PUSH2 0x2A62 JUMP JUMPDEST SWAP3 POP DUP3 DUP3 SUB SWAP1 POP DUP2 DUP2 GT ISZERO PUSH2 0x2ED2 JUMPI PUSH2 0x2ED1 PUSH2 0x2E78 JUMP JUMPDEST JUMPDEST SWAP3 SWAP2 POP POP JUMP JUMPDEST PUSH0 PUSH2 0x2EE2 DUP3 PUSH2 0x2A62 JUMP JUMPDEST SWAP2 POP PUSH2 0x2EED DUP4 PUSH2 0x2A62 JUMP JUMPDEST SWAP3 POP DUP3 DUP3 ADD SWAP1 POP DUP1 DUP3 GT ISZERO PUSH2 0x2F05 JUMPI PUSH2 0x2F04 PUSH2 0x2E78 JUMP JUMPDEST JUMPDEST SWAP3 SWAP2 POP POP JUMP JUMPDEST PUSH32 0x496E76616C696420726169736500000000000000000000000000000000000000 PUSH0 DUP3 ADD MSTORE POP JUMP JUMPDEST PUSH0 PUSH2 0x2F3F PUSH1 0xD DUP4 PUSH2 0x2D6B JUMP JUMPDEST SWAP2 POP PUSH2 0x2F4A DUP3 PUSH2 0x2F0B JUMP JUMPDEST PUSH1 0x20 DUP3 ADD SWAP1 POP SWAP2 SWAP1 POP JUMP JUMPDEST PUSH0 PUSH1 0x20 DUP3 ADD SWAP1 POP DUP2 DUP2 SUB PUSH0 DUP4 ADD MSTORE PUSH2 0x2F6C DUP2 PUSH2 0x2F33 JUMP JUMPDEST SWAP1 POP SWAP2 SWAP1 POP JUMP JUMPDEST PUSH0 PUSH1 0x40 DUP3 ADD SWAP1 POP PUSH2 0x2F86 PUSH0 DUP4 ADD DUP6 PUSH2 0x2CD1 JUMP JUMPDEST PUSH2 0x2F93 PUSH1 0x20 DUP4 ADD DUP5 PUSH2 0x2B45 JUMP JUMPDEST SWAP4 SWAP3 POP POP POP JUMP JUMPDEST PUSH32 0x4E487B7100000000000000000000000000000000000000000000000000000000 PUSH0 MSTORE PUSH1 0x12 PUSH1 0x4 MSTORE PUSH1 0x24 PUSH0 REVERT JUMPDEST PUSH0 PUSH2 0x2FD1 DUP3 PUSH2 0x2A62 JUMP JUMPDEST SWAP2 POP PUSH2 0x2FDC DUP4 PUSH2 0x2A62 JUMP JUMPDEST SWAP3 POP DUP3 PUSH2 0x2FEC JUMPI PUSH2 0x2FEB PUSH2 0x2F9A JUMP JUMPDEST JUMPDEST DUP3 DUP3 MOD SWAP1 POP SWAP3 SWAP2 POP POP JUMP JUMPDEST PUSH32 0x302E3030312045544820696E6372656D656E7473000000000000000000000000 PUSH0 DUP3 ADD MSTORE POP JUMP JUMPDEST PUSH0 PUSH2 0x302B PUSH1 0x14 DUP4 PUSH2 0x2D6B JUMP JUMPDEST SWAP2 POP PUSH2 0x3036 DUP3 PUSH2 0x2FF7 JUMP JUMPDEST PUSH1 0x20 DUP3 ADD SWAP1 POP SWAP2 SWAP1 POP JUMP JUMPDEST PUSH0 PUSH1 0x20 DUP3 ADD SWAP1 POP DUP2 DUP2 SUB PUSH0 DUP4 ADD MSTORE PUSH2 0x3058 DUP2 PUSH2 0x301F JUMP JUMPDEST SWAP1 POP SWAP2 SWAP1 POP JUMP JUMPDEST PUSH0 PUSH2 0x3069 DUP3 PUSH2 0x2A62 JUMP JUMPDEST SWAP2 POP PUSH2 0x3074 DUP4 PUSH2 0x2A62 JUMP JUMPDEST SWAP3 POP DUP3 DUP3 MUL PUSH2 0x3082 DUP2 PUSH2 0x2A62 JUMP JUMPDEST SWAP2 POP DUP3 DUP3 DIV DUP5 EQ DUP4 ISZERO OR PUSH2 0x3099 JUMPI PUSH2 0x3098 PUSH2 0x2E78 JUMP JUMPDEST JUMPDEST POP SWAP3 SWAP2 POP POP JUMP JUMPDEST PUSH0 PUSH2 0x30AA DUP3 PUSH2 0x2A62 JUMP JUMPDEST SWAP2 POP PUSH2 0x30B5 DUP4 PUSH2 0x2A62 JUMP JUMPDEST SWAP3 POP DUP3 PUSH2 0x30C5 JUMPI PUSH2 0x30C4 PUSH2 0x2F9A JUMP JUMPDEST JUMPDEST DUP3 DUP3 DIV SWAP1 POP SWAP3 SWAP2 POP POP JUMP JUMPDEST PUSH0 PUSH1 0x40 DUP3 ADD SWAP1 POP PUSH2 0x30E3 PUSH0 DUP4 ADD DUP6 PUSH2 0x2BA0 JUMP JUMPDEST PUSH2 0x30F0 PUSH1 0x20 DUP4 ADD DUP5 PUSH2 0x2B45 JUMP JUMPDEST SWAP4 SWAP3 POP POP POP JUMP JUMPDEST PUSH32 0x3E30000000000000000000000000000000000000000000000000000000000000 PUSH0 DUP3 ADD MSTORE POP JUMP JUMPDEST PUSH0 PUSH2 0x312B PUSH1 0x2 DUP4 PUSH2 0x2D6B JUMP JUMPDEST SWAP2 POP PUSH2 0x3136 DUP3 PUSH2 0x30F7 JUMP JUMPDEST PUSH1 0x20 DUP3 ADD SWAP1 POP SWAP2 SWAP1 POP JUMP JUMPDEST PUSH0 PUSH1 0x20 DUP3 ADD SWAP1 POP DUP2 DUP2 SUB PUSH0 DUP4 ADD MSTORE PUSH2 0x3158 DUP2 PUSH2 0x311F JUMP JUMPDEST SWAP1 POP SWAP2 SWAP1 POP JUMP JUMPDEST PUSH32 0x4C656176652067616D6520746F2065786368616E676500000000000000000000 PUSH0 DUP3 ADD MSTORE POP JUMP JUMPDEST PUSH0 PUSH2 0x3193 PUSH1 0x16 DUP4 PUSH2 0x2D6B JUMP JUMPDEST SWAP2 POP PUSH2 0x319E DUP3 PUSH2 0x315F JUMP JUMPDEST PUSH1 0x20 DUP3 ADD SWAP1 POP SWAP2 SWAP1 POP JUMP JUMPDEST PUSH0 PUSH1 0x20 DUP3 ADD SWAP1 POP DUP2 DUP2 SUB PUSH0 DUP4 ADD MSTORE PUSH2 0x31C0 DUP2 PUSH2 0x3187 JUMP JUMPDEST SWAP1 POP SWAP2 SWAP1 POP JUMP JUMPDEST PUSH32 0x496E73756666696369656E7420636F6E74726163742045544800000000000000 PUSH0 DUP3 ADD MSTORE POP JUMP JUMPDEST PUSH0 PUSH2 0x31FB PUSH1 0x19 DUP4 PUSH2 0x2D6B JUMP JUMPDEST SWAP2 POP PUSH2 0x3206 DUP3 PUSH2 0x31C7 JUMP JUMPDEST PUSH1 0x20 DUP3 ADD SWAP1 POP SWAP2 SWAP1 POP JUMP JUMPDEST PUSH0 PUSH1 0x20 DUP3 ADD SWAP1 POP DUP2 DUP2 SUB PUSH0 DUP4 ADD MSTORE PUSH2 0x3228 DUP2 PUSH2 0x31EF JUMP JUMPDEST SWAP1 POP SWAP2 SWAP1 POP JUMP JUMPDEST PUSH0 PUSH1 0x60 DUP3 ADD SWAP1 POP PUSH2 0x3242 PUSH0 DUP4 ADD DUP7 PUSH2 0x2BA0 JUMP JUMPDEST PUSH2 0x324F PUSH1 0x20 DUP4 ADD DUP6 PUSH2 0x2B45 JUMP JUMPDEST PUSH2 0x325C PUSH1 0x40 DUP4 ADD DUP5 PUSH2 0x2B45 JUMP JUMPDEST SWAP5 SWAP4 POP POP POP POP JUMP JUMPDEST PUSH32 0x43616E6E6F742065786974206E6F770000000000000000000000000000000000 PUSH0 DUP3 ADD MSTORE POP JUMP JUMPDEST PUSH0 PUSH2 0x3298 PUSH1 0xF DUP4 PUSH2 0x2D6B JUMP JUMPDEST SWAP2 POP PUSH2 0x32A3 DUP3 PUSH2 0x3264 JUMP JUMPDEST PUSH1 0x20 DUP3 ADD SWAP1 POP SWAP2 SWAP1 POP JUMP JUMPDEST PUSH0 PUSH1 0x20 DUP3 ADD SWAP1 POP DUP2 DUP2 SUB PUSH0 DUP4 ADD MSTORE PUSH2 0x32C5 DUP2 PUSH2 0x328C JUMP JUMPDEST SWAP1 POP SWAP2 SWAP1 POP JUMP JUMPDEST PUSH0 PUSH2 0x32D6 DUP3 PUSH2 0x2A62 JUMP JUMPDEST SWAP2 POP PUSH0 DUP3 SUB PUSH2 0x32E8 JUMPI PUSH2 0x32E7 PUSH2 0x2E78 JUMP JUMPDEST JUMPDEST PUSH1 0x1 DUP3 SUB SWAP1 POP SWAP2 SWAP1 POP JUMP JUMPDEST PUSH32 0x4E6F742061637469766500000000000000000000000000000000000000000000 PUSH0 DUP3 ADD MSTORE POP JUMP JUMPDEST PUSH0 PUSH2 0x3327 PUSH1 0xA DUP4 PUSH2 0x2D6B JUMP JUMPDEST SWAP2 POP PUSH2 0x3332 DUP3 PUSH2 0x32F3 JUMP JUMPDEST PUSH1 0x20 DUP3 ADD SWAP1 POP SWAP2 SWAP1 POP JUMP JUMPDEST PUSH0 PUSH1 0x20 DUP3 ADD SWAP1 POP DUP2 DUP2 SUB PUSH0 DUP4 ADD MSTORE PUSH2 0x3354 DUP2 PUSH2 0x331B JUMP JUMPDEST SWAP1 POP SWAP2 SWAP1 POP JUMP JUMPDEST PUSH32 0x496E76616C696420626574000000000000000000000000000000000000000000 PUSH0 DUP3 ADD MSTORE POP JUMP JUMPDEST PUSH0 PUSH2 0x338F PUSH1 0xB DUP4 PUSH2 0x2D6B JUMP JUMPDEST SWAP2 POP PUSH2 0x339A DUP3 PUSH2 0x335B JUMP JUMPDEST PUSH1 0x20 DUP3 ADD SWAP1 POP SWAP2 SWAP1 POP JUMP JUMPDEST PUSH0 PUSH1 0x20 DUP3 ADD SWAP1 POP DUP2 DUP2 SUB PUSH0 DUP4 ADD MSTORE PUSH2 0x33BC DUP2 PUSH2 0x3383 JUMP JUMPDEST SWAP1 POP SWAP2 SWAP1 POP JUMP JUMPDEST PUSH32 0x416C726561647920616374656400000000000000000000000000000000000000 PUSH0 DUP3 ADD MSTORE POP JUMP JUMPDEST PUSH0 PUSH2 0x33F7 PUSH1 0xD DUP4 PUSH2 0x2D6B JUMP JUMPDEST SWAP2 POP PUSH2 0x3402 DUP3 PUSH2 0x33C3 JUMP JUMPDEST PUSH1 0x20 DUP3 ADD SWAP1 POP SWAP2 SWAP1 POP JUMP JUMPDEST PUSH0 PUSH1 0x20 DUP3 ADD SWAP1 POP DUP2 DUP2 SUB PUSH0 DUP4 ADD MSTORE PUSH2 0x3424 DUP2 PUSH2 0x33EB JUMP JUMPDEST SWAP1 POP SWAP2 SWAP1 POP JUMP JUMPDEST PUSH32 0x4E6F7468696E6720746F2063616C6C0000000000000000000000000000000000 PUSH0 DUP3 ADD MSTORE POP JUMP JUMPDEST PUSH0 PUSH2 0x345F PUSH1 0xF DUP4 PUSH2 0x2D6B JUMP JUMPDEST SWAP2 POP PUSH2 0x346A DUP3 PUSH2 0x342B JUMP JUMPDEST PUSH1 0x20 DUP3 ADD SWAP1 POP SWAP2 SWAP1 POP JUMP JUMPDEST PUSH0 PUSH1 0x20 DUP3 ADD SWAP1 POP DUP2 DUP2 SUB PUSH0 DUP4 ADD MSTORE PUSH2 0x348C DUP2 PUSH2 0x3453 JUMP JUMPDEST SWAP1 POP SWAP2 SWAP1 POP JUMP JUMPDEST PUSH32 0x416C726561647920696E2067616D650000000000000000000000000000000000 PUSH0 DUP3 ADD MSTORE POP JUMP JUMPDEST PUSH0 PUSH2 0x34C7 PUSH1 0xF DUP4 PUSH2 0x2D6B JUMP JUMPDEST SWAP2 POP PUSH2 0x34D2 DUP3 PUSH2 0x3493 JUMP JUMPDEST PUSH1 0x20 DUP3 ADD SWAP1 POP SWAP2 SWAP1 POP JUMP JUMPDEST PUSH0 PUSH1 0x20 DUP3 ADD SWAP1 POP DUP2 DUP2 SUB PUSH0 DUP4 ADD MSTORE PUSH2 0x34F4 DUP2 PUSH2 0x34BB JUMP JUMPDEST SWAP1 POP SWAP2 SWAP1 POP JUMP JUMPDEST PUSH32 0x53656E6420302E3030312045544820746F206A6F696E00000000000000000000 PUSH0 DUP3 ADD MSTORE POP JUMP JUMPDEST PUSH0 PUSH2 0x352F PUSH1 0x16 DUP4 PUSH2 0x2D6B JUMP JUMPDEST SWAP2 POP PUSH2 0x353A DUP3 PUSH2 0x34FB JUMP JUMPDEST PUSH1 0x20 DUP3 ADD SWAP1 POP SWAP2 SWAP1 POP JUMP JUMPDEST PUSH0 PUSH1 0x20 DUP3 ADD SWAP1 POP DUP2 DUP2 SUB PUSH0 DUP4 ADD MSTORE PUSH2 0x355C DUP2 PUSH2 0x3523 JUMP JUMPDEST SWAP1 POP SWAP2 SWAP1 POP JUMP JUMPDEST PUSH32 0x4D6178203620706C617965727300000000000000000000000000000000000000 PUSH0 DUP3 ADD MSTORE POP JUMP JUMPDEST PUSH0 PUSH2 0x3597 PUSH1 0xD DUP4 PUSH2 0x2D6B JUMP JUMPDEST SWAP2 POP PUSH2 0x35A2 DUP3 PUSH2 0x3563 JUMP JUMPDEST PUSH1 0x20 DUP3 ADD SWAP1 POP SWAP2 SWAP1 POP JUMP JUMPDEST PUSH0 PUSH1 0x20 DUP3 ADD SWAP1 POP DUP2 DUP2 SUB PUSH0 DUP4 ADD MSTORE PUSH2 0x35C4 DUP2 PUSH2 0x358B JUMP JUMPDEST SWAP1 POP SWAP2 SWAP1 POP JUMP JUMPDEST PUSH0 PUSH2 0x35D5 DUP3 PUSH2 0x2A62 JUMP JUMPDEST SWAP2 POP PUSH32 0xFFFFFFFFFFFFFFFFFFFFFFFFFFFFFFFFFFFFFFFFFFFFFFFFFFFFFFFFFFFFFFFF DUP3 SUB PUSH2 0x3607 JUMPI PUSH2 0x3606 PUSH2 0x2E78 JUMP JUMPDEST JUMPDEST PUSH1 0x1 DUP3 ADD SWAP1 POP SWAP2 SWAP1 POP JUMP JUMPDEST PUSH32 0x4F6E6C79206F776E657200000000000000000000000000000000000000000000 PUSH0 DUP3 ADD MSTORE POP JUMP JUMPDEST PUSH0 PUSH2 0x3646 PUSH1 0xA DUP4 PUSH2 0x2D6B JUMP JUMPDEST SWAP2 POP PUSH2 0x3651 DUP3 PUSH2 0x3612 JUMP JUMPDEST PUSH1 0x20 DUP3 ADD SWAP1 POP SWAP2 SWAP1 POP JUMP JUMPDEST PUSH0 PUSH1 0x20 DUP3 ADD SWAP1 POP DUP2 DUP2 SUB PUSH0 DUP4 ADD MSTORE PUSH2 0x3673 DUP2 PUSH2 0x363A JUMP JUMPDEST SWAP1 POP SWAP2 SWAP1 POP JUMP JUMPDEST PUSH32 0x4E656564203E3D32000000000000000000000000000000000000000000000000 PUSH0 DUP3 ADD MSTORE POP JUMP JUMPDEST PUSH0 PUSH2 0x36AE PUSH1 0x8 DUP4 PUSH2 0x2D6B JUMP JUMPDEST SWAP2 POP PUSH2 0x36B9 DUP3 PUSH2 0x367A JUMP JUMPDEST PUSH1 0x20 DUP3 ADD SWAP1 POP SWAP2 SWAP1 POP JUMP JUMPDEST PUSH0 PUSH1 0x20 DUP3 ADD SWAP1 POP DUP2 DUP2 SUB PUSH0 DUP4 ADD MSTORE PUSH2 0x36DB DUP2 PUSH2 0x36A2 JUMP JUMPDEST SWAP1 POP SWAP2 SWAP1 POP JUMP JUMPDEST PUSH0 DUP2 SWAP1 POP SWAP2 SWAP1 POP JUMP JUMPDEST PUSH2 0x36FC PUSH2 0x36F7 DUP3 PUSH2 0x2A62 JUMP JUMPDEST PUSH2 0x36E2 JUMP JUMPDEST DUP3 MSTORE POP POP JUMP JUMPDEST PUSH0 PUSH2 0x370D DUP3 DUP7 PUSH2 0x36EB JUMP JUMPDEST PUSH1 0x20 DUP3 ADD SWAP2 POP PUSH2 0x371D DUP3 DUP6 PUSH2 0x36EB JUMP JUMPDEST PUSH1 0x20 DUP3 ADD SWAP2 POP PUSH2 0x372D DUP3 DUP5 PUSH2 0x36EB JUMP JUMPDEST PUSH1 0x20 DUP3 ADD SWAP2 POP DUP2 SWAP1 POP SWAP5 SWAP4 POP POP POP POP JUMP JUMPDEST PUSH0 PUSH1 0x20 DUP3 ADD SWAP1 POP PUSH2 0x3751 PUSH0 DUP4 ADD DUP5 PUSH2 0x2C8B JUMP JUMPDEST SWAP3 SWAP2 POP POP JUMP JUMPDEST PUSH0 DUP2 SWAP1 POP SWAP2 SWAP1 POP JUMP JUMPDEST PUSH0 DUP2 SWAP1 POP SWAP2 SWAP1 POP JUMP JUMPDEST PUSH0 PUSH2 0x3783 PUSH2 0x377E PUSH2 0x3779 DUP5 PUSH2 0x3757 JUMP JUMPDEST PUSH2 0x3760 JUMP JUMPDEST PUSH2 0x2A62 JUMP JUMPDEST SWAP1 POP SWAP2 SWAP1 POP JUMP JUMPDEST PUSH2 0x3793 DUP2 PUSH2 0x3769 JUMP JUMPDEST DUP3 MSTORE POP POP JUMP JUMPDEST PUSH0 PUSH1 0x40 DUP3 ADD SWAP1 POP PUSH2 0x37AC PUSH0 DUP4 ADD DUP6 PUSH2 0x2CD1 JUMP JUMPDEST PUSH2 0x37B9 PUSH1 0x20 DUP4 ADD DUP5 PUSH2 0x378A JUMP JUMPDEST SWAP4 SWAP3 POP POP POP JUMP JUMPDEST PUSH32 0x4E6F2077696E6E65720000000000000000000000000000000000000000000000 PUSH0 DUP3 ADD MSTORE POP JUMP JUMPDEST PUSH0 PUSH2 0x37F4 PUSH1 0x9 DUP4 PUSH2 0x2D6B JUMP JUMPDEST SWAP2 POP PUSH2 0x37FF DUP3 PUSH2 0x37C0 JUMP JUMPDEST PUSH1 0x20 DUP3 ADD SWAP1 POP SWAP2 SWAP1 POP JUMP JUMPDEST PUSH0 PUSH1 0x20 DUP3 ADD SWAP1 POP DUP2 DUP2 SUB PUSH0 DUP4 ADD MSTORE PUSH2 0x3821 DUP2 PUSH2 0x37E8 JUMP JUMPDEST SWAP1 POP SWAP2 SWAP1 POP JUMP INVALID LOG2 PUSH5 0x6970667358 0x22 SLT KECCAK256 SWAP12 DUP16 0x28 PUSH1 0x7E RJUMPI 0x5FA6 MULMOD SWAP11 PUSH28 0x3FC9DBD766AB5ADC3148F990C8B70B18C4F81A45DC64736F6C634300 ADDMOD 0x1E STOP CALLER "
				},
				"gasEstimates": {
					"creation": {
						"codeDepositCost": "2886000",
						"executionCost": "73877",
						"totalCost": "2959877"
					},
					"external": {
						"activeCount()": "2537",
						"bet(uint256)": "infinite",
						"callAction()": "infinite",
						"currentBet()": "2491",
						"currentPlayerIdx()": "2448",
						"exchange(uint256)": "infinite",
						"exitGame()": "infinite",
						"fold()": "infinite",
						"getChip()": "infinite",
						"isInGame(address)": "2944",
						"joinGame()": "2689",
						"minBet()": "2536",
						"owner()": "2647",
						"phase()": "2575",
						"playerChips(address)": "2870",
						"playerGameId(address)": "2848",
						"playerIndex(address)": "2869",
						"players(uint256)": "infinite",
						"pot()": "2448",
						"raise(uint256)": "infinite",
						"startGame()": "infinite"
					},
					"internal": {
						"advanceTurn()": "infinite",
						"autoReset()": "infinite",
						"compareCards(enum IndianPoker_1_1.CardValue,enum IndianPoker_1_1.CardValue)": "755",
						"finishGame()": "infinite",
						"playerChipsTransfer(address,uint256)": "infinite"
					}
				},
				"methodIdentifiers": {
					"activeCount()": "4331ed1f",
					"bet(uint256)": "7365870b",
					"callAction()": "8536b065",
					"currentBet()": "d504cb65",
					"currentPlayerIdx()": "80acac88",
					"exchange(uint256)": "53556559",
					"exitGame()": "64dbe271",
					"fold()": "e684f46a",
					"getChip()": "38fcfa9e",
					"isInGame(address)": "76e033c7",
					"joinGame()": "d4f77b1c",
					"minBet()": "9619367d",
					"owner()": "8da5cb5b",
					"phase()": "b1c9fe6e",
					"playerChips(address)": "27ef8c99",
					"playerGameId(address)": "25b05c88",
					"playerIndex(address)": "885c7d36",
					"players(uint256)": "f71d96cb",
					"pot()": "4ba2363a",
					"raise(uint256)": "004f4803",
					"startGame()": "d65ab5f2"
				}
			},
			"storageLayout": {
				"storage": [
					{
						"astId": 52,
						"contract": "Final_Project/IndianPoker_1_1.sol:IndianPoker_1_1",
						"label": "phase",
						"offset": 0,
						"slot": "0",
						"type": "t_enum(GamePhase)21"
					},
					{
						"astId": 54,
						"contract": "Final_Project/IndianPoker_1_1.sol:IndianPoker_1_1",
						"label": "owner",
						"offset": 1,
						"slot": "0",
						"type": "t_address"
					},
					{
						"astId": 58,
						"contract": "Final_Project/IndianPoker_1_1.sol:IndianPoker_1_1",
						"label": "players",
						"offset": 0,
						"slot": "1",
						"type": "t_array(t_struct(Player)49_storage)dyn_storage"
					},
					{
						"astId": 62,
						"contract": "Final_Project/IndianPoker_1_1.sol:IndianPoker_1_1",
						"label": "playerIndex",
						"offset": 0,
						"slot": "2",
						"type": "t_mapping(t_address,t_uint256)"
					},
					{
						"astId": 66,
						"contract": "Final_Project/IndianPoker_1_1.sol:IndianPoker_1_1",
						"label": "isInGame",
						"offset": 0,
						"slot": "3",
						"type": "t_mapping(t_address,t_bool)"
					},
					{
						"astId": 70,
						"contract": "Final_Project/IndianPoker_1_1.sol:IndianPoker_1_1",
						"label": "playerChips",
						"offset": 0,
						"slot": "4",
						"type": "t_mapping(t_address,t_uint256)"
					},
					{
						"astId": 74,
						"contract": "Final_Project/IndianPoker_1_1.sol:IndianPoker_1_1",
						"label": "playerGameId",
						"offset": 0,
						"slot": "5",
						"type": "t_mapping(t_address,t_uint256)"
					},
					{
						"astId": 76,
						"contract": "Final_Project/IndianPoker_1_1.sol:IndianPoker_1_1",
						"label": "pot",
						"offset": 0,
						"slot": "6",
						"type": "t_uint256"
					},
					{
						"astId": 78,
						"contract": "Final_Project/IndianPoker_1_1.sol:IndianPoker_1_1",
						"label": "currentBet",
						"offset": 0,
						"slot": "7",
						"type": "t_uint256"
					},
					{
						"astId": 80,
						"contract": "Final_Project/IndianPoker_1_1.sol:IndianPoker_1_1",
						"label": "currentPlayerIdx",
						"offset": 0,
						"slot": "8",
						"type": "t_uint256"
					},
					{
						"astId": 82,
						"contract": "Final_Project/IndianPoker_1_1.sol:IndianPoker_1_1",
						"label": "minBet",
						"offset": 0,
						"slot": "9",
						"type": "t_uint256"
					},
					{
						"astId": 84,
						"contract": "Final_Project/IndianPoker_1_1.sol:IndianPoker_1_1",
						"label": "activeCount",
						"offset": 0,
						"slot": "10",
						"type": "t_uint256"
					}
				],
				"types": {
					"t_address": {
						"encoding": "inplace",
						"label": "address",
						"numberOfBytes": "20"
					},
					"t_array(t_struct(Player)49_storage)dyn_storage": {
						"base": "t_struct(Player)49_storage",
						"encoding": "dynamic_array",
						"label": "struct IndianPoker_1_1.Player[]",
						"numberOfBytes": "32"
					},
					"t_bool": {
						"encoding": "inplace",
						"label": "bool",
						"numberOfBytes": "1"
					},
					"t_enum(CardValue)16": {
						"encoding": "inplace",
						"label": "enum IndianPoker_1_1.CardValue",
						"numberOfBytes": "1"
					},
					"t_enum(GamePhase)21": {
						"encoding": "inplace",
						"label": "enum IndianPoker_1_1.GamePhase",
						"numberOfBytes": "1"
					},
					"t_enum(PlayerAction)28": {
						"encoding": "inplace",
						"label": "enum IndianPoker_1_1.PlayerAction",
						"numberOfBytes": "1"
					},
					"t_mapping(t_address,t_bool)": {
						"encoding": "mapping",
						"key": "t_address",
						"label": "mapping(address => bool)",
						"numberOfBytes": "32",
						"value": "t_bool"
					},
					"t_mapping(t_address,t_uint256)": {
						"encoding": "mapping",
						"key": "t_address",
						"label": "mapping(address => uint256)",
						"numberOfBytes": "32",
						"value": "t_uint256"
					},
					"t_struct(Player)49_storage": {
						"encoding": "inplace",
						"label": "struct IndianPoker_1_1.Player",
						"members": [
							{
								"astId": 30,
								"contract": "Final_Project/IndianPoker_1_1.sol:IndianPoker_1_1",
								"label": "addr",
								"offset": 0,
								"slot": "0",
								"type": "t_address"
							},
							{
								"astId": 32,
								"contract": "Final_Project/IndianPoker_1_1.sol:IndianPoker_1_1",
								"label": "chips",
								"offset": 0,
								"slot": "1",
								"type": "t_uint256"
							},
							{
								"astId": 35,
								"contract": "Final_Project/IndianPoker_1_1.sol:IndianPoker_1_1",
								"label": "card",
								"offset": 0,
								"slot": "2",
								"type": "t_enum(CardValue)16"
							},
							{
								"astId": 37,
								"contract": "Final_Project/IndianPoker_1_1.sol:IndianPoker_1_1",
								"label": "isActive",
								"offset": 1,
								"slot": "2",
								"type": "t_bool"
							},
							{
								"astId": 39,
								"contract": "Final_Project/IndianPoker_1_1.sol:IndianPoker_1_1",
								"label": "hasFolded",
								"offset": 2,
								"slot": "2",
								"type": "t_bool"
							},
							{
								"astId": 41,
								"contract": "Final_Project/IndianPoker_1_1.sol:IndianPoker_1_1",
								"label": "currentBet",
								"offset": 0,
								"slot": "3",
								"type": "t_uint256"
							},
							{
								"astId": 44,
								"contract": "Final_Project/IndianPoker_1_1.sol:IndianPoker_1_1",
								"label": "lastAction",
								"offset": 0,
								"slot": "4",
								"type": "t_enum(PlayerAction)28"
							},
							{
								"astId": 46,
								"contract": "Final_Project/IndianPoker_1_1.sol:IndianPoker_1_1",
								"label": "isAllIn",
								"offset": 1,
								"slot": "4",
								"type": "t_bool"
							},
							{
								"astId": 48,
								"contract": "Final_Project/IndianPoker_1_1.sol:IndianPoker_1_1",
								"label": "allInAmount",
								"offset": 0,
								"slot": "5",
								"type": "t_uint256"
							}
						],
						"numberOfBytes": "192"
					},
					"t_uint256": {
						"encoding": "inplace",
						"label": "uint256",
						"numberOfBytes": "32"
					}
				}
			},
			"userdoc": {
				"kind": "user",
				"methods": {},
				"version": 1
			}
		}
	}
}