{
	"FinalExam/RPG_1.sol": {
		"DecentralizedRPG": {
			"abi": [
				{
					"inputs": [],
					"stateMutability": "nonpayable",
					"type": "constructor"
				},
				{
					"anonymous": false,
					"inputs": [
						{
							"indexed": true,
							"internalType": "address",
							"name": "player",
							"type": "address"
						},
						{
							"indexed": false,
							"internalType": "string",
							"name": "name",
							"type": "string"
						}
					],
					"name": "CharacterCreated",
					"type": "event"
				},
				{
					"anonymous": false,
					"inputs": [
						{
							"indexed": true,
							"internalType": "address",
							"name": "player",
							"type": "address"
						},
						{
							"indexed": false,
							"internalType": "uint256",
							"name": "newLevel",
							"type": "uint256"
						}
					],
					"name": "CharacterLeveledUp",
					"type": "event"
				},
				{
					"anonymous": false,
					"inputs": [
						{
							"indexed": true,
							"internalType": "uint256",
							"name": "itemId",
							"type": "uint256"
						},
						{
							"indexed": false,
							"internalType": "string",
							"name": "name",
							"type": "string"
						},
						{
							"indexed": false,
							"internalType": "uint256",
							"name": "price",
							"type": "uint256"
						}
					],
					"name": "ItemAdded",
					"type": "event"
				},
				{
					"anonymous": false,
					"inputs": [
						{
							"indexed": true,
							"internalType": "address",
							"name": "player",
							"type": "address"
						},
						{
							"indexed": false,
							"internalType": "uint256",
							"name": "itemId",
							"type": "uint256"
						},
						{
							"indexed": false,
							"internalType": "string",
							"name": "itemName",
							"type": "string"
						}
					],
					"name": "ItemPurchased",
					"type": "event"
				},
				{
					"anonymous": false,
					"inputs": [
						{
							"indexed": true,
							"internalType": "uint256",
							"name": "itemId",
							"type": "uint256"
						},
						{
							"indexed": false,
							"internalType": "string",
							"name": "name",
							"type": "string"
						},
						{
							"indexed": false,
							"internalType": "uint256",
							"name": "price",
							"type": "uint256"
						}
					],
					"name": "ItemUpdated",
					"type": "event"
				},
				{
					"inputs": [
						{
							"internalType": "string",
							"name": "_name",
							"type": "string"
						},
						{
							"internalType": "uint256",
							"name": "_atkBoost",
							"type": "uint256"
						},
						{
							"internalType": "uint256",
							"name": "_defBoost",
							"type": "uint256"
						},
						{
							"internalType": "uint256",
							"name": "_price",
							"type": "uint256"
						}
					],
					"name": "addItem",
					"outputs": [],
					"stateMutability": "nonpayable",
					"type": "function"
				},
				{
					"inputs": [
						{
							"internalType": "address",
							"name": "",
							"type": "address"
						}
					],
					"name": "characters",
					"outputs": [
						{
							"internalType": "string",
							"name": "name",
							"type": "string"
						},
						{
							"internalType": "uint256",
							"name": "level",
							"type": "uint256"
						},
						{
							"internalType": "uint256",
							"name": "hp",
							"type": "uint256"
						},
						{
							"internalType": "uint256",
							"name": "atk",
							"type": "uint256"
						},
						{
							"internalType": "uint256",
							"name": "def",
							"type": "uint256"
						},
						{
							"internalType": "uint256",
							"name": "exp",
							"type": "uint256"
						},
						{
							"internalType": "bool",
							"name": "exists",
							"type": "bool"
						}
					],
					"stateMutability": "view",
					"type": "function"
				},
				{
					"inputs": [
						{
							"internalType": "string",
							"name": "_name",
							"type": "string"
						}
					],
					"name": "createCharacter",
					"outputs": [],
					"stateMutability": "nonpayable",
					"type": "function"
				},
				{
					"inputs": [
						{
							"internalType": "uint256",
							"name": "_itemId",
							"type": "uint256"
						}
					],
					"name": "getItem",
					"outputs": [
						{
							"internalType": "uint256",
							"name": "id",
							"type": "uint256"
						},
						{
							"internalType": "string",
							"name": "name",
							"type": "string"
						},
						{
							"internalType": "uint256",
							"name": "atkBoost",
							"type": "uint256"
						},
						{
							"internalType": "uint256",
							"name": "defBoost",
							"type": "uint256"
						},
						{
							"internalType": "uint256",
							"name": "price",
							"type": "uint256"
						}
					],
					"stateMutability": "view",
					"type": "function"
				},
				{
					"inputs": [],
					"name": "getMyCharacter",
					"outputs": [
						{
							"internalType": "string",
							"name": "name",
							"type": "string"
						},
						{
							"internalType": "uint256",
							"name": "level",
							"type": "uint256"
						},
						{
							"internalType": "uint256",
							"name": "hp",
							"type": "uint256"
						},
						{
							"internalType": "uint256",
							"name": "atk",
							"type": "uint256"
						},
						{
							"internalType": "uint256",
							"name": "def",
							"type": "uint256"
						},
						{
							"internalType": "uint256",
							"name": "exp",
							"type": "uint256"
						}
					],
					"stateMutability": "view",
					"type": "function"
				},
				{
					"inputs": [
						{
							"internalType": "uint256",
							"name": "",
							"type": "uint256"
						}
					],
					"name": "items",
					"outputs": [
						{
							"internalType": "uint256",
							"name": "id",
							"type": "uint256"
						},
						{
							"internalType": "string",
							"name": "name",
							"type": "string"
						},
						{
							"internalType": "uint256",
							"name": "atkBoost",
							"type": "uint256"
						},
						{
							"internalType": "uint256",
							"name": "defBoost",
							"type": "uint256"
						},
						{
							"internalType": "uint256",
							"name": "price",
							"type": "uint256"
						},
						{
							"internalType": "bool",
							"name": "exists",
							"type": "bool"
						}
					],
					"stateMutability": "view",
					"type": "function"
				},
				{
					"inputs": [],
					"name": "nextItemId",
					"outputs": [
						{
							"internalType": "uint256",
							"name": "",
							"type": "uint256"
						}
					],
					"stateMutability": "view",
					"type": "function"
				},
				{
					"inputs": [],
					"name": "owner",
					"outputs": [
						{
							"internalType": "address",
							"name": "",
							"type": "address"
						}
					],
					"stateMutability": "view",
					"type": "function"
				},
				{
					"inputs": [
						{
							"internalType": "uint256",
							"name": "_itemId",
							"type": "uint256"
						}
					],
					"name": "purchaseItem",
					"outputs": [],
					"stateMutability": "payable",
					"type": "function"
				},
				{
					"inputs": [],
					"name": "train",
					"outputs": [],
					"stateMutability": "payable",
					"type": "function"
				},
				{
					"inputs": [
						{
							"internalType": "uint256",
							"name": "_itemId",
							"type": "uint256"
						},
						{
							"internalType": "string",
							"name": "_name",
							"type": "string"
						},
						{
							"internalType": "uint256",
							"name": "_atkBoost",
							"type": "uint256"
						},
						{
							"internalType": "uint256",
							"name": "_defBoost",
							"type": "uint256"
						},
						{
							"internalType": "uint256",
							"name": "_price",
							"type": "uint256"
						}
					],
					"name": "updateItem",
					"outputs": [],
					"stateMutability": "nonpayable",
					"type": "function"
				},
				{
					"inputs": [],
					"name": "withdraw",
					"outputs": [],
					"stateMutability": "nonpayable",
					"type": "function"
				}
			],
			"devdoc": {
				"kind": "dev",
				"methods": {
					"addItem(string,uint256,uint256,uint256)": {
						"params": {
							"_atkBoost": "아이템이 제공하는 공격력 증가량",
							"_defBoost": "아이템이 제공하는 방어력 증가량",
							"_name": "아이템 이름",
							"_price": "아이템 가격(wei 단위)"
						}
					},
					"createCharacter(string)": {
						"params": {
							"_name": "생성할 캐릭터의 이름(닉네임)"
						}
					},
					"getItem(uint256)": {
						"details": "배열 리턴은 가스비가 높으므로, 프론트엔드에서 ID만 가져간 뒤 개별 조회할 것을 권장합니다."
					},
					"getMyCharacter()": {
						"returns": {
							"atk": "  캐릭터의 공격력(ATK)",
							"def": "  캐릭터의 방어력(DEF)",
							"exp": "  캐릭터의 현재 경험치(EXP)",
							"hp": "   캐릭터의 체력(HP)",
							"level": "캐릭터의 레벨",
							"name": " 캐릭터의 이름 (닉네임)"
						}
					},
					"purchaseItem(uint256)": {
						"params": {
							"_itemId": "구매할 아이템 ID"
						}
					},
					"train()": {
						"details": "레벨업당 고정 비용(예: 0.01 ETH)을 요구하도록 설정"
					},
					"updateItem(uint256,string,uint256,uint256,uint256)": {
						"params": {
							"_atkBoost": "새로운 공격력 증가량",
							"_defBoost": "새로운 방어력 증가량",
							"_itemId": "수정할 아이템 ID",
							"_name": "새로운 아이템 이름",
							"_price": "새로운 가격(wei 단위)"
						}
					}
				},
				"title": "분산형 RPG 게임 스마트 컨트랙트 (Decentralized RPG)",
				"version": 1
			},
			"evm": {
				"assembly": "    /* \"FinalExam/RPG_1.sol\":340:11005  contract DecentralizedRPG {... */\n  mstore(0x40, 0x80)\n    /* \"FinalExam/RPG_1.sol\":3191:3300  constructor() {... */\n  callvalue\n  dup1\n  iszero\n  tag_1\n  jumpi\n  revert(0x00, 0x00)\ntag_1:\n  pop\n    /* \"FinalExam/RPG_1.sol\":3224:3234  msg.sender */\n  caller\n    /* \"FinalExam/RPG_1.sol\":3216:3221  owner */\n  0x03\n  0x00\n    /* \"FinalExam/RPG_1.sol\":3216:3234  owner = msg.sender */\n  0x0100\n  exp\n  dup2\n  sload\n  dup2\n  0xffffffffffffffffffffffffffffffffffffffff\n  mul\n  not\n  and\n  swap1\n  dup4\n  0xffffffffffffffffffffffffffffffffffffffff\n  and\n  mul\n  or\n  swap1\n  sstore\n  pop\n    /* \"FinalExam/RPG_1.sol\":3258:3259  1 */\n  0x01\n    /* \"FinalExam/RPG_1.sol\":3245:3255  nextItemId */\n  0x02\n    /* \"FinalExam/RPG_1.sol\":3245:3259  nextItemId = 1 */\n  dup2\n  swap1\n  sstore\n  pop\n    /* \"FinalExam/RPG_1.sol\":340:11005  contract DecentralizedRPG {... */\n  dataSize(sub_0)\n  dup1\n  dataOffset(sub_0)\n  0x00\n  codecopy\n  0x00\n  return\nstop\n\nsub_0: assembly {\n        /* \"FinalExam/RPG_1.sol\":340:11005  contract DecentralizedRPG {... */\n      mstore(0x40, 0x80)\n      jumpi(tag_1, lt(calldatasize, 0x04))\n      shr(0xe0, calldataload(0x00))\n      dup1\n      0x8da5cb5b\n      gt\n      tag_14\n      jumpi\n      dup1\n      0x8da5cb5b\n      eq\n      tag_8\n      jumpi\n      dup1\n      0x97c2114f\n      eq\n      tag_9\n      jumpi\n      dup1\n      0xbfb231d2\n      eq\n      tag_10\n      jumpi\n      dup1\n      0xd38ea5bf\n      eq\n      tag_11\n      jumpi\n      dup1\n      0xdc0dd677\n      eq\n      tag_12\n      jumpi\n      dup1\n      0xfdb5949e\n      eq\n      tag_13\n      jumpi\n      jump(tag_1)\n    tag_14:\n      dup1\n      0x1b404fd8\n      eq\n      tag_2\n      jumpi\n      dup1\n      0x3129e773\n      eq\n      tag_3\n      jumpi\n      dup1\n      0x3ccfd60b\n      eq\n      tag_4\n      jumpi\n      dup1\n      0x51768e4d\n      eq\n      tag_5\n      jumpi\n      dup1\n      0x6a868974\n      eq\n      tag_6\n      jumpi\n      dup1\n      0x7e6cc17f\n      eq\n      tag_7\n      jumpi\n    tag_1:\n      revert(0x00, 0x00)\n        /* \"FinalExam/RPG_1.sol\":6304:7199  function train() external payable characterExists {... */\n    tag_2:\n      tag_15\n      tag_16\n      jump\t// in\n    tag_15:\n      stop\n        /* \"FinalExam/RPG_1.sol\":9248:9644  function getItem(uint256 _itemId)... */\n    tag_3:\n      callvalue\n      dup1\n      iszero\n      tag_17\n      jumpi\n      revert(0x00, 0x00)\n    tag_17:\n      pop\n      tag_18\n      0x04\n      dup1\n      calldatasize\n      sub\n      dup2\n      add\n      swap1\n      tag_19\n      swap2\n      swap1\n      tag_20\n      jump\t// in\n    tag_19:\n      tag_21\n      jump\t// in\n    tag_18:\n      mload(0x40)\n      tag_22\n      swap6\n      swap5\n      swap4\n      swap3\n      swap2\n      swap1\n      tag_23\n      jump\t// in\n    tag_22:\n      mload(0x40)\n      dup1\n      swap2\n      sub\n      swap1\n      return\n        /* \"FinalExam/RPG_1.sol\":10808:11002  function withdraw() external onlyOwner {... */\n    tag_4:\n      callvalue\n      dup1\n      iszero\n      tag_24\n      jumpi\n      revert(0x00, 0x00)\n    tag_24:\n      pop\n      tag_25\n      tag_26\n      jump\t// in\n    tag_25:\n      stop\n        /* \"FinalExam/RPG_1.sol\":8600:9035  function updateItem(... */\n    tag_5:\n      callvalue\n      dup1\n      iszero\n      tag_27\n      jumpi\n      revert(0x00, 0x00)\n    tag_27:\n      pop\n      tag_28\n      0x04\n      dup1\n      calldatasize\n      sub\n      dup2\n      add\n      swap1\n      tag_29\n      swap2\n      swap1\n      tag_30\n      jump\t// in\n    tag_29:\n      tag_31\n      jump\t// in\n    tag_28:\n      stop\n        /* \"FinalExam/RPG_1.sol\":2012:2037  uint256 public nextItemId */\n    tag_6:\n      callvalue\n      dup1\n      iszero\n      tag_32\n      jumpi\n      revert(0x00, 0x00)\n    tag_32:\n      pop\n      tag_33\n      tag_34\n      jump\t// in\n    tag_33:\n      mload(0x40)\n      tag_35\n      swap2\n      swap1\n      tag_36\n      jump\t// in\n    tag_35:\n      mload(0x40)\n      dup1\n      swap2\n      sub\n      swap1\n      return\n        /* \"FinalExam/RPG_1.sol\":4619:5193  function createCharacter(string calldata _name) external characterNotExists {... */\n    tag_7:\n      callvalue\n      dup1\n      iszero\n      tag_37\n      jumpi\n      revert(0x00, 0x00)\n    tag_37:\n      pop\n      tag_38\n      0x04\n      dup1\n      calldatasize\n      sub\n      dup2\n      add\n      swap1\n      tag_39\n      swap2\n      swap1\n      tag_40\n      jump\t// in\n    tag_39:\n      tag_41\n      jump\t// in\n    tag_38:\n      stop\n        /* \"FinalExam/RPG_1.sol\":2102:2122  address public owner */\n    tag_8:\n      callvalue\n      dup1\n      iszero\n      tag_42\n      jumpi\n      revert(0x00, 0x00)\n    tag_42:\n      pop\n      tag_43\n      tag_44\n      jump\t// in\n    tag_43:\n      mload(0x40)\n      tag_45\n      swap2\n      swap1\n      tag_46\n      jump\t// in\n    tag_45:\n      mload(0x40)\n      dup1\n      swap2\n      sub\n      swap1\n      return\n        /* \"FinalExam/RPG_1.sol\":1760:1807  mapping(address => Character) public characters */\n    tag_9:\n      callvalue\n      dup1\n      iszero\n      tag_47\n      jumpi\n      revert(0x00, 0x00)\n    tag_47:\n      pop\n      tag_48\n      0x04\n      dup1\n      calldatasize\n      sub\n      dup2\n      add\n      swap1\n      tag_49\n      swap2\n      swap1\n      tag_50\n      jump\t// in\n    tag_49:\n      tag_51\n      jump\t// in\n    tag_48:\n      mload(0x40)\n      tag_52\n      swap8\n      swap7\n      swap6\n      swap5\n      swap4\n      swap3\n      swap2\n      swap1\n      tag_53\n      jump\t// in\n    tag_52:\n      mload(0x40)\n      dup1\n      swap2\n      sub\n      swap1\n      return\n        /* \"FinalExam/RPG_1.sol\":1893:1930  mapping(uint256 => Item) public items */\n    tag_10:\n      callvalue\n      dup1\n      iszero\n      tag_54\n      jumpi\n      revert(0x00, 0x00)\n    tag_54:\n      pop\n      tag_55\n      0x04\n      dup1\n      calldatasize\n      sub\n      dup2\n      add\n      swap1\n      tag_56\n      swap2\n      swap1\n      tag_20\n      jump\t// in\n    tag_56:\n      tag_57\n      jump\t// in\n    tag_55:\n      mload(0x40)\n      tag_58\n      swap7\n      swap6\n      swap5\n      swap4\n      swap3\n      swap2\n      swap1\n      tag_59\n      jump\t// in\n    tag_58:\n      mload(0x40)\n      dup1\n      swap2\n      sub\n      swap1\n      return\n        /* \"FinalExam/RPG_1.sol\":9792:10503  function purchaseItem(uint256 _itemId) external payable characterExists validItem(_itemId) {... */\n    tag_11:\n      tag_60\n      0x04\n      dup1\n      calldatasize\n      sub\n      dup2\n      add\n      swap1\n      tag_61\n      swap2\n      swap1\n      tag_20\n      jump\t// in\n    tag_61:\n      tag_62\n      jump\t// in\n    tag_60:\n      stop\n        /* \"FinalExam/RPG_1.sol\":7739:8237  function addItem(... */\n    tag_12:\n      callvalue\n      dup1\n      iszero\n      tag_63\n      jumpi\n      revert(0x00, 0x00)\n    tag_63:\n      pop\n      tag_64\n      0x04\n      dup1\n      calldatasize\n      sub\n      dup2\n      add\n      swap1\n      tag_65\n      swap2\n      swap1\n      tag_66\n      jump\t// in\n    tag_65:\n      tag_67\n      jump\t// in\n    tag_64:\n      stop\n        /* \"FinalExam/RPG_1.sol\":5700:6105  function getMyCharacter()... */\n    tag_13:\n      callvalue\n      dup1\n      iszero\n      tag_68\n      jumpi\n      revert(0x00, 0x00)\n    tag_68:\n      pop\n      tag_69\n      tag_70\n      jump\t// in\n    tag_69:\n      mload(0x40)\n      tag_71\n      swap7\n      swap6\n      swap5\n      swap4\n      swap3\n      swap2\n      swap1\n      tag_72\n      jump\t// in\n    tag_71:\n      mload(0x40)\n      dup1\n      swap2\n      sub\n      swap1\n      return\n        /* \"FinalExam/RPG_1.sol\":6304:7199  function train() external payable characterExists {... */\n    tag_16:\n        /* \"FinalExam/RPG_1.sol\":3800:3810  characters */\n      0x00\n        /* \"FinalExam/RPG_1.sol\":3800:3822  characters[msg.sender] */\n      0x00\n        /* \"FinalExam/RPG_1.sol\":3811:3821  msg.sender */\n      caller\n        /* \"FinalExam/RPG_1.sol\":3800:3822  characters[msg.sender] */\n      0xffffffffffffffffffffffffffffffffffffffff\n      and\n      0xffffffffffffffffffffffffffffffffffffffff\n      and\n      dup2\n      mstore\n      0x20\n      add\n      swap1\n      dup2\n      mstore\n      0x20\n      add\n      0x00\n      keccak256\n        /* \"FinalExam/RPG_1.sol\":3800:3829  characters[msg.sender].exists */\n      0x06\n      add\n      0x00\n      swap1\n      sload\n      swap1\n      0x0100\n      exp\n      swap1\n      div\n      0xff\n      and\n        /* \"FinalExam/RPG_1.sol\":3792:3859  require(characters[msg.sender].exists, \"Character does not exist.\") */\n      tag_74\n      jumpi\n      mload(0x40)\n      0x08c379a000000000000000000000000000000000000000000000000000000000\n      dup2\n      mstore\n      0x04\n      add\n      tag_75\n      swap1\n      tag_76\n      jump\t// in\n    tag_75:\n      mload(0x40)\n      dup1\n      swap2\n      sub\n      swap1\n      revert\n    tag_74:\n        /* \"FinalExam/RPG_1.sol\":6420:6439  uint256 levelUpCost */\n      0x00\n        /* \"FinalExam/RPG_1.sol\":6442:6452  0.01 ether */\n      0x2386f26fc10000\n        /* \"FinalExam/RPG_1.sol\":6420:6452  uint256 levelUpCost = 0.01 ether */\n      swap1\n      pop\n        /* \"FinalExam/RPG_1.sol\":6484:6495  levelUpCost */\n      dup1\n        /* \"FinalExam/RPG_1.sol\":6471:6480  msg.value */\n      callvalue\n        /* \"FinalExam/RPG_1.sol\":6471:6495  msg.value >= levelUpCost */\n      lt\n      iszero\n        /* \"FinalExam/RPG_1.sol\":6463:6530  require(msg.value >= levelUpCost, \"Insufficient ETH for training.\") */\n      tag_78\n      jumpi\n      mload(0x40)\n      0x08c379a000000000000000000000000000000000000000000000000000000000\n      dup2\n      mstore\n      0x04\n      add\n      tag_79\n      swap1\n      tag_80\n      jump\t// in\n    tag_79:\n      mload(0x40)\n      dup1\n      swap2\n      sub\n      swap1\n      revert\n    tag_78:\n        /* \"FinalExam/RPG_1.sol\":6592:6611  Character storage c */\n      0x00\n        /* \"FinalExam/RPG_1.sol\":6614:6624  characters */\n      0x00\n        /* \"FinalExam/RPG_1.sol\":6614:6636  characters[msg.sender] */\n      0x00\n        /* \"FinalExam/RPG_1.sol\":6625:6635  msg.sender */\n      caller\n        /* \"FinalExam/RPG_1.sol\":6614:6636  characters[msg.sender] */\n      0xffffffffffffffffffffffffffffffffffffffff\n      and\n      0xffffffffffffffffffffffffffffffffffffffff\n      and\n      dup2\n      mstore\n      0x20\n      add\n      swap1\n      dup2\n      mstore\n      0x20\n      add\n      0x00\n      keccak256\n        /* \"FinalExam/RPG_1.sol\":6592:6636  Character storage c = characters[msg.sender] */\n      swap1\n      pop\n        /* \"FinalExam/RPG_1.sol\":6722:6723  1 */\n      0x01\n        /* \"FinalExam/RPG_1.sol\":6711:6712  c */\n      dup2\n        /* \"FinalExam/RPG_1.sol\":6711:6718  c.level */\n      0x01\n      add\n      0x00\n        /* \"FinalExam/RPG_1.sol\":6711:6723  c.level += 1 */\n      dup3\n      dup3\n      sload\n      tag_81\n      swap2\n      swap1\n      tag_82\n      jump\t// in\n    tag_81:\n      swap3\n      pop\n      pop\n      dup2\n      swap1\n      sstore\n      pop\n        /* \"FinalExam/RPG_1.sol\":6742:6744  20 */\n      0x14\n        /* \"FinalExam/RPG_1.sol\":6734:6735  c */\n      dup2\n        /* \"FinalExam/RPG_1.sol\":6734:6738  c.hp */\n      0x02\n      add\n      0x00\n        /* \"FinalExam/RPG_1.sol\":6734:6744  c.hp += 20 */\n      dup3\n      dup3\n      sload\n      tag_83\n      swap2\n      swap1\n      tag_82\n      jump\t// in\n    tag_83:\n      swap3\n      pop\n      pop\n      dup2\n      swap1\n      sstore\n      pop\n        /* \"FinalExam/RPG_1.sol\":6794:6795  5 */\n      0x05\n        /* \"FinalExam/RPG_1.sol\":6785:6786  c */\n      dup2\n        /* \"FinalExam/RPG_1.sol\":6785:6790  c.atk */\n      0x03\n      add\n      0x00\n        /* \"FinalExam/RPG_1.sol\":6785:6795  c.atk += 5 */\n      dup3\n      dup3\n      sload\n      tag_84\n      swap2\n      swap1\n      tag_82\n      jump\t// in\n    tag_84:\n      swap3\n      pop\n      pop\n      dup2\n      swap1\n      sstore\n      pop\n        /* \"FinalExam/RPG_1.sol\":6847:6848  3 */\n      0x03\n        /* \"FinalExam/RPG_1.sol\":6838:6839  c */\n      dup2\n        /* \"FinalExam/RPG_1.sol\":6838:6843  c.def */\n      0x04\n      add\n      0x00\n        /* \"FinalExam/RPG_1.sol\":6838:6848  c.def += 3 */\n      dup3\n      dup3\n      sload\n      tag_85\n      swap2\n      swap1\n      tag_82\n      jump\t// in\n    tag_85:\n      swap3\n      pop\n      pop\n      dup2\n      swap1\n      sstore\n      pop\n        /* \"FinalExam/RPG_1.sol\":6899:6900  0 */\n      0x00\n        /* \"FinalExam/RPG_1.sol\":6891:6892  c */\n      dup2\n        /* \"FinalExam/RPG_1.sol\":6891:6896  c.exp */\n      0x05\n      add\n        /* \"FinalExam/RPG_1.sol\":6891:6900  c.exp = 0 */\n      dup2\n      swap1\n      sstore\n      pop\n        /* \"FinalExam/RPG_1.sol\":7001:7011  msg.sender */\n      caller\n        /* \"FinalExam/RPG_1.sol\":6982:7021  CharacterLeveledUp(msg.sender, c.level) */\n      0xffffffffffffffffffffffffffffffffffffffff\n      and\n      0x04091bfe95d32fe3fa332958aa806de6891a0c16daa4dbfc9ea18f7fd67ea078\n        /* \"FinalExam/RPG_1.sol\":7013:7014  c */\n      dup3\n        /* \"FinalExam/RPG_1.sol\":7013:7020  c.level */\n      0x01\n      add\n      sload\n        /* \"FinalExam/RPG_1.sol\":6982:7021  CharacterLeveledUp(msg.sender, c.level) */\n      mload(0x40)\n      tag_86\n      swap2\n      swap1\n      tag_36\n      jump\t// in\n    tag_86:\n      mload(0x40)\n      dup1\n      swap2\n      sub\n      swap1\n      log2\n        /* \"FinalExam/RPG_1.sol\":7099:7110  levelUpCost */\n      dup2\n        /* \"FinalExam/RPG_1.sol\":7087:7096  msg.value */\n      callvalue\n        /* \"FinalExam/RPG_1.sol\":7087:7110  msg.value > levelUpCost */\n      gt\n        /* \"FinalExam/RPG_1.sol\":7083:7192  if (msg.value > levelUpCost) {... */\n      iszero\n      tag_87\n      jumpi\n        /* \"FinalExam/RPG_1.sol\":7135:7145  msg.sender */\n      caller\n        /* \"FinalExam/RPG_1.sol\":7127:7155  payable(msg.sender).transfer */\n      0xffffffffffffffffffffffffffffffffffffffff\n      and\n        /* \"FinalExam/RPG_1.sol\":7127:7180  payable(msg.sender).transfer(msg.value - levelUpCost) */\n      0x08fc\n        /* \"FinalExam/RPG_1.sol\":7168:7179  levelUpCost */\n      dup4\n        /* \"FinalExam/RPG_1.sol\":7156:7165  msg.value */\n      callvalue\n        /* \"FinalExam/RPG_1.sol\":7156:7179  msg.value - levelUpCost */\n      tag_88\n      swap2\n      swap1\n      tag_89\n      jump\t// in\n    tag_88:\n        /* \"FinalExam/RPG_1.sol\":7127:7180  payable(msg.sender).transfer(msg.value - levelUpCost) */\n      swap1\n      dup2\n      iszero\n      mul\n      swap1\n      mload(0x40)\n      0x00\n      mload(0x40)\n      dup1\n      dup4\n      sub\n      dup2\n      dup6\n      dup9\n      dup9\n      call\n      swap4\n      pop\n      pop\n      pop\n      pop\n      iszero\n      dup1\n      iszero\n      tag_91\n      jumpi\n      returndatacopy(0x00, 0x00, returndatasize)\n      revert(0x00, returndatasize)\n    tag_91:\n      pop\n        /* \"FinalExam/RPG_1.sol\":7083:7192  if (msg.value > levelUpCost) {... */\n    tag_87:\n        /* \"FinalExam/RPG_1.sol\":6354:7199  {... */\n      pop\n      pop\n        /* \"FinalExam/RPG_1.sol\":6304:7199  function train() external payable characterExists {... */\n      jump\t// out\n        /* \"FinalExam/RPG_1.sol\":9248:9644  function getItem(uint256 _itemId)... */\n    tag_21:\n        /* \"FinalExam/RPG_1.sol\":9374:9384  uint256 id */\n      0x00\n        /* \"FinalExam/RPG_1.sol\":9399:9417  string memory name */\n      0x60\n        /* \"FinalExam/RPG_1.sol\":9432:9448  uint256 atkBoost */\n      0x00\n        /* \"FinalExam/RPG_1.sol\":9463:9479  uint256 defBoost */\n      0x00\n        /* \"FinalExam/RPG_1.sol\":9494:9507  uint256 price */\n      0x00\n        /* \"FinalExam/RPG_1.sol\":9333:9340  _itemId */\n      dup6\n        /* \"FinalExam/RPG_1.sol\":4226:4231  items */\n      0x01\n        /* \"FinalExam/RPG_1.sol\":4226:4240  items[_itemId] */\n      0x00\n        /* \"FinalExam/RPG_1.sol\":4232:4239  _itemId */\n      dup3\n        /* \"FinalExam/RPG_1.sol\":4226:4240  items[_itemId] */\n      dup2\n      mstore\n      0x20\n      add\n      swap1\n      dup2\n      mstore\n      0x20\n      add\n      0x00\n      keccak256\n        /* \"FinalExam/RPG_1.sol\":4226:4247  items[_itemId].exists */\n      0x05\n      add\n      0x00\n      swap1\n      sload\n      swap1\n      0x0100\n      exp\n      swap1\n      div\n      0xff\n      and\n        /* \"FinalExam/RPG_1.sol\":4218:4272  require(items[_itemId].exists, \"Item does not exist.\") */\n      tag_93\n      jumpi\n      mload(0x40)\n      0x08c379a000000000000000000000000000000000000000000000000000000000\n      dup2\n      mstore\n      0x04\n      add\n      tag_94\n      swap1\n      tag_95\n      jump\t// in\n    tag_94:\n      mload(0x40)\n      dup1\n      swap2\n      sub\n      swap1\n      revert\n    tag_93:\n        /* \"FinalExam/RPG_1.sol\":9535:9549  Item memory it */\n      0x00\n        /* \"FinalExam/RPG_1.sol\":9552:9557  items */\n      0x01\n        /* \"FinalExam/RPG_1.sol\":9552:9566  items[_itemId] */\n      0x00\n        /* \"FinalExam/RPG_1.sol\":9558:9565  _itemId */\n      dup10\n        /* \"FinalExam/RPG_1.sol\":9552:9566  items[_itemId] */\n      dup2\n      mstore\n      0x20\n      add\n      swap1\n      dup2\n      mstore\n      0x20\n      add\n      0x00\n      keccak256\n        /* \"FinalExam/RPG_1.sol\":9535:9566  Item memory it = items[_itemId] */\n      mload(0x40)\n      dup1\n      0xc0\n      add\n      0x40\n      mstore\n      swap1\n      dup2\n      0x00\n      dup3\n      add\n      sload\n      dup2\n      mstore\n      0x20\n      add\n      0x01\n      dup3\n      add\n      dup1\n      sload\n      tag_97\n      swap1\n      tag_98\n      jump\t// in\n    tag_97:\n      dup1\n      0x1f\n      add\n      0x20\n      dup1\n      swap2\n      div\n      mul\n      0x20\n      add\n      mload(0x40)\n      swap1\n      dup2\n      add\n      0x40\n      mstore\n      dup1\n      swap3\n      swap2\n      swap1\n      dup2\n      dup2\n      mstore\n      0x20\n      add\n      dup3\n      dup1\n      sload\n      tag_99\n      swap1\n      tag_98\n      jump\t// in\n    tag_99:\n      dup1\n      iszero\n      tag_100\n      jumpi\n      dup1\n      0x1f\n      lt\n      tag_101\n      jumpi\n      0x0100\n      dup1\n      dup4\n      sload\n      div\n      mul\n      dup4\n      mstore\n      swap2\n      0x20\n      add\n      swap2\n      jump(tag_100)\n    tag_101:\n      dup3\n      add\n      swap2\n      swap1\n      0x00\n      mstore\n      keccak256(0x00, 0x20)\n      swap1\n    tag_102:\n      dup2\n      sload\n      dup2\n      mstore\n      swap1\n      0x01\n      add\n      swap1\n      0x20\n      add\n      dup1\n      dup4\n      gt\n      tag_102\n      jumpi\n      dup3\n      swap1\n      sub\n      0x1f\n      and\n      dup3\n      add\n      swap2\n    tag_100:\n      pop\n      pop\n      pop\n      pop\n      pop\n      dup2\n      mstore\n      0x20\n      add\n      0x02\n      dup3\n      add\n      sload\n      dup2\n      mstore\n      0x20\n      add\n      0x03\n      dup3\n      add\n      sload\n      dup2\n      mstore\n      0x20\n      add\n      0x04\n      dup3\n      add\n      sload\n      dup2\n      mstore\n      0x20\n      add\n      0x05\n      dup3\n      add\n      0x00\n      swap1\n      sload\n      swap1\n      0x0100\n      exp\n      swap1\n      div\n      0xff\n      and\n      iszero\n      iszero\n      iszero\n      iszero\n      dup2\n      mstore\n      pop\n      pop\n      swap1\n      pop\n        /* \"FinalExam/RPG_1.sol\":9585:9587  it */\n      dup1\n        /* \"FinalExam/RPG_1.sol\":9585:9590  it.id */\n      0x00\n      add\n      mload\n        /* \"FinalExam/RPG_1.sol\":9592:9594  it */\n      dup2\n        /* \"FinalExam/RPG_1.sol\":9592:9599  it.name */\n      0x20\n      add\n      mload\n        /* \"FinalExam/RPG_1.sol\":9601:9603  it */\n      dup3\n        /* \"FinalExam/RPG_1.sol\":9601:9612  it.atkBoost */\n      0x40\n      add\n      mload\n        /* \"FinalExam/RPG_1.sol\":9614:9616  it */\n      dup4\n        /* \"FinalExam/RPG_1.sol\":9614:9625  it.defBoost */\n      0x60\n      add\n      mload\n        /* \"FinalExam/RPG_1.sol\":9627:9629  it */\n      dup5\n        /* \"FinalExam/RPG_1.sol\":9627:9635  it.price */\n      0x80\n      add\n      mload\n        /* \"FinalExam/RPG_1.sol\":9577:9636  return (it.id, it.name, it.atkBoost, it.defBoost, it.price) */\n      swap7\n      pop\n      swap7\n      pop\n      swap7\n      pop\n      swap7\n      pop\n      swap7\n      pop\n      pop\n        /* \"FinalExam/RPG_1.sol\":9248:9644  function getItem(uint256 _itemId)... */\n      pop\n      swap2\n      swap4\n      swap6\n      swap1\n      swap3\n      swap5\n      pop\n      jump\t// out\n        /* \"FinalExam/RPG_1.sol\":10808:11002  function withdraw() external onlyOwner {... */\n    tag_26:\n        /* \"FinalExam/RPG_1.sol\":3629:3634  owner */\n      0x03\n      0x00\n      swap1\n      sload\n      swap1\n      0x0100\n      exp\n      swap1\n      div\n      0xffffffffffffffffffffffffffffffffffffffff\n      and\n        /* \"FinalExam/RPG_1.sol\":3615:3634  msg.sender == owner */\n      0xffffffffffffffffffffffffffffffffffffffff\n      and\n        /* \"FinalExam/RPG_1.sol\":3615:3625  msg.sender */\n      caller\n        /* \"FinalExam/RPG_1.sol\":3615:3634  msg.sender == owner */\n      0xffffffffffffffffffffffffffffffffffffffff\n      and\n      eq\n        /* \"FinalExam/RPG_1.sol\":3607:3663  require(msg.sender == owner, \"Caller is not the owner.\") */\n      tag_104\n      jumpi\n      mload(0x40)\n      0x08c379a000000000000000000000000000000000000000000000000000000000\n      dup2\n      mstore\n      0x04\n      add\n      tag_105\n      swap1\n      tag_106\n      jump\t// in\n    tag_105:\n      mload(0x40)\n      dup1\n      swap2\n      sub\n      swap1\n      revert\n    tag_104:\n        /* \"FinalExam/RPG_1.sol\":10858:10873  uint256 balance */\n      0x00\n        /* \"FinalExam/RPG_1.sol\":10876:10897  address(this).balance */\n      selfbalance\n        /* \"FinalExam/RPG_1.sol\":10858:10897  uint256 balance = address(this).balance */\n      swap1\n      pop\n        /* \"FinalExam/RPG_1.sol\":10926:10927  0 */\n      0x00\n        /* \"FinalExam/RPG_1.sol\":10916:10923  balance */\n      dup2\n        /* \"FinalExam/RPG_1.sol\":10916:10927  balance > 0 */\n      gt\n        /* \"FinalExam/RPG_1.sol\":10908:10951  require(balance > 0, \"No ETH to withdraw.\") */\n      tag_108\n      jumpi\n      mload(0x40)\n      0x08c379a000000000000000000000000000000000000000000000000000000000\n      dup2\n      mstore\n      0x04\n      add\n      tag_109\n      swap1\n      tag_110\n      jump\t// in\n    tag_109:\n      mload(0x40)\n      dup1\n      swap2\n      sub\n      swap1\n      revert\n    tag_108:\n        /* \"FinalExam/RPG_1.sol\":10970:10975  owner */\n      0x03\n      0x00\n      swap1\n      sload\n      swap1\n      0x0100\n      exp\n      swap1\n      div\n      0xffffffffffffffffffffffffffffffffffffffff\n      and\n        /* \"FinalExam/RPG_1.sol\":10962:10985  payable(owner).transfer */\n      0xffffffffffffffffffffffffffffffffffffffff\n      and\n        /* \"FinalExam/RPG_1.sol\":10962:10994  payable(owner).transfer(balance) */\n      0x08fc\n        /* \"FinalExam/RPG_1.sol\":10986:10993  balance */\n      dup3\n        /* \"FinalExam/RPG_1.sol\":10962:10994  payable(owner).transfer(balance) */\n      swap1\n      dup2\n      iszero\n      mul\n      swap1\n      mload(0x40)\n      0x00\n      mload(0x40)\n      dup1\n      dup4\n      sub\n      dup2\n      dup6\n      dup9\n      dup9\n      call\n      swap4\n      pop\n      pop\n      pop\n      pop\n      iszero\n      dup1\n      iszero\n      tag_112\n      jumpi\n      returndatacopy(0x00, 0x00, returndatasize)\n      revert(0x00, returndatasize)\n    tag_112:\n      pop\n        /* \"FinalExam/RPG_1.sol\":10847:11002  {... */\n      pop\n        /* \"FinalExam/RPG_1.sol\":10808:11002  function withdraw() external onlyOwner {... */\n      jump\t// out\n        /* \"FinalExam/RPG_1.sol\":8600:9035  function updateItem(... */\n    tag_31:\n        /* \"FinalExam/RPG_1.sol\":3629:3634  owner */\n      0x03\n      0x00\n      swap1\n      sload\n      swap1\n      0x0100\n      exp\n      swap1\n      div\n      0xffffffffffffffffffffffffffffffffffffffff\n      and\n        /* \"FinalExam/RPG_1.sol\":3615:3634  msg.sender == owner */\n      0xffffffffffffffffffffffffffffffffffffffff\n      and\n        /* \"FinalExam/RPG_1.sol\":3615:3625  msg.sender */\n      caller\n        /* \"FinalExam/RPG_1.sol\":3615:3634  msg.sender == owner */\n      0xffffffffffffffffffffffffffffffffffffffff\n      and\n      eq\n        /* \"FinalExam/RPG_1.sol\":3607:3663  require(msg.sender == owner, \"Caller is not the owner.\") */\n      tag_114\n      jumpi\n      mload(0x40)\n      0x08c379a000000000000000000000000000000000000000000000000000000000\n      dup2\n      mstore\n      0x04\n      add\n      tag_115\n      swap1\n      tag_106\n      jump\t// in\n    tag_115:\n      mload(0x40)\n      dup1\n      swap2\n      sub\n      swap1\n      revert\n    tag_114:\n        /* \"FinalExam/RPG_1.sol\":8795:8802  _itemId */\n      dup6\n        /* \"FinalExam/RPG_1.sol\":4226:4231  items */\n      0x01\n        /* \"FinalExam/RPG_1.sol\":4226:4240  items[_itemId] */\n      0x00\n        /* \"FinalExam/RPG_1.sol\":4232:4239  _itemId */\n      dup3\n        /* \"FinalExam/RPG_1.sol\":4226:4240  items[_itemId] */\n      dup2\n      mstore\n      0x20\n      add\n      swap1\n      dup2\n      mstore\n      0x20\n      add\n      0x00\n      keccak256\n        /* \"FinalExam/RPG_1.sol\":4226:4247  items[_itemId].exists */\n      0x05\n      add\n      0x00\n      swap1\n      sload\n      swap1\n      0x0100\n      exp\n      swap1\n      div\n      0xff\n      and\n        /* \"FinalExam/RPG_1.sol\":4218:4272  require(items[_itemId].exists, \"Item does not exist.\") */\n      tag_117\n      jumpi\n      mload(0x40)\n      0x08c379a000000000000000000000000000000000000000000000000000000000\n      dup2\n      mstore\n      0x04\n      add\n      tag_118\n      swap1\n      tag_95\n      jump\t// in\n    tag_118:\n      mload(0x40)\n      dup1\n      swap2\n      sub\n      swap1\n      revert\n    tag_117:\n        /* \"FinalExam/RPG_1.sol\":8837:8842  _name */\n      dup6\n      dup6\n        /* \"FinalExam/RPG_1.sol\":8815:8820  items */\n      0x01\n        /* \"FinalExam/RPG_1.sol\":8815:8829  items[_itemId] */\n      0x00\n        /* \"FinalExam/RPG_1.sol\":8821:8828  _itemId */\n      dup11\n        /* \"FinalExam/RPG_1.sol\":8815:8829  items[_itemId] */\n      dup2\n      mstore\n      0x20\n      add\n      swap1\n      dup2\n      mstore\n      0x20\n      add\n      0x00\n      keccak256\n        /* \"FinalExam/RPG_1.sol\":8815:8834  items[_itemId].name */\n      0x01\n      add\n        /* \"FinalExam/RPG_1.sol\":8815:8842  items[_itemId].name = _name */\n      swap2\n      dup3\n      tag_120\n      swap3\n      swap2\n      swap1\n      tag_121\n      jump\t// in\n    tag_120:\n      pop\n        /* \"FinalExam/RPG_1.sol\":8879:8888  _atkBoost */\n      dup4\n        /* \"FinalExam/RPG_1.sol\":8853:8858  items */\n      0x01\n        /* \"FinalExam/RPG_1.sol\":8853:8867  items[_itemId] */\n      0x00\n        /* \"FinalExam/RPG_1.sol\":8859:8866  _itemId */\n      dup10\n        /* \"FinalExam/RPG_1.sol\":8853:8867  items[_itemId] */\n      dup2\n      mstore\n      0x20\n      add\n      swap1\n      dup2\n      mstore\n      0x20\n      add\n      0x00\n      keccak256\n        /* \"FinalExam/RPG_1.sol\":8853:8876  items[_itemId].atkBoost */\n      0x02\n      add\n        /* \"FinalExam/RPG_1.sol\":8853:8888  items[_itemId].atkBoost = _atkBoost */\n      dup2\n      swap1\n      sstore\n      pop\n        /* \"FinalExam/RPG_1.sol\":8925:8934  _defBoost */\n      dup3\n        /* \"FinalExam/RPG_1.sol\":8899:8904  items */\n      0x01\n        /* \"FinalExam/RPG_1.sol\":8899:8913  items[_itemId] */\n      0x00\n        /* \"FinalExam/RPG_1.sol\":8905:8912  _itemId */\n      dup10\n        /* \"FinalExam/RPG_1.sol\":8899:8913  items[_itemId] */\n      dup2\n      mstore\n      0x20\n      add\n      swap1\n      dup2\n      mstore\n      0x20\n      add\n      0x00\n      keccak256\n        /* \"FinalExam/RPG_1.sol\":8899:8922  items[_itemId].defBoost */\n      0x03\n      add\n        /* \"FinalExam/RPG_1.sol\":8899:8934  items[_itemId].defBoost = _defBoost */\n      dup2\n      swap1\n      sstore\n      pop\n        /* \"FinalExam/RPG_1.sol\":8968:8974  _price */\n      dup2\n        /* \"FinalExam/RPG_1.sol\":8945:8950  items */\n      0x01\n        /* \"FinalExam/RPG_1.sol\":8945:8959  items[_itemId] */\n      0x00\n        /* \"FinalExam/RPG_1.sol\":8951:8958  _itemId */\n      dup10\n        /* \"FinalExam/RPG_1.sol\":8945:8959  items[_itemId] */\n      dup2\n      mstore\n      0x20\n      add\n      swap1\n      dup2\n      mstore\n      0x20\n      add\n      0x00\n      keccak256\n        /* \"FinalExam/RPG_1.sol\":8945:8965  items[_itemId].price */\n      0x04\n      add\n        /* \"FinalExam/RPG_1.sol\":8945:8974  items[_itemId].price = _price */\n      dup2\n      swap1\n      sstore\n      pop\n        /* \"FinalExam/RPG_1.sol\":9004:9011  _itemId */\n      dup7\n        /* \"FinalExam/RPG_1.sol\":8992:9027  ItemUpdated(_itemId, _name, _price) */\n      0x607557a00b0ef90bc9c8e9453cb94c555e187555e111468cd2cb2be930fc1615\n        /* \"FinalExam/RPG_1.sol\":9013:9018  _name */\n      dup8\n      dup8\n        /* \"FinalExam/RPG_1.sol\":9020:9026  _price */\n      dup6\n        /* \"FinalExam/RPG_1.sol\":8992:9027  ItemUpdated(_itemId, _name, _price) */\n      mload(0x40)\n      tag_122\n      swap4\n      swap3\n      swap2\n      swap1\n      tag_123\n      jump\t// in\n    tag_122:\n      mload(0x40)\n      dup1\n      swap2\n      sub\n      swap1\n      log2\n        /* \"FinalExam/RPG_1.sol\":3674:3675  _ */\n      pop\n        /* \"FinalExam/RPG_1.sol\":8600:9035  function updateItem(... */\n      pop\n      pop\n      pop\n      pop\n      pop\n      pop\n      jump\t// out\n        /* \"FinalExam/RPG_1.sol\":2012:2037  uint256 public nextItemId */\n    tag_34:\n      sload(0x02)\n      dup2\n      jump\t// out\n        /* \"FinalExam/RPG_1.sol\":4619:5193  function createCharacter(string calldata _name) external characterNotExists {... */\n    tag_41:\n        /* \"FinalExam/RPG_1.sol\":4007:4017  characters */\n      0x00\n        /* \"FinalExam/RPG_1.sol\":4007:4029  characters[msg.sender] */\n      0x00\n        /* \"FinalExam/RPG_1.sol\":4018:4028  msg.sender */\n      caller\n        /* \"FinalExam/RPG_1.sol\":4007:4029  characters[msg.sender] */\n      0xffffffffffffffffffffffffffffffffffffffff\n      and\n      0xffffffffffffffffffffffffffffffffffffffff\n      and\n      dup2\n      mstore\n      0x20\n      add\n      swap1\n      dup2\n      mstore\n      0x20\n      add\n      0x00\n      keccak256\n        /* \"FinalExam/RPG_1.sol\":4007:4036  characters[msg.sender].exists */\n      0x06\n      add\n      0x00\n      swap1\n      sload\n      swap1\n      0x0100\n      exp\n      swap1\n      div\n      0xff\n      and\n        /* \"FinalExam/RPG_1.sol\":4006:4036  !characters[msg.sender].exists */\n      iszero\n        /* \"FinalExam/RPG_1.sol\":3998:4066  require(!characters[msg.sender].exists, \"Character already exists.\") */\n      tag_125\n      jumpi\n      mload(0x40)\n      0x08c379a000000000000000000000000000000000000000000000000000000000\n      dup2\n      mstore\n      0x04\n      add\n      tag_126\n      swap1\n      tag_127\n      jump\t// in\n    tag_126:\n      mload(0x40)\n      dup1\n      swap2\n      sub\n      swap1\n      revert\n    tag_125:\n        /* \"FinalExam/RPG_1.sol\":4751:4771  uint256 initialLevel */\n      0x00\n        /* \"FinalExam/RPG_1.sol\":4774:4775  1 */\n      0x01\n        /* \"FinalExam/RPG_1.sol\":4751:4775  uint256 initialLevel = 1 */\n      swap1\n      pop\n        /* \"FinalExam/RPG_1.sol\":4786:4803  uint256 initialHp */\n      0x00\n        /* \"FinalExam/RPG_1.sol\":4806:4809  100 */\n      0x64\n        /* \"FinalExam/RPG_1.sol\":4786:4809  uint256 initialHp = 100 */\n      swap1\n      pop\n        /* \"FinalExam/RPG_1.sol\":4820:4838  uint256 initialAtk */\n      0x00\n        /* \"FinalExam/RPG_1.sol\":4841:4843  10 */\n      0x0a\n        /* \"FinalExam/RPG_1.sol\":4820:4843  uint256 initialAtk = 10 */\n      swap1\n      pop\n        /* \"FinalExam/RPG_1.sol\":4854:4872  uint256 initialDef */\n      0x00\n        /* \"FinalExam/RPG_1.sol\":4875:4876  5 */\n      0x05\n        /* \"FinalExam/RPG_1.sol\":4854:4876  uint256 initialDef = 5 */\n      swap1\n      pop\n        /* \"FinalExam/RPG_1.sol\":4914:5132  Character({... */\n      mload(0x40)\n      dup1\n      0xe0\n      add\n      0x40\n      mstore\n      dup1\n        /* \"FinalExam/RPG_1.sol\":4945:4950  _name */\n      dup8\n      dup8\n        /* \"FinalExam/RPG_1.sol\":4914:5132  Character({... */\n      dup1\n      dup1\n      0x1f\n      add\n      0x20\n      dup1\n      swap2\n      div\n      mul\n      0x20\n      add\n      mload(0x40)\n      swap1\n      dup2\n      add\n      0x40\n      mstore\n      dup1\n      swap4\n      swap3\n      swap2\n      swap1\n      dup2\n      dup2\n      mstore\n      0x20\n      add\n      dup4\n      dup4\n      dup1\n      dup3\n      dup5\n      calldatacopy\n      0x00\n      dup2\n      dup5\n      add\n      mstore\n      not(0x1f)\n      0x1f\n      dup3\n      add\n      and\n      swap1\n      pop\n      dup1\n      dup4\n      add\n      swap3\n      pop\n      pop\n      pop\n      pop\n      pop\n      pop\n      pop\n      dup2\n      mstore\n      0x20\n      add\n        /* \"FinalExam/RPG_1.sol\":4972:4984  initialLevel */\n      dup6\n        /* \"FinalExam/RPG_1.sol\":4914:5132  Character({... */\n      dup2\n      mstore\n      0x20\n      add\n        /* \"FinalExam/RPG_1.sol\":5003:5012  initialHp */\n      dup5\n        /* \"FinalExam/RPG_1.sol\":4914:5132  Character({... */\n      dup2\n      mstore\n      0x20\n      add\n        /* \"FinalExam/RPG_1.sol\":5032:5042  initialAtk */\n      dup4\n        /* \"FinalExam/RPG_1.sol\":4914:5132  Character({... */\n      dup2\n      mstore\n      0x20\n      add\n        /* \"FinalExam/RPG_1.sol\":5062:5072  initialDef */\n      dup3\n        /* \"FinalExam/RPG_1.sol\":4914:5132  Character({... */\n      dup2\n      mstore\n      0x20\n      add\n        /* \"FinalExam/RPG_1.sol\":5092:5093  0 */\n      0x00\n        /* \"FinalExam/RPG_1.sol\":4914:5132  Character({... */\n      dup2\n      mstore\n      0x20\n      add\n        /* \"FinalExam/RPG_1.sol\":5116:5120  true */\n      0x01\n        /* \"FinalExam/RPG_1.sol\":4914:5132  Character({... */\n      iszero\n      iszero\n      dup2\n      mstore\n      pop\n        /* \"FinalExam/RPG_1.sol\":4889:4899  characters */\n      0x00\n        /* \"FinalExam/RPG_1.sol\":4889:4911  characters[msg.sender] */\n      0x00\n        /* \"FinalExam/RPG_1.sol\":4900:4910  msg.sender */\n      caller\n        /* \"FinalExam/RPG_1.sol\":4889:4911  characters[msg.sender] */\n      0xffffffffffffffffffffffffffffffffffffffff\n      and\n      0xffffffffffffffffffffffffffffffffffffffff\n      and\n      dup2\n      mstore\n      0x20\n      add\n      swap1\n      dup2\n      mstore\n      0x20\n      add\n      0x00\n      keccak256\n        /* \"FinalExam/RPG_1.sol\":4889:5132  characters[msg.sender] = Character({... */\n      0x00\n      dup3\n      add\n      mload\n      dup2\n      0x00\n      add\n      swap1\n      dup2\n      tag_129\n      swap2\n      swap1\n      tag_130\n      jump\t// in\n    tag_129:\n      pop\n      0x20\n      dup3\n      add\n      mload\n      dup2\n      0x01\n      add\n      sstore\n      0x40\n      dup3\n      add\n      mload\n      dup2\n      0x02\n      add\n      sstore\n      0x60\n      dup3\n      add\n      mload\n      dup2\n      0x03\n      add\n      sstore\n      0x80\n      dup3\n      add\n      mload\n      dup2\n      0x04\n      add\n      sstore\n      0xa0\n      dup3\n      add\n      mload\n      dup2\n      0x05\n      add\n      sstore\n      0xc0\n      dup3\n      add\n      mload\n      dup2\n      0x06\n      add\n      exp(0x0100, 0x00)\n      dup2\n      sload\n      dup2\n      0xff\n      mul\n      not\n      and\n      swap1\n      dup4\n      iszero\n      iszero\n      mul\n      or\n      swap1\n      sstore\n      pop\n      swap1\n      pop\n      pop\n        /* \"FinalExam/RPG_1.sol\":5167:5177  msg.sender */\n      caller\n        /* \"FinalExam/RPG_1.sol\":5150:5185  CharacterCreated(msg.sender, _name) */\n      0xffffffffffffffffffffffffffffffffffffffff\n      and\n      0x8761958357b74cb0da99450c1a85e61427b9c7d7b208ee29b019670fabda4f0b\n        /* \"FinalExam/RPG_1.sol\":5179:5184  _name */\n      dup8\n      dup8\n        /* \"FinalExam/RPG_1.sol\":5150:5185  CharacterCreated(msg.sender, _name) */\n      mload(0x40)\n      tag_131\n      swap3\n      swap2\n      swap1\n      tag_132\n      jump\t// in\n    tag_131:\n      mload(0x40)\n      dup1\n      swap2\n      sub\n      swap1\n      log2\n        /* \"FinalExam/RPG_1.sol\":4695:5193  {... */\n      pop\n      pop\n      pop\n      pop\n        /* \"FinalExam/RPG_1.sol\":4619:5193  function createCharacter(string calldata _name) external characterNotExists {... */\n      pop\n      pop\n      jump\t// out\n        /* \"FinalExam/RPG_1.sol\":2102:2122  address public owner */\n    tag_44:\n      0x03\n      0x00\n      swap1\n      sload\n      swap1\n      0x0100\n      exp\n      swap1\n      div\n      0xffffffffffffffffffffffffffffffffffffffff\n      and\n      dup2\n      jump\t// out\n        /* \"FinalExam/RPG_1.sol\":1760:1807  mapping(address => Character) public characters */\n    tag_51:\n      mstore(0x20, 0x00)\n      dup1\n      0x00\n      mstore\n      keccak256(0x00, 0x40)\n      0x00\n      swap2\n      pop\n      swap1\n      pop\n      dup1\n      0x00\n      add\n      dup1\n      sload\n      tag_133\n      swap1\n      tag_98\n      jump\t// in\n    tag_133:\n      dup1\n      0x1f\n      add\n      0x20\n      dup1\n      swap2\n      div\n      mul\n      0x20\n      add\n      mload(0x40)\n      swap1\n      dup2\n      add\n      0x40\n      mstore\n      dup1\n      swap3\n      swap2\n      swap1\n      dup2\n      dup2\n      mstore\n      0x20\n      add\n      dup3\n      dup1\n      sload\n      tag_134\n      swap1\n      tag_98\n      jump\t// in\n    tag_134:\n      dup1\n      iszero\n      tag_135\n      jumpi\n      dup1\n      0x1f\n      lt\n      tag_136\n      jumpi\n      0x0100\n      dup1\n      dup4\n      sload\n      div\n      mul\n      dup4\n      mstore\n      swap2\n      0x20\n      add\n      swap2\n      jump(tag_135)\n    tag_136:\n      dup3\n      add\n      swap2\n      swap1\n      0x00\n      mstore\n      keccak256(0x00, 0x20)\n      swap1\n    tag_137:\n      dup2\n      sload\n      dup2\n      mstore\n      swap1\n      0x01\n      add\n      swap1\n      0x20\n      add\n      dup1\n      dup4\n      gt\n      tag_137\n      jumpi\n      dup3\n      swap1\n      sub\n      0x1f\n      and\n      dup3\n      add\n      swap2\n    tag_135:\n      pop\n      pop\n      pop\n      pop\n      pop\n      swap1\n      dup1\n      0x01\n      add\n      sload\n      swap1\n      dup1\n      0x02\n      add\n      sload\n      swap1\n      dup1\n      0x03\n      add\n      sload\n      swap1\n      dup1\n      0x04\n      add\n      sload\n      swap1\n      dup1\n      0x05\n      add\n      sload\n      swap1\n      dup1\n      0x06\n      add\n      0x00\n      swap1\n      sload\n      swap1\n      0x0100\n      exp\n      swap1\n      div\n      0xff\n      and\n      swap1\n      pop\n      dup8\n      jump\t// out\n        /* \"FinalExam/RPG_1.sol\":1893:1930  mapping(uint256 => Item) public items */\n    tag_57:\n      mstore(0x20, 0x01)\n      dup1\n      0x00\n      mstore\n      keccak256(0x00, 0x40)\n      0x00\n      swap2\n      pop\n      swap1\n      pop\n      dup1\n      0x00\n      add\n      sload\n      swap1\n      dup1\n      0x01\n      add\n      dup1\n      sload\n      tag_138\n      swap1\n      tag_98\n      jump\t// in\n    tag_138:\n      dup1\n      0x1f\n      add\n      0x20\n      dup1\n      swap2\n      div\n      mul\n      0x20\n      add\n      mload(0x40)\n      swap1\n      dup2\n      add\n      0x40\n      mstore\n      dup1\n      swap3\n      swap2\n      swap1\n      dup2\n      dup2\n      mstore\n      0x20\n      add\n      dup3\n      dup1\n      sload\n      tag_139\n      swap1\n      tag_98\n      jump\t// in\n    tag_139:\n      dup1\n      iszero\n      tag_140\n      jumpi\n      dup1\n      0x1f\n      lt\n      tag_141\n      jumpi\n      0x0100\n      dup1\n      dup4\n      sload\n      div\n      mul\n      dup4\n      mstore\n      swap2\n      0x20\n      add\n      swap2\n      jump(tag_140)\n    tag_141:\n      dup3\n      add\n      swap2\n      swap1\n      0x00\n      mstore\n      keccak256(0x00, 0x20)\n      swap1\n    tag_142:\n      dup2\n      sload\n      dup2\n      mstore\n      swap1\n      0x01\n      add\n      swap1\n      0x20\n      add\n      dup1\n      dup4\n      gt\n      tag_142\n      jumpi\n      dup3\n      swap1\n      sub\n      0x1f\n      and\n      dup3\n      add\n      swap2\n    tag_140:\n      pop\n      pop\n      pop\n      pop\n      pop\n      swap1\n      dup1\n      0x02\n      add\n      sload\n      swap1\n      dup1\n      0x03\n      add\n      sload\n      swap1\n      dup1\n      0x04\n      add\n      sload\n      swap1\n      dup1\n      0x05\n      add\n      0x00\n      swap1\n      sload\n      swap1\n      0x0100\n      exp\n      swap1\n      div\n      0xff\n      and\n      swap1\n      pop\n      dup7\n      jump\t// out\n        /* \"FinalExam/RPG_1.sol\":9792:10503  function purchaseItem(uint256 _itemId) external payable characterExists validItem(_itemId) {... */\n    tag_62:\n        /* \"FinalExam/RPG_1.sol\":3800:3810  characters */\n      0x00\n        /* \"FinalExam/RPG_1.sol\":3800:3822  characters[msg.sender] */\n      0x00\n        /* \"FinalExam/RPG_1.sol\":3811:3821  msg.sender */\n      caller\n        /* \"FinalExam/RPG_1.sol\":3800:3822  characters[msg.sender] */\n      0xffffffffffffffffffffffffffffffffffffffff\n      and\n      0xffffffffffffffffffffffffffffffffffffffff\n      and\n      dup2\n      mstore\n      0x20\n      add\n      swap1\n      dup2\n      mstore\n      0x20\n      add\n      0x00\n      keccak256\n        /* \"FinalExam/RPG_1.sol\":3800:3829  characters[msg.sender].exists */\n      0x06\n      add\n      0x00\n      swap1\n      sload\n      swap1\n      0x0100\n      exp\n      swap1\n      div\n      0xff\n      and\n        /* \"FinalExam/RPG_1.sol\":3792:3859  require(characters[msg.sender].exists, \"Character does not exist.\") */\n      tag_144\n      jumpi\n      mload(0x40)\n      0x08c379a000000000000000000000000000000000000000000000000000000000\n      dup2\n      mstore\n      0x04\n      add\n      tag_145\n      swap1\n      tag_76\n      jump\t// in\n    tag_145:\n      mload(0x40)\n      dup1\n      swap2\n      sub\n      swap1\n      revert\n    tag_144:\n        /* \"FinalExam/RPG_1.sol\":9874:9881  _itemId */\n      dup1\n        /* \"FinalExam/RPG_1.sol\":4226:4231  items */\n      0x01\n        /* \"FinalExam/RPG_1.sol\":4226:4240  items[_itemId] */\n      0x00\n        /* \"FinalExam/RPG_1.sol\":4232:4239  _itemId */\n      dup3\n        /* \"FinalExam/RPG_1.sol\":4226:4240  items[_itemId] */\n      dup2\n      mstore\n      0x20\n      add\n      swap1\n      dup2\n      mstore\n      0x20\n      add\n      0x00\n      keccak256\n        /* \"FinalExam/RPG_1.sol\":4226:4247  items[_itemId].exists */\n      0x05\n      add\n      0x00\n      swap1\n      sload\n      swap1\n      0x0100\n      exp\n      swap1\n      div\n      0xff\n      and\n        /* \"FinalExam/RPG_1.sol\":4218:4272  require(items[_itemId].exists, \"Item does not exist.\") */\n      tag_147\n      jumpi\n      mload(0x40)\n      0x08c379a000000000000000000000000000000000000000000000000000000000\n      dup2\n      mstore\n      0x04\n      add\n      tag_148\n      swap1\n      tag_95\n      jump\t// in\n    tag_148:\n      mload(0x40)\n      dup1\n      swap2\n      sub\n      swap1\n      revert\n    tag_147:\n        /* \"FinalExam/RPG_1.sol\":9894:9908  Item memory it */\n      0x00\n        /* \"FinalExam/RPG_1.sol\":9911:9916  items */\n      0x01\n        /* \"FinalExam/RPG_1.sol\":9911:9925  items[_itemId] */\n      0x00\n        /* \"FinalExam/RPG_1.sol\":9917:9924  _itemId */\n      dup5\n        /* \"FinalExam/RPG_1.sol\":9911:9925  items[_itemId] */\n      dup2\n      mstore\n      0x20\n      add\n      swap1\n      dup2\n      mstore\n      0x20\n      add\n      0x00\n      keccak256\n        /* \"FinalExam/RPG_1.sol\":9894:9925  Item memory it = items[_itemId] */\n      mload(0x40)\n      dup1\n      0xc0\n      add\n      0x40\n      mstore\n      swap1\n      dup2\n      0x00\n      dup3\n      add\n      sload\n      dup2\n      mstore\n      0x20\n      add\n      0x01\n      dup3\n      add\n      dup1\n      sload\n      tag_150\n      swap1\n      tag_98\n      jump\t// in\n    tag_150:\n      dup1\n      0x1f\n      add\n      0x20\n      dup1\n      swap2\n      div\n      mul\n      0x20\n      add\n      mload(0x40)\n      swap1\n      dup2\n      add\n      0x40\n      mstore\n      dup1\n      swap3\n      swap2\n      swap1\n      dup2\n      dup2\n      mstore\n      0x20\n      add\n      dup3\n      dup1\n      sload\n      tag_151\n      swap1\n      tag_98\n      jump\t// in\n    tag_151:\n      dup1\n      iszero\n      tag_152\n      jumpi\n      dup1\n      0x1f\n      lt\n      tag_153\n      jumpi\n      0x0100\n      dup1\n      dup4\n      sload\n      div\n      mul\n      dup4\n      mstore\n      swap2\n      0x20\n      add\n      swap2\n      jump(tag_152)\n    tag_153:\n      dup3\n      add\n      swap2\n      swap1\n      0x00\n      mstore\n      keccak256(0x00, 0x20)\n      swap1\n    tag_154:\n      dup2\n      sload\n      dup2\n      mstore\n      swap1\n      0x01\n      add\n      swap1\n      0x20\n      add\n      dup1\n      dup4\n      gt\n      tag_154\n      jumpi\n      dup3\n      swap1\n      sub\n      0x1f\n      and\n      dup3\n      add\n      swap2\n    tag_152:\n      pop\n      pop\n      pop\n      pop\n      pop\n      dup2\n      mstore\n      0x20\n      add\n      0x02\n      dup3\n      add\n      sload\n      dup2\n      mstore\n      0x20\n      add\n      0x03\n      dup3\n      add\n      sload\n      dup2\n      mstore\n      0x20\n      add\n      0x04\n      dup3\n      add\n      sload\n      dup2\n      mstore\n      0x20\n      add\n      0x05\n      dup3\n      add\n      0x00\n      swap1\n      sload\n      swap1\n      0x0100\n      exp\n      swap1\n      div\n      0xff\n      and\n      iszero\n      iszero\n      iszero\n      iszero\n      dup2\n      mstore\n      pop\n      pop\n      swap1\n      pop\n        /* \"FinalExam/RPG_1.sol\":10014:10016  it */\n      dup1\n        /* \"FinalExam/RPG_1.sol\":10014:10022  it.price */\n      0x80\n      add\n      mload\n        /* \"FinalExam/RPG_1.sol\":10001:10010  msg.value */\n      callvalue\n        /* \"FinalExam/RPG_1.sol\":10001:10022  msg.value >= it.price */\n      lt\n      iszero\n        /* \"FinalExam/RPG_1.sol\":9993:10061  require(msg.value >= it.price, \"Insufficient ETH to purchase item.\") */\n      tag_155\n      jumpi\n      mload(0x40)\n      0x08c379a000000000000000000000000000000000000000000000000000000000\n      dup2\n      mstore\n      0x04\n      add\n      tag_156\n      swap1\n      tag_157\n      jump\t// in\n    tag_156:\n      mload(0x40)\n      dup1\n      swap2\n      sub\n      swap1\n      revert\n    tag_155:\n        /* \"FinalExam/RPG_1.sol\":10074:10093  Character storage c */\n      0x00\n        /* \"FinalExam/RPG_1.sol\":10096:10106  characters */\n      0x00\n        /* \"FinalExam/RPG_1.sol\":10096:10118  characters[msg.sender] */\n      0x00\n        /* \"FinalExam/RPG_1.sol\":10107:10117  msg.sender */\n      caller\n        /* \"FinalExam/RPG_1.sol\":10096:10118  characters[msg.sender] */\n      0xffffffffffffffffffffffffffffffffffffffff\n      and\n      0xffffffffffffffffffffffffffffffffffffffff\n      and\n      dup2\n      mstore\n      0x20\n      add\n      swap1\n      dup2\n      mstore\n      0x20\n      add\n      0x00\n      keccak256\n        /* \"FinalExam/RPG_1.sol\":10074:10118  Character storage c = characters[msg.sender] */\n      swap1\n      pop\n        /* \"FinalExam/RPG_1.sol\":10176:10178  it */\n      dup2\n        /* \"FinalExam/RPG_1.sol\":10176:10187  it.atkBoost */\n      0x40\n      add\n      mload\n        /* \"FinalExam/RPG_1.sol\":10167:10168  c */\n      dup2\n        /* \"FinalExam/RPG_1.sol\":10167:10172  c.atk */\n      0x03\n      add\n      0x00\n        /* \"FinalExam/RPG_1.sol\":10167:10187  c.atk += it.atkBoost */\n      dup3\n      dup3\n      sload\n      tag_158\n      swap2\n      swap1\n      tag_82\n      jump\t// in\n    tag_158:\n      swap3\n      pop\n      pop\n      dup2\n      swap1\n      sstore\n      pop\n        /* \"FinalExam/RPG_1.sol\":10207:10209  it */\n      dup2\n        /* \"FinalExam/RPG_1.sol\":10207:10218  it.defBoost */\n      0x60\n      add\n      mload\n        /* \"FinalExam/RPG_1.sol\":10198:10199  c */\n      dup2\n        /* \"FinalExam/RPG_1.sol\":10198:10203  c.def */\n      0x04\n      add\n      0x00\n        /* \"FinalExam/RPG_1.sol\":10198:10218  c.def += it.defBoost */\n      dup3\n      dup3\n      sload\n      tag_159\n      swap2\n      swap1\n      tag_82\n      jump\t// in\n    tag_159:\n      swap3\n      pop\n      pop\n      dup2\n      swap1\n      sstore\n      pop\n        /* \"FinalExam/RPG_1.sol\":10321:10331  msg.sender */\n      caller\n        /* \"FinalExam/RPG_1.sol\":10307:10350  ItemPurchased(msg.sender, _itemId, it.name) */\n      0xffffffffffffffffffffffffffffffffffffffff\n      and\n      0x3851cc2c7466ed3adbe97d3763e0bf81511e17ae75184adb0646294d9e2698aa\n        /* \"FinalExam/RPG_1.sol\":10333:10340  _itemId */\n      dup6\n        /* \"FinalExam/RPG_1.sol\":10342:10344  it */\n      dup5\n        /* \"FinalExam/RPG_1.sol\":10342:10349  it.name */\n      0x20\n      add\n      mload\n        /* \"FinalExam/RPG_1.sol\":10307:10350  ItemPurchased(msg.sender, _itemId, it.name) */\n      mload(0x40)\n      tag_160\n      swap3\n      swap2\n      swap1\n      tag_161\n      jump\t// in\n    tag_160:\n      mload(0x40)\n      dup1\n      swap2\n      sub\n      swap1\n      log2\n        /* \"FinalExam/RPG_1.sol\":10409:10411  it */\n      dup2\n        /* \"FinalExam/RPG_1.sol\":10409:10417  it.price */\n      0x80\n      add\n      mload\n        /* \"FinalExam/RPG_1.sol\":10397:10406  msg.value */\n      callvalue\n        /* \"FinalExam/RPG_1.sol\":10397:10417  msg.value > it.price */\n      gt\n        /* \"FinalExam/RPG_1.sol\":10393:10496  if (msg.value > it.price) {... */\n      iszero\n      tag_162\n      jumpi\n        /* \"FinalExam/RPG_1.sol\":10442:10452  msg.sender */\n      caller\n        /* \"FinalExam/RPG_1.sol\":10434:10462  payable(msg.sender).transfer */\n      0xffffffffffffffffffffffffffffffffffffffff\n      and\n        /* \"FinalExam/RPG_1.sol\":10434:10484  payable(msg.sender).transfer(msg.value - it.price) */\n      0x08fc\n        /* \"FinalExam/RPG_1.sol\":10475:10477  it */\n      dup4\n        /* \"FinalExam/RPG_1.sol\":10475:10483  it.price */\n      0x80\n      add\n      mload\n        /* \"FinalExam/RPG_1.sol\":10463:10472  msg.value */\n      callvalue\n        /* \"FinalExam/RPG_1.sol\":10463:10483  msg.value - it.price */\n      tag_163\n      swap2\n      swap1\n      tag_89\n      jump\t// in\n    tag_163:\n        /* \"FinalExam/RPG_1.sol\":10434:10484  payable(msg.sender).transfer(msg.value - it.price) */\n      swap1\n      dup2\n      iszero\n      mul\n      swap1\n      mload(0x40)\n      0x00\n      mload(0x40)\n      dup1\n      dup4\n      sub\n      dup2\n      dup6\n      dup9\n      dup9\n      call\n      swap4\n      pop\n      pop\n      pop\n      pop\n      iszero\n      dup1\n      iszero\n      tag_165\n      jumpi\n      returndatacopy(0x00, 0x00, returndatasize)\n      revert(0x00, returndatasize)\n    tag_165:\n      pop\n        /* \"FinalExam/RPG_1.sol\":10393:10496  if (msg.value > it.price) {... */\n    tag_162:\n        /* \"FinalExam/RPG_1.sol\":9883:10503  {... */\n      pop\n      pop\n        /* \"FinalExam/RPG_1.sol\":3870:3871  _ */\n      pop\n        /* \"FinalExam/RPG_1.sol\":9792:10503  function purchaseItem(uint256 _itemId) external payable characterExists validItem(_itemId) {... */\n      pop\n      jump\t// out\n        /* \"FinalExam/RPG_1.sol\":7739:8237  function addItem(... */\n    tag_67:\n        /* \"FinalExam/RPG_1.sol\":3629:3634  owner */\n      0x03\n      0x00\n      swap1\n      sload\n      swap1\n      0x0100\n      exp\n      swap1\n      div\n      0xffffffffffffffffffffffffffffffffffffffff\n      and\n        /* \"FinalExam/RPG_1.sol\":3615:3634  msg.sender == owner */\n      0xffffffffffffffffffffffffffffffffffffffff\n      and\n        /* \"FinalExam/RPG_1.sol\":3615:3625  msg.sender */\n      caller\n        /* \"FinalExam/RPG_1.sol\":3615:3634  msg.sender == owner */\n      0xffffffffffffffffffffffffffffffffffffffff\n      and\n      eq\n        /* \"FinalExam/RPG_1.sol\":3607:3663  require(msg.sender == owner, \"Caller is not the owner.\") */\n      tag_167\n      jumpi\n      mload(0x40)\n      0x08c379a000000000000000000000000000000000000000000000000000000000\n      dup2\n      mstore\n      0x04\n      add\n      tag_168\n      swap1\n      tag_106\n      jump\t// in\n    tag_168:\n      mload(0x40)\n      dup1\n      swap2\n      sub\n      swap1\n      revert\n    tag_167:\n        /* \"FinalExam/RPG_1.sol\":7906:7920  uint256 itemId */\n      0x00\n        /* \"FinalExam/RPG_1.sol\":7923:7933  nextItemId */\n      sload(0x02)\n        /* \"FinalExam/RPG_1.sol\":7906:7933  uint256 itemId = nextItemId */\n      swap1\n      pop\n        /* \"FinalExam/RPG_1.sol\":7960:8151  Item({... */\n      mload(0x40)\n      dup1\n      0xc0\n      add\n      0x40\n      mstore\n      dup1\n        /* \"FinalExam/RPG_1.sol\":7984:7990  itemId */\n      dup3\n        /* \"FinalExam/RPG_1.sol\":7960:8151  Item({... */\n      dup2\n      mstore\n      0x20\n      add\n        /* \"FinalExam/RPG_1.sol\":8011:8016  _name */\n      dup8\n      dup8\n        /* \"FinalExam/RPG_1.sol\":7960:8151  Item({... */\n      dup1\n      dup1\n      0x1f\n      add\n      0x20\n      dup1\n      swap2\n      div\n      mul\n      0x20\n      add\n      mload(0x40)\n      swap1\n      dup2\n      add\n      0x40\n      mstore\n      dup1\n      swap4\n      swap3\n      swap2\n      swap1\n      dup2\n      dup2\n      mstore\n      0x20\n      add\n      dup4\n      dup4\n      dup1\n      dup3\n      dup5\n      calldatacopy\n      0x00\n      dup2\n      dup5\n      add\n      mstore\n      not(0x1f)\n      0x1f\n      dup3\n      add\n      and\n      swap1\n      pop\n      dup1\n      dup4\n      add\n      swap3\n      pop\n      pop\n      pop\n      pop\n      pop\n      pop\n      pop\n      dup2\n      mstore\n      0x20\n      add\n        /* \"FinalExam/RPG_1.sol\":8041:8050  _atkBoost */\n      dup6\n        /* \"FinalExam/RPG_1.sol\":7960:8151  Item({... */\n      dup2\n      mstore\n      0x20\n      add\n        /* \"FinalExam/RPG_1.sol\":8075:8084  _defBoost */\n      dup5\n        /* \"FinalExam/RPG_1.sol\":7960:8151  Item({... */\n      dup2\n      mstore\n      0x20\n      add\n        /* \"FinalExam/RPG_1.sol\":8106:8112  _price */\n      dup4\n        /* \"FinalExam/RPG_1.sol\":7960:8151  Item({... */\n      dup2\n      mstore\n      0x20\n      add\n        /* \"FinalExam/RPG_1.sol\":8135:8139  true */\n      0x01\n        /* \"FinalExam/RPG_1.sol\":7960:8151  Item({... */\n      iszero\n      iszero\n      dup2\n      mstore\n      pop\n        /* \"FinalExam/RPG_1.sol\":7944:7949  items */\n      0x01\n        /* \"FinalExam/RPG_1.sol\":7944:7957  items[itemId] */\n      0x00\n        /* \"FinalExam/RPG_1.sol\":7950:7956  itemId */\n      dup4\n        /* \"FinalExam/RPG_1.sol\":7944:7957  items[itemId] */\n      dup2\n      mstore\n      0x20\n      add\n      swap1\n      dup2\n      mstore\n      0x20\n      add\n      0x00\n      keccak256\n        /* \"FinalExam/RPG_1.sol\":7944:8151  items[itemId] = Item({... */\n      0x00\n      dup3\n      add\n      mload\n      dup2\n      0x00\n      add\n      sstore\n      0x20\n      dup3\n      add\n      mload\n      dup2\n      0x01\n      add\n      swap1\n      dup2\n      tag_170\n      swap2\n      swap1\n      tag_130\n      jump\t// in\n    tag_170:\n      pop\n      0x40\n      dup3\n      add\n      mload\n      dup2\n      0x02\n      add\n      sstore\n      0x60\n      dup3\n      add\n      mload\n      dup2\n      0x03\n      add\n      sstore\n      0x80\n      dup3\n      add\n      mload\n      dup2\n      0x04\n      add\n      sstore\n      0xa0\n      dup3\n      add\n      mload\n      dup2\n      0x05\n      add\n      exp(0x0100, 0x00)\n      dup2\n      sload\n      dup2\n      0xff\n      mul\n      not\n      and\n      swap1\n      dup4\n      iszero\n      iszero\n      mul\n      or\n      swap1\n      sstore\n      pop\n      swap1\n      pop\n      pop\n        /* \"FinalExam/RPG_1.sol\":8178:8179  1 */\n      0x01\n        /* \"FinalExam/RPG_1.sol\":8164:8174  nextItemId */\n      0x02\n      0x00\n        /* \"FinalExam/RPG_1.sol\":8164:8179  nextItemId += 1 */\n      dup3\n      dup3\n      sload\n      tag_171\n      swap2\n      swap1\n      tag_82\n      jump\t// in\n    tag_171:\n      swap3\n      pop\n      pop\n      dup2\n      swap1\n      sstore\n      pop\n        /* \"FinalExam/RPG_1.sol\":8207:8213  itemId */\n      dup1\n        /* \"FinalExam/RPG_1.sol\":8197:8229  ItemAdded(itemId, _name, _price) */\n      0x0444434676a57f70f8479401c50fb4add3e31052f88f4b35e155b7759e5968e5\n        /* \"FinalExam/RPG_1.sol\":8215:8220  _name */\n      dup8\n      dup8\n        /* \"FinalExam/RPG_1.sol\":8222:8228  _price */\n      dup6\n        /* \"FinalExam/RPG_1.sol\":8197:8229  ItemAdded(itemId, _name, _price) */\n      mload(0x40)\n      tag_172\n      swap4\n      swap3\n      swap2\n      swap1\n      tag_123\n      jump\t// in\n    tag_172:\n      mload(0x40)\n      dup1\n      swap2\n      sub\n      swap1\n      log2\n        /* \"FinalExam/RPG_1.sol\":7895:8237  {... */\n      pop\n        /* \"FinalExam/RPG_1.sol\":7739:8237  function addItem(... */\n      pop\n      pop\n      pop\n      pop\n      pop\n      jump\t// out\n        /* \"FinalExam/RPG_1.sol\":5700:6105  function getMyCharacter()... */\n    tag_70:\n        /* \"FinalExam/RPG_1.sol\":5815:5833  string memory name */\n      0x60\n        /* \"FinalExam/RPG_1.sol\":5848:5861  uint256 level */\n      0x00\n        /* \"FinalExam/RPG_1.sol\":5876:5886  uint256 hp */\n      0x00\n        /* \"FinalExam/RPG_1.sol\":5901:5912  uint256 atk */\n      0x00\n        /* \"FinalExam/RPG_1.sol\":5927:5938  uint256 def */\n      0x00\n        /* \"FinalExam/RPG_1.sol\":5953:5964  uint256 exp */\n      0x00\n        /* \"FinalExam/RPG_1.sol\":3800:3810  characters */\n      0x00\n        /* \"FinalExam/RPG_1.sol\":3800:3822  characters[msg.sender] */\n      0x00\n        /* \"FinalExam/RPG_1.sol\":3811:3821  msg.sender */\n      caller\n        /* \"FinalExam/RPG_1.sol\":3800:3822  characters[msg.sender] */\n      0xffffffffffffffffffffffffffffffffffffffff\n      and\n      0xffffffffffffffffffffffffffffffffffffffff\n      and\n      dup2\n      mstore\n      0x20\n      add\n      swap1\n      dup2\n      mstore\n      0x20\n      add\n      0x00\n      keccak256\n        /* \"FinalExam/RPG_1.sol\":3800:3829  characters[msg.sender].exists */\n      0x06\n      add\n      0x00\n      swap1\n      sload\n      swap1\n      0x0100\n      exp\n      swap1\n      div\n      0xff\n      and\n        /* \"FinalExam/RPG_1.sol\":3792:3859  require(characters[msg.sender].exists, \"Character does not exist.\") */\n      tag_174\n      jumpi\n      mload(0x40)\n      0x08c379a000000000000000000000000000000000000000000000000000000000\n      dup2\n      mstore\n      0x04\n      add\n      tag_175\n      swap1\n      tag_76\n      jump\t// in\n    tag_175:\n      mload(0x40)\n      dup1\n      swap2\n      sub\n      swap1\n      revert\n    tag_174:\n        /* \"FinalExam/RPG_1.sol\":5992:6010  Character memory c */\n      0x00\n        /* \"FinalExam/RPG_1.sol\":6013:6023  characters */\n      0x00\n        /* \"FinalExam/RPG_1.sol\":6013:6035  characters[msg.sender] */\n      0x00\n        /* \"FinalExam/RPG_1.sol\":6024:6034  msg.sender */\n      caller\n        /* \"FinalExam/RPG_1.sol\":6013:6035  characters[msg.sender] */\n      0xffffffffffffffffffffffffffffffffffffffff\n      and\n      0xffffffffffffffffffffffffffffffffffffffff\n      and\n      dup2\n      mstore\n      0x20\n      add\n      swap1\n      dup2\n      mstore\n      0x20\n      add\n      0x00\n      keccak256\n        /* \"FinalExam/RPG_1.sol\":5992:6035  Character memory c = characters[msg.sender] */\n      mload(0x40)\n      dup1\n      0xe0\n      add\n      0x40\n      mstore\n      swap1\n      dup2\n      0x00\n      dup3\n      add\n      dup1\n      sload\n      tag_177\n      swap1\n      tag_98\n      jump\t// in\n    tag_177:\n      dup1\n      0x1f\n      add\n      0x20\n      dup1\n      swap2\n      div\n      mul\n      0x20\n      add\n      mload(0x40)\n      swap1\n      dup2\n      add\n      0x40\n      mstore\n      dup1\n      swap3\n      swap2\n      swap1\n      dup2\n      dup2\n      mstore\n      0x20\n      add\n      dup3\n      dup1\n      sload\n      tag_178\n      swap1\n      tag_98\n      jump\t// in\n    tag_178:\n      dup1\n      iszero\n      tag_179\n      jumpi\n      dup1\n      0x1f\n      lt\n      tag_180\n      jumpi\n      0x0100\n      dup1\n      dup4\n      sload\n      div\n      mul\n      dup4\n      mstore\n      swap2\n      0x20\n      add\n      swap2\n      jump(tag_179)\n    tag_180:\n      dup3\n      add\n      swap2\n      swap1\n      0x00\n      mstore\n      keccak256(0x00, 0x20)\n      swap1\n    tag_181:\n      dup2\n      sload\n      dup2\n      mstore\n      swap1\n      0x01\n      add\n      swap1\n      0x20\n      add\n      dup1\n      dup4\n      gt\n      tag_181\n      jumpi\n      dup3\n      swap1\n      sub\n      0x1f\n      and\n      dup3\n      add\n      swap2\n    tag_179:\n      pop\n      pop\n      pop\n      pop\n      pop\n      dup2\n      mstore\n      0x20\n      add\n      0x01\n      dup3\n      add\n      sload\n      dup2\n      mstore\n      0x20\n      add\n      0x02\n      dup3\n      add\n      sload\n      dup2\n      mstore\n      0x20\n      add\n      0x03\n      dup3\n      add\n      sload\n      dup2\n      mstore\n      0x20\n      add\n      0x04\n      dup3\n      add\n      sload\n      dup2\n      mstore\n      0x20\n      add\n      0x05\n      dup3\n      add\n      sload\n      dup2\n      mstore\n      0x20\n      add\n      0x06\n      dup3\n      add\n      0x00\n      swap1\n      sload\n      swap1\n      0x0100\n      exp\n      swap1\n      div\n      0xff\n      and\n      iszero\n      iszero\n      iszero\n      iszero\n      dup2\n      mstore\n      pop\n      pop\n      swap1\n      pop\n        /* \"FinalExam/RPG_1.sol\":6054:6055  c */\n      dup1\n        /* \"FinalExam/RPG_1.sol\":6054:6060  c.name */\n      0x00\n      add\n      mload\n        /* \"FinalExam/RPG_1.sol\":6062:6063  c */\n      dup2\n        /* \"FinalExam/RPG_1.sol\":6062:6069  c.level */\n      0x20\n      add\n      mload\n        /* \"FinalExam/RPG_1.sol\":6071:6072  c */\n      dup3\n        /* \"FinalExam/RPG_1.sol\":6071:6075  c.hp */\n      0x40\n      add\n      mload\n        /* \"FinalExam/RPG_1.sol\":6077:6078  c */\n      dup4\n        /* \"FinalExam/RPG_1.sol\":6077:6082  c.atk */\n      0x60\n      add\n      mload\n        /* \"FinalExam/RPG_1.sol\":6084:6085  c */\n      dup5\n        /* \"FinalExam/RPG_1.sol\":6084:6089  c.def */\n      0x80\n      add\n      mload\n        /* \"FinalExam/RPG_1.sol\":6091:6092  c */\n      dup6\n        /* \"FinalExam/RPG_1.sol\":6091:6096  c.exp */\n      0xa0\n      add\n      mload\n        /* \"FinalExam/RPG_1.sol\":6046:6097  return (c.name, c.level, c.hp, c.atk, c.def, c.exp) */\n      swap7\n      pop\n      swap7\n      pop\n      swap7\n      pop\n      swap7\n      pop\n      swap7\n      pop\n      swap7\n      pop\n      pop\n        /* \"FinalExam/RPG_1.sol\":5700:6105  function getMyCharacter()... */\n      swap1\n      swap2\n      swap3\n      swap4\n      swap5\n      swap6\n      jump\t// out\n        /* \"#utility.yul\":88:205   */\n    tag_183:\n        /* \"#utility.yul\":197:198   */\n      0x00\n        /* \"#utility.yul\":194:195   */\n      0x00\n        /* \"#utility.yul\":187:199   */\n      revert\n        /* \"#utility.yul\":211:328   */\n    tag_184:\n        /* \"#utility.yul\":320:321   */\n      0x00\n        /* \"#utility.yul\":317:318   */\n      0x00\n        /* \"#utility.yul\":310:322   */\n      revert\n        /* \"#utility.yul\":334:411   */\n    tag_185:\n        /* \"#utility.yul\":371:378   */\n      0x00\n        /* \"#utility.yul\":400:405   */\n      dup2\n        /* \"#utility.yul\":389:405   */\n      swap1\n      pop\n        /* \"#utility.yul\":334:411   */\n      swap2\n      swap1\n      pop\n      jump\t// out\n        /* \"#utility.yul\":417:539   */\n    tag_186:\n        /* \"#utility.yul\":490:514   */\n      tag_246\n        /* \"#utility.yul\":508:513   */\n      dup2\n        /* \"#utility.yul\":490:514   */\n      tag_185\n      jump\t// in\n    tag_246:\n        /* \"#utility.yul\":483:488   */\n      dup2\n        /* \"#utility.yul\":480:515   */\n      eq\n        /* \"#utility.yul\":470:533   */\n      tag_247\n      jumpi\n        /* \"#utility.yul\":529:530   */\n      0x00\n        /* \"#utility.yul\":526:527   */\n      0x00\n        /* \"#utility.yul\":519:531   */\n      revert\n        /* \"#utility.yul\":470:533   */\n    tag_247:\n        /* \"#utility.yul\":417:539   */\n      pop\n      jump\t// out\n        /* \"#utility.yul\":545:684   */\n    tag_187:\n        /* \"#utility.yul\":591:596   */\n      0x00\n        /* \"#utility.yul\":629:635   */\n      dup2\n        /* \"#utility.yul\":616:636   */\n      calldataload\n        /* \"#utility.yul\":607:636   */\n      swap1\n      pop\n        /* \"#utility.yul\":645:678   */\n      tag_249\n        /* \"#utility.yul\":672:677   */\n      dup2\n        /* \"#utility.yul\":645:678   */\n      tag_186\n      jump\t// in\n    tag_249:\n        /* \"#utility.yul\":545:684   */\n      swap3\n      swap2\n      pop\n      pop\n      jump\t// out\n        /* \"#utility.yul\":690:1019   */\n    tag_20:\n        /* \"#utility.yul\":749:755   */\n      0x00\n        /* \"#utility.yul\":798:800   */\n      0x20\n        /* \"#utility.yul\":786:795   */\n      dup3\n        /* \"#utility.yul\":777:784   */\n      dup5\n        /* \"#utility.yul\":773:796   */\n      sub\n        /* \"#utility.yul\":769:801   */\n      slt\n        /* \"#utility.yul\":766:885   */\n      iszero\n      tag_251\n      jumpi\n        /* \"#utility.yul\":804:883   */\n      tag_252\n      tag_183\n      jump\t// in\n    tag_252:\n        /* \"#utility.yul\":766:885   */\n    tag_251:\n        /* \"#utility.yul\":924:925   */\n      0x00\n        /* \"#utility.yul\":949:1002   */\n      tag_253\n        /* \"#utility.yul\":994:1001   */\n      dup5\n        /* \"#utility.yul\":985:991   */\n      dup3\n        /* \"#utility.yul\":974:983   */\n      dup6\n        /* \"#utility.yul\":970:992   */\n      add\n        /* \"#utility.yul\":949:1002   */\n      tag_187\n      jump\t// in\n    tag_253:\n        /* \"#utility.yul\":939:1002   */\n      swap2\n      pop\n        /* \"#utility.yul\":895:1012   */\n      pop\n        /* \"#utility.yul\":690:1019   */\n      swap3\n      swap2\n      pop\n      pop\n      jump\t// out\n        /* \"#utility.yul\":1025:1143   */\n    tag_188:\n        /* \"#utility.yul\":1112:1136   */\n      tag_255\n        /* \"#utility.yul\":1130:1135   */\n      dup2\n        /* \"#utility.yul\":1112:1136   */\n      tag_185\n      jump\t// in\n    tag_255:\n        /* \"#utility.yul\":1107:1110   */\n      dup3\n        /* \"#utility.yul\":1100:1137   */\n      mstore\n        /* \"#utility.yul\":1025:1143   */\n      pop\n      pop\n      jump\t// out\n        /* \"#utility.yul\":1149:1248   */\n    tag_189:\n        /* \"#utility.yul\":1201:1207   */\n      0x00\n        /* \"#utility.yul\":1235:1240   */\n      dup2\n        /* \"#utility.yul\":1229:1241   */\n      mload\n        /* \"#utility.yul\":1219:1241   */\n      swap1\n      pop\n        /* \"#utility.yul\":1149:1248   */\n      swap2\n      swap1\n      pop\n      jump\t// out\n        /* \"#utility.yul\":1254:1423   */\n    tag_190:\n        /* \"#utility.yul\":1338:1349   */\n      0x00\n        /* \"#utility.yul\":1372:1378   */\n      dup3\n        /* \"#utility.yul\":1367:1370   */\n      dup3\n        /* \"#utility.yul\":1360:1379   */\n      mstore\n        /* \"#utility.yul\":1412:1416   */\n      0x20\n        /* \"#utility.yul\":1407:1410   */\n      dup3\n        /* \"#utility.yul\":1403:1417   */\n      add\n        /* \"#utility.yul\":1388:1417   */\n      swap1\n      pop\n        /* \"#utility.yul\":1254:1423   */\n      swap3\n      swap2\n      pop\n      pop\n      jump\t// out\n        /* \"#utility.yul\":1429:1568   */\n    tag_191:\n        /* \"#utility.yul\":1518:1524   */\n      dup3\n        /* \"#utility.yul\":1513:1516   */\n      dup2\n        /* \"#utility.yul\":1508:1511   */\n      dup4\n        /* \"#utility.yul\":1502:1525   */\n      mcopy\n        /* \"#utility.yul\":1559:1560   */\n      0x00\n        /* \"#utility.yul\":1550:1556   */\n      dup4\n        /* \"#utility.yul\":1545:1548   */\n      dup4\n        /* \"#utility.yul\":1541:1557   */\n      add\n        /* \"#utility.yul\":1534:1561   */\n      mstore\n        /* \"#utility.yul\":1429:1568   */\n      pop\n      pop\n      pop\n      jump\t// out\n        /* \"#utility.yul\":1574:1676   */\n    tag_192:\n        /* \"#utility.yul\":1615:1621   */\n      0x00\n        /* \"#utility.yul\":1666:1668   */\n      0x1f\n        /* \"#utility.yul\":1662:1669   */\n      not\n        /* \"#utility.yul\":1657:1659   */\n      0x1f\n        /* \"#utility.yul\":1650:1655   */\n      dup4\n        /* \"#utility.yul\":1646:1660   */\n      add\n        /* \"#utility.yul\":1642:1670   */\n      and\n        /* \"#utility.yul\":1632:1670   */\n      swap1\n      pop\n        /* \"#utility.yul\":1574:1676   */\n      swap2\n      swap1\n      pop\n      jump\t// out\n        /* \"#utility.yul\":1682:2059   */\n    tag_193:\n        /* \"#utility.yul\":1770:1773   */\n      0x00\n        /* \"#utility.yul\":1798:1837   */\n      tag_261\n        /* \"#utility.yul\":1831:1836   */\n      dup3\n        /* \"#utility.yul\":1798:1837   */\n      tag_189\n      jump\t// in\n    tag_261:\n        /* \"#utility.yul\":1853:1924   */\n      tag_262\n        /* \"#utility.yul\":1917:1923   */\n      dup2\n        /* \"#utility.yul\":1912:1915   */\n      dup6\n        /* \"#utility.yul\":1853:1924   */\n      tag_190\n      jump\t// in\n    tag_262:\n        /* \"#utility.yul\":1846:1924   */\n      swap4\n      pop\n        /* \"#utility.yul\":1933:1998   */\n      tag_263\n        /* \"#utility.yul\":1991:1997   */\n      dup2\n        /* \"#utility.yul\":1986:1989   */\n      dup6\n        /* \"#utility.yul\":1979:1983   */\n      0x20\n        /* \"#utility.yul\":1972:1977   */\n      dup7\n        /* \"#utility.yul\":1968:1984   */\n      add\n        /* \"#utility.yul\":1933:1998   */\n      tag_191\n      jump\t// in\n    tag_263:\n        /* \"#utility.yul\":2023:2052   */\n      tag_264\n        /* \"#utility.yul\":2045:2051   */\n      dup2\n        /* \"#utility.yul\":2023:2052   */\n      tag_192\n      jump\t// in\n    tag_264:\n        /* \"#utility.yul\":2018:2021   */\n      dup5\n        /* \"#utility.yul\":2014:2053   */\n      add\n        /* \"#utility.yul\":2007:2053   */\n      swap2\n      pop\n        /* \"#utility.yul\":1774:2059   */\n      pop\n        /* \"#utility.yul\":1682:2059   */\n      swap3\n      swap2\n      pop\n      pop\n      jump\t// out\n        /* \"#utility.yul\":2065:2820   */\n    tag_23:\n        /* \"#utility.yul\":2290:2294   */\n      0x00\n        /* \"#utility.yul\":2328:2331   */\n      0xa0\n        /* \"#utility.yul\":2317:2326   */\n      dup3\n        /* \"#utility.yul\":2313:2332   */\n      add\n        /* \"#utility.yul\":2305:2332   */\n      swap1\n      pop\n        /* \"#utility.yul\":2342:2413   */\n      tag_266\n        /* \"#utility.yul\":2410:2411   */\n      0x00\n        /* \"#utility.yul\":2399:2408   */\n      dup4\n        /* \"#utility.yul\":2395:2412   */\n      add\n        /* \"#utility.yul\":2386:2392   */\n      dup9\n        /* \"#utility.yul\":2342:2413   */\n      tag_188\n      jump\t// in\n    tag_266:\n        /* \"#utility.yul\":2460:2469   */\n      dup2\n        /* \"#utility.yul\":2454:2458   */\n      dup2\n        /* \"#utility.yul\":2450:2470   */\n      sub\n        /* \"#utility.yul\":2445:2447   */\n      0x20\n        /* \"#utility.yul\":2434:2443   */\n      dup4\n        /* \"#utility.yul\":2430:2448   */\n      add\n        /* \"#utility.yul\":2423:2471   */\n      mstore\n        /* \"#utility.yul\":2488:2566   */\n      tag_267\n        /* \"#utility.yul\":2561:2565   */\n      dup2\n        /* \"#utility.yul\":2552:2558   */\n      dup8\n        /* \"#utility.yul\":2488:2566   */\n      tag_193\n      jump\t// in\n    tag_267:\n        /* \"#utility.yul\":2480:2566   */\n      swap1\n      pop\n        /* \"#utility.yul\":2576:2648   */\n      tag_268\n        /* \"#utility.yul\":2644:2646   */\n      0x40\n        /* \"#utility.yul\":2633:2642   */\n      dup4\n        /* \"#utility.yul\":2629:2647   */\n      add\n        /* \"#utility.yul\":2620:2626   */\n      dup7\n        /* \"#utility.yul\":2576:2648   */\n      tag_188\n      jump\t// in\n    tag_268:\n        /* \"#utility.yul\":2658:2730   */\n      tag_269\n        /* \"#utility.yul\":2726:2728   */\n      0x60\n        /* \"#utility.yul\":2715:2724   */\n      dup4\n        /* \"#utility.yul\":2711:2729   */\n      add\n        /* \"#utility.yul\":2702:2708   */\n      dup6\n        /* \"#utility.yul\":2658:2730   */\n      tag_188\n      jump\t// in\n    tag_269:\n        /* \"#utility.yul\":2740:2813   */\n      tag_270\n        /* \"#utility.yul\":2808:2811   */\n      0x80\n        /* \"#utility.yul\":2797:2806   */\n      dup4\n        /* \"#utility.yul\":2793:2812   */\n      add\n        /* \"#utility.yul\":2784:2790   */\n      dup5\n        /* \"#utility.yul\":2740:2813   */\n      tag_188\n      jump\t// in\n    tag_270:\n        /* \"#utility.yul\":2065:2820   */\n      swap7\n      swap6\n      pop\n      pop\n      pop\n      pop\n      pop\n      pop\n      jump\t// out\n        /* \"#utility.yul\":2826:2943   */\n    tag_194:\n        /* \"#utility.yul\":2935:2936   */\n      0x00\n        /* \"#utility.yul\":2932:2933   */\n      0x00\n        /* \"#utility.yul\":2925:2937   */\n      revert\n        /* \"#utility.yul\":2949:3066   */\n    tag_195:\n        /* \"#utility.yul\":3058:3059   */\n      0x00\n        /* \"#utility.yul\":3055:3056   */\n      0x00\n        /* \"#utility.yul\":3048:3060   */\n      revert\n        /* \"#utility.yul\":3072:3189   */\n    tag_196:\n        /* \"#utility.yul\":3181:3182   */\n      0x00\n        /* \"#utility.yul\":3178:3179   */\n      0x00\n        /* \"#utility.yul\":3171:3183   */\n      revert\n        /* \"#utility.yul\":3209:3762   */\n    tag_197:\n        /* \"#utility.yul\":3267:3275   */\n      0x00\n        /* \"#utility.yul\":3277:3283   */\n      0x00\n        /* \"#utility.yul\":3327:3330   */\n      dup4\n        /* \"#utility.yul\":3320:3324   */\n      0x1f\n        /* \"#utility.yul\":3312:3318   */\n      dup5\n        /* \"#utility.yul\":3308:3325   */\n      add\n        /* \"#utility.yul\":3304:3331   */\n      slt\n        /* \"#utility.yul\":3294:3416   */\n      tag_275\n      jumpi\n        /* \"#utility.yul\":3335:3414   */\n      tag_276\n      tag_194\n      jump\t// in\n    tag_276:\n        /* \"#utility.yul\":3294:3416   */\n    tag_275:\n        /* \"#utility.yul\":3448:3454   */\n      dup3\n        /* \"#utility.yul\":3435:3455   */\n      calldataload\n        /* \"#utility.yul\":3425:3455   */\n      swap1\n      pop\n        /* \"#utility.yul\":3478:3496   */\n      0xffffffffffffffff\n        /* \"#utility.yul\":3470:3476   */\n      dup2\n        /* \"#utility.yul\":3467:3497   */\n      gt\n        /* \"#utility.yul\":3464:3581   */\n      iszero\n      tag_277\n      jumpi\n        /* \"#utility.yul\":3500:3579   */\n      tag_278\n      tag_195\n      jump\t// in\n    tag_278:\n        /* \"#utility.yul\":3464:3581   */\n    tag_277:\n        /* \"#utility.yul\":3614:3618   */\n      0x20\n        /* \"#utility.yul\":3606:3612   */\n      dup4\n        /* \"#utility.yul\":3602:3619   */\n      add\n        /* \"#utility.yul\":3590:3619   */\n      swap2\n      pop\n        /* \"#utility.yul\":3668:3671   */\n      dup4\n        /* \"#utility.yul\":3660:3664   */\n      0x01\n        /* \"#utility.yul\":3652:3658   */\n      dup3\n        /* \"#utility.yul\":3648:3665   */\n      mul\n        /* \"#utility.yul\":3638:3646   */\n      dup4\n        /* \"#utility.yul\":3634:3666   */\n      add\n        /* \"#utility.yul\":3631:3672   */\n      gt\n        /* \"#utility.yul\":3628:3756   */\n      iszero\n      tag_279\n      jumpi\n        /* \"#utility.yul\":3675:3754   */\n      tag_280\n      tag_196\n      jump\t// in\n    tag_280:\n        /* \"#utility.yul\":3628:3756   */\n    tag_279:\n        /* \"#utility.yul\":3209:3762   */\n      swap3\n      pop\n      swap3\n      swap1\n      pop\n      jump\t// out\n        /* \"#utility.yul\":3768:4879   */\n    tag_30:\n        /* \"#utility.yul\":3875:3881   */\n      0x00\n        /* \"#utility.yul\":3883:3889   */\n      0x00\n        /* \"#utility.yul\":3891:3897   */\n      0x00\n        /* \"#utility.yul\":3899:3905   */\n      0x00\n        /* \"#utility.yul\":3907:3913   */\n      0x00\n        /* \"#utility.yul\":3915:3921   */\n      0x00\n        /* \"#utility.yul\":3964:3967   */\n      0xa0\n        /* \"#utility.yul\":3952:3961   */\n      dup8\n        /* \"#utility.yul\":3943:3950   */\n      dup10\n        /* \"#utility.yul\":3939:3962   */\n      sub\n        /* \"#utility.yul\":3935:3968   */\n      slt\n        /* \"#utility.yul\":3932:4052   */\n      iszero\n      tag_282\n      jumpi\n        /* \"#utility.yul\":3971:4050   */\n      tag_283\n      tag_183\n      jump\t// in\n    tag_283:\n        /* \"#utility.yul\":3932:4052   */\n    tag_282:\n        /* \"#utility.yul\":4091:4092   */\n      0x00\n        /* \"#utility.yul\":4116:4169   */\n      tag_284\n        /* \"#utility.yul\":4161:4168   */\n      dup10\n        /* \"#utility.yul\":4152:4158   */\n      dup3\n        /* \"#utility.yul\":4141:4150   */\n      dup11\n        /* \"#utility.yul\":4137:4159   */\n      add\n        /* \"#utility.yul\":4116:4169   */\n      tag_187\n      jump\t// in\n    tag_284:\n        /* \"#utility.yul\":4106:4169   */\n      swap7\n      pop\n        /* \"#utility.yul\":4062:4179   */\n      pop\n        /* \"#utility.yul\":4246:4248   */\n      0x20\n        /* \"#utility.yul\":4235:4244   */\n      dup8\n        /* \"#utility.yul\":4231:4249   */\n      add\n        /* \"#utility.yul\":4218:4250   */\n      calldataload\n        /* \"#utility.yul\":4277:4295   */\n      0xffffffffffffffff\n        /* \"#utility.yul\":4269:4275   */\n      dup2\n        /* \"#utility.yul\":4266:4296   */\n      gt\n        /* \"#utility.yul\":4263:4380   */\n      iszero\n      tag_285\n      jumpi\n        /* \"#utility.yul\":4299:4378   */\n      tag_286\n      tag_184\n      jump\t// in\n    tag_286:\n        /* \"#utility.yul\":4263:4380   */\n    tag_285:\n        /* \"#utility.yul\":4412:4477   */\n      tag_287\n        /* \"#utility.yul\":4469:4476   */\n      dup10\n        /* \"#utility.yul\":4460:4466   */\n      dup3\n        /* \"#utility.yul\":4449:4458   */\n      dup11\n        /* \"#utility.yul\":4445:4467   */\n      add\n        /* \"#utility.yul\":4412:4477   */\n      tag_197\n      jump\t// in\n    tag_287:\n        /* \"#utility.yul\":4394:4477   */\n      swap6\n      pop\n      swap6\n      pop\n        /* \"#utility.yul\":4189:4487   */\n      pop\n        /* \"#utility.yul\":4526:4528   */\n      0x40\n        /* \"#utility.yul\":4552:4605   */\n      tag_288\n        /* \"#utility.yul\":4597:4604   */\n      dup10\n        /* \"#utility.yul\":4588:4594   */\n      dup3\n        /* \"#utility.yul\":4577:4586   */\n      dup11\n        /* \"#utility.yul\":4573:4595   */\n      add\n        /* \"#utility.yul\":4552:4605   */\n      tag_187\n      jump\t// in\n    tag_288:\n        /* \"#utility.yul\":4542:4605   */\n      swap4\n      pop\n        /* \"#utility.yul\":4497:4615   */\n      pop\n        /* \"#utility.yul\":4654:4656   */\n      0x60\n        /* \"#utility.yul\":4680:4733   */\n      tag_289\n        /* \"#utility.yul\":4725:4732   */\n      dup10\n        /* \"#utility.yul\":4716:4722   */\n      dup3\n        /* \"#utility.yul\":4705:4714   */\n      dup11\n        /* \"#utility.yul\":4701:4723   */\n      add\n        /* \"#utility.yul\":4680:4733   */\n      tag_187\n      jump\t// in\n    tag_289:\n        /* \"#utility.yul\":4670:4733   */\n      swap3\n      pop\n        /* \"#utility.yul\":4625:4743   */\n      pop\n        /* \"#utility.yul\":4782:4785   */\n      0x80\n        /* \"#utility.yul\":4809:4862   */\n      tag_290\n        /* \"#utility.yul\":4854:4861   */\n      dup10\n        /* \"#utility.yul\":4845:4851   */\n      dup3\n        /* \"#utility.yul\":4834:4843   */\n      dup11\n        /* \"#utility.yul\":4830:4852   */\n      add\n        /* \"#utility.yul\":4809:4862   */\n      tag_187\n      jump\t// in\n    tag_290:\n        /* \"#utility.yul\":4799:4862   */\n      swap2\n      pop\n        /* \"#utility.yul\":4753:4872   */\n      pop\n        /* \"#utility.yul\":3768:4879   */\n      swap3\n      swap6\n      pop\n      swap3\n      swap6\n      pop\n      swap3\n      swap6\n      jump\t// out\n        /* \"#utility.yul\":4885:5107   */\n    tag_36:\n        /* \"#utility.yul\":4978:4982   */\n      0x00\n        /* \"#utility.yul\":5016:5018   */\n      0x20\n        /* \"#utility.yul\":5005:5014   */\n      dup3\n        /* \"#utility.yul\":5001:5019   */\n      add\n        /* \"#utility.yul\":4993:5019   */\n      swap1\n      pop\n        /* \"#utility.yul\":5029:5100   */\n      tag_292\n        /* \"#utility.yul\":5097:5098   */\n      0x00\n        /* \"#utility.yul\":5086:5095   */\n      dup4\n        /* \"#utility.yul\":5082:5099   */\n      add\n        /* \"#utility.yul\":5073:5079   */\n      dup5\n        /* \"#utility.yul\":5029:5100   */\n      tag_188\n      jump\t// in\n    tag_292:\n        /* \"#utility.yul\":4885:5107   */\n      swap3\n      swap2\n      pop\n      pop\n      jump\t// out\n        /* \"#utility.yul\":5113:5642   */\n    tag_40:\n        /* \"#utility.yul\":5184:5190   */\n      0x00\n        /* \"#utility.yul\":5192:5198   */\n      0x00\n        /* \"#utility.yul\":5241:5243   */\n      0x20\n        /* \"#utility.yul\":5229:5238   */\n      dup4\n        /* \"#utility.yul\":5220:5227   */\n      dup6\n        /* \"#utility.yul\":5216:5239   */\n      sub\n        /* \"#utility.yul\":5212:5244   */\n      slt\n        /* \"#utility.yul\":5209:5328   */\n      iszero\n      tag_294\n      jumpi\n        /* \"#utility.yul\":5247:5326   */\n      tag_295\n      tag_183\n      jump\t// in\n    tag_295:\n        /* \"#utility.yul\":5209:5328   */\n    tag_294:\n        /* \"#utility.yul\":5395:5396   */\n      0x00\n        /* \"#utility.yul\":5384:5393   */\n      dup4\n        /* \"#utility.yul\":5380:5397   */\n      add\n        /* \"#utility.yul\":5367:5398   */\n      calldataload\n        /* \"#utility.yul\":5425:5443   */\n      0xffffffffffffffff\n        /* \"#utility.yul\":5417:5423   */\n      dup2\n        /* \"#utility.yul\":5414:5444   */\n      gt\n        /* \"#utility.yul\":5411:5528   */\n      iszero\n      tag_296\n      jumpi\n        /* \"#utility.yul\":5447:5526   */\n      tag_297\n      tag_184\n      jump\t// in\n    tag_297:\n        /* \"#utility.yul\":5411:5528   */\n    tag_296:\n        /* \"#utility.yul\":5560:5625   */\n      tag_298\n        /* \"#utility.yul\":5617:5624   */\n      dup6\n        /* \"#utility.yul\":5608:5614   */\n      dup3\n        /* \"#utility.yul\":5597:5606   */\n      dup7\n        /* \"#utility.yul\":5593:5615   */\n      add\n        /* \"#utility.yul\":5560:5625   */\n      tag_197\n      jump\t// in\n    tag_298:\n        /* \"#utility.yul\":5542:5625   */\n      swap3\n      pop\n      swap3\n      pop\n        /* \"#utility.yul\":5338:5635   */\n      pop\n        /* \"#utility.yul\":5113:5642   */\n      swap3\n      pop\n      swap3\n      swap1\n      pop\n      jump\t// out\n        /* \"#utility.yul\":5648:5774   */\n    tag_198:\n        /* \"#utility.yul\":5685:5692   */\n      0x00\n        /* \"#utility.yul\":5725:5767   */\n      0xffffffffffffffffffffffffffffffffffffffff\n        /* \"#utility.yul\":5718:5723   */\n      dup3\n        /* \"#utility.yul\":5714:5768   */\n      and\n        /* \"#utility.yul\":5703:5768   */\n      swap1\n      pop\n        /* \"#utility.yul\":5648:5774   */\n      swap2\n      swap1\n      pop\n      jump\t// out\n        /* \"#utility.yul\":5780:5876   */\n    tag_199:\n        /* \"#utility.yul\":5817:5824   */\n      0x00\n        /* \"#utility.yul\":5846:5870   */\n      tag_301\n        /* \"#utility.yul\":5864:5869   */\n      dup3\n        /* \"#utility.yul\":5846:5870   */\n      tag_198\n      jump\t// in\n    tag_301:\n        /* \"#utility.yul\":5835:5870   */\n      swap1\n      pop\n        /* \"#utility.yul\":5780:5876   */\n      swap2\n      swap1\n      pop\n      jump\t// out\n        /* \"#utility.yul\":5882:6000   */\n    tag_200:\n        /* \"#utility.yul\":5969:5993   */\n      tag_303\n        /* \"#utility.yul\":5987:5992   */\n      dup2\n        /* \"#utility.yul\":5969:5993   */\n      tag_199\n      jump\t// in\n    tag_303:\n        /* \"#utility.yul\":5964:5967   */\n      dup3\n        /* \"#utility.yul\":5957:5994   */\n      mstore\n        /* \"#utility.yul\":5882:6000   */\n      pop\n      pop\n      jump\t// out\n        /* \"#utility.yul\":6006:6228   */\n    tag_46:\n        /* \"#utility.yul\":6099:6103   */\n      0x00\n        /* \"#utility.yul\":6137:6139   */\n      0x20\n        /* \"#utility.yul\":6126:6135   */\n      dup3\n        /* \"#utility.yul\":6122:6140   */\n      add\n        /* \"#utility.yul\":6114:6140   */\n      swap1\n      pop\n        /* \"#utility.yul\":6150:6221   */\n      tag_305\n        /* \"#utility.yul\":6218:6219   */\n      0x00\n        /* \"#utility.yul\":6207:6216   */\n      dup4\n        /* \"#utility.yul\":6203:6220   */\n      add\n        /* \"#utility.yul\":6194:6200   */\n      dup5\n        /* \"#utility.yul\":6150:6221   */\n      tag_200\n      jump\t// in\n    tag_305:\n        /* \"#utility.yul\":6006:6228   */\n      swap3\n      swap2\n      pop\n      pop\n      jump\t// out\n        /* \"#utility.yul\":6234:6356   */\n    tag_201:\n        /* \"#utility.yul\":6307:6331   */\n      tag_307\n        /* \"#utility.yul\":6325:6330   */\n      dup2\n        /* \"#utility.yul\":6307:6331   */\n      tag_199\n      jump\t// in\n    tag_307:\n        /* \"#utility.yul\":6300:6305   */\n      dup2\n        /* \"#utility.yul\":6297:6332   */\n      eq\n        /* \"#utility.yul\":6287:6350   */\n      tag_308\n      jumpi\n        /* \"#utility.yul\":6346:6347   */\n      0x00\n        /* \"#utility.yul\":6343:6344   */\n      0x00\n        /* \"#utility.yul\":6336:6348   */\n      revert\n        /* \"#utility.yul\":6287:6350   */\n    tag_308:\n        /* \"#utility.yul\":6234:6356   */\n      pop\n      jump\t// out\n        /* \"#utility.yul\":6362:6501   */\n    tag_202:\n        /* \"#utility.yul\":6408:6413   */\n      0x00\n        /* \"#utility.yul\":6446:6452   */\n      dup2\n        /* \"#utility.yul\":6433:6453   */\n      calldataload\n        /* \"#utility.yul\":6424:6453   */\n      swap1\n      pop\n        /* \"#utility.yul\":6462:6495   */\n      tag_310\n        /* \"#utility.yul\":6489:6494   */\n      dup2\n        /* \"#utility.yul\":6462:6495   */\n      tag_201\n      jump\t// in\n    tag_310:\n        /* \"#utility.yul\":6362:6501   */\n      swap3\n      swap2\n      pop\n      pop\n      jump\t// out\n        /* \"#utility.yul\":6507:6836   */\n    tag_50:\n        /* \"#utility.yul\":6566:6572   */\n      0x00\n        /* \"#utility.yul\":6615:6617   */\n      0x20\n        /* \"#utility.yul\":6603:6612   */\n      dup3\n        /* \"#utility.yul\":6594:6601   */\n      dup5\n        /* \"#utility.yul\":6590:6613   */\n      sub\n        /* \"#utility.yul\":6586:6618   */\n      slt\n        /* \"#utility.yul\":6583:6702   */\n      iszero\n      tag_312\n      jumpi\n        /* \"#utility.yul\":6621:6700   */\n      tag_313\n      tag_183\n      jump\t// in\n    tag_313:\n        /* \"#utility.yul\":6583:6702   */\n    tag_312:\n        /* \"#utility.yul\":6741:6742   */\n      0x00\n        /* \"#utility.yul\":6766:6819   */\n      tag_314\n        /* \"#utility.yul\":6811:6818   */\n      dup5\n        /* \"#utility.yul\":6802:6808   */\n      dup3\n        /* \"#utility.yul\":6791:6800   */\n      dup6\n        /* \"#utility.yul\":6787:6809   */\n      add\n        /* \"#utility.yul\":6766:6819   */\n      tag_202\n      jump\t// in\n    tag_314:\n        /* \"#utility.yul\":6756:6819   */\n      swap2\n      pop\n        /* \"#utility.yul\":6712:6829   */\n      pop\n        /* \"#utility.yul\":6507:6836   */\n      swap3\n      swap2\n      pop\n      pop\n      jump\t// out\n        /* \"#utility.yul\":6842:6932   */\n    tag_203:\n        /* \"#utility.yul\":6876:6883   */\n      0x00\n        /* \"#utility.yul\":6919:6924   */\n      dup2\n        /* \"#utility.yul\":6912:6925   */\n      iszero\n        /* \"#utility.yul\":6905:6926   */\n      iszero\n        /* \"#utility.yul\":6894:6926   */\n      swap1\n      pop\n        /* \"#utility.yul\":6842:6932   */\n      swap2\n      swap1\n      pop\n      jump\t// out\n        /* \"#utility.yul\":6938:7047   */\n    tag_204:\n        /* \"#utility.yul\":7019:7040   */\n      tag_317\n        /* \"#utility.yul\":7034:7039   */\n      dup2\n        /* \"#utility.yul\":7019:7040   */\n      tag_203\n      jump\t// in\n    tag_317:\n        /* \"#utility.yul\":7014:7017   */\n      dup3\n        /* \"#utility.yul\":7007:7041   */\n      mstore\n        /* \"#utility.yul\":6938:7047   */\n      pop\n      pop\n      jump\t// out\n        /* \"#utility.yul\":7053:8018   */\n    tag_53:\n        /* \"#utility.yul\":7328:7332   */\n      0x00\n        /* \"#utility.yul\":7366:7369   */\n      0xe0\n        /* \"#utility.yul\":7355:7364   */\n      dup3\n        /* \"#utility.yul\":7351:7370   */\n      add\n        /* \"#utility.yul\":7343:7370   */\n      swap1\n      pop\n        /* \"#utility.yul\":7416:7425   */\n      dup2\n        /* \"#utility.yul\":7410:7414   */\n      dup2\n        /* \"#utility.yul\":7406:7426   */\n      sub\n        /* \"#utility.yul\":7402:7403   */\n      0x00\n        /* \"#utility.yul\":7391:7400   */\n      dup4\n        /* \"#utility.yul\":7387:7404   */\n      add\n        /* \"#utility.yul\":7380:7427   */\n      mstore\n        /* \"#utility.yul\":7444:7522   */\n      tag_319\n        /* \"#utility.yul\":7517:7521   */\n      dup2\n        /* \"#utility.yul\":7508:7514   */\n      dup11\n        /* \"#utility.yul\":7444:7522   */\n      tag_193\n      jump\t// in\n    tag_319:\n        /* \"#utility.yul\":7436:7522   */\n      swap1\n      pop\n        /* \"#utility.yul\":7532:7604   */\n      tag_320\n        /* \"#utility.yul\":7600:7602   */\n      0x20\n        /* \"#utility.yul\":7589:7598   */\n      dup4\n        /* \"#utility.yul\":7585:7603   */\n      add\n        /* \"#utility.yul\":7576:7582   */\n      dup10\n        /* \"#utility.yul\":7532:7604   */\n      tag_188\n      jump\t// in\n    tag_320:\n        /* \"#utility.yul\":7614:7686   */\n      tag_321\n        /* \"#utility.yul\":7682:7684   */\n      0x40\n        /* \"#utility.yul\":7671:7680   */\n      dup4\n        /* \"#utility.yul\":7667:7685   */\n      add\n        /* \"#utility.yul\":7658:7664   */\n      dup9\n        /* \"#utility.yul\":7614:7686   */\n      tag_188\n      jump\t// in\n    tag_321:\n        /* \"#utility.yul\":7696:7768   */\n      tag_322\n        /* \"#utility.yul\":7764:7766   */\n      0x60\n        /* \"#utility.yul\":7753:7762   */\n      dup4\n        /* \"#utility.yul\":7749:7767   */\n      add\n        /* \"#utility.yul\":7740:7746   */\n      dup8\n        /* \"#utility.yul\":7696:7768   */\n      tag_188\n      jump\t// in\n    tag_322:\n        /* \"#utility.yul\":7778:7851   */\n      tag_323\n        /* \"#utility.yul\":7846:7849   */\n      0x80\n        /* \"#utility.yul\":7835:7844   */\n      dup4\n        /* \"#utility.yul\":7831:7850   */\n      add\n        /* \"#utility.yul\":7822:7828   */\n      dup7\n        /* \"#utility.yul\":7778:7851   */\n      tag_188\n      jump\t// in\n    tag_323:\n        /* \"#utility.yul\":7861:7934   */\n      tag_324\n        /* \"#utility.yul\":7929:7932   */\n      0xa0\n        /* \"#utility.yul\":7918:7927   */\n      dup4\n        /* \"#utility.yul\":7914:7933   */\n      add\n        /* \"#utility.yul\":7905:7911   */\n      dup6\n        /* \"#utility.yul\":7861:7934   */\n      tag_188\n      jump\t// in\n    tag_324:\n        /* \"#utility.yul\":7944:8011   */\n      tag_325\n        /* \"#utility.yul\":8006:8009   */\n      0xc0\n        /* \"#utility.yul\":7995:8004   */\n      dup4\n        /* \"#utility.yul\":7991:8010   */\n      add\n        /* \"#utility.yul\":7982:7988   */\n      dup5\n        /* \"#utility.yul\":7944:8011   */\n      tag_204\n      jump\t// in\n    tag_325:\n        /* \"#utility.yul\":7053:8018   */\n      swap9\n      swap8\n      pop\n      pop\n      pop\n      pop\n      pop\n      pop\n      pop\n      pop\n      jump\t// out\n        /* \"#utility.yul\":8024:8878   */\n    tag_59:\n        /* \"#utility.yul\":8271:8275   */\n      0x00\n        /* \"#utility.yul\":8309:8312   */\n      0xc0\n        /* \"#utility.yul\":8298:8307   */\n      dup3\n        /* \"#utility.yul\":8294:8313   */\n      add\n        /* \"#utility.yul\":8286:8313   */\n      swap1\n      pop\n        /* \"#utility.yul\":8323:8394   */\n      tag_327\n        /* \"#utility.yul\":8391:8392   */\n      0x00\n        /* \"#utility.yul\":8380:8389   */\n      dup4\n        /* \"#utility.yul\":8376:8393   */\n      add\n        /* \"#utility.yul\":8367:8373   */\n      dup10\n        /* \"#utility.yul\":8323:8394   */\n      tag_188\n      jump\t// in\n    tag_327:\n        /* \"#utility.yul\":8441:8450   */\n      dup2\n        /* \"#utility.yul\":8435:8439   */\n      dup2\n        /* \"#utility.yul\":8431:8451   */\n      sub\n        /* \"#utility.yul\":8426:8428   */\n      0x20\n        /* \"#utility.yul\":8415:8424   */\n      dup4\n        /* \"#utility.yul\":8411:8429   */\n      add\n        /* \"#utility.yul\":8404:8452   */\n      mstore\n        /* \"#utility.yul\":8469:8547   */\n      tag_328\n        /* \"#utility.yul\":8542:8546   */\n      dup2\n        /* \"#utility.yul\":8533:8539   */\n      dup9\n        /* \"#utility.yul\":8469:8547   */\n      tag_193\n      jump\t// in\n    tag_328:\n        /* \"#utility.yul\":8461:8547   */\n      swap1\n      pop\n        /* \"#utility.yul\":8557:8629   */\n      tag_329\n        /* \"#utility.yul\":8625:8627   */\n      0x40\n        /* \"#utility.yul\":8614:8623   */\n      dup4\n        /* \"#utility.yul\":8610:8628   */\n      add\n        /* \"#utility.yul\":8601:8607   */\n      dup8\n        /* \"#utility.yul\":8557:8629   */\n      tag_188\n      jump\t// in\n    tag_329:\n        /* \"#utility.yul\":8639:8711   */\n      tag_330\n        /* \"#utility.yul\":8707:8709   */\n      0x60\n        /* \"#utility.yul\":8696:8705   */\n      dup4\n        /* \"#utility.yul\":8692:8710   */\n      add\n        /* \"#utility.yul\":8683:8689   */\n      dup7\n        /* \"#utility.yul\":8639:8711   */\n      tag_188\n      jump\t// in\n    tag_330:\n        /* \"#utility.yul\":8721:8794   */\n      tag_331\n        /* \"#utility.yul\":8789:8792   */\n      0x80\n        /* \"#utility.yul\":8778:8787   */\n      dup4\n        /* \"#utility.yul\":8774:8793   */\n      add\n        /* \"#utility.yul\":8765:8771   */\n      dup6\n        /* \"#utility.yul\":8721:8794   */\n      tag_188\n      jump\t// in\n    tag_331:\n        /* \"#utility.yul\":8804:8871   */\n      tag_332\n        /* \"#utility.yul\":8866:8869   */\n      0xa0\n        /* \"#utility.yul\":8855:8864   */\n      dup4\n        /* \"#utility.yul\":8851:8870   */\n      add\n        /* \"#utility.yul\":8842:8848   */\n      dup5\n        /* \"#utility.yul\":8804:8871   */\n      tag_204\n      jump\t// in\n    tag_332:\n        /* \"#utility.yul\":8024:8878   */\n      swap8\n      swap7\n      pop\n      pop\n      pop\n      pop\n      pop\n      pop\n      pop\n      jump\t// out\n        /* \"#utility.yul\":8884:9849   */\n    tag_66:\n        /* \"#utility.yul\":8982:8988   */\n      0x00\n        /* \"#utility.yul\":8990:8996   */\n      0x00\n        /* \"#utility.yul\":8998:9004   */\n      0x00\n        /* \"#utility.yul\":9006:9012   */\n      0x00\n        /* \"#utility.yul\":9014:9020   */\n      0x00\n        /* \"#utility.yul\":9063:9066   */\n      0x80\n        /* \"#utility.yul\":9051:9060   */\n      dup7\n        /* \"#utility.yul\":9042:9049   */\n      dup9\n        /* \"#utility.yul\":9038:9061   */\n      sub\n        /* \"#utility.yul\":9034:9067   */\n      slt\n        /* \"#utility.yul\":9031:9151   */\n      iszero\n      tag_334\n      jumpi\n        /* \"#utility.yul\":9070:9149   */\n      tag_335\n      tag_183\n      jump\t// in\n    tag_335:\n        /* \"#utility.yul\":9031:9151   */\n    tag_334:\n        /* \"#utility.yul\":9218:9219   */\n      0x00\n        /* \"#utility.yul\":9207:9216   */\n      dup7\n        /* \"#utility.yul\":9203:9220   */\n      add\n        /* \"#utility.yul\":9190:9221   */\n      calldataload\n        /* \"#utility.yul\":9248:9266   */\n      0xffffffffffffffff\n        /* \"#utility.yul\":9240:9246   */\n      dup2\n        /* \"#utility.yul\":9237:9267   */\n      gt\n        /* \"#utility.yul\":9234:9351   */\n      iszero\n      tag_336\n      jumpi\n        /* \"#utility.yul\":9270:9349   */\n      tag_337\n      tag_184\n      jump\t// in\n    tag_337:\n        /* \"#utility.yul\":9234:9351   */\n    tag_336:\n        /* \"#utility.yul\":9383:9448   */\n      tag_338\n        /* \"#utility.yul\":9440:9447   */\n      dup9\n        /* \"#utility.yul\":9431:9437   */\n      dup3\n        /* \"#utility.yul\":9420:9429   */\n      dup10\n        /* \"#utility.yul\":9416:9438   */\n      add\n        /* \"#utility.yul\":9383:9448   */\n      tag_197\n      jump\t// in\n    tag_338:\n        /* \"#utility.yul\":9365:9448   */\n      swap6\n      pop\n      swap6\n      pop\n        /* \"#utility.yul\":9161:9458   */\n      pop\n        /* \"#utility.yul\":9497:9499   */\n      0x20\n        /* \"#utility.yul\":9523:9576   */\n      tag_339\n        /* \"#utility.yul\":9568:9575   */\n      dup9\n        /* \"#utility.yul\":9559:9565   */\n      dup3\n        /* \"#utility.yul\":9548:9557   */\n      dup10\n        /* \"#utility.yul\":9544:9566   */\n      add\n        /* \"#utility.yul\":9523:9576   */\n      tag_187\n      jump\t// in\n    tag_339:\n        /* \"#utility.yul\":9513:9576   */\n      swap4\n      pop\n        /* \"#utility.yul\":9468:9586   */\n      pop\n        /* \"#utility.yul\":9625:9627   */\n      0x40\n        /* \"#utility.yul\":9651:9704   */\n      tag_340\n        /* \"#utility.yul\":9696:9703   */\n      dup9\n        /* \"#utility.yul\":9687:9693   */\n      dup3\n        /* \"#utility.yul\":9676:9685   */\n      dup10\n        /* \"#utility.yul\":9672:9694   */\n      add\n        /* \"#utility.yul\":9651:9704   */\n      tag_187\n      jump\t// in\n    tag_340:\n        /* \"#utility.yul\":9641:9704   */\n      swap3\n      pop\n        /* \"#utility.yul\":9596:9714   */\n      pop\n        /* \"#utility.yul\":9753:9755   */\n      0x60\n        /* \"#utility.yul\":9779:9832   */\n      tag_341\n        /* \"#utility.yul\":9824:9831   */\n      dup9\n        /* \"#utility.yul\":9815:9821   */\n      dup3\n        /* \"#utility.yul\":9804:9813   */\n      dup10\n        /* \"#utility.yul\":9800:9822   */\n      add\n        /* \"#utility.yul\":9779:9832   */\n      tag_187\n      jump\t// in\n    tag_341:\n        /* \"#utility.yul\":9769:9832   */\n      swap2\n      pop\n        /* \"#utility.yul\":9724:9842   */\n      pop\n        /* \"#utility.yul\":8884:9849   */\n      swap3\n      swap6\n      pop\n      swap3\n      swap6\n      swap1\n      swap4\n      pop\n      jump\t// out\n        /* \"#utility.yul\":9855:10721   */\n    tag_72:\n        /* \"#utility.yul\":10108:10112   */\n      0x00\n        /* \"#utility.yul\":10146:10149   */\n      0xc0\n        /* \"#utility.yul\":10135:10144   */\n      dup3\n        /* \"#utility.yul\":10131:10150   */\n      add\n        /* \"#utility.yul\":10123:10150   */\n      swap1\n      pop\n        /* \"#utility.yul\":10196:10205   */\n      dup2\n        /* \"#utility.yul\":10190:10194   */\n      dup2\n        /* \"#utility.yul\":10186:10206   */\n      sub\n        /* \"#utility.yul\":10182:10183   */\n      0x00\n        /* \"#utility.yul\":10171:10180   */\n      dup4\n        /* \"#utility.yul\":10167:10184   */\n      add\n        /* \"#utility.yul\":10160:10207   */\n      mstore\n        /* \"#utility.yul\":10224:10302   */\n      tag_343\n        /* \"#utility.yul\":10297:10301   */\n      dup2\n        /* \"#utility.yul\":10288:10294   */\n      dup10\n        /* \"#utility.yul\":10224:10302   */\n      tag_193\n      jump\t// in\n    tag_343:\n        /* \"#utility.yul\":10216:10302   */\n      swap1\n      pop\n        /* \"#utility.yul\":10312:10384   */\n      tag_344\n        /* \"#utility.yul\":10380:10382   */\n      0x20\n        /* \"#utility.yul\":10369:10378   */\n      dup4\n        /* \"#utility.yul\":10365:10383   */\n      add\n        /* \"#utility.yul\":10356:10362   */\n      dup9\n        /* \"#utility.yul\":10312:10384   */\n      tag_188\n      jump\t// in\n    tag_344:\n        /* \"#utility.yul\":10394:10466   */\n      tag_345\n        /* \"#utility.yul\":10462:10464   */\n      0x40\n        /* \"#utility.yul\":10451:10460   */\n      dup4\n        /* \"#utility.yul\":10447:10465   */\n      add\n        /* \"#utility.yul\":10438:10444   */\n      dup8\n        /* \"#utility.yul\":10394:10466   */\n      tag_188\n      jump\t// in\n    tag_345:\n        /* \"#utility.yul\":10476:10548   */\n      tag_346\n        /* \"#utility.yul\":10544:10546   */\n      0x60\n        /* \"#utility.yul\":10533:10542   */\n      dup4\n        /* \"#utility.yul\":10529:10547   */\n      add\n        /* \"#utility.yul\":10520:10526   */\n      dup7\n        /* \"#utility.yul\":10476:10548   */\n      tag_188\n      jump\t// in\n    tag_346:\n        /* \"#utility.yul\":10558:10631   */\n      tag_347\n        /* \"#utility.yul\":10626:10629   */\n      0x80\n        /* \"#utility.yul\":10615:10624   */\n      dup4\n        /* \"#utility.yul\":10611:10630   */\n      add\n        /* \"#utility.yul\":10602:10608   */\n      dup6\n        /* \"#utility.yul\":10558:10631   */\n      tag_188\n      jump\t// in\n    tag_347:\n        /* \"#utility.yul\":10641:10714   */\n      tag_348\n        /* \"#utility.yul\":10709:10712   */\n      0xa0\n        /* \"#utility.yul\":10698:10707   */\n      dup4\n        /* \"#utility.yul\":10694:10713   */\n      add\n        /* \"#utility.yul\":10685:10691   */\n      dup5\n        /* \"#utility.yul\":10641:10714   */\n      tag_188\n      jump\t// in\n    tag_348:\n        /* \"#utility.yul\":9855:10721   */\n      swap8\n      swap7\n      pop\n      pop\n      pop\n      pop\n      pop\n      pop\n      pop\n      jump\t// out\n        /* \"#utility.yul\":10727:10902   */\n    tag_205:\n        /* \"#utility.yul\":10867:10894   */\n      0x43686172616374657220646f6573206e6f742065786973742e00000000000000\n        /* \"#utility.yul\":10863:10864   */\n      0x00\n        /* \"#utility.yul\":10855:10861   */\n      dup3\n        /* \"#utility.yul\":10851:10865   */\n      add\n        /* \"#utility.yul\":10844:10895   */\n      mstore\n        /* \"#utility.yul\":10727:10902   */\n      pop\n      jump\t// out\n        /* \"#utility.yul\":10908:11274   */\n    tag_206:\n        /* \"#utility.yul\":11050:11053   */\n      0x00\n        /* \"#utility.yul\":11071:11138   */\n      tag_351\n        /* \"#utility.yul\":11135:11137   */\n      0x19\n        /* \"#utility.yul\":11130:11133   */\n      dup4\n        /* \"#utility.yul\":11071:11138   */\n      tag_190\n      jump\t// in\n    tag_351:\n        /* \"#utility.yul\":11064:11138   */\n      swap2\n      pop\n        /* \"#utility.yul\":11147:11240   */\n      tag_352\n        /* \"#utility.yul\":11236:11239   */\n      dup3\n        /* \"#utility.yul\":11147:11240   */\n      tag_205\n      jump\t// in\n    tag_352:\n        /* \"#utility.yul\":11265:11267   */\n      0x20\n        /* \"#utility.yul\":11260:11263   */\n      dup3\n        /* \"#utility.yul\":11256:11268   */\n      add\n        /* \"#utility.yul\":11249:11268   */\n      swap1\n      pop\n        /* \"#utility.yul\":10908:11274   */\n      swap2\n      swap1\n      pop\n      jump\t// out\n        /* \"#utility.yul\":11280:11699   */\n    tag_76:\n        /* \"#utility.yul\":11446:11450   */\n      0x00\n        /* \"#utility.yul\":11484:11486   */\n      0x20\n        /* \"#utility.yul\":11473:11482   */\n      dup3\n        /* \"#utility.yul\":11469:11487   */\n      add\n        /* \"#utility.yul\":11461:11487   */\n      swap1\n      pop\n        /* \"#utility.yul\":11533:11542   */\n      dup2\n        /* \"#utility.yul\":11527:11531   */\n      dup2\n        /* \"#utility.yul\":11523:11543   */\n      sub\n        /* \"#utility.yul\":11519:11520   */\n      0x00\n        /* \"#utility.yul\":11508:11517   */\n      dup4\n        /* \"#utility.yul\":11504:11521   */\n      add\n        /* \"#utility.yul\":11497:11544   */\n      mstore\n        /* \"#utility.yul\":11561:11692   */\n      tag_354\n        /* \"#utility.yul\":11687:11691   */\n      dup2\n        /* \"#utility.yul\":11561:11692   */\n      tag_206\n      jump\t// in\n    tag_354:\n        /* \"#utility.yul\":11553:11692   */\n      swap1\n      pop\n        /* \"#utility.yul\":11280:11699   */\n      swap2\n      swap1\n      pop\n      jump\t// out\n        /* \"#utility.yul\":11705:11885   */\n    tag_207:\n        /* \"#utility.yul\":11845:11877   */\n      0x496e73756666696369656e742045544820666f7220747261696e696e672e0000\n        /* \"#utility.yul\":11841:11842   */\n      0x00\n        /* \"#utility.yul\":11833:11839   */\n      dup3\n        /* \"#utility.yul\":11829:11843   */\n      add\n        /* \"#utility.yul\":11822:11878   */\n      mstore\n        /* \"#utility.yul\":11705:11885   */\n      pop\n      jump\t// out\n        /* \"#utility.yul\":11891:12257   */\n    tag_208:\n        /* \"#utility.yul\":12033:12036   */\n      0x00\n        /* \"#utility.yul\":12054:12121   */\n      tag_357\n        /* \"#utility.yul\":12118:12120   */\n      0x1e\n        /* \"#utility.yul\":12113:12116   */\n      dup4\n        /* \"#utility.yul\":12054:12121   */\n      tag_190\n      jump\t// in\n    tag_357:\n        /* \"#utility.yul\":12047:12121   */\n      swap2\n      pop\n        /* \"#utility.yul\":12130:12223   */\n      tag_358\n        /* \"#utility.yul\":12219:12222   */\n      dup3\n        /* \"#utility.yul\":12130:12223   */\n      tag_207\n      jump\t// in\n    tag_358:\n        /* \"#utility.yul\":12248:12250   */\n      0x20\n        /* \"#utility.yul\":12243:12246   */\n      dup3\n        /* \"#utility.yul\":12239:12251   */\n      add\n        /* \"#utility.yul\":12232:12251   */\n      swap1\n      pop\n        /* \"#utility.yul\":11891:12257   */\n      swap2\n      swap1\n      pop\n      jump\t// out\n        /* \"#utility.yul\":12263:12682   */\n    tag_80:\n        /* \"#utility.yul\":12429:12433   */\n      0x00\n        /* \"#utility.yul\":12467:12469   */\n      0x20\n        /* \"#utility.yul\":12456:12465   */\n      dup3\n        /* \"#utility.yul\":12452:12470   */\n      add\n        /* \"#utility.yul\":12444:12470   */\n      swap1\n      pop\n        /* \"#utility.yul\":12516:12525   */\n      dup2\n        /* \"#utility.yul\":12510:12514   */\n      dup2\n        /* \"#utility.yul\":12506:12526   */\n      sub\n        /* \"#utility.yul\":12502:12503   */\n      0x00\n        /* \"#utility.yul\":12491:12500   */\n      dup4\n        /* \"#utility.yul\":12487:12504   */\n      add\n        /* \"#utility.yul\":12480:12527   */\n      mstore\n        /* \"#utility.yul\":12544:12675   */\n      tag_360\n        /* \"#utility.yul\":12670:12674   */\n      dup2\n        /* \"#utility.yul\":12544:12675   */\n      tag_208\n      jump\t// in\n    tag_360:\n        /* \"#utility.yul\":12536:12675   */\n      swap1\n      pop\n        /* \"#utility.yul\":12263:12682   */\n      swap2\n      swap1\n      pop\n      jump\t// out\n        /* \"#utility.yul\":12688:12868   */\n    tag_209:\n        /* \"#utility.yul\":12736:12813   */\n      0x4e487b7100000000000000000000000000000000000000000000000000000000\n        /* \"#utility.yul\":12733:12734   */\n      0x00\n        /* \"#utility.yul\":12726:12814   */\n      mstore\n        /* \"#utility.yul\":12833:12837   */\n      0x11\n        /* \"#utility.yul\":12830:12831   */\n      0x04\n        /* \"#utility.yul\":12823:12838   */\n      mstore\n        /* \"#utility.yul\":12857:12861   */\n      0x24\n        /* \"#utility.yul\":12854:12855   */\n      0x00\n        /* \"#utility.yul\":12847:12862   */\n      revert\n        /* \"#utility.yul\":12874:13065   */\n    tag_82:\n        /* \"#utility.yul\":12914:12917   */\n      0x00\n        /* \"#utility.yul\":12933:12953   */\n      tag_363\n        /* \"#utility.yul\":12951:12952   */\n      dup3\n        /* \"#utility.yul\":12933:12953   */\n      tag_185\n      jump\t// in\n    tag_363:\n        /* \"#utility.yul\":12928:12953   */\n      swap2\n      pop\n        /* \"#utility.yul\":12967:12987   */\n      tag_364\n        /* \"#utility.yul\":12985:12986   */\n      dup4\n        /* \"#utility.yul\":12967:12987   */\n      tag_185\n      jump\t// in\n    tag_364:\n        /* \"#utility.yul\":12962:12987   */\n      swap3\n      pop\n        /* \"#utility.yul\":13010:13011   */\n      dup3\n        /* \"#utility.yul\":13007:13008   */\n      dup3\n        /* \"#utility.yul\":13003:13012   */\n      add\n        /* \"#utility.yul\":12996:13012   */\n      swap1\n      pop\n        /* \"#utility.yul\":13031:13034   */\n      dup1\n        /* \"#utility.yul\":13028:13029   */\n      dup3\n        /* \"#utility.yul\":13025:13035   */\n      gt\n        /* \"#utility.yul\":13022:13058   */\n      iszero\n      tag_365\n      jumpi\n        /* \"#utility.yul\":13038:13056   */\n      tag_366\n      tag_209\n      jump\t// in\n    tag_366:\n        /* \"#utility.yul\":13022:13058   */\n    tag_365:\n        /* \"#utility.yul\":12874:13065   */\n      swap3\n      swap2\n      pop\n      pop\n      jump\t// out\n        /* \"#utility.yul\":13071:13265   */\n    tag_89:\n        /* \"#utility.yul\":13111:13115   */\n      0x00\n        /* \"#utility.yul\":13131:13151   */\n      tag_368\n        /* \"#utility.yul\":13149:13150   */\n      dup3\n        /* \"#utility.yul\":13131:13151   */\n      tag_185\n      jump\t// in\n    tag_368:\n        /* \"#utility.yul\":13126:13151   */\n      swap2\n      pop\n        /* \"#utility.yul\":13165:13185   */\n      tag_369\n        /* \"#utility.yul\":13183:13184   */\n      dup4\n        /* \"#utility.yul\":13165:13185   */\n      tag_185\n      jump\t// in\n    tag_369:\n        /* \"#utility.yul\":13160:13185   */\n      swap3\n      pop\n        /* \"#utility.yul\":13209:13210   */\n      dup3\n        /* \"#utility.yul\":13206:13207   */\n      dup3\n        /* \"#utility.yul\":13202:13211   */\n      sub\n        /* \"#utility.yul\":13194:13211   */\n      swap1\n      pop\n        /* \"#utility.yul\":13233:13234   */\n      dup2\n        /* \"#utility.yul\":13227:13231   */\n      dup2\n        /* \"#utility.yul\":13224:13235   */\n      gt\n        /* \"#utility.yul\":13221:13258   */\n      iszero\n      tag_370\n      jumpi\n        /* \"#utility.yul\":13238:13256   */\n      tag_371\n      tag_209\n      jump\t// in\n    tag_371:\n        /* \"#utility.yul\":13221:13258   */\n    tag_370:\n        /* \"#utility.yul\":13071:13265   */\n      swap3\n      swap2\n      pop\n      pop\n      jump\t// out\n        /* \"#utility.yul\":13271:13441   */\n    tag_210:\n        /* \"#utility.yul\":13411:13433   */\n      0x4974656d20646f6573206e6f742065786973742e000000000000000000000000\n        /* \"#utility.yul\":13407:13408   */\n      0x00\n        /* \"#utility.yul\":13399:13405   */\n      dup3\n        /* \"#utility.yul\":13395:13409   */\n      add\n        /* \"#utility.yul\":13388:13434   */\n      mstore\n        /* \"#utility.yul\":13271:13441   */\n      pop\n      jump\t// out\n        /* \"#utility.yul\":13447:13813   */\n    tag_211:\n        /* \"#utility.yul\":13589:13592   */\n      0x00\n        /* \"#utility.yul\":13610:13677   */\n      tag_374\n        /* \"#utility.yul\":13674:13676   */\n      0x14\n        /* \"#utility.yul\":13669:13672   */\n      dup4\n        /* \"#utility.yul\":13610:13677   */\n      tag_190\n      jump\t// in\n    tag_374:\n        /* \"#utility.yul\":13603:13677   */\n      swap2\n      pop\n        /* \"#utility.yul\":13686:13779   */\n      tag_375\n        /* \"#utility.yul\":13775:13778   */\n      dup3\n        /* \"#utility.yul\":13686:13779   */\n      tag_210\n      jump\t// in\n    tag_375:\n        /* \"#utility.yul\":13804:13806   */\n      0x20\n        /* \"#utility.yul\":13799:13802   */\n      dup3\n        /* \"#utility.yul\":13795:13807   */\n      add\n        /* \"#utility.yul\":13788:13807   */\n      swap1\n      pop\n        /* \"#utility.yul\":13447:13813   */\n      swap2\n      swap1\n      pop\n      jump\t// out\n        /* \"#utility.yul\":13819:14238   */\n    tag_95:\n        /* \"#utility.yul\":13985:13989   */\n      0x00\n        /* \"#utility.yul\":14023:14025   */\n      0x20\n        /* \"#utility.yul\":14012:14021   */\n      dup3\n        /* \"#utility.yul\":14008:14026   */\n      add\n        /* \"#utility.yul\":14000:14026   */\n      swap1\n      pop\n        /* \"#utility.yul\":14072:14081   */\n      dup2\n        /* \"#utility.yul\":14066:14070   */\n      dup2\n        /* \"#utility.yul\":14062:14082   */\n      sub\n        /* \"#utility.yul\":14058:14059   */\n      0x00\n        /* \"#utility.yul\":14047:14056   */\n      dup4\n        /* \"#utility.yul\":14043:14060   */\n      add\n        /* \"#utility.yul\":14036:14083   */\n      mstore\n        /* \"#utility.yul\":14100:14231   */\n      tag_377\n        /* \"#utility.yul\":14226:14230   */\n      dup2\n        /* \"#utility.yul\":14100:14231   */\n      tag_211\n      jump\t// in\n    tag_377:\n        /* \"#utility.yul\":14092:14231   */\n      swap1\n      pop\n        /* \"#utility.yul\":13819:14238   */\n      swap2\n      swap1\n      pop\n      jump\t// out\n        /* \"#utility.yul\":14244:14424   */\n    tag_212:\n        /* \"#utility.yul\":14292:14369   */\n      0x4e487b7100000000000000000000000000000000000000000000000000000000\n        /* \"#utility.yul\":14289:14290   */\n      0x00\n        /* \"#utility.yul\":14282:14370   */\n      mstore\n        /* \"#utility.yul\":14389:14393   */\n      0x22\n        /* \"#utility.yul\":14386:14387   */\n      0x04\n        /* \"#utility.yul\":14379:14394   */\n      mstore\n        /* \"#utility.yul\":14413:14417   */\n      0x24\n        /* \"#utility.yul\":14410:14411   */\n      0x00\n        /* \"#utility.yul\":14403:14418   */\n      revert\n        /* \"#utility.yul\":14430:14750   */\n    tag_98:\n        /* \"#utility.yul\":14474:14480   */\n      0x00\n        /* \"#utility.yul\":14511:14512   */\n      0x02\n        /* \"#utility.yul\":14505:14509   */\n      dup3\n        /* \"#utility.yul\":14501:14513   */\n      div\n        /* \"#utility.yul\":14491:14513   */\n      swap1\n      pop\n        /* \"#utility.yul\":14558:14559   */\n      0x01\n        /* \"#utility.yul\":14552:14556   */\n      dup3\n        /* \"#utility.yul\":14548:14560   */\n      and\n        /* \"#utility.yul\":14579:14597   */\n      dup1\n        /* \"#utility.yul\":14569:14650   */\n      tag_380\n      jumpi\n        /* \"#utility.yul\":14635:14639   */\n      0x7f\n        /* \"#utility.yul\":14627:14633   */\n      dup3\n        /* \"#utility.yul\":14623:14640   */\n      and\n        /* \"#utility.yul\":14613:14640   */\n      swap2\n      pop\n        /* \"#utility.yul\":14569:14650   */\n    tag_380:\n        /* \"#utility.yul\":14697:14699   */\n      0x20\n        /* \"#utility.yul\":14689:14695   */\n      dup3\n        /* \"#utility.yul\":14686:14700   */\n      lt\n        /* \"#utility.yul\":14666:14684   */\n      dup2\n        /* \"#utility.yul\":14663:14701   */\n      sub\n        /* \"#utility.yul\":14660:14744   */\n      tag_381\n      jumpi\n        /* \"#utility.yul\":14716:14734   */\n      tag_382\n      tag_212\n      jump\t// in\n    tag_382:\n        /* \"#utility.yul\":14660:14744   */\n    tag_381:\n        /* \"#utility.yul\":14481:14750   */\n      pop\n        /* \"#utility.yul\":14430:14750   */\n      swap2\n      swap1\n      pop\n      jump\t// out\n        /* \"#utility.yul\":14756:14930   */\n    tag_213:\n        /* \"#utility.yul\":14896:14922   */\n      0x43616c6c6572206973206e6f7420746865206f776e65722e0000000000000000\n        /* \"#utility.yul\":14892:14893   */\n      0x00\n        /* \"#utility.yul\":14884:14890   */\n      dup3\n        /* \"#utility.yul\":14880:14894   */\n      add\n        /* \"#utility.yul\":14873:14923   */\n      mstore\n        /* \"#utility.yul\":14756:14930   */\n      pop\n      jump\t// out\n        /* \"#utility.yul\":14936:15302   */\n    tag_214:\n        /* \"#utility.yul\":15078:15081   */\n      0x00\n        /* \"#utility.yul\":15099:15166   */\n      tag_385\n        /* \"#utility.yul\":15163:15165   */\n      0x18\n        /* \"#utility.yul\":15158:15161   */\n      dup4\n        /* \"#utility.yul\":15099:15166   */\n      tag_190\n      jump\t// in\n    tag_385:\n        /* \"#utility.yul\":15092:15166   */\n      swap2\n      pop\n        /* \"#utility.yul\":15175:15268   */\n      tag_386\n        /* \"#utility.yul\":15264:15267   */\n      dup3\n        /* \"#utility.yul\":15175:15268   */\n      tag_213\n      jump\t// in\n    tag_386:\n        /* \"#utility.yul\":15293:15295   */\n      0x20\n        /* \"#utility.yul\":15288:15291   */\n      dup3\n        /* \"#utility.yul\":15284:15296   */\n      add\n        /* \"#utility.yul\":15277:15296   */\n      swap1\n      pop\n        /* \"#utility.yul\":14936:15302   */\n      swap2\n      swap1\n      pop\n      jump\t// out\n        /* \"#utility.yul\":15308:15727   */\n    tag_106:\n        /* \"#utility.yul\":15474:15478   */\n      0x00\n        /* \"#utility.yul\":15512:15514   */\n      0x20\n        /* \"#utility.yul\":15501:15510   */\n      dup3\n        /* \"#utility.yul\":15497:15515   */\n      add\n        /* \"#utility.yul\":15489:15515   */\n      swap1\n      pop\n        /* \"#utility.yul\":15561:15570   */\n      dup2\n        /* \"#utility.yul\":15555:15559   */\n      dup2\n        /* \"#utility.yul\":15551:15571   */\n      sub\n        /* \"#utility.yul\":15547:15548   */\n      0x00\n        /* \"#utility.yul\":15536:15545   */\n      dup4\n        /* \"#utility.yul\":15532:15549   */\n      add\n        /* \"#utility.yul\":15525:15572   */\n      mstore\n        /* \"#utility.yul\":15589:15720   */\n      tag_388\n        /* \"#utility.yul\":15715:15719   */\n      dup2\n        /* \"#utility.yul\":15589:15720   */\n      tag_214\n      jump\t// in\n    tag_388:\n        /* \"#utility.yul\":15581:15720   */\n      swap1\n      pop\n        /* \"#utility.yul\":15308:15727   */\n      swap2\n      swap1\n      pop\n      jump\t// out\n        /* \"#utility.yul\":15733:15902   */\n    tag_215:\n        /* \"#utility.yul\":15873:15894   */\n      0x4e6f2045544820746f2077697468647261772e00000000000000000000000000\n        /* \"#utility.yul\":15869:15870   */\n      0x00\n        /* \"#utility.yul\":15861:15867   */\n      dup3\n        /* \"#utility.yul\":15857:15871   */\n      add\n        /* \"#utility.yul\":15850:15895   */\n      mstore\n        /* \"#utility.yul\":15733:15902   */\n      pop\n      jump\t// out\n        /* \"#utility.yul\":15908:16274   */\n    tag_216:\n        /* \"#utility.yul\":16050:16053   */\n      0x00\n        /* \"#utility.yul\":16071:16138   */\n      tag_391\n        /* \"#utility.yul\":16135:16137   */\n      0x13\n        /* \"#utility.yul\":16130:16133   */\n      dup4\n        /* \"#utility.yul\":16071:16138   */\n      tag_190\n      jump\t// in\n    tag_391:\n        /* \"#utility.yul\":16064:16138   */\n      swap2\n      pop\n        /* \"#utility.yul\":16147:16240   */\n      tag_392\n        /* \"#utility.yul\":16236:16239   */\n      dup3\n        /* \"#utility.yul\":16147:16240   */\n      tag_215\n      jump\t// in\n    tag_392:\n        /* \"#utility.yul\":16265:16267   */\n      0x20\n        /* \"#utility.yul\":16260:16263   */\n      dup3\n        /* \"#utility.yul\":16256:16268   */\n      add\n        /* \"#utility.yul\":16249:16268   */\n      swap1\n      pop\n        /* \"#utility.yul\":15908:16274   */\n      swap2\n      swap1\n      pop\n      jump\t// out\n        /* \"#utility.yul\":16280:16699   */\n    tag_110:\n        /* \"#utility.yul\":16446:16450   */\n      0x00\n        /* \"#utility.yul\":16484:16486   */\n      0x20\n        /* \"#utility.yul\":16473:16482   */\n      dup3\n        /* \"#utility.yul\":16469:16487   */\n      add\n        /* \"#utility.yul\":16461:16487   */\n      swap1\n      pop\n        /* \"#utility.yul\":16533:16542   */\n      dup2\n        /* \"#utility.yul\":16527:16531   */\n      dup2\n        /* \"#utility.yul\":16523:16543   */\n      sub\n        /* \"#utility.yul\":16519:16520   */\n      0x00\n        /* \"#utility.yul\":16508:16517   */\n      dup4\n        /* \"#utility.yul\":16504:16521   */\n      add\n        /* \"#utility.yul\":16497:16544   */\n      mstore\n        /* \"#utility.yul\":16561:16692   */\n      tag_394\n        /* \"#utility.yul\":16687:16691   */\n      dup2\n        /* \"#utility.yul\":16561:16692   */\n      tag_216\n      jump\t// in\n    tag_394:\n        /* \"#utility.yul\":16553:16692   */\n      swap1\n      pop\n        /* \"#utility.yul\":16280:16699   */\n      swap2\n      swap1\n      pop\n      jump\t// out\n        /* \"#utility.yul\":16705:16802   */\n    tag_217:\n        /* \"#utility.yul\":16764:16770   */\n      0x00\n        /* \"#utility.yul\":16792:16795   */\n      dup3\n        /* \"#utility.yul\":16782:16795   */\n      swap1\n      pop\n        /* \"#utility.yul\":16705:16802   */\n      swap3\n      swap2\n      pop\n      pop\n      jump\t// out\n        /* \"#utility.yul\":16808:16988   */\n    tag_218:\n        /* \"#utility.yul\":16856:16933   */\n      0x4e487b7100000000000000000000000000000000000000000000000000000000\n        /* \"#utility.yul\":16853:16854   */\n      0x00\n        /* \"#utility.yul\":16846:16934   */\n      mstore\n        /* \"#utility.yul\":16953:16957   */\n      0x41\n        /* \"#utility.yul\":16950:16951   */\n      0x04\n        /* \"#utility.yul\":16943:16958   */\n      mstore\n        /* \"#utility.yul\":16977:16981   */\n      0x24\n        /* \"#utility.yul\":16974:16975   */\n      0x00\n        /* \"#utility.yul\":16967:16982   */\n      revert\n        /* \"#utility.yul\":16994:17135   */\n    tag_219:\n        /* \"#utility.yul\":17043:17047   */\n      0x00\n        /* \"#utility.yul\":17066:17069   */\n      dup2\n        /* \"#utility.yul\":17058:17069   */\n      swap1\n      pop\n        /* \"#utility.yul\":17089:17092   */\n      dup2\n        /* \"#utility.yul\":17086:17087   */\n      0x00\n        /* \"#utility.yul\":17079:17093   */\n      mstore\n        /* \"#utility.yul\":17123:17127   */\n      0x20\n        /* \"#utility.yul\":17120:17121   */\n      0x00\n        /* \"#utility.yul\":17110:17128   */\n      keccak256\n        /* \"#utility.yul\":17102:17128   */\n      swap1\n      pop\n        /* \"#utility.yul\":16994:17135   */\n      swap2\n      swap1\n      pop\n      jump\t// out\n        /* \"#utility.yul\":17141:17234   */\n    tag_220:\n        /* \"#utility.yul\":17178:17184   */\n      0x00\n        /* \"#utility.yul\":17225:17227   */\n      0x20\n        /* \"#utility.yul\":17220:17222   */\n      0x1f\n        /* \"#utility.yul\":17213:17218   */\n      dup4\n        /* \"#utility.yul\":17209:17223   */\n      add\n        /* \"#utility.yul\":17205:17228   */\n      div\n        /* \"#utility.yul\":17195:17228   */\n      swap1\n      pop\n        /* \"#utility.yul\":17141:17234   */\n      swap2\n      swap1\n      pop\n      jump\t// out\n        /* \"#utility.yul\":17240:17347   */\n    tag_221:\n        /* \"#utility.yul\":17284:17292   */\n      0x00\n        /* \"#utility.yul\":17334:17339   */\n      dup3\n        /* \"#utility.yul\":17328:17332   */\n      dup3\n        /* \"#utility.yul\":17324:17340   */\n      shl\n        /* \"#utility.yul\":17303:17340   */\n      swap1\n      pop\n        /* \"#utility.yul\":17240:17347   */\n      swap3\n      swap2\n      pop\n      pop\n      jump\t// out\n        /* \"#utility.yul\":17353:17746   */\n    tag_222:\n        /* \"#utility.yul\":17422:17428   */\n      0x00\n        /* \"#utility.yul\":17472:17473   */\n      0x08\n        /* \"#utility.yul\":17460:17470   */\n      dup4\n        /* \"#utility.yul\":17456:17474   */\n      mul\n        /* \"#utility.yul\":17495:17592   */\n      tag_401\n        /* \"#utility.yul\":17525:17591   */\n      0xffffffffffffffffffffffffffffffffffffffffffffffffffffffffffffffff\n        /* \"#utility.yul\":17514:17523   */\n      dup3\n        /* \"#utility.yul\":17495:17592   */\n      tag_221\n      jump\t// in\n    tag_401:\n        /* \"#utility.yul\":17613:17652   */\n      tag_402\n        /* \"#utility.yul\":17643:17651   */\n      dup7\n        /* \"#utility.yul\":17632:17641   */\n      dup4\n        /* \"#utility.yul\":17613:17652   */\n      tag_221\n      jump\t// in\n    tag_402:\n        /* \"#utility.yul\":17601:17652   */\n      swap6\n      pop\n        /* \"#utility.yul\":17685:17689   */\n      dup1\n        /* \"#utility.yul\":17681:17690   */\n      not\n        /* \"#utility.yul\":17674:17679   */\n      dup5\n        /* \"#utility.yul\":17670:17691   */\n      and\n        /* \"#utility.yul\":17661:17691   */\n      swap4\n      pop\n        /* \"#utility.yul\":17734:17738   */\n      dup1\n        /* \"#utility.yul\":17724:17732   */\n      dup7\n        /* \"#utility.yul\":17720:17739   */\n      and\n        /* \"#utility.yul\":17713:17718   */\n      dup5\n        /* \"#utility.yul\":17710:17740   */\n      or\n        /* \"#utility.yul\":17700:17740   */\n      swap3\n      pop\n        /* \"#utility.yul\":17429:17746   */\n      pop\n      pop\n        /* \"#utility.yul\":17353:17746   */\n      swap4\n      swap3\n      pop\n      pop\n      pop\n      jump\t// out\n        /* \"#utility.yul\":17752:17812   */\n    tag_223:\n        /* \"#utility.yul\":17780:17783   */\n      0x00\n        /* \"#utility.yul\":17801:17806   */\n      dup2\n        /* \"#utility.yul\":17794:17806   */\n      swap1\n      pop\n        /* \"#utility.yul\":17752:17812   */\n      swap2\n      swap1\n      pop\n      jump\t// out\n        /* \"#utility.yul\":17818:17960   */\n    tag_224:\n        /* \"#utility.yul\":17868:17877   */\n      0x00\n        /* \"#utility.yul\":17901:17954   */\n      tag_405\n        /* \"#utility.yul\":17919:17953   */\n      tag_406\n        /* \"#utility.yul\":17928:17952   */\n      tag_407\n        /* \"#utility.yul\":17946:17951   */\n      dup5\n        /* \"#utility.yul\":17928:17952   */\n      tag_185\n      jump\t// in\n    tag_407:\n        /* \"#utility.yul\":17919:17953   */\n      tag_223\n      jump\t// in\n    tag_406:\n        /* \"#utility.yul\":17901:17954   */\n      tag_185\n      jump\t// in\n    tag_405:\n        /* \"#utility.yul\":17888:17954   */\n      swap1\n      pop\n        /* \"#utility.yul\":17818:17960   */\n      swap2\n      swap1\n      pop\n      jump\t// out\n        /* \"#utility.yul\":17966:18041   */\n    tag_225:\n        /* \"#utility.yul\":18009:18012   */\n      0x00\n        /* \"#utility.yul\":18030:18035   */\n      dup2\n        /* \"#utility.yul\":18023:18035   */\n      swap1\n      pop\n        /* \"#utility.yul\":17966:18041   */\n      swap2\n      swap1\n      pop\n      jump\t// out\n        /* \"#utility.yul\":18047:18316   */\n    tag_226:\n        /* \"#utility.yul\":18157:18196   */\n      tag_410\n        /* \"#utility.yul\":18188:18195   */\n      dup4\n        /* \"#utility.yul\":18157:18196   */\n      tag_224\n      jump\t// in\n    tag_410:\n        /* \"#utility.yul\":18218:18309   */\n      tag_411\n        /* \"#utility.yul\":18267:18308   */\n      tag_412\n        /* \"#utility.yul\":18291:18307   */\n      dup3\n        /* \"#utility.yul\":18267:18308   */\n      tag_225\n      jump\t// in\n    tag_412:\n        /* \"#utility.yul\":18259:18265   */\n      dup5\n        /* \"#utility.yul\":18252:18256   */\n      dup5\n        /* \"#utility.yul\":18246:18257   */\n      sload\n        /* \"#utility.yul\":18218:18309   */\n      tag_222\n      jump\t// in\n    tag_411:\n        /* \"#utility.yul\":18212:18216   */\n      dup3\n        /* \"#utility.yul\":18205:18310   */\n      sstore\n        /* \"#utility.yul\":18123:18316   */\n      pop\n        /* \"#utility.yul\":18047:18316   */\n      pop\n      pop\n      pop\n      jump\t// out\n        /* \"#utility.yul\":18322:18395   */\n    tag_227:\n        /* \"#utility.yul\":18367:18370   */\n      0x00\n        /* \"#utility.yul\":18388:18389   */\n      0x00\n        /* \"#utility.yul\":18381:18389   */\n      swap1\n      pop\n        /* \"#utility.yul\":18322:18395   */\n      swap1\n      jump\t// out\n        /* \"#utility.yul\":18401:18590   */\n    tag_228:\n        /* \"#utility.yul\":18478:18510   */\n      tag_415\n      tag_227\n      jump\t// in\n    tag_415:\n        /* \"#utility.yul\":18519:18584   */\n      tag_416\n        /* \"#utility.yul\":18577:18583   */\n      dup2\n        /* \"#utility.yul\":18569:18575   */\n      dup5\n        /* \"#utility.yul\":18563:18567   */\n      dup5\n        /* \"#utility.yul\":18519:18584   */\n      tag_226\n      jump\t// in\n    tag_416:\n        /* \"#utility.yul\":18454:18590   */\n      pop\n        /* \"#utility.yul\":18401:18590   */\n      pop\n      pop\n      jump\t// out\n        /* \"#utility.yul\":18596:18782   */\n    tag_229:\n        /* \"#utility.yul\":18656:18776   */\n    tag_418:\n        /* \"#utility.yul\":18673:18676   */\n      dup2\n        /* \"#utility.yul\":18666:18671   */\n      dup2\n        /* \"#utility.yul\":18663:18677   */\n      lt\n        /* \"#utility.yul\":18656:18776   */\n      iszero\n      tag_420\n      jumpi\n        /* \"#utility.yul\":18727:18766   */\n      tag_421\n        /* \"#utility.yul\":18764:18765   */\n      0x00\n        /* \"#utility.yul\":18757:18762   */\n      dup3\n        /* \"#utility.yul\":18727:18766   */\n      tag_228\n      jump\t// in\n    tag_421:\n        /* \"#utility.yul\":18700:18701   */\n      0x01\n        /* \"#utility.yul\":18693:18698   */\n      dup2\n        /* \"#utility.yul\":18689:18702   */\n      add\n        /* \"#utility.yul\":18680:18702   */\n      swap1\n      pop\n        /* \"#utility.yul\":18656:18776   */\n      jump(tag_418)\n    tag_420:\n        /* \"#utility.yul\":18596:18782   */\n      pop\n      pop\n      jump\t// out\n        /* \"#utility.yul\":18788:19331   */\n    tag_230:\n        /* \"#utility.yul\":18889:18891   */\n      0x1f\n        /* \"#utility.yul\":18884:18887   */\n      dup3\n        /* \"#utility.yul\":18881:18892   */\n      gt\n        /* \"#utility.yul\":18878:19324   */\n      iszero\n      tag_423\n      jumpi\n        /* \"#utility.yul\":18923:18961   */\n      tag_424\n        /* \"#utility.yul\":18955:18960   */\n      dup2\n        /* \"#utility.yul\":18923:18961   */\n      tag_219\n      jump\t// in\n    tag_424:\n        /* \"#utility.yul\":19007:19036   */\n      tag_425\n        /* \"#utility.yul\":19025:19035   */\n      dup5\n        /* \"#utility.yul\":19007:19036   */\n      tag_220\n      jump\t// in\n    tag_425:\n        /* \"#utility.yul\":18997:19005   */\n      dup2\n        /* \"#utility.yul\":18993:19037   */\n      add\n        /* \"#utility.yul\":19190:19192   */\n      0x20\n        /* \"#utility.yul\":19178:19188   */\n      dup6\n        /* \"#utility.yul\":19175:19193   */\n      lt\n        /* \"#utility.yul\":19172:19221   */\n      iszero\n      tag_426\n      jumpi\n        /* \"#utility.yul\":19211:19219   */\n      dup2\n        /* \"#utility.yul\":19196:19219   */\n      swap1\n      pop\n        /* \"#utility.yul\":19172:19221   */\n    tag_426:\n        /* \"#utility.yul\":19234:19314   */\n      tag_427\n        /* \"#utility.yul\":19290:19312   */\n      tag_428\n        /* \"#utility.yul\":19308:19311   */\n      dup6\n        /* \"#utility.yul\":19290:19312   */\n      tag_220\n      jump\t// in\n    tag_428:\n        /* \"#utility.yul\":19280:19288   */\n      dup4\n        /* \"#utility.yul\":19276:19313   */\n      add\n        /* \"#utility.yul\":19263:19274   */\n      dup3\n        /* \"#utility.yul\":19234:19314   */\n      tag_229\n      jump\t// in\n    tag_427:\n        /* \"#utility.yul\":18893:19324   */\n      pop\n      pop\n        /* \"#utility.yul\":18878:19324   */\n    tag_423:\n        /* \"#utility.yul\":18788:19331   */\n      pop\n      pop\n      pop\n      jump\t// out\n        /* \"#utility.yul\":19337:19454   */\n    tag_231:\n        /* \"#utility.yul\":19391:19399   */\n      0x00\n        /* \"#utility.yul\":19441:19446   */\n      dup3\n        /* \"#utility.yul\":19435:19439   */\n      dup3\n        /* \"#utility.yul\":19431:19447   */\n      shr\n        /* \"#utility.yul\":19410:19447   */\n      swap1\n      pop\n        /* \"#utility.yul\":19337:19454   */\n      swap3\n      swap2\n      pop\n      pop\n      jump\t// out\n        /* \"#utility.yul\":19460:19629   */\n    tag_232:\n        /* \"#utility.yul\":19504:19510   */\n      0x00\n        /* \"#utility.yul\":19537:19588   */\n      tag_431\n        /* \"#utility.yul\":19585:19586   */\n      0x00\n        /* \"#utility.yul\":19581:19587   */\n      not\n        /* \"#utility.yul\":19573:19578   */\n      dup5\n        /* \"#utility.yul\":19570:19571   */\n      0x08\n        /* \"#utility.yul\":19566:19579   */\n      mul\n        /* \"#utility.yul\":19537:19588   */\n      tag_231\n      jump\t// in\n    tag_431:\n        /* \"#utility.yul\":19533:19589   */\n      not\n        /* \"#utility.yul\":19618:19622   */\n      dup1\n        /* \"#utility.yul\":19612:19616   */\n      dup4\n        /* \"#utility.yul\":19608:19623   */\n      and\n        /* \"#utility.yul\":19598:19623   */\n      swap2\n      pop\n        /* \"#utility.yul\":19511:19629   */\n      pop\n        /* \"#utility.yul\":19460:19629   */\n      swap3\n      swap2\n      pop\n      pop\n      jump\t// out\n        /* \"#utility.yul\":19634:19929   */\n    tag_233:\n        /* \"#utility.yul\":19710:19714   */\n      0x00\n        /* \"#utility.yul\":19856:19885   */\n      tag_433\n        /* \"#utility.yul\":19881:19884   */\n      dup4\n        /* \"#utility.yul\":19875:19879   */\n      dup4\n        /* \"#utility.yul\":19856:19885   */\n      tag_232\n      jump\t// in\n    tag_433:\n        /* \"#utility.yul\":19848:19885   */\n      swap2\n      pop\n        /* \"#utility.yul\":19918:19921   */\n      dup3\n        /* \"#utility.yul\":19915:19916   */\n      0x02\n        /* \"#utility.yul\":19911:19922   */\n      mul\n        /* \"#utility.yul\":19905:19909   */\n      dup3\n        /* \"#utility.yul\":19902:19923   */\n      or\n        /* \"#utility.yul\":19894:19923   */\n      swap1\n      pop\n        /* \"#utility.yul\":19634:19929   */\n      swap3\n      swap2\n      pop\n      pop\n      jump\t// out\n        /* \"#utility.yul\":19934:21337   */\n    tag_121:\n        /* \"#utility.yul\":20058:20102   */\n      tag_435\n        /* \"#utility.yul\":20098:20101   */\n      dup4\n        /* \"#utility.yul\":20093:20096   */\n      dup4\n        /* \"#utility.yul\":20058:20102   */\n      tag_217\n      jump\t// in\n    tag_435:\n        /* \"#utility.yul\":20167:20185   */\n      0xffffffffffffffff\n        /* \"#utility.yul\":20159:20165   */\n      dup2\n        /* \"#utility.yul\":20156:20186   */\n      gt\n        /* \"#utility.yul\":20153:20209   */\n      iszero\n      tag_436\n      jumpi\n        /* \"#utility.yul\":20189:20207   */\n      tag_437\n      tag_218\n      jump\t// in\n    tag_437:\n        /* \"#utility.yul\":20153:20209   */\n    tag_436:\n        /* \"#utility.yul\":20233:20271   */\n      tag_438\n        /* \"#utility.yul\":20265:20269   */\n      dup3\n        /* \"#utility.yul\":20259:20270   */\n      sload\n        /* \"#utility.yul\":20233:20271   */\n      tag_98\n      jump\t// in\n    tag_438:\n        /* \"#utility.yul\":20318:20385   */\n      tag_439\n        /* \"#utility.yul\":20378:20384   */\n      dup3\n        /* \"#utility.yul\":20370:20376   */\n      dup3\n        /* \"#utility.yul\":20364:20368   */\n      dup6\n        /* \"#utility.yul\":20318:20385   */\n      tag_230\n      jump\t// in\n    tag_439:\n        /* \"#utility.yul\":20412:20413   */\n      0x00\n        /* \"#utility.yul\":20441:20443   */\n      0x1f\n        /* \"#utility.yul\":20433:20439   */\n      dup4\n        /* \"#utility.yul\":20430:20444   */\n      gt\n        /* \"#utility.yul\":20458:20459   */\n      0x01\n        /* \"#utility.yul\":20453:21085   */\n      dup2\n      eq\n      tag_441\n      jumpi\n        /* \"#utility.yul\":21129:21130   */\n      0x00\n        /* \"#utility.yul\":21146:21152   */\n      dup5\n        /* \"#utility.yul\":21143:21227   */\n      iszero\n      tag_442\n      jumpi\n        /* \"#utility.yul\":21202:21211   */\n      dup3\n        /* \"#utility.yul\":21197:21200   */\n      dup8\n        /* \"#utility.yul\":21193:21212   */\n      add\n        /* \"#utility.yul\":21180:21213   */\n      calldataload\n        /* \"#utility.yul\":21171:21213   */\n      swap1\n      pop\n        /* \"#utility.yul\":21143:21227   */\n    tag_442:\n        /* \"#utility.yul\":21253:21320   */\n      tag_443\n        /* \"#utility.yul\":21313:21319   */\n      dup6\n        /* \"#utility.yul\":21306:21311   */\n      dup3\n        /* \"#utility.yul\":21253:21320   */\n      tag_233\n      jump\t// in\n    tag_443:\n        /* \"#utility.yul\":21247:21251   */\n      dup7\n        /* \"#utility.yul\":21240:21321   */\n      sstore\n        /* \"#utility.yul\":21102:21331   */\n      pop\n        /* \"#utility.yul\":20423:21331   */\n      jump(tag_440)\n        /* \"#utility.yul\":20453:21085   */\n    tag_441:\n        /* \"#utility.yul\":20505:20509   */\n      0x1f\n        /* \"#utility.yul\":20501:20510   */\n      not\n        /* \"#utility.yul\":20493:20499   */\n      dup5\n        /* \"#utility.yul\":20489:20511   */\n      and\n        /* \"#utility.yul\":20539:20576   */\n      tag_444\n        /* \"#utility.yul\":20571:20575   */\n      dup7\n        /* \"#utility.yul\":20539:20576   */\n      tag_219\n      jump\t// in\n    tag_444:\n        /* \"#utility.yul\":20598:20599   */\n      0x00\n        /* \"#utility.yul\":20612:20827   */\n    tag_445:\n        /* \"#utility.yul\":20626:20633   */\n      dup3\n        /* \"#utility.yul\":20623:20624   */\n      dup2\n        /* \"#utility.yul\":20620:20634   */\n      lt\n        /* \"#utility.yul\":20612:20827   */\n      iszero\n      tag_447\n      jumpi\n        /* \"#utility.yul\":20712:20721   */\n      dup5\n        /* \"#utility.yul\":20707:20710   */\n      dup10\n        /* \"#utility.yul\":20703:20722   */\n      add\n        /* \"#utility.yul\":20690:20723   */\n      calldataload\n        /* \"#utility.yul\":20682:20688   */\n      dup3\n        /* \"#utility.yul\":20675:20724   */\n      sstore\n        /* \"#utility.yul\":20763:20764   */\n      0x01\n        /* \"#utility.yul\":20755:20761   */\n      dup3\n        /* \"#utility.yul\":20751:20765   */\n      add\n        /* \"#utility.yul\":20741:20765   */\n      swap2\n      pop\n        /* \"#utility.yul\":20810:20812   */\n      0x20\n        /* \"#utility.yul\":20799:20808   */\n      dup6\n        /* \"#utility.yul\":20795:20813   */\n      add\n        /* \"#utility.yul\":20782:20813   */\n      swap5\n      pop\n        /* \"#utility.yul\":20649:20653   */\n      0x20\n        /* \"#utility.yul\":20646:20647   */\n      dup2\n        /* \"#utility.yul\":20642:20654   */\n      add\n        /* \"#utility.yul\":20637:20654   */\n      swap1\n      pop\n        /* \"#utility.yul\":20612:20827   */\n      jump(tag_445)\n    tag_447:\n        /* \"#utility.yul\":20855:20861   */\n      dup7\n        /* \"#utility.yul\":20846:20853   */\n      dup4\n        /* \"#utility.yul\":20843:20862   */\n      lt\n        /* \"#utility.yul\":20840:21026   */\n      iszero\n      tag_448\n      jumpi\n        /* \"#utility.yul\":20920:20929   */\n      dup5\n        /* \"#utility.yul\":20915:20918   */\n      dup10\n        /* \"#utility.yul\":20911:20930   */\n      add\n        /* \"#utility.yul\":20898:20931   */\n      calldataload\n        /* \"#utility.yul\":20963:21011   */\n      tag_449\n        /* \"#utility.yul\":21005:21009   */\n      0x1f\n        /* \"#utility.yul\":20997:21003   */\n      dup10\n        /* \"#utility.yul\":20993:21010   */\n      and\n        /* \"#utility.yul\":20982:20991   */\n      dup3\n        /* \"#utility.yul\":20963:21011   */\n      tag_232\n      jump\t// in\n    tag_449:\n        /* \"#utility.yul\":20955:20961   */\n      dup4\n        /* \"#utility.yul\":20948:21012   */\n      sstore\n        /* \"#utility.yul\":20863:21026   */\n      pop\n        /* \"#utility.yul\":20840:21026   */\n    tag_448:\n        /* \"#utility.yul\":21072:21073   */\n      0x01\n        /* \"#utility.yul\":21068:21069   */\n      0x02\n        /* \"#utility.yul\":21060:21066   */\n      dup9\n        /* \"#utility.yul\":21056:21070   */\n      mul\n        /* \"#utility.yul\":21052:21074   */\n      add\n        /* \"#utility.yul\":21046:21050   */\n      dup9\n        /* \"#utility.yul\":21039:21075   */\n      sstore\n        /* \"#utility.yul\":20460:21085   */\n      pop\n      pop\n      pop\n        /* \"#utility.yul\":20423:21331   */\n    tag_440:\n      pop\n        /* \"#utility.yul\":20033:21337   */\n      pop\n      pop\n      pop\n        /* \"#utility.yul\":19934:21337   */\n      pop\n      pop\n      pop\n      jump\t// out\n        /* \"#utility.yul\":21343:21491   */\n    tag_234:\n        /* \"#utility.yul\":21441:21447   */\n      dup3\n        /* \"#utility.yul\":21436:21439   */\n      dup2\n        /* \"#utility.yul\":21431:21434   */\n      dup4\n        /* \"#utility.yul\":21418:21448   */\n      calldatacopy\n        /* \"#utility.yul\":21482:21483   */\n      0x00\n        /* \"#utility.yul\":21473:21479   */\n      dup4\n        /* \"#utility.yul\":21468:21471   */\n      dup4\n        /* \"#utility.yul\":21464:21480   */\n      add\n        /* \"#utility.yul\":21457:21484   */\n      mstore\n        /* \"#utility.yul\":21343:21491   */\n      pop\n      pop\n      pop\n      jump\t// out\n        /* \"#utility.yul\":21521:21838   */\n    tag_235:\n        /* \"#utility.yul\":21619:21622   */\n      0x00\n        /* \"#utility.yul\":21640:21711   */\n      tag_452\n        /* \"#utility.yul\":21704:21710   */\n      dup4\n        /* \"#utility.yul\":21699:21702   */\n      dup6\n        /* \"#utility.yul\":21640:21711   */\n      tag_190\n      jump\t// in\n    tag_452:\n        /* \"#utility.yul\":21633:21711   */\n      swap4\n      pop\n        /* \"#utility.yul\":21721:21777   */\n      tag_453\n        /* \"#utility.yul\":21770:21776   */\n      dup4\n        /* \"#utility.yul\":21765:21768   */\n      dup6\n        /* \"#utility.yul\":21758:21763   */\n      dup5\n        /* \"#utility.yul\":21721:21777   */\n      tag_234\n      jump\t// in\n    tag_453:\n        /* \"#utility.yul\":21802:21831   */\n      tag_454\n        /* \"#utility.yul\":21824:21830   */\n      dup4\n        /* \"#utility.yul\":21802:21831   */\n      tag_192\n      jump\t// in\n    tag_454:\n        /* \"#utility.yul\":21797:21800   */\n      dup5\n        /* \"#utility.yul\":21793:21832   */\n      add\n        /* \"#utility.yul\":21786:21832   */\n      swap1\n      pop\n        /* \"#utility.yul\":21521:21838   */\n      swap4\n      swap3\n      pop\n      pop\n      pop\n      jump\t// out\n        /* \"#utility.yul\":21844:22287   */\n    tag_123:\n        /* \"#utility.yul\":21995:21999   */\n      0x00\n        /* \"#utility.yul\":22033:22035   */\n      0x40\n        /* \"#utility.yul\":22022:22031   */\n      dup3\n        /* \"#utility.yul\":22018:22036   */\n      add\n        /* \"#utility.yul\":22010:22036   */\n      swap1\n      pop\n        /* \"#utility.yul\":22082:22091   */\n      dup2\n        /* \"#utility.yul\":22076:22080   */\n      dup2\n        /* \"#utility.yul\":22072:22092   */\n      sub\n        /* \"#utility.yul\":22068:22069   */\n      0x00\n        /* \"#utility.yul\":22057:22066   */\n      dup4\n        /* \"#utility.yul\":22053:22070   */\n      add\n        /* \"#utility.yul\":22046:22093   */\n      mstore\n        /* \"#utility.yul\":22110:22198   */\n      tag_456\n        /* \"#utility.yul\":22193:22197   */\n      dup2\n        /* \"#utility.yul\":22184:22190   */\n      dup6\n        /* \"#utility.yul\":22176:22182   */\n      dup8\n        /* \"#utility.yul\":22110:22198   */\n      tag_235\n      jump\t// in\n    tag_456:\n        /* \"#utility.yul\":22102:22198   */\n      swap1\n      pop\n        /* \"#utility.yul\":22208:22280   */\n      tag_457\n        /* \"#utility.yul\":22276:22278   */\n      0x20\n        /* \"#utility.yul\":22265:22274   */\n      dup4\n        /* \"#utility.yul\":22261:22279   */\n      add\n        /* \"#utility.yul\":22252:22258   */\n      dup5\n        /* \"#utility.yul\":22208:22280   */\n      tag_188\n      jump\t// in\n    tag_457:\n        /* \"#utility.yul\":21844:22287   */\n      swap5\n      swap4\n      pop\n      pop\n      pop\n      pop\n      jump\t// out\n        /* \"#utility.yul\":22293:22468   */\n    tag_236:\n        /* \"#utility.yul\":22433:22460   */\n      0x43686172616374657220616c7265616479206578697374732e00000000000000\n        /* \"#utility.yul\":22429:22430   */\n      0x00\n        /* \"#utility.yul\":22421:22427   */\n      dup3\n        /* \"#utility.yul\":22417:22431   */\n      add\n        /* \"#utility.yul\":22410:22461   */\n      mstore\n        /* \"#utility.yul\":22293:22468   */\n      pop\n      jump\t// out\n        /* \"#utility.yul\":22474:22840   */\n    tag_237:\n        /* \"#utility.yul\":22616:22619   */\n      0x00\n        /* \"#utility.yul\":22637:22704   */\n      tag_460\n        /* \"#utility.yul\":22701:22703   */\n      0x19\n        /* \"#utility.yul\":22696:22699   */\n      dup4\n        /* \"#utility.yul\":22637:22704   */\n      tag_190\n      jump\t// in\n    tag_460:\n        /* \"#utility.yul\":22630:22704   */\n      swap2\n      pop\n        /* \"#utility.yul\":22713:22806   */\n      tag_461\n        /* \"#utility.yul\":22802:22805   */\n      dup3\n        /* \"#utility.yul\":22713:22806   */\n      tag_236\n      jump\t// in\n    tag_461:\n        /* \"#utility.yul\":22831:22833   */\n      0x20\n        /* \"#utility.yul\":22826:22829   */\n      dup3\n        /* \"#utility.yul\":22822:22834   */\n      add\n        /* \"#utility.yul\":22815:22834   */\n      swap1\n      pop\n        /* \"#utility.yul\":22474:22840   */\n      swap2\n      swap1\n      pop\n      jump\t// out\n        /* \"#utility.yul\":22846:23265   */\n    tag_127:\n        /* \"#utility.yul\":23012:23016   */\n      0x00\n        /* \"#utility.yul\":23050:23052   */\n      0x20\n        /* \"#utility.yul\":23039:23048   */\n      dup3\n        /* \"#utility.yul\":23035:23053   */\n      add\n        /* \"#utility.yul\":23027:23053   */\n      swap1\n      pop\n        /* \"#utility.yul\":23099:23108   */\n      dup2\n        /* \"#utility.yul\":23093:23097   */\n      dup2\n        /* \"#utility.yul\":23089:23109   */\n      sub\n        /* \"#utility.yul\":23085:23086   */\n      0x00\n        /* \"#utility.yul\":23074:23083   */\n      dup4\n        /* \"#utility.yul\":23070:23087   */\n      add\n        /* \"#utility.yul\":23063:23110   */\n      mstore\n        /* \"#utility.yul\":23127:23258   */\n      tag_463\n        /* \"#utility.yul\":23253:23257   */\n      dup2\n        /* \"#utility.yul\":23127:23258   */\n      tag_237\n      jump\t// in\n    tag_463:\n        /* \"#utility.yul\":23119:23258   */\n      swap1\n      pop\n        /* \"#utility.yul\":22846:23265   */\n      swap2\n      swap1\n      pop\n      jump\t// out\n        /* \"#utility.yul\":23271:24666   */\n    tag_130:\n        /* \"#utility.yul\":23388:23425   */\n      tag_465\n        /* \"#utility.yul\":23421:23424   */\n      dup3\n        /* \"#utility.yul\":23388:23425   */\n      tag_189\n      jump\t// in\n    tag_465:\n        /* \"#utility.yul\":23490:23508   */\n      0xffffffffffffffff\n        /* \"#utility.yul\":23482:23488   */\n      dup2\n        /* \"#utility.yul\":23479:23509   */\n      gt\n        /* \"#utility.yul\":23476:23532   */\n      iszero\n      tag_466\n      jumpi\n        /* \"#utility.yul\":23512:23530   */\n      tag_467\n      tag_218\n      jump\t// in\n    tag_467:\n        /* \"#utility.yul\":23476:23532   */\n    tag_466:\n        /* \"#utility.yul\":23556:23594   */\n      tag_468\n        /* \"#utility.yul\":23588:23592   */\n      dup3\n        /* \"#utility.yul\":23582:23593   */\n      sload\n        /* \"#utility.yul\":23556:23594   */\n      tag_98\n      jump\t// in\n    tag_468:\n        /* \"#utility.yul\":23641:23708   */\n      tag_469\n        /* \"#utility.yul\":23701:23707   */\n      dup3\n        /* \"#utility.yul\":23693:23699   */\n      dup3\n        /* \"#utility.yul\":23687:23691   */\n      dup6\n        /* \"#utility.yul\":23641:23708   */\n      tag_230\n      jump\t// in\n    tag_469:\n        /* \"#utility.yul\":23735:23736   */\n      0x00\n        /* \"#utility.yul\":23759:23763   */\n      0x20\n        /* \"#utility.yul\":23746:23763   */\n      swap1\n      pop\n        /* \"#utility.yul\":23791:23793   */\n      0x1f\n        /* \"#utility.yul\":23783:23789   */\n      dup4\n        /* \"#utility.yul\":23780:23794   */\n      gt\n        /* \"#utility.yul\":23808:23809   */\n      0x01\n        /* \"#utility.yul\":23803:24421   */\n      dup2\n      eq\n      tag_471\n      jumpi\n        /* \"#utility.yul\":24465:24466   */\n      0x00\n        /* \"#utility.yul\":24482:24488   */\n      dup5\n        /* \"#utility.yul\":24479:24556   */\n      iszero\n      tag_472\n      jumpi\n        /* \"#utility.yul\":24531:24540   */\n      dup3\n        /* \"#utility.yul\":24526:24529   */\n      dup8\n        /* \"#utility.yul\":24522:24541   */\n      add\n        /* \"#utility.yul\":24516:24542   */\n      mload\n        /* \"#utility.yul\":24507:24542   */\n      swap1\n      pop\n        /* \"#utility.yul\":24479:24556   */\n    tag_472:\n        /* \"#utility.yul\":24582:24649   */\n      tag_473\n        /* \"#utility.yul\":24642:24648   */\n      dup6\n        /* \"#utility.yul\":24635:24640   */\n      dup3\n        /* \"#utility.yul\":24582:24649   */\n      tag_233\n      jump\t// in\n    tag_473:\n        /* \"#utility.yul\":24576:24580   */\n      dup7\n        /* \"#utility.yul\":24569:24650   */\n      sstore\n        /* \"#utility.yul\":24438:24660   */\n      pop\n        /* \"#utility.yul\":23773:24660   */\n      jump(tag_470)\n        /* \"#utility.yul\":23803:24421   */\n    tag_471:\n        /* \"#utility.yul\":23855:23859   */\n      0x1f\n        /* \"#utility.yul\":23851:23860   */\n      not\n        /* \"#utility.yul\":23843:23849   */\n      dup5\n        /* \"#utility.yul\":23839:23861   */\n      and\n        /* \"#utility.yul\":23889:23926   */\n      tag_474\n        /* \"#utility.yul\":23921:23925   */\n      dup7\n        /* \"#utility.yul\":23889:23926   */\n      tag_219\n      jump\t// in\n    tag_474:\n        /* \"#utility.yul\":23948:23949   */\n      0x00\n        /* \"#utility.yul\":23962:24170   */\n    tag_475:\n        /* \"#utility.yul\":23976:23983   */\n      dup3\n        /* \"#utility.yul\":23973:23974   */\n      dup2\n        /* \"#utility.yul\":23970:23984   */\n      lt\n        /* \"#utility.yul\":23962:24170   */\n      iszero\n      tag_477\n      jumpi\n        /* \"#utility.yul\":24055:24064   */\n      dup5\n        /* \"#utility.yul\":24050:24053   */\n      dup10\n        /* \"#utility.yul\":24046:24065   */\n      add\n        /* \"#utility.yul\":24040:24066   */\n      mload\n        /* \"#utility.yul\":24032:24038   */\n      dup3\n        /* \"#utility.yul\":24025:24067   */\n      sstore\n        /* \"#utility.yul\":24106:24107   */\n      0x01\n        /* \"#utility.yul\":24098:24104   */\n      dup3\n        /* \"#utility.yul\":24094:24108   */\n      add\n        /* \"#utility.yul\":24084:24108   */\n      swap2\n      pop\n        /* \"#utility.yul\":24153:24155   */\n      0x20\n        /* \"#utility.yul\":24142:24151   */\n      dup6\n        /* \"#utility.yul\":24138:24156   */\n      add\n        /* \"#utility.yul\":24125:24156   */\n      swap5\n      pop\n        /* \"#utility.yul\":23999:24003   */\n      0x20\n        /* \"#utility.yul\":23996:23997   */\n      dup2\n        /* \"#utility.yul\":23992:24004   */\n      add\n        /* \"#utility.yul\":23987:24004   */\n      swap1\n      pop\n        /* \"#utility.yul\":23962:24170   */\n      jump(tag_475)\n    tag_477:\n        /* \"#utility.yul\":24198:24204   */\n      dup7\n        /* \"#utility.yul\":24189:24196   */\n      dup4\n        /* \"#utility.yul\":24186:24205   */\n      lt\n        /* \"#utility.yul\":24183:24362   */\n      iszero\n      tag_478\n      jumpi\n        /* \"#utility.yul\":24256:24265   */\n      dup5\n        /* \"#utility.yul\":24251:24254   */\n      dup10\n        /* \"#utility.yul\":24247:24266   */\n      add\n        /* \"#utility.yul\":24241:24267   */\n      mload\n        /* \"#utility.yul\":24299:24347   */\n      tag_479\n        /* \"#utility.yul\":24341:24345   */\n      0x1f\n        /* \"#utility.yul\":24333:24339   */\n      dup10\n        /* \"#utility.yul\":24329:24346   */\n      and\n        /* \"#utility.yul\":24318:24327   */\n      dup3\n        /* \"#utility.yul\":24299:24347   */\n      tag_232\n      jump\t// in\n    tag_479:\n        /* \"#utility.yul\":24291:24297   */\n      dup4\n        /* \"#utility.yul\":24284:24348   */\n      sstore\n        /* \"#utility.yul\":24206:24362   */\n      pop\n        /* \"#utility.yul\":24183:24362   */\n    tag_478:\n        /* \"#utility.yul\":24408:24409   */\n      0x01\n        /* \"#utility.yul\":24404:24405   */\n      0x02\n        /* \"#utility.yul\":24396:24402   */\n      dup9\n        /* \"#utility.yul\":24392:24406   */\n      mul\n        /* \"#utility.yul\":24388:24410   */\n      add\n        /* \"#utility.yul\":24382:24386   */\n      dup9\n        /* \"#utility.yul\":24375:24411   */\n      sstore\n        /* \"#utility.yul\":23810:24421   */\n      pop\n      pop\n      pop\n        /* \"#utility.yul\":23773:24660   */\n    tag_470:\n      pop\n        /* \"#utility.yul\":23363:24666   */\n      pop\n      pop\n      pop\n        /* \"#utility.yul\":23271:24666   */\n      pop\n      pop\n      jump\t// out\n        /* \"#utility.yul\":24672:25005   */\n    tag_132:\n        /* \"#utility.yul\":24795:24799   */\n      0x00\n        /* \"#utility.yul\":24833:24835   */\n      0x20\n        /* \"#utility.yul\":24822:24831   */\n      dup3\n        /* \"#utility.yul\":24818:24836   */\n      add\n        /* \"#utility.yul\":24810:24836   */\n      swap1\n      pop\n        /* \"#utility.yul\":24882:24891   */\n      dup2\n        /* \"#utility.yul\":24876:24880   */\n      dup2\n        /* \"#utility.yul\":24872:24892   */\n      sub\n        /* \"#utility.yul\":24868:24869   */\n      0x00\n        /* \"#utility.yul\":24857:24866   */\n      dup4\n        /* \"#utility.yul\":24853:24870   */\n      add\n        /* \"#utility.yul\":24846:24893   */\n      mstore\n        /* \"#utility.yul\":24910:24998   */\n      tag_481\n        /* \"#utility.yul\":24993:24997   */\n      dup2\n        /* \"#utility.yul\":24984:24990   */\n      dup5\n        /* \"#utility.yul\":24976:24982   */\n      dup7\n        /* \"#utility.yul\":24910:24998   */\n      tag_235\n      jump\t// in\n    tag_481:\n        /* \"#utility.yul\":24902:24998   */\n      swap1\n      pop\n        /* \"#utility.yul\":24672:25005   */\n      swap4\n      swap3\n      pop\n      pop\n      pop\n      jump\t// out\n        /* \"#utility.yul\":25011:25232   */\n    tag_238:\n        /* \"#utility.yul\":25151:25185   */\n      0x496e73756666696369656e742045544820746f20707572636861736520697465\n        /* \"#utility.yul\":25147:25148   */\n      0x00\n        /* \"#utility.yul\":25139:25145   */\n      dup3\n        /* \"#utility.yul\":25135:25149   */\n      add\n        /* \"#utility.yul\":25128:25186   */\n      mstore\n        /* \"#utility.yul\":25220:25224   */\n      0x6d2e000000000000000000000000000000000000000000000000000000000000\n        /* \"#utility.yul\":25215:25217   */\n      0x20\n        /* \"#utility.yul\":25207:25213   */\n      dup3\n        /* \"#utility.yul\":25203:25218   */\n      add\n        /* \"#utility.yul\":25196:25225   */\n      mstore\n        /* \"#utility.yul\":25011:25232   */\n      pop\n      jump\t// out\n        /* \"#utility.yul\":25238:25604   */\n    tag_239:\n        /* \"#utility.yul\":25380:25383   */\n      0x00\n        /* \"#utility.yul\":25401:25468   */\n      tag_484\n        /* \"#utility.yul\":25465:25467   */\n      0x22\n        /* \"#utility.yul\":25460:25463   */\n      dup4\n        /* \"#utility.yul\":25401:25468   */\n      tag_190\n      jump\t// in\n    tag_484:\n        /* \"#utility.yul\":25394:25468   */\n      swap2\n      pop\n        /* \"#utility.yul\":25477:25570   */\n      tag_485\n        /* \"#utility.yul\":25566:25569   */\n      dup3\n        /* \"#utility.yul\":25477:25570   */\n      tag_238\n      jump\t// in\n    tag_485:\n        /* \"#utility.yul\":25595:25597   */\n      0x40\n        /* \"#utility.yul\":25590:25593   */\n      dup3\n        /* \"#utility.yul\":25586:25598   */\n      add\n        /* \"#utility.yul\":25579:25598   */\n      swap1\n      pop\n        /* \"#utility.yul\":25238:25604   */\n      swap2\n      swap1\n      pop\n      jump\t// out\n        /* \"#utility.yul\":25610:26029   */\n    tag_157:\n        /* \"#utility.yul\":25776:25780   */\n      0x00\n        /* \"#utility.yul\":25814:25816   */\n      0x20\n        /* \"#utility.yul\":25803:25812   */\n      dup3\n        /* \"#utility.yul\":25799:25817   */\n      add\n        /* \"#utility.yul\":25791:25817   */\n      swap1\n      pop\n        /* \"#utility.yul\":25863:25872   */\n      dup2\n        /* \"#utility.yul\":25857:25861   */\n      dup2\n        /* \"#utility.yul\":25853:25873   */\n      sub\n        /* \"#utility.yul\":25849:25850   */\n      0x00\n        /* \"#utility.yul\":25838:25847   */\n      dup4\n        /* \"#utility.yul\":25834:25851   */\n      add\n        /* \"#utility.yul\":25827:25874   */\n      mstore\n        /* \"#utility.yul\":25891:26022   */\n      tag_487\n        /* \"#utility.yul\":26017:26021   */\n      dup2\n        /* \"#utility.yul\":25891:26022   */\n      tag_239\n      jump\t// in\n    tag_487:\n        /* \"#utility.yul\":25883:26022   */\n      swap1\n      pop\n        /* \"#utility.yul\":25610:26029   */\n      swap2\n      swap1\n      pop\n      jump\t// out\n        /* \"#utility.yul\":26035:26458   */\n    tag_161:\n        /* \"#utility.yul\":26176:26180   */\n      0x00\n        /* \"#utility.yul\":26214:26216   */\n      0x40\n        /* \"#utility.yul\":26203:26212   */\n      dup3\n        /* \"#utility.yul\":26199:26217   */\n      add\n        /* \"#utility.yul\":26191:26217   */\n      swap1\n      pop\n        /* \"#utility.yul\":26227:26298   */\n      tag_489\n        /* \"#utility.yul\":26295:26296   */\n      0x00\n        /* \"#utility.yul\":26284:26293   */\n      dup4\n        /* \"#utility.yul\":26280:26297   */\n      add\n        /* \"#utility.yul\":26271:26277   */\n      dup6\n        /* \"#utility.yul\":26227:26298   */\n      tag_188\n      jump\t// in\n    tag_489:\n        /* \"#utility.yul\":26345:26354   */\n      dup2\n        /* \"#utility.yul\":26339:26343   */\n      dup2\n        /* \"#utility.yul\":26335:26355   */\n      sub\n        /* \"#utility.yul\":26330:26332   */\n      0x20\n        /* \"#utility.yul\":26319:26328   */\n      dup4\n        /* \"#utility.yul\":26315:26333   */\n      add\n        /* \"#utility.yul\":26308:26356   */\n      mstore\n        /* \"#utility.yul\":26373:26451   */\n      tag_490\n        /* \"#utility.yul\":26446:26450   */\n      dup2\n        /* \"#utility.yul\":26437:26443   */\n      dup5\n        /* \"#utility.yul\":26373:26451   */\n      tag_193\n      jump\t// in\n    tag_490:\n        /* \"#utility.yul\":26365:26451   */\n      swap1\n      pop\n        /* \"#utility.yul\":26035:26458   */\n      swap4\n      swap3\n      pop\n      pop\n      pop\n      jump\t// out\n\n    auxdata: 0xa2646970667358221220eddd8ab68b0608ea02473794f60e970659e9bf701b4a28f50b65c6c762e3075364736f6c634300081e0033\n}\n",
				"bytecode": {
					"linkReferences": {},
					"object": "6080604052348015600e575f5ffd5b503360035f6101000a81548173ffffffffffffffffffffffffffffffffffffffff021916908373ffffffffffffffffffffffffffffffffffffffff16021790555060016002819055506121a6806100645f395ff3fe6080604052600436106100a6575f3560e01c80638da5cb5b116100635780638da5cb5b1461018457806397c2114f146101ae578063bfb231d2146101f0578063d38ea5bf14610231578063dc0dd6771461024d578063fdb5949e14610275576100a6565b80631b404fd8146100aa5780633129e773146100b45780633ccfd60b146100f457806351768e4d1461010a5780636a868974146101325780637e6cc17f1461015c575b5f5ffd5b6100b26102a4565b005b3480156100bf575f5ffd5b506100da60048036038101906100d5919061146d565b6104df565b6040516100eb959493929190611517565b60405180910390f35b3480156100ff575f5ffd5b50610108610663565b005b348015610115575f5ffd5b50610130600480360381019061012b91906115d0565b6107a0565b005b34801561013d575f5ffd5b50610146610944565b6040516101539190611666565b60405180910390f35b348015610167575f5ffd5b50610182600480360381019061017d919061167f565b61094a565b005b34801561018f575f5ffd5b50610198610b5f565b6040516101a59190611709565b60405180910390f35b3480156101b9575f5ffd5b506101d460048036038101906101cf919061174c565b610b84565b6040516101e79796959493929190611791565b60405180910390f35b3480156101fb575f5ffd5b506102166004803603810190610211919061146d565b610c53565b60405161022896959493929190611805565b60405180910390f35b61024b6004803603810190610246919061146d565b610d1d565b005b348015610258575f5ffd5b50610273600480360381019061026e919061186b565b611075565b005b348015610280575f5ffd5b50610289611249565b60405161029b969594939291906118ef565b60405180910390f35b5f5f3373ffffffffffffffffffffffffffffffffffffffff1673ffffffffffffffffffffffffffffffffffffffff1681526020019081526020015f206006015f9054906101000a900460ff1661032f576040517f08c379a00000000000000000000000000000000000000000000000000000000081526004016103269061199f565b60405180910390fd5b5f662386f26fc1000090508034101561037d576040517f08c379a000000000000000000000000000000000000000000000000000000000815260040161037490611a07565b60405180910390fd5b5f5f5f3373ffffffffffffffffffffffffffffffffffffffff1673ffffffffffffffffffffffffffffffffffffffff1681526020019081526020015f2090506001816001015f8282546103d09190611a52565b925050819055506014816002015f8282546103eb9190611a52565b925050819055506005816003015f8282546104069190611a52565b925050819055506003816004015f8282546104219190611a52565b925050819055505f81600501819055503373ffffffffffffffffffffffffffffffffffffffff167f04091bfe95d32fe3fa332958aa806de6891a0c16daa4dbfc9ea18f7fd67ea078826001015460405161047b9190611666565b60405180910390a2813411156104db573373ffffffffffffffffffffffffffffffffffffffff166108fc83346104b19190611a85565b90811502906040515f60405180830381858888f193505050501580156104d9573d5f5f3e3d5ffd5b505b5050565b5f60605f5f5f8560015f8281526020019081526020015f206005015f9054906101000a900460ff16610546576040517f08c379a000000000000000000000000000000000000000000000000000000000815260040161053d90611b02565b60405180910390fd5b5f60015f8981526020019081526020015f206040518060c00160405290815f820154815260200160018201805461057c90611b4d565b80601f01602080910402602001604051908101604052809291908181526020018280546105a890611b4d565b80156105f35780601f106105ca576101008083540402835291602001916105f3565b820191905f5260205f20905b8154815290600101906020018083116105d657829003601f168201915b50505050508152602001600282015481526020016003820154815260200160048201548152602001600582015f9054906101000a900460ff1615151515815250509050805f0151816020015182604001518360600151846080015196509650965096509650505091939590929450565b60035f9054906101000a900473ffffffffffffffffffffffffffffffffffffffff1673ffffffffffffffffffffffffffffffffffffffff163373ffffffffffffffffffffffffffffffffffffffff16146106f2576040517f08c379a00000000000000000000000000000000000000000000000000000000081526004016106e990611bc7565b60405180910390fd5b5f4790505f8111610738576040517f08c379a000000000000000000000000000000000000000000000000000000000815260040161072f90611c2f565b60405180910390fd5b60035f9054906101000a900473ffffffffffffffffffffffffffffffffffffffff1673ffffffffffffffffffffffffffffffffffffffff166108fc8290811502906040515f60405180830381858888f1935050505015801561079c573d5f5f3e3d5ffd5b5050565b60035f9054906101000a900473ffffffffffffffffffffffffffffffffffffffff1673ffffffffffffffffffffffffffffffffffffffff163373ffffffffffffffffffffffffffffffffffffffff161461082f576040517f08c379a000000000000000000000000000000000000000000000000000000000815260040161082690611bc7565b60405180910390fd5b8560015f8281526020019081526020015f206005015f9054906101000a900460ff16610890576040517f08c379a000000000000000000000000000000000000000000000000000000000815260040161088790611b02565b60405180910390fd5b858560015f8a81526020019081526020015f2060010191826108b3929190611e24565b508360015f8981526020019081526020015f20600201819055508260015f8981526020019081526020015f20600301819055508160015f8981526020019081526020015f2060040181905550867f607557a00b0ef90bc9c8e9453cb94c555e187555e111468cd2cb2be930fc161587878560405161093393929190611f2b565b60405180910390a250505050505050565b60025481565b5f5f3373ffffffffffffffffffffffffffffffffffffffff1673ffffffffffffffffffffffffffffffffffffffff1681526020019081526020015f206006015f9054906101000a900460ff16156109d6576040517f08c379a00000000000000000000000000000000000000000000000000000000081526004016109cd90611fa5565b60405180910390fd5b5f600190505f606490505f600a90505f600590506040518060e0016040528087878080601f0160208091040260200160405190810160405280939291908181526020018383808284375f81840152601f19601f8201169050808301925050505050505081526020018581526020018481526020018381526020018281526020015f8152602001600115158152505f5f3373ffffffffffffffffffffffffffffffffffffffff1673ffffffffffffffffffffffffffffffffffffffff1681526020019081526020015f205f820151815f019081610ab29190611fc3565b506020820151816001015560408201518160020155606082015181600301556080820151816004015560a0820151816005015560c0820151816006015f6101000a81548160ff0219169083151502179055509050503373ffffffffffffffffffffffffffffffffffffffff167f8761958357b74cb0da99450c1a85e61427b9c7d7b208ee29b019670fabda4f0b8787604051610b4f929190612092565b60405180910390a2505050505050565b60035f9054906101000a900473ffffffffffffffffffffffffffffffffffffffff1681565b5f602052805f5260405f205f91509050805f018054610ba290611b4d565b80601f0160208091040260200160405190810160405280929190818152602001828054610bce90611b4d565b8015610c195780601f10610bf057610100808354040283529160200191610c19565b820191905f5260205f20905b815481529060010190602001808311610bfc57829003601f168201915b505050505090806001015490806002015490806003015490806004015490806005015490806006015f9054906101000a900460ff16905087565b6001602052805f5260405f205f91509050805f015490806001018054610c7890611b4d565b80601f0160208091040260200160405190810160405280929190818152602001828054610ca490611b4d565b8015610cef5780601f10610cc657610100808354040283529160200191610cef565b820191905f5260205f20905b815481529060010190602001808311610cd257829003601f168201915b505050505090806002015490806003015490806004015490806005015f9054906101000a900460ff16905086565b5f5f3373ffffffffffffffffffffffffffffffffffffffff1673ffffffffffffffffffffffffffffffffffffffff1681526020019081526020015f206006015f9054906101000a900460ff16610da8576040517f08c379a0000000000000000000000000000000000000000000000000000000008152600401610d9f9061199f565b60405180910390fd5b8060015f8281526020019081526020015f206005015f9054906101000a900460ff16610e09576040517f08c379a0000000000000000000000000000000000000000000000000000000008152600401610e0090611b02565b60405180910390fd5b5f60015f8481526020019081526020015f206040518060c00160405290815f8201548152602001600182018054610e3f90611b4d565b80601f0160208091040260200160405190810160405280929190818152602001828054610e6b90611b4d565b8015610eb65780601f10610e8d57610100808354040283529160200191610eb6565b820191905f5260205f20905b815481529060010190602001808311610e9957829003601f168201915b50505050508152602001600282015481526020016003820154815260200160048201548152602001600582015f9054906101000a900460ff16151515158152505090508060800151341015610f40576040517f08c379a0000000000000000000000000000000000000000000000000000000008152600401610f3790612124565b60405180910390fd5b5f5f5f3373ffffffffffffffffffffffffffffffffffffffff1673ffffffffffffffffffffffffffffffffffffffff1681526020019081526020015f2090508160400151816003015f828254610f969190611a52565b925050819055508160600151816004015f828254610fb49190611a52565b925050819055503373ffffffffffffffffffffffffffffffffffffffff167f3851cc2c7466ed3adbe97d3763e0bf81511e17ae75184adb0646294d9e2698aa858460200151604051611007929190612142565b60405180910390a2816080015134111561106f573373ffffffffffffffffffffffffffffffffffffffff166108fc8360800151346110459190611a85565b90811502906040515f60405180830381858888f1935050505015801561106d573d5f5f3e3d5ffd5b505b50505050565b60035f9054906101000a900473ffffffffffffffffffffffffffffffffffffffff1673ffffffffffffffffffffffffffffffffffffffff163373ffffffffffffffffffffffffffffffffffffffff1614611104576040517f08c379a00000000000000000000000000000000000000000000000000000000081526004016110fb90611bc7565b60405180910390fd5b5f60025490506040518060c0016040528082815260200187878080601f0160208091040260200160405190810160405280939291908181526020018383808284375f81840152601f19601f8201169050808301925050505050505081526020018581526020018481526020018381526020016001151581525060015f8381526020019081526020015f205f820151815f015560208201518160010190816111ab9190611fc3565b5060408201518160020155606082015181600301556080820151816004015560a0820151816005015f6101000a81548160ff021916908315150217905550905050600160025f8282546111fe9190611a52565b92505081905550807f0444434676a57f70f8479401c50fb4add3e31052f88f4b35e155b7759e5968e587878560405161123993929190611f2b565b60405180910390a2505050505050565b60605f5f5f5f5f5f5f3373ffffffffffffffffffffffffffffffffffffffff1673ffffffffffffffffffffffffffffffffffffffff1681526020019081526020015f206006015f9054906101000a900460ff166112db576040517f08c379a00000000000000000000000000000000000000000000000000000000081526004016112d29061199f565b60405180910390fd5b5f5f5f3373ffffffffffffffffffffffffffffffffffffffff1673ffffffffffffffffffffffffffffffffffffffff1681526020019081526020015f206040518060e00160405290815f8201805461133290611b4d565b80601f016020809104026020016040519081016040528092919081815260200182805461135e90611b4d565b80156113a95780601f10611380576101008083540402835291602001916113a9565b820191905f5260205f20905b81548152906001019060200180831161138c57829003601f168201915b505050505081526020016001820154815260200160028201548152602001600382015481526020016004820154815260200160058201548152602001600682015f9054906101000a900460ff1615151515815250509050805f015181602001518260400151836060015184608001518560a0015196509650965096509650965050909192939495565b5f5ffd5b5f5ffd5b5f819050919050565b61144c8161143a565b8114611456575f5ffd5b50565b5f8135905061146781611443565b92915050565b5f6020828403121561148257611481611432565b5b5f61148f84828501611459565b91505092915050565b6114a18161143a565b82525050565b5f81519050919050565b5f82825260208201905092915050565b8281835e5f83830152505050565b5f601f19601f8301169050919050565b5f6114e9826114a7565b6114f381856114b1565b93506115038185602086016114c1565b61150c816114cf565b840191505092915050565b5f60a08201905061152a5f830188611498565b818103602083015261153c81876114df565b905061154b6040830186611498565b6115586060830185611498565b6115656080830184611498565b9695505050505050565b5f5ffd5b5f5ffd5b5f5ffd5b5f5f83601f8401126115905761158f61156f565b5b8235905067ffffffffffffffff8111156115ad576115ac611573565b5b6020830191508360018202830111156115c9576115c8611577565b5b9250929050565b5f5f5f5f5f5f60a087890312156115ea576115e9611432565b5b5f6115f789828a01611459565b965050602087013567ffffffffffffffff81111561161857611617611436565b5b61162489828a0161157b565b9550955050604061163789828a01611459565b935050606061164889828a01611459565b925050608061165989828a01611459565b9150509295509295509295565b5f6020820190506116795f830184611498565b92915050565b5f5f6020838503121561169557611694611432565b5b5f83013567ffffffffffffffff8111156116b2576116b1611436565b5b6116be8582860161157b565b92509250509250929050565b5f73ffffffffffffffffffffffffffffffffffffffff82169050919050565b5f6116f3826116ca565b9050919050565b611703816116e9565b82525050565b5f60208201905061171c5f8301846116fa565b92915050565b61172b816116e9565b8114611735575f5ffd5b50565b5f8135905061174681611722565b92915050565b5f6020828403121561176157611760611432565b5b5f61176e84828501611738565b91505092915050565b5f8115159050919050565b61178b81611777565b82525050565b5f60e0820190508181035f8301526117a9818a6114df565b90506117b86020830189611498565b6117c56040830188611498565b6117d26060830187611498565b6117df6080830186611498565b6117ec60a0830185611498565b6117f960c0830184611782565b98975050505050505050565b5f60c0820190506118185f830189611498565b818103602083015261182a81886114df565b90506118396040830187611498565b6118466060830186611498565b6118536080830185611498565b61186060a0830184611782565b979650505050505050565b5f5f5f5f5f6080868803121561188457611883611432565b5b5f86013567ffffffffffffffff8111156118a1576118a0611436565b5b6118ad8882890161157b565b955095505060206118c088828901611459565b93505060406118d188828901611459565b92505060606118e288828901611459565b9150509295509295909350565b5f60c0820190508181035f83015261190781896114df565b90506119166020830188611498565b6119236040830187611498565b6119306060830186611498565b61193d6080830185611498565b61194a60a0830184611498565b979650505050505050565b7f43686172616374657220646f6573206e6f742065786973742e000000000000005f82015250565b5f6119896019836114b1565b915061199482611955565b602082019050919050565b5f6020820190508181035f8301526119b68161197d565b9050919050565b7f496e73756666696369656e742045544820666f7220747261696e696e672e00005f82015250565b5f6119f1601e836114b1565b91506119fc826119bd565b602082019050919050565b5f6020820190508181035f830152611a1e816119e5565b9050919050565b7f4e487b71000000000000000000000000000000000000000000000000000000005f52601160045260245ffd5b5f611a5c8261143a565b9150611a678361143a565b9250828201905080821115611a7f57611a7e611a25565b5b92915050565b5f611a8f8261143a565b9150611a9a8361143a565b9250828203905081811115611ab257611ab1611a25565b5b92915050565b7f4974656d20646f6573206e6f742065786973742e0000000000000000000000005f82015250565b5f611aec6014836114b1565b9150611af782611ab8565b602082019050919050565b5f6020820190508181035f830152611b1981611ae0565b9050919050565b7f4e487b71000000000000000000000000000000000000000000000000000000005f52602260045260245ffd5b5f6002820490506001821680611b6457607f821691505b602082108103611b7757611b76611b20565b5b50919050565b7f43616c6c6572206973206e6f7420746865206f776e65722e00000000000000005f82015250565b5f611bb16018836114b1565b9150611bbc82611b7d565b602082019050919050565b5f6020820190508181035f830152611bde81611ba5565b9050919050565b7f4e6f2045544820746f2077697468647261772e000000000000000000000000005f82015250565b5f611c196013836114b1565b9150611c2482611be5565b602082019050919050565b5f6020820190508181035f830152611c4681611c0d565b9050919050565b5f82905092915050565b7f4e487b71000000000000000000000000000000000000000000000000000000005f52604160045260245ffd5b5f819050815f5260205f209050919050565b5f6020601f8301049050919050565b5f82821b905092915050565b5f60088302611ce07fffffffffffffffffffffffffffffffffffffffffffffffffffffffffffffffff82611ca5565b611cea8683611ca5565b95508019841693508086168417925050509392505050565b5f819050919050565b5f611d25611d20611d1b8461143a565b611d02565b61143a565b9050919050565b5f819050919050565b611d3e83611d0b565b611d52611d4a82611d2c565b848454611cb1565b825550505050565b5f5f905090565b611d69611d5a565b611d74818484611d35565b505050565b5b81811015611d9757611d8c5f82611d61565b600181019050611d7a565b5050565b601f821115611ddc57611dad81611c84565b611db684611c96565b81016020851015611dc5578190505b611dd9611dd185611c96565b830182611d79565b50505b505050565b5f82821c905092915050565b5f611dfc5f1984600802611de1565b1980831691505092915050565b5f611e148383611ded565b9150826002028217905092915050565b611e2e8383611c4d565b67ffffffffffffffff811115611e4757611e46611c57565b5b611e518254611b4d565b611e5c828285611d9b565b5f601f831160018114611e89575f8415611e77578287013590505b611e818582611e09565b865550611ee8565b601f198416611e9786611c84565b5f5b82811015611ebe57848901358255600182019150602085019450602081019050611e99565b86831015611edb5784890135611ed7601f891682611ded565b8355505b6001600288020188555050505b50505050505050565b828183375f83830152505050565b5f611f0a83856114b1565b9350611f17838584611ef1565b611f20836114cf565b840190509392505050565b5f6040820190508181035f830152611f44818587611eff565b9050611f536020830184611498565b949350505050565b7f43686172616374657220616c7265616479206578697374732e000000000000005f82015250565b5f611f8f6019836114b1565b9150611f9a82611f5b565b602082019050919050565b5f6020820190508181035f830152611fbc81611f83565b9050919050565b611fcc826114a7565b67ffffffffffffffff811115611fe557611fe4611c57565b5b611fef8254611b4d565b611ffa828285611d9b565b5f60209050601f83116001811461202b575f8415612019578287015190505b6120238582611e09565b86555061208a565b601f19841661203986611c84565b5f5b828110156120605784890151825560018201915060208501945060208101905061203b565b8683101561207d5784890151612079601f891682611ded565b8355505b6001600288020188555050505b505050505050565b5f6020820190508181035f8301526120ab818486611eff565b90509392505050565b7f496e73756666696369656e742045544820746f207075726368617365206974655f8201527f6d2e000000000000000000000000000000000000000000000000000000000000602082015250565b5f61210e6022836114b1565b9150612119826120b4565b604082019050919050565b5f6020820190508181035f83015261213b81612102565b9050919050565b5f6040820190506121555f830185611498565b818103602083015261216781846114df565b9050939250505056fea2646970667358221220eddd8ab68b0608ea02473794f60e970659e9bf701b4a28f50b65c6c762e3075364736f6c634300081e0033",
					"opcodes": "PUSH1 0x80 PUSH1 0x40 MSTORE CALLVALUE DUP1 ISZERO PUSH1 0xE JUMPI PUSH0 PUSH0 REVERT JUMPDEST POP CALLER PUSH1 0x3 PUSH0 PUSH2 0x100 EXP DUP2 SLOAD DUP2 PUSH20 0xFFFFFFFFFFFFFFFFFFFFFFFFFFFFFFFFFFFFFFFF MUL NOT AND SWAP1 DUP4 PUSH20 0xFFFFFFFFFFFFFFFFFFFFFFFFFFFFFFFFFFFFFFFF AND MUL OR SWAP1 SSTORE POP PUSH1 0x1 PUSH1 0x2 DUP2 SWAP1 SSTORE POP PUSH2 0x21A6 DUP1 PUSH2 0x64 PUSH0 CODECOPY PUSH0 RETURN INVALID PUSH1 0x80 PUSH1 0x40 MSTORE PUSH1 0x4 CALLDATASIZE LT PUSH2 0xA6 JUMPI PUSH0 CALLDATALOAD PUSH1 0xE0 SHR DUP1 PUSH4 0x8DA5CB5B GT PUSH2 0x63 JUMPI DUP1 PUSH4 0x8DA5CB5B EQ PUSH2 0x184 JUMPI DUP1 PUSH4 0x97C2114F EQ PUSH2 0x1AE JUMPI DUP1 PUSH4 0xBFB231D2 EQ PUSH2 0x1F0 JUMPI DUP1 PUSH4 0xD38EA5BF EQ PUSH2 0x231 JUMPI DUP1 PUSH4 0xDC0DD677 EQ PUSH2 0x24D JUMPI DUP1 PUSH4 0xFDB5949E EQ PUSH2 0x275 JUMPI PUSH2 0xA6 JUMP JUMPDEST DUP1 PUSH4 0x1B404FD8 EQ PUSH2 0xAA JUMPI DUP1 PUSH4 0x3129E773 EQ PUSH2 0xB4 JUMPI DUP1 PUSH4 0x3CCFD60B EQ PUSH2 0xF4 JUMPI DUP1 PUSH4 0x51768E4D EQ PUSH2 0x10A JUMPI DUP1 PUSH4 0x6A868974 EQ PUSH2 0x132 JUMPI DUP1 PUSH4 0x7E6CC17F EQ PUSH2 0x15C JUMPI JUMPDEST PUSH0 PUSH0 REVERT JUMPDEST PUSH2 0xB2 PUSH2 0x2A4 JUMP JUMPDEST STOP JUMPDEST CALLVALUE DUP1 ISZERO PUSH2 0xBF JUMPI PUSH0 PUSH0 REVERT JUMPDEST POP PUSH2 0xDA PUSH1 0x4 DUP1 CALLDATASIZE SUB DUP2 ADD SWAP1 PUSH2 0xD5 SWAP2 SWAP1 PUSH2 0x146D JUMP JUMPDEST PUSH2 0x4DF JUMP JUMPDEST PUSH1 0x40 MLOAD PUSH2 0xEB SWAP6 SWAP5 SWAP4 SWAP3 SWAP2 SWAP1 PUSH2 0x1517 JUMP JUMPDEST PUSH1 0x40 MLOAD DUP1 SWAP2 SUB SWAP1 RETURN JUMPDEST CALLVALUE DUP1 ISZERO PUSH2 0xFF JUMPI PUSH0 PUSH0 REVERT JUMPDEST POP PUSH2 0x108 PUSH2 0x663 JUMP JUMPDEST STOP JUMPDEST CALLVALUE DUP1 ISZERO PUSH2 0x115 JUMPI PUSH0 PUSH0 REVERT JUMPDEST POP PUSH2 0x130 PUSH1 0x4 DUP1 CALLDATASIZE SUB DUP2 ADD SWAP1 PUSH2 0x12B SWAP2 SWAP1 PUSH2 0x15D0 JUMP JUMPDEST PUSH2 0x7A0 JUMP JUMPDEST STOP JUMPDEST CALLVALUE DUP1 ISZERO PUSH2 0x13D JUMPI PUSH0 PUSH0 REVERT JUMPDEST POP PUSH2 0x146 PUSH2 0x944 JUMP JUMPDEST PUSH1 0x40 MLOAD PUSH2 0x153 SWAP2 SWAP1 PUSH2 0x1666 JUMP JUMPDEST PUSH1 0x40 MLOAD DUP1 SWAP2 SUB SWAP1 RETURN JUMPDEST CALLVALUE DUP1 ISZERO PUSH2 0x167 JUMPI PUSH0 PUSH0 REVERT JUMPDEST POP PUSH2 0x182 PUSH1 0x4 DUP1 CALLDATASIZE SUB DUP2 ADD SWAP1 PUSH2 0x17D SWAP2 SWAP1 PUSH2 0x167F JUMP JUMPDEST PUSH2 0x94A JUMP JUMPDEST STOP JUMPDEST CALLVALUE DUP1 ISZERO PUSH2 0x18F JUMPI PUSH0 PUSH0 REVERT JUMPDEST POP PUSH2 0x198 PUSH2 0xB5F JUMP JUMPDEST PUSH1 0x40 MLOAD PUSH2 0x1A5 SWAP2 SWAP1 PUSH2 0x1709 JUMP JUMPDEST PUSH1 0x40 MLOAD DUP1 SWAP2 SUB SWAP1 RETURN JUMPDEST CALLVALUE DUP1 ISZERO PUSH2 0x1B9 JUMPI PUSH0 PUSH0 REVERT JUMPDEST POP PUSH2 0x1D4 PUSH1 0x4 DUP1 CALLDATASIZE SUB DUP2 ADD SWAP1 PUSH2 0x1CF SWAP2 SWAP1 PUSH2 0x174C JUMP JUMPDEST PUSH2 0xB84 JUMP JUMPDEST PUSH1 0x40 MLOAD PUSH2 0x1E7 SWAP8 SWAP7 SWAP6 SWAP5 SWAP4 SWAP3 SWAP2 SWAP1 PUSH2 0x1791 JUMP JUMPDEST PUSH1 0x40 MLOAD DUP1 SWAP2 SUB SWAP1 RETURN JUMPDEST CALLVALUE DUP1 ISZERO PUSH2 0x1FB JUMPI PUSH0 PUSH0 REVERT JUMPDEST POP PUSH2 0x216 PUSH1 0x4 DUP1 CALLDATASIZE SUB DUP2 ADD SWAP1 PUSH2 0x211 SWAP2 SWAP1 PUSH2 0x146D JUMP JUMPDEST PUSH2 0xC53 JUMP JUMPDEST PUSH1 0x40 MLOAD PUSH2 0x228 SWAP7 SWAP6 SWAP5 SWAP4 SWAP3 SWAP2 SWAP1 PUSH2 0x1805 JUMP JUMPDEST PUSH1 0x40 MLOAD DUP1 SWAP2 SUB SWAP1 RETURN JUMPDEST PUSH2 0x24B PUSH1 0x4 DUP1 CALLDATASIZE SUB DUP2 ADD SWAP1 PUSH2 0x246 SWAP2 SWAP1 PUSH2 0x146D JUMP JUMPDEST PUSH2 0xD1D JUMP JUMPDEST STOP JUMPDEST CALLVALUE DUP1 ISZERO PUSH2 0x258 JUMPI PUSH0 PUSH0 REVERT JUMPDEST POP PUSH2 0x273 PUSH1 0x4 DUP1 CALLDATASIZE SUB DUP2 ADD SWAP1 PUSH2 0x26E SWAP2 SWAP1 PUSH2 0x186B JUMP JUMPDEST PUSH2 0x1075 JUMP JUMPDEST STOP JUMPDEST CALLVALUE DUP1 ISZERO PUSH2 0x280 JUMPI PUSH0 PUSH0 REVERT JUMPDEST POP PUSH2 0x289 PUSH2 0x1249 JUMP JUMPDEST PUSH1 0x40 MLOAD PUSH2 0x29B SWAP7 SWAP6 SWAP5 SWAP4 SWAP3 SWAP2 SWAP1 PUSH2 0x18EF JUMP JUMPDEST PUSH1 0x40 MLOAD DUP1 SWAP2 SUB SWAP1 RETURN JUMPDEST PUSH0 PUSH0 CALLER PUSH20 0xFFFFFFFFFFFFFFFFFFFFFFFFFFFFFFFFFFFFFFFF AND PUSH20 0xFFFFFFFFFFFFFFFFFFFFFFFFFFFFFFFFFFFFFFFF AND DUP2 MSTORE PUSH1 0x20 ADD SWAP1 DUP2 MSTORE PUSH1 0x20 ADD PUSH0 KECCAK256 PUSH1 0x6 ADD PUSH0 SWAP1 SLOAD SWAP1 PUSH2 0x100 EXP SWAP1 DIV PUSH1 0xFF AND PUSH2 0x32F JUMPI PUSH1 0x40 MLOAD PUSH32 0x8C379A000000000000000000000000000000000000000000000000000000000 DUP2 MSTORE PUSH1 0x4 ADD PUSH2 0x326 SWAP1 PUSH2 0x199F JUMP JUMPDEST PUSH1 0x40 MLOAD DUP1 SWAP2 SUB SWAP1 REVERT JUMPDEST PUSH0 PUSH7 0x2386F26FC10000 SWAP1 POP DUP1 CALLVALUE LT ISZERO PUSH2 0x37D JUMPI PUSH1 0x40 MLOAD PUSH32 0x8C379A000000000000000000000000000000000000000000000000000000000 DUP2 MSTORE PUSH1 0x4 ADD PUSH2 0x374 SWAP1 PUSH2 0x1A07 JUMP JUMPDEST PUSH1 0x40 MLOAD DUP1 SWAP2 SUB SWAP1 REVERT JUMPDEST PUSH0 PUSH0 PUSH0 CALLER PUSH20 0xFFFFFFFFFFFFFFFFFFFFFFFFFFFFFFFFFFFFFFFF AND PUSH20 0xFFFFFFFFFFFFFFFFFFFFFFFFFFFFFFFFFFFFFFFF AND DUP2 MSTORE PUSH1 0x20 ADD SWAP1 DUP2 MSTORE PUSH1 0x20 ADD PUSH0 KECCAK256 SWAP1 POP PUSH1 0x1 DUP2 PUSH1 0x1 ADD PUSH0 DUP3 DUP3 SLOAD PUSH2 0x3D0 SWAP2 SWAP1 PUSH2 0x1A52 JUMP JUMPDEST SWAP3 POP POP DUP2 SWAP1 SSTORE POP PUSH1 0x14 DUP2 PUSH1 0x2 ADD PUSH0 DUP3 DUP3 SLOAD PUSH2 0x3EB SWAP2 SWAP1 PUSH2 0x1A52 JUMP JUMPDEST SWAP3 POP POP DUP2 SWAP1 SSTORE POP PUSH1 0x5 DUP2 PUSH1 0x3 ADD PUSH0 DUP3 DUP3 SLOAD PUSH2 0x406 SWAP2 SWAP1 PUSH2 0x1A52 JUMP JUMPDEST SWAP3 POP POP DUP2 SWAP1 SSTORE POP PUSH1 0x3 DUP2 PUSH1 0x4 ADD PUSH0 DUP3 DUP3 SLOAD PUSH2 0x421 SWAP2 SWAP1 PUSH2 0x1A52 JUMP JUMPDEST SWAP3 POP POP DUP2 SWAP1 SSTORE POP PUSH0 DUP2 PUSH1 0x5 ADD DUP2 SWAP1 SSTORE POP CALLER PUSH20 0xFFFFFFFFFFFFFFFFFFFFFFFFFFFFFFFFFFFFFFFF AND PUSH32 0x4091BFE95D32FE3FA332958AA806DE6891A0C16DAA4DBFC9EA18F7FD67EA078 DUP3 PUSH1 0x1 ADD SLOAD PUSH1 0x40 MLOAD PUSH2 0x47B SWAP2 SWAP1 PUSH2 0x1666 JUMP JUMPDEST PUSH1 0x40 MLOAD DUP1 SWAP2 SUB SWAP1 LOG2 DUP2 CALLVALUE GT ISZERO PUSH2 0x4DB JUMPI CALLER PUSH20 0xFFFFFFFFFFFFFFFFFFFFFFFFFFFFFFFFFFFFFFFF AND PUSH2 0x8FC DUP4 CALLVALUE PUSH2 0x4B1 SWAP2 SWAP1 PUSH2 0x1A85 JUMP JUMPDEST SWAP1 DUP2 ISZERO MUL SWAP1 PUSH1 0x40 MLOAD PUSH0 PUSH1 0x40 MLOAD DUP1 DUP4 SUB DUP2 DUP6 DUP9 DUP9 CALL SWAP4 POP POP POP POP ISZERO DUP1 ISZERO PUSH2 0x4D9 JUMPI RETURNDATASIZE PUSH0 PUSH0 RETURNDATACOPY RETURNDATASIZE PUSH0 REVERT JUMPDEST POP JUMPDEST POP POP JUMP JUMPDEST PUSH0 PUSH1 0x60 PUSH0 PUSH0 PUSH0 DUP6 PUSH1 0x1 PUSH0 DUP3 DUP2 MSTORE PUSH1 0x20 ADD SWAP1 DUP2 MSTORE PUSH1 0x20 ADD PUSH0 KECCAK256 PUSH1 0x5 ADD PUSH0 SWAP1 SLOAD SWAP1 PUSH2 0x100 EXP SWAP1 DIV PUSH1 0xFF AND PUSH2 0x546 JUMPI PUSH1 0x40 MLOAD PUSH32 0x8C379A000000000000000000000000000000000000000000000000000000000 DUP2 MSTORE PUSH1 0x4 ADD PUSH2 0x53D SWAP1 PUSH2 0x1B02 JUMP JUMPDEST PUSH1 0x40 MLOAD DUP1 SWAP2 SUB SWAP1 REVERT JUMPDEST PUSH0 PUSH1 0x1 PUSH0 DUP10 DUP2 MSTORE PUSH1 0x20 ADD SWAP1 DUP2 MSTORE PUSH1 0x20 ADD PUSH0 KECCAK256 PUSH1 0x40 MLOAD DUP1 PUSH1 0xC0 ADD PUSH1 0x40 MSTORE SWAP1 DUP2 PUSH0 DUP3 ADD SLOAD DUP2 MSTORE PUSH1 0x20 ADD PUSH1 0x1 DUP3 ADD DUP1 SLOAD PUSH2 0x57C SWAP1 PUSH2 0x1B4D JUMP JUMPDEST DUP1 PUSH1 0x1F ADD PUSH1 0x20 DUP1 SWAP2 DIV MUL PUSH1 0x20 ADD PUSH1 0x40 MLOAD SWAP1 DUP2 ADD PUSH1 0x40 MSTORE DUP1 SWAP3 SWAP2 SWAP1 DUP2 DUP2 MSTORE PUSH1 0x20 ADD DUP3 DUP1 SLOAD PUSH2 0x5A8 SWAP1 PUSH2 0x1B4D JUMP JUMPDEST DUP1 ISZERO PUSH2 0x5F3 JUMPI DUP1 PUSH1 0x1F LT PUSH2 0x5CA JUMPI PUSH2 0x100 DUP1 DUP4 SLOAD DIV MUL DUP4 MSTORE SWAP2 PUSH1 0x20 ADD SWAP2 PUSH2 0x5F3 JUMP JUMPDEST DUP3 ADD SWAP2 SWAP1 PUSH0 MSTORE PUSH1 0x20 PUSH0 KECCAK256 SWAP1 JUMPDEST DUP2 SLOAD DUP2 MSTORE SWAP1 PUSH1 0x1 ADD SWAP1 PUSH1 0x20 ADD DUP1 DUP4 GT PUSH2 0x5D6 JUMPI DUP3 SWAP1 SUB PUSH1 0x1F AND DUP3 ADD SWAP2 JUMPDEST POP POP POP POP POP DUP2 MSTORE PUSH1 0x20 ADD PUSH1 0x2 DUP3 ADD SLOAD DUP2 MSTORE PUSH1 0x20 ADD PUSH1 0x3 DUP3 ADD SLOAD DUP2 MSTORE PUSH1 0x20 ADD PUSH1 0x4 DUP3 ADD SLOAD DUP2 MSTORE PUSH1 0x20 ADD PUSH1 0x5 DUP3 ADD PUSH0 SWAP1 SLOAD SWAP1 PUSH2 0x100 EXP SWAP1 DIV PUSH1 0xFF AND ISZERO ISZERO ISZERO ISZERO DUP2 MSTORE POP POP SWAP1 POP DUP1 PUSH0 ADD MLOAD DUP2 PUSH1 0x20 ADD MLOAD DUP3 PUSH1 0x40 ADD MLOAD DUP4 PUSH1 0x60 ADD MLOAD DUP5 PUSH1 0x80 ADD MLOAD SWAP7 POP SWAP7 POP SWAP7 POP SWAP7 POP SWAP7 POP POP POP SWAP2 SWAP4 SWAP6 SWAP1 SWAP3 SWAP5 POP JUMP JUMPDEST PUSH1 0x3 PUSH0 SWAP1 SLOAD SWAP1 PUSH2 0x100 EXP SWAP1 DIV PUSH20 0xFFFFFFFFFFFFFFFFFFFFFFFFFFFFFFFFFFFFFFFF AND PUSH20 0xFFFFFFFFFFFFFFFFFFFFFFFFFFFFFFFFFFFFFFFF AND CALLER PUSH20 0xFFFFFFFFFFFFFFFFFFFFFFFFFFFFFFFFFFFFFFFF AND EQ PUSH2 0x6F2 JUMPI PUSH1 0x40 MLOAD PUSH32 0x8C379A000000000000000000000000000000000000000000000000000000000 DUP2 MSTORE PUSH1 0x4 ADD PUSH2 0x6E9 SWAP1 PUSH2 0x1BC7 JUMP JUMPDEST PUSH1 0x40 MLOAD DUP1 SWAP2 SUB SWAP1 REVERT JUMPDEST PUSH0 SELFBALANCE SWAP1 POP PUSH0 DUP2 GT PUSH2 0x738 JUMPI PUSH1 0x40 MLOAD PUSH32 0x8C379A000000000000000000000000000000000000000000000000000000000 DUP2 MSTORE PUSH1 0x4 ADD PUSH2 0x72F SWAP1 PUSH2 0x1C2F JUMP JUMPDEST PUSH1 0x40 MLOAD DUP1 SWAP2 SUB SWAP1 REVERT JUMPDEST PUSH1 0x3 PUSH0 SWAP1 SLOAD SWAP1 PUSH2 0x100 EXP SWAP1 DIV PUSH20 0xFFFFFFFFFFFFFFFFFFFFFFFFFFFFFFFFFFFFFFFF AND PUSH20 0xFFFFFFFFFFFFFFFFFFFFFFFFFFFFFFFFFFFFFFFF AND PUSH2 0x8FC DUP3 SWAP1 DUP2 ISZERO MUL SWAP1 PUSH1 0x40 MLOAD PUSH0 PUSH1 0x40 MLOAD DUP1 DUP4 SUB DUP2 DUP6 DUP9 DUP9 CALL SWAP4 POP POP POP POP ISZERO DUP1 ISZERO PUSH2 0x79C JUMPI RETURNDATASIZE PUSH0 PUSH0 RETURNDATACOPY RETURNDATASIZE PUSH0 REVERT JUMPDEST POP POP JUMP JUMPDEST PUSH1 0x3 PUSH0 SWAP1 SLOAD SWAP1 PUSH2 0x100 EXP SWAP1 DIV PUSH20 0xFFFFFFFFFFFFFFFFFFFFFFFFFFFFFFFFFFFFFFFF AND PUSH20 0xFFFFFFFFFFFFFFFFFFFFFFFFFFFFFFFFFFFFFFFF AND CALLER PUSH20 0xFFFFFFFFFFFFFFFFFFFFFFFFFFFFFFFFFFFFFFFF AND EQ PUSH2 0x82F JUMPI PUSH1 0x40 MLOAD PUSH32 0x8C379A000000000000000000000000000000000000000000000000000000000 DUP2 MSTORE PUSH1 0x4 ADD PUSH2 0x826 SWAP1 PUSH2 0x1BC7 JUMP JUMPDEST PUSH1 0x40 MLOAD DUP1 SWAP2 SUB SWAP1 REVERT JUMPDEST DUP6 PUSH1 0x1 PUSH0 DUP3 DUP2 MSTORE PUSH1 0x20 ADD SWAP1 DUP2 MSTORE PUSH1 0x20 ADD PUSH0 KECCAK256 PUSH1 0x5 ADD PUSH0 SWAP1 SLOAD SWAP1 PUSH2 0x100 EXP SWAP1 DIV PUSH1 0xFF AND PUSH2 0x890 JUMPI PUSH1 0x40 MLOAD PUSH32 0x8C379A000000000000000000000000000000000000000000000000000000000 DUP2 MSTORE PUSH1 0x4 ADD PUSH2 0x887 SWAP1 PUSH2 0x1B02 JUMP JUMPDEST PUSH1 0x40 MLOAD DUP1 SWAP2 SUB SWAP1 REVERT JUMPDEST DUP6 DUP6 PUSH1 0x1 PUSH0 DUP11 DUP2 MSTORE PUSH1 0x20 ADD SWAP1 DUP2 MSTORE PUSH1 0x20 ADD PUSH0 KECCAK256 PUSH1 0x1 ADD SWAP2 DUP3 PUSH2 0x8B3 SWAP3 SWAP2 SWAP1 PUSH2 0x1E24 JUMP JUMPDEST POP DUP4 PUSH1 0x1 PUSH0 DUP10 DUP2 MSTORE PUSH1 0x20 ADD SWAP1 DUP2 MSTORE PUSH1 0x20 ADD PUSH0 KECCAK256 PUSH1 0x2 ADD DUP2 SWAP1 SSTORE POP DUP3 PUSH1 0x1 PUSH0 DUP10 DUP2 MSTORE PUSH1 0x20 ADD SWAP1 DUP2 MSTORE PUSH1 0x20 ADD PUSH0 KECCAK256 PUSH1 0x3 ADD DUP2 SWAP1 SSTORE POP DUP2 PUSH1 0x1 PUSH0 DUP10 DUP2 MSTORE PUSH1 0x20 ADD SWAP1 DUP2 MSTORE PUSH1 0x20 ADD PUSH0 KECCAK256 PUSH1 0x4 ADD DUP2 SWAP1 SSTORE POP DUP7 PUSH32 0x607557A00B0EF90BC9C8E9453CB94C555E187555E111468CD2CB2BE930FC1615 DUP8 DUP8 DUP6 PUSH1 0x40 MLOAD PUSH2 0x933 SWAP4 SWAP3 SWAP2 SWAP1 PUSH2 0x1F2B JUMP JUMPDEST PUSH1 0x40 MLOAD DUP1 SWAP2 SUB SWAP1 LOG2 POP POP POP POP POP POP POP JUMP JUMPDEST PUSH1 0x2 SLOAD DUP2 JUMP JUMPDEST PUSH0 PUSH0 CALLER PUSH20 0xFFFFFFFFFFFFFFFFFFFFFFFFFFFFFFFFFFFFFFFF AND PUSH20 0xFFFFFFFFFFFFFFFFFFFFFFFFFFFFFFFFFFFFFFFF AND DUP2 MSTORE PUSH1 0x20 ADD SWAP1 DUP2 MSTORE PUSH1 0x20 ADD PUSH0 KECCAK256 PUSH1 0x6 ADD PUSH0 SWAP1 SLOAD SWAP1 PUSH2 0x100 EXP SWAP1 DIV PUSH1 0xFF AND ISZERO PUSH2 0x9D6 JUMPI PUSH1 0x40 MLOAD PUSH32 0x8C379A000000000000000000000000000000000000000000000000000000000 DUP2 MSTORE PUSH1 0x4 ADD PUSH2 0x9CD SWAP1 PUSH2 0x1FA5 JUMP JUMPDEST PUSH1 0x40 MLOAD DUP1 SWAP2 SUB SWAP1 REVERT JUMPDEST PUSH0 PUSH1 0x1 SWAP1 POP PUSH0 PUSH1 0x64 SWAP1 POP PUSH0 PUSH1 0xA SWAP1 POP PUSH0 PUSH1 0x5 SWAP1 POP PUSH1 0x40 MLOAD DUP1 PUSH1 0xE0 ADD PUSH1 0x40 MSTORE DUP1 DUP8 DUP8 DUP1 DUP1 PUSH1 0x1F ADD PUSH1 0x20 DUP1 SWAP2 DIV MUL PUSH1 0x20 ADD PUSH1 0x40 MLOAD SWAP1 DUP2 ADD PUSH1 0x40 MSTORE DUP1 SWAP4 SWAP3 SWAP2 SWAP1 DUP2 DUP2 MSTORE PUSH1 0x20 ADD DUP4 DUP4 DUP1 DUP3 DUP5 CALLDATACOPY PUSH0 DUP2 DUP5 ADD MSTORE PUSH1 0x1F NOT PUSH1 0x1F DUP3 ADD AND SWAP1 POP DUP1 DUP4 ADD SWAP3 POP POP POP POP POP POP POP DUP2 MSTORE PUSH1 0x20 ADD DUP6 DUP2 MSTORE PUSH1 0x20 ADD DUP5 DUP2 MSTORE PUSH1 0x20 ADD DUP4 DUP2 MSTORE PUSH1 0x20 ADD DUP3 DUP2 MSTORE PUSH1 0x20 ADD PUSH0 DUP2 MSTORE PUSH1 0x20 ADD PUSH1 0x1 ISZERO ISZERO DUP2 MSTORE POP PUSH0 PUSH0 CALLER PUSH20 0xFFFFFFFFFFFFFFFFFFFFFFFFFFFFFFFFFFFFFFFF AND PUSH20 0xFFFFFFFFFFFFFFFFFFFFFFFFFFFFFFFFFFFFFFFF AND DUP2 MSTORE PUSH1 0x20 ADD SWAP1 DUP2 MSTORE PUSH1 0x20 ADD PUSH0 KECCAK256 PUSH0 DUP3 ADD MLOAD DUP2 PUSH0 ADD SWAP1 DUP2 PUSH2 0xAB2 SWAP2 SWAP1 PUSH2 0x1FC3 JUMP JUMPDEST POP PUSH1 0x20 DUP3 ADD MLOAD DUP2 PUSH1 0x1 ADD SSTORE PUSH1 0x40 DUP3 ADD MLOAD DUP2 PUSH1 0x2 ADD SSTORE PUSH1 0x60 DUP3 ADD MLOAD DUP2 PUSH1 0x3 ADD SSTORE PUSH1 0x80 DUP3 ADD MLOAD DUP2 PUSH1 0x4 ADD SSTORE PUSH1 0xA0 DUP3 ADD MLOAD DUP2 PUSH1 0x5 ADD SSTORE PUSH1 0xC0 DUP3 ADD MLOAD DUP2 PUSH1 0x6 ADD PUSH0 PUSH2 0x100 EXP DUP2 SLOAD DUP2 PUSH1 0xFF MUL NOT AND SWAP1 DUP4 ISZERO ISZERO MUL OR SWAP1 SSTORE POP SWAP1 POP POP CALLER PUSH20 0xFFFFFFFFFFFFFFFFFFFFFFFFFFFFFFFFFFFFFFFF AND PUSH32 0x8761958357B74CB0DA99450C1A85E61427B9C7D7B208EE29B019670FABDA4F0B DUP8 DUP8 PUSH1 0x40 MLOAD PUSH2 0xB4F SWAP3 SWAP2 SWAP1 PUSH2 0x2092 JUMP JUMPDEST PUSH1 0x40 MLOAD DUP1 SWAP2 SUB SWAP1 LOG2 POP POP POP POP POP POP JUMP JUMPDEST PUSH1 0x3 PUSH0 SWAP1 SLOAD SWAP1 PUSH2 0x100 EXP SWAP1 DIV PUSH20 0xFFFFFFFFFFFFFFFFFFFFFFFFFFFFFFFFFFFFFFFF AND DUP2 JUMP JUMPDEST PUSH0 PUSH1 0x20 MSTORE DUP1 PUSH0 MSTORE PUSH1 0x40 PUSH0 KECCAK256 PUSH0 SWAP2 POP SWAP1 POP DUP1 PUSH0 ADD DUP1 SLOAD PUSH2 0xBA2 SWAP1 PUSH2 0x1B4D JUMP JUMPDEST DUP1 PUSH1 0x1F ADD PUSH1 0x20 DUP1 SWAP2 DIV MUL PUSH1 0x20 ADD PUSH1 0x40 MLOAD SWAP1 DUP2 ADD PUSH1 0x40 MSTORE DUP1 SWAP3 SWAP2 SWAP1 DUP2 DUP2 MSTORE PUSH1 0x20 ADD DUP3 DUP1 SLOAD PUSH2 0xBCE SWAP1 PUSH2 0x1B4D JUMP JUMPDEST DUP1 ISZERO PUSH2 0xC19 JUMPI DUP1 PUSH1 0x1F LT PUSH2 0xBF0 JUMPI PUSH2 0x100 DUP1 DUP4 SLOAD DIV MUL DUP4 MSTORE SWAP2 PUSH1 0x20 ADD SWAP2 PUSH2 0xC19 JUMP JUMPDEST DUP3 ADD SWAP2 SWAP1 PUSH0 MSTORE PUSH1 0x20 PUSH0 KECCAK256 SWAP1 JUMPDEST DUP2 SLOAD DUP2 MSTORE SWAP1 PUSH1 0x1 ADD SWAP1 PUSH1 0x20 ADD DUP1 DUP4 GT PUSH2 0xBFC JUMPI DUP3 SWAP1 SUB PUSH1 0x1F AND DUP3 ADD SWAP2 JUMPDEST POP POP POP POP POP SWAP1 DUP1 PUSH1 0x1 ADD SLOAD SWAP1 DUP1 PUSH1 0x2 ADD SLOAD SWAP1 DUP1 PUSH1 0x3 ADD SLOAD SWAP1 DUP1 PUSH1 0x4 ADD SLOAD SWAP1 DUP1 PUSH1 0x5 ADD SLOAD SWAP1 DUP1 PUSH1 0x6 ADD PUSH0 SWAP1 SLOAD SWAP1 PUSH2 0x100 EXP SWAP1 DIV PUSH1 0xFF AND SWAP1 POP DUP8 JUMP JUMPDEST PUSH1 0x1 PUSH1 0x20 MSTORE DUP1 PUSH0 MSTORE PUSH1 0x40 PUSH0 KECCAK256 PUSH0 SWAP2 POP SWAP1 POP DUP1 PUSH0 ADD SLOAD SWAP1 DUP1 PUSH1 0x1 ADD DUP1 SLOAD PUSH2 0xC78 SWAP1 PUSH2 0x1B4D JUMP JUMPDEST DUP1 PUSH1 0x1F ADD PUSH1 0x20 DUP1 SWAP2 DIV MUL PUSH1 0x20 ADD PUSH1 0x40 MLOAD SWAP1 DUP2 ADD PUSH1 0x40 MSTORE DUP1 SWAP3 SWAP2 SWAP1 DUP2 DUP2 MSTORE PUSH1 0x20 ADD DUP3 DUP1 SLOAD PUSH2 0xCA4 SWAP1 PUSH2 0x1B4D JUMP JUMPDEST DUP1 ISZERO PUSH2 0xCEF JUMPI DUP1 PUSH1 0x1F LT PUSH2 0xCC6 JUMPI PUSH2 0x100 DUP1 DUP4 SLOAD DIV MUL DUP4 MSTORE SWAP2 PUSH1 0x20 ADD SWAP2 PUSH2 0xCEF JUMP JUMPDEST DUP3 ADD SWAP2 SWAP1 PUSH0 MSTORE PUSH1 0x20 PUSH0 KECCAK256 SWAP1 JUMPDEST DUP2 SLOAD DUP2 MSTORE SWAP1 PUSH1 0x1 ADD SWAP1 PUSH1 0x20 ADD DUP1 DUP4 GT PUSH2 0xCD2 JUMPI DUP3 SWAP1 SUB PUSH1 0x1F AND DUP3 ADD SWAP2 JUMPDEST POP POP POP POP POP SWAP1 DUP1 PUSH1 0x2 ADD SLOAD SWAP1 DUP1 PUSH1 0x3 ADD SLOAD SWAP1 DUP1 PUSH1 0x4 ADD SLOAD SWAP1 DUP1 PUSH1 0x5 ADD PUSH0 SWAP1 SLOAD SWAP1 PUSH2 0x100 EXP SWAP1 DIV PUSH1 0xFF AND SWAP1 POP DUP7 JUMP JUMPDEST PUSH0 PUSH0 CALLER PUSH20 0xFFFFFFFFFFFFFFFFFFFFFFFFFFFFFFFFFFFFFFFF AND PUSH20 0xFFFFFFFFFFFFFFFFFFFFFFFFFFFFFFFFFFFFFFFF AND DUP2 MSTORE PUSH1 0x20 ADD SWAP1 DUP2 MSTORE PUSH1 0x20 ADD PUSH0 KECCAK256 PUSH1 0x6 ADD PUSH0 SWAP1 SLOAD SWAP1 PUSH2 0x100 EXP SWAP1 DIV PUSH1 0xFF AND PUSH2 0xDA8 JUMPI PUSH1 0x40 MLOAD PUSH32 0x8C379A000000000000000000000000000000000000000000000000000000000 DUP2 MSTORE PUSH1 0x4 ADD PUSH2 0xD9F SWAP1 PUSH2 0x199F JUMP JUMPDEST PUSH1 0x40 MLOAD DUP1 SWAP2 SUB SWAP1 REVERT JUMPDEST DUP1 PUSH1 0x1 PUSH0 DUP3 DUP2 MSTORE PUSH1 0x20 ADD SWAP1 DUP2 MSTORE PUSH1 0x20 ADD PUSH0 KECCAK256 PUSH1 0x5 ADD PUSH0 SWAP1 SLOAD SWAP1 PUSH2 0x100 EXP SWAP1 DIV PUSH1 0xFF AND PUSH2 0xE09 JUMPI PUSH1 0x40 MLOAD PUSH32 0x8C379A000000000000000000000000000000000000000000000000000000000 DUP2 MSTORE PUSH1 0x4 ADD PUSH2 0xE00 SWAP1 PUSH2 0x1B02 JUMP JUMPDEST PUSH1 0x40 MLOAD DUP1 SWAP2 SUB SWAP1 REVERT JUMPDEST PUSH0 PUSH1 0x1 PUSH0 DUP5 DUP2 MSTORE PUSH1 0x20 ADD SWAP1 DUP2 MSTORE PUSH1 0x20 ADD PUSH0 KECCAK256 PUSH1 0x40 MLOAD DUP1 PUSH1 0xC0 ADD PUSH1 0x40 MSTORE SWAP1 DUP2 PUSH0 DUP3 ADD SLOAD DUP2 MSTORE PUSH1 0x20 ADD PUSH1 0x1 DUP3 ADD DUP1 SLOAD PUSH2 0xE3F SWAP1 PUSH2 0x1B4D JUMP JUMPDEST DUP1 PUSH1 0x1F ADD PUSH1 0x20 DUP1 SWAP2 DIV MUL PUSH1 0x20 ADD PUSH1 0x40 MLOAD SWAP1 DUP2 ADD PUSH1 0x40 MSTORE DUP1 SWAP3 SWAP2 SWAP1 DUP2 DUP2 MSTORE PUSH1 0x20 ADD DUP3 DUP1 SLOAD PUSH2 0xE6B SWAP1 PUSH2 0x1B4D JUMP JUMPDEST DUP1 ISZERO PUSH2 0xEB6 JUMPI DUP1 PUSH1 0x1F LT PUSH2 0xE8D JUMPI PUSH2 0x100 DUP1 DUP4 SLOAD DIV MUL DUP4 MSTORE SWAP2 PUSH1 0x20 ADD SWAP2 PUSH2 0xEB6 JUMP JUMPDEST DUP3 ADD SWAP2 SWAP1 PUSH0 MSTORE PUSH1 0x20 PUSH0 KECCAK256 SWAP1 JUMPDEST DUP2 SLOAD DUP2 MSTORE SWAP1 PUSH1 0x1 ADD SWAP1 PUSH1 0x20 ADD DUP1 DUP4 GT PUSH2 0xE99 JUMPI DUP3 SWAP1 SUB PUSH1 0x1F AND DUP3 ADD SWAP2 JUMPDEST POP POP POP POP POP DUP2 MSTORE PUSH1 0x20 ADD PUSH1 0x2 DUP3 ADD SLOAD DUP2 MSTORE PUSH1 0x20 ADD PUSH1 0x3 DUP3 ADD SLOAD DUP2 MSTORE PUSH1 0x20 ADD PUSH1 0x4 DUP3 ADD SLOAD DUP2 MSTORE PUSH1 0x20 ADD PUSH1 0x5 DUP3 ADD PUSH0 SWAP1 SLOAD SWAP1 PUSH2 0x100 EXP SWAP1 DIV PUSH1 0xFF AND ISZERO ISZERO ISZERO ISZERO DUP2 MSTORE POP POP SWAP1 POP DUP1 PUSH1 0x80 ADD MLOAD CALLVALUE LT ISZERO PUSH2 0xF40 JUMPI PUSH1 0x40 MLOAD PUSH32 0x8C379A000000000000000000000000000000000000000000000000000000000 DUP2 MSTORE PUSH1 0x4 ADD PUSH2 0xF37 SWAP1 PUSH2 0x2124 JUMP JUMPDEST PUSH1 0x40 MLOAD DUP1 SWAP2 SUB SWAP1 REVERT JUMPDEST PUSH0 PUSH0 PUSH0 CALLER PUSH20 0xFFFFFFFFFFFFFFFFFFFFFFFFFFFFFFFFFFFFFFFF AND PUSH20 0xFFFFFFFFFFFFFFFFFFFFFFFFFFFFFFFFFFFFFFFF AND DUP2 MSTORE PUSH1 0x20 ADD SWAP1 DUP2 MSTORE PUSH1 0x20 ADD PUSH0 KECCAK256 SWAP1 POP DUP2 PUSH1 0x40 ADD MLOAD DUP2 PUSH1 0x3 ADD PUSH0 DUP3 DUP3 SLOAD PUSH2 0xF96 SWAP2 SWAP1 PUSH2 0x1A52 JUMP JUMPDEST SWAP3 POP POP DUP2 SWAP1 SSTORE POP DUP2 PUSH1 0x60 ADD MLOAD DUP2 PUSH1 0x4 ADD PUSH0 DUP3 DUP3 SLOAD PUSH2 0xFB4 SWAP2 SWAP1 PUSH2 0x1A52 JUMP JUMPDEST SWAP3 POP POP DUP2 SWAP1 SSTORE POP CALLER PUSH20 0xFFFFFFFFFFFFFFFFFFFFFFFFFFFFFFFFFFFFFFFF AND PUSH32 0x3851CC2C7466ED3ADBE97D3763E0BF81511E17AE75184ADB0646294D9E2698AA DUP6 DUP5 PUSH1 0x20 ADD MLOAD PUSH1 0x40 MLOAD PUSH2 0x1007 SWAP3 SWAP2 SWAP1 PUSH2 0x2142 JUMP JUMPDEST PUSH1 0x40 MLOAD DUP1 SWAP2 SUB SWAP1 LOG2 DUP2 PUSH1 0x80 ADD MLOAD CALLVALUE GT ISZERO PUSH2 0x106F JUMPI CALLER PUSH20 0xFFFFFFFFFFFFFFFFFFFFFFFFFFFFFFFFFFFFFFFF AND PUSH2 0x8FC DUP4 PUSH1 0x80 ADD MLOAD CALLVALUE PUSH2 0x1045 SWAP2 SWAP1 PUSH2 0x1A85 JUMP JUMPDEST SWAP1 DUP2 ISZERO MUL SWAP1 PUSH1 0x40 MLOAD PUSH0 PUSH1 0x40 MLOAD DUP1 DUP4 SUB DUP2 DUP6 DUP9 DUP9 CALL SWAP4 POP POP POP POP ISZERO DUP1 ISZERO PUSH2 0x106D JUMPI RETURNDATASIZE PUSH0 PUSH0 RETURNDATACOPY RETURNDATASIZE PUSH0 REVERT JUMPDEST POP JUMPDEST POP POP POP POP JUMP JUMPDEST PUSH1 0x3 PUSH0 SWAP1 SLOAD SWAP1 PUSH2 0x100 EXP SWAP1 DIV PUSH20 0xFFFFFFFFFFFFFFFFFFFFFFFFFFFFFFFFFFFFFFFF AND PUSH20 0xFFFFFFFFFFFFFFFFFFFFFFFFFFFFFFFFFFFFFFFF AND CALLER PUSH20 0xFFFFFFFFFFFFFFFFFFFFFFFFFFFFFFFFFFFFFFFF AND EQ PUSH2 0x1104 JUMPI PUSH1 0x40 MLOAD PUSH32 0x8C379A000000000000000000000000000000000000000000000000000000000 DUP2 MSTORE PUSH1 0x4 ADD PUSH2 0x10FB SWAP1 PUSH2 0x1BC7 JUMP JUMPDEST PUSH1 0x40 MLOAD DUP1 SWAP2 SUB SWAP1 REVERT JUMPDEST PUSH0 PUSH1 0x2 SLOAD SWAP1 POP PUSH1 0x40 MLOAD DUP1 PUSH1 0xC0 ADD PUSH1 0x40 MSTORE DUP1 DUP3 DUP2 MSTORE PUSH1 0x20 ADD DUP8 DUP8 DUP1 DUP1 PUSH1 0x1F ADD PUSH1 0x20 DUP1 SWAP2 DIV MUL PUSH1 0x20 ADD PUSH1 0x40 MLOAD SWAP1 DUP2 ADD PUSH1 0x40 MSTORE DUP1 SWAP4 SWAP3 SWAP2 SWAP1 DUP2 DUP2 MSTORE PUSH1 0x20 ADD DUP4 DUP4 DUP1 DUP3 DUP5 CALLDATACOPY PUSH0 DUP2 DUP5 ADD MSTORE PUSH1 0x1F NOT PUSH1 0x1F DUP3 ADD AND SWAP1 POP DUP1 DUP4 ADD SWAP3 POP POP POP POP POP POP POP DUP2 MSTORE PUSH1 0x20 ADD DUP6 DUP2 MSTORE PUSH1 0x20 ADD DUP5 DUP2 MSTORE PUSH1 0x20 ADD DUP4 DUP2 MSTORE PUSH1 0x20 ADD PUSH1 0x1 ISZERO ISZERO DUP2 MSTORE POP PUSH1 0x1 PUSH0 DUP4 DUP2 MSTORE PUSH1 0x20 ADD SWAP1 DUP2 MSTORE PUSH1 0x20 ADD PUSH0 KECCAK256 PUSH0 DUP3 ADD MLOAD DUP2 PUSH0 ADD SSTORE PUSH1 0x20 DUP3 ADD MLOAD DUP2 PUSH1 0x1 ADD SWAP1 DUP2 PUSH2 0x11AB SWAP2 SWAP1 PUSH2 0x1FC3 JUMP JUMPDEST POP PUSH1 0x40 DUP3 ADD MLOAD DUP2 PUSH1 0x2 ADD SSTORE PUSH1 0x60 DUP3 ADD MLOAD DUP2 PUSH1 0x3 ADD SSTORE PUSH1 0x80 DUP3 ADD MLOAD DUP2 PUSH1 0x4 ADD SSTORE PUSH1 0xA0 DUP3 ADD MLOAD DUP2 PUSH1 0x5 ADD PUSH0 PUSH2 0x100 EXP DUP2 SLOAD DUP2 PUSH1 0xFF MUL NOT AND SWAP1 DUP4 ISZERO ISZERO MUL OR SWAP1 SSTORE POP SWAP1 POP POP PUSH1 0x1 PUSH1 0x2 PUSH0 DUP3 DUP3 SLOAD PUSH2 0x11FE SWAP2 SWAP1 PUSH2 0x1A52 JUMP JUMPDEST SWAP3 POP POP DUP2 SWAP1 SSTORE POP DUP1 PUSH32 0x444434676A57F70F8479401C50FB4ADD3E31052F88F4B35E155B7759E5968E5 DUP8 DUP8 DUP6 PUSH1 0x40 MLOAD PUSH2 0x1239 SWAP4 SWAP3 SWAP2 SWAP1 PUSH2 0x1F2B JUMP JUMPDEST PUSH1 0x40 MLOAD DUP1 SWAP2 SUB SWAP1 LOG2 POP POP POP POP POP POP JUMP JUMPDEST PUSH1 0x60 PUSH0 PUSH0 PUSH0 PUSH0 PUSH0 PUSH0 PUSH0 CALLER PUSH20 0xFFFFFFFFFFFFFFFFFFFFFFFFFFFFFFFFFFFFFFFF AND PUSH20 0xFFFFFFFFFFFFFFFFFFFFFFFFFFFFFFFFFFFFFFFF AND DUP2 MSTORE PUSH1 0x20 ADD SWAP1 DUP2 MSTORE PUSH1 0x20 ADD PUSH0 KECCAK256 PUSH1 0x6 ADD PUSH0 SWAP1 SLOAD SWAP1 PUSH2 0x100 EXP SWAP1 DIV PUSH1 0xFF AND PUSH2 0x12DB JUMPI PUSH1 0x40 MLOAD PUSH32 0x8C379A000000000000000000000000000000000000000000000000000000000 DUP2 MSTORE PUSH1 0x4 ADD PUSH2 0x12D2 SWAP1 PUSH2 0x199F JUMP JUMPDEST PUSH1 0x40 MLOAD DUP1 SWAP2 SUB SWAP1 REVERT JUMPDEST PUSH0 PUSH0 PUSH0 CALLER PUSH20 0xFFFFFFFFFFFFFFFFFFFFFFFFFFFFFFFFFFFFFFFF AND PUSH20 0xFFFFFFFFFFFFFFFFFFFFFFFFFFFFFFFFFFFFFFFF AND DUP2 MSTORE PUSH1 0x20 ADD SWAP1 DUP2 MSTORE PUSH1 0x20 ADD PUSH0 KECCAK256 PUSH1 0x40 MLOAD DUP1 PUSH1 0xE0 ADD PUSH1 0x40 MSTORE SWAP1 DUP2 PUSH0 DUP3 ADD DUP1 SLOAD PUSH2 0x1332 SWAP1 PUSH2 0x1B4D JUMP JUMPDEST DUP1 PUSH1 0x1F ADD PUSH1 0x20 DUP1 SWAP2 DIV MUL PUSH1 0x20 ADD PUSH1 0x40 MLOAD SWAP1 DUP2 ADD PUSH1 0x40 MSTORE DUP1 SWAP3 SWAP2 SWAP1 DUP2 DUP2 MSTORE PUSH1 0x20 ADD DUP3 DUP1 SLOAD PUSH2 0x135E SWAP1 PUSH2 0x1B4D JUMP JUMPDEST DUP1 ISZERO PUSH2 0x13A9 JUMPI DUP1 PUSH1 0x1F LT PUSH2 0x1380 JUMPI PUSH2 0x100 DUP1 DUP4 SLOAD DIV MUL DUP4 MSTORE SWAP2 PUSH1 0x20 ADD SWAP2 PUSH2 0x13A9 JUMP JUMPDEST DUP3 ADD SWAP2 SWAP1 PUSH0 MSTORE PUSH1 0x20 PUSH0 KECCAK256 SWAP1 JUMPDEST DUP2 SLOAD DUP2 MSTORE SWAP1 PUSH1 0x1 ADD SWAP1 PUSH1 0x20 ADD DUP1 DUP4 GT PUSH2 0x138C JUMPI DUP3 SWAP1 SUB PUSH1 0x1F AND DUP3 ADD SWAP2 JUMPDEST POP POP POP POP POP DUP2 MSTORE PUSH1 0x20 ADD PUSH1 0x1 DUP3 ADD SLOAD DUP2 MSTORE PUSH1 0x20 ADD PUSH1 0x2 DUP3 ADD SLOAD DUP2 MSTORE PUSH1 0x20 ADD PUSH1 0x3 DUP3 ADD SLOAD DUP2 MSTORE PUSH1 0x20 ADD PUSH1 0x4 DUP3 ADD SLOAD DUP2 MSTORE PUSH1 0x20 ADD PUSH1 0x5 DUP3 ADD SLOAD DUP2 MSTORE PUSH1 0x20 ADD PUSH1 0x6 DUP3 ADD PUSH0 SWAP1 SLOAD SWAP1 PUSH2 0x100 EXP SWAP1 DIV PUSH1 0xFF AND ISZERO ISZERO ISZERO ISZERO DUP2 MSTORE POP POP SWAP1 POP DUP1 PUSH0 ADD MLOAD DUP2 PUSH1 0x20 ADD MLOAD DUP3 PUSH1 0x40 ADD MLOAD DUP4 PUSH1 0x60 ADD MLOAD DUP5 PUSH1 0x80 ADD MLOAD DUP6 PUSH1 0xA0 ADD MLOAD SWAP7 POP SWAP7 POP SWAP7 POP SWAP7 POP SWAP7 POP SWAP7 POP POP SWAP1 SWAP2 SWAP3 SWAP4 SWAP5 SWAP6 JUMP JUMPDEST PUSH0 PUSH0 REVERT JUMPDEST PUSH0 PUSH0 REVERT JUMPDEST PUSH0 DUP2 SWAP1 POP SWAP2 SWAP1 POP JUMP JUMPDEST PUSH2 0x144C DUP2 PUSH2 0x143A JUMP JUMPDEST DUP2 EQ PUSH2 0x1456 JUMPI PUSH0 PUSH0 REVERT JUMPDEST POP JUMP JUMPDEST PUSH0 DUP2 CALLDATALOAD SWAP1 POP PUSH2 0x1467 DUP2 PUSH2 0x1443 JUMP JUMPDEST SWAP3 SWAP2 POP POP JUMP JUMPDEST PUSH0 PUSH1 0x20 DUP3 DUP5 SUB SLT ISZERO PUSH2 0x1482 JUMPI PUSH2 0x1481 PUSH2 0x1432 JUMP JUMPDEST JUMPDEST PUSH0 PUSH2 0x148F DUP5 DUP3 DUP6 ADD PUSH2 0x1459 JUMP JUMPDEST SWAP2 POP POP SWAP3 SWAP2 POP POP JUMP JUMPDEST PUSH2 0x14A1 DUP2 PUSH2 0x143A JUMP JUMPDEST DUP3 MSTORE POP POP JUMP JUMPDEST PUSH0 DUP2 MLOAD SWAP1 POP SWAP2 SWAP1 POP JUMP JUMPDEST PUSH0 DUP3 DUP3 MSTORE PUSH1 0x20 DUP3 ADD SWAP1 POP SWAP3 SWAP2 POP POP JUMP JUMPDEST DUP3 DUP2 DUP4 MCOPY PUSH0 DUP4 DUP4 ADD MSTORE POP POP POP JUMP JUMPDEST PUSH0 PUSH1 0x1F NOT PUSH1 0x1F DUP4 ADD AND SWAP1 POP SWAP2 SWAP1 POP JUMP JUMPDEST PUSH0 PUSH2 0x14E9 DUP3 PUSH2 0x14A7 JUMP JUMPDEST PUSH2 0x14F3 DUP2 DUP6 PUSH2 0x14B1 JUMP JUMPDEST SWAP4 POP PUSH2 0x1503 DUP2 DUP6 PUSH1 0x20 DUP7 ADD PUSH2 0x14C1 JUMP JUMPDEST PUSH2 0x150C DUP2 PUSH2 0x14CF JUMP JUMPDEST DUP5 ADD SWAP2 POP POP SWAP3 SWAP2 POP POP JUMP JUMPDEST PUSH0 PUSH1 0xA0 DUP3 ADD SWAP1 POP PUSH2 0x152A PUSH0 DUP4 ADD DUP9 PUSH2 0x1498 JUMP JUMPDEST DUP2 DUP2 SUB PUSH1 0x20 DUP4 ADD MSTORE PUSH2 0x153C DUP2 DUP8 PUSH2 0x14DF JUMP JUMPDEST SWAP1 POP PUSH2 0x154B PUSH1 0x40 DUP4 ADD DUP7 PUSH2 0x1498 JUMP JUMPDEST PUSH2 0x1558 PUSH1 0x60 DUP4 ADD DUP6 PUSH2 0x1498 JUMP JUMPDEST PUSH2 0x1565 PUSH1 0x80 DUP4 ADD DUP5 PUSH2 0x1498 JUMP JUMPDEST SWAP7 SWAP6 POP POP POP POP POP POP JUMP JUMPDEST PUSH0 PUSH0 REVERT JUMPDEST PUSH0 PUSH0 REVERT JUMPDEST PUSH0 PUSH0 REVERT JUMPDEST PUSH0 PUSH0 DUP4 PUSH1 0x1F DUP5 ADD SLT PUSH2 0x1590 JUMPI PUSH2 0x158F PUSH2 0x156F JUMP JUMPDEST JUMPDEST DUP3 CALLDATALOAD SWAP1 POP PUSH8 0xFFFFFFFFFFFFFFFF DUP2 GT ISZERO PUSH2 0x15AD JUMPI PUSH2 0x15AC PUSH2 0x1573 JUMP JUMPDEST JUMPDEST PUSH1 0x20 DUP4 ADD SWAP2 POP DUP4 PUSH1 0x1 DUP3 MUL DUP4 ADD GT ISZERO PUSH2 0x15C9 JUMPI PUSH2 0x15C8 PUSH2 0x1577 JUMP JUMPDEST JUMPDEST SWAP3 POP SWAP3 SWAP1 POP JUMP JUMPDEST PUSH0 PUSH0 PUSH0 PUSH0 PUSH0 PUSH0 PUSH1 0xA0 DUP8 DUP10 SUB SLT ISZERO PUSH2 0x15EA JUMPI PUSH2 0x15E9 PUSH2 0x1432 JUMP JUMPDEST JUMPDEST PUSH0 PUSH2 0x15F7 DUP10 DUP3 DUP11 ADD PUSH2 0x1459 JUMP JUMPDEST SWAP7 POP POP PUSH1 0x20 DUP8 ADD CALLDATALOAD PUSH8 0xFFFFFFFFFFFFFFFF DUP2 GT ISZERO PUSH2 0x1618 JUMPI PUSH2 0x1617 PUSH2 0x1436 JUMP JUMPDEST JUMPDEST PUSH2 0x1624 DUP10 DUP3 DUP11 ADD PUSH2 0x157B JUMP JUMPDEST SWAP6 POP SWAP6 POP POP PUSH1 0x40 PUSH2 0x1637 DUP10 DUP3 DUP11 ADD PUSH2 0x1459 JUMP JUMPDEST SWAP4 POP POP PUSH1 0x60 PUSH2 0x1648 DUP10 DUP3 DUP11 ADD PUSH2 0x1459 JUMP JUMPDEST SWAP3 POP POP PUSH1 0x80 PUSH2 0x1659 DUP10 DUP3 DUP11 ADD PUSH2 0x1459 JUMP JUMPDEST SWAP2 POP POP SWAP3 SWAP6 POP SWAP3 SWAP6 POP SWAP3 SWAP6 JUMP JUMPDEST PUSH0 PUSH1 0x20 DUP3 ADD SWAP1 POP PUSH2 0x1679 PUSH0 DUP4 ADD DUP5 PUSH2 0x1498 JUMP JUMPDEST SWAP3 SWAP2 POP POP JUMP JUMPDEST PUSH0 PUSH0 PUSH1 0x20 DUP4 DUP6 SUB SLT ISZERO PUSH2 0x1695 JUMPI PUSH2 0x1694 PUSH2 0x1432 JUMP JUMPDEST JUMPDEST PUSH0 DUP4 ADD CALLDATALOAD PUSH8 0xFFFFFFFFFFFFFFFF DUP2 GT ISZERO PUSH2 0x16B2 JUMPI PUSH2 0x16B1 PUSH2 0x1436 JUMP JUMPDEST JUMPDEST PUSH2 0x16BE DUP6 DUP3 DUP7 ADD PUSH2 0x157B JUMP JUMPDEST SWAP3 POP SWAP3 POP POP SWAP3 POP SWAP3 SWAP1 POP JUMP JUMPDEST PUSH0 PUSH20 0xFFFFFFFFFFFFFFFFFFFFFFFFFFFFFFFFFFFFFFFF DUP3 AND SWAP1 POP SWAP2 SWAP1 POP JUMP JUMPDEST PUSH0 PUSH2 0x16F3 DUP3 PUSH2 0x16CA JUMP JUMPDEST SWAP1 POP SWAP2 SWAP1 POP JUMP JUMPDEST PUSH2 0x1703 DUP2 PUSH2 0x16E9 JUMP JUMPDEST DUP3 MSTORE POP POP JUMP JUMPDEST PUSH0 PUSH1 0x20 DUP3 ADD SWAP1 POP PUSH2 0x171C PUSH0 DUP4 ADD DUP5 PUSH2 0x16FA JUMP JUMPDEST SWAP3 SWAP2 POP POP JUMP JUMPDEST PUSH2 0x172B DUP2 PUSH2 0x16E9 JUMP JUMPDEST DUP2 EQ PUSH2 0x1735 JUMPI PUSH0 PUSH0 REVERT JUMPDEST POP JUMP JUMPDEST PUSH0 DUP2 CALLDATALOAD SWAP1 POP PUSH2 0x1746 DUP2 PUSH2 0x1722 JUMP JUMPDEST SWAP3 SWAP2 POP POP JUMP JUMPDEST PUSH0 PUSH1 0x20 DUP3 DUP5 SUB SLT ISZERO PUSH2 0x1761 JUMPI PUSH2 0x1760 PUSH2 0x1432 JUMP JUMPDEST JUMPDEST PUSH0 PUSH2 0x176E DUP5 DUP3 DUP6 ADD PUSH2 0x1738 JUMP JUMPDEST SWAP2 POP POP SWAP3 SWAP2 POP POP JUMP JUMPDEST PUSH0 DUP2 ISZERO ISZERO SWAP1 POP SWAP2 SWAP1 POP JUMP JUMPDEST PUSH2 0x178B DUP2 PUSH2 0x1777 JUMP JUMPDEST DUP3 MSTORE POP POP JUMP JUMPDEST PUSH0 PUSH1 0xE0 DUP3 ADD SWAP1 POP DUP2 DUP2 SUB PUSH0 DUP4 ADD MSTORE PUSH2 0x17A9 DUP2 DUP11 PUSH2 0x14DF JUMP JUMPDEST SWAP1 POP PUSH2 0x17B8 PUSH1 0x20 DUP4 ADD DUP10 PUSH2 0x1498 JUMP JUMPDEST PUSH2 0x17C5 PUSH1 0x40 DUP4 ADD DUP9 PUSH2 0x1498 JUMP JUMPDEST PUSH2 0x17D2 PUSH1 0x60 DUP4 ADD DUP8 PUSH2 0x1498 JUMP JUMPDEST PUSH2 0x17DF PUSH1 0x80 DUP4 ADD DUP7 PUSH2 0x1498 JUMP JUMPDEST PUSH2 0x17EC PUSH1 0xA0 DUP4 ADD DUP6 PUSH2 0x1498 JUMP JUMPDEST PUSH2 0x17F9 PUSH1 0xC0 DUP4 ADD DUP5 PUSH2 0x1782 JUMP JUMPDEST SWAP9 SWAP8 POP POP POP POP POP POP POP POP JUMP JUMPDEST PUSH0 PUSH1 0xC0 DUP3 ADD SWAP1 POP PUSH2 0x1818 PUSH0 DUP4 ADD DUP10 PUSH2 0x1498 JUMP JUMPDEST DUP2 DUP2 SUB PUSH1 0x20 DUP4 ADD MSTORE PUSH2 0x182A DUP2 DUP9 PUSH2 0x14DF JUMP JUMPDEST SWAP1 POP PUSH2 0x1839 PUSH1 0x40 DUP4 ADD DUP8 PUSH2 0x1498 JUMP JUMPDEST PUSH2 0x1846 PUSH1 0x60 DUP4 ADD DUP7 PUSH2 0x1498 JUMP JUMPDEST PUSH2 0x1853 PUSH1 0x80 DUP4 ADD DUP6 PUSH2 0x1498 JUMP JUMPDEST PUSH2 0x1860 PUSH1 0xA0 DUP4 ADD DUP5 PUSH2 0x1782 JUMP JUMPDEST SWAP8 SWAP7 POP POP POP POP POP POP POP JUMP JUMPDEST PUSH0 PUSH0 PUSH0 PUSH0 PUSH0 PUSH1 0x80 DUP7 DUP9 SUB SLT ISZERO PUSH2 0x1884 JUMPI PUSH2 0x1883 PUSH2 0x1432 JUMP JUMPDEST JUMPDEST PUSH0 DUP7 ADD CALLDATALOAD PUSH8 0xFFFFFFFFFFFFFFFF DUP2 GT ISZERO PUSH2 0x18A1 JUMPI PUSH2 0x18A0 PUSH2 0x1436 JUMP JUMPDEST JUMPDEST PUSH2 0x18AD DUP9 DUP3 DUP10 ADD PUSH2 0x157B JUMP JUMPDEST SWAP6 POP SWAP6 POP POP PUSH1 0x20 PUSH2 0x18C0 DUP9 DUP3 DUP10 ADD PUSH2 0x1459 JUMP JUMPDEST SWAP4 POP POP PUSH1 0x40 PUSH2 0x18D1 DUP9 DUP3 DUP10 ADD PUSH2 0x1459 JUMP JUMPDEST SWAP3 POP POP PUSH1 0x60 PUSH2 0x18E2 DUP9 DUP3 DUP10 ADD PUSH2 0x1459 JUMP JUMPDEST SWAP2 POP POP SWAP3 SWAP6 POP SWAP3 SWAP6 SWAP1 SWAP4 POP JUMP JUMPDEST PUSH0 PUSH1 0xC0 DUP3 ADD SWAP1 POP DUP2 DUP2 SUB PUSH0 DUP4 ADD MSTORE PUSH2 0x1907 DUP2 DUP10 PUSH2 0x14DF JUMP JUMPDEST SWAP1 POP PUSH2 0x1916 PUSH1 0x20 DUP4 ADD DUP9 PUSH2 0x1498 JUMP JUMPDEST PUSH2 0x1923 PUSH1 0x40 DUP4 ADD DUP8 PUSH2 0x1498 JUMP JUMPDEST PUSH2 0x1930 PUSH1 0x60 DUP4 ADD DUP7 PUSH2 0x1498 JUMP JUMPDEST PUSH2 0x193D PUSH1 0x80 DUP4 ADD DUP6 PUSH2 0x1498 JUMP JUMPDEST PUSH2 0x194A PUSH1 0xA0 DUP4 ADD DUP5 PUSH2 0x1498 JUMP JUMPDEST SWAP8 SWAP7 POP POP POP POP POP POP POP JUMP JUMPDEST PUSH32 0x43686172616374657220646F6573206E6F742065786973742E00000000000000 PUSH0 DUP3 ADD MSTORE POP JUMP JUMPDEST PUSH0 PUSH2 0x1989 PUSH1 0x19 DUP4 PUSH2 0x14B1 JUMP JUMPDEST SWAP2 POP PUSH2 0x1994 DUP3 PUSH2 0x1955 JUMP JUMPDEST PUSH1 0x20 DUP3 ADD SWAP1 POP SWAP2 SWAP1 POP JUMP JUMPDEST PUSH0 PUSH1 0x20 DUP3 ADD SWAP1 POP DUP2 DUP2 SUB PUSH0 DUP4 ADD MSTORE PUSH2 0x19B6 DUP2 PUSH2 0x197D JUMP JUMPDEST SWAP1 POP SWAP2 SWAP1 POP JUMP JUMPDEST PUSH32 0x496E73756666696369656E742045544820666F7220747261696E696E672E0000 PUSH0 DUP3 ADD MSTORE POP JUMP JUMPDEST PUSH0 PUSH2 0x19F1 PUSH1 0x1E DUP4 PUSH2 0x14B1 JUMP JUMPDEST SWAP2 POP PUSH2 0x19FC DUP3 PUSH2 0x19BD JUMP JUMPDEST PUSH1 0x20 DUP3 ADD SWAP1 POP SWAP2 SWAP1 POP JUMP JUMPDEST PUSH0 PUSH1 0x20 DUP3 ADD SWAP1 POP DUP2 DUP2 SUB PUSH0 DUP4 ADD MSTORE PUSH2 0x1A1E DUP2 PUSH2 0x19E5 JUMP JUMPDEST SWAP1 POP SWAP2 SWAP1 POP JUMP JUMPDEST PUSH32 0x4E487B7100000000000000000000000000000000000000000000000000000000 PUSH0 MSTORE PUSH1 0x11 PUSH1 0x4 MSTORE PUSH1 0x24 PUSH0 REVERT JUMPDEST PUSH0 PUSH2 0x1A5C DUP3 PUSH2 0x143A JUMP JUMPDEST SWAP2 POP PUSH2 0x1A67 DUP4 PUSH2 0x143A JUMP JUMPDEST SWAP3 POP DUP3 DUP3 ADD SWAP1 POP DUP1 DUP3 GT ISZERO PUSH2 0x1A7F JUMPI PUSH2 0x1A7E PUSH2 0x1A25 JUMP JUMPDEST JUMPDEST SWAP3 SWAP2 POP POP JUMP JUMPDEST PUSH0 PUSH2 0x1A8F DUP3 PUSH2 0x143A JUMP JUMPDEST SWAP2 POP PUSH2 0x1A9A DUP4 PUSH2 0x143A JUMP JUMPDEST SWAP3 POP DUP3 DUP3 SUB SWAP1 POP DUP2 DUP2 GT ISZERO PUSH2 0x1AB2 JUMPI PUSH2 0x1AB1 PUSH2 0x1A25 JUMP JUMPDEST JUMPDEST SWAP3 SWAP2 POP POP JUMP JUMPDEST PUSH32 0x4974656D20646F6573206E6F742065786973742E000000000000000000000000 PUSH0 DUP3 ADD MSTORE POP JUMP JUMPDEST PUSH0 PUSH2 0x1AEC PUSH1 0x14 DUP4 PUSH2 0x14B1 JUMP JUMPDEST SWAP2 POP PUSH2 0x1AF7 DUP3 PUSH2 0x1AB8 JUMP JUMPDEST PUSH1 0x20 DUP3 ADD SWAP1 POP SWAP2 SWAP1 POP JUMP JUMPDEST PUSH0 PUSH1 0x20 DUP3 ADD SWAP1 POP DUP2 DUP2 SUB PUSH0 DUP4 ADD MSTORE PUSH2 0x1B19 DUP2 PUSH2 0x1AE0 JUMP JUMPDEST SWAP1 POP SWAP2 SWAP1 POP JUMP JUMPDEST PUSH32 0x4E487B7100000000000000000000000000000000000000000000000000000000 PUSH0 MSTORE PUSH1 0x22 PUSH1 0x4 MSTORE PUSH1 0x24 PUSH0 REVERT JUMPDEST PUSH0 PUSH1 0x2 DUP3 DIV SWAP1 POP PUSH1 0x1 DUP3 AND DUP1 PUSH2 0x1B64 JUMPI PUSH1 0x7F DUP3 AND SWAP2 POP JUMPDEST PUSH1 0x20 DUP3 LT DUP2 SUB PUSH2 0x1B77 JUMPI PUSH2 0x1B76 PUSH2 0x1B20 JUMP JUMPDEST JUMPDEST POP SWAP2 SWAP1 POP JUMP JUMPDEST PUSH32 0x43616C6C6572206973206E6F7420746865206F776E65722E0000000000000000 PUSH0 DUP3 ADD MSTORE POP JUMP JUMPDEST PUSH0 PUSH2 0x1BB1 PUSH1 0x18 DUP4 PUSH2 0x14B1 JUMP JUMPDEST SWAP2 POP PUSH2 0x1BBC DUP3 PUSH2 0x1B7D JUMP JUMPDEST PUSH1 0x20 DUP3 ADD SWAP1 POP SWAP2 SWAP1 POP JUMP JUMPDEST PUSH0 PUSH1 0x20 DUP3 ADD SWAP1 POP DUP2 DUP2 SUB PUSH0 DUP4 ADD MSTORE PUSH2 0x1BDE DUP2 PUSH2 0x1BA5 JUMP JUMPDEST SWAP1 POP SWAP2 SWAP1 POP JUMP JUMPDEST PUSH32 0x4E6F2045544820746F2077697468647261772E00000000000000000000000000 PUSH0 DUP3 ADD MSTORE POP JUMP JUMPDEST PUSH0 PUSH2 0x1C19 PUSH1 0x13 DUP4 PUSH2 0x14B1 JUMP JUMPDEST SWAP2 POP PUSH2 0x1C24 DUP3 PUSH2 0x1BE5 JUMP JUMPDEST PUSH1 0x20 DUP3 ADD SWAP1 POP SWAP2 SWAP1 POP JUMP JUMPDEST PUSH0 PUSH1 0x20 DUP3 ADD SWAP1 POP DUP2 DUP2 SUB PUSH0 DUP4 ADD MSTORE PUSH2 0x1C46 DUP2 PUSH2 0x1C0D JUMP JUMPDEST SWAP1 POP SWAP2 SWAP1 POP JUMP JUMPDEST PUSH0 DUP3 SWAP1 POP SWAP3 SWAP2 POP POP JUMP JUMPDEST PUSH32 0x4E487B7100000000000000000000000000000000000000000000000000000000 PUSH0 MSTORE PUSH1 0x41 PUSH1 0x4 MSTORE PUSH1 0x24 PUSH0 REVERT JUMPDEST PUSH0 DUP2 SWAP1 POP DUP2 PUSH0 MSTORE PUSH1 0x20 PUSH0 KECCAK256 SWAP1 POP SWAP2 SWAP1 POP JUMP JUMPDEST PUSH0 PUSH1 0x20 PUSH1 0x1F DUP4 ADD DIV SWAP1 POP SWAP2 SWAP1 POP JUMP JUMPDEST PUSH0 DUP3 DUP3 SHL SWAP1 POP SWAP3 SWAP2 POP POP JUMP JUMPDEST PUSH0 PUSH1 0x8 DUP4 MUL PUSH2 0x1CE0 PUSH32 0xFFFFFFFFFFFFFFFFFFFFFFFFFFFFFFFFFFFFFFFFFFFFFFFFFFFFFFFFFFFFFFFF DUP3 PUSH2 0x1CA5 JUMP JUMPDEST PUSH2 0x1CEA DUP7 DUP4 PUSH2 0x1CA5 JUMP JUMPDEST SWAP6 POP DUP1 NOT DUP5 AND SWAP4 POP DUP1 DUP7 AND DUP5 OR SWAP3 POP POP POP SWAP4 SWAP3 POP POP POP JUMP JUMPDEST PUSH0 DUP2 SWAP1 POP SWAP2 SWAP1 POP JUMP JUMPDEST PUSH0 PUSH2 0x1D25 PUSH2 0x1D20 PUSH2 0x1D1B DUP5 PUSH2 0x143A JUMP JUMPDEST PUSH2 0x1D02 JUMP JUMPDEST PUSH2 0x143A JUMP JUMPDEST SWAP1 POP SWAP2 SWAP1 POP JUMP JUMPDEST PUSH0 DUP2 SWAP1 POP SWAP2 SWAP1 POP JUMP JUMPDEST PUSH2 0x1D3E DUP4 PUSH2 0x1D0B JUMP JUMPDEST PUSH2 0x1D52 PUSH2 0x1D4A DUP3 PUSH2 0x1D2C JUMP JUMPDEST DUP5 DUP5 SLOAD PUSH2 0x1CB1 JUMP JUMPDEST DUP3 SSTORE POP POP POP POP JUMP JUMPDEST PUSH0 PUSH0 SWAP1 POP SWAP1 JUMP JUMPDEST PUSH2 0x1D69 PUSH2 0x1D5A JUMP JUMPDEST PUSH2 0x1D74 DUP2 DUP5 DUP5 PUSH2 0x1D35 JUMP JUMPDEST POP POP POP JUMP JUMPDEST JUMPDEST DUP2 DUP2 LT ISZERO PUSH2 0x1D97 JUMPI PUSH2 0x1D8C PUSH0 DUP3 PUSH2 0x1D61 JUMP JUMPDEST PUSH1 0x1 DUP2 ADD SWAP1 POP PUSH2 0x1D7A JUMP JUMPDEST POP POP JUMP JUMPDEST PUSH1 0x1F DUP3 GT ISZERO PUSH2 0x1DDC JUMPI PUSH2 0x1DAD DUP2 PUSH2 0x1C84 JUMP JUMPDEST PUSH2 0x1DB6 DUP5 PUSH2 0x1C96 JUMP JUMPDEST DUP2 ADD PUSH1 0x20 DUP6 LT ISZERO PUSH2 0x1DC5 JUMPI DUP2 SWAP1 POP JUMPDEST PUSH2 0x1DD9 PUSH2 0x1DD1 DUP6 PUSH2 0x1C96 JUMP JUMPDEST DUP4 ADD DUP3 PUSH2 0x1D79 JUMP JUMPDEST POP POP JUMPDEST POP POP POP JUMP JUMPDEST PUSH0 DUP3 DUP3 SHR SWAP1 POP SWAP3 SWAP2 POP POP JUMP JUMPDEST PUSH0 PUSH2 0x1DFC PUSH0 NOT DUP5 PUSH1 0x8 MUL PUSH2 0x1DE1 JUMP JUMPDEST NOT DUP1 DUP4 AND SWAP2 POP POP SWAP3 SWAP2 POP POP JUMP JUMPDEST PUSH0 PUSH2 0x1E14 DUP4 DUP4 PUSH2 0x1DED JUMP JUMPDEST SWAP2 POP DUP3 PUSH1 0x2 MUL DUP3 OR SWAP1 POP SWAP3 SWAP2 POP POP JUMP JUMPDEST PUSH2 0x1E2E DUP4 DUP4 PUSH2 0x1C4D JUMP JUMPDEST PUSH8 0xFFFFFFFFFFFFFFFF DUP2 GT ISZERO PUSH2 0x1E47 JUMPI PUSH2 0x1E46 PUSH2 0x1C57 JUMP JUMPDEST JUMPDEST PUSH2 0x1E51 DUP3 SLOAD PUSH2 0x1B4D JUMP JUMPDEST PUSH2 0x1E5C DUP3 DUP3 DUP6 PUSH2 0x1D9B JUMP JUMPDEST PUSH0 PUSH1 0x1F DUP4 GT PUSH1 0x1 DUP2 EQ PUSH2 0x1E89 JUMPI PUSH0 DUP5 ISZERO PUSH2 0x1E77 JUMPI DUP3 DUP8 ADD CALLDATALOAD SWAP1 POP JUMPDEST PUSH2 0x1E81 DUP6 DUP3 PUSH2 0x1E09 JUMP JUMPDEST DUP7 SSTORE POP PUSH2 0x1EE8 JUMP JUMPDEST PUSH1 0x1F NOT DUP5 AND PUSH2 0x1E97 DUP7 PUSH2 0x1C84 JUMP JUMPDEST PUSH0 JUMPDEST DUP3 DUP2 LT ISZERO PUSH2 0x1EBE JUMPI DUP5 DUP10 ADD CALLDATALOAD DUP3 SSTORE PUSH1 0x1 DUP3 ADD SWAP2 POP PUSH1 0x20 DUP6 ADD SWAP5 POP PUSH1 0x20 DUP2 ADD SWAP1 POP PUSH2 0x1E99 JUMP JUMPDEST DUP7 DUP4 LT ISZERO PUSH2 0x1EDB JUMPI DUP5 DUP10 ADD CALLDATALOAD PUSH2 0x1ED7 PUSH1 0x1F DUP10 AND DUP3 PUSH2 0x1DED JUMP JUMPDEST DUP4 SSTORE POP JUMPDEST PUSH1 0x1 PUSH1 0x2 DUP9 MUL ADD DUP9 SSTORE POP POP POP JUMPDEST POP POP POP POP POP POP POP JUMP JUMPDEST DUP3 DUP2 DUP4 CALLDATACOPY PUSH0 DUP4 DUP4 ADD MSTORE POP POP POP JUMP JUMPDEST PUSH0 PUSH2 0x1F0A DUP4 DUP6 PUSH2 0x14B1 JUMP JUMPDEST SWAP4 POP PUSH2 0x1F17 DUP4 DUP6 DUP5 PUSH2 0x1EF1 JUMP JUMPDEST PUSH2 0x1F20 DUP4 PUSH2 0x14CF JUMP JUMPDEST DUP5 ADD SWAP1 POP SWAP4 SWAP3 POP POP POP JUMP JUMPDEST PUSH0 PUSH1 0x40 DUP3 ADD SWAP1 POP DUP2 DUP2 SUB PUSH0 DUP4 ADD MSTORE PUSH2 0x1F44 DUP2 DUP6 DUP8 PUSH2 0x1EFF JUMP JUMPDEST SWAP1 POP PUSH2 0x1F53 PUSH1 0x20 DUP4 ADD DUP5 PUSH2 0x1498 JUMP JUMPDEST SWAP5 SWAP4 POP POP POP POP JUMP JUMPDEST PUSH32 0x43686172616374657220616C7265616479206578697374732E00000000000000 PUSH0 DUP3 ADD MSTORE POP JUMP JUMPDEST PUSH0 PUSH2 0x1F8F PUSH1 0x19 DUP4 PUSH2 0x14B1 JUMP JUMPDEST SWAP2 POP PUSH2 0x1F9A DUP3 PUSH2 0x1F5B JUMP JUMPDEST PUSH1 0x20 DUP3 ADD SWAP1 POP SWAP2 SWAP1 POP JUMP JUMPDEST PUSH0 PUSH1 0x20 DUP3 ADD SWAP1 POP DUP2 DUP2 SUB PUSH0 DUP4 ADD MSTORE PUSH2 0x1FBC DUP2 PUSH2 0x1F83 JUMP JUMPDEST SWAP1 POP SWAP2 SWAP1 POP JUMP JUMPDEST PUSH2 0x1FCC DUP3 PUSH2 0x14A7 JUMP JUMPDEST PUSH8 0xFFFFFFFFFFFFFFFF DUP2 GT ISZERO PUSH2 0x1FE5 JUMPI PUSH2 0x1FE4 PUSH2 0x1C57 JUMP JUMPDEST JUMPDEST PUSH2 0x1FEF DUP3 SLOAD PUSH2 0x1B4D JUMP JUMPDEST PUSH2 0x1FFA DUP3 DUP3 DUP6 PUSH2 0x1D9B JUMP JUMPDEST PUSH0 PUSH1 0x20 SWAP1 POP PUSH1 0x1F DUP4 GT PUSH1 0x1 DUP2 EQ PUSH2 0x202B JUMPI PUSH0 DUP5 ISZERO PUSH2 0x2019 JUMPI DUP3 DUP8 ADD MLOAD SWAP1 POP JUMPDEST PUSH2 0x2023 DUP6 DUP3 PUSH2 0x1E09 JUMP JUMPDEST DUP7 SSTORE POP PUSH2 0x208A JUMP JUMPDEST PUSH1 0x1F NOT DUP5 AND PUSH2 0x2039 DUP7 PUSH2 0x1C84 JUMP JUMPDEST PUSH0 JUMPDEST DUP3 DUP2 LT ISZERO PUSH2 0x2060 JUMPI DUP5 DUP10 ADD MLOAD DUP3 SSTORE PUSH1 0x1 DUP3 ADD SWAP2 POP PUSH1 0x20 DUP6 ADD SWAP5 POP PUSH1 0x20 DUP2 ADD SWAP1 POP PUSH2 0x203B JUMP JUMPDEST DUP7 DUP4 LT ISZERO PUSH2 0x207D JUMPI DUP5 DUP10 ADD MLOAD PUSH2 0x2079 PUSH1 0x1F DUP10 AND DUP3 PUSH2 0x1DED JUMP JUMPDEST DUP4 SSTORE POP JUMPDEST PUSH1 0x1 PUSH1 0x2 DUP9 MUL ADD DUP9 SSTORE POP POP POP JUMPDEST POP POP POP POP POP POP JUMP JUMPDEST PUSH0 PUSH1 0x20 DUP3 ADD SWAP1 POP DUP2 DUP2 SUB PUSH0 DUP4 ADD MSTORE PUSH2 0x20AB DUP2 DUP5 DUP7 PUSH2 0x1EFF JUMP JUMPDEST SWAP1 POP SWAP4 SWAP3 POP POP POP JUMP JUMPDEST PUSH32 0x496E73756666696369656E742045544820746F20707572636861736520697465 PUSH0 DUP3 ADD MSTORE PUSH32 0x6D2E000000000000000000000000000000000000000000000000000000000000 PUSH1 0x20 DUP3 ADD MSTORE POP JUMP JUMPDEST PUSH0 PUSH2 0x210E PUSH1 0x22 DUP4 PUSH2 0x14B1 JUMP JUMPDEST SWAP2 POP PUSH2 0x2119 DUP3 PUSH2 0x20B4 JUMP JUMPDEST PUSH1 0x40 DUP3 ADD SWAP1 POP SWAP2 SWAP1 POP JUMP JUMPDEST PUSH0 PUSH1 0x20 DUP3 ADD SWAP1 POP DUP2 DUP2 SUB PUSH0 DUP4 ADD MSTORE PUSH2 0x213B DUP2 PUSH2 0x2102 JUMP JUMPDEST SWAP1 POP SWAP2 SWAP1 POP JUMP JUMPDEST PUSH0 PUSH1 0x40 DUP3 ADD SWAP1 POP PUSH2 0x2155 PUSH0 DUP4 ADD DUP6 PUSH2 0x1498 JUMP JUMPDEST DUP2 DUP2 SUB PUSH1 0x20 DUP4 ADD MSTORE PUSH2 0x2167 DUP2 DUP5 PUSH2 0x14DF JUMP JUMPDEST SWAP1 POP SWAP4 SWAP3 POP POP POP JUMP INVALID LOG2 PUSH5 0x6970667358 0x22 SLT KECCAK256 0xED 0xDD DUP11 0xB6 DUP12 MOD ADDMOD 0xEA MUL SELFBALANCE CALLDATACOPY SWAP5 0xF6 0xE SWAP8 MOD MSIZE 0xE9 0xBF PUSH17 0x1B4A28F50B65C6C762E3075364736F6C63 NUMBER STOP ADDMOD 0x1E STOP CALLER "
				},
				"gasEstimates": {
					"creation": {
						"codeDepositCost": "1722800",
						"executionCost": "48190",
						"totalCost": "1770990"
					},
					"external": {
						"addItem(string,uint256,uint256,uint256)": "infinite",
						"characters(address)": "infinite",
						"createCharacter(string)": "infinite",
						"getItem(uint256)": "infinite",
						"getMyCharacter()": "infinite",
						"items(uint256)": "infinite",
						"nextItemId()": "2514",
						"owner()": "2508",
						"purchaseItem(uint256)": "infinite",
						"train()": "infinite",
						"updateItem(uint256,string,uint256,uint256,uint256)": "infinite",
						"withdraw()": "infinite"
					}
				},
				"methodIdentifiers": {
					"addItem(string,uint256,uint256,uint256)": "dc0dd677",
					"characters(address)": "97c2114f",
					"createCharacter(string)": "7e6cc17f",
					"getItem(uint256)": "3129e773",
					"getMyCharacter()": "fdb5949e",
					"items(uint256)": "bfb231d2",
					"nextItemId()": "6a868974",
					"owner()": "8da5cb5b",
					"purchaseItem(uint256)": "d38ea5bf",
					"train()": "1b404fd8",
					"updateItem(uint256,string,uint256,uint256,uint256)": "51768e4d",
					"withdraw()": "3ccfd60b"
				}
			},
			"storageLayout": {
				"storage": [
					{
						"astId": 38,
						"contract": "FinalExam/RPG_1.sol:DecentralizedRPG",
						"label": "characters",
						"offset": 0,
						"slot": "0",
						"type": "t_mapping(t_address,t_struct(Character)18_storage)"
					},
					{
						"astId": 44,
						"contract": "FinalExam/RPG_1.sol:DecentralizedRPG",
						"label": "items",
						"offset": 0,
						"slot": "1",
						"type": "t_mapping(t_uint256,t_struct(Item)32_storage)"
					},
					{
						"astId": 47,
						"contract": "FinalExam/RPG_1.sol:DecentralizedRPG",
						"label": "nextItemId",
						"offset": 0,
						"slot": "2",
						"type": "t_uint256"
					},
					{
						"astId": 50,
						"contract": "FinalExam/RPG_1.sol:DecentralizedRPG",
						"label": "owner",
						"offset": 0,
						"slot": "3",
						"type": "t_address"
					}
				],
				"types": {
					"t_address": {
						"encoding": "inplace",
						"label": "address",
						"numberOfBytes": "20"
					},
					"t_bool": {
						"encoding": "inplace",
						"label": "bool",
						"numberOfBytes": "1"
					},
					"t_mapping(t_address,t_struct(Character)18_storage)": {
						"encoding": "mapping",
						"key": "t_address",
						"label": "mapping(address => struct DecentralizedRPG.Character)",
						"numberOfBytes": "32",
						"value": "t_struct(Character)18_storage"
					},
					"t_mapping(t_uint256,t_struct(Item)32_storage)": {
						"encoding": "mapping",
						"key": "t_uint256",
						"label": "mapping(uint256 => struct DecentralizedRPG.Item)",
						"numberOfBytes": "32",
						"value": "t_struct(Item)32_storage"
					},
					"t_string_storage": {
						"encoding": "bytes",
						"label": "string",
						"numberOfBytes": "32"
					},
					"t_struct(Character)18_storage": {
						"encoding": "inplace",
						"label": "struct DecentralizedRPG.Character",
						"members": [
							{
								"astId": 5,
								"contract": "FinalExam/RPG_1.sol:DecentralizedRPG",
								"label": "name",
								"offset": 0,
								"slot": "0",
								"type": "t_string_storage"
							},
							{
								"astId": 7,
								"contract": "FinalExam/RPG_1.sol:DecentralizedRPG",
								"label": "level",
								"offset": 0,
								"slot": "1",
								"type": "t_uint256"
							},
							{
								"astId": 9,
								"contract": "FinalExam/RPG_1.sol:DecentralizedRPG",
								"label": "hp",
								"offset": 0,
								"slot": "2",
								"type": "t_uint256"
							},
							{
								"astId": 11,
								"contract": "FinalExam/RPG_1.sol:DecentralizedRPG",
								"label": "atk",
								"offset": 0,
								"slot": "3",
								"type": "t_uint256"
							},
							{
								"astId": 13,
								"contract": "FinalExam/RPG_1.sol:DecentralizedRPG",
								"label": "def",
								"offset": 0,
								"slot": "4",
								"type": "t_uint256"
							},
							{
								"astId": 15,
								"contract": "FinalExam/RPG_1.sol:DecentralizedRPG",
								"label": "exp",
								"offset": 0,
								"slot": "5",
								"type": "t_uint256"
							},
							{
								"astId": 17,
								"contract": "FinalExam/RPG_1.sol:DecentralizedRPG",
								"label": "exists",
								"offset": 0,
								"slot": "6",
								"type": "t_bool"
							}
						],
						"numberOfBytes": "224"
					},
					"t_struct(Item)32_storage": {
						"encoding": "inplace",
						"label": "struct DecentralizedRPG.Item",
						"members": [
							{
								"astId": 21,
								"contract": "FinalExam/RPG_1.sol:DecentralizedRPG",
								"label": "id",
								"offset": 0,
								"slot": "0",
								"type": "t_uint256"
							},
							{
								"astId": 23,
								"contract": "FinalExam/RPG_1.sol:DecentralizedRPG",
								"label": "name",
								"offset": 0,
								"slot": "1",
								"type": "t_string_storage"
							},
							{
								"astId": 25,
								"contract": "FinalExam/RPG_1.sol:DecentralizedRPG",
								"label": "atkBoost",
								"offset": 0,
								"slot": "2",
								"type": "t_uint256"
							},
							{
								"astId": 27,
								"contract": "FinalExam/RPG_1.sol:DecentralizedRPG",
								"label": "defBoost",
								"offset": 0,
								"slot": "3",
								"type": "t_uint256"
							},
							{
								"astId": 29,
								"contract": "FinalExam/RPG_1.sol:DecentralizedRPG",
								"label": "price",
								"offset": 0,
								"slot": "4",
								"type": "t_uint256"
							},
							{
								"astId": 31,
								"contract": "FinalExam/RPG_1.sol:DecentralizedRPG",
								"label": "exists",
								"offset": 0,
								"slot": "5",
								"type": "t_bool"
							}
						],
						"numberOfBytes": "192"
					},
					"t_uint256": {
						"encoding": "inplace",
						"label": "uint256",
						"numberOfBytes": "32"
					}
				}
			},
			"userdoc": {
				"events": {
					"CharacterCreated(address,string)": {
						"notice": "캐릭터가 생성될 때 발생"
					},
					"CharacterLeveledUp(address,uint256)": {
						"notice": "캐릭터가 훈련하여 레벨업할 때 발생"
					},
					"ItemAdded(uint256,string,uint256)": {
						"notice": "새로운 아이템이 등록될 때 발생"
					},
					"ItemPurchased(address,uint256,string)": {
						"notice": "아이템이 구매될 때 발생"
					},
					"ItemUpdated(uint256,string,uint256)": {
						"notice": "아이템 정보가 수정될 때 발생"
					}
				},
				"kind": "user",
				"methods": {
					"addItem(string,uint256,uint256,uint256)": {
						"notice": "새로운 아이템을 등록합니다. 오너만 호출 가능합니다."
					},
					"characters(address)": {
						"notice": "캐릭터 소유자를 기준으로 매핑 (계정 주소 → Character)"
					},
					"createCharacter(string)": {
						"notice": "새로운 캐릭터를 생성합니다."
					},
					"getItem(uint256)": {
						"notice": "등록된 아이템 목록을 조회합니다."
					},
					"getMyCharacter()": {
						"notice": "캐릭터 정보 조회 (배열이 아닌 매핑으로 public 선언했으므로 getter가 자동 생성됨)내 캐릭터의 기본 정보를 조회합니다."
					},
					"items(uint256)": {
						"notice": "아이템 ID를 기준으로 매핑 (아이템 ID → Item)"
					},
					"nextItemId()": {
						"notice": "새로운 아이템 ID를 발급하기 위한 카운터"
					},
					"owner()": {
						"notice": "컨트랙트 관리자 (오너) 주소"
					},
					"purchaseItem(uint256)": {
						"notice": "특정 아이템을 구매하여 캐릭터의 능력치를 강화합니다."
					},
					"train()": {
						"notice": "캐릭터를 훈련하여 레벨업합니다. 일정량의 Ether를 지불해야 합니다."
					},
					"updateItem(uint256,string,uint256,uint256,uint256)": {
						"notice": "기존 아이템 정보를 수정합니다. 오너만 호출 가능합니다."
					},
					"withdraw()": {
						"notice": "컨트랙트에 누적된 이더를 오너가 인출합니다."
					}
				},
				"notice": "이 컨트랙트는 플레이어가 캐릭터를 생성하고, 훈련(레벨업)하거나 아이템을 구매하여 능력치를 강화할 수 있는 기능을 제공합니다.",
				"version": 1
			}
		}
	}
}