{
	"Final_Project/IndianPoker_2.sol": {
		"IndianPoker_2": {
			"abi": [
				{
					"inputs": [],
					"stateMutability": "nonpayable",
					"type": "constructor"
				},
				{
					"anonymous": false,
					"inputs": [
						{
							"indexed": true,
							"internalType": "address",
							"name": "player",
							"type": "address"
						},
						{
							"indexed": false,
							"internalType": "uint256",
							"name": "allInAmount",
							"type": "uint256"
						}
					],
					"name": "AllIn",
					"type": "event"
				},
				{
					"anonymous": false,
					"inputs": [
						{
							"indexed": true,
							"internalType": "address",
							"name": "player",
							"type": "address"
						},
						{
							"indexed": false,
							"internalType": "uint256",
							"name": "amount",
							"type": "uint256"
						}
					],
					"name": "BetPlaced",
					"type": "event"
				},
				{
					"anonymous": false,
					"inputs": [
						{
							"indexed": true,
							"internalType": "address",
							"name": "player",
							"type": "address"
						},
						{
							"indexed": false,
							"internalType": "uint256",
							"name": "amount",
							"type": "uint256"
						}
					],
					"name": "Called",
					"type": "event"
				},
				{
					"anonymous": false,
					"inputs": [
						{
							"indexed": true,
							"internalType": "address",
							"name": "player",
							"type": "address"
						},
						{
							"indexed": false,
							"internalType": "uint256",
							"name": "chips",
							"type": "uint256"
						},
						{
							"indexed": false,
							"internalType": "uint256",
							"name": "amountEth",
							"type": "uint256"
						}
					],
					"name": "ChipsExchanged",
					"type": "event"
				},
				{
					"anonymous": false,
					"inputs": [
						{
							"indexed": true,
							"internalType": "address",
							"name": "player",
							"type": "address"
						},
						{
							"indexed": false,
							"internalType": "uint256",
							"name": "amountEth",
							"type": "uint256"
						},
						{
							"indexed": false,
							"internalType": "uint256",
							"name": "chips",
							"type": "uint256"
						}
					],
					"name": "ChipsPurchased",
					"type": "event"
				},
				{
					"anonymous": false,
					"inputs": [
						{
							"indexed": true,
							"internalType": "address",
							"name": "player",
							"type": "address"
						}
					],
					"name": "Folded",
					"type": "event"
				},
				{
					"anonymous": false,
					"inputs": [
						{
							"indexed": true,
							"internalType": "address",
							"name": "player",
							"type": "address"
						}
					],
					"name": "GameJoined",
					"type": "event"
				},
				{
					"anonymous": false,
					"inputs": [
						{
							"indexed": false,
							"internalType": "uint8",
							"name": "card0",
							"type": "uint8"
						},
						{
							"indexed": false,
							"internalType": "uint8",
							"name": "card1",
							"type": "uint8"
						}
					],
					"name": "GameStarted",
					"type": "event"
				},
				{
					"anonymous": false,
					"inputs": [
						{
							"indexed": true,
							"internalType": "address",
							"name": "player",
							"type": "address"
						},
						{
							"indexed": false,
							"internalType": "uint256",
							"name": "newBet",
							"type": "uint256"
						}
					],
					"name": "Raised",
					"type": "event"
				},
				{
					"anonymous": false,
					"inputs": [
						{
							"indexed": false,
							"internalType": "address",
							"name": "winner",
							"type": "address"
						},
						{
							"indexed": false,
							"internalType": "uint8",
							"name": "winnerCard",
							"type": "uint8"
						},
						{
							"indexed": false,
							"internalType": "uint8",
							"name": "loserCard",
							"type": "uint8"
						}
					],
					"name": "ShowdownResult",
					"type": "event"
				},
				{
					"inputs": [
						{
							"internalType": "uint256",
							"name": "amount",
							"type": "uint256"
						}
					],
					"name": "bet",
					"outputs": [],
					"stateMutability": "nonpayable",
					"type": "function"
				},
				{
					"inputs": [],
					"name": "callOrAllIn",
					"outputs": [],
					"stateMutability": "nonpayable",
					"type": "function"
				},
				{
					"inputs": [],
					"name": "currentBet",
					"outputs": [
						{
							"internalType": "uint256",
							"name": "",
							"type": "uint256"
						}
					],
					"stateMutability": "view",
					"type": "function"
				},
				{
					"inputs": [],
					"name": "currentPlayer",
					"outputs": [
						{
							"internalType": "uint8",
							"name": "",
							"type": "uint8"
						}
					],
					"stateMutability": "view",
					"type": "function"
				},
				{
					"inputs": [
						{
							"internalType": "uint256",
							"name": "chipAmount",
							"type": "uint256"
						}
					],
					"name": "exchange",
					"outputs": [],
					"stateMutability": "nonpayable",
					"type": "function"
				},
				{
					"inputs": [],
					"name": "fold",
					"outputs": [],
					"stateMutability": "nonpayable",
					"type": "function"
				},
				{
					"inputs": [],
					"name": "getChip",
					"outputs": [],
					"stateMutability": "payable",
					"type": "function"
				},
				{
					"inputs": [
						{
							"internalType": "address",
							"name": "addr",
							"type": "address"
						}
					],
					"name": "getPlayerInfo",
					"outputs": [
						{
							"internalType": "uint256",
							"name": "chips",
							"type": "uint256"
						},
						{
							"internalType": "uint8",
							"name": "card",
							"type": "uint8"
						},
						{
							"internalType": "uint256",
							"name": "contributed",
							"type": "uint256"
						},
						{
							"internalType": "bool",
							"name": "folded",
							"type": "bool"
						},
						{
							"internalType": "bool",
							"name": "isAllIn",
							"type": "bool"
						}
					],
					"stateMutability": "view",
					"type": "function"
				},
				{
					"inputs": [],
					"name": "joinGame",
					"outputs": [],
					"stateMutability": "payable",
					"type": "function"
				},
				{
					"inputs": [
						{
							"internalType": "uint256",
							"name": "",
							"type": "uint256"
						}
					],
					"name": "playerAddrs",
					"outputs": [
						{
							"internalType": "address",
							"name": "",
							"type": "address"
						}
					],
					"stateMutability": "view",
					"type": "function"
				},
				{
					"inputs": [
						{
							"internalType": "address",
							"name": "",
							"type": "address"
						}
					],
					"name": "players",
					"outputs": [
						{
							"internalType": "address",
							"name": "addr",
							"type": "address"
						},
						{
							"internalType": "uint256",
							"name": "chips",
							"type": "uint256"
						},
						{
							"internalType": "uint8",
							"name": "card",
							"type": "uint8"
						},
						{
							"internalType": "uint256",
							"name": "contributed",
							"type": "uint256"
						},
						{
							"internalType": "bool",
							"name": "folded",
							"type": "bool"
						},
						{
							"internalType": "bool",
							"name": "isAllIn",
							"type": "bool"
						}
					],
					"stateMutability": "view",
					"type": "function"
				},
				{
					"inputs": [],
					"name": "pot",
					"outputs": [
						{
							"internalType": "uint256",
							"name": "",
							"type": "uint256"
						}
					],
					"stateMutability": "view",
					"type": "function"
				},
				{
					"inputs": [
						{
							"internalType": "uint256",
							"name": "newBet",
							"type": "uint256"
						}
					],
					"name": "raiseBet",
					"outputs": [],
					"stateMutability": "nonpayable",
					"type": "function"
				},
				{
					"inputs": [],
					"name": "resetGame",
					"outputs": [],
					"stateMutability": "nonpayable",
					"type": "function"
				},
				{
					"inputs": [],
					"name": "state",
					"outputs": [
						{
							"internalType": "enum IndianPoker_2.State",
							"name": "",
							"type": "uint8"
						}
					],
					"stateMutability": "view",
					"type": "function"
				}
			],
			"devdoc": {
				"details": "Randomness is insecure (chain‐based hashing) and some rules are approximated (speculation).",
				"kind": "dev",
				"methods": {
					"bet(uint256)": {
						"params": {
							"amount": "Number of chips to bet (>0)"
						}
					},
					"exchange(uint256)": {
						"params": {
							"chipAmount": "Number of chips to exchange"
						}
					},
					"getChip()": {
						"details": "Calculates `msg.value * CHIPS_PER_0_001_ETH / WEI_PER_0_001_ETH`"
					},
					"getPlayerInfo(address)": {
						"params": {
							"addr": "Address of the player to query"
						},
						"returns": {
							"card": "",
							"chips": "chips",
							"contributed": "",
							"folded": "folded",
							"isAllIn": "isAllIn"
						}
					},
					"raiseBet(uint256)": {
						"params": {
							"newBet": "New total bet that must exceed currentBet"
						}
					}
				},
				"title": "IndianPoker",
				"version": 1
			},
			"evm": {
				"assembly": "    /* \"Final_Project/IndianPoker_2.sol\":294:14559  contract IndianPoker_2 {... */\n  mstore(0x40, 0x80)\n    /* \"Final_Project/IndianPoker_2.sol\":2470:2534  constructor() {... */\n  callvalue\n  dup1\n  iszero\n  tag_1\n  jumpi\n  revert(0x00, 0x00)\ntag_1:\n  pop\n    /* \"Final_Project/IndianPoker_2.sol\":2503:2526  State.WaitingForPlayers */\n  0x00\n    /* \"Final_Project/IndianPoker_2.sol\":2495:2500  state */\n  0x00\n  0x00\n    /* \"Final_Project/IndianPoker_2.sol\":2495:2526  state = State.WaitingForPlayers */\n  0x0100\n  exp\n  dup2\n  sload\n  dup2\n  0xff\n  mul\n  not\n  and\n  swap1\n  dup4\n  0x04\n  dup2\n  gt\n  iszero\n  tag_4\n  jumpi\n  tag_5\n  tag_6\n  jump\t// in\ntag_5:\ntag_4:\n  mul\n  or\n  swap1\n  sstore\n  pop\n    /* \"Final_Project/IndianPoker_2.sol\":294:14559  contract IndianPoker_2 {... */\n  jump(tag_7)\n    /* \"#utility.yul\":7:187   */\ntag_6:\n    /* \"#utility.yul\":55:132   */\n  0x4e487b7100000000000000000000000000000000000000000000000000000000\n    /* \"#utility.yul\":52:53   */\n  0x00\n    /* \"#utility.yul\":45:133   */\n  mstore\n    /* \"#utility.yul\":152:156   */\n  0x21\n    /* \"#utility.yul\":149:150   */\n  0x04\n    /* \"#utility.yul\":142:157   */\n  mstore\n    /* \"#utility.yul\":176:180   */\n  0x24\n    /* \"#utility.yul\":173:174   */\n  0x00\n    /* \"#utility.yul\":166:181   */\n  revert\n    /* \"Final_Project/IndianPoker_2.sol\":294:14559  contract IndianPoker_2 {... */\ntag_7:\n  dataSize(sub_0)\n  dup1\n  dataOffset(sub_0)\n  0x00\n  codecopy\n  0x00\n  return\nstop\n\nsub_0: assembly {\n        /* \"Final_Project/IndianPoker_2.sol\":294:14559  contract IndianPoker_2 {... */\n      mstore(0x40, 0x80)\n      jumpi(tag_1, lt(calldatasize, 0x04))\n      shr(0xe0, calldataload(0x00))\n      dup1\n      0x85864a70\n      gt\n      tag_17\n      jumpi\n      dup1\n      0xd4f77b1c\n      gt\n      tag_18\n      jumpi\n      dup1\n      0xd4f77b1c\n      eq\n      tag_13\n      jumpi\n      dup1\n      0xd504cb65\n      eq\n      tag_14\n      jumpi\n      dup1\n      0xe2eb41ff\n      eq\n      tag_15\n      jumpi\n      dup1\n      0xe684f46a\n      eq\n      tag_16\n      jumpi\n      jump(tag_1)\n    tag_18:\n      dup1\n      0x85864a70\n      eq\n      tag_9\n      jumpi\n      dup1\n      0x8763b551\n      eq\n      tag_10\n      jumpi\n      dup1\n      0xbb472219\n      eq\n      tag_11\n      jumpi\n      dup1\n      0xc19d93fb\n      eq\n      tag_12\n      jumpi\n      jump(tag_1)\n    tag_17:\n      dup1\n      0x53556559\n      gt\n      tag_19\n      jumpi\n      dup1\n      0x53556559\n      eq\n      tag_5\n      jumpi\n      dup1\n      0x59328401\n      eq\n      tag_6\n      jumpi\n      dup1\n      0x7365870b\n      eq\n      tag_7\n      jumpi\n      dup1\n      0x7f1db215\n      eq\n      tag_8\n      jumpi\n      jump(tag_1)\n    tag_19:\n      dup1\n      0x38fcfa9e\n      eq\n      tag_2\n      jumpi\n      dup1\n      0x4404a438\n      eq\n      tag_3\n      jumpi\n      dup1\n      0x4ba2363a\n      eq\n      tag_4\n      jumpi\n    tag_1:\n      revert(0x00, 0x00)\n        /* \"Final_Project/IndianPoker_2.sol\":2698:3033  function getChip() external payable {... */\n    tag_2:\n      tag_20\n      tag_21\n      jump\t// in\n    tag_20:\n      stop\n        /* \"Final_Project/IndianPoker_2.sol\":1258:1284  uint8 public currentPlayer */\n    tag_3:\n      callvalue\n      dup1\n      iszero\n      tag_22\n      jumpi\n      revert(0x00, 0x00)\n    tag_22:\n      pop\n      tag_23\n      tag_24\n      jump\t// in\n    tag_23:\n      mload(0x40)\n      tag_25\n      swap2\n      swap1\n      tag_26\n      jump\t// in\n    tag_25:\n      mload(0x40)\n      dup1\n      swap2\n      sub\n      swap1\n      return\n        /* \"Final_Project/IndianPoker_2.sol\":1201:1219  uint256 public pot */\n    tag_4:\n      callvalue\n      dup1\n      iszero\n      tag_27\n      jumpi\n      revert(0x00, 0x00)\n    tag_27:\n      pop\n      tag_28\n      tag_29\n      jump\t// in\n    tag_28:\n      mload(0x40)\n      tag_30\n      swap2\n      swap1\n      tag_31\n      jump\t// in\n    tag_30:\n      mload(0x40)\n      dup1\n      swap2\n      sub\n      swap1\n      return\n        /* \"Final_Project/IndianPoker_2.sol\":3179:3569  function exchange(uint256 chipAmount) external {... */\n    tag_5:\n      callvalue\n      dup1\n      iszero\n      tag_32\n      jumpi\n      revert(0x00, 0x00)\n    tag_32:\n      pop\n      tag_33\n      0x04\n      dup1\n      calldatasize\n      sub\n      dup2\n      add\n      swap1\n      tag_34\n      swap2\n      swap1\n      tag_35\n      jump\t// in\n    tag_34:\n      tag_36\n      jump\t// in\n    tag_33:\n      stop\n        /* \"Final_Project/IndianPoker_2.sol\":14247:14556  function getPlayerInfo(address addr) external view returns (... */\n    tag_6:\n      callvalue\n      dup1\n      iszero\n      tag_37\n      jumpi\n      revert(0x00, 0x00)\n    tag_37:\n      pop\n      tag_38\n      0x04\n      dup1\n      calldatasize\n      sub\n      dup2\n      add\n      swap1\n      tag_39\n      swap2\n      swap1\n      tag_40\n      jump\t// in\n    tag_39:\n      tag_41\n      jump\t// in\n    tag_38:\n      mload(0x40)\n      tag_42\n      swap6\n      swap5\n      swap4\n      swap3\n      swap2\n      swap1\n      tag_43\n      jump\t// in\n    tag_42:\n      mload(0x40)\n      dup1\n      swap2\n      sub\n      swap1\n      return\n        /* \"Final_Project/IndianPoker_2.sol\":6029:6766  function bet(uint256 amount) external {... */\n    tag_7:\n      callvalue\n      dup1\n      iszero\n      tag_44\n      jumpi\n      revert(0x00, 0x00)\n    tag_44:\n      pop\n      tag_45\n      0x04\n      dup1\n      calldatasize\n      sub\n      dup2\n      add\n      swap1\n      tag_46\n      swap2\n      swap1\n      tag_35\n      jump\t// in\n    tag_46:\n      tag_47\n      jump\t// in\n    tag_45:\n      stop\n        /* \"Final_Project/IndianPoker_2.sol\":6940:8529  function callOrAllIn() external {... */\n    tag_8:\n      callvalue\n      dup1\n      iszero\n      tag_48\n      jumpi\n      revert(0x00, 0x00)\n    tag_48:\n      pop\n      tag_49\n      tag_50\n      jump\t// in\n    tag_49:\n      stop\n        /* \"Final_Project/IndianPoker_2.sol\":8677:9474  function raiseBet(uint256 newBet) external {... */\n    tag_9:\n      callvalue\n      dup1\n      iszero\n      tag_51\n      jumpi\n      revert(0x00, 0x00)\n    tag_51:\n      pop\n      tag_52\n      0x04\n      dup1\n      calldatasize\n      sub\n      dup2\n      add\n      swap1\n      tag_53\n      swap2\n      swap1\n      tag_35\n      jump\t// in\n    tag_53:\n      tag_54\n      jump\t// in\n    tag_52:\n      stop\n        /* \"Final_Project/IndianPoker_2.sol\":1047:1076  address[2] public playerAddrs */\n    tag_10:\n      callvalue\n      dup1\n      iszero\n      tag_55\n      jumpi\n      revert(0x00, 0x00)\n    tag_55:\n      pop\n      tag_56\n      0x04\n      dup1\n      calldatasize\n      sub\n      dup2\n      add\n      swap1\n      tag_57\n      swap2\n      swap1\n      tag_35\n      jump\t// in\n    tag_57:\n      tag_58\n      jump\t// in\n    tag_56:\n      mload(0x40)\n      tag_59\n      swap2\n      swap1\n      tag_60\n      jump\t// in\n    tag_59:\n      mload(0x40)\n      dup1\n      swap2\n      sub\n      swap1\n      return\n        /* \"Final_Project/IndianPoker_2.sol\":13563:13996  function resetGame() external {... */\n    tag_11:\n      callvalue\n      dup1\n      iszero\n      tag_61\n      jumpi\n      revert(0x00, 0x00)\n    tag_61:\n      pop\n      tag_62\n      tag_63\n      jump\t// in\n    tag_62:\n      stop\n        /* \"Final_Project/IndianPoker_2.sol\":420:438  State public state */\n    tag_12:\n      callvalue\n      dup1\n      iszero\n      tag_64\n      jumpi\n      revert(0x00, 0x00)\n    tag_64:\n      pop\n      tag_65\n      tag_66\n      jump\t// in\n    tag_65:\n      mload(0x40)\n      tag_67\n      swap2\n      swap1\n      tag_68\n      jump\t// in\n    tag_67:\n      mload(0x40)\n      dup1\n      swap2\n      sub\n      swap1\n      return\n        /* \"Final_Project/IndianPoker_2.sol\":3686:4544  function joinGame() external payable {... */\n    tag_13:\n      tag_69\n      tag_70\n      jump\t// in\n    tag_69:\n      stop\n        /* \"Final_Project/IndianPoker_2.sol\":1226:1251  uint256 public currentBet */\n    tag_14:\n      callvalue\n      dup1\n      iszero\n      tag_71\n      jumpi\n      revert(0x00, 0x00)\n    tag_71:\n      pop\n      tag_72\n      tag_73\n      jump\t// in\n    tag_72:\n      mload(0x40)\n      tag_74\n      swap2\n      swap1\n      tag_31\n      jump\t// in\n    tag_74:\n      mload(0x40)\n      dup1\n      swap2\n      sub\n      swap1\n      return\n        /* \"Final_Project/IndianPoker_2.sol\":999:1040  mapping(address => Player) public players */\n    tag_15:\n      callvalue\n      dup1\n      iszero\n      tag_75\n      jumpi\n      revert(0x00, 0x00)\n    tag_75:\n      pop\n      tag_76\n      0x04\n      dup1\n      calldatasize\n      sub\n      dup2\n      add\n      swap1\n      tag_77\n      swap2\n      swap1\n      tag_40\n      jump\t// in\n    tag_77:\n      tag_78\n      jump\t// in\n    tag_76:\n      mload(0x40)\n      tag_79\n      swap7\n      swap6\n      swap5\n      swap4\n      swap3\n      swap2\n      swap1\n      tag_80\n      jump\t// in\n    tag_79:\n      mload(0x40)\n      dup1\n      swap2\n      sub\n      swap1\n      return\n        /* \"Final_Project/IndianPoker_2.sol\":9692:10670  function fold() external {... */\n    tag_16:\n      callvalue\n      dup1\n      iszero\n      tag_81\n      jumpi\n      revert(0x00, 0x00)\n    tag_81:\n      pop\n      tag_82\n      tag_83\n      jump\t// in\n    tag_82:\n      stop\n        /* \"Final_Project/IndianPoker_2.sol\":2698:3033  function getChip() external payable {... */\n    tag_21:\n        /* \"Final_Project/IndianPoker_2.sol\":2319:2323  1e15 */\n      0x038d7ea4c68000\n        /* \"Final_Project/IndianPoker_2.sol\":2753:2762  msg.value */\n      callvalue\n        /* \"Final_Project/IndianPoker_2.sol\":2753:2783  msg.value >= WEI_PER_0_001_ETH */\n      lt\n      iszero\n        /* \"Final_Project/IndianPoker_2.sol\":2745:2816  require(msg.value >= WEI_PER_0_001_ETH, \"At least 0.001 ETH required.\") */\n      tag_85\n      jumpi\n      mload(0x40)\n      0x08c379a000000000000000000000000000000000000000000000000000000000\n      dup2\n      mstore\n      0x04\n      add\n      tag_86\n      swap1\n      tag_87\n      jump\t// in\n    tag_86:\n      mload(0x40)\n      dup1\n      swap2\n      sub\n      swap1\n      revert\n    tag_85:\n        /* \"Final_Project/IndianPoker_2.sol\":2827:2848  uint256 chipsToCredit */\n      0x00\n        /* \"Final_Project/IndianPoker_2.sol\":2319:2323  1e15 */\n      0x038d7ea4c68000\n        /* \"Final_Project/IndianPoker_2.sol\":2218:2220  20 */\n      0x14\n        /* \"Final_Project/IndianPoker_2.sol\":2852:2861  msg.value */\n      callvalue\n        /* \"Final_Project/IndianPoker_2.sol\":2852:2883  msg.value * CHIPS_PER_0_001_ETH */\n      tag_88\n      swap2\n      swap1\n      tag_89\n      jump\t// in\n    tag_88:\n        /* \"Final_Project/IndianPoker_2.sol\":2851:2904  (msg.value * CHIPS_PER_0_001_ETH) / WEI_PER_0_001_ETH */\n      tag_90\n      swap2\n      swap1\n      tag_91\n      jump\t// in\n    tag_90:\n        /* \"Final_Project/IndianPoker_2.sol\":2827:2904  uint256 chipsToCredit = (msg.value * CHIPS_PER_0_001_ETH) / WEI_PER_0_001_ETH */\n      swap1\n      pop\n        /* \"Final_Project/IndianPoker_2.sol\":2944:2957  chipsToCredit */\n      dup1\n        /* \"Final_Project/IndianPoker_2.sol\":2915:2922  players */\n      0x01\n        /* \"Final_Project/IndianPoker_2.sol\":2915:2934  players[msg.sender] */\n      0x00\n        /* \"Final_Project/IndianPoker_2.sol\":2923:2933  msg.sender */\n      caller\n        /* \"Final_Project/IndianPoker_2.sol\":2915:2934  players[msg.sender] */\n      0xffffffffffffffffffffffffffffffffffffffff\n      and\n      0xffffffffffffffffffffffffffffffffffffffff\n      and\n      dup2\n      mstore\n      0x20\n      add\n      swap1\n      dup2\n      mstore\n      0x20\n      add\n      0x00\n      keccak256\n        /* \"Final_Project/IndianPoker_2.sol\":2915:2940  players[msg.sender].chips */\n      0x01\n      add\n      0x00\n        /* \"Final_Project/IndianPoker_2.sol\":2915:2957  players[msg.sender].chips += chipsToCredit */\n      dup3\n      dup3\n      sload\n      tag_92\n      swap2\n      swap1\n      tag_93\n      jump\t// in\n    tag_92:\n      swap3\n      pop\n      pop\n      dup2\n      swap1\n      sstore\n      pop\n        /* \"Final_Project/IndianPoker_2.sol\":2988:2998  msg.sender */\n      caller\n        /* \"Final_Project/IndianPoker_2.sol\":2973:3025  ChipsPurchased(msg.sender, msg.value, chipsToCredit) */\n      0xffffffffffffffffffffffffffffffffffffffff\n      and\n      0x6a73271893757eff3e2109a31a1f50f0b3cafea2d51a26dc5cfe54ba216b531c\n        /* \"Final_Project/IndianPoker_2.sol\":3000:3009  msg.value */\n      callvalue\n        /* \"Final_Project/IndianPoker_2.sol\":3011:3024  chipsToCredit */\n      dup4\n        /* \"Final_Project/IndianPoker_2.sol\":2973:3025  ChipsPurchased(msg.sender, msg.value, chipsToCredit) */\n      mload(0x40)\n      tag_94\n      swap3\n      swap2\n      swap1\n      tag_95\n      jump\t// in\n    tag_94:\n      mload(0x40)\n      dup1\n      swap2\n      sub\n      swap1\n      log2\n        /* \"Final_Project/IndianPoker_2.sol\":2734:3033  {... */\n      pop\n        /* \"Final_Project/IndianPoker_2.sol\":2698:3033  function getChip() external payable {... */\n      jump\t// out\n        /* \"Final_Project/IndianPoker_2.sol\":1258:1284  uint8 public currentPlayer */\n    tag_24:\n      0x07\n      0x00\n      swap1\n      sload\n      swap1\n      0x0100\n      exp\n      swap1\n      div\n      0xff\n      and\n      dup2\n      jump\t// out\n        /* \"Final_Project/IndianPoker_2.sol\":1201:1219  uint256 public pot */\n    tag_29:\n      sload(0x05)\n      dup2\n      jump\t// out\n        /* \"Final_Project/IndianPoker_2.sol\":3179:3569  function exchange(uint256 chipAmount) external {... */\n    tag_36:\n        /* \"Final_Project/IndianPoker_2.sol\":3237:3253  Player storage p */\n      0x00\n        /* \"Final_Project/IndianPoker_2.sol\":3256:3263  players */\n      0x01\n        /* \"Final_Project/IndianPoker_2.sol\":3256:3275  players[msg.sender] */\n      0x00\n        /* \"Final_Project/IndianPoker_2.sol\":3264:3274  msg.sender */\n      caller\n        /* \"Final_Project/IndianPoker_2.sol\":3256:3275  players[msg.sender] */\n      0xffffffffffffffffffffffffffffffffffffffff\n      and\n      0xffffffffffffffffffffffffffffffffffffffff\n      and\n      dup2\n      mstore\n      0x20\n      add\n      swap1\n      dup2\n      mstore\n      0x20\n      add\n      0x00\n      keccak256\n        /* \"Final_Project/IndianPoker_2.sol\":3237:3275  Player storage p = players[msg.sender] */\n      swap1\n      pop\n        /* \"Final_Project/IndianPoker_2.sol\":3305:3315  chipAmount */\n      dup2\n        /* \"Final_Project/IndianPoker_2.sol\":3294:3295  p */\n      dup2\n        /* \"Final_Project/IndianPoker_2.sol\":3294:3301  p.chips */\n      0x01\n      add\n      sload\n        /* \"Final_Project/IndianPoker_2.sol\":3294:3315  p.chips >= chipAmount */\n      lt\n      iszero\n        /* \"Final_Project/IndianPoker_2.sol\":3286:3352  require(p.chips >= chipAmount, \"Insufficient chips for exchange.\") */\n      tag_97\n      jumpi\n      mload(0x40)\n      0x08c379a000000000000000000000000000000000000000000000000000000000\n      dup2\n      mstore\n      0x04\n      add\n      tag_98\n      swap1\n      tag_99\n      jump\t// in\n    tag_98:\n      mload(0x40)\n      dup1\n      swap2\n      sub\n      swap1\n      revert\n    tag_97:\n        /* \"Final_Project/IndianPoker_2.sol\":3374:3384  chipAmount */\n      dup2\n        /* \"Final_Project/IndianPoker_2.sol\":3363:3364  p */\n      dup2\n        /* \"Final_Project/IndianPoker_2.sol\":3363:3370  p.chips */\n      0x01\n      add\n      0x00\n        /* \"Final_Project/IndianPoker_2.sol\":3363:3384  p.chips -= chipAmount */\n      dup3\n      dup3\n      sload\n      tag_100\n      swap2\n      swap1\n      tag_101\n      jump\t// in\n    tag_100:\n      swap3\n      pop\n      pop\n      dup2\n      swap1\n      sstore\n      pop\n        /* \"Final_Project/IndianPoker_2.sol\":3395:3414  uint256 ethToReturn */\n      0x00\n        /* \"Final_Project/IndianPoker_2.sol\":2404:2408  5e13 */\n      0x2d79883d2000\n        /* \"Final_Project/IndianPoker_2.sol\":3417:3427  chipAmount */\n      dup4\n        /* \"Final_Project/IndianPoker_2.sol\":3417:3442  chipAmount * WEI_PER_CHIP */\n      tag_102\n      swap2\n      swap1\n      tag_89\n      jump\t// in\n    tag_102:\n        /* \"Final_Project/IndianPoker_2.sol\":3395:3442  uint256 ethToReturn = chipAmount * WEI_PER_CHIP */\n      swap1\n      pop\n        /* \"Final_Project/IndianPoker_2.sol\":3461:3471  msg.sender */\n      caller\n        /* \"Final_Project/IndianPoker_2.sol\":3453:3481  payable(msg.sender).transfer */\n      0xffffffffffffffffffffffffffffffffffffffff\n      and\n        /* \"Final_Project/IndianPoker_2.sol\":3453:3494  payable(msg.sender).transfer(ethToReturn) */\n      0x08fc\n        /* \"Final_Project/IndianPoker_2.sol\":3482:3493  ethToReturn */\n      dup3\n        /* \"Final_Project/IndianPoker_2.sol\":3453:3494  payable(msg.sender).transfer(ethToReturn) */\n      swap1\n      dup2\n      iszero\n      mul\n      swap1\n      mload(0x40)\n      0x00\n      mload(0x40)\n      dup1\n      dup4\n      sub\n      dup2\n      dup6\n      dup9\n      dup9\n      call\n      swap4\n      pop\n      pop\n      pop\n      pop\n      iszero\n      dup1\n      iszero\n      tag_104\n      jumpi\n      returndatacopy(0x00, 0x00, returndatasize)\n      revert(0x00, returndatasize)\n    tag_104:\n      pop\n        /* \"Final_Project/IndianPoker_2.sol\":3525:3535  msg.sender */\n      caller\n        /* \"Final_Project/IndianPoker_2.sol\":3510:3561  ChipsExchanged(msg.sender, chipAmount, ethToReturn) */\n      0xffffffffffffffffffffffffffffffffffffffff\n      and\n      0x10a411a628953c6facff7cf4822b3c924b8b4cc322922727569c217b636505a8\n        /* \"Final_Project/IndianPoker_2.sol\":3537:3547  chipAmount */\n      dup5\n        /* \"Final_Project/IndianPoker_2.sol\":3549:3560  ethToReturn */\n      dup4\n        /* \"Final_Project/IndianPoker_2.sol\":3510:3561  ChipsExchanged(msg.sender, chipAmount, ethToReturn) */\n      mload(0x40)\n      tag_105\n      swap3\n      swap2\n      swap1\n      tag_95\n      jump\t// in\n    tag_105:\n      mload(0x40)\n      dup1\n      swap2\n      sub\n      swap1\n      log2\n        /* \"Final_Project/IndianPoker_2.sol\":3226:3569  {... */\n      pop\n      pop\n        /* \"Final_Project/IndianPoker_2.sol\":3179:3569  function exchange(uint256 chipAmount) external {... */\n      pop\n      jump\t// out\n        /* \"Final_Project/IndianPoker_2.sol\":14247:14556  function getPlayerInfo(address addr) external view returns (... */\n    tag_41:\n        /* \"Final_Project/IndianPoker_2.sol\":14317:14330  uint256 chips */\n      0x00\n        /* \"Final_Project/IndianPoker_2.sol\":14341:14351  uint8 card */\n      0x00\n        /* \"Final_Project/IndianPoker_2.sol\":14362:14381  uint256 contributed */\n      0x00\n        /* \"Final_Project/IndianPoker_2.sol\":14392:14403  bool folded */\n      0x00\n        /* \"Final_Project/IndianPoker_2.sol\":14414:14426  bool isAllIn */\n      0x00\n        /* \"Final_Project/IndianPoker_2.sol\":14445:14461  Player storage p */\n      0x00\n        /* \"Final_Project/IndianPoker_2.sol\":14464:14471  players */\n      0x01\n        /* \"Final_Project/IndianPoker_2.sol\":14464:14477  players[addr] */\n      0x00\n        /* \"Final_Project/IndianPoker_2.sol\":14472:14476  addr */\n      dup9\n        /* \"Final_Project/IndianPoker_2.sol\":14464:14477  players[addr] */\n      0xffffffffffffffffffffffffffffffffffffffff\n      and\n      0xffffffffffffffffffffffffffffffffffffffff\n      and\n      dup2\n      mstore\n      0x20\n      add\n      swap1\n      dup2\n      mstore\n      0x20\n      add\n      0x00\n      keccak256\n        /* \"Final_Project/IndianPoker_2.sol\":14445:14477  Player storage p = players[addr] */\n      swap1\n      pop\n        /* \"Final_Project/IndianPoker_2.sol\":14496:14497  p */\n      dup1\n        /* \"Final_Project/IndianPoker_2.sol\":14496:14503  p.chips */\n      0x01\n      add\n      sload\n        /* \"Final_Project/IndianPoker_2.sol\":14505:14506  p */\n      dup2\n        /* \"Final_Project/IndianPoker_2.sol\":14505:14511  p.card */\n      0x02\n      add\n      0x00\n      swap1\n      sload\n      swap1\n      0x0100\n      exp\n      swap1\n      div\n      0xff\n      and\n        /* \"Final_Project/IndianPoker_2.sol\":14513:14514  p */\n      dup3\n        /* \"Final_Project/IndianPoker_2.sol\":14513:14526  p.contributed */\n      0x03\n      add\n      sload\n        /* \"Final_Project/IndianPoker_2.sol\":14528:14529  p */\n      dup4\n        /* \"Final_Project/IndianPoker_2.sol\":14528:14536  p.folded */\n      0x04\n      add\n      0x00\n      swap1\n      sload\n      swap1\n      0x0100\n      exp\n      swap1\n      div\n      0xff\n      and\n        /* \"Final_Project/IndianPoker_2.sol\":14538:14539  p */\n      dup5\n        /* \"Final_Project/IndianPoker_2.sol\":14538:14547  p.isAllIn */\n      0x04\n      add\n      0x01\n      swap1\n      sload\n      swap1\n      0x0100\n      exp\n      swap1\n      div\n      0xff\n      and\n        /* \"Final_Project/IndianPoker_2.sol\":14488:14548  return (p.chips, p.card, p.contributed, p.folded, p.isAllIn) */\n      swap6\n      pop\n      swap6\n      pop\n      swap6\n      pop\n      swap6\n      pop\n      swap6\n      pop\n      pop\n        /* \"Final_Project/IndianPoker_2.sol\":14247:14556  function getPlayerInfo(address addr) external view returns (... */\n      swap2\n      swap4\n      swap6\n      swap1\n      swap3\n      swap5\n      pop\n      jump\t// out\n        /* \"Final_Project/IndianPoker_2.sol\":6029:6766  function bet(uint256 amount) external {... */\n    tag_47:\n        /* \"Final_Project/IndianPoker_2.sol\":6095:6108  State.Betting */\n      0x02\n        /* \"Final_Project/IndianPoker_2.sol\":6086:6108  state == State.Betting */\n      0x04\n      dup2\n      gt\n      iszero\n      tag_108\n      jumpi\n      tag_109\n      tag_110\n      jump\t// in\n    tag_109:\n    tag_108:\n        /* \"Final_Project/IndianPoker_2.sol\":6086:6091  state */\n      0x00\n      0x00\n      swap1\n      sload\n      swap1\n      0x0100\n      exp\n      swap1\n      div\n      0xff\n      and\n        /* \"Final_Project/IndianPoker_2.sol\":6086:6108  state == State.Betting */\n      0x04\n      dup2\n      gt\n      iszero\n      tag_111\n      jumpi\n      tag_112\n      tag_110\n      jump\t// in\n    tag_112:\n    tag_111:\n      eq\n        /* \"Final_Project/IndianPoker_2.sol\":6078:6134  require(state == State.Betting, \"Not in betting phase.\") */\n      tag_113\n      jumpi\n      mload(0x40)\n      0x08c379a000000000000000000000000000000000000000000000000000000000\n      dup2\n      mstore\n      0x04\n      add\n      tag_114\n      swap1\n      tag_115\n      jump\t// in\n    tag_114:\n      mload(0x40)\n      dup1\n      swap2\n      sub\n      swap1\n      revert\n    tag_113:\n        /* \"Final_Project/IndianPoker_2.sol\":6167:6178  playerAddrs */\n      0x02\n        /* \"Final_Project/IndianPoker_2.sol\":6179:6192  currentPlayer */\n      0x07\n      0x00\n      swap1\n      sload\n      swap1\n      0x0100\n      exp\n      swap1\n      div\n      0xff\n      and\n        /* \"Final_Project/IndianPoker_2.sol\":6167:6193  playerAddrs[currentPlayer] */\n      0xff\n      and\n      0x02\n      dup2\n      lt\n      tag_116\n      jumpi\n      tag_117\n      tag_118\n      jump\t// in\n    tag_117:\n    tag_116:\n      add\n      0x00\n      swap1\n      sload\n      swap1\n      0x0100\n      exp\n      swap1\n      div\n      0xffffffffffffffffffffffffffffffffffffffff\n      and\n        /* \"Final_Project/IndianPoker_2.sol\":6153:6193  msg.sender == playerAddrs[currentPlayer] */\n      0xffffffffffffffffffffffffffffffffffffffff\n      and\n        /* \"Final_Project/IndianPoker_2.sol\":6153:6163  msg.sender */\n      caller\n        /* \"Final_Project/IndianPoker_2.sol\":6153:6193  msg.sender == playerAddrs[currentPlayer] */\n      0xffffffffffffffffffffffffffffffffffffffff\n      and\n      eq\n        /* \"Final_Project/IndianPoker_2.sol\":6145:6212  require(msg.sender == playerAddrs[currentPlayer], \"Not your turn.\") */\n      tag_120\n      jumpi\n      mload(0x40)\n      0x08c379a000000000000000000000000000000000000000000000000000000000\n      dup2\n      mstore\n      0x04\n      add\n      tag_121\n      swap1\n      tag_122\n      jump\t// in\n    tag_121:\n      mload(0x40)\n      dup1\n      swap2\n      sub\n      swap1\n      revert\n    tag_120:\n        /* \"Final_Project/IndianPoker_2.sol\":6223:6239  Player storage p */\n      0x00\n        /* \"Final_Project/IndianPoker_2.sol\":6242:6249  players */\n      0x01\n        /* \"Final_Project/IndianPoker_2.sol\":6242:6261  players[msg.sender] */\n      0x00\n        /* \"Final_Project/IndianPoker_2.sol\":6250:6260  msg.sender */\n      caller\n        /* \"Final_Project/IndianPoker_2.sol\":6242:6261  players[msg.sender] */\n      0xffffffffffffffffffffffffffffffffffffffff\n      and\n      0xffffffffffffffffffffffffffffffffffffffff\n      and\n      dup2\n      mstore\n      0x20\n      add\n      swap1\n      dup2\n      mstore\n      0x20\n      add\n      0x00\n      keccak256\n        /* \"Final_Project/IndianPoker_2.sol\":6223:6261  Player storage p = players[msg.sender] */\n      swap1\n      pop\n        /* \"Final_Project/IndianPoker_2.sol\":6281:6282  p */\n      dup1\n        /* \"Final_Project/IndianPoker_2.sol\":6281:6289  p.folded */\n      0x04\n      add\n      0x00\n      swap1\n      sload\n      swap1\n      0x0100\n      exp\n      swap1\n      div\n      0xff\n      and\n        /* \"Final_Project/IndianPoker_2.sol\":6280:6289  !p.folded */\n      iszero\n        /* \"Final_Project/IndianPoker_2.sol\":6272:6318  require(!p.folded, \"You have already folded.\") */\n      tag_123\n      jumpi\n      mload(0x40)\n      0x08c379a000000000000000000000000000000000000000000000000000000000\n      dup2\n      mstore\n      0x04\n      add\n      tag_124\n      swap1\n      tag_125\n      jump\t// in\n    tag_124:\n      mload(0x40)\n      dup1\n      swap2\n      sub\n      swap1\n      revert\n    tag_123:\n        /* \"Final_Project/IndianPoker_2.sol\":6351:6352  0 */\n      0x00\n        /* \"Final_Project/IndianPoker_2.sol\":6337:6347  currentBet */\n      sload(0x06)\n        /* \"Final_Project/IndianPoker_2.sol\":6337:6352  currentBet == 0 */\n      eq\n        /* \"Final_Project/IndianPoker_2.sol\":6329:6382  require(currentBet == 0, \"First bet already placed.\") */\n      tag_126\n      jumpi\n      mload(0x40)\n      0x08c379a000000000000000000000000000000000000000000000000000000000\n      dup2\n      mstore\n      0x04\n      add\n      tag_127\n      swap1\n      tag_128\n      jump\t// in\n    tag_127:\n      mload(0x40)\n      dup1\n      swap2\n      sub\n      swap1\n      revert\n    tag_126:\n        /* \"Final_Project/IndianPoker_2.sol\":6410:6411  0 */\n      0x00\n        /* \"Final_Project/IndianPoker_2.sol\":6401:6407  amount */\n      dup3\n        /* \"Final_Project/IndianPoker_2.sol\":6401:6411  amount > 0 */\n      gt\n        /* \"Final_Project/IndianPoker_2.sol\":6401:6432  amount > 0 && p.chips >= amount */\n      dup1\n      iszero\n      tag_129\n      jumpi\n      pop\n        /* \"Final_Project/IndianPoker_2.sol\":6426:6432  amount */\n      dup2\n        /* \"Final_Project/IndianPoker_2.sol\":6415:6416  p */\n      dup2\n        /* \"Final_Project/IndianPoker_2.sol\":6415:6422  p.chips */\n      0x01\n      add\n      sload\n        /* \"Final_Project/IndianPoker_2.sol\":6415:6432  p.chips >= amount */\n      lt\n      iszero\n        /* \"Final_Project/IndianPoker_2.sol\":6401:6432  amount > 0 && p.chips >= amount */\n    tag_129:\n        /* \"Final_Project/IndianPoker_2.sol\":6393:6474  require(amount > 0 && p.chips >= amount, \"Insufficient chips or invalid amount.\") */\n      tag_130\n      jumpi\n      mload(0x40)\n      0x08c379a000000000000000000000000000000000000000000000000000000000\n      dup2\n      mstore\n      0x04\n      add\n      tag_131\n      swap1\n      tag_132\n      jump\t// in\n    tag_131:\n      mload(0x40)\n      dup1\n      swap2\n      sub\n      swap1\n      revert\n    tag_130:\n        /* \"Final_Project/IndianPoker_2.sol\":6532:6538  amount */\n      dup2\n        /* \"Final_Project/IndianPoker_2.sol\":6519:6529  currentBet */\n      0x06\n        /* \"Final_Project/IndianPoker_2.sol\":6519:6538  currentBet = amount */\n      dup2\n      swap1\n      sstore\n      pop\n        /* \"Final_Project/IndianPoker_2.sol\":6560:6566  amount */\n      dup2\n        /* \"Final_Project/IndianPoker_2.sol\":6549:6550  p */\n      dup2\n        /* \"Final_Project/IndianPoker_2.sol\":6549:6556  p.chips */\n      0x01\n      add\n      0x00\n        /* \"Final_Project/IndianPoker_2.sol\":6549:6566  p.chips -= amount */\n      dup3\n      dup3\n      sload\n      tag_133\n      swap2\n      swap1\n      tag_101\n      jump\t// in\n    tag_133:\n      swap3\n      pop\n      pop\n      dup2\n      swap1\n      sstore\n      pop\n        /* \"Final_Project/IndianPoker_2.sol\":6593:6599  amount */\n      dup2\n        /* \"Final_Project/IndianPoker_2.sol\":6577:6578  p */\n      dup2\n        /* \"Final_Project/IndianPoker_2.sol\":6577:6590  p.contributed */\n      0x03\n      add\n        /* \"Final_Project/IndianPoker_2.sol\":6577:6599  p.contributed = amount */\n      dup2\n      swap1\n      sstore\n      pop\n        /* \"Final_Project/IndianPoker_2.sol\":6617:6623  amount */\n      dup2\n        /* \"Final_Project/IndianPoker_2.sol\":6610:6613  pot */\n      0x05\n      0x00\n        /* \"Final_Project/IndianPoker_2.sol\":6610:6623  pot += amount */\n      dup3\n      dup3\n      sload\n      tag_134\n      swap2\n      swap1\n      tag_93\n      jump\t// in\n    tag_134:\n      swap3\n      pop\n      pop\n      dup2\n      swap1\n      sstore\n      pop\n        /* \"Final_Project/IndianPoker_2.sol\":6649:6659  msg.sender */\n      caller\n        /* \"Final_Project/IndianPoker_2.sol\":6639:6668  BetPlaced(msg.sender, amount) */\n      0xffffffffffffffffffffffffffffffffffffffff\n      and\n      0x43e08d78302cdf9c94e1ffd293c2a3696139ee41cf3199b6f5eed9c7f6cc6090\n        /* \"Final_Project/IndianPoker_2.sol\":6661:6667  amount */\n      dup4\n        /* \"Final_Project/IndianPoker_2.sol\":6639:6668  BetPlaced(msg.sender, amount) */\n      mload(0x40)\n      tag_135\n      swap2\n      swap1\n      tag_31\n      jump\t// in\n    tag_135:\n      mload(0x40)\n      dup1\n      swap2\n      sub\n      swap1\n      log2\n        /* \"Final_Project/IndianPoker_2.sol\":6745:6758  currentPlayer */\n      0x07\n      0x00\n      swap1\n      sload\n      swap1\n      0x0100\n      exp\n      swap1\n      div\n      0xff\n      and\n        /* \"Final_Project/IndianPoker_2.sol\":6741:6742  1 */\n      0x01\n        /* \"Final_Project/IndianPoker_2.sol\":6741:6758  1 - currentPlayer */\n      tag_136\n      swap2\n      swap1\n      tag_137\n      jump\t// in\n    tag_136:\n        /* \"Final_Project/IndianPoker_2.sol\":6725:6738  currentPlayer */\n      0x07\n      0x00\n        /* \"Final_Project/IndianPoker_2.sol\":6725:6758  currentPlayer = 1 - currentPlayer */\n      0x0100\n      exp\n      dup2\n      sload\n      dup2\n      0xff\n      mul\n      not\n      and\n      swap1\n      dup4\n      0xff\n      and\n      mul\n      or\n      swap1\n      sstore\n      pop\n        /* \"Final_Project/IndianPoker_2.sol\":6067:6766  {... */\n      pop\n        /* \"Final_Project/IndianPoker_2.sol\":6029:6766  function bet(uint256 amount) external {... */\n      pop\n      jump\t// out\n        /* \"Final_Project/IndianPoker_2.sol\":6940:8529  function callOrAllIn() external {... */\n    tag_50:\n        /* \"Final_Project/IndianPoker_2.sol\":7000:7013  State.Betting */\n      0x02\n        /* \"Final_Project/IndianPoker_2.sol\":6991:7013  state == State.Betting */\n      0x04\n      dup2\n      gt\n      iszero\n      tag_139\n      jumpi\n      tag_140\n      tag_110\n      jump\t// in\n    tag_140:\n    tag_139:\n        /* \"Final_Project/IndianPoker_2.sol\":6991:6996  state */\n      0x00\n      0x00\n      swap1\n      sload\n      swap1\n      0x0100\n      exp\n      swap1\n      div\n      0xff\n      and\n        /* \"Final_Project/IndianPoker_2.sol\":6991:7013  state == State.Betting */\n      0x04\n      dup2\n      gt\n      iszero\n      tag_141\n      jumpi\n      tag_142\n      tag_110\n      jump\t// in\n    tag_142:\n    tag_141:\n      eq\n        /* \"Final_Project/IndianPoker_2.sol\":6983:7039  require(state == State.Betting, \"Not in betting phase.\") */\n      tag_143\n      jumpi\n      mload(0x40)\n      0x08c379a000000000000000000000000000000000000000000000000000000000\n      dup2\n      mstore\n      0x04\n      add\n      tag_144\n      swap1\n      tag_115\n      jump\t// in\n    tag_144:\n      mload(0x40)\n      dup1\n      swap2\n      sub\n      swap1\n      revert\n    tag_143:\n        /* \"Final_Project/IndianPoker_2.sol\":7072:7083  playerAddrs */\n      0x02\n        /* \"Final_Project/IndianPoker_2.sol\":7084:7097  currentPlayer */\n      0x07\n      0x00\n      swap1\n      sload\n      swap1\n      0x0100\n      exp\n      swap1\n      div\n      0xff\n      and\n        /* \"Final_Project/IndianPoker_2.sol\":7072:7098  playerAddrs[currentPlayer] */\n      0xff\n      and\n      0x02\n      dup2\n      lt\n      tag_145\n      jumpi\n      tag_146\n      tag_118\n      jump\t// in\n    tag_146:\n    tag_145:\n      add\n      0x00\n      swap1\n      sload\n      swap1\n      0x0100\n      exp\n      swap1\n      div\n      0xffffffffffffffffffffffffffffffffffffffff\n      and\n        /* \"Final_Project/IndianPoker_2.sol\":7058:7098  msg.sender == playerAddrs[currentPlayer] */\n      0xffffffffffffffffffffffffffffffffffffffff\n      and\n        /* \"Final_Project/IndianPoker_2.sol\":7058:7068  msg.sender */\n      caller\n        /* \"Final_Project/IndianPoker_2.sol\":7058:7098  msg.sender == playerAddrs[currentPlayer] */\n      0xffffffffffffffffffffffffffffffffffffffff\n      and\n      eq\n        /* \"Final_Project/IndianPoker_2.sol\":7050:7117  require(msg.sender == playerAddrs[currentPlayer], \"Not your turn.\") */\n      tag_148\n      jumpi\n      mload(0x40)\n      0x08c379a000000000000000000000000000000000000000000000000000000000\n      dup2\n      mstore\n      0x04\n      add\n      tag_149\n      swap1\n      tag_122\n      jump\t// in\n    tag_149:\n      mload(0x40)\n      dup1\n      swap2\n      sub\n      swap1\n      revert\n    tag_148:\n        /* \"Final_Project/IndianPoker_2.sol\":7128:7144  Player storage p */\n      0x00\n        /* \"Final_Project/IndianPoker_2.sol\":7147:7154  players */\n      0x01\n        /* \"Final_Project/IndianPoker_2.sol\":7147:7166  players[msg.sender] */\n      0x00\n        /* \"Final_Project/IndianPoker_2.sol\":7155:7165  msg.sender */\n      caller\n        /* \"Final_Project/IndianPoker_2.sol\":7147:7166  players[msg.sender] */\n      0xffffffffffffffffffffffffffffffffffffffff\n      and\n      0xffffffffffffffffffffffffffffffffffffffff\n      and\n      dup2\n      mstore\n      0x20\n      add\n      swap1\n      dup2\n      mstore\n      0x20\n      add\n      0x00\n      keccak256\n        /* \"Final_Project/IndianPoker_2.sol\":7128:7166  Player storage p = players[msg.sender] */\n      swap1\n      pop\n        /* \"Final_Project/IndianPoker_2.sol\":7186:7187  p */\n      dup1\n        /* \"Final_Project/IndianPoker_2.sol\":7186:7194  p.folded */\n      0x04\n      add\n      0x00\n      swap1\n      sload\n      swap1\n      0x0100\n      exp\n      swap1\n      div\n      0xff\n      and\n        /* \"Final_Project/IndianPoker_2.sol\":7185:7194  !p.folded */\n      iszero\n        /* \"Final_Project/IndianPoker_2.sol\":7177:7223  require(!p.folded, \"You have already folded.\") */\n      tag_150\n      jumpi\n      mload(0x40)\n      0x08c379a000000000000000000000000000000000000000000000000000000000\n      dup2\n      mstore\n      0x04\n      add\n      tag_151\n      swap1\n      tag_125\n      jump\t// in\n    tag_151:\n      mload(0x40)\n      dup1\n      swap2\n      sub\n      swap1\n      revert\n    tag_150:\n        /* \"Final_Project/IndianPoker_2.sol\":7255:7256  0 */\n      0x00\n        /* \"Final_Project/IndianPoker_2.sol\":7242:7252  currentBet */\n      sload(0x06)\n        /* \"Final_Project/IndianPoker_2.sol\":7242:7256  currentBet > 0 */\n      gt\n        /* \"Final_Project/IndianPoker_2.sol\":7234:7283  require(currentBet > 0, \"No active bet to call.\") */\n      tag_152\n      jumpi\n      mload(0x40)\n      0x08c379a000000000000000000000000000000000000000000000000000000000\n      dup2\n      mstore\n      0x04\n      add\n      tag_153\n      swap1\n      tag_154\n      jump\t// in\n    tag_153:\n      mload(0x40)\n      dup1\n      swap2\n      sub\n      swap1\n      revert\n    tag_152:\n        /* \"Final_Project/IndianPoker_2.sol\":7296:7310  uint256 toCall */\n      0x00\n        /* \"Final_Project/IndianPoker_2.sol\":7326:7327  p */\n      dup2\n        /* \"Final_Project/IndianPoker_2.sol\":7326:7339  p.contributed */\n      0x03\n      add\n      sload\n        /* \"Final_Project/IndianPoker_2.sol\":7313:7323  currentBet */\n      sload(0x06)\n        /* \"Final_Project/IndianPoker_2.sol\":7313:7339  currentBet > p.contributed */\n      gt\n        /* \"Final_Project/IndianPoker_2.sol\":7313:7374  currentBet > p.contributed ? (currentBet - p.contributed) : 0 */\n      tag_155\n      jumpi\n        /* \"Final_Project/IndianPoker_2.sol\":7373:7374  0 */\n      0x00\n        /* \"Final_Project/IndianPoker_2.sol\":7313:7374  currentBet > p.contributed ? (currentBet - p.contributed) : 0 */\n      jump(tag_156)\n    tag_155:\n        /* \"Final_Project/IndianPoker_2.sol\":7356:7357  p */\n      dup2\n        /* \"Final_Project/IndianPoker_2.sol\":7356:7369  p.contributed */\n      0x03\n      add\n      sload\n        /* \"Final_Project/IndianPoker_2.sol\":7343:7353  currentBet */\n      sload(0x06)\n        /* \"Final_Project/IndianPoker_2.sol\":7343:7369  currentBet - p.contributed */\n      tag_157\n      swap2\n      swap1\n      tag_101\n      jump\t// in\n    tag_157:\n        /* \"Final_Project/IndianPoker_2.sol\":7313:7374  currentBet > p.contributed ? (currentBet - p.contributed) : 0 */\n    tag_156:\n        /* \"Final_Project/IndianPoker_2.sol\":7296:7374  uint256 toCall = currentBet > p.contributed ? (currentBet - p.contributed) : 0 */\n      swap1\n      pop\n        /* \"Final_Project/IndianPoker_2.sol\":7402:7408  toCall */\n      dup1\n        /* \"Final_Project/IndianPoker_2.sol\":7391:7392  p */\n      dup3\n        /* \"Final_Project/IndianPoker_2.sol\":7391:7398  p.chips */\n      0x01\n      add\n      sload\n        /* \"Final_Project/IndianPoker_2.sol\":7391:7408  p.chips <= toCall */\n      gt\n        /* \"Final_Project/IndianPoker_2.sol\":7387:7955  if (p.chips <= toCall) {... */\n      tag_158\n      jumpi\n        /* \"Final_Project/IndianPoker_2.sol\":7453:7472  uint256 allInAmount */\n      0x00\n        /* \"Final_Project/IndianPoker_2.sol\":7475:7476  p */\n      dup3\n        /* \"Final_Project/IndianPoker_2.sol\":7475:7482  p.chips */\n      0x01\n      add\n      sload\n        /* \"Final_Project/IndianPoker_2.sol\":7453:7482  uint256 allInAmount = p.chips */\n      swap1\n      pop\n        /* \"Final_Project/IndianPoker_2.sol\":7514:7525  allInAmount */\n      dup1\n        /* \"Final_Project/IndianPoker_2.sol\":7497:7498  p */\n      dup4\n        /* \"Final_Project/IndianPoker_2.sol\":7497:7510  p.contributed */\n      0x03\n      add\n      0x00\n        /* \"Final_Project/IndianPoker_2.sol\":7497:7525  p.contributed += allInAmount */\n      dup3\n      dup3\n      sload\n      tag_159\n      swap2\n      swap1\n      tag_93\n      jump\t// in\n    tag_159:\n      swap3\n      pop\n      pop\n      dup2\n      swap1\n      sstore\n      pop\n        /* \"Final_Project/IndianPoker_2.sol\":7547:7558  allInAmount */\n      dup1\n        /* \"Final_Project/IndianPoker_2.sol\":7540:7543  pot */\n      0x05\n      0x00\n        /* \"Final_Project/IndianPoker_2.sol\":7540:7558  pot += allInAmount */\n      dup3\n      dup3\n      sload\n      tag_160\n      swap2\n      swap1\n      tag_93\n      jump\t// in\n    tag_160:\n      swap3\n      pop\n      pop\n      dup2\n      swap1\n      sstore\n      pop\n        /* \"Final_Project/IndianPoker_2.sol\":7583:7584  0 */\n      0x00\n        /* \"Final_Project/IndianPoker_2.sol\":7573:7574  p */\n      dup4\n        /* \"Final_Project/IndianPoker_2.sol\":7573:7580  p.chips */\n      0x01\n      add\n        /* \"Final_Project/IndianPoker_2.sol\":7573:7584  p.chips = 0 */\n      dup2\n      swap1\n      sstore\n      pop\n        /* \"Final_Project/IndianPoker_2.sol\":7611:7615  true */\n      0x01\n        /* \"Final_Project/IndianPoker_2.sol\":7599:7600  p */\n      dup4\n        /* \"Final_Project/IndianPoker_2.sol\":7599:7608  p.isAllIn */\n      0x04\n      add\n      0x01\n        /* \"Final_Project/IndianPoker_2.sol\":7599:7615  p.isAllIn = true */\n      0x0100\n      exp\n      dup2\n      sload\n      dup2\n      0xff\n      mul\n      not\n      and\n      swap1\n      dup4\n      iszero\n      iszero\n      mul\n      or\n      swap1\n      sstore\n      pop\n        /* \"Final_Project/IndianPoker_2.sol\":7641:7651  msg.sender */\n      caller\n        /* \"Final_Project/IndianPoker_2.sol\":7635:7665  AllIn(msg.sender, allInAmount) */\n      0xffffffffffffffffffffffffffffffffffffffff\n      and\n      0x9bb3c2260ae48d475a5d96eb8c13cd922d9cac3d9a138c9fb90e9d586c74b74c\n        /* \"Final_Project/IndianPoker_2.sol\":7653:7664  allInAmount */\n      dup3\n        /* \"Final_Project/IndianPoker_2.sol\":7635:7665  AllIn(msg.sender, allInAmount) */\n      mload(0x40)\n      tag_161\n      swap2\n      swap1\n      tag_31\n      jump\t// in\n    tag_161:\n      mload(0x40)\n      dup1\n      swap2\n      sub\n      swap1\n      log2\n        /* \"Final_Project/IndianPoker_2.sol\":7410:7765  {... */\n      pop\n        /* \"Final_Project/IndianPoker_2.sol\":7387:7955  if (p.chips <= toCall) {... */\n      jump(tag_162)\n    tag_158:\n        /* \"Final_Project/IndianPoker_2.sol\":7825:7831  toCall */\n      dup1\n        /* \"Final_Project/IndianPoker_2.sol\":7814:7815  p */\n      dup3\n        /* \"Final_Project/IndianPoker_2.sol\":7814:7821  p.chips */\n      0x01\n      add\n      0x00\n        /* \"Final_Project/IndianPoker_2.sol\":7814:7831  p.chips -= toCall */\n      dup3\n      dup3\n      sload\n      tag_163\n      swap2\n      swap1\n      tag_101\n      jump\t// in\n    tag_163:\n      swap3\n      pop\n      pop\n      dup2\n      swap1\n      sstore\n      pop\n        /* \"Final_Project/IndianPoker_2.sol\":7863:7869  toCall */\n      dup1\n        /* \"Final_Project/IndianPoker_2.sol\":7846:7847  p */\n      dup3\n        /* \"Final_Project/IndianPoker_2.sol\":7846:7859  p.contributed */\n      0x03\n      add\n      0x00\n        /* \"Final_Project/IndianPoker_2.sol\":7846:7869  p.contributed += toCall */\n      dup3\n      dup3\n      sload\n      tag_164\n      swap2\n      swap1\n      tag_93\n      jump\t// in\n    tag_164:\n      swap3\n      pop\n      pop\n      dup2\n      swap1\n      sstore\n      pop\n        /* \"Final_Project/IndianPoker_2.sol\":7891:7897  toCall */\n      dup1\n        /* \"Final_Project/IndianPoker_2.sol\":7884:7887  pot */\n      0x05\n      0x00\n        /* \"Final_Project/IndianPoker_2.sol\":7884:7897  pot += toCall */\n      dup3\n      dup3\n      sload\n      tag_165\n      swap2\n      swap1\n      tag_93\n      jump\t// in\n    tag_165:\n      swap3\n      pop\n      pop\n      dup2\n      swap1\n      sstore\n      pop\n        /* \"Final_Project/IndianPoker_2.sol\":7924:7934  msg.sender */\n      caller\n        /* \"Final_Project/IndianPoker_2.sol\":7917:7943  Called(msg.sender, toCall) */\n      0xffffffffffffffffffffffffffffffffffffffff\n      and\n      0x3984f38ce2c135261f712a8230a55882580d7ec5b607ae7001cac18690209cc1\n        /* \"Final_Project/IndianPoker_2.sol\":7936:7942  toCall */\n      dup3\n        /* \"Final_Project/IndianPoker_2.sol\":7917:7943  Called(msg.sender, toCall) */\n      mload(0x40)\n      tag_166\n      swap2\n      swap1\n      tag_31\n      jump\t// in\n    tag_166:\n      mload(0x40)\n      dup1\n      swap2\n      sub\n      swap1\n      log2\n        /* \"Final_Project/IndianPoker_2.sol\":7387:7955  if (p.chips <= toCall) {... */\n    tag_162:\n        /* \"Final_Project/IndianPoker_2.sol\":8013:8036  Player storage opponent */\n      0x00\n        /* \"Final_Project/IndianPoker_2.sol\":8039:8046  players */\n      0x01\n        /* \"Final_Project/IndianPoker_2.sol\":8039:8078  players[playerAddrs[1 - currentPlayer]] */\n      0x00\n        /* \"Final_Project/IndianPoker_2.sol\":8047:8058  playerAddrs */\n      0x02\n        /* \"Final_Project/IndianPoker_2.sol\":8063:8076  currentPlayer */\n      0x07\n      0x00\n      swap1\n      sload\n      swap1\n      0x0100\n      exp\n      swap1\n      div\n      0xff\n      and\n        /* \"Final_Project/IndianPoker_2.sol\":8059:8060  1 */\n      0x01\n        /* \"Final_Project/IndianPoker_2.sol\":8059:8076  1 - currentPlayer */\n      tag_167\n      swap2\n      swap1\n      tag_137\n      jump\t// in\n    tag_167:\n        /* \"Final_Project/IndianPoker_2.sol\":8047:8077  playerAddrs[1 - currentPlayer] */\n      0xff\n      and\n      0x02\n      dup2\n      lt\n      tag_168\n      jumpi\n      tag_169\n      tag_118\n      jump\t// in\n    tag_169:\n    tag_168:\n      add\n      0x00\n      swap1\n      sload\n      swap1\n      0x0100\n      exp\n      swap1\n      div\n      0xffffffffffffffffffffffffffffffffffffffff\n      and\n        /* \"Final_Project/IndianPoker_2.sol\":8039:8078  players[playerAddrs[1 - currentPlayer]] */\n      0xffffffffffffffffffffffffffffffffffffffff\n      and\n      0xffffffffffffffffffffffffffffffffffffffff\n      and\n      dup2\n      mstore\n      0x20\n      add\n      swap1\n      dup2\n      mstore\n      0x20\n      add\n      0x00\n      keccak256\n        /* \"Final_Project/IndianPoker_2.sol\":8013:8078  Player storage opponent = players[playerAddrs[1 - currentPlayer]] */\n      swap1\n      pop\n        /* \"Final_Project/IndianPoker_2.sol\":8089:8112  uint256 oppContribution */\n      0x00\n        /* \"Final_Project/IndianPoker_2.sol\":8115:8123  opponent */\n      dup2\n        /* \"Final_Project/IndianPoker_2.sol\":8115:8135  opponent.contributed */\n      0x03\n      add\n      sload\n        /* \"Final_Project/IndianPoker_2.sol\":8089:8135  uint256 oppContribution = opponent.contributed */\n      swap1\n      pop\n        /* \"Final_Project/IndianPoker_2.sol\":8146:8168  uint256 myContribution */\n      0x00\n        /* \"Final_Project/IndianPoker_2.sol\":8172:8173  p */\n      dup5\n        /* \"Final_Project/IndianPoker_2.sol\":8172:8185  p.contributed */\n      0x03\n      add\n      sload\n        /* \"Final_Project/IndianPoker_2.sol\":8146:8185  uint256 myContribution  = p.contributed */\n      swap1\n      pop\n        /* \"Final_Project/IndianPoker_2.sol\":8219:8233  myContribution */\n      dup1\n        /* \"Final_Project/IndianPoker_2.sol\":8200:8215  oppContribution */\n      dup3\n        /* \"Final_Project/IndianPoker_2.sol\":8200:8233  oppContribution == myContribution */\n      eq\n        /* \"Final_Project/IndianPoker_2.sol\":8200:8252  oppContribution == myContribution || opponent.folded */\n      dup1\n      tag_171\n      jumpi\n      pop\n        /* \"Final_Project/IndianPoker_2.sol\":8237:8245  opponent */\n      dup3\n        /* \"Final_Project/IndianPoker_2.sol\":8237:8252  opponent.folded */\n      0x04\n      add\n      0x00\n      swap1\n      sload\n      swap1\n      0x0100\n      exp\n      swap1\n      div\n      0xff\n      and\n        /* \"Final_Project/IndianPoker_2.sol\":8200:8252  oppContribution == myContribution || opponent.folded */\n    tag_171:\n        /* \"Final_Project/IndianPoker_2.sol\":8196:8522  if (oppContribution == myContribution || opponent.folded) {... */\n      iszero\n      tag_172\n      jumpi\n        /* \"Final_Project/IndianPoker_2.sol\":8366:8380  State.Showdown */\n      0x03\n        /* \"Final_Project/IndianPoker_2.sol\":8358:8363  state */\n      0x00\n      0x00\n        /* \"Final_Project/IndianPoker_2.sol\":8358:8380  state = State.Showdown */\n      0x0100\n      exp\n      dup2\n      sload\n      dup2\n      0xff\n      mul\n      not\n      and\n      swap1\n      dup4\n      0x04\n      dup2\n      gt\n      iszero\n      tag_173\n      jumpi\n      tag_174\n      tag_110\n      jump\t// in\n    tag_174:\n    tag_173:\n      mul\n      or\n      swap1\n      sstore\n      pop\n        /* \"Final_Project/IndianPoker_2.sol\":8395:8405  showdown() */\n      tag_175\n        /* \"Final_Project/IndianPoker_2.sol\":8395:8403  showdown */\n      tag_176\n        /* \"Final_Project/IndianPoker_2.sol\":8395:8405  showdown() */\n      jump\t// in\n    tag_175:\n        /* \"Final_Project/IndianPoker_2.sol\":8196:8522  if (oppContribution == myContribution || opponent.folded) {... */\n      jump(tag_177)\n    tag_172:\n        /* \"Final_Project/IndianPoker_2.sol\":8497:8510  currentPlayer */\n      0x07\n      0x00\n      swap1\n      sload\n      swap1\n      0x0100\n      exp\n      swap1\n      div\n      0xff\n      and\n        /* \"Final_Project/IndianPoker_2.sol\":8493:8494  1 */\n      0x01\n        /* \"Final_Project/IndianPoker_2.sol\":8493:8510  1 - currentPlayer */\n      tag_178\n      swap2\n      swap1\n      tag_137\n      jump\t// in\n    tag_178:\n        /* \"Final_Project/IndianPoker_2.sol\":8477:8490  currentPlayer */\n      0x07\n      0x00\n        /* \"Final_Project/IndianPoker_2.sol\":8477:8510  currentPlayer = 1 - currentPlayer */\n      0x0100\n      exp\n      dup2\n      sload\n      dup2\n      0xff\n      mul\n      not\n      and\n      swap1\n      dup4\n      0xff\n      and\n      mul\n      or\n      swap1\n      sstore\n      pop\n        /* \"Final_Project/IndianPoker_2.sol\":8196:8522  if (oppContribution == myContribution || opponent.folded) {... */\n    tag_177:\n        /* \"Final_Project/IndianPoker_2.sol\":6972:8529  {... */\n      pop\n      pop\n      pop\n      pop\n      pop\n        /* \"Final_Project/IndianPoker_2.sol\":6940:8529  function callOrAllIn() external {... */\n      jump\t// out\n        /* \"Final_Project/IndianPoker_2.sol\":8677:9474  function raiseBet(uint256 newBet) external {... */\n    tag_54:\n        /* \"Final_Project/IndianPoker_2.sol\":8748:8761  State.Betting */\n      0x02\n        /* \"Final_Project/IndianPoker_2.sol\":8739:8761  state == State.Betting */\n      0x04\n      dup2\n      gt\n      iszero\n      tag_180\n      jumpi\n      tag_181\n      tag_110\n      jump\t// in\n    tag_181:\n    tag_180:\n        /* \"Final_Project/IndianPoker_2.sol\":8739:8744  state */\n      0x00\n      0x00\n      swap1\n      sload\n      swap1\n      0x0100\n      exp\n      swap1\n      div\n      0xff\n      and\n        /* \"Final_Project/IndianPoker_2.sol\":8739:8761  state == State.Betting */\n      0x04\n      dup2\n      gt\n      iszero\n      tag_182\n      jumpi\n      tag_183\n      tag_110\n      jump\t// in\n    tag_183:\n    tag_182:\n      eq\n        /* \"Final_Project/IndianPoker_2.sol\":8731:8787  require(state == State.Betting, \"Not in betting phase.\") */\n      tag_184\n      jumpi\n      mload(0x40)\n      0x08c379a000000000000000000000000000000000000000000000000000000000\n      dup2\n      mstore\n      0x04\n      add\n      tag_185\n      swap1\n      tag_115\n      jump\t// in\n    tag_185:\n      mload(0x40)\n      dup1\n      swap2\n      sub\n      swap1\n      revert\n    tag_184:\n        /* \"Final_Project/IndianPoker_2.sol\":8820:8831  playerAddrs */\n      0x02\n        /* \"Final_Project/IndianPoker_2.sol\":8832:8845  currentPlayer */\n      0x07\n      0x00\n      swap1\n      sload\n      swap1\n      0x0100\n      exp\n      swap1\n      div\n      0xff\n      and\n        /* \"Final_Project/IndianPoker_2.sol\":8820:8846  playerAddrs[currentPlayer] */\n      0xff\n      and\n      0x02\n      dup2\n      lt\n      tag_186\n      jumpi\n      tag_187\n      tag_118\n      jump\t// in\n    tag_187:\n    tag_186:\n      add\n      0x00\n      swap1\n      sload\n      swap1\n      0x0100\n      exp\n      swap1\n      div\n      0xffffffffffffffffffffffffffffffffffffffff\n      and\n        /* \"Final_Project/IndianPoker_2.sol\":8806:8846  msg.sender == playerAddrs[currentPlayer] */\n      0xffffffffffffffffffffffffffffffffffffffff\n      and\n        /* \"Final_Project/IndianPoker_2.sol\":8806:8816  msg.sender */\n      caller\n        /* \"Final_Project/IndianPoker_2.sol\":8806:8846  msg.sender == playerAddrs[currentPlayer] */\n      0xffffffffffffffffffffffffffffffffffffffff\n      and\n      eq\n        /* \"Final_Project/IndianPoker_2.sol\":8798:8865  require(msg.sender == playerAddrs[currentPlayer], \"Not your turn.\") */\n      tag_189\n      jumpi\n      mload(0x40)\n      0x08c379a000000000000000000000000000000000000000000000000000000000\n      dup2\n      mstore\n      0x04\n      add\n      tag_190\n      swap1\n      tag_122\n      jump\t// in\n    tag_190:\n      mload(0x40)\n      dup1\n      swap2\n      sub\n      swap1\n      revert\n    tag_189:\n        /* \"Final_Project/IndianPoker_2.sol\":8876:8892  Player storage p */\n      0x00\n        /* \"Final_Project/IndianPoker_2.sol\":8895:8902  players */\n      0x01\n        /* \"Final_Project/IndianPoker_2.sol\":8895:8914  players[msg.sender] */\n      0x00\n        /* \"Final_Project/IndianPoker_2.sol\":8903:8913  msg.sender */\n      caller\n        /* \"Final_Project/IndianPoker_2.sol\":8895:8914  players[msg.sender] */\n      0xffffffffffffffffffffffffffffffffffffffff\n      and\n      0xffffffffffffffffffffffffffffffffffffffff\n      and\n      dup2\n      mstore\n      0x20\n      add\n      swap1\n      dup2\n      mstore\n      0x20\n      add\n      0x00\n      keccak256\n        /* \"Final_Project/IndianPoker_2.sol\":8876:8914  Player storage p = players[msg.sender] */\n      swap1\n      pop\n        /* \"Final_Project/IndianPoker_2.sol\":8934:8935  p */\n      dup1\n        /* \"Final_Project/IndianPoker_2.sol\":8934:8942  p.folded */\n      0x04\n      add\n      0x00\n      swap1\n      sload\n      swap1\n      0x0100\n      exp\n      swap1\n      div\n      0xff\n      and\n        /* \"Final_Project/IndianPoker_2.sol\":8933:8942  !p.folded */\n      iszero\n        /* \"Final_Project/IndianPoker_2.sol\":8925:8971  require(!p.folded, \"You have already folded.\") */\n      tag_191\n      jumpi\n      mload(0x40)\n      0x08c379a000000000000000000000000000000000000000000000000000000000\n      dup2\n      mstore\n      0x04\n      add\n      tag_192\n      swap1\n      tag_125\n      jump\t// in\n    tag_192:\n      mload(0x40)\n      dup1\n      swap2\n      sub\n      swap1\n      revert\n    tag_191:\n        /* \"Final_Project/IndianPoker_2.sol\":8999:9009  currentBet */\n      sload(0x06)\n        /* \"Final_Project/IndianPoker_2.sol\":8990:8996  newBet */\n      dup3\n        /* \"Final_Project/IndianPoker_2.sol\":8990:9009  newBet > currentBet */\n      gt\n        /* \"Final_Project/IndianPoker_2.sol\":8982:9044  require(newBet > currentBet, \"Raise must exceed current bet.\") */\n      tag_193\n      jumpi\n      mload(0x40)\n      0x08c379a000000000000000000000000000000000000000000000000000000000\n      dup2\n      mstore\n      0x04\n      add\n      tag_194\n      swap1\n      tag_195\n      jump\t// in\n    tag_194:\n      mload(0x40)\n      dup1\n      swap2\n      sub\n      swap1\n      revert\n    tag_193:\n        /* \"Final_Project/IndianPoker_2.sol\":9055:9073  uint256 additional */\n      0x00\n        /* \"Final_Project/IndianPoker_2.sol\":9085:9086  p */\n      dup2\n        /* \"Final_Project/IndianPoker_2.sol\":9085:9098  p.contributed */\n      0x03\n      add\n      sload\n        /* \"Final_Project/IndianPoker_2.sol\":9076:9082  newBet */\n      dup4\n        /* \"Final_Project/IndianPoker_2.sol\":9076:9098  newBet > p.contributed */\n      gt\n        /* \"Final_Project/IndianPoker_2.sol\":9076:9129  newBet > p.contributed ? (newBet - p.contributed) : 0 */\n      tag_196\n      jumpi\n        /* \"Final_Project/IndianPoker_2.sol\":9128:9129  0 */\n      0x00\n        /* \"Final_Project/IndianPoker_2.sol\":9076:9129  newBet > p.contributed ? (newBet - p.contributed) : 0 */\n      jump(tag_197)\n    tag_196:\n        /* \"Final_Project/IndianPoker_2.sol\":9111:9112  p */\n      dup2\n        /* \"Final_Project/IndianPoker_2.sol\":9111:9124  p.contributed */\n      0x03\n      add\n      sload\n        /* \"Final_Project/IndianPoker_2.sol\":9102:9108  newBet */\n      dup4\n        /* \"Final_Project/IndianPoker_2.sol\":9102:9124  newBet - p.contributed */\n      tag_198\n      swap2\n      swap1\n      tag_101\n      jump\t// in\n    tag_198:\n        /* \"Final_Project/IndianPoker_2.sol\":9076:9129  newBet > p.contributed ? (newBet - p.contributed) : 0 */\n    tag_197:\n        /* \"Final_Project/IndianPoker_2.sol\":9055:9129  uint256 additional = newBet > p.contributed ? (newBet - p.contributed) : 0 */\n      swap1\n      pop\n        /* \"Final_Project/IndianPoker_2.sol\":9159:9169  additional */\n      dup1\n        /* \"Final_Project/IndianPoker_2.sol\":9148:9149  p */\n      dup3\n        /* \"Final_Project/IndianPoker_2.sol\":9148:9155  p.chips */\n      0x01\n      add\n      sload\n        /* \"Final_Project/IndianPoker_2.sol\":9148:9169  p.chips >= additional */\n      lt\n      iszero\n        /* \"Final_Project/IndianPoker_2.sol\":9140:9203  require(p.chips >= additional, \"Insufficient chips for raise.\") */\n      tag_199\n      jumpi\n      mload(0x40)\n      0x08c379a000000000000000000000000000000000000000000000000000000000\n      dup2\n      mstore\n      0x04\n      add\n      tag_200\n      swap1\n      tag_201\n      jump\t// in\n    tag_200:\n      mload(0x40)\n      dup1\n      swap2\n      sub\n      swap1\n      revert\n    tag_199:\n        /* \"Final_Project/IndianPoker_2.sol\":9253:9263  additional */\n      dup1\n        /* \"Final_Project/IndianPoker_2.sol\":9242:9243  p */\n      dup3\n        /* \"Final_Project/IndianPoker_2.sol\":9242:9249  p.chips */\n      0x01\n      add\n      0x00\n        /* \"Final_Project/IndianPoker_2.sol\":9242:9263  p.chips -= additional */\n      dup3\n      dup3\n      sload\n      tag_202\n      swap2\n      swap1\n      tag_101\n      jump\t// in\n    tag_202:\n      swap3\n      pop\n      pop\n      dup2\n      swap1\n      sstore\n      pop\n        /* \"Final_Project/IndianPoker_2.sol\":9290:9296  newBet */\n      dup3\n        /* \"Final_Project/IndianPoker_2.sol\":9274:9275  p */\n      dup3\n        /* \"Final_Project/IndianPoker_2.sol\":9274:9287  p.contributed */\n      0x03\n      add\n        /* \"Final_Project/IndianPoker_2.sol\":9274:9296  p.contributed = newBet */\n      dup2\n      swap1\n      sstore\n      pop\n        /* \"Final_Project/IndianPoker_2.sol\":9314:9324  additional */\n      dup1\n        /* \"Final_Project/IndianPoker_2.sol\":9307:9310  pot */\n      0x05\n      0x00\n        /* \"Final_Project/IndianPoker_2.sol\":9307:9324  pot += additional */\n      dup3\n      dup3\n      sload\n      tag_203\n      swap2\n      swap1\n      tag_93\n      jump\t// in\n    tag_203:\n      swap3\n      pop\n      pop\n      dup2\n      swap1\n      sstore\n      pop\n        /* \"Final_Project/IndianPoker_2.sol\":9348:9354  newBet */\n      dup3\n        /* \"Final_Project/IndianPoker_2.sol\":9335:9345  currentBet */\n      0x06\n        /* \"Final_Project/IndianPoker_2.sol\":9335:9354  currentBet = newBet */\n      dup2\n      swap1\n      sstore\n      pop\n        /* \"Final_Project/IndianPoker_2.sol\":9377:9387  msg.sender */\n      caller\n        /* \"Final_Project/IndianPoker_2.sol\":9370:9396  Raised(msg.sender, newBet) */\n      0xffffffffffffffffffffffffffffffffffffffff\n      and\n      0x19b70886e9e49b62d56c7144fe0aa82d93221a9ccdc642b0f2497225d10c7ad0\n        /* \"Final_Project/IndianPoker_2.sol\":9389:9395  newBet */\n      dup5\n        /* \"Final_Project/IndianPoker_2.sol\":9370:9396  Raised(msg.sender, newBet) */\n      mload(0x40)\n      tag_204\n      swap2\n      swap1\n      tag_31\n      jump\t// in\n    tag_204:\n      mload(0x40)\n      dup1\n      swap2\n      sub\n      swap1\n      log2\n        /* \"Final_Project/IndianPoker_2.sol\":9453:9466  currentPlayer */\n      0x07\n      0x00\n      swap1\n      sload\n      swap1\n      0x0100\n      exp\n      swap1\n      div\n      0xff\n      and\n        /* \"Final_Project/IndianPoker_2.sol\":9449:9450  1 */\n      0x01\n        /* \"Final_Project/IndianPoker_2.sol\":9449:9466  1 - currentPlayer */\n      tag_205\n      swap2\n      swap1\n      tag_137\n      jump\t// in\n    tag_205:\n        /* \"Final_Project/IndianPoker_2.sol\":9433:9446  currentPlayer */\n      0x07\n      0x00\n        /* \"Final_Project/IndianPoker_2.sol\":9433:9466  currentPlayer = 1 - currentPlayer */\n      0x0100\n      exp\n      dup2\n      sload\n      dup2\n      0xff\n      mul\n      not\n      and\n      swap1\n      dup4\n      0xff\n      and\n      mul\n      or\n      swap1\n      sstore\n      pop\n        /* \"Final_Project/IndianPoker_2.sol\":8720:9474  {... */\n      pop\n      pop\n        /* \"Final_Project/IndianPoker_2.sol\":8677:9474  function raiseBet(uint256 newBet) external {... */\n      pop\n      jump\t// out\n        /* \"Final_Project/IndianPoker_2.sol\":1047:1076  address[2] public playerAddrs */\n    tag_58:\n      0x02\n      dup2\n      0x02\n      dup2\n      lt\n      tag_206\n      jumpi\n      0x00\n      dup1\n      revert\n    tag_206:\n      add\n      0x00\n      swap2\n      pop\n      sload\n      swap1\n      0x0100\n      exp\n      swap1\n      div\n      0xffffffffffffffffffffffffffffffffffffffff\n      and\n      dup2\n      jump\t// out\n        /* \"Final_Project/IndianPoker_2.sol\":13563:13996  function resetGame() external {... */\n    tag_63:\n        /* \"Final_Project/IndianPoker_2.sol\":13621:13635  State.Finished */\n      0x04\n        /* \"Final_Project/IndianPoker_2.sol\":13612:13635  state == State.Finished */\n      dup1\n      dup2\n      gt\n      iszero\n      tag_209\n      jumpi\n      tag_210\n      tag_110\n      jump\t// in\n    tag_210:\n    tag_209:\n        /* \"Final_Project/IndianPoker_2.sol\":13612:13617  state */\n      0x00\n      0x00\n      swap1\n      sload\n      swap1\n      0x0100\n      exp\n      swap1\n      div\n      0xff\n      and\n        /* \"Final_Project/IndianPoker_2.sol\":13612:13635  state == State.Finished */\n      0x04\n      dup2\n      gt\n      iszero\n      tag_211\n      jumpi\n      tag_212\n      tag_110\n      jump\t// in\n    tag_212:\n    tag_211:\n      eq\n        /* \"Final_Project/IndianPoker_2.sol\":13604:13671  require(state == State.Finished, \"Game must be finished to reset.\") */\n      tag_213\n      jumpi\n      mload(0x40)\n      0x08c379a000000000000000000000000000000000000000000000000000000000\n      dup2\n      mstore\n      0x04\n      add\n      tag_214\n      swap1\n      tag_215\n      jump\t// in\n    tag_214:\n      mload(0x40)\n      dup1\n      swap2\n      sub\n      swap1\n      revert\n    tag_213:\n        /* \"Final_Project/IndianPoker_2.sol\":13720:13727  uint8 i */\n      0x00\n        /* \"Final_Project/IndianPoker_2.sol\":13730:13731  0 */\n      0x00\n        /* \"Final_Project/IndianPoker_2.sol\":13720:13731  uint8 i = 0 */\n      swap1\n      pop\n        /* \"Final_Project/IndianPoker_2.sol\":13715:13878  for (uint8 i = 0; i < 2; i++) {... */\n    tag_216:\n        /* \"Final_Project/IndianPoker_2.sol\":13737:13738  2 */\n      0x02\n        /* \"Final_Project/IndianPoker_2.sol\":13733:13734  i */\n      dup2\n        /* \"Final_Project/IndianPoker_2.sol\":13733:13738  i < 2 */\n      0xff\n      and\n      lt\n        /* \"Final_Project/IndianPoker_2.sol\":13715:13878  for (uint8 i = 0; i < 2; i++) {... */\n      iszero\n      tag_217\n      jumpi\n        /* \"Final_Project/IndianPoker_2.sol\":13760:13772  address addr */\n      0x00\n        /* \"Final_Project/IndianPoker_2.sol\":13775:13786  playerAddrs */\n      0x02\n        /* \"Final_Project/IndianPoker_2.sol\":13787:13788  i */\n      dup3\n        /* \"Final_Project/IndianPoker_2.sol\":13775:13789  playerAddrs[i] */\n      0xff\n      and\n      0x02\n      dup2\n      lt\n      tag_219\n      jumpi\n      tag_220\n      tag_118\n      jump\t// in\n    tag_220:\n    tag_219:\n      add\n      0x00\n      swap1\n      sload\n      swap1\n      0x0100\n      exp\n      swap1\n      div\n      0xffffffffffffffffffffffffffffffffffffffff\n      and\n        /* \"Final_Project/IndianPoker_2.sol\":13760:13789  address addr = playerAddrs[i] */\n      swap1\n      pop\n        /* \"Final_Project/IndianPoker_2.sol\":13811:13818  players */\n      0x01\n        /* \"Final_Project/IndianPoker_2.sol\":13811:13824  players[addr] */\n      0x00\n        /* \"Final_Project/IndianPoker_2.sol\":13819:13823  addr */\n      dup3\n        /* \"Final_Project/IndianPoker_2.sol\":13811:13824  players[addr] */\n      0xffffffffffffffffffffffffffffffffffffffff\n      and\n      0xffffffffffffffffffffffffffffffffffffffff\n      and\n      dup2\n      mstore\n      0x20\n      add\n      swap1\n      dup2\n      mstore\n      0x20\n      add\n      0x00\n      keccak256\n      0x00\n        /* \"Final_Project/IndianPoker_2.sol\":13804:13824  delete players[addr] */\n      0x00\n      dup3\n      add\n      exp(0x0100, 0x00)\n      dup2\n      sload\n      swap1\n      0xffffffffffffffffffffffffffffffffffffffff\n      mul\n      not\n      and\n      swap1\n      sstore\n      0x01\n      dup3\n      add\n      0x00\n      swap1\n      sstore\n      0x02\n      dup3\n      add\n      exp(0x0100, 0x00)\n      dup2\n      sload\n      swap1\n      0xff\n      mul\n      not\n      and\n      swap1\n      sstore\n      0x03\n      dup3\n      add\n      0x00\n      swap1\n      sstore\n      0x04\n      dup3\n      add\n      exp(0x0100, 0x00)\n      dup2\n      sload\n      swap1\n      0xff\n      mul\n      not\n      and\n      swap1\n      sstore\n      0x04\n      dup3\n      add\n      exp(0x0100, 0x01)\n      dup2\n      sload\n      swap1\n      0xff\n      mul\n      not\n      and\n      swap1\n      sstore\n      pop\n      pop\n        /* \"Final_Project/IndianPoker_2.sol\":13864:13865  0 */\n      0x00\n        /* \"Final_Project/IndianPoker_2.sol\":13839:13850  playerAddrs */\n      0x02\n        /* \"Final_Project/IndianPoker_2.sol\":13851:13852  i */\n      dup4\n        /* \"Final_Project/IndianPoker_2.sol\":13839:13853  playerAddrs[i] */\n      0xff\n      and\n      0x02\n      dup2\n      lt\n      tag_222\n      jumpi\n      tag_223\n      tag_118\n      jump\t// in\n    tag_223:\n    tag_222:\n      add\n      0x00\n        /* \"Final_Project/IndianPoker_2.sol\":13839:13866  playerAddrs[i] = address(0) */\n      0x0100\n      exp\n      dup2\n      sload\n      dup2\n      0xffffffffffffffffffffffffffffffffffffffff\n      mul\n      not\n      and\n      swap1\n      dup4\n      0xffffffffffffffffffffffffffffffffffffffff\n      and\n      mul\n      or\n      swap1\n      sstore\n      pop\n        /* \"Final_Project/IndianPoker_2.sol\":13745:13878  {... */\n      pop\n        /* \"Final_Project/IndianPoker_2.sol\":13740:13743  i++ */\n      dup1\n      dup1\n      0x01\n      add\n      swap2\n      pop\n      pop\n        /* \"Final_Project/IndianPoker_2.sol\":13715:13878  for (uint8 i = 0; i < 2; i++) {... */\n      jump(tag_216)\n    tag_217:\n      pop\n        /* \"Final_Project/IndianPoker_2.sol\":13902:13903  0 */\n      0x00\n        /* \"Final_Project/IndianPoker_2.sol\":13888:13899  playerCount */\n      0x04\n      0x00\n        /* \"Final_Project/IndianPoker_2.sol\":13888:13903  playerCount = 0 */\n      0x0100\n      exp\n      dup2\n      sload\n      dup2\n      0xff\n      mul\n      not\n      and\n      swap1\n      dup4\n      0xff\n      and\n      mul\n      or\n      swap1\n      sstore\n      pop\n        /* \"Final_Project/IndianPoker_2.sol\":13920:13921  0 */\n      0x00\n        /* \"Final_Project/IndianPoker_2.sol\":13914:13917  pot */\n      0x05\n        /* \"Final_Project/IndianPoker_2.sol\":13914:13921  pot = 0 */\n      dup2\n      swap1\n      sstore\n      pop\n        /* \"Final_Project/IndianPoker_2.sol\":13945:13946  0 */\n      0x00\n        /* \"Final_Project/IndianPoker_2.sol\":13932:13942  currentBet */\n      0x06\n        /* \"Final_Project/IndianPoker_2.sol\":13932:13946  currentBet = 0 */\n      dup2\n      swap1\n      sstore\n      pop\n        /* \"Final_Project/IndianPoker_2.sol\":13965:13988  State.WaitingForPlayers */\n      0x00\n        /* \"Final_Project/IndianPoker_2.sol\":13957:13962  state */\n      0x00\n      0x00\n        /* \"Final_Project/IndianPoker_2.sol\":13957:13988  state = State.WaitingForPlayers */\n      0x0100\n      exp\n      dup2\n      sload\n      dup2\n      0xff\n      mul\n      not\n      and\n      swap1\n      dup4\n      0x04\n      dup2\n      gt\n      iszero\n      tag_225\n      jumpi\n      tag_226\n      tag_110\n      jump\t// in\n    tag_226:\n    tag_225:\n      mul\n      or\n      swap1\n      sstore\n      pop\n        /* \"Final_Project/IndianPoker_2.sol\":13563:13996  function resetGame() external {... */\n      jump\t// out\n        /* \"Final_Project/IndianPoker_2.sol\":420:438  State public state */\n    tag_66:\n      0x00\n      0x00\n      swap1\n      sload\n      swap1\n      0x0100\n      exp\n      swap1\n      div\n      0xff\n      and\n      dup2\n      jump\t// out\n        /* \"Final_Project/IndianPoker_2.sol\":3686:4544  function joinGame() external payable {... */\n    tag_70:\n        /* \"Final_Project/IndianPoker_2.sol\":3751:3774  State.WaitingForPlayers */\n      0x00\n        /* \"Final_Project/IndianPoker_2.sol\":3742:3774  state == State.WaitingForPlayers */\n      0x04\n      dup2\n      gt\n      iszero\n      tag_228\n      jumpi\n      tag_229\n      tag_110\n      jump\t// in\n    tag_229:\n    tag_228:\n        /* \"Final_Project/IndianPoker_2.sol\":3742:3747  state */\n      0x00\n      0x00\n      swap1\n      sload\n      swap1\n      0x0100\n      exp\n      swap1\n      div\n      0xff\n      and\n        /* \"Final_Project/IndianPoker_2.sol\":3742:3774  state == State.WaitingForPlayers */\n      0x04\n      dup2\n      gt\n      iszero\n      tag_230\n      jumpi\n      tag_231\n      tag_110\n      jump\t// in\n    tag_231:\n    tag_230:\n      eq\n        /* \"Final_Project/IndianPoker_2.sol\":3734:3800  require(state == State.WaitingForPlayers, \"Not in waiting state.\") */\n      tag_232\n      jumpi\n      mload(0x40)\n      0x08c379a000000000000000000000000000000000000000000000000000000000\n      dup2\n      mstore\n      0x04\n      add\n      tag_233\n      swap1\n      tag_234\n      jump\t// in\n    tag_233:\n      mload(0x40)\n      dup1\n      swap2\n      sub\n      swap1\n      revert\n    tag_232:\n        /* \"Final_Project/IndianPoker_2.sol\":3833:3834  2 */\n      0x02\n        /* \"Final_Project/IndianPoker_2.sol\":3819:3830  playerCount */\n      0x04\n      0x00\n      swap1\n      sload\n      swap1\n      0x0100\n      exp\n      swap1\n      div\n      0xff\n      and\n        /* \"Final_Project/IndianPoker_2.sol\":3819:3834  playerCount < 2 */\n      0xff\n      and\n      lt\n        /* \"Final_Project/IndianPoker_2.sol\":3811:3866  require(playerCount < 2, \"Already two players joined.\") */\n      tag_235\n      jumpi\n      mload(0x40)\n      0x08c379a000000000000000000000000000000000000000000000000000000000\n      dup2\n      mstore\n      0x04\n      add\n      tag_236\n      swap1\n      tag_237\n      jump\t// in\n    tag_236:\n      mload(0x40)\n      dup1\n      swap2\n      sub\n      swap1\n      revert\n    tag_235:\n        /* \"Final_Project/IndianPoker_2.sol\":2028:2039  0.001 ether */\n      0x038d7ea4c68000\n        /* \"Final_Project/IndianPoker_2.sol\":3885:3894  msg.value */\n      callvalue\n        /* \"Final_Project/IndianPoker_2.sol\":3885:3914  msg.value == INITIAL_JOIN_ETH */\n      eq\n        /* \"Final_Project/IndianPoker_2.sol\":3877:3955  require(msg.value == INITIAL_JOIN_ETH, \"Must send exactly 0.001 ETH to join.\") */\n      tag_238\n      jumpi\n      mload(0x40)\n      0x08c379a000000000000000000000000000000000000000000000000000000000\n      dup2\n      mstore\n      0x04\n      add\n      tag_239\n      swap1\n      tag_240\n      jump\t// in\n    tag_239:\n      mload(0x40)\n      dup1\n      swap2\n      sub\n      swap1\n      revert\n    tag_238:\n        /* \"Final_Project/IndianPoker_2.sol\":4010:4011  0 */\n      0x00\n        /* \"Final_Project/IndianPoker_2.sol\":3974:4012  players[msg.sender].addr == address(0) */\n      0xffffffffffffffffffffffffffffffffffffffff\n      and\n        /* \"Final_Project/IndianPoker_2.sol\":3974:3981  players */\n      0x01\n        /* \"Final_Project/IndianPoker_2.sol\":3974:3993  players[msg.sender] */\n      0x00\n        /* \"Final_Project/IndianPoker_2.sol\":3982:3992  msg.sender */\n      caller\n        /* \"Final_Project/IndianPoker_2.sol\":3974:3993  players[msg.sender] */\n      0xffffffffffffffffffffffffffffffffffffffff\n      and\n      0xffffffffffffffffffffffffffffffffffffffff\n      and\n      dup2\n      mstore\n      0x20\n      add\n      swap1\n      dup2\n      mstore\n      0x20\n      add\n      0x00\n      keccak256\n        /* \"Final_Project/IndianPoker_2.sol\":3974:3998  players[msg.sender].addr */\n      0x00\n      add\n      0x00\n      swap1\n      sload\n      swap1\n      0x0100\n      exp\n      swap1\n      div\n      0xffffffffffffffffffffffffffffffffffffffff\n      and\n        /* \"Final_Project/IndianPoker_2.sol\":3974:4012  players[msg.sender].addr == address(0) */\n      0xffffffffffffffffffffffffffffffffffffffff\n      and\n      eq\n        /* \"Final_Project/IndianPoker_2.sol\":3966:4039  require(players[msg.sender].addr == address(0), \"Player already joined.\") */\n      tag_241\n      jumpi\n      mload(0x40)\n      0x08c379a000000000000000000000000000000000000000000000000000000000\n      dup2\n      mstore\n      0x04\n      add\n      tag_242\n      swap1\n      tag_243\n      jump\t// in\n    tag_242:\n      mload(0x40)\n      dup1\n      swap2\n      sub\n      swap1\n      revert\n    tag_241:\n        /* \"Final_Project/IndianPoker_2.sol\":4108:4302  Player({... */\n      mload(0x40)\n      dup1\n      0xc0\n      add\n      0x40\n      mstore\n      dup1\n        /* \"Final_Project/IndianPoker_2.sol\":4136:4146  msg.sender */\n      caller\n        /* \"Final_Project/IndianPoker_2.sol\":4108:4302  Player({... */\n      0xffffffffffffffffffffffffffffffffffffffff\n      and\n      dup2\n      mstore\n      0x20\n      add\n        /* \"Final_Project/IndianPoker_2.sol\":2112:2114  20 */\n      0x14\n        /* \"Final_Project/IndianPoker_2.sol\":4108:4302  Player({... */\n      dup2\n      mstore\n      0x20\n      add\n        /* \"Final_Project/IndianPoker_2.sol\":4203:4204  0 */\n      0x00\n        /* \"Final_Project/IndianPoker_2.sol\":4108:4302  Player({... */\n      0xff\n      and\n      dup2\n      mstore\n      0x20\n      add\n        /* \"Final_Project/IndianPoker_2.sol\":4232:4233  0 */\n      0x00\n        /* \"Final_Project/IndianPoker_2.sol\":4108:4302  Player({... */\n      dup2\n      mstore\n      0x20\n      add\n        /* \"Final_Project/IndianPoker_2.sol\":4256:4261  false */\n      0x00\n        /* \"Final_Project/IndianPoker_2.sol\":4108:4302  Player({... */\n      iszero\n      iszero\n      dup2\n      mstore\n      0x20\n      add\n        /* \"Final_Project/IndianPoker_2.sol\":4285:4290  false */\n      0x00\n        /* \"Final_Project/IndianPoker_2.sol\":4108:4302  Player({... */\n      iszero\n      iszero\n      dup2\n      mstore\n      pop\n        /* \"Final_Project/IndianPoker_2.sol\":4086:4093  players */\n      0x01\n        /* \"Final_Project/IndianPoker_2.sol\":4086:4105  players[msg.sender] */\n      0x00\n        /* \"Final_Project/IndianPoker_2.sol\":4094:4104  msg.sender */\n      caller\n        /* \"Final_Project/IndianPoker_2.sol\":4086:4105  players[msg.sender] */\n      0xffffffffffffffffffffffffffffffffffffffff\n      and\n      0xffffffffffffffffffffffffffffffffffffffff\n      and\n      dup2\n      mstore\n      0x20\n      add\n      swap1\n      dup2\n      mstore\n      0x20\n      add\n      0x00\n      keccak256\n        /* \"Final_Project/IndianPoker_2.sol\":4086:4302  players[msg.sender] = Player({... */\n      0x00\n      dup3\n      add\n      mload\n      dup2\n      0x00\n      add\n      exp(0x0100, 0x00)\n      dup2\n      sload\n      dup2\n      0xffffffffffffffffffffffffffffffffffffffff\n      mul\n      not\n      and\n      swap1\n      dup4\n      0xffffffffffffffffffffffffffffffffffffffff\n      and\n      mul\n      or\n      swap1\n      sstore\n      pop\n      0x20\n      dup3\n      add\n      mload\n      dup2\n      0x01\n      add\n      sstore\n      0x40\n      dup3\n      add\n      mload\n      dup2\n      0x02\n      add\n      exp(0x0100, 0x00)\n      dup2\n      sload\n      dup2\n      0xff\n      mul\n      not\n      and\n      swap1\n      dup4\n      0xff\n      and\n      mul\n      or\n      swap1\n      sstore\n      pop\n      0x60\n      dup3\n      add\n      mload\n      dup2\n      0x03\n      add\n      sstore\n      0x80\n      dup3\n      add\n      mload\n      dup2\n      0x04\n      add\n      exp(0x0100, 0x00)\n      dup2\n      sload\n      dup2\n      0xff\n      mul\n      not\n      and\n      swap1\n      dup4\n      iszero\n      iszero\n      mul\n      or\n      swap1\n      sstore\n      pop\n      0xa0\n      dup3\n      add\n      mload\n      dup2\n      0x04\n      add\n      exp(0x0100, 0x01)\n      dup2\n      sload\n      dup2\n      0xff\n      mul\n      not\n      and\n      swap1\n      dup4\n      iszero\n      iszero\n      mul\n      or\n      swap1\n      sstore\n      pop\n      swap1\n      pop\n      pop\n        /* \"Final_Project/IndianPoker_2.sol\":4340:4350  msg.sender */\n      caller\n        /* \"Final_Project/IndianPoker_2.sol\":4313:4324  playerAddrs */\n      0x02\n        /* \"Final_Project/IndianPoker_2.sol\":4325:4336  playerCount */\n      0x04\n      0x00\n      swap1\n      sload\n      swap1\n      0x0100\n      exp\n      swap1\n      div\n      0xff\n      and\n        /* \"Final_Project/IndianPoker_2.sol\":4313:4337  playerAddrs[playerCount] */\n      0xff\n      and\n      0x02\n      dup2\n      lt\n      tag_244\n      jumpi\n      tag_245\n      tag_118\n      jump\t// in\n    tag_245:\n    tag_244:\n      add\n      0x00\n        /* \"Final_Project/IndianPoker_2.sol\":4313:4350  playerAddrs[playerCount] = msg.sender */\n      0x0100\n      exp\n      dup2\n      sload\n      dup2\n      0xffffffffffffffffffffffffffffffffffffffff\n      mul\n      not\n      and\n      swap1\n      dup4\n      0xffffffffffffffffffffffffffffffffffffffff\n      and\n      mul\n      or\n      swap1\n      sstore\n      pop\n        /* \"Final_Project/IndianPoker_2.sol\":4361:4372  playerCount */\n      0x04\n      0x00\n        /* \"Final_Project/IndianPoker_2.sol\":4361:4374  playerCount++ */\n      dup2\n      dup2\n      swap1\n      sload\n      swap1\n      0x0100\n      exp\n      swap1\n      div\n      0xff\n      and\n      dup1\n      swap3\n      swap2\n      swap1\n      tag_247\n      swap1\n      tag_248\n      jump\t// in\n    tag_247:\n      swap2\n      swap1\n      0x0100\n      exp\n      dup2\n      sload\n      dup2\n      0xff\n      mul\n      not\n      and\n      swap1\n      dup4\n      0xff\n      and\n      mul\n      or\n      swap1\n      sstore\n      pop\n      pop\n        /* \"Final_Project/IndianPoker_2.sol\":4401:4411  msg.sender */\n      caller\n        /* \"Final_Project/IndianPoker_2.sol\":4390:4412  GameJoined(msg.sender) */\n      0xffffffffffffffffffffffffffffffffffffffff\n      and\n      0xd196f2977fe2b8b63f631a98b5e5967845e4fcf00f48ced5587cafe76122ea9c\n      mload(0x40)\n      mload(0x40)\n      dup1\n      swap2\n      sub\n      swap1\n      log2\n        /* \"Final_Project/IndianPoker_2.sol\":4496:4497  2 */\n      0x02\n        /* \"Final_Project/IndianPoker_2.sol\":4481:4492  playerCount */\n      0x04\n      0x00\n      swap1\n      sload\n      swap1\n      0x0100\n      exp\n      swap1\n      div\n      0xff\n      and\n        /* \"Final_Project/IndianPoker_2.sol\":4481:4497  playerCount == 2 */\n      0xff\n      and\n      sub\n        /* \"Final_Project/IndianPoker_2.sol\":4477:4537  if (playerCount == 2) {... */\n      tag_249\n      jumpi\n        /* \"Final_Project/IndianPoker_2.sol\":4514:4525  startGame() */\n      tag_250\n        /* \"Final_Project/IndianPoker_2.sol\":4514:4523  startGame */\n      tag_251\n        /* \"Final_Project/IndianPoker_2.sol\":4514:4525  startGame() */\n      jump\t// in\n    tag_250:\n        /* \"Final_Project/IndianPoker_2.sol\":4477:4537  if (playerCount == 2) {... */\n    tag_249:\n        /* \"Final_Project/IndianPoker_2.sol\":3686:4544  function joinGame() external payable {... */\n      jump\t// out\n        /* \"Final_Project/IndianPoker_2.sol\":1226:1251  uint256 public currentBet */\n    tag_73:\n      sload(0x06)\n      dup2\n      jump\t// out\n        /* \"Final_Project/IndianPoker_2.sol\":999:1040  mapping(address => Player) public players */\n    tag_78:\n      mstore(0x20, 0x01)\n      dup1\n      0x00\n      mstore\n      keccak256(0x00, 0x40)\n      0x00\n      swap2\n      pop\n      swap1\n      pop\n      dup1\n      0x00\n      add\n      0x00\n      swap1\n      sload\n      swap1\n      0x0100\n      exp\n      swap1\n      div\n      0xffffffffffffffffffffffffffffffffffffffff\n      and\n      swap1\n      dup1\n      0x01\n      add\n      sload\n      swap1\n      dup1\n      0x02\n      add\n      0x00\n      swap1\n      sload\n      swap1\n      0x0100\n      exp\n      swap1\n      div\n      0xff\n      and\n      swap1\n      dup1\n      0x03\n      add\n      sload\n      swap1\n      dup1\n      0x04\n      add\n      0x00\n      swap1\n      sload\n      swap1\n      0x0100\n      exp\n      swap1\n      div\n      0xff\n      and\n      swap1\n      dup1\n      0x04\n      add\n      0x01\n      swap1\n      sload\n      swap1\n      0x0100\n      exp\n      swap1\n      div\n      0xff\n      and\n      swap1\n      pop\n      dup7\n      jump\t// out\n        /* \"Final_Project/IndianPoker_2.sol\":9692:10670  function fold() external {... */\n    tag_83:\n        /* \"Final_Project/IndianPoker_2.sol\":9745:9758  State.Betting */\n      0x02\n        /* \"Final_Project/IndianPoker_2.sol\":9736:9758  state == State.Betting */\n      0x04\n      dup2\n      gt\n      iszero\n      tag_253\n      jumpi\n      tag_254\n      tag_110\n      jump\t// in\n    tag_254:\n    tag_253:\n        /* \"Final_Project/IndianPoker_2.sol\":9736:9741  state */\n      0x00\n      0x00\n      swap1\n      sload\n      swap1\n      0x0100\n      exp\n      swap1\n      div\n      0xff\n      and\n        /* \"Final_Project/IndianPoker_2.sol\":9736:9758  state == State.Betting */\n      0x04\n      dup2\n      gt\n      iszero\n      tag_255\n      jumpi\n      tag_256\n      tag_110\n      jump\t// in\n    tag_256:\n    tag_255:\n      eq\n        /* \"Final_Project/IndianPoker_2.sol\":9728:9784  require(state == State.Betting, \"Not in betting phase.\") */\n      tag_257\n      jumpi\n      mload(0x40)\n      0x08c379a000000000000000000000000000000000000000000000000000000000\n      dup2\n      mstore\n      0x04\n      add\n      tag_258\n      swap1\n      tag_115\n      jump\t// in\n    tag_258:\n      mload(0x40)\n      dup1\n      swap2\n      sub\n      swap1\n      revert\n    tag_257:\n        /* \"Final_Project/IndianPoker_2.sol\":9817:9828  playerAddrs */\n      0x02\n        /* \"Final_Project/IndianPoker_2.sol\":9829:9842  currentPlayer */\n      0x07\n      0x00\n      swap1\n      sload\n      swap1\n      0x0100\n      exp\n      swap1\n      div\n      0xff\n      and\n        /* \"Final_Project/IndianPoker_2.sol\":9817:9843  playerAddrs[currentPlayer] */\n      0xff\n      and\n      0x02\n      dup2\n      lt\n      tag_259\n      jumpi\n      tag_260\n      tag_118\n      jump\t// in\n    tag_260:\n    tag_259:\n      add\n      0x00\n      swap1\n      sload\n      swap1\n      0x0100\n      exp\n      swap1\n      div\n      0xffffffffffffffffffffffffffffffffffffffff\n      and\n        /* \"Final_Project/IndianPoker_2.sol\":9803:9843  msg.sender == playerAddrs[currentPlayer] */\n      0xffffffffffffffffffffffffffffffffffffffff\n      and\n        /* \"Final_Project/IndianPoker_2.sol\":9803:9813  msg.sender */\n      caller\n        /* \"Final_Project/IndianPoker_2.sol\":9803:9843  msg.sender == playerAddrs[currentPlayer] */\n      0xffffffffffffffffffffffffffffffffffffffff\n      and\n      eq\n        /* \"Final_Project/IndianPoker_2.sol\":9795:9862  require(msg.sender == playerAddrs[currentPlayer], \"Not your turn.\") */\n      tag_262\n      jumpi\n      mload(0x40)\n      0x08c379a000000000000000000000000000000000000000000000000000000000\n      dup2\n      mstore\n      0x04\n      add\n      tag_263\n      swap1\n      tag_122\n      jump\t// in\n    tag_263:\n      mload(0x40)\n      dup1\n      swap2\n      sub\n      swap1\n      revert\n    tag_262:\n        /* \"Final_Project/IndianPoker_2.sol\":9873:9889  Player storage p */\n      0x00\n        /* \"Final_Project/IndianPoker_2.sol\":9892:9899  players */\n      0x01\n        /* \"Final_Project/IndianPoker_2.sol\":9892:9911  players[msg.sender] */\n      0x00\n        /* \"Final_Project/IndianPoker_2.sol\":9900:9910  msg.sender */\n      caller\n        /* \"Final_Project/IndianPoker_2.sol\":9892:9911  players[msg.sender] */\n      0xffffffffffffffffffffffffffffffffffffffff\n      and\n      0xffffffffffffffffffffffffffffffffffffffff\n      and\n      dup2\n      mstore\n      0x20\n      add\n      swap1\n      dup2\n      mstore\n      0x20\n      add\n      0x00\n      keccak256\n        /* \"Final_Project/IndianPoker_2.sol\":9873:9911  Player storage p = players[msg.sender] */\n      swap1\n      pop\n        /* \"Final_Project/IndianPoker_2.sol\":9931:9932  p */\n      dup1\n        /* \"Final_Project/IndianPoker_2.sol\":9931:9939  p.folded */\n      0x04\n      add\n      0x00\n      swap1\n      sload\n      swap1\n      0x0100\n      exp\n      swap1\n      div\n      0xff\n      and\n        /* \"Final_Project/IndianPoker_2.sol\":9930:9939  !p.folded */\n      iszero\n        /* \"Final_Project/IndianPoker_2.sol\":9922:9968  require(!p.folded, \"You have already folded.\") */\n      tag_264\n      jumpi\n      mload(0x40)\n      0x08c379a000000000000000000000000000000000000000000000000000000000\n      dup2\n      mstore\n      0x04\n      add\n      tag_265\n      swap1\n      tag_125\n      jump\t// in\n    tag_265:\n      mload(0x40)\n      dup1\n      swap2\n      sub\n      swap1\n      revert\n    tag_264:\n        /* \"Final_Project/IndianPoker_2.sol\":10014:10018  true */\n      0x01\n        /* \"Final_Project/IndianPoker_2.sol\":10003:10004  p */\n      dup2\n        /* \"Final_Project/IndianPoker_2.sol\":10003:10011  p.folded */\n      0x04\n      add\n      0x00\n        /* \"Final_Project/IndianPoker_2.sol\":10003:10018  p.folded = true */\n      0x0100\n      exp\n      dup2\n      sload\n      dup2\n      0xff\n      mul\n      not\n      and\n      swap1\n      dup4\n      iszero\n      iszero\n      mul\n      or\n      swap1\n      sstore\n      pop\n        /* \"Final_Project/IndianPoker_2.sol\":10041:10051  msg.sender */\n      caller\n        /* \"Final_Project/IndianPoker_2.sol\":10034:10052  Folded(msg.sender) */\n      0xffffffffffffffffffffffffffffffffffffffff\n      and\n      0x199c8c7c36a66595192ead9dc8215b0688b07507960b0065d586a114d469a975\n      mload(0x40)\n      mload(0x40)\n      dup1\n      swap2\n      sub\n      swap1\n      log2\n        /* \"Final_Project/IndianPoker_2.sol\":10133:10135  14 */\n      0x0e\n        /* \"Final_Project/IndianPoker_2.sol\":10123:10124  p */\n      dup2\n        /* \"Final_Project/IndianPoker_2.sol\":10123:10129  p.card */\n      0x02\n      add\n      0x00\n      swap1\n      sload\n      swap1\n      0x0100\n      exp\n      swap1\n      div\n      0xff\n      and\n        /* \"Final_Project/IndianPoker_2.sol\":10123:10135  p.card == 14 */\n      0xff\n      and\n      sub\n        /* \"Final_Project/IndianPoker_2.sol\":10119:10456  if (p.card == 14) {... */\n      tag_266\n      jumpi\n        /* \"Final_Project/IndianPoker_2.sol\":10152:10167  uint256 penalty */\n      0x00\n        /* \"Final_Project/IndianPoker_2.sol\":10201:10202  1 */\n      0x01\n        /* \"Final_Project/IndianPoker_2.sol\":10196:10197  2 */\n      0x02\n        /* \"Final_Project/IndianPoker_2.sol\":10186:10187  p */\n      dup4\n        /* \"Final_Project/IndianPoker_2.sol\":10186:10193  p.chips */\n      0x01\n      add\n      sload\n        /* \"Final_Project/IndianPoker_2.sol\":10186:10197  p.chips % 2 */\n      tag_267\n      swap2\n      swap1\n      tag_268\n      jump\t// in\n    tag_267:\n        /* \"Final_Project/IndianPoker_2.sol\":10186:10202  p.chips % 2 == 1 */\n      sub\n        /* \"Final_Project/IndianPoker_2.sol\":10182:10328  if (p.chips % 2 == 1) {... */\n      tag_269\n      jumpi\n        /* \"Final_Project/IndianPoker_2.sol\":10249:10250  1 */\n      0x01\n        /* \"Final_Project/IndianPoker_2.sol\":10244:10245  2 */\n      0x02\n        /* \"Final_Project/IndianPoker_2.sol\":10234:10235  p */\n      dup4\n        /* \"Final_Project/IndianPoker_2.sol\":10234:10241  p.chips */\n      0x01\n      add\n      sload\n        /* \"Final_Project/IndianPoker_2.sol\":10234:10245  p.chips / 2 */\n      tag_270\n      swap2\n      swap1\n      tag_91\n      jump\t// in\n    tag_270:\n        /* \"Final_Project/IndianPoker_2.sol\":10233:10250  (p.chips / 2) + 1 */\n      tag_271\n      swap2\n      swap1\n      tag_93\n      jump\t// in\n    tag_271:\n        /* \"Final_Project/IndianPoker_2.sol\":10223:10250  penalty = (p.chips / 2) + 1 */\n      swap1\n      pop\n        /* \"Final_Project/IndianPoker_2.sol\":10182:10328  if (p.chips % 2 == 1) {... */\n      jump(tag_272)\n    tag_269:\n        /* \"Final_Project/IndianPoker_2.sol\":10311:10312  2 */\n      0x02\n        /* \"Final_Project/IndianPoker_2.sol\":10301:10302  p */\n      dup3\n        /* \"Final_Project/IndianPoker_2.sol\":10301:10308  p.chips */\n      0x01\n      add\n      sload\n        /* \"Final_Project/IndianPoker_2.sol\":10301:10312  p.chips / 2 */\n      tag_273\n      swap2\n      swap1\n      tag_91\n      jump\t// in\n    tag_273:\n        /* \"Final_Project/IndianPoker_2.sol\":10291:10312  penalty = p.chips / 2 */\n      swap1\n      pop\n        /* \"Final_Project/IndianPoker_2.sol\":10182:10328  if (p.chips % 2 == 1) {... */\n    tag_272:\n        /* \"Final_Project/IndianPoker_2.sol\":10356:10357  0 */\n      0x00\n        /* \"Final_Project/IndianPoker_2.sol\":10346:10353  penalty */\n      dup2\n        /* \"Final_Project/IndianPoker_2.sol\":10346:10357  penalty > 0 */\n      gt\n        /* \"Final_Project/IndianPoker_2.sol\":10342:10445  if (penalty > 0) {... */\n      iszero\n      tag_274\n      jumpi\n        /* \"Final_Project/IndianPoker_2.sol\":10389:10396  penalty */\n      dup1\n        /* \"Final_Project/IndianPoker_2.sol\":10378:10379  p */\n      dup3\n        /* \"Final_Project/IndianPoker_2.sol\":10378:10385  p.chips */\n      0x01\n      add\n      0x00\n        /* \"Final_Project/IndianPoker_2.sol\":10378:10396  p.chips -= penalty */\n      dup3\n      dup3\n      sload\n      tag_275\n      swap2\n      swap1\n      tag_101\n      jump\t// in\n    tag_275:\n      swap3\n      pop\n      pop\n      dup2\n      swap1\n      sstore\n      pop\n        /* \"Final_Project/IndianPoker_2.sol\":10422:10429  penalty */\n      dup1\n        /* \"Final_Project/IndianPoker_2.sol\":10415:10418  pot */\n      0x05\n      0x00\n        /* \"Final_Project/IndianPoker_2.sol\":10415:10429  pot += penalty */\n      dup3\n      dup3\n      sload\n      tag_276\n      swap2\n      swap1\n      tag_93\n      jump\t// in\n    tag_276:\n      swap3\n      pop\n      pop\n      dup2\n      swap1\n      sstore\n      pop\n        /* \"Final_Project/IndianPoker_2.sol\":10342:10445  if (penalty > 0) {... */\n    tag_274:\n        /* \"Final_Project/IndianPoker_2.sol\":10137:10456  {... */\n      pop\n        /* \"Final_Project/IndianPoker_2.sol\":10119:10456  if (p.card == 14) {... */\n    tag_266:\n        /* \"Final_Project/IndianPoker_2.sol\":10547:10565  address winnerAddr */\n      0x00\n        /* \"Final_Project/IndianPoker_2.sol\":10568:10579  playerAddrs */\n      0x02\n        /* \"Final_Project/IndianPoker_2.sol\":10584:10597  currentPlayer */\n      0x07\n      0x00\n      swap1\n      sload\n      swap1\n      0x0100\n      exp\n      swap1\n      div\n      0xff\n      and\n        /* \"Final_Project/IndianPoker_2.sol\":10580:10581  1 */\n      0x01\n        /* \"Final_Project/IndianPoker_2.sol\":10580:10597  1 - currentPlayer */\n      tag_277\n      swap2\n      swap1\n      tag_137\n      jump\t// in\n    tag_277:\n        /* \"Final_Project/IndianPoker_2.sol\":10568:10598  playerAddrs[1 - currentPlayer] */\n      0xff\n      and\n      0x02\n      dup2\n      lt\n      tag_278\n      jumpi\n      tag_279\n      tag_118\n      jump\t// in\n    tag_279:\n    tag_278:\n      add\n      0x00\n      swap1\n      sload\n      swap1\n      0x0100\n      exp\n      swap1\n      div\n      0xffffffffffffffffffffffffffffffffffffffff\n      and\n        /* \"Final_Project/IndianPoker_2.sol\":10547:10598  address winnerAddr = playerAddrs[1 - currentPlayer] */\n      swap1\n      pop\n        /* \"Final_Project/IndianPoker_2.sol\":10609:10629  awardPot(winnerAddr) */\n      tag_281\n        /* \"Final_Project/IndianPoker_2.sol\":10618:10628  winnerAddr */\n      dup2\n        /* \"Final_Project/IndianPoker_2.sol\":10609:10617  awardPot */\n      tag_282\n        /* \"Final_Project/IndianPoker_2.sol\":10609:10629  awardPot(winnerAddr) */\n      jump\t// in\n    tag_281:\n        /* \"Final_Project/IndianPoker_2.sol\":10648:10662  State.Finished */\n      0x04\n        /* \"Final_Project/IndianPoker_2.sol\":10640:10645  state */\n      0x00\n      0x00\n        /* \"Final_Project/IndianPoker_2.sol\":10640:10662  state = State.Finished */\n      0x0100\n      exp\n      dup2\n      sload\n      dup2\n      0xff\n      mul\n      not\n      and\n      swap1\n      dup4\n      0x04\n      dup2\n      gt\n      iszero\n      tag_283\n      jumpi\n      tag_284\n      tag_110\n      jump\t// in\n    tag_284:\n    tag_283:\n      mul\n      or\n      swap1\n      sstore\n      pop\n        /* \"Final_Project/IndianPoker_2.sol\":9717:10670  {... */\n      pop\n      pop\n        /* \"Final_Project/IndianPoker_2.sol\":9692:10670  function fold() external {... */\n      jump\t// out\n        /* \"Final_Project/IndianPoker_2.sol\":10881:12061  function showdown() private {... */\n    tag_176:\n        /* \"Final_Project/IndianPoker_2.sol\":10920:10937  Player storage p0 */\n      0x00\n        /* \"Final_Project/IndianPoker_2.sol\":10940:10947  players */\n      0x01\n        /* \"Final_Project/IndianPoker_2.sol\":10940:10963  players[playerAddrs[0]] */\n      0x00\n        /* \"Final_Project/IndianPoker_2.sol\":10948:10959  playerAddrs */\n      0x02\n        /* \"Final_Project/IndianPoker_2.sol\":10960:10961  0 */\n      0x00\n        /* \"Final_Project/IndianPoker_2.sol\":10948:10962  playerAddrs[0] */\n      0x02\n      dup2\n      lt\n      tag_286\n      jumpi\n      tag_287\n      tag_118\n      jump\t// in\n    tag_287:\n    tag_286:\n      add\n      0x00\n      swap1\n      sload\n      swap1\n      0x0100\n      exp\n      swap1\n      div\n      0xffffffffffffffffffffffffffffffffffffffff\n      and\n        /* \"Final_Project/IndianPoker_2.sol\":10940:10963  players[playerAddrs[0]] */\n      0xffffffffffffffffffffffffffffffffffffffff\n      and\n      0xffffffffffffffffffffffffffffffffffffffff\n      and\n      dup2\n      mstore\n      0x20\n      add\n      swap1\n      dup2\n      mstore\n      0x20\n      add\n      0x00\n      keccak256\n        /* \"Final_Project/IndianPoker_2.sol\":10920:10963  Player storage p0 = players[playerAddrs[0]] */\n      swap1\n      pop\n        /* \"Final_Project/IndianPoker_2.sol\":10974:10991  Player storage p1 */\n      0x00\n        /* \"Final_Project/IndianPoker_2.sol\":10994:11001  players */\n      0x01\n        /* \"Final_Project/IndianPoker_2.sol\":10994:11017  players[playerAddrs[1]] */\n      0x00\n        /* \"Final_Project/IndianPoker_2.sol\":11002:11013  playerAddrs */\n      0x02\n        /* \"Final_Project/IndianPoker_2.sol\":11014:11015  1 */\n      0x01\n        /* \"Final_Project/IndianPoker_2.sol\":11002:11016  playerAddrs[1] */\n      0x02\n      dup2\n      lt\n      tag_289\n      jumpi\n      tag_290\n      tag_118\n      jump\t// in\n    tag_290:\n    tag_289:\n      add\n      0x00\n      swap1\n      sload\n      swap1\n      0x0100\n      exp\n      swap1\n      div\n      0xffffffffffffffffffffffffffffffffffffffff\n      and\n        /* \"Final_Project/IndianPoker_2.sol\":10994:11017  players[playerAddrs[1]] */\n      0xffffffffffffffffffffffffffffffffffffffff\n      and\n      0xffffffffffffffffffffffffffffffffffffffff\n      and\n      dup2\n      mstore\n      0x20\n      add\n      swap1\n      dup2\n      mstore\n      0x20\n      add\n      0x00\n      keccak256\n        /* \"Final_Project/IndianPoker_2.sol\":10974:11017  Player storage p1 = players[playerAddrs[1]] */\n      swap1\n      pop\n        /* \"Final_Project/IndianPoker_2.sol\":11030:11041  uint8 card0 */\n      0x00\n        /* \"Final_Project/IndianPoker_2.sol\":11044:11046  p0 */\n      dup3\n        /* \"Final_Project/IndianPoker_2.sol\":11044:11051  p0.card */\n      0x02\n      add\n      0x00\n      swap1\n      sload\n      swap1\n      0x0100\n      exp\n      swap1\n      div\n      0xff\n      and\n        /* \"Final_Project/IndianPoker_2.sol\":11030:11051  uint8 card0 = p0.card */\n      swap1\n      pop\n        /* \"Final_Project/IndianPoker_2.sol\":11062:11073  uint8 card1 */\n      0x00\n        /* \"Final_Project/IndianPoker_2.sol\":11076:11078  p1 */\n      dup3\n        /* \"Final_Project/IndianPoker_2.sol\":11076:11083  p1.card */\n      0x02\n      add\n      0x00\n      swap1\n      sload\n      swap1\n      0x0100\n      exp\n      swap1\n      div\n      0xff\n      and\n        /* \"Final_Project/IndianPoker_2.sol\":11062:11083  uint8 card1 = p1.card */\n      swap1\n      pop\n        /* \"Final_Project/IndianPoker_2.sol\":11109:11114  card1 */\n      dup1\n        /* \"Final_Project/IndianPoker_2.sol\":11100:11114  card0 == card1 */\n      0xff\n      and\n        /* \"Final_Project/IndianPoker_2.sol\":11100:11105  card0 */\n      dup3\n        /* \"Final_Project/IndianPoker_2.sol\":11100:11114  card0 == card1 */\n      0xff\n      and\n      sub\n        /* \"Final_Project/IndianPoker_2.sol\":11096:11662  if (card0 == card1) {... */\n      tag_292\n      jumpi\n        /* \"Final_Project/IndianPoker_2.sol\":11215:11227  bytes32 seed */\n      0x00\n        /* \"Final_Project/IndianPoker_2.sol\":11257:11272  block.timestamp */\n      timestamp\n        /* \"Final_Project/IndianPoker_2.sol\":11274:11286  block.number */\n      number\n        /* \"Final_Project/IndianPoker_2.sol\":11240:11287  abi.encodePacked(block.timestamp, block.number) */\n      add(0x20, mload(0x40))\n      tag_293\n      swap3\n      swap2\n      swap1\n      tag_294\n      jump\t// in\n    tag_293:\n      mload(0x40)\n      0x20\n      dup2\n      dup4\n      sub\n      sub\n      dup2\n      mstore\n      swap1\n      0x40\n      mstore\n        /* \"Final_Project/IndianPoker_2.sol\":11230:11288  keccak256(abi.encodePacked(block.timestamp, block.number)) */\n      dup1\n      mload\n      swap1\n      0x20\n      add\n      keccak256\n        /* \"Final_Project/IndianPoker_2.sol\":11215:11288  bytes32 seed = keccak256(abi.encodePacked(block.timestamp, block.number)) */\n      swap1\n      pop\n        /* \"Final_Project/IndianPoker_2.sol\":11303:11313  uint8 new0 */\n      0x00\n        /* \"Final_Project/IndianPoker_2.sol\":11376:11378  14 */\n      0x0e\n        /* \"Final_Project/IndianPoker_2.sol\":11357:11361  seed */\n      dup3\n        /* \"Final_Project/IndianPoker_2.sol\":11363:11365  p0 */\n      dup8\n        /* \"Final_Project/IndianPoker_2.sol\":11363:11370  p0.addr */\n      0x00\n      add\n      0x00\n      swap1\n      sload\n      swap1\n      0x0100\n      exp\n      swap1\n      div\n      0xffffffffffffffffffffffffffffffffffffffff\n      and\n        /* \"Final_Project/IndianPoker_2.sol\":11340:11371  abi.encodePacked(seed, p0.addr) */\n      add(0x20, mload(0x40))\n      tag_295\n      swap3\n      swap2\n      swap1\n      tag_296\n      jump\t// in\n    tag_295:\n      mload(0x40)\n      0x20\n      dup2\n      dup4\n      sub\n      sub\n      dup2\n      mstore\n      swap1\n      0x40\n      mstore\n        /* \"Final_Project/IndianPoker_2.sol\":11330:11372  keccak256(abi.encodePacked(seed, p0.addr)) */\n      dup1\n      mload\n      swap1\n      0x20\n      add\n      keccak256\n        /* \"Final_Project/IndianPoker_2.sol\":11322:11373  uint256(keccak256(abi.encodePacked(seed, p0.addr))) */\n      0x00\n      shr\n        /* \"Final_Project/IndianPoker_2.sol\":11322:11378  uint256(keccak256(abi.encodePacked(seed, p0.addr))) % 14 */\n      tag_297\n      swap2\n      swap1\n      tag_268\n      jump\t// in\n    tag_297:\n        /* \"Final_Project/IndianPoker_2.sol\":11303:11379  uint8 new0 = uint8(uint256(keccak256(abi.encodePacked(seed, p0.addr))) % 14) */\n      swap1\n      pop\n        /* \"Final_Project/IndianPoker_2.sol\":11394:11404  uint8 new1 */\n      0x00\n        /* \"Final_Project/IndianPoker_2.sol\":11467:11469  14 */\n      0x0e\n        /* \"Final_Project/IndianPoker_2.sol\":11448:11452  seed */\n      dup4\n        /* \"Final_Project/IndianPoker_2.sol\":11454:11456  p1 */\n      dup8\n        /* \"Final_Project/IndianPoker_2.sol\":11454:11461  p1.addr */\n      0x00\n      add\n      0x00\n      swap1\n      sload\n      swap1\n      0x0100\n      exp\n      swap1\n      div\n      0xffffffffffffffffffffffffffffffffffffffff\n      and\n        /* \"Final_Project/IndianPoker_2.sol\":11431:11462  abi.encodePacked(seed, p1.addr) */\n      add(0x20, mload(0x40))\n      tag_298\n      swap3\n      swap2\n      swap1\n      tag_296\n      jump\t// in\n    tag_298:\n      mload(0x40)\n      0x20\n      dup2\n      dup4\n      sub\n      sub\n      dup2\n      mstore\n      swap1\n      0x40\n      mstore\n        /* \"Final_Project/IndianPoker_2.sol\":11421:11463  keccak256(abi.encodePacked(seed, p1.addr)) */\n      dup1\n      mload\n      swap1\n      0x20\n      add\n      keccak256\n        /* \"Final_Project/IndianPoker_2.sol\":11413:11464  uint256(keccak256(abi.encodePacked(seed, p1.addr))) */\n      0x00\n      shr\n        /* \"Final_Project/IndianPoker_2.sol\":11413:11469  uint256(keccak256(abi.encodePacked(seed, p1.addr))) % 14 */\n      tag_299\n      swap2\n      swap1\n      tag_268\n      jump\t// in\n    tag_299:\n        /* \"Final_Project/IndianPoker_2.sol\":11394:11470  uint8 new1 = uint8(uint256(keccak256(abi.encodePacked(seed, p1.addr))) % 14) */\n      swap1\n      pop\n        /* \"Final_Project/IndianPoker_2.sol\":11497:11498  0 */\n      0x00\n        /* \"Final_Project/IndianPoker_2.sol\":11489:11493  new0 */\n      dup3\n        /* \"Final_Project/IndianPoker_2.sol\":11489:11498  new0 == 0 */\n      0xff\n      and\n      sub\n        /* \"Final_Project/IndianPoker_2.sol\":11485:11534  if (new0 == 0) { new0 = 15; } else { new0 += 1; } */\n      tag_300\n      jumpi\n        /* \"Final_Project/IndianPoker_2.sol\":11509:11511  15 */\n      0x0f\n        /* \"Final_Project/IndianPoker_2.sol\":11502:11511  new0 = 15 */\n      swap2\n      pop\n        /* \"Final_Project/IndianPoker_2.sol\":11485:11534  if (new0 == 0) { new0 = 15; } else { new0 += 1; } */\n      jump(tag_301)\n    tag_300:\n        /* \"Final_Project/IndianPoker_2.sol\":11530:11531  1 */\n      0x01\n        /* \"Final_Project/IndianPoker_2.sol\":11522:11531  new0 += 1 */\n      dup3\n      tag_302\n      swap2\n      swap1\n      tag_303\n      jump\t// in\n    tag_302:\n      swap2\n      pop\n        /* \"Final_Project/IndianPoker_2.sol\":11485:11534  if (new0 == 0) { new0 = 15; } else { new0 += 1; } */\n    tag_301:\n        /* \"Final_Project/IndianPoker_2.sol\":11560:11561  0 */\n      0x00\n        /* \"Final_Project/IndianPoker_2.sol\":11552:11556  new1 */\n      dup2\n        /* \"Final_Project/IndianPoker_2.sol\":11552:11561  new1 == 0 */\n      0xff\n      and\n      sub\n        /* \"Final_Project/IndianPoker_2.sol\":11548:11597  if (new1 == 0) { new1 = 15; } else { new1 += 1; } */\n      tag_304\n      jumpi\n        /* \"Final_Project/IndianPoker_2.sol\":11572:11574  15 */\n      0x0f\n        /* \"Final_Project/IndianPoker_2.sol\":11565:11574  new1 = 15 */\n      swap1\n      pop\n        /* \"Final_Project/IndianPoker_2.sol\":11548:11597  if (new1 == 0) { new1 = 15; } else { new1 += 1; } */\n      jump(tag_305)\n    tag_304:\n        /* \"Final_Project/IndianPoker_2.sol\":11593:11594  1 */\n      0x01\n        /* \"Final_Project/IndianPoker_2.sol\":11585:11594  new1 += 1 */\n      dup2\n      tag_306\n      swap2\n      swap1\n      tag_303\n      jump\t// in\n    tag_306:\n      swap1\n      pop\n        /* \"Final_Project/IndianPoker_2.sol\":11548:11597  if (new1 == 0) { new1 = 15; } else { new1 += 1; } */\n    tag_305:\n        /* \"Final_Project/IndianPoker_2.sol\":11619:11623  new0 */\n      dup2\n        /* \"Final_Project/IndianPoker_2.sol\":11611:11623  card0 = new0 */\n      swap5\n      pop\n        /* \"Final_Project/IndianPoker_2.sol\":11646:11650  new1 */\n      dup1\n        /* \"Final_Project/IndianPoker_2.sol\":11638:11650  card1 = new1 */\n      swap4\n      pop\n        /* \"Final_Project/IndianPoker_2.sol\":11116:11662  {... */\n      pop\n      pop\n      pop\n        /* \"Final_Project/IndianPoker_2.sol\":11096:11662  if (card0 == card1) {... */\n    tag_292:\n        /* \"Final_Project/IndianPoker_2.sol\":11674:11692  address winnerAddr */\n      0x00\n        /* \"Final_Project/IndianPoker_2.sol\":11715:11720  card1 */\n      dup2\n        /* \"Final_Project/IndianPoker_2.sol\":11707:11720  card0 > card1 */\n      0xff\n      and\n        /* \"Final_Project/IndianPoker_2.sol\":11707:11712  card0 */\n      dup4\n        /* \"Final_Project/IndianPoker_2.sol\":11707:11720  card0 > card1 */\n      0xff\n      and\n      gt\n        /* \"Final_Project/IndianPoker_2.sol\":11703:11822  if (card0 > card1) {... */\n      iszero\n      tag_307\n      jumpi\n        /* \"Final_Project/IndianPoker_2.sol\":11750:11752  p0 */\n      dup5\n        /* \"Final_Project/IndianPoker_2.sol\":11750:11757  p0.addr */\n      0x00\n      add\n      0x00\n      swap1\n      sload\n      swap1\n      0x0100\n      exp\n      swap1\n      div\n      0xffffffffffffffffffffffffffffffffffffffff\n      and\n        /* \"Final_Project/IndianPoker_2.sol\":11737:11757  winnerAddr = p0.addr */\n      swap1\n      pop\n        /* \"Final_Project/IndianPoker_2.sol\":11703:11822  if (card0 > card1) {... */\n      jump(tag_308)\n    tag_307:\n        /* \"Final_Project/IndianPoker_2.sol\":11803:11805  p1 */\n      dup4\n        /* \"Final_Project/IndianPoker_2.sol\":11803:11810  p1.addr */\n      0x00\n      add\n      0x00\n      swap1\n      sload\n      swap1\n      0x0100\n      exp\n      swap1\n      div\n      0xffffffffffffffffffffffffffffffffffffffff\n      and\n        /* \"Final_Project/IndianPoker_2.sol\":11790:11810  winnerAddr = p1.addr */\n      swap1\n      pop\n        /* \"Final_Project/IndianPoker_2.sol\":11703:11822  if (card0 > card1) {... */\n    tag_308:\n        /* \"Final_Project/IndianPoker_2.sol\":11839:11983  ShowdownResult(winnerAddr,... */\n      0xdf4a4e7597e09829b2df06da7cf6016a387ce9dad489996539fb4eca3b3415fc\n        /* \"Final_Project/IndianPoker_2.sol\":11854:11864  winnerAddr */\n      dup2\n        /* \"Final_Project/IndianPoker_2.sol\":11894:11896  p0 */\n      dup7\n        /* \"Final_Project/IndianPoker_2.sol\":11894:11901  p0.addr */\n      0x00\n      add\n      0x00\n      swap1\n      sload\n      swap1\n      0x0100\n      exp\n      swap1\n      div\n      0xffffffffffffffffffffffffffffffffffffffff\n      and\n        /* \"Final_Project/IndianPoker_2.sol\":11880:11901  winnerAddr == p0.addr */\n      0xffffffffffffffffffffffffffffffffffffffff\n      and\n        /* \"Final_Project/IndianPoker_2.sol\":11880:11890  winnerAddr */\n      dup4\n        /* \"Final_Project/IndianPoker_2.sol\":11880:11901  winnerAddr == p0.addr */\n      0xffffffffffffffffffffffffffffffffffffffff\n      and\n      eq\n        /* \"Final_Project/IndianPoker_2.sol\":11879:11918  (winnerAddr == p0.addr) ? card0 : card1 */\n      tag_309\n      jumpi\n        /* \"Final_Project/IndianPoker_2.sol\":11913:11918  card1 */\n      dup4\n        /* \"Final_Project/IndianPoker_2.sol\":11879:11918  (winnerAddr == p0.addr) ? card0 : card1 */\n      jump(tag_310)\n    tag_309:\n        /* \"Final_Project/IndianPoker_2.sol\":11905:11910  card0 */\n      dup5\n        /* \"Final_Project/IndianPoker_2.sol\":11879:11918  (winnerAddr == p0.addr) ? card0 : card1 */\n    tag_310:\n        /* \"Final_Project/IndianPoker_2.sol\":11948:11950  p0 */\n      dup8\n        /* \"Final_Project/IndianPoker_2.sol\":11948:11955  p0.addr */\n      0x00\n      add\n      0x00\n      swap1\n      sload\n      swap1\n      0x0100\n      exp\n      swap1\n      div\n      0xffffffffffffffffffffffffffffffffffffffff\n      and\n        /* \"Final_Project/IndianPoker_2.sol\":11934:11955  winnerAddr == p0.addr */\n      0xffffffffffffffffffffffffffffffffffffffff\n      and\n        /* \"Final_Project/IndianPoker_2.sol\":11934:11944  winnerAddr */\n      dup5\n        /* \"Final_Project/IndianPoker_2.sol\":11934:11955  winnerAddr == p0.addr */\n      0xffffffffffffffffffffffffffffffffffffffff\n      and\n      eq\n        /* \"Final_Project/IndianPoker_2.sol\":11933:11972  (winnerAddr == p0.addr) ? card1 : card0 */\n      tag_311\n      jumpi\n        /* \"Final_Project/IndianPoker_2.sol\":11967:11972  card0 */\n      dup6\n        /* \"Final_Project/IndianPoker_2.sol\":11933:11972  (winnerAddr == p0.addr) ? card1 : card0 */\n      jump(tag_312)\n    tag_311:\n        /* \"Final_Project/IndianPoker_2.sol\":11959:11964  card1 */\n      dup5\n        /* \"Final_Project/IndianPoker_2.sol\":11933:11972  (winnerAddr == p0.addr) ? card1 : card0 */\n    tag_312:\n        /* \"Final_Project/IndianPoker_2.sol\":11839:11983  ShowdownResult(winnerAddr,... */\n      mload(0x40)\n      tag_313\n      swap4\n      swap3\n      swap2\n      swap1\n      tag_314\n      jump\t// in\n    tag_313:\n      mload(0x40)\n      dup1\n      swap2\n      sub\n      swap1\n      log1\n        /* \"Final_Project/IndianPoker_2.sol\":11996:12020  awardSidePot(winnerAddr) */\n      tag_315\n        /* \"Final_Project/IndianPoker_2.sol\":12009:12019  winnerAddr */\n      dup2\n        /* \"Final_Project/IndianPoker_2.sol\":11996:12008  awardSidePot */\n      tag_316\n        /* \"Final_Project/IndianPoker_2.sol\":11996:12020  awardSidePot(winnerAddr) */\n      jump\t// in\n    tag_315:\n        /* \"Final_Project/IndianPoker_2.sol\":12039:12053  State.Finished */\n      0x04\n        /* \"Final_Project/IndianPoker_2.sol\":12031:12036  state */\n      0x00\n      0x00\n        /* \"Final_Project/IndianPoker_2.sol\":12031:12053  state = State.Finished */\n      0x0100\n      exp\n      dup2\n      sload\n      dup2\n      0xff\n      mul\n      not\n      and\n      swap1\n      dup4\n      0x04\n      dup2\n      gt\n      iszero\n      tag_317\n      jumpi\n      tag_318\n      tag_110\n      jump\t// in\n    tag_318:\n    tag_317:\n      mul\n      or\n      swap1\n      sstore\n      pop\n        /* \"Final_Project/IndianPoker_2.sol\":10909:12061  {... */\n      pop\n      pop\n      pop\n      pop\n      pop\n        /* \"Final_Project/IndianPoker_2.sol\":10881:12061  function showdown() private {... */\n      jump\t// out\n        /* \"Final_Project/IndianPoker_2.sol\":4661:4942  function startGame() private {... */\n    tag_251:\n        /* \"Final_Project/IndianPoker_2.sol\":4709:4722  State.Dealing */\n      0x01\n        /* \"Final_Project/IndianPoker_2.sol\":4701:4706  state */\n      0x00\n      0x00\n        /* \"Final_Project/IndianPoker_2.sol\":4701:4722  state = State.Dealing */\n      0x0100\n      exp\n      dup2\n      sload\n      dup2\n      0xff\n      mul\n      not\n      and\n      swap1\n      dup4\n      0x04\n      dup2\n      gt\n      iszero\n      tag_320\n      jumpi\n      tag_321\n      tag_110\n      jump\t// in\n    tag_321:\n    tag_320:\n      mul\n      or\n      swap1\n      sstore\n      pop\n        /* \"Final_Project/IndianPoker_2.sol\":4733:4744  dealCards() */\n      tag_322\n        /* \"Final_Project/IndianPoker_2.sol\":4733:4742  dealCards */\n      tag_323\n        /* \"Final_Project/IndianPoker_2.sol\":4733:4744  dealCards() */\n      jump\t// in\n    tag_322:\n        /* \"Final_Project/IndianPoker_2.sol\":4763:4776  State.Betting */\n      0x02\n        /* \"Final_Project/IndianPoker_2.sol\":4755:4760  state */\n      0x00\n      0x00\n        /* \"Final_Project/IndianPoker_2.sol\":4755:4776  state = State.Betting */\n      0x0100\n      exp\n      dup2\n      sload\n      dup2\n      0xff\n      mul\n      not\n      and\n      swap1\n      dup4\n      0x04\n      dup2\n      gt\n      iszero\n      tag_324\n      jumpi\n      tag_325\n      tag_110\n      jump\t// in\n    tag_325:\n    tag_324:\n      mul\n      or\n      swap1\n      sstore\n      pop\n        /* \"Final_Project/IndianPoker_2.sol\":4800:4801  0 */\n      0x00\n        /* \"Final_Project/IndianPoker_2.sol\":4787:4797  currentBet */\n      0x06\n        /* \"Final_Project/IndianPoker_2.sol\":4787:4801  currentBet = 0 */\n      dup2\n      swap1\n      sstore\n      pop\n        /* \"Final_Project/IndianPoker_2.sol\":4818:4819  0 */\n      0x00\n        /* \"Final_Project/IndianPoker_2.sol\":4812:4815  pot */\n      0x05\n        /* \"Final_Project/IndianPoker_2.sol\":4812:4819  pot = 0 */\n      dup2\n      swap1\n      sstore\n      pop\n        /* \"Final_Project/IndianPoker_2.sol\":4846:4847  0 */\n      0x00\n        /* \"Final_Project/IndianPoker_2.sol\":4830:4843  currentPlayer */\n      0x07\n      0x00\n        /* \"Final_Project/IndianPoker_2.sol\":4830:4847  currentPlayer = 0 */\n      0x0100\n      exp\n      dup2\n      sload\n      dup2\n      0xff\n      mul\n      not\n      and\n      swap1\n      dup4\n      0xff\n      and\n      mul\n      or\n      swap1\n      sstore\n      pop\n        /* \"Final_Project/IndianPoker_2.sol\":4863:4934  GameStarted(players[playerAddrs[0]].card, players[playerAddrs[1]].card) */\n      0xfc55cc067c35415abed01111d4da0583804cda015f0d752a5bbb9cfdbcb9031c\n        /* \"Final_Project/IndianPoker_2.sol\":4875:4882  players */\n      0x01\n        /* \"Final_Project/IndianPoker_2.sol\":4875:4898  players[playerAddrs[0]] */\n      0x00\n        /* \"Final_Project/IndianPoker_2.sol\":4883:4894  playerAddrs */\n      0x02\n        /* \"Final_Project/IndianPoker_2.sol\":4895:4896  0 */\n      0x00\n        /* \"Final_Project/IndianPoker_2.sol\":4883:4897  playerAddrs[0] */\n      0x02\n      dup2\n      lt\n      tag_326\n      jumpi\n      tag_327\n      tag_118\n      jump\t// in\n    tag_327:\n    tag_326:\n      add\n      0x00\n      swap1\n      sload\n      swap1\n      0x0100\n      exp\n      swap1\n      div\n      0xffffffffffffffffffffffffffffffffffffffff\n      and\n        /* \"Final_Project/IndianPoker_2.sol\":4875:4898  players[playerAddrs[0]] */\n      0xffffffffffffffffffffffffffffffffffffffff\n      and\n      0xffffffffffffffffffffffffffffffffffffffff\n      and\n      dup2\n      mstore\n      0x20\n      add\n      swap1\n      dup2\n      mstore\n      0x20\n      add\n      0x00\n      keccak256\n        /* \"Final_Project/IndianPoker_2.sol\":4875:4903  players[playerAddrs[0]].card */\n      0x02\n      add\n      0x00\n      swap1\n      sload\n      swap1\n      0x0100\n      exp\n      swap1\n      div\n      0xff\n      and\n        /* \"Final_Project/IndianPoker_2.sol\":4905:4912  players */\n      0x01\n        /* \"Final_Project/IndianPoker_2.sol\":4905:4928  players[playerAddrs[1]] */\n      0x00\n        /* \"Final_Project/IndianPoker_2.sol\":4913:4924  playerAddrs */\n      0x02\n        /* \"Final_Project/IndianPoker_2.sol\":4925:4926  1 */\n      0x01\n        /* \"Final_Project/IndianPoker_2.sol\":4913:4927  playerAddrs[1] */\n      0x02\n      dup2\n      lt\n      tag_329\n      jumpi\n      tag_330\n      tag_118\n      jump\t// in\n    tag_330:\n    tag_329:\n      add\n      0x00\n      swap1\n      sload\n      swap1\n      0x0100\n      exp\n      swap1\n      div\n      0xffffffffffffffffffffffffffffffffffffffff\n      and\n        /* \"Final_Project/IndianPoker_2.sol\":4905:4928  players[playerAddrs[1]] */\n      0xffffffffffffffffffffffffffffffffffffffff\n      and\n      0xffffffffffffffffffffffffffffffffffffffff\n      and\n      dup2\n      mstore\n      0x20\n      add\n      swap1\n      dup2\n      mstore\n      0x20\n      add\n      0x00\n      keccak256\n        /* \"Final_Project/IndianPoker_2.sol\":4905:4933  players[playerAddrs[1]].card */\n      0x02\n      add\n      0x00\n      swap1\n      sload\n      swap1\n      0x0100\n      exp\n      swap1\n      div\n      0xff\n      and\n        /* \"Final_Project/IndianPoker_2.sol\":4863:4934  GameStarted(players[playerAddrs[0]].card, players[playerAddrs[1]].card) */\n      mload(0x40)\n      tag_332\n      swap3\n      swap2\n      swap1\n      tag_333\n      jump\t// in\n    tag_332:\n      mload(0x40)\n      dup1\n      swap2\n      sub\n      swap1\n      log1\n        /* \"Final_Project/IndianPoker_2.sol\":4661:4942  function startGame() private {... */\n      jump\t// out\n        /* \"Final_Project/IndianPoker_2.sol\":13146:13429  function awardPot(address winnerAddr) private {... */\n    tag_282:\n        /* \"Final_Project/IndianPoker_2.sol\":13203:13220  Player storage p0 */\n      0x00\n        /* \"Final_Project/IndianPoker_2.sol\":13223:13230  players */\n      0x01\n        /* \"Final_Project/IndianPoker_2.sol\":13223:13246  players[playerAddrs[0]] */\n      0x00\n        /* \"Final_Project/IndianPoker_2.sol\":13231:13242  playerAddrs */\n      0x02\n        /* \"Final_Project/IndianPoker_2.sol\":13243:13244  0 */\n      0x00\n        /* \"Final_Project/IndianPoker_2.sol\":13231:13245  playerAddrs[0] */\n      0x02\n      dup2\n      lt\n      tag_335\n      jumpi\n      tag_336\n      tag_118\n      jump\t// in\n    tag_336:\n    tag_335:\n      add\n      0x00\n      swap1\n      sload\n      swap1\n      0x0100\n      exp\n      swap1\n      div\n      0xffffffffffffffffffffffffffffffffffffffff\n      and\n        /* \"Final_Project/IndianPoker_2.sol\":13223:13246  players[playerAddrs[0]] */\n      0xffffffffffffffffffffffffffffffffffffffff\n      and\n      0xffffffffffffffffffffffffffffffffffffffff\n      and\n      dup2\n      mstore\n      0x20\n      add\n      swap1\n      dup2\n      mstore\n      0x20\n      add\n      0x00\n      keccak256\n        /* \"Final_Project/IndianPoker_2.sol\":13203:13246  Player storage p0 = players[playerAddrs[0]] */\n      swap1\n      pop\n        /* \"Final_Project/IndianPoker_2.sol\":13257:13274  Player storage p1 */\n      0x00\n        /* \"Final_Project/IndianPoker_2.sol\":13277:13284  players */\n      0x01\n        /* \"Final_Project/IndianPoker_2.sol\":13277:13300  players[playerAddrs[1]] */\n      0x00\n        /* \"Final_Project/IndianPoker_2.sol\":13285:13296  playerAddrs */\n      0x02\n        /* \"Final_Project/IndianPoker_2.sol\":13297:13298  1 */\n      0x01\n        /* \"Final_Project/IndianPoker_2.sol\":13285:13299  playerAddrs[1] */\n      0x02\n      dup2\n      lt\n      tag_338\n      jumpi\n      tag_339\n      tag_118\n      jump\t// in\n    tag_339:\n    tag_338:\n      add\n      0x00\n      swap1\n      sload\n      swap1\n      0x0100\n      exp\n      swap1\n      div\n      0xffffffffffffffffffffffffffffffffffffffff\n      and\n        /* \"Final_Project/IndianPoker_2.sol\":13277:13300  players[playerAddrs[1]] */\n      0xffffffffffffffffffffffffffffffffffffffff\n      and\n      0xffffffffffffffffffffffffffffffffffffffff\n      and\n      dup2\n      mstore\n      0x20\n      add\n      swap1\n      dup2\n      mstore\n      0x20\n      add\n      0x00\n      keccak256\n        /* \"Final_Project/IndianPoker_2.sol\":13257:13300  Player storage p1 = players[playerAddrs[1]] */\n      swap1\n      pop\n        /* \"Final_Project/IndianPoker_2.sol\":13313:13331  uint256 totalAward */\n      0x00\n        /* \"Final_Project/IndianPoker_2.sol\":13357:13359  p1 */\n      dup2\n        /* \"Final_Project/IndianPoker_2.sol\":13357:13371  p1.contributed */\n      0x03\n      add\n      sload\n        /* \"Final_Project/IndianPoker_2.sol\":13340:13342  p0 */\n      dup4\n        /* \"Final_Project/IndianPoker_2.sol\":13340:13354  p0.contributed */\n      0x03\n      add\n      sload\n        /* \"Final_Project/IndianPoker_2.sol\":13334:13337  pot */\n      sload(0x05)\n        /* \"Final_Project/IndianPoker_2.sol\":13334:13354  pot + p0.contributed */\n      tag_341\n      swap2\n      swap1\n      tag_93\n      jump\t// in\n    tag_341:\n        /* \"Final_Project/IndianPoker_2.sol\":13334:13371  pot + p0.contributed + p1.contributed */\n      tag_342\n      swap2\n      swap1\n      tag_93\n      jump\t// in\n    tag_342:\n        /* \"Final_Project/IndianPoker_2.sol\":13313:13371  uint256 totalAward = pot + p0.contributed + p1.contributed */\n      swap1\n      pop\n        /* \"Final_Project/IndianPoker_2.sol\":13411:13421  totalAward */\n      dup1\n        /* \"Final_Project/IndianPoker_2.sol\":13382:13389  players */\n      0x01\n        /* \"Final_Project/IndianPoker_2.sol\":13382:13401  players[winnerAddr] */\n      0x00\n        /* \"Final_Project/IndianPoker_2.sol\":13390:13400  winnerAddr */\n      dup7\n        /* \"Final_Project/IndianPoker_2.sol\":13382:13401  players[winnerAddr] */\n      0xffffffffffffffffffffffffffffffffffffffff\n      and\n      0xffffffffffffffffffffffffffffffffffffffff\n      and\n      dup2\n      mstore\n      0x20\n      add\n      swap1\n      dup2\n      mstore\n      0x20\n      add\n      0x00\n      keccak256\n        /* \"Final_Project/IndianPoker_2.sol\":13382:13407  players[winnerAddr].chips */\n      0x01\n      add\n      0x00\n        /* \"Final_Project/IndianPoker_2.sol\":13382:13421  players[winnerAddr].chips += totalAward */\n      dup3\n      dup3\n      sload\n      tag_343\n      swap2\n      swap1\n      tag_93\n      jump\t// in\n    tag_343:\n      swap3\n      pop\n      pop\n      dup2\n      swap1\n      sstore\n      pop\n        /* \"Final_Project/IndianPoker_2.sol\":13192:13429  {... */\n      pop\n      pop\n      pop\n        /* \"Final_Project/IndianPoker_2.sol\":13146:13429  function awardPot(address winnerAddr) private {... */\n      pop\n      jump\t// out\n        /* \"Final_Project/IndianPoker_2.sol\":12315:13027  function awardSidePot(address winnerAddr) private {... */\n    tag_316:\n        /* \"Final_Project/IndianPoker_2.sol\":12376:12393  Player storage p0 */\n      0x00\n        /* \"Final_Project/IndianPoker_2.sol\":12396:12403  players */\n      0x01\n        /* \"Final_Project/IndianPoker_2.sol\":12396:12419  players[playerAddrs[0]] */\n      0x00\n        /* \"Final_Project/IndianPoker_2.sol\":12404:12415  playerAddrs */\n      0x02\n        /* \"Final_Project/IndianPoker_2.sol\":12416:12417  0 */\n      0x00\n        /* \"Final_Project/IndianPoker_2.sol\":12404:12418  playerAddrs[0] */\n      0x02\n      dup2\n      lt\n      tag_345\n      jumpi\n      tag_346\n      tag_118\n      jump\t// in\n    tag_346:\n    tag_345:\n      add\n      0x00\n      swap1\n      sload\n      swap1\n      0x0100\n      exp\n      swap1\n      div\n      0xffffffffffffffffffffffffffffffffffffffff\n      and\n        /* \"Final_Project/IndianPoker_2.sol\":12396:12419  players[playerAddrs[0]] */\n      0xffffffffffffffffffffffffffffffffffffffff\n      and\n      0xffffffffffffffffffffffffffffffffffffffff\n      and\n      dup2\n      mstore\n      0x20\n      add\n      swap1\n      dup2\n      mstore\n      0x20\n      add\n      0x00\n      keccak256\n        /* \"Final_Project/IndianPoker_2.sol\":12376:12419  Player storage p0 = players[playerAddrs[0]] */\n      swap1\n      pop\n        /* \"Final_Project/IndianPoker_2.sol\":12430:12447  Player storage p1 */\n      0x00\n        /* \"Final_Project/IndianPoker_2.sol\":12450:12457  players */\n      0x01\n        /* \"Final_Project/IndianPoker_2.sol\":12450:12473  players[playerAddrs[1]] */\n      0x00\n        /* \"Final_Project/IndianPoker_2.sol\":12458:12469  playerAddrs */\n      0x02\n        /* \"Final_Project/IndianPoker_2.sol\":12470:12471  1 */\n      0x01\n        /* \"Final_Project/IndianPoker_2.sol\":12458:12472  playerAddrs[1] */\n      0x02\n      dup2\n      lt\n      tag_348\n      jumpi\n      tag_349\n      tag_118\n      jump\t// in\n    tag_349:\n    tag_348:\n      add\n      0x00\n      swap1\n      sload\n      swap1\n      0x0100\n      exp\n      swap1\n      div\n      0xffffffffffffffffffffffffffffffffffffffff\n      and\n        /* \"Final_Project/IndianPoker_2.sol\":12450:12473  players[playerAddrs[1]] */\n      0xffffffffffffffffffffffffffffffffffffffff\n      and\n      0xffffffffffffffffffffffffffffffffffffffff\n      and\n      dup2\n      mstore\n      0x20\n      add\n      swap1\n      dup2\n      mstore\n      0x20\n      add\n      0x00\n      keccak256\n        /* \"Final_Project/IndianPoker_2.sol\":12430:12473  Player storage p1 = players[playerAddrs[1]] */\n      swap1\n      pop\n        /* \"Final_Project/IndianPoker_2.sol\":12486:12496  uint256 c0 */\n      0x00\n        /* \"Final_Project/IndianPoker_2.sol\":12499:12501  p0 */\n      dup3\n        /* \"Final_Project/IndianPoker_2.sol\":12499:12513  p0.contributed */\n      0x03\n      add\n      sload\n        /* \"Final_Project/IndianPoker_2.sol\":12486:12513  uint256 c0 = p0.contributed */\n      swap1\n      pop\n        /* \"Final_Project/IndianPoker_2.sol\":12524:12534  uint256 c1 */\n      0x00\n        /* \"Final_Project/IndianPoker_2.sol\":12537:12539  p1 */\n      dup3\n        /* \"Final_Project/IndianPoker_2.sol\":12537:12551  p1.contributed */\n      0x03\n      add\n      sload\n        /* \"Final_Project/IndianPoker_2.sol\":12524:12551  uint256 c1 = p1.contributed */\n      swap1\n      pop\n        /* \"Final_Project/IndianPoker_2.sol\":12562:12580  uint256 minContrib */\n      0x00\n        /* \"Final_Project/IndianPoker_2.sol\":12588:12590  c1 */\n      dup2\n        /* \"Final_Project/IndianPoker_2.sol\":12583:12585  c0 */\n      dup4\n        /* \"Final_Project/IndianPoker_2.sol\":12583:12590  c0 < c1 */\n      lt\n        /* \"Final_Project/IndianPoker_2.sol\":12583:12600  c0 < c1 ? c0 : c1 */\n      tag_351\n      jumpi\n        /* \"Final_Project/IndianPoker_2.sol\":12598:12600  c1 */\n      dup2\n        /* \"Final_Project/IndianPoker_2.sol\":12583:12600  c0 < c1 ? c0 : c1 */\n      jump(tag_352)\n    tag_351:\n        /* \"Final_Project/IndianPoker_2.sol\":12593:12595  c0 */\n      dup3\n        /* \"Final_Project/IndianPoker_2.sol\":12583:12600  c0 < c1 ? c0 : c1 */\n    tag_352:\n        /* \"Final_Project/IndianPoker_2.sol\":12562:12600  uint256 minContrib = c0 < c1 ? c0 : c1 */\n      swap1\n      pop\n        /* \"Final_Project/IndianPoker_2.sol\":12611:12630  uint256 winnerChips */\n      0x00\n        /* \"Final_Project/IndianPoker_2.sol\":12646:12647  2 */\n      0x02\n        /* \"Final_Project/IndianPoker_2.sol\":12633:12643  minContrib */\n      dup3\n        /* \"Final_Project/IndianPoker_2.sol\":12633:12647  minContrib * 2 */\n      tag_353\n      swap2\n      swap1\n      tag_89\n      jump\t// in\n    tag_353:\n        /* \"Final_Project/IndianPoker_2.sol\":12611:12647  uint256 winnerChips = minContrib * 2 */\n      swap1\n      pop\n        /* \"Final_Project/IndianPoker_2.sol\":12714:12725  winnerChips */\n      dup1\n        /* \"Final_Project/IndianPoker_2.sol\":12685:12692  players */\n      0x01\n        /* \"Final_Project/IndianPoker_2.sol\":12685:12704  players[winnerAddr] */\n      0x00\n        /* \"Final_Project/IndianPoker_2.sol\":12693:12703  winnerAddr */\n      dup10\n        /* \"Final_Project/IndianPoker_2.sol\":12685:12704  players[winnerAddr] */\n      0xffffffffffffffffffffffffffffffffffffffff\n      and\n      0xffffffffffffffffffffffffffffffffffffffff\n      and\n      dup2\n      mstore\n      0x20\n      add\n      swap1\n      dup2\n      mstore\n      0x20\n      add\n      0x00\n      keccak256\n        /* \"Final_Project/IndianPoker_2.sol\":12685:12710  players[winnerAddr].chips */\n      0x01\n      add\n      0x00\n        /* \"Final_Project/IndianPoker_2.sol\":12685:12725  players[winnerAddr].chips += winnerChips */\n      dup3\n      dup3\n      sload\n      tag_354\n      swap2\n      swap1\n      tag_93\n      jump\t// in\n    tag_354:\n      swap3\n      pop\n      pop\n      dup2\n      swap1\n      sstore\n      pop\n        /* \"Final_Project/IndianPoker_2.sol\":12789:12799  minContrib */\n      dup2\n        /* \"Final_Project/IndianPoker_2.sol\":12784:12786  c0 */\n      dup5\n        /* \"Final_Project/IndianPoker_2.sol\":12784:12799  c0 > minContrib */\n      gt\n        /* \"Final_Project/IndianPoker_2.sol\":12780:12895  if (c0 > minContrib) {... */\n      iszero\n      tag_355\n      jumpi\n        /* \"Final_Project/IndianPoker_2.sol\":12816:12831  uint256 refund0 */\n      0x00\n        /* \"Final_Project/IndianPoker_2.sol\":12839:12849  minContrib */\n      dup3\n        /* \"Final_Project/IndianPoker_2.sol\":12834:12836  c0 */\n      dup6\n        /* \"Final_Project/IndianPoker_2.sol\":12834:12849  c0 - minContrib */\n      tag_356\n      swap2\n      swap1\n      tag_101\n      jump\t// in\n    tag_356:\n        /* \"Final_Project/IndianPoker_2.sol\":12816:12849  uint256 refund0 = c0 - minContrib */\n      swap1\n      pop\n        /* \"Final_Project/IndianPoker_2.sol\":12876:12883  refund0 */\n      dup1\n        /* \"Final_Project/IndianPoker_2.sol\":12864:12866  p0 */\n      dup8\n        /* \"Final_Project/IndianPoker_2.sol\":12864:12872  p0.chips */\n      0x01\n      add\n      0x00\n        /* \"Final_Project/IndianPoker_2.sol\":12864:12883  p0.chips += refund0 */\n      dup3\n      dup3\n      sload\n      tag_357\n      swap2\n      swap1\n      tag_93\n      jump\t// in\n    tag_357:\n      swap3\n      pop\n      pop\n      dup2\n      swap1\n      sstore\n      pop\n        /* \"Final_Project/IndianPoker_2.sol\":12801:12895  {... */\n      pop\n        /* \"Final_Project/IndianPoker_2.sol\":12780:12895  if (c0 > minContrib) {... */\n    tag_355:\n        /* \"Final_Project/IndianPoker_2.sol\":12914:12924  minContrib */\n      dup2\n        /* \"Final_Project/IndianPoker_2.sol\":12909:12911  c1 */\n      dup4\n        /* \"Final_Project/IndianPoker_2.sol\":12909:12924  c1 > minContrib */\n      gt\n        /* \"Final_Project/IndianPoker_2.sol\":12905:13020  if (c1 > minContrib) {... */\n      iszero\n      tag_358\n      jumpi\n        /* \"Final_Project/IndianPoker_2.sol\":12941:12956  uint256 refund1 */\n      0x00\n        /* \"Final_Project/IndianPoker_2.sol\":12964:12974  minContrib */\n      dup3\n        /* \"Final_Project/IndianPoker_2.sol\":12959:12961  c1 */\n      dup5\n        /* \"Final_Project/IndianPoker_2.sol\":12959:12974  c1 - minContrib */\n      tag_359\n      swap2\n      swap1\n      tag_101\n      jump\t// in\n    tag_359:\n        /* \"Final_Project/IndianPoker_2.sol\":12941:12974  uint256 refund1 = c1 - minContrib */\n      swap1\n      pop\n        /* \"Final_Project/IndianPoker_2.sol\":13001:13008  refund1 */\n      dup1\n        /* \"Final_Project/IndianPoker_2.sol\":12989:12991  p1 */\n      dup7\n        /* \"Final_Project/IndianPoker_2.sol\":12989:12997  p1.chips */\n      0x01\n      add\n      0x00\n        /* \"Final_Project/IndianPoker_2.sol\":12989:13008  p1.chips += refund1 */\n      dup3\n      dup3\n      sload\n      tag_360\n      swap2\n      swap1\n      tag_93\n      jump\t// in\n    tag_360:\n      swap3\n      pop\n      pop\n      dup2\n      swap1\n      sstore\n      pop\n        /* \"Final_Project/IndianPoker_2.sol\":12926:13020  {... */\n      pop\n        /* \"Final_Project/IndianPoker_2.sol\":12905:13020  if (c1 > minContrib) {... */\n    tag_358:\n        /* \"Final_Project/IndianPoker_2.sol\":12365:13027  {... */\n      pop\n      pop\n      pop\n      pop\n      pop\n      pop\n        /* \"Final_Project/IndianPoker_2.sol\":12315:13027  function awardSidePot(address winnerAddr) private {... */\n      pop\n      jump\t// out\n        /* \"Final_Project/IndianPoker_2.sol\":5148:5861  function dealCards() private {... */\n    tag_323:\n        /* \"Final_Project/IndianPoker_2.sol\":5188:5200  bytes32 seed */\n      0x00\n        /* \"Final_Project/IndianPoker_2.sol\":5230:5245  block.timestamp */\n      timestamp\n        /* \"Final_Project/IndianPoker_2.sol\":5247:5263  block.prevrandao */\n      prevrandao\n        /* \"Final_Project/IndianPoker_2.sol\":5213:5264  abi.encodePacked(block.timestamp, block.prevrandao) */\n      add(0x20, mload(0x40))\n      tag_362\n      swap3\n      swap2\n      swap1\n      tag_294\n      jump\t// in\n    tag_362:\n      mload(0x40)\n      0x20\n      dup2\n      dup4\n      sub\n      sub\n      dup2\n      mstore\n      swap1\n      0x40\n      mstore\n        /* \"Final_Project/IndianPoker_2.sol\":5203:5265  keccak256(abi.encodePacked(block.timestamp, block.prevrandao)) */\n      dup1\n      mload\n      swap1\n      0x20\n      add\n      keccak256\n        /* \"Final_Project/IndianPoker_2.sol\":5188:5265  bytes32 seed = keccak256(abi.encodePacked(block.timestamp, block.prevrandao)) */\n      swap1\n      pop\n        /* \"Final_Project/IndianPoker_2.sol\":5306:5314  uint8 v0 */\n      0x00\n        /* \"Final_Project/IndianPoker_2.sol\":5384:5386  14 */\n      0x0e\n        /* \"Final_Project/IndianPoker_2.sol\":5358:5362  seed */\n      dup3\n        /* \"Final_Project/IndianPoker_2.sol\":5364:5375  playerAddrs */\n      0x02\n        /* \"Final_Project/IndianPoker_2.sol\":5376:5377  0 */\n      0x00\n        /* \"Final_Project/IndianPoker_2.sol\":5364:5378  playerAddrs[0] */\n      0x02\n      dup2\n      lt\n      tag_363\n      jumpi\n      tag_364\n      tag_118\n      jump\t// in\n    tag_364:\n    tag_363:\n      add\n      0x00\n      swap1\n      sload\n      swap1\n      0x0100\n      exp\n      swap1\n      div\n      0xffffffffffffffffffffffffffffffffffffffff\n      and\n        /* \"Final_Project/IndianPoker_2.sol\":5341:5379  abi.encodePacked(seed, playerAddrs[0]) */\n      add(0x20, mload(0x40))\n      tag_366\n      swap3\n      swap2\n      swap1\n      tag_296\n      jump\t// in\n    tag_366:\n      mload(0x40)\n      0x20\n      dup2\n      dup4\n      sub\n      sub\n      dup2\n      mstore\n      swap1\n      0x40\n      mstore\n        /* \"Final_Project/IndianPoker_2.sol\":5331:5380  keccak256(abi.encodePacked(seed, playerAddrs[0])) */\n      dup1\n      mload\n      swap1\n      0x20\n      add\n      keccak256\n        /* \"Final_Project/IndianPoker_2.sol\":5323:5381  uint256(keccak256(abi.encodePacked(seed, playerAddrs[0]))) */\n      0x00\n      shr\n        /* \"Final_Project/IndianPoker_2.sol\":5323:5386  uint256(keccak256(abi.encodePacked(seed, playerAddrs[0]))) % 14 */\n      tag_367\n      swap2\n      swap1\n      tag_268\n      jump\t// in\n    tag_367:\n        /* \"Final_Project/IndianPoker_2.sol\":5306:5387  uint8 v0 = uint8(uint256(keccak256(abi.encodePacked(seed, playerAddrs[0]))) % 14) */\n      swap1\n      pop\n        /* \"Final_Project/IndianPoker_2.sol\":5408:5409  0 */\n      0x00\n        /* \"Final_Project/IndianPoker_2.sol\":5402:5404  v0 */\n      dup2\n        /* \"Final_Project/IndianPoker_2.sol\":5402:5409  v0 == 0 */\n      0xff\n      and\n      sub\n        /* \"Final_Project/IndianPoker_2.sol\":5398:5579  if (v0 == 0) {... */\n      tag_368\n      jumpi\n        /* \"Final_Project/IndianPoker_2.sol\":5457:5459  15 */\n      0x0f\n        /* \"Final_Project/IndianPoker_2.sol\":5426:5433  players */\n      0x01\n        /* \"Final_Project/IndianPoker_2.sol\":5426:5449  players[playerAddrs[0]] */\n      0x00\n        /* \"Final_Project/IndianPoker_2.sol\":5434:5445  playerAddrs */\n      0x02\n        /* \"Final_Project/IndianPoker_2.sol\":5446:5447  0 */\n      0x00\n        /* \"Final_Project/IndianPoker_2.sol\":5434:5448  playerAddrs[0] */\n      0x02\n      dup2\n      lt\n      tag_369\n      jumpi\n      tag_370\n      tag_118\n      jump\t// in\n    tag_370:\n    tag_369:\n      add\n      0x00\n      swap1\n      sload\n      swap1\n      0x0100\n      exp\n      swap1\n      div\n      0xffffffffffffffffffffffffffffffffffffffff\n      and\n        /* \"Final_Project/IndianPoker_2.sol\":5426:5449  players[playerAddrs[0]] */\n      0xffffffffffffffffffffffffffffffffffffffff\n      and\n      0xffffffffffffffffffffffffffffffffffffffff\n      and\n      dup2\n      mstore\n      0x20\n      add\n      swap1\n      dup2\n      mstore\n      0x20\n      add\n      0x00\n      keccak256\n        /* \"Final_Project/IndianPoker_2.sol\":5426:5454  players[playerAddrs[0]].card */\n      0x02\n      add\n      0x00\n        /* \"Final_Project/IndianPoker_2.sol\":5426:5459  players[playerAddrs[0]].card = 15 */\n      0x0100\n      exp\n      dup2\n      sload\n      dup2\n      0xff\n      mul\n      not\n      and\n      swap1\n      dup4\n      0xff\n      and\n      mul\n      or\n      swap1\n      sstore\n      pop\n        /* \"Final_Project/IndianPoker_2.sol\":5398:5579  if (v0 == 0) {... */\n      jump(tag_372)\n    tag_368:\n        /* \"Final_Project/IndianPoker_2.sol\":5537:5538  1 */\n      0x01\n        /* \"Final_Project/IndianPoker_2.sol\":5532:5534  v0 */\n      dup2\n        /* \"Final_Project/IndianPoker_2.sol\":5532:5538  v0 + 1 */\n      tag_373\n      swap2\n      swap1\n      tag_303\n      jump\t// in\n    tag_373:\n        /* \"Final_Project/IndianPoker_2.sol\":5501:5508  players */\n      0x01\n        /* \"Final_Project/IndianPoker_2.sol\":5501:5524  players[playerAddrs[0]] */\n      0x00\n        /* \"Final_Project/IndianPoker_2.sol\":5509:5520  playerAddrs */\n      0x02\n        /* \"Final_Project/IndianPoker_2.sol\":5521:5522  0 */\n      0x00\n        /* \"Final_Project/IndianPoker_2.sol\":5509:5523  playerAddrs[0] */\n      0x02\n      dup2\n      lt\n      tag_374\n      jumpi\n      tag_375\n      tag_118\n      jump\t// in\n    tag_375:\n    tag_374:\n      add\n      0x00\n      swap1\n      sload\n      swap1\n      0x0100\n      exp\n      swap1\n      div\n      0xffffffffffffffffffffffffffffffffffffffff\n      and\n        /* \"Final_Project/IndianPoker_2.sol\":5501:5524  players[playerAddrs[0]] */\n      0xffffffffffffffffffffffffffffffffffffffff\n      and\n      0xffffffffffffffffffffffffffffffffffffffff\n      and\n      dup2\n      mstore\n      0x20\n      add\n      swap1\n      dup2\n      mstore\n      0x20\n      add\n      0x00\n      keccak256\n        /* \"Final_Project/IndianPoker_2.sol\":5501:5529  players[playerAddrs[0]].card */\n      0x02\n      add\n      0x00\n        /* \"Final_Project/IndianPoker_2.sol\":5501:5538  players[playerAddrs[0]].card = v0 + 1 */\n      0x0100\n      exp\n      dup2\n      sload\n      dup2\n      0xff\n      mul\n      not\n      and\n      swap1\n      dup4\n      0xff\n      and\n      mul\n      or\n      swap1\n      sstore\n      pop\n        /* \"Final_Project/IndianPoker_2.sol\":5398:5579  if (v0 == 0) {... */\n    tag_372:\n        /* \"Final_Project/IndianPoker_2.sol\":5619:5627  uint8 v1 */\n      0x00\n        /* \"Final_Project/IndianPoker_2.sol\":5697:5699  14 */\n      0x0e\n        /* \"Final_Project/IndianPoker_2.sol\":5671:5675  seed */\n      dup4\n        /* \"Final_Project/IndianPoker_2.sol\":5677:5688  playerAddrs */\n      0x02\n        /* \"Final_Project/IndianPoker_2.sol\":5689:5690  1 */\n      0x01\n        /* \"Final_Project/IndianPoker_2.sol\":5677:5691  playerAddrs[1] */\n      0x02\n      dup2\n      lt\n      tag_377\n      jumpi\n      tag_378\n      tag_118\n      jump\t// in\n    tag_378:\n    tag_377:\n      add\n      0x00\n      swap1\n      sload\n      swap1\n      0x0100\n      exp\n      swap1\n      div\n      0xffffffffffffffffffffffffffffffffffffffff\n      and\n        /* \"Final_Project/IndianPoker_2.sol\":5654:5692  abi.encodePacked(seed, playerAddrs[1]) */\n      add(0x20, mload(0x40))\n      tag_380\n      swap3\n      swap2\n      swap1\n      tag_296\n      jump\t// in\n    tag_380:\n      mload(0x40)\n      0x20\n      dup2\n      dup4\n      sub\n      sub\n      dup2\n      mstore\n      swap1\n      0x40\n      mstore\n        /* \"Final_Project/IndianPoker_2.sol\":5644:5693  keccak256(abi.encodePacked(seed, playerAddrs[1])) */\n      dup1\n      mload\n      swap1\n      0x20\n      add\n      keccak256\n        /* \"Final_Project/IndianPoker_2.sol\":5636:5694  uint256(keccak256(abi.encodePacked(seed, playerAddrs[1]))) */\n      0x00\n      shr\n        /* \"Final_Project/IndianPoker_2.sol\":5636:5699  uint256(keccak256(abi.encodePacked(seed, playerAddrs[1]))) % 14 */\n      tag_381\n      swap2\n      swap1\n      tag_268\n      jump\t// in\n    tag_381:\n        /* \"Final_Project/IndianPoker_2.sol\":5619:5700  uint8 v1 = uint8(uint256(keccak256(abi.encodePacked(seed, playerAddrs[1]))) % 14) */\n      swap1\n      pop\n        /* \"Final_Project/IndianPoker_2.sol\":5721:5722  0 */\n      0x00\n        /* \"Final_Project/IndianPoker_2.sol\":5715:5717  v1 */\n      dup2\n        /* \"Final_Project/IndianPoker_2.sol\":5715:5722  v1 == 0 */\n      0xff\n      and\n      sub\n        /* \"Final_Project/IndianPoker_2.sol\":5711:5854  if (v1 == 0) {... */\n      tag_382\n      jumpi\n        /* \"Final_Project/IndianPoker_2.sol\":5770:5772  15 */\n      0x0f\n        /* \"Final_Project/IndianPoker_2.sol\":5739:5746  players */\n      0x01\n        /* \"Final_Project/IndianPoker_2.sol\":5739:5762  players[playerAddrs[1]] */\n      0x00\n        /* \"Final_Project/IndianPoker_2.sol\":5747:5758  playerAddrs */\n      0x02\n        /* \"Final_Project/IndianPoker_2.sol\":5759:5760  1 */\n      0x01\n        /* \"Final_Project/IndianPoker_2.sol\":5747:5761  playerAddrs[1] */\n      0x02\n      dup2\n      lt\n      tag_383\n      jumpi\n      tag_384\n      tag_118\n      jump\t// in\n    tag_384:\n    tag_383:\n      add\n      0x00\n      swap1\n      sload\n      swap1\n      0x0100\n      exp\n      swap1\n      div\n      0xffffffffffffffffffffffffffffffffffffffff\n      and\n        /* \"Final_Project/IndianPoker_2.sol\":5739:5762  players[playerAddrs[1]] */\n      0xffffffffffffffffffffffffffffffffffffffff\n      and\n      0xffffffffffffffffffffffffffffffffffffffff\n      and\n      dup2\n      mstore\n      0x20\n      add\n      swap1\n      dup2\n      mstore\n      0x20\n      add\n      0x00\n      keccak256\n        /* \"Final_Project/IndianPoker_2.sol\":5739:5767  players[playerAddrs[1]].card */\n      0x02\n      add\n      0x00\n        /* \"Final_Project/IndianPoker_2.sol\":5739:5772  players[playerAddrs[1]].card = 15 */\n      0x0100\n      exp\n      dup2\n      sload\n      dup2\n      0xff\n      mul\n      not\n      and\n      swap1\n      dup4\n      0xff\n      and\n      mul\n      or\n      swap1\n      sstore\n      pop\n        /* \"Final_Project/IndianPoker_2.sol\":5711:5854  if (v1 == 0) {... */\n      jump(tag_386)\n    tag_382:\n        /* \"Final_Project/IndianPoker_2.sol\":5841:5842  1 */\n      0x01\n        /* \"Final_Project/IndianPoker_2.sol\":5836:5838  v1 */\n      dup2\n        /* \"Final_Project/IndianPoker_2.sol\":5836:5842  v1 + 1 */\n      tag_387\n      swap2\n      swap1\n      tag_303\n      jump\t// in\n    tag_387:\n        /* \"Final_Project/IndianPoker_2.sol\":5805:5812  players */\n      0x01\n        /* \"Final_Project/IndianPoker_2.sol\":5805:5828  players[playerAddrs[1]] */\n      0x00\n        /* \"Final_Project/IndianPoker_2.sol\":5813:5824  playerAddrs */\n      0x02\n        /* \"Final_Project/IndianPoker_2.sol\":5825:5826  1 */\n      0x01\n        /* \"Final_Project/IndianPoker_2.sol\":5813:5827  playerAddrs[1] */\n      0x02\n      dup2\n      lt\n      tag_388\n      jumpi\n      tag_389\n      tag_118\n      jump\t// in\n    tag_389:\n    tag_388:\n      add\n      0x00\n      swap1\n      sload\n      swap1\n      0x0100\n      exp\n      swap1\n      div\n      0xffffffffffffffffffffffffffffffffffffffff\n      and\n        /* \"Final_Project/IndianPoker_2.sol\":5805:5828  players[playerAddrs[1]] */\n      0xffffffffffffffffffffffffffffffffffffffff\n      and\n      0xffffffffffffffffffffffffffffffffffffffff\n      and\n      dup2\n      mstore\n      0x20\n      add\n      swap1\n      dup2\n      mstore\n      0x20\n      add\n      0x00\n      keccak256\n        /* \"Final_Project/IndianPoker_2.sol\":5805:5833  players[playerAddrs[1]].card */\n      0x02\n      add\n      0x00\n        /* \"Final_Project/IndianPoker_2.sol\":5805:5842  players[playerAddrs[1]].card = v1 + 1 */\n      0x0100\n      exp\n      dup2\n      sload\n      dup2\n      0xff\n      mul\n      not\n      and\n      swap1\n      dup4\n      0xff\n      and\n      mul\n      or\n      swap1\n      sstore\n      pop\n        /* \"Final_Project/IndianPoker_2.sol\":5711:5854  if (v1 == 0) {... */\n    tag_386:\n        /* \"Final_Project/IndianPoker_2.sol\":5177:5861  {... */\n      pop\n      pop\n      pop\n        /* \"Final_Project/IndianPoker_2.sol\":5148:5861  function dealCards() private {... */\n      jump\t// out\n        /* \"#utility.yul\":7:93   */\n    tag_391:\n        /* \"#utility.yul\":42:49   */\n      0x00\n        /* \"#utility.yul\":82:86   */\n      0xff\n        /* \"#utility.yul\":75:80   */\n      dup3\n        /* \"#utility.yul\":71:87   */\n      and\n        /* \"#utility.yul\":60:87   */\n      swap1\n      pop\n        /* \"#utility.yul\":7:93   */\n      swap2\n      swap1\n      pop\n      jump\t// out\n        /* \"#utility.yul\":99:211   */\n    tag_392:\n        /* \"#utility.yul\":182:204   */\n      tag_456\n        /* \"#utility.yul\":198:203   */\n      dup2\n        /* \"#utility.yul\":182:204   */\n      tag_391\n      jump\t// in\n    tag_456:\n        /* \"#utility.yul\":177:180   */\n      dup3\n        /* \"#utility.yul\":170:205   */\n      mstore\n        /* \"#utility.yul\":99:211   */\n      pop\n      pop\n      jump\t// out\n        /* \"#utility.yul\":217:431   */\n    tag_26:\n        /* \"#utility.yul\":306:310   */\n      0x00\n        /* \"#utility.yul\":344:346   */\n      0x20\n        /* \"#utility.yul\":333:342   */\n      dup3\n        /* \"#utility.yul\":329:347   */\n      add\n        /* \"#utility.yul\":321:347   */\n      swap1\n      pop\n        /* \"#utility.yul\":357:424   */\n      tag_458\n        /* \"#utility.yul\":421:422   */\n      0x00\n        /* \"#utility.yul\":410:419   */\n      dup4\n        /* \"#utility.yul\":406:423   */\n      add\n        /* \"#utility.yul\":397:403   */\n      dup5\n        /* \"#utility.yul\":357:424   */\n      tag_392\n      jump\t// in\n    tag_458:\n        /* \"#utility.yul\":217:431   */\n      swap3\n      swap2\n      pop\n      pop\n      jump\t// out\n        /* \"#utility.yul\":437:514   */\n    tag_393:\n        /* \"#utility.yul\":474:481   */\n      0x00\n        /* \"#utility.yul\":503:508   */\n      dup2\n        /* \"#utility.yul\":492:508   */\n      swap1\n      pop\n        /* \"#utility.yul\":437:514   */\n      swap2\n      swap1\n      pop\n      jump\t// out\n        /* \"#utility.yul\":520:638   */\n    tag_394:\n        /* \"#utility.yul\":607:631   */\n      tag_461\n        /* \"#utility.yul\":625:630   */\n      dup2\n        /* \"#utility.yul\":607:631   */\n      tag_393\n      jump\t// in\n    tag_461:\n        /* \"#utility.yul\":602:605   */\n      dup3\n        /* \"#utility.yul\":595:632   */\n      mstore\n        /* \"#utility.yul\":520:638   */\n      pop\n      pop\n      jump\t// out\n        /* \"#utility.yul\":644:866   */\n    tag_31:\n        /* \"#utility.yul\":737:741   */\n      0x00\n        /* \"#utility.yul\":775:777   */\n      0x20\n        /* \"#utility.yul\":764:773   */\n      dup3\n        /* \"#utility.yul\":760:778   */\n      add\n        /* \"#utility.yul\":752:778   */\n      swap1\n      pop\n        /* \"#utility.yul\":788:859   */\n      tag_463\n        /* \"#utility.yul\":856:857   */\n      0x00\n        /* \"#utility.yul\":845:854   */\n      dup4\n        /* \"#utility.yul\":841:858   */\n      add\n        /* \"#utility.yul\":832:838   */\n      dup5\n        /* \"#utility.yul\":788:859   */\n      tag_394\n      jump\t// in\n    tag_463:\n        /* \"#utility.yul\":644:866   */\n      swap3\n      swap2\n      pop\n      pop\n      jump\t// out\n        /* \"#utility.yul\":953:1070   */\n    tag_396:\n        /* \"#utility.yul\":1062:1063   */\n      0x00\n        /* \"#utility.yul\":1059:1060   */\n      0x00\n        /* \"#utility.yul\":1052:1064   */\n      revert\n        /* \"#utility.yul\":1199:1321   */\n    tag_398:\n        /* \"#utility.yul\":1272:1296   */\n      tag_468\n        /* \"#utility.yul\":1290:1295   */\n      dup2\n        /* \"#utility.yul\":1272:1296   */\n      tag_393\n      jump\t// in\n    tag_468:\n        /* \"#utility.yul\":1265:1270   */\n      dup2\n        /* \"#utility.yul\":1262:1297   */\n      eq\n        /* \"#utility.yul\":1252:1315   */\n      tag_469\n      jumpi\n        /* \"#utility.yul\":1311:1312   */\n      0x00\n        /* \"#utility.yul\":1308:1309   */\n      0x00\n        /* \"#utility.yul\":1301:1313   */\n      revert\n        /* \"#utility.yul\":1252:1315   */\n    tag_469:\n        /* \"#utility.yul\":1199:1321   */\n      pop\n      jump\t// out\n        /* \"#utility.yul\":1327:1466   */\n    tag_399:\n        /* \"#utility.yul\":1373:1378   */\n      0x00\n        /* \"#utility.yul\":1411:1417   */\n      dup2\n        /* \"#utility.yul\":1398:1418   */\n      calldataload\n        /* \"#utility.yul\":1389:1418   */\n      swap1\n      pop\n        /* \"#utility.yul\":1427:1460   */\n      tag_471\n        /* \"#utility.yul\":1454:1459   */\n      dup2\n        /* \"#utility.yul\":1427:1460   */\n      tag_398\n      jump\t// in\n    tag_471:\n        /* \"#utility.yul\":1327:1466   */\n      swap3\n      swap2\n      pop\n      pop\n      jump\t// out\n        /* \"#utility.yul\":1472:1801   */\n    tag_35:\n        /* \"#utility.yul\":1531:1537   */\n      0x00\n        /* \"#utility.yul\":1580:1582   */\n      0x20\n        /* \"#utility.yul\":1568:1577   */\n      dup3\n        /* \"#utility.yul\":1559:1566   */\n      dup5\n        /* \"#utility.yul\":1555:1578   */\n      sub\n        /* \"#utility.yul\":1551:1583   */\n      slt\n        /* \"#utility.yul\":1548:1667   */\n      iszero\n      tag_473\n      jumpi\n        /* \"#utility.yul\":1586:1665   */\n      tag_474\n      tag_396\n      jump\t// in\n    tag_474:\n        /* \"#utility.yul\":1548:1667   */\n    tag_473:\n        /* \"#utility.yul\":1706:1707   */\n      0x00\n        /* \"#utility.yul\":1731:1784   */\n      tag_475\n        /* \"#utility.yul\":1776:1783   */\n      dup5\n        /* \"#utility.yul\":1767:1773   */\n      dup3\n        /* \"#utility.yul\":1756:1765   */\n      dup6\n        /* \"#utility.yul\":1752:1774   */\n      add\n        /* \"#utility.yul\":1731:1784   */\n      tag_399\n      jump\t// in\n    tag_475:\n        /* \"#utility.yul\":1721:1784   */\n      swap2\n      pop\n        /* \"#utility.yul\":1677:1794   */\n      pop\n        /* \"#utility.yul\":1472:1801   */\n      swap3\n      swap2\n      pop\n      pop\n      jump\t// out\n        /* \"#utility.yul\":1807:1933   */\n    tag_400:\n        /* \"#utility.yul\":1844:1851   */\n      0x00\n        /* \"#utility.yul\":1884:1926   */\n      0xffffffffffffffffffffffffffffffffffffffff\n        /* \"#utility.yul\":1877:1882   */\n      dup3\n        /* \"#utility.yul\":1873:1927   */\n      and\n        /* \"#utility.yul\":1862:1927   */\n      swap1\n      pop\n        /* \"#utility.yul\":1807:1933   */\n      swap2\n      swap1\n      pop\n      jump\t// out\n        /* \"#utility.yul\":1939:2035   */\n    tag_401:\n        /* \"#utility.yul\":1976:1983   */\n      0x00\n        /* \"#utility.yul\":2005:2029   */\n      tag_478\n        /* \"#utility.yul\":2023:2028   */\n      dup3\n        /* \"#utility.yul\":2005:2029   */\n      tag_400\n      jump\t// in\n    tag_478:\n        /* \"#utility.yul\":1994:2029   */\n      swap1\n      pop\n        /* \"#utility.yul\":1939:2035   */\n      swap2\n      swap1\n      pop\n      jump\t// out\n        /* \"#utility.yul\":2041:2163   */\n    tag_402:\n        /* \"#utility.yul\":2114:2138   */\n      tag_480\n        /* \"#utility.yul\":2132:2137   */\n      dup2\n        /* \"#utility.yul\":2114:2138   */\n      tag_401\n      jump\t// in\n    tag_480:\n        /* \"#utility.yul\":2107:2112   */\n      dup2\n        /* \"#utility.yul\":2104:2139   */\n      eq\n        /* \"#utility.yul\":2094:2157   */\n      tag_481\n      jumpi\n        /* \"#utility.yul\":2153:2154   */\n      0x00\n        /* \"#utility.yul\":2150:2151   */\n      0x00\n        /* \"#utility.yul\":2143:2155   */\n      revert\n        /* \"#utility.yul\":2094:2157   */\n    tag_481:\n        /* \"#utility.yul\":2041:2163   */\n      pop\n      jump\t// out\n        /* \"#utility.yul\":2169:2308   */\n    tag_403:\n        /* \"#utility.yul\":2215:2220   */\n      0x00\n        /* \"#utility.yul\":2253:2259   */\n      dup2\n        /* \"#utility.yul\":2240:2260   */\n      calldataload\n        /* \"#utility.yul\":2231:2260   */\n      swap1\n      pop\n        /* \"#utility.yul\":2269:2302   */\n      tag_483\n        /* \"#utility.yul\":2296:2301   */\n      dup2\n        /* \"#utility.yul\":2269:2302   */\n      tag_402\n      jump\t// in\n    tag_483:\n        /* \"#utility.yul\":2169:2308   */\n      swap3\n      swap2\n      pop\n      pop\n      jump\t// out\n        /* \"#utility.yul\":2314:2643   */\n    tag_40:\n        /* \"#utility.yul\":2373:2379   */\n      0x00\n        /* \"#utility.yul\":2422:2424   */\n      0x20\n        /* \"#utility.yul\":2410:2419   */\n      dup3\n        /* \"#utility.yul\":2401:2408   */\n      dup5\n        /* \"#utility.yul\":2397:2420   */\n      sub\n        /* \"#utility.yul\":2393:2425   */\n      slt\n        /* \"#utility.yul\":2390:2509   */\n      iszero\n      tag_485\n      jumpi\n        /* \"#utility.yul\":2428:2507   */\n      tag_486\n      tag_396\n      jump\t// in\n    tag_486:\n        /* \"#utility.yul\":2390:2509   */\n    tag_485:\n        /* \"#utility.yul\":2548:2549   */\n      0x00\n        /* \"#utility.yul\":2573:2626   */\n      tag_487\n        /* \"#utility.yul\":2618:2625   */\n      dup5\n        /* \"#utility.yul\":2609:2615   */\n      dup3\n        /* \"#utility.yul\":2598:2607   */\n      dup6\n        /* \"#utility.yul\":2594:2616   */\n      add\n        /* \"#utility.yul\":2573:2626   */\n      tag_403\n      jump\t// in\n    tag_487:\n        /* \"#utility.yul\":2563:2626   */\n      swap2\n      pop\n        /* \"#utility.yul\":2519:2636   */\n      pop\n        /* \"#utility.yul\":2314:2643   */\n      swap3\n      swap2\n      pop\n      pop\n      jump\t// out\n        /* \"#utility.yul\":2649:2739   */\n    tag_404:\n        /* \"#utility.yul\":2683:2690   */\n      0x00\n        /* \"#utility.yul\":2726:2731   */\n      dup2\n        /* \"#utility.yul\":2719:2732   */\n      iszero\n        /* \"#utility.yul\":2712:2733   */\n      iszero\n        /* \"#utility.yul\":2701:2733   */\n      swap1\n      pop\n        /* \"#utility.yul\":2649:2739   */\n      swap2\n      swap1\n      pop\n      jump\t// out\n        /* \"#utility.yul\":2745:2854   */\n    tag_405:\n        /* \"#utility.yul\":2826:2847   */\n      tag_490\n        /* \"#utility.yul\":2841:2846   */\n      dup2\n        /* \"#utility.yul\":2826:2847   */\n      tag_404\n      jump\t// in\n    tag_490:\n        /* \"#utility.yul\":2821:2824   */\n      dup3\n        /* \"#utility.yul\":2814:2848   */\n      mstore\n        /* \"#utility.yul\":2745:2854   */\n      pop\n      pop\n      jump\t// out\n        /* \"#utility.yul\":2860:3492   */\n    tag_43:\n        /* \"#utility.yul\":3049:3053   */\n      0x00\n        /* \"#utility.yul\":3087:3090   */\n      0xa0\n        /* \"#utility.yul\":3076:3085   */\n      dup3\n        /* \"#utility.yul\":3072:3091   */\n      add\n        /* \"#utility.yul\":3064:3091   */\n      swap1\n      pop\n        /* \"#utility.yul\":3101:3172   */\n      tag_492\n        /* \"#utility.yul\":3169:3170   */\n      0x00\n        /* \"#utility.yul\":3158:3167   */\n      dup4\n        /* \"#utility.yul\":3154:3171   */\n      add\n        /* \"#utility.yul\":3145:3151   */\n      dup9\n        /* \"#utility.yul\":3101:3172   */\n      tag_394\n      jump\t// in\n    tag_492:\n        /* \"#utility.yul\":3182:3250   */\n      tag_493\n        /* \"#utility.yul\":3246:3248   */\n      0x20\n        /* \"#utility.yul\":3235:3244   */\n      dup4\n        /* \"#utility.yul\":3231:3249   */\n      add\n        /* \"#utility.yul\":3222:3228   */\n      dup8\n        /* \"#utility.yul\":3182:3250   */\n      tag_392\n      jump\t// in\n    tag_493:\n        /* \"#utility.yul\":3260:3332   */\n      tag_494\n        /* \"#utility.yul\":3328:3330   */\n      0x40\n        /* \"#utility.yul\":3317:3326   */\n      dup4\n        /* \"#utility.yul\":3313:3331   */\n      add\n        /* \"#utility.yul\":3304:3310   */\n      dup7\n        /* \"#utility.yul\":3260:3332   */\n      tag_394\n      jump\t// in\n    tag_494:\n        /* \"#utility.yul\":3342:3408   */\n      tag_495\n        /* \"#utility.yul\":3404:3406   */\n      0x60\n        /* \"#utility.yul\":3393:3402   */\n      dup4\n        /* \"#utility.yul\":3389:3407   */\n      add\n        /* \"#utility.yul\":3380:3386   */\n      dup6\n        /* \"#utility.yul\":3342:3408   */\n      tag_405\n      jump\t// in\n    tag_495:\n        /* \"#utility.yul\":3418:3485   */\n      tag_496\n        /* \"#utility.yul\":3480:3483   */\n      0x80\n        /* \"#utility.yul\":3469:3478   */\n      dup4\n        /* \"#utility.yul\":3465:3484   */\n      add\n        /* \"#utility.yul\":3456:3462   */\n      dup5\n        /* \"#utility.yul\":3418:3485   */\n      tag_405\n      jump\t// in\n    tag_496:\n        /* \"#utility.yul\":2860:3492   */\n      swap7\n      swap6\n      pop\n      pop\n      pop\n      pop\n      pop\n      pop\n      jump\t// out\n        /* \"#utility.yul\":3498:3616   */\n    tag_406:\n        /* \"#utility.yul\":3585:3609   */\n      tag_498\n        /* \"#utility.yul\":3603:3608   */\n      dup2\n        /* \"#utility.yul\":3585:3609   */\n      tag_401\n      jump\t// in\n    tag_498:\n        /* \"#utility.yul\":3580:3583   */\n      dup3\n        /* \"#utility.yul\":3573:3610   */\n      mstore\n        /* \"#utility.yul\":3498:3616   */\n      pop\n      pop\n      jump\t// out\n        /* \"#utility.yul\":3622:3844   */\n    tag_60:\n        /* \"#utility.yul\":3715:3719   */\n      0x00\n        /* \"#utility.yul\":3753:3755   */\n      0x20\n        /* \"#utility.yul\":3742:3751   */\n      dup3\n        /* \"#utility.yul\":3738:3756   */\n      add\n        /* \"#utility.yul\":3730:3756   */\n      swap1\n      pop\n        /* \"#utility.yul\":3766:3837   */\n      tag_500\n        /* \"#utility.yul\":3834:3835   */\n      0x00\n        /* \"#utility.yul\":3823:3832   */\n      dup4\n        /* \"#utility.yul\":3819:3836   */\n      add\n        /* \"#utility.yul\":3810:3816   */\n      dup5\n        /* \"#utility.yul\":3766:3837   */\n      tag_406\n      jump\t// in\n    tag_500:\n        /* \"#utility.yul\":3622:3844   */\n      swap3\n      swap2\n      pop\n      pop\n      jump\t// out\n        /* \"#utility.yul\":3850:4030   */\n    tag_110:\n        /* \"#utility.yul\":3898:3975   */\n      0x4e487b7100000000000000000000000000000000000000000000000000000000\n        /* \"#utility.yul\":3895:3896   */\n      0x00\n        /* \"#utility.yul\":3888:3976   */\n      mstore\n        /* \"#utility.yul\":3995:3999   */\n      0x21\n        /* \"#utility.yul\":3992:3993   */\n      0x04\n        /* \"#utility.yul\":3985:4000   */\n      mstore\n        /* \"#utility.yul\":4019:4023   */\n      0x24\n        /* \"#utility.yul\":4016:4017   */\n      0x00\n        /* \"#utility.yul\":4009:4024   */\n      revert\n        /* \"#utility.yul\":4036:4148   */\n    tag_407:\n        /* \"#utility.yul\":4116:4117   */\n      0x05\n        /* \"#utility.yul\":4109:4114   */\n      dup2\n        /* \"#utility.yul\":4106:4118   */\n      lt\n        /* \"#utility.yul\":4096:4142   */\n      tag_503\n      jumpi\n        /* \"#utility.yul\":4122:4140   */\n      tag_504\n      tag_110\n      jump\t// in\n    tag_504:\n        /* \"#utility.yul\":4096:4142   */\n    tag_503:\n        /* \"#utility.yul\":4036:4148   */\n      pop\n      jump\t// out\n        /* \"#utility.yul\":4154:4279   */\n    tag_408:\n        /* \"#utility.yul\":4198:4205   */\n      0x00\n        /* \"#utility.yul\":4227:4232   */\n      dup2\n        /* \"#utility.yul\":4216:4232   */\n      swap1\n      pop\n        /* \"#utility.yul\":4233:4273   */\n      tag_506\n        /* \"#utility.yul\":4267:4272   */\n      dup3\n        /* \"#utility.yul\":4233:4273   */\n      tag_407\n      jump\t// in\n    tag_506:\n        /* \"#utility.yul\":4154:4279   */\n      swap2\n      swap1\n      pop\n      jump\t// out\n        /* \"#utility.yul\":4285:4410   */\n    tag_409:\n        /* \"#utility.yul\":4340:4349   */\n      0x00\n        /* \"#utility.yul\":4373:4404   */\n      tag_508\n        /* \"#utility.yul\":4398:4403   */\n      dup3\n        /* \"#utility.yul\":4373:4404   */\n      tag_408\n      jump\t// in\n    tag_508:\n        /* \"#utility.yul\":4360:4404   */\n      swap1\n      pop\n        /* \"#utility.yul\":4285:4410   */\n      swap2\n      swap1\n      pop\n      jump\t// out\n        /* \"#utility.yul\":4416:4557   */\n    tag_410:\n        /* \"#utility.yul\":4508:4550   */\n      tag_510\n        /* \"#utility.yul\":4544:4549   */\n      dup2\n        /* \"#utility.yul\":4508:4550   */\n      tag_409\n      jump\t// in\n    tag_510:\n        /* \"#utility.yul\":4503:4506   */\n      dup3\n        /* \"#utility.yul\":4496:4551   */\n      mstore\n        /* \"#utility.yul\":4416:4557   */\n      pop\n      pop\n      jump\t// out\n        /* \"#utility.yul\":4563:4795   */\n    tag_68:\n        /* \"#utility.yul\":4661:4665   */\n      0x00\n        /* \"#utility.yul\":4699:4701   */\n      0x20\n        /* \"#utility.yul\":4688:4697   */\n      dup3\n        /* \"#utility.yul\":4684:4702   */\n      add\n        /* \"#utility.yul\":4676:4702   */\n      swap1\n      pop\n        /* \"#utility.yul\":4712:4788   */\n      tag_512\n        /* \"#utility.yul\":4785:4786   */\n      0x00\n        /* \"#utility.yul\":4774:4783   */\n      dup4\n        /* \"#utility.yul\":4770:4787   */\n      add\n        /* \"#utility.yul\":4761:4767   */\n      dup5\n        /* \"#utility.yul\":4712:4788   */\n      tag_410\n      jump\t// in\n    tag_512:\n        /* \"#utility.yul\":4563:4795   */\n      swap3\n      swap2\n      pop\n      pop\n      jump\t// out\n        /* \"#utility.yul\":4801:5544   */\n    tag_80:\n        /* \"#utility.yul\":5018:5022   */\n      0x00\n        /* \"#utility.yul\":5056:5059   */\n      0xc0\n        /* \"#utility.yul\":5045:5054   */\n      dup3\n        /* \"#utility.yul\":5041:5060   */\n      add\n        /* \"#utility.yul\":5033:5060   */\n      swap1\n      pop\n        /* \"#utility.yul\":5070:5141   */\n      tag_514\n        /* \"#utility.yul\":5138:5139   */\n      0x00\n        /* \"#utility.yul\":5127:5136   */\n      dup4\n        /* \"#utility.yul\":5123:5140   */\n      add\n        /* \"#utility.yul\":5114:5120   */\n      dup10\n        /* \"#utility.yul\":5070:5141   */\n      tag_406\n      jump\t// in\n    tag_514:\n        /* \"#utility.yul\":5151:5223   */\n      tag_515\n        /* \"#utility.yul\":5219:5221   */\n      0x20\n        /* \"#utility.yul\":5208:5217   */\n      dup4\n        /* \"#utility.yul\":5204:5222   */\n      add\n        /* \"#utility.yul\":5195:5201   */\n      dup9\n        /* \"#utility.yul\":5151:5223   */\n      tag_394\n      jump\t// in\n    tag_515:\n        /* \"#utility.yul\":5233:5301   */\n      tag_516\n        /* \"#utility.yul\":5297:5299   */\n      0x40\n        /* \"#utility.yul\":5286:5295   */\n      dup4\n        /* \"#utility.yul\":5282:5300   */\n      add\n        /* \"#utility.yul\":5273:5279   */\n      dup8\n        /* \"#utility.yul\":5233:5301   */\n      tag_392\n      jump\t// in\n    tag_516:\n        /* \"#utility.yul\":5311:5383   */\n      tag_517\n        /* \"#utility.yul\":5379:5381   */\n      0x60\n        /* \"#utility.yul\":5368:5377   */\n      dup4\n        /* \"#utility.yul\":5364:5382   */\n      add\n        /* \"#utility.yul\":5355:5361   */\n      dup7\n        /* \"#utility.yul\":5311:5383   */\n      tag_394\n      jump\t// in\n    tag_517:\n        /* \"#utility.yul\":5393:5460   */\n      tag_518\n        /* \"#utility.yul\":5455:5458   */\n      0x80\n        /* \"#utility.yul\":5444:5453   */\n      dup4\n        /* \"#utility.yul\":5440:5459   */\n      add\n        /* \"#utility.yul\":5431:5437   */\n      dup6\n        /* \"#utility.yul\":5393:5460   */\n      tag_405\n      jump\t// in\n    tag_518:\n        /* \"#utility.yul\":5470:5537   */\n      tag_519\n        /* \"#utility.yul\":5532:5535   */\n      0xa0\n        /* \"#utility.yul\":5521:5530   */\n      dup4\n        /* \"#utility.yul\":5517:5536   */\n      add\n        /* \"#utility.yul\":5508:5514   */\n      dup5\n        /* \"#utility.yul\":5470:5537   */\n      tag_405\n      jump\t// in\n    tag_519:\n        /* \"#utility.yul\":4801:5544   */\n      swap8\n      swap7\n      pop\n      pop\n      pop\n      pop\n      pop\n      pop\n      pop\n      jump\t// out\n        /* \"#utility.yul\":5550:5719   */\n    tag_411:\n        /* \"#utility.yul\":5634:5645   */\n      0x00\n        /* \"#utility.yul\":5668:5674   */\n      dup3\n        /* \"#utility.yul\":5663:5666   */\n      dup3\n        /* \"#utility.yul\":5656:5675   */\n      mstore\n        /* \"#utility.yul\":5708:5712   */\n      0x20\n        /* \"#utility.yul\":5703:5706   */\n      dup3\n        /* \"#utility.yul\":5699:5713   */\n      add\n        /* \"#utility.yul\":5684:5713   */\n      swap1\n      pop\n        /* \"#utility.yul\":5550:5719   */\n      swap3\n      swap2\n      pop\n      pop\n      jump\t// out\n        /* \"#utility.yul\":5725:5903   */\n    tag_412:\n        /* \"#utility.yul\":5865:5895   */\n      0x4174206c6561737420302e303031204554482072657175697265642e00000000\n        /* \"#utility.yul\":5861:5862   */\n      0x00\n        /* \"#utility.yul\":5853:5859   */\n      dup3\n        /* \"#utility.yul\":5849:5863   */\n      add\n        /* \"#utility.yul\":5842:5896   */\n      mstore\n        /* \"#utility.yul\":5725:5903   */\n      pop\n      jump\t// out\n        /* \"#utility.yul\":5909:6275   */\n    tag_413:\n        /* \"#utility.yul\":6051:6054   */\n      0x00\n        /* \"#utility.yul\":6072:6139   */\n      tag_523\n        /* \"#utility.yul\":6136:6138   */\n      0x1c\n        /* \"#utility.yul\":6131:6134   */\n      dup4\n        /* \"#utility.yul\":6072:6139   */\n      tag_411\n      jump\t// in\n    tag_523:\n        /* \"#utility.yul\":6065:6139   */\n      swap2\n      pop\n        /* \"#utility.yul\":6148:6241   */\n      tag_524\n        /* \"#utility.yul\":6237:6240   */\n      dup3\n        /* \"#utility.yul\":6148:6241   */\n      tag_412\n      jump\t// in\n    tag_524:\n        /* \"#utility.yul\":6266:6268   */\n      0x20\n        /* \"#utility.yul\":6261:6264   */\n      dup3\n        /* \"#utility.yul\":6257:6269   */\n      add\n        /* \"#utility.yul\":6250:6269   */\n      swap1\n      pop\n        /* \"#utility.yul\":5909:6275   */\n      swap2\n      swap1\n      pop\n      jump\t// out\n        /* \"#utility.yul\":6281:6700   */\n    tag_87:\n        /* \"#utility.yul\":6447:6451   */\n      0x00\n        /* \"#utility.yul\":6485:6487   */\n      0x20\n        /* \"#utility.yul\":6474:6483   */\n      dup3\n        /* \"#utility.yul\":6470:6488   */\n      add\n        /* \"#utility.yul\":6462:6488   */\n      swap1\n      pop\n        /* \"#utility.yul\":6534:6543   */\n      dup2\n        /* \"#utility.yul\":6528:6532   */\n      dup2\n        /* \"#utility.yul\":6524:6544   */\n      sub\n        /* \"#utility.yul\":6520:6521   */\n      0x00\n        /* \"#utility.yul\":6509:6518   */\n      dup4\n        /* \"#utility.yul\":6505:6522   */\n      add\n        /* \"#utility.yul\":6498:6545   */\n      mstore\n        /* \"#utility.yul\":6562:6693   */\n      tag_526\n        /* \"#utility.yul\":6688:6692   */\n      dup2\n        /* \"#utility.yul\":6562:6693   */\n      tag_413\n      jump\t// in\n    tag_526:\n        /* \"#utility.yul\":6554:6693   */\n      swap1\n      pop\n        /* \"#utility.yul\":6281:6700   */\n      swap2\n      swap1\n      pop\n      jump\t// out\n        /* \"#utility.yul\":6706:6886   */\n    tag_414:\n        /* \"#utility.yul\":6754:6831   */\n      0x4e487b7100000000000000000000000000000000000000000000000000000000\n        /* \"#utility.yul\":6751:6752   */\n      0x00\n        /* \"#utility.yul\":6744:6832   */\n      mstore\n        /* \"#utility.yul\":6851:6855   */\n      0x11\n        /* \"#utility.yul\":6848:6849   */\n      0x04\n        /* \"#utility.yul\":6841:6856   */\n      mstore\n        /* \"#utility.yul\":6875:6879   */\n      0x24\n        /* \"#utility.yul\":6872:6873   */\n      0x00\n        /* \"#utility.yul\":6865:6880   */\n      revert\n        /* \"#utility.yul\":6892:7302   */\n    tag_89:\n        /* \"#utility.yul\":6932:6939   */\n      0x00\n        /* \"#utility.yul\":6955:6975   */\n      tag_529\n        /* \"#utility.yul\":6973:6974   */\n      dup3\n        /* \"#utility.yul\":6955:6975   */\n      tag_393\n      jump\t// in\n    tag_529:\n        /* \"#utility.yul\":6950:6975   */\n      swap2\n      pop\n        /* \"#utility.yul\":6989:7009   */\n      tag_530\n        /* \"#utility.yul\":7007:7008   */\n      dup4\n        /* \"#utility.yul\":6989:7009   */\n      tag_393\n      jump\t// in\n    tag_530:\n        /* \"#utility.yul\":6984:7009   */\n      swap3\n      pop\n        /* \"#utility.yul\":7044:7045   */\n      dup3\n        /* \"#utility.yul\":7041:7042   */\n      dup3\n        /* \"#utility.yul\":7037:7046   */\n      mul\n        /* \"#utility.yul\":7066:7096   */\n      tag_531\n        /* \"#utility.yul\":7084:7095   */\n      dup2\n        /* \"#utility.yul\":7066:7096   */\n      tag_393\n      jump\t// in\n    tag_531:\n        /* \"#utility.yul\":7055:7096   */\n      swap2\n      pop\n        /* \"#utility.yul\":7245:7246   */\n      dup3\n        /* \"#utility.yul\":7236:7243   */\n      dup3\n        /* \"#utility.yul\":7232:7247   */\n      div\n        /* \"#utility.yul\":7229:7230   */\n      dup5\n        /* \"#utility.yul\":7226:7248   */\n      eq\n        /* \"#utility.yul\":7206:7207   */\n      dup4\n        /* \"#utility.yul\":7199:7208   */\n      iszero\n        /* \"#utility.yul\":7179:7262   */\n      or\n        /* \"#utility.yul\":7156:7295   */\n      tag_532\n      jumpi\n        /* \"#utility.yul\":7275:7293   */\n      tag_533\n      tag_414\n      jump\t// in\n    tag_533:\n        /* \"#utility.yul\":7156:7295   */\n    tag_532:\n        /* \"#utility.yul\":6940:7302   */\n      pop\n        /* \"#utility.yul\":6892:7302   */\n      swap3\n      swap2\n      pop\n      pop\n      jump\t// out\n        /* \"#utility.yul\":7308:7488   */\n    tag_415:\n        /* \"#utility.yul\":7356:7433   */\n      0x4e487b7100000000000000000000000000000000000000000000000000000000\n        /* \"#utility.yul\":7353:7354   */\n      0x00\n        /* \"#utility.yul\":7346:7434   */\n      mstore\n        /* \"#utility.yul\":7453:7457   */\n      0x12\n        /* \"#utility.yul\":7450:7451   */\n      0x04\n        /* \"#utility.yul\":7443:7458   */\n      mstore\n        /* \"#utility.yul\":7477:7481   */\n      0x24\n        /* \"#utility.yul\":7474:7475   */\n      0x00\n        /* \"#utility.yul\":7467:7482   */\n      revert\n        /* \"#utility.yul\":7494:7679   */\n    tag_91:\n        /* \"#utility.yul\":7534:7535   */\n      0x00\n        /* \"#utility.yul\":7551:7571   */\n      tag_536\n        /* \"#utility.yul\":7569:7570   */\n      dup3\n        /* \"#utility.yul\":7551:7571   */\n      tag_393\n      jump\t// in\n    tag_536:\n        /* \"#utility.yul\":7546:7571   */\n      swap2\n      pop\n        /* \"#utility.yul\":7585:7605   */\n      tag_537\n        /* \"#utility.yul\":7603:7604   */\n      dup4\n        /* \"#utility.yul\":7585:7605   */\n      tag_393\n      jump\t// in\n    tag_537:\n        /* \"#utility.yul\":7580:7605   */\n      swap3\n      pop\n        /* \"#utility.yul\":7624:7625   */\n      dup3\n        /* \"#utility.yul\":7614:7649   */\n      tag_538\n      jumpi\n        /* \"#utility.yul\":7629:7647   */\n      tag_539\n      tag_415\n      jump\t// in\n    tag_539:\n        /* \"#utility.yul\":7614:7649   */\n    tag_538:\n        /* \"#utility.yul\":7671:7672   */\n      dup3\n        /* \"#utility.yul\":7668:7669   */\n      dup3\n        /* \"#utility.yul\":7664:7673   */\n      div\n        /* \"#utility.yul\":7659:7673   */\n      swap1\n      pop\n        /* \"#utility.yul\":7494:7679   */\n      swap3\n      swap2\n      pop\n      pop\n      jump\t// out\n        /* \"#utility.yul\":7685:7876   */\n    tag_93:\n        /* \"#utility.yul\":7725:7728   */\n      0x00\n        /* \"#utility.yul\":7744:7764   */\n      tag_541\n        /* \"#utility.yul\":7762:7763   */\n      dup3\n        /* \"#utility.yul\":7744:7764   */\n      tag_393\n      jump\t// in\n    tag_541:\n        /* \"#utility.yul\":7739:7764   */\n      swap2\n      pop\n        /* \"#utility.yul\":7778:7798   */\n      tag_542\n        /* \"#utility.yul\":7796:7797   */\n      dup4\n        /* \"#utility.yul\":7778:7798   */\n      tag_393\n      jump\t// in\n    tag_542:\n        /* \"#utility.yul\":7773:7798   */\n      swap3\n      pop\n        /* \"#utility.yul\":7821:7822   */\n      dup3\n        /* \"#utility.yul\":7818:7819   */\n      dup3\n        /* \"#utility.yul\":7814:7823   */\n      add\n        /* \"#utility.yul\":7807:7823   */\n      swap1\n      pop\n        /* \"#utility.yul\":7842:7845   */\n      dup1\n        /* \"#utility.yul\":7839:7840   */\n      dup3\n        /* \"#utility.yul\":7836:7846   */\n      gt\n        /* \"#utility.yul\":7833:7869   */\n      iszero\n      tag_543\n      jumpi\n        /* \"#utility.yul\":7849:7867   */\n      tag_544\n      tag_414\n      jump\t// in\n    tag_544:\n        /* \"#utility.yul\":7833:7869   */\n    tag_543:\n        /* \"#utility.yul\":7685:7876   */\n      swap3\n      swap2\n      pop\n      pop\n      jump\t// out\n        /* \"#utility.yul\":7882:8214   */\n    tag_95:\n        /* \"#utility.yul\":8003:8007   */\n      0x00\n        /* \"#utility.yul\":8041:8043   */\n      0x40\n        /* \"#utility.yul\":8030:8039   */\n      dup3\n        /* \"#utility.yul\":8026:8044   */\n      add\n        /* \"#utility.yul\":8018:8044   */\n      swap1\n      pop\n        /* \"#utility.yul\":8054:8125   */\n      tag_546\n        /* \"#utility.yul\":8122:8123   */\n      0x00\n        /* \"#utility.yul\":8111:8120   */\n      dup4\n        /* \"#utility.yul\":8107:8124   */\n      add\n        /* \"#utility.yul\":8098:8104   */\n      dup6\n        /* \"#utility.yul\":8054:8125   */\n      tag_394\n      jump\t// in\n    tag_546:\n        /* \"#utility.yul\":8135:8207   */\n      tag_547\n        /* \"#utility.yul\":8203:8205   */\n      0x20\n        /* \"#utility.yul\":8192:8201   */\n      dup4\n        /* \"#utility.yul\":8188:8206   */\n      add\n        /* \"#utility.yul\":8179:8185   */\n      dup5\n        /* \"#utility.yul\":8135:8207   */\n      tag_394\n      jump\t// in\n    tag_547:\n        /* \"#utility.yul\":7882:8214   */\n      swap4\n      swap3\n      pop\n      pop\n      pop\n      jump\t// out\n        /* \"#utility.yul\":8220:8402   */\n    tag_416:\n        /* \"#utility.yul\":8360:8394   */\n      0x496e73756666696369656e7420636869707320666f722065786368616e67652e\n        /* \"#utility.yul\":8356:8357   */\n      0x00\n        /* \"#utility.yul\":8348:8354   */\n      dup3\n        /* \"#utility.yul\":8344:8358   */\n      add\n        /* \"#utility.yul\":8337:8395   */\n      mstore\n        /* \"#utility.yul\":8220:8402   */\n      pop\n      jump\t// out\n        /* \"#utility.yul\":8408:8774   */\n    tag_417:\n        /* \"#utility.yul\":8550:8553   */\n      0x00\n        /* \"#utility.yul\":8571:8638   */\n      tag_550\n        /* \"#utility.yul\":8635:8637   */\n      0x20\n        /* \"#utility.yul\":8630:8633   */\n      dup4\n        /* \"#utility.yul\":8571:8638   */\n      tag_411\n      jump\t// in\n    tag_550:\n        /* \"#utility.yul\":8564:8638   */\n      swap2\n      pop\n        /* \"#utility.yul\":8647:8740   */\n      tag_551\n        /* \"#utility.yul\":8736:8739   */\n      dup3\n        /* \"#utility.yul\":8647:8740   */\n      tag_416\n      jump\t// in\n    tag_551:\n        /* \"#utility.yul\":8765:8767   */\n      0x20\n        /* \"#utility.yul\":8760:8763   */\n      dup3\n        /* \"#utility.yul\":8756:8768   */\n      add\n        /* \"#utility.yul\":8749:8768   */\n      swap1\n      pop\n        /* \"#utility.yul\":8408:8774   */\n      swap2\n      swap1\n      pop\n      jump\t// out\n        /* \"#utility.yul\":8780:9199   */\n    tag_99:\n        /* \"#utility.yul\":8946:8950   */\n      0x00\n        /* \"#utility.yul\":8984:8986   */\n      0x20\n        /* \"#utility.yul\":8973:8982   */\n      dup3\n        /* \"#utility.yul\":8969:8987   */\n      add\n        /* \"#utility.yul\":8961:8987   */\n      swap1\n      pop\n        /* \"#utility.yul\":9033:9042   */\n      dup2\n        /* \"#utility.yul\":9027:9031   */\n      dup2\n        /* \"#utility.yul\":9023:9043   */\n      sub\n        /* \"#utility.yul\":9019:9020   */\n      0x00\n        /* \"#utility.yul\":9008:9017   */\n      dup4\n        /* \"#utility.yul\":9004:9021   */\n      add\n        /* \"#utility.yul\":8997:9044   */\n      mstore\n        /* \"#utility.yul\":9061:9192   */\n      tag_553\n        /* \"#utility.yul\":9187:9191   */\n      dup2\n        /* \"#utility.yul\":9061:9192   */\n      tag_417\n      jump\t// in\n    tag_553:\n        /* \"#utility.yul\":9053:9192   */\n      swap1\n      pop\n        /* \"#utility.yul\":8780:9199   */\n      swap2\n      swap1\n      pop\n      jump\t// out\n        /* \"#utility.yul\":9205:9399   */\n    tag_101:\n        /* \"#utility.yul\":9245:9249   */\n      0x00\n        /* \"#utility.yul\":9265:9285   */\n      tag_555\n        /* \"#utility.yul\":9283:9284   */\n      dup3\n        /* \"#utility.yul\":9265:9285   */\n      tag_393\n      jump\t// in\n    tag_555:\n        /* \"#utility.yul\":9260:9285   */\n      swap2\n      pop\n        /* \"#utility.yul\":9299:9319   */\n      tag_556\n        /* \"#utility.yul\":9317:9318   */\n      dup4\n        /* \"#utility.yul\":9299:9319   */\n      tag_393\n      jump\t// in\n    tag_556:\n        /* \"#utility.yul\":9294:9319   */\n      swap3\n      pop\n        /* \"#utility.yul\":9343:9344   */\n      dup3\n        /* \"#utility.yul\":9340:9341   */\n      dup3\n        /* \"#utility.yul\":9336:9345   */\n      sub\n        /* \"#utility.yul\":9328:9345   */\n      swap1\n      pop\n        /* \"#utility.yul\":9367:9368   */\n      dup2\n        /* \"#utility.yul\":9361:9365   */\n      dup2\n        /* \"#utility.yul\":9358:9369   */\n      gt\n        /* \"#utility.yul\":9355:9392   */\n      iszero\n      tag_557\n      jumpi\n        /* \"#utility.yul\":9372:9390   */\n      tag_558\n      tag_414\n      jump\t// in\n    tag_558:\n        /* \"#utility.yul\":9355:9392   */\n    tag_557:\n        /* \"#utility.yul\":9205:9399   */\n      swap3\n      swap2\n      pop\n      pop\n      jump\t// out\n        /* \"#utility.yul\":9405:9576   */\n    tag_418:\n        /* \"#utility.yul\":9545:9568   */\n      0x4e6f7420696e2062657474696e672070686173652e0000000000000000000000\n        /* \"#utility.yul\":9541:9542   */\n      0x00\n        /* \"#utility.yul\":9533:9539   */\n      dup3\n        /* \"#utility.yul\":9529:9543   */\n      add\n        /* \"#utility.yul\":9522:9569   */\n      mstore\n        /* \"#utility.yul\":9405:9576   */\n      pop\n      jump\t// out\n        /* \"#utility.yul\":9582:9948   */\n    tag_419:\n        /* \"#utility.yul\":9724:9727   */\n      0x00\n        /* \"#utility.yul\":9745:9812   */\n      tag_561\n        /* \"#utility.yul\":9809:9811   */\n      0x15\n        /* \"#utility.yul\":9804:9807   */\n      dup4\n        /* \"#utility.yul\":9745:9812   */\n      tag_411\n      jump\t// in\n    tag_561:\n        /* \"#utility.yul\":9738:9812   */\n      swap2\n      pop\n        /* \"#utility.yul\":9821:9914   */\n      tag_562\n        /* \"#utility.yul\":9910:9913   */\n      dup3\n        /* \"#utility.yul\":9821:9914   */\n      tag_418\n      jump\t// in\n    tag_562:\n        /* \"#utility.yul\":9939:9941   */\n      0x20\n        /* \"#utility.yul\":9934:9937   */\n      dup3\n        /* \"#utility.yul\":9930:9942   */\n      add\n        /* \"#utility.yul\":9923:9942   */\n      swap1\n      pop\n        /* \"#utility.yul\":9582:9948   */\n      swap2\n      swap1\n      pop\n      jump\t// out\n        /* \"#utility.yul\":9954:10373   */\n    tag_115:\n        /* \"#utility.yul\":10120:10124   */\n      0x00\n        /* \"#utility.yul\":10158:10160   */\n      0x20\n        /* \"#utility.yul\":10147:10156   */\n      dup3\n        /* \"#utility.yul\":10143:10161   */\n      add\n        /* \"#utility.yul\":10135:10161   */\n      swap1\n      pop\n        /* \"#utility.yul\":10207:10216   */\n      dup2\n        /* \"#utility.yul\":10201:10205   */\n      dup2\n        /* \"#utility.yul\":10197:10217   */\n      sub\n        /* \"#utility.yul\":10193:10194   */\n      0x00\n        /* \"#utility.yul\":10182:10191   */\n      dup4\n        /* \"#utility.yul\":10178:10195   */\n      add\n        /* \"#utility.yul\":10171:10218   */\n      mstore\n        /* \"#utility.yul\":10235:10366   */\n      tag_564\n        /* \"#utility.yul\":10361:10365   */\n      dup2\n        /* \"#utility.yul\":10235:10366   */\n      tag_419\n      jump\t// in\n    tag_564:\n        /* \"#utility.yul\":10227:10366   */\n      swap1\n      pop\n        /* \"#utility.yul\":9954:10373   */\n      swap2\n      swap1\n      pop\n      jump\t// out\n        /* \"#utility.yul\":10379:10559   */\n    tag_118:\n        /* \"#utility.yul\":10427:10504   */\n      0x4e487b7100000000000000000000000000000000000000000000000000000000\n        /* \"#utility.yul\":10424:10425   */\n      0x00\n        /* \"#utility.yul\":10417:10505   */\n      mstore\n        /* \"#utility.yul\":10524:10528   */\n      0x32\n        /* \"#utility.yul\":10521:10522   */\n      0x04\n        /* \"#utility.yul\":10514:10529   */\n      mstore\n        /* \"#utility.yul\":10548:10552   */\n      0x24\n        /* \"#utility.yul\":10545:10546   */\n      0x00\n        /* \"#utility.yul\":10538:10553   */\n      revert\n        /* \"#utility.yul\":10565:10729   */\n    tag_420:\n        /* \"#utility.yul\":10705:10721   */\n      0x4e6f7420796f7572207475726e2e000000000000000000000000000000000000\n        /* \"#utility.yul\":10701:10702   */\n      0x00\n        /* \"#utility.yul\":10693:10699   */\n      dup3\n        /* \"#utility.yul\":10689:10703   */\n      add\n        /* \"#utility.yul\":10682:10722   */\n      mstore\n        /* \"#utility.yul\":10565:10729   */\n      pop\n      jump\t// out\n        /* \"#utility.yul\":10735:11101   */\n    tag_421:\n        /* \"#utility.yul\":10877:10880   */\n      0x00\n        /* \"#utility.yul\":10898:10965   */\n      tag_568\n        /* \"#utility.yul\":10962:10964   */\n      0x0e\n        /* \"#utility.yul\":10957:10960   */\n      dup4\n        /* \"#utility.yul\":10898:10965   */\n      tag_411\n      jump\t// in\n    tag_568:\n        /* \"#utility.yul\":10891:10965   */\n      swap2\n      pop\n        /* \"#utility.yul\":10974:11067   */\n      tag_569\n        /* \"#utility.yul\":11063:11066   */\n      dup3\n        /* \"#utility.yul\":10974:11067   */\n      tag_420\n      jump\t// in\n    tag_569:\n        /* \"#utility.yul\":11092:11094   */\n      0x20\n        /* \"#utility.yul\":11087:11090   */\n      dup3\n        /* \"#utility.yul\":11083:11095   */\n      add\n        /* \"#utility.yul\":11076:11095   */\n      swap1\n      pop\n        /* \"#utility.yul\":10735:11101   */\n      swap2\n      swap1\n      pop\n      jump\t// out\n        /* \"#utility.yul\":11107:11526   */\n    tag_122:\n        /* \"#utility.yul\":11273:11277   */\n      0x00\n        /* \"#utility.yul\":11311:11313   */\n      0x20\n        /* \"#utility.yul\":11300:11309   */\n      dup3\n        /* \"#utility.yul\":11296:11314   */\n      add\n        /* \"#utility.yul\":11288:11314   */\n      swap1\n      pop\n        /* \"#utility.yul\":11360:11369   */\n      dup2\n        /* \"#utility.yul\":11354:11358   */\n      dup2\n        /* \"#utility.yul\":11350:11370   */\n      sub\n        /* \"#utility.yul\":11346:11347   */\n      0x00\n        /* \"#utility.yul\":11335:11344   */\n      dup4\n        /* \"#utility.yul\":11331:11348   */\n      add\n        /* \"#utility.yul\":11324:11371   */\n      mstore\n        /* \"#utility.yul\":11388:11519   */\n      tag_571\n        /* \"#utility.yul\":11514:11518   */\n      dup2\n        /* \"#utility.yul\":11388:11519   */\n      tag_421\n      jump\t// in\n    tag_571:\n        /* \"#utility.yul\":11380:11519   */\n      swap1\n      pop\n        /* \"#utility.yul\":11107:11526   */\n      swap2\n      swap1\n      pop\n      jump\t// out\n        /* \"#utility.yul\":11532:11706   */\n    tag_422:\n        /* \"#utility.yul\":11672:11698   */\n      0x596f75206861766520616c726561647920666f6c6465642e0000000000000000\n        /* \"#utility.yul\":11668:11669   */\n      0x00\n        /* \"#utility.yul\":11660:11666   */\n      dup3\n        /* \"#utility.yul\":11656:11670   */\n      add\n        /* \"#utility.yul\":11649:11699   */\n      mstore\n        /* \"#utility.yul\":11532:11706   */\n      pop\n      jump\t// out\n        /* \"#utility.yul\":11712:12078   */\n    tag_423:\n        /* \"#utility.yul\":11854:11857   */\n      0x00\n        /* \"#utility.yul\":11875:11942   */\n      tag_574\n        /* \"#utility.yul\":11939:11941   */\n      0x18\n        /* \"#utility.yul\":11934:11937   */\n      dup4\n        /* \"#utility.yul\":11875:11942   */\n      tag_411\n      jump\t// in\n    tag_574:\n        /* \"#utility.yul\":11868:11942   */\n      swap2\n      pop\n        /* \"#utility.yul\":11951:12044   */\n      tag_575\n        /* \"#utility.yul\":12040:12043   */\n      dup3\n        /* \"#utility.yul\":11951:12044   */\n      tag_422\n      jump\t// in\n    tag_575:\n        /* \"#utility.yul\":12069:12071   */\n      0x20\n        /* \"#utility.yul\":12064:12067   */\n      dup3\n        /* \"#utility.yul\":12060:12072   */\n      add\n        /* \"#utility.yul\":12053:12072   */\n      swap1\n      pop\n        /* \"#utility.yul\":11712:12078   */\n      swap2\n      swap1\n      pop\n      jump\t// out\n        /* \"#utility.yul\":12084:12503   */\n    tag_125:\n        /* \"#utility.yul\":12250:12254   */\n      0x00\n        /* \"#utility.yul\":12288:12290   */\n      0x20\n        /* \"#utility.yul\":12277:12286   */\n      dup3\n        /* \"#utility.yul\":12273:12291   */\n      add\n        /* \"#utility.yul\":12265:12291   */\n      swap1\n      pop\n        /* \"#utility.yul\":12337:12346   */\n      dup2\n        /* \"#utility.yul\":12331:12335   */\n      dup2\n        /* \"#utility.yul\":12327:12347   */\n      sub\n        /* \"#utility.yul\":12323:12324   */\n      0x00\n        /* \"#utility.yul\":12312:12321   */\n      dup4\n        /* \"#utility.yul\":12308:12325   */\n      add\n        /* \"#utility.yul\":12301:12348   */\n      mstore\n        /* \"#utility.yul\":12365:12496   */\n      tag_577\n        /* \"#utility.yul\":12491:12495   */\n      dup2\n        /* \"#utility.yul\":12365:12496   */\n      tag_423\n      jump\t// in\n    tag_577:\n        /* \"#utility.yul\":12357:12496   */\n      swap1\n      pop\n        /* \"#utility.yul\":12084:12503   */\n      swap2\n      swap1\n      pop\n      jump\t// out\n        /* \"#utility.yul\":12509:12684   */\n    tag_424:\n        /* \"#utility.yul\":12649:12676   */\n      0x46697273742062657420616c726561647920706c616365642e00000000000000\n        /* \"#utility.yul\":12645:12646   */\n      0x00\n        /* \"#utility.yul\":12637:12643   */\n      dup3\n        /* \"#utility.yul\":12633:12647   */\n      add\n        /* \"#utility.yul\":12626:12677   */\n      mstore\n        /* \"#utility.yul\":12509:12684   */\n      pop\n      jump\t// out\n        /* \"#utility.yul\":12690:13056   */\n    tag_425:\n        /* \"#utility.yul\":12832:12835   */\n      0x00\n        /* \"#utility.yul\":12853:12920   */\n      tag_580\n        /* \"#utility.yul\":12917:12919   */\n      0x19\n        /* \"#utility.yul\":12912:12915   */\n      dup4\n        /* \"#utility.yul\":12853:12920   */\n      tag_411\n      jump\t// in\n    tag_580:\n        /* \"#utility.yul\":12846:12920   */\n      swap2\n      pop\n        /* \"#utility.yul\":12929:13022   */\n      tag_581\n        /* \"#utility.yul\":13018:13021   */\n      dup3\n        /* \"#utility.yul\":12929:13022   */\n      tag_424\n      jump\t// in\n    tag_581:\n        /* \"#utility.yul\":13047:13049   */\n      0x20\n        /* \"#utility.yul\":13042:13045   */\n      dup3\n        /* \"#utility.yul\":13038:13050   */\n      add\n        /* \"#utility.yul\":13031:13050   */\n      swap1\n      pop\n        /* \"#utility.yul\":12690:13056   */\n      swap2\n      swap1\n      pop\n      jump\t// out\n        /* \"#utility.yul\":13062:13481   */\n    tag_128:\n        /* \"#utility.yul\":13228:13232   */\n      0x00\n        /* \"#utility.yul\":13266:13268   */\n      0x20\n        /* \"#utility.yul\":13255:13264   */\n      dup3\n        /* \"#utility.yul\":13251:13269   */\n      add\n        /* \"#utility.yul\":13243:13269   */\n      swap1\n      pop\n        /* \"#utility.yul\":13315:13324   */\n      dup2\n        /* \"#utility.yul\":13309:13313   */\n      dup2\n        /* \"#utility.yul\":13305:13325   */\n      sub\n        /* \"#utility.yul\":13301:13302   */\n      0x00\n        /* \"#utility.yul\":13290:13299   */\n      dup4\n        /* \"#utility.yul\":13286:13303   */\n      add\n        /* \"#utility.yul\":13279:13326   */\n      mstore\n        /* \"#utility.yul\":13343:13474   */\n      tag_583\n        /* \"#utility.yul\":13469:13473   */\n      dup2\n        /* \"#utility.yul\":13343:13474   */\n      tag_425\n      jump\t// in\n    tag_583:\n        /* \"#utility.yul\":13335:13474   */\n      swap1\n      pop\n        /* \"#utility.yul\":13062:13481   */\n      swap2\n      swap1\n      pop\n      jump\t// out\n        /* \"#utility.yul\":13487:13711   */\n    tag_426:\n        /* \"#utility.yul\":13627:13661   */\n      0x496e73756666696369656e74206368697073206f7220696e76616c696420616d\n        /* \"#utility.yul\":13623:13624   */\n      0x00\n        /* \"#utility.yul\":13615:13621   */\n      dup3\n        /* \"#utility.yul\":13611:13625   */\n      add\n        /* \"#utility.yul\":13604:13662   */\n      mstore\n        /* \"#utility.yul\":13696:13703   */\n      0x6f756e742e000000000000000000000000000000000000000000000000000000\n        /* \"#utility.yul\":13691:13693   */\n      0x20\n        /* \"#utility.yul\":13683:13689   */\n      dup3\n        /* \"#utility.yul\":13679:13694   */\n      add\n        /* \"#utility.yul\":13672:13704   */\n      mstore\n        /* \"#utility.yul\":13487:13711   */\n      pop\n      jump\t// out\n        /* \"#utility.yul\":13717:14083   */\n    tag_427:\n        /* \"#utility.yul\":13859:13862   */\n      0x00\n        /* \"#utility.yul\":13880:13947   */\n      tag_586\n        /* \"#utility.yul\":13944:13946   */\n      0x25\n        /* \"#utility.yul\":13939:13942   */\n      dup4\n        /* \"#utility.yul\":13880:13947   */\n      tag_411\n      jump\t// in\n    tag_586:\n        /* \"#utility.yul\":13873:13947   */\n      swap2\n      pop\n        /* \"#utility.yul\":13956:14049   */\n      tag_587\n        /* \"#utility.yul\":14045:14048   */\n      dup3\n        /* \"#utility.yul\":13956:14049   */\n      tag_426\n      jump\t// in\n    tag_587:\n        /* \"#utility.yul\":14074:14076   */\n      0x40\n        /* \"#utility.yul\":14069:14072   */\n      dup3\n        /* \"#utility.yul\":14065:14077   */\n      add\n        /* \"#utility.yul\":14058:14077   */\n      swap1\n      pop\n        /* \"#utility.yul\":13717:14083   */\n      swap2\n      swap1\n      pop\n      jump\t// out\n        /* \"#utility.yul\":14089:14508   */\n    tag_132:\n        /* \"#utility.yul\":14255:14259   */\n      0x00\n        /* \"#utility.yul\":14293:14295   */\n      0x20\n        /* \"#utility.yul\":14282:14291   */\n      dup3\n        /* \"#utility.yul\":14278:14296   */\n      add\n        /* \"#utility.yul\":14270:14296   */\n      swap1\n      pop\n        /* \"#utility.yul\":14342:14351   */\n      dup2\n        /* \"#utility.yul\":14336:14340   */\n      dup2\n        /* \"#utility.yul\":14332:14352   */\n      sub\n        /* \"#utility.yul\":14328:14329   */\n      0x00\n        /* \"#utility.yul\":14317:14326   */\n      dup4\n        /* \"#utility.yul\":14313:14330   */\n      add\n        /* \"#utility.yul\":14306:14353   */\n      mstore\n        /* \"#utility.yul\":14370:14501   */\n      tag_589\n        /* \"#utility.yul\":14496:14500   */\n      dup2\n        /* \"#utility.yul\":14370:14501   */\n      tag_427\n      jump\t// in\n    tag_589:\n        /* \"#utility.yul\":14362:14501   */\n      swap1\n      pop\n        /* \"#utility.yul\":14089:14508   */\n      swap2\n      swap1\n      pop\n      jump\t// out\n        /* \"#utility.yul\":14514:14705   */\n    tag_137:\n        /* \"#utility.yul\":14552:14556   */\n      0x00\n        /* \"#utility.yul\":14572:14590   */\n      tag_591\n        /* \"#utility.yul\":14588:14589   */\n      dup3\n        /* \"#utility.yul\":14572:14590   */\n      tag_391\n      jump\t// in\n    tag_591:\n        /* \"#utility.yul\":14567:14590   */\n      swap2\n      pop\n        /* \"#utility.yul\":14604:14622   */\n      tag_592\n        /* \"#utility.yul\":14620:14621   */\n      dup4\n        /* \"#utility.yul\":14604:14622   */\n      tag_391\n      jump\t// in\n    tag_592:\n        /* \"#utility.yul\":14599:14622   */\n      swap3\n      pop\n        /* \"#utility.yul\":14646:14647   */\n      dup3\n        /* \"#utility.yul\":14643:14644   */\n      dup3\n        /* \"#utility.yul\":14639:14648   */\n      sub\n        /* \"#utility.yul\":14631:14648   */\n      swap1\n      pop\n        /* \"#utility.yul\":14670:14674   */\n      0xff\n        /* \"#utility.yul\":14664:14668   */\n      dup2\n        /* \"#utility.yul\":14661:14675   */\n      gt\n        /* \"#utility.yul\":14658:14698   */\n      iszero\n      tag_593\n      jumpi\n        /* \"#utility.yul\":14678:14696   */\n      tag_594\n      tag_414\n      jump\t// in\n    tag_594:\n        /* \"#utility.yul\":14658:14698   */\n    tag_593:\n        /* \"#utility.yul\":14514:14705   */\n      swap3\n      swap2\n      pop\n      pop\n      jump\t// out\n        /* \"#utility.yul\":14711:14883   */\n    tag_428:\n        /* \"#utility.yul\":14851:14875   */\n      0x4e6f206163746976652062657420746f2063616c6c2e00000000000000000000\n        /* \"#utility.yul\":14847:14848   */\n      0x00\n        /* \"#utility.yul\":14839:14845   */\n      dup3\n        /* \"#utility.yul\":14835:14849   */\n      add\n        /* \"#utility.yul\":14828:14876   */\n      mstore\n        /* \"#utility.yul\":14711:14883   */\n      pop\n      jump\t// out\n        /* \"#utility.yul\":14889:15255   */\n    tag_429:\n        /* \"#utility.yul\":15031:15034   */\n      0x00\n        /* \"#utility.yul\":15052:15119   */\n      tag_597\n        /* \"#utility.yul\":15116:15118   */\n      0x16\n        /* \"#utility.yul\":15111:15114   */\n      dup4\n        /* \"#utility.yul\":15052:15119   */\n      tag_411\n      jump\t// in\n    tag_597:\n        /* \"#utility.yul\":15045:15119   */\n      swap2\n      pop\n        /* \"#utility.yul\":15128:15221   */\n      tag_598\n        /* \"#utility.yul\":15217:15220   */\n      dup3\n        /* \"#utility.yul\":15128:15221   */\n      tag_428\n      jump\t// in\n    tag_598:\n        /* \"#utility.yul\":15246:15248   */\n      0x20\n        /* \"#utility.yul\":15241:15244   */\n      dup3\n        /* \"#utility.yul\":15237:15249   */\n      add\n        /* \"#utility.yul\":15230:15249   */\n      swap1\n      pop\n        /* \"#utility.yul\":14889:15255   */\n      swap2\n      swap1\n      pop\n      jump\t// out\n        /* \"#utility.yul\":15261:15680   */\n    tag_154:\n        /* \"#utility.yul\":15427:15431   */\n      0x00\n        /* \"#utility.yul\":15465:15467   */\n      0x20\n        /* \"#utility.yul\":15454:15463   */\n      dup3\n        /* \"#utility.yul\":15450:15468   */\n      add\n        /* \"#utility.yul\":15442:15468   */\n      swap1\n      pop\n        /* \"#utility.yul\":15514:15523   */\n      dup2\n        /* \"#utility.yul\":15508:15512   */\n      dup2\n        /* \"#utility.yul\":15504:15524   */\n      sub\n        /* \"#utility.yul\":15500:15501   */\n      0x00\n        /* \"#utility.yul\":15489:15498   */\n      dup4\n        /* \"#utility.yul\":15485:15502   */\n      add\n        /* \"#utility.yul\":15478:15525   */\n      mstore\n        /* \"#utility.yul\":15542:15673   */\n      tag_600\n        /* \"#utility.yul\":15668:15672   */\n      dup2\n        /* \"#utility.yul\":15542:15673   */\n      tag_429\n      jump\t// in\n    tag_600:\n        /* \"#utility.yul\":15534:15673   */\n      swap1\n      pop\n        /* \"#utility.yul\":15261:15680   */\n      swap2\n      swap1\n      pop\n      jump\t// out\n        /* \"#utility.yul\":15686:15866   */\n    tag_430:\n        /* \"#utility.yul\":15826:15858   */\n      0x5261697365206d757374206578636565642063757272656e74206265742e0000\n        /* \"#utility.yul\":15822:15823   */\n      0x00\n        /* \"#utility.yul\":15814:15820   */\n      dup3\n        /* \"#utility.yul\":15810:15824   */\n      add\n        /* \"#utility.yul\":15803:15859   */\n      mstore\n        /* \"#utility.yul\":15686:15866   */\n      pop\n      jump\t// out\n        /* \"#utility.yul\":15872:16238   */\n    tag_431:\n        /* \"#utility.yul\":16014:16017   */\n      0x00\n        /* \"#utility.yul\":16035:16102   */\n      tag_603\n        /* \"#utility.yul\":16099:16101   */\n      0x1e\n        /* \"#utility.yul\":16094:16097   */\n      dup4\n        /* \"#utility.yul\":16035:16102   */\n      tag_411\n      jump\t// in\n    tag_603:\n        /* \"#utility.yul\":16028:16102   */\n      swap2\n      pop\n        /* \"#utility.yul\":16111:16204   */\n      tag_604\n        /* \"#utility.yul\":16200:16203   */\n      dup3\n        /* \"#utility.yul\":16111:16204   */\n      tag_430\n      jump\t// in\n    tag_604:\n        /* \"#utility.yul\":16229:16231   */\n      0x20\n        /* \"#utility.yul\":16224:16227   */\n      dup3\n        /* \"#utility.yul\":16220:16232   */\n      add\n        /* \"#utility.yul\":16213:16232   */\n      swap1\n      pop\n        /* \"#utility.yul\":15872:16238   */\n      swap2\n      swap1\n      pop\n      jump\t// out\n        /* \"#utility.yul\":16244:16663   */\n    tag_195:\n        /* \"#utility.yul\":16410:16414   */\n      0x00\n        /* \"#utility.yul\":16448:16450   */\n      0x20\n        /* \"#utility.yul\":16437:16446   */\n      dup3\n        /* \"#utility.yul\":16433:16451   */\n      add\n        /* \"#utility.yul\":16425:16451   */\n      swap1\n      pop\n        /* \"#utility.yul\":16497:16506   */\n      dup2\n        /* \"#utility.yul\":16491:16495   */\n      dup2\n        /* \"#utility.yul\":16487:16507   */\n      sub\n        /* \"#utility.yul\":16483:16484   */\n      0x00\n        /* \"#utility.yul\":16472:16481   */\n      dup4\n        /* \"#utility.yul\":16468:16485   */\n      add\n        /* \"#utility.yul\":16461:16508   */\n      mstore\n        /* \"#utility.yul\":16525:16656   */\n      tag_606\n        /* \"#utility.yul\":16651:16655   */\n      dup2\n        /* \"#utility.yul\":16525:16656   */\n      tag_431\n      jump\t// in\n    tag_606:\n        /* \"#utility.yul\":16517:16656   */\n      swap1\n      pop\n        /* \"#utility.yul\":16244:16663   */\n      swap2\n      swap1\n      pop\n      jump\t// out\n        /* \"#utility.yul\":16669:16848   */\n    tag_432:\n        /* \"#utility.yul\":16809:16840   */\n      0x496e73756666696369656e7420636869707320666f722072616973652e000000\n        /* \"#utility.yul\":16805:16806   */\n      0x00\n        /* \"#utility.yul\":16797:16803   */\n      dup3\n        /* \"#utility.yul\":16793:16807   */\n      add\n        /* \"#utility.yul\":16786:16841   */\n      mstore\n        /* \"#utility.yul\":16669:16848   */\n      pop\n      jump\t// out\n        /* \"#utility.yul\":16854:17220   */\n    tag_433:\n        /* \"#utility.yul\":16996:16999   */\n      0x00\n        /* \"#utility.yul\":17017:17084   */\n      tag_609\n        /* \"#utility.yul\":17081:17083   */\n      0x1d\n        /* \"#utility.yul\":17076:17079   */\n      dup4\n        /* \"#utility.yul\":17017:17084   */\n      tag_411\n      jump\t// in\n    tag_609:\n        /* \"#utility.yul\":17010:17084   */\n      swap2\n      pop\n        /* \"#utility.yul\":17093:17186   */\n      tag_610\n        /* \"#utility.yul\":17182:17185   */\n      dup3\n        /* \"#utility.yul\":17093:17186   */\n      tag_432\n      jump\t// in\n    tag_610:\n        /* \"#utility.yul\":17211:17213   */\n      0x20\n        /* \"#utility.yul\":17206:17209   */\n      dup3\n        /* \"#utility.yul\":17202:17214   */\n      add\n        /* \"#utility.yul\":17195:17214   */\n      swap1\n      pop\n        /* \"#utility.yul\":16854:17220   */\n      swap2\n      swap1\n      pop\n      jump\t// out\n        /* \"#utility.yul\":17226:17645   */\n    tag_201:\n        /* \"#utility.yul\":17392:17396   */\n      0x00\n        /* \"#utility.yul\":17430:17432   */\n      0x20\n        /* \"#utility.yul\":17419:17428   */\n      dup3\n        /* \"#utility.yul\":17415:17433   */\n      add\n        /* \"#utility.yul\":17407:17433   */\n      swap1\n      pop\n        /* \"#utility.yul\":17479:17488   */\n      dup2\n        /* \"#utility.yul\":17473:17477   */\n      dup2\n        /* \"#utility.yul\":17469:17489   */\n      sub\n        /* \"#utility.yul\":17465:17466   */\n      0x00\n        /* \"#utility.yul\":17454:17463   */\n      dup4\n        /* \"#utility.yul\":17450:17467   */\n      add\n        /* \"#utility.yul\":17443:17490   */\n      mstore\n        /* \"#utility.yul\":17507:17638   */\n      tag_612\n        /* \"#utility.yul\":17633:17637   */\n      dup2\n        /* \"#utility.yul\":17507:17638   */\n      tag_433\n      jump\t// in\n    tag_612:\n        /* \"#utility.yul\":17499:17638   */\n      swap1\n      pop\n        /* \"#utility.yul\":17226:17645   */\n      swap2\n      swap1\n      pop\n      jump\t// out\n        /* \"#utility.yul\":17651:17832   */\n    tag_434:\n        /* \"#utility.yul\":17791:17824   */\n      0x47616d65206d7573742062652066696e697368656420746f2072657365742e00\n        /* \"#utility.yul\":17787:17788   */\n      0x00\n        /* \"#utility.yul\":17779:17785   */\n      dup3\n        /* \"#utility.yul\":17775:17789   */\n      add\n        /* \"#utility.yul\":17768:17825   */\n      mstore\n        /* \"#utility.yul\":17651:17832   */\n      pop\n      jump\t// out\n        /* \"#utility.yul\":17838:18204   */\n    tag_435:\n        /* \"#utility.yul\":17980:17983   */\n      0x00\n        /* \"#utility.yul\":18001:18068   */\n      tag_615\n        /* \"#utility.yul\":18065:18067   */\n      0x1f\n        /* \"#utility.yul\":18060:18063   */\n      dup4\n        /* \"#utility.yul\":18001:18068   */\n      tag_411\n      jump\t// in\n    tag_615:\n        /* \"#utility.yul\":17994:18068   */\n      swap2\n      pop\n        /* \"#utility.yul\":18077:18170   */\n      tag_616\n        /* \"#utility.yul\":18166:18169   */\n      dup3\n        /* \"#utility.yul\":18077:18170   */\n      tag_434\n      jump\t// in\n    tag_616:\n        /* \"#utility.yul\":18195:18197   */\n      0x20\n        /* \"#utility.yul\":18190:18193   */\n      dup3\n        /* \"#utility.yul\":18186:18198   */\n      add\n        /* \"#utility.yul\":18179:18198   */\n      swap1\n      pop\n        /* \"#utility.yul\":17838:18204   */\n      swap2\n      swap1\n      pop\n      jump\t// out\n        /* \"#utility.yul\":18210:18629   */\n    tag_215:\n        /* \"#utility.yul\":18376:18380   */\n      0x00\n        /* \"#utility.yul\":18414:18416   */\n      0x20\n        /* \"#utility.yul\":18403:18412   */\n      dup3\n        /* \"#utility.yul\":18399:18417   */\n      add\n        /* \"#utility.yul\":18391:18417   */\n      swap1\n      pop\n        /* \"#utility.yul\":18463:18472   */\n      dup2\n        /* \"#utility.yul\":18457:18461   */\n      dup2\n        /* \"#utility.yul\":18453:18473   */\n      sub\n        /* \"#utility.yul\":18449:18450   */\n      0x00\n        /* \"#utility.yul\":18438:18447   */\n      dup4\n        /* \"#utility.yul\":18434:18451   */\n      add\n        /* \"#utility.yul\":18427:18474   */\n      mstore\n        /* \"#utility.yul\":18491:18622   */\n      tag_618\n        /* \"#utility.yul\":18617:18621   */\n      dup2\n        /* \"#utility.yul\":18491:18622   */\n      tag_435\n      jump\t// in\n    tag_618:\n        /* \"#utility.yul\":18483:18622   */\n      swap1\n      pop\n        /* \"#utility.yul\":18210:18629   */\n      swap2\n      swap1\n      pop\n      jump\t// out\n        /* \"#utility.yul\":18635:18806   */\n    tag_436:\n        /* \"#utility.yul\":18775:18798   */\n      0x4e6f7420696e2077616974696e672073746174652e0000000000000000000000\n        /* \"#utility.yul\":18771:18772   */\n      0x00\n        /* \"#utility.yul\":18763:18769   */\n      dup3\n        /* \"#utility.yul\":18759:18773   */\n      add\n        /* \"#utility.yul\":18752:18799   */\n      mstore\n        /* \"#utility.yul\":18635:18806   */\n      pop\n      jump\t// out\n        /* \"#utility.yul\":18812:19178   */\n    tag_437:\n        /* \"#utility.yul\":18954:18957   */\n      0x00\n        /* \"#utility.yul\":18975:19042   */\n      tag_621\n        /* \"#utility.yul\":19039:19041   */\n      0x15\n        /* \"#utility.yul\":19034:19037   */\n      dup4\n        /* \"#utility.yul\":18975:19042   */\n      tag_411\n      jump\t// in\n    tag_621:\n        /* \"#utility.yul\":18968:19042   */\n      swap2\n      pop\n        /* \"#utility.yul\":19051:19144   */\n      tag_622\n        /* \"#utility.yul\":19140:19143   */\n      dup3\n        /* \"#utility.yul\":19051:19144   */\n      tag_436\n      jump\t// in\n    tag_622:\n        /* \"#utility.yul\":19169:19171   */\n      0x20\n        /* \"#utility.yul\":19164:19167   */\n      dup3\n        /* \"#utility.yul\":19160:19172   */\n      add\n        /* \"#utility.yul\":19153:19172   */\n      swap1\n      pop\n        /* \"#utility.yul\":18812:19178   */\n      swap2\n      swap1\n      pop\n      jump\t// out\n        /* \"#utility.yul\":19184:19603   */\n    tag_234:\n        /* \"#utility.yul\":19350:19354   */\n      0x00\n        /* \"#utility.yul\":19388:19390   */\n      0x20\n        /* \"#utility.yul\":19377:19386   */\n      dup3\n        /* \"#utility.yul\":19373:19391   */\n      add\n        /* \"#utility.yul\":19365:19391   */\n      swap1\n      pop\n        /* \"#utility.yul\":19437:19446   */\n      dup2\n        /* \"#utility.yul\":19431:19435   */\n      dup2\n        /* \"#utility.yul\":19427:19447   */\n      sub\n        /* \"#utility.yul\":19423:19424   */\n      0x00\n        /* \"#utility.yul\":19412:19421   */\n      dup4\n        /* \"#utility.yul\":19408:19425   */\n      add\n        /* \"#utility.yul\":19401:19448   */\n      mstore\n        /* \"#utility.yul\":19465:19596   */\n      tag_624\n        /* \"#utility.yul\":19591:19595   */\n      dup2\n        /* \"#utility.yul\":19465:19596   */\n      tag_437\n      jump\t// in\n    tag_624:\n        /* \"#utility.yul\":19457:19596   */\n      swap1\n      pop\n        /* \"#utility.yul\":19184:19603   */\n      swap2\n      swap1\n      pop\n      jump\t// out\n        /* \"#utility.yul\":19609:19786   */\n    tag_438:\n        /* \"#utility.yul\":19749:19778   */\n      0x416c72656164792074776f20706c6179657273206a6f696e65642e0000000000\n        /* \"#utility.yul\":19745:19746   */\n      0x00\n        /* \"#utility.yul\":19737:19743   */\n      dup3\n        /* \"#utility.yul\":19733:19747   */\n      add\n        /* \"#utility.yul\":19726:19779   */\n      mstore\n        /* \"#utility.yul\":19609:19786   */\n      pop\n      jump\t// out\n        /* \"#utility.yul\":19792:20158   */\n    tag_439:\n        /* \"#utility.yul\":19934:19937   */\n      0x00\n        /* \"#utility.yul\":19955:20022   */\n      tag_627\n        /* \"#utility.yul\":20019:20021   */\n      0x1b\n        /* \"#utility.yul\":20014:20017   */\n      dup4\n        /* \"#utility.yul\":19955:20022   */\n      tag_411\n      jump\t// in\n    tag_627:\n        /* \"#utility.yul\":19948:20022   */\n      swap2\n      pop\n        /* \"#utility.yul\":20031:20124   */\n      tag_628\n        /* \"#utility.yul\":20120:20123   */\n      dup3\n        /* \"#utility.yul\":20031:20124   */\n      tag_438\n      jump\t// in\n    tag_628:\n        /* \"#utility.yul\":20149:20151   */\n      0x20\n        /* \"#utility.yul\":20144:20147   */\n      dup3\n        /* \"#utility.yul\":20140:20152   */\n      add\n        /* \"#utility.yul\":20133:20152   */\n      swap1\n      pop\n        /* \"#utility.yul\":19792:20158   */\n      swap2\n      swap1\n      pop\n      jump\t// out\n        /* \"#utility.yul\":20164:20583   */\n    tag_237:\n        /* \"#utility.yul\":20330:20334   */\n      0x00\n        /* \"#utility.yul\":20368:20370   */\n      0x20\n        /* \"#utility.yul\":20357:20366   */\n      dup3\n        /* \"#utility.yul\":20353:20371   */\n      add\n        /* \"#utility.yul\":20345:20371   */\n      swap1\n      pop\n        /* \"#utility.yul\":20417:20426   */\n      dup2\n        /* \"#utility.yul\":20411:20415   */\n      dup2\n        /* \"#utility.yul\":20407:20427   */\n      sub\n        /* \"#utility.yul\":20403:20404   */\n      0x00\n        /* \"#utility.yul\":20392:20401   */\n      dup4\n        /* \"#utility.yul\":20388:20405   */\n      add\n        /* \"#utility.yul\":20381:20428   */\n      mstore\n        /* \"#utility.yul\":20445:20576   */\n      tag_630\n        /* \"#utility.yul\":20571:20575   */\n      dup2\n        /* \"#utility.yul\":20445:20576   */\n      tag_439\n      jump\t// in\n    tag_630:\n        /* \"#utility.yul\":20437:20576   */\n      swap1\n      pop\n        /* \"#utility.yul\":20164:20583   */\n      swap2\n      swap1\n      pop\n      jump\t// out\n        /* \"#utility.yul\":20589:20812   */\n    tag_440:\n        /* \"#utility.yul\":20729:20763   */\n      0x4d7573742073656e642065786163746c7920302e3030312045544820746f206a\n        /* \"#utility.yul\":20725:20726   */\n      0x00\n        /* \"#utility.yul\":20717:20723   */\n      dup3\n        /* \"#utility.yul\":20713:20727   */\n      add\n        /* \"#utility.yul\":20706:20764   */\n      mstore\n        /* \"#utility.yul\":20798:20804   */\n      0x6f696e2e00000000000000000000000000000000000000000000000000000000\n        /* \"#utility.yul\":20793:20795   */\n      0x20\n        /* \"#utility.yul\":20785:20791   */\n      dup3\n        /* \"#utility.yul\":20781:20796   */\n      add\n        /* \"#utility.yul\":20774:20805   */\n      mstore\n        /* \"#utility.yul\":20589:20812   */\n      pop\n      jump\t// out\n        /* \"#utility.yul\":20818:21184   */\n    tag_441:\n        /* \"#utility.yul\":20960:20963   */\n      0x00\n        /* \"#utility.yul\":20981:21048   */\n      tag_633\n        /* \"#utility.yul\":21045:21047   */\n      0x24\n        /* \"#utility.yul\":21040:21043   */\n      dup4\n        /* \"#utility.yul\":20981:21048   */\n      tag_411\n      jump\t// in\n    tag_633:\n        /* \"#utility.yul\":20974:21048   */\n      swap2\n      pop\n        /* \"#utility.yul\":21057:21150   */\n      tag_634\n        /* \"#utility.yul\":21146:21149   */\n      dup3\n        /* \"#utility.yul\":21057:21150   */\n      tag_440\n      jump\t// in\n    tag_634:\n        /* \"#utility.yul\":21175:21177   */\n      0x40\n        /* \"#utility.yul\":21170:21173   */\n      dup3\n        /* \"#utility.yul\":21166:21178   */\n      add\n        /* \"#utility.yul\":21159:21178   */\n      swap1\n      pop\n        /* \"#utility.yul\":20818:21184   */\n      swap2\n      swap1\n      pop\n      jump\t// out\n        /* \"#utility.yul\":21190:21609   */\n    tag_240:\n        /* \"#utility.yul\":21356:21360   */\n      0x00\n        /* \"#utility.yul\":21394:21396   */\n      0x20\n        /* \"#utility.yul\":21383:21392   */\n      dup3\n        /* \"#utility.yul\":21379:21397   */\n      add\n        /* \"#utility.yul\":21371:21397   */\n      swap1\n      pop\n        /* \"#utility.yul\":21443:21452   */\n      dup2\n        /* \"#utility.yul\":21437:21441   */\n      dup2\n        /* \"#utility.yul\":21433:21453   */\n      sub\n        /* \"#utility.yul\":21429:21430   */\n      0x00\n        /* \"#utility.yul\":21418:21427   */\n      dup4\n        /* \"#utility.yul\":21414:21431   */\n      add\n        /* \"#utility.yul\":21407:21454   */\n      mstore\n        /* \"#utility.yul\":21471:21602   */\n      tag_636\n        /* \"#utility.yul\":21597:21601   */\n      dup2\n        /* \"#utility.yul\":21471:21602   */\n      tag_441\n      jump\t// in\n    tag_636:\n        /* \"#utility.yul\":21463:21602   */\n      swap1\n      pop\n        /* \"#utility.yul\":21190:21609   */\n      swap2\n      swap1\n      pop\n      jump\t// out\n        /* \"#utility.yul\":21615:21787   */\n    tag_442:\n        /* \"#utility.yul\":21755:21779   */\n      0x506c6179657220616c7265616479206a6f696e65642e00000000000000000000\n        /* \"#utility.yul\":21751:21752   */\n      0x00\n        /* \"#utility.yul\":21743:21749   */\n      dup3\n        /* \"#utility.yul\":21739:21753   */\n      add\n        /* \"#utility.yul\":21732:21780   */\n      mstore\n        /* \"#utility.yul\":21615:21787   */\n      pop\n      jump\t// out\n        /* \"#utility.yul\":21793:22159   */\n    tag_443:\n        /* \"#utility.yul\":21935:21938   */\n      0x00\n        /* \"#utility.yul\":21956:22023   */\n      tag_639\n        /* \"#utility.yul\":22020:22022   */\n      0x16\n        /* \"#utility.yul\":22015:22018   */\n      dup4\n        /* \"#utility.yul\":21956:22023   */\n      tag_411\n      jump\t// in\n    tag_639:\n        /* \"#utility.yul\":21949:22023   */\n      swap2\n      pop\n        /* \"#utility.yul\":22032:22125   */\n      tag_640\n        /* \"#utility.yul\":22121:22124   */\n      dup3\n        /* \"#utility.yul\":22032:22125   */\n      tag_442\n      jump\t// in\n    tag_640:\n        /* \"#utility.yul\":22150:22152   */\n      0x20\n        /* \"#utility.yul\":22145:22148   */\n      dup3\n        /* \"#utility.yul\":22141:22153   */\n      add\n        /* \"#utility.yul\":22134:22153   */\n      swap1\n      pop\n        /* \"#utility.yul\":21793:22159   */\n      swap2\n      swap1\n      pop\n      jump\t// out\n        /* \"#utility.yul\":22165:22584   */\n    tag_243:\n        /* \"#utility.yul\":22331:22335   */\n      0x00\n        /* \"#utility.yul\":22369:22371   */\n      0x20\n        /* \"#utility.yul\":22358:22367   */\n      dup3\n        /* \"#utility.yul\":22354:22372   */\n      add\n        /* \"#utility.yul\":22346:22372   */\n      swap1\n      pop\n        /* \"#utility.yul\":22418:22427   */\n      dup2\n        /* \"#utility.yul\":22412:22416   */\n      dup2\n        /* \"#utility.yul\":22408:22428   */\n      sub\n        /* \"#utility.yul\":22404:22405   */\n      0x00\n        /* \"#utility.yul\":22393:22402   */\n      dup4\n        /* \"#utility.yul\":22389:22406   */\n      add\n        /* \"#utility.yul\":22382:22429   */\n      mstore\n        /* \"#utility.yul\":22446:22577   */\n      tag_642\n        /* \"#utility.yul\":22572:22576   */\n      dup2\n        /* \"#utility.yul\":22446:22577   */\n      tag_443\n      jump\t// in\n    tag_642:\n        /* \"#utility.yul\":22438:22577   */\n      swap1\n      pop\n        /* \"#utility.yul\":22165:22584   */\n      swap2\n      swap1\n      pop\n      jump\t// out\n        /* \"#utility.yul\":22590:22757   */\n    tag_248:\n        /* \"#utility.yul\":22627:22630   */\n      0x00\n        /* \"#utility.yul\":22650:22672   */\n      tag_644\n        /* \"#utility.yul\":22666:22671   */\n      dup3\n        /* \"#utility.yul\":22650:22672   */\n      tag_391\n      jump\t// in\n    tag_644:\n        /* \"#utility.yul\":22641:22672   */\n      swap2\n      pop\n        /* \"#utility.yul\":22694:22698   */\n      0xff\n        /* \"#utility.yul\":22687:22692   */\n      dup3\n        /* \"#utility.yul\":22684:22699   */\n      sub\n        /* \"#utility.yul\":22681:22722   */\n      tag_645\n      jumpi\n        /* \"#utility.yul\":22702:22720   */\n      tag_646\n      tag_414\n      jump\t// in\n    tag_646:\n        /* \"#utility.yul\":22681:22722   */\n    tag_645:\n        /* \"#utility.yul\":22749:22750   */\n      0x01\n        /* \"#utility.yul\":22742:22747   */\n      dup3\n        /* \"#utility.yul\":22738:22751   */\n      add\n        /* \"#utility.yul\":22731:22751   */\n      swap1\n      pop\n        /* \"#utility.yul\":22590:22757   */\n      swap2\n      swap1\n      pop\n      jump\t// out\n        /* \"#utility.yul\":22763:22939   */\n    tag_268:\n        /* \"#utility.yul\":22795:22796   */\n      0x00\n        /* \"#utility.yul\":22812:22832   */\n      tag_648\n        /* \"#utility.yul\":22830:22831   */\n      dup3\n        /* \"#utility.yul\":22812:22832   */\n      tag_393\n      jump\t// in\n    tag_648:\n        /* \"#utility.yul\":22807:22832   */\n      swap2\n      pop\n        /* \"#utility.yul\":22846:22866   */\n      tag_649\n        /* \"#utility.yul\":22864:22865   */\n      dup4\n        /* \"#utility.yul\":22846:22866   */\n      tag_393\n      jump\t// in\n    tag_649:\n        /* \"#utility.yul\":22841:22866   */\n      swap3\n      pop\n        /* \"#utility.yul\":22885:22886   */\n      dup3\n        /* \"#utility.yul\":22875:22910   */\n      tag_650\n      jumpi\n        /* \"#utility.yul\":22890:22908   */\n      tag_651\n      tag_415\n      jump\t// in\n    tag_651:\n        /* \"#utility.yul\":22875:22910   */\n    tag_650:\n        /* \"#utility.yul\":22931:22932   */\n      dup3\n        /* \"#utility.yul\":22928:22929   */\n      dup3\n        /* \"#utility.yul\":22924:22933   */\n      mod\n        /* \"#utility.yul\":22919:22933   */\n      swap1\n      pop\n        /* \"#utility.yul\":22763:22939   */\n      swap3\n      swap2\n      pop\n      pop\n      jump\t// out\n        /* \"#utility.yul\":22945:23024   */\n    tag_444:\n        /* \"#utility.yul\":22984:22991   */\n      0x00\n        /* \"#utility.yul\":23013:23018   */\n      dup2\n        /* \"#utility.yul\":23002:23018   */\n      swap1\n      pop\n        /* \"#utility.yul\":22945:23024   */\n      swap2\n      swap1\n      pop\n      jump\t// out\n        /* \"#utility.yul\":23030:23187   */\n    tag_445:\n        /* \"#utility.yul\":23135:23180   */\n      tag_654\n        /* \"#utility.yul\":23155:23179   */\n      tag_655\n        /* \"#utility.yul\":23173:23178   */\n      dup3\n        /* \"#utility.yul\":23155:23179   */\n      tag_393\n      jump\t// in\n    tag_655:\n        /* \"#utility.yul\":23135:23180   */\n      tag_444\n      jump\t// in\n    tag_654:\n        /* \"#utility.yul\":23130:23133   */\n      dup3\n        /* \"#utility.yul\":23123:23181   */\n      mstore\n        /* \"#utility.yul\":23030:23187   */\n      pop\n      pop\n      jump\t// out\n        /* \"#utility.yul\":23193:23590   */\n    tag_294:\n        /* \"#utility.yul\":23333:23336   */\n      0x00\n        /* \"#utility.yul\":23348:23423   */\n      tag_657\n        /* \"#utility.yul\":23419:23422   */\n      dup3\n        /* \"#utility.yul\":23410:23416   */\n      dup6\n        /* \"#utility.yul\":23348:23423   */\n      tag_445\n      jump\t// in\n    tag_657:\n        /* \"#utility.yul\":23448:23450   */\n      0x20\n        /* \"#utility.yul\":23443:23446   */\n      dup3\n        /* \"#utility.yul\":23439:23451   */\n      add\n        /* \"#utility.yul\":23432:23451   */\n      swap2\n      pop\n        /* \"#utility.yul\":23461:23536   */\n      tag_658\n        /* \"#utility.yul\":23532:23535   */\n      dup3\n        /* \"#utility.yul\":23523:23529   */\n      dup5\n        /* \"#utility.yul\":23461:23536   */\n      tag_445\n      jump\t// in\n    tag_658:\n        /* \"#utility.yul\":23561:23563   */\n      0x20\n        /* \"#utility.yul\":23556:23559   */\n      dup3\n        /* \"#utility.yul\":23552:23564   */\n      add\n        /* \"#utility.yul\":23545:23564   */\n      swap2\n      pop\n        /* \"#utility.yul\":23581:23584   */\n      dup2\n        /* \"#utility.yul\":23574:23584   */\n      swap1\n      pop\n        /* \"#utility.yul\":23193:23590   */\n      swap4\n      swap3\n      pop\n      pop\n      pop\n      jump\t// out\n        /* \"#utility.yul\":23596:23673   */\n    tag_446:\n        /* \"#utility.yul\":23633:23640   */\n      0x00\n        /* \"#utility.yul\":23662:23667   */\n      dup2\n        /* \"#utility.yul\":23651:23667   */\n      swap1\n      pop\n        /* \"#utility.yul\":23596:23673   */\n      swap2\n      swap1\n      pop\n      jump\t// out\n        /* \"#utility.yul\":23679:23758   */\n    tag_447:\n        /* \"#utility.yul\":23718:23725   */\n      0x00\n        /* \"#utility.yul\":23747:23752   */\n      dup2\n        /* \"#utility.yul\":23736:23752   */\n      swap1\n      pop\n        /* \"#utility.yul\":23679:23758   */\n      swap2\n      swap1\n      pop\n      jump\t// out\n        /* \"#utility.yul\":23764:23921   */\n    tag_448:\n        /* \"#utility.yul\":23869:23914   */\n      tag_662\n        /* \"#utility.yul\":23889:23913   */\n      tag_663\n        /* \"#utility.yul\":23907:23912   */\n      dup3\n        /* \"#utility.yul\":23889:23913   */\n      tag_446\n      jump\t// in\n    tag_663:\n        /* \"#utility.yul\":23869:23914   */\n      tag_447\n      jump\t// in\n    tag_662:\n        /* \"#utility.yul\":23864:23867   */\n      dup3\n        /* \"#utility.yul\":23857:23915   */\n      mstore\n        /* \"#utility.yul\":23764:23921   */\n      pop\n      pop\n      jump\t// out\n        /* \"#utility.yul\":23927:24021   */\n    tag_449:\n        /* \"#utility.yul\":23960:23968   */\n      0x00\n        /* \"#utility.yul\":24008:24013   */\n      dup2\n        /* \"#utility.yul\":24004:24006   */\n      0x60\n        /* \"#utility.yul\":24000:24014   */\n      shl\n        /* \"#utility.yul\":23979:24014   */\n      swap1\n      pop\n        /* \"#utility.yul\":23927:24021   */\n      swap2\n      swap1\n      pop\n      jump\t// out\n        /* \"#utility.yul\":24027:24121   */\n    tag_450:\n        /* \"#utility.yul\":24066:24073   */\n      0x00\n        /* \"#utility.yul\":24095:24115   */\n      tag_666\n        /* \"#utility.yul\":24109:24114   */\n      dup3\n        /* \"#utility.yul\":24095:24115   */\n      tag_449\n      jump\t// in\n    tag_666:\n        /* \"#utility.yul\":24084:24115   */\n      swap1\n      pop\n        /* \"#utility.yul\":24027:24121   */\n      swap2\n      swap1\n      pop\n      jump\t// out\n        /* \"#utility.yul\":24127:24227   */\n    tag_451:\n        /* \"#utility.yul\":24166:24173   */\n      0x00\n        /* \"#utility.yul\":24195:24221   */\n      tag_668\n        /* \"#utility.yul\":24215:24220   */\n      dup3\n        /* \"#utility.yul\":24195:24221   */\n      tag_450\n      jump\t// in\n    tag_668:\n        /* \"#utility.yul\":24184:24221   */\n      swap1\n      pop\n        /* \"#utility.yul\":24127:24227   */\n      swap2\n      swap1\n      pop\n      jump\t// out\n        /* \"#utility.yul\":24233:24390   */\n    tag_452:\n        /* \"#utility.yul\":24338:24383   */\n      tag_670\n        /* \"#utility.yul\":24358:24382   */\n      tag_671\n        /* \"#utility.yul\":24376:24381   */\n      dup3\n        /* \"#utility.yul\":24358:24382   */\n      tag_401\n      jump\t// in\n    tag_671:\n        /* \"#utility.yul\":24338:24383   */\n      tag_451\n      jump\t// in\n    tag_670:\n        /* \"#utility.yul\":24333:24336   */\n      dup3\n        /* \"#utility.yul\":24326:24384   */\n      mstore\n        /* \"#utility.yul\":24233:24390   */\n      pop\n      pop\n      jump\t// out\n        /* \"#utility.yul\":24396:24793   */\n    tag_296:\n        /* \"#utility.yul\":24536:24539   */\n      0x00\n        /* \"#utility.yul\":24551:24626   */\n      tag_673\n        /* \"#utility.yul\":24622:24625   */\n      dup3\n        /* \"#utility.yul\":24613:24619   */\n      dup6\n        /* \"#utility.yul\":24551:24626   */\n      tag_448\n      jump\t// in\n    tag_673:\n        /* \"#utility.yul\":24651:24653   */\n      0x20\n        /* \"#utility.yul\":24646:24649   */\n      dup3\n        /* \"#utility.yul\":24642:24654   */\n      add\n        /* \"#utility.yul\":24635:24654   */\n      swap2\n      pop\n        /* \"#utility.yul\":24664:24739   */\n      tag_674\n        /* \"#utility.yul\":24735:24738   */\n      dup3\n        /* \"#utility.yul\":24726:24732   */\n      dup5\n        /* \"#utility.yul\":24664:24739   */\n      tag_452\n      jump\t// in\n    tag_674:\n        /* \"#utility.yul\":24764:24766   */\n      0x14\n        /* \"#utility.yul\":24759:24762   */\n      dup3\n        /* \"#utility.yul\":24755:24767   */\n      add\n        /* \"#utility.yul\":24748:24767   */\n      swap2\n      pop\n        /* \"#utility.yul\":24784:24787   */\n      dup2\n        /* \"#utility.yul\":24777:24787   */\n      swap1\n      pop\n        /* \"#utility.yul\":24396:24793   */\n      swap4\n      swap3\n      pop\n      pop\n      pop\n      jump\t// out\n        /* \"#utility.yul\":24799:24987   */\n    tag_303:\n        /* \"#utility.yul\":24837:24840   */\n      0x00\n        /* \"#utility.yul\":24856:24874   */\n      tag_676\n        /* \"#utility.yul\":24872:24873   */\n      dup3\n        /* \"#utility.yul\":24856:24874   */\n      tag_391\n      jump\t// in\n    tag_676:\n        /* \"#utility.yul\":24851:24874   */\n      swap2\n      pop\n        /* \"#utility.yul\":24888:24906   */\n      tag_677\n        /* \"#utility.yul\":24904:24905   */\n      dup4\n        /* \"#utility.yul\":24888:24906   */\n      tag_391\n      jump\t// in\n    tag_677:\n        /* \"#utility.yul\":24883:24906   */\n      swap3\n      pop\n        /* \"#utility.yul\":24929:24930   */\n      dup3\n        /* \"#utility.yul\":24926:24927   */\n      dup3\n        /* \"#utility.yul\":24922:24931   */\n      add\n        /* \"#utility.yul\":24915:24931   */\n      swap1\n      pop\n        /* \"#utility.yul\":24952:24956   */\n      0xff\n        /* \"#utility.yul\":24947:24950   */\n      dup2\n        /* \"#utility.yul\":24944:24957   */\n      gt\n        /* \"#utility.yul\":24941:24980   */\n      iszero\n      tag_678\n      jumpi\n        /* \"#utility.yul\":24960:24978   */\n      tag_679\n      tag_414\n      jump\t// in\n    tag_679:\n        /* \"#utility.yul\":24941:24980   */\n    tag_678:\n        /* \"#utility.yul\":24799:24987   */\n      swap3\n      swap2\n      pop\n      pop\n      jump\t// out\n        /* \"#utility.yul\":24993:25419   */\n    tag_314:\n        /* \"#utility.yul\":25134:25138   */\n      0x00\n        /* \"#utility.yul\":25172:25174   */\n      0x60\n        /* \"#utility.yul\":25161:25170   */\n      dup3\n        /* \"#utility.yul\":25157:25175   */\n      add\n        /* \"#utility.yul\":25149:25175   */\n      swap1\n      pop\n        /* \"#utility.yul\":25185:25256   */\n      tag_681\n        /* \"#utility.yul\":25253:25254   */\n      0x00\n        /* \"#utility.yul\":25242:25251   */\n      dup4\n        /* \"#utility.yul\":25238:25255   */\n      add\n        /* \"#utility.yul\":25229:25235   */\n      dup7\n        /* \"#utility.yul\":25185:25256   */\n      tag_406\n      jump\t// in\n    tag_681:\n        /* \"#utility.yul\":25266:25334   */\n      tag_682\n        /* \"#utility.yul\":25330:25332   */\n      0x20\n        /* \"#utility.yul\":25319:25328   */\n      dup4\n        /* \"#utility.yul\":25315:25333   */\n      add\n        /* \"#utility.yul\":25306:25312   */\n      dup6\n        /* \"#utility.yul\":25266:25334   */\n      tag_392\n      jump\t// in\n    tag_682:\n        /* \"#utility.yul\":25344:25412   */\n      tag_683\n        /* \"#utility.yul\":25408:25410   */\n      0x40\n        /* \"#utility.yul\":25397:25406   */\n      dup4\n        /* \"#utility.yul\":25393:25411   */\n      add\n        /* \"#utility.yul\":25384:25390   */\n      dup5\n        /* \"#utility.yul\":25344:25412   */\n      tag_392\n      jump\t// in\n    tag_683:\n        /* \"#utility.yul\":24993:25419   */\n      swap5\n      swap4\n      pop\n      pop\n      pop\n      pop\n      jump\t// out\n        /* \"#utility.yul\":25425:25741   */\n    tag_333:\n        /* \"#utility.yul\":25538:25542   */\n      0x00\n        /* \"#utility.yul\":25576:25578   */\n      0x40\n        /* \"#utility.yul\":25565:25574   */\n      dup3\n        /* \"#utility.yul\":25561:25579   */\n      add\n        /* \"#utility.yul\":25553:25579   */\n      swap1\n      pop\n        /* \"#utility.yul\":25589:25656   */\n      tag_685\n        /* \"#utility.yul\":25653:25654   */\n      0x00\n        /* \"#utility.yul\":25642:25651   */\n      dup4\n        /* \"#utility.yul\":25638:25655   */\n      add\n        /* \"#utility.yul\":25629:25635   */\n      dup6\n        /* \"#utility.yul\":25589:25656   */\n      tag_392\n      jump\t// in\n    tag_685:\n        /* \"#utility.yul\":25666:25734   */\n      tag_686\n        /* \"#utility.yul\":25730:25732   */\n      0x20\n        /* \"#utility.yul\":25719:25728   */\n      dup4\n        /* \"#utility.yul\":25715:25733   */\n      add\n        /* \"#utility.yul\":25706:25712   */\n      dup5\n        /* \"#utility.yul\":25666:25734   */\n      tag_392\n      jump\t// in\n    tag_686:\n        /* \"#utility.yul\":25425:25741   */\n      swap4\n      swap3\n      pop\n      pop\n      pop\n      jump\t// out\n\n    auxdata: 0xa264697066735822122053c84bd15e8dd7e49a8da2cbae9d47fd9a81e4647e0f267d3c5ef13337880a2764736f6c634300081e0033\n}\n",
				"bytecode": {
					"linkReferences": {},
					"object": "6080604052348015600e575f5ffd5b505f5f5f6101000a81548160ff02191690836004811115602f57602e6038565b5b02179055506065565b7f4e487b71000000000000000000000000000000000000000000000000000000005f52602160045260245ffd5b6134cd806100725f395ff3fe6080604052600436106100e7575f3560e01c806385864a7011610089578063d4f77b1c11610058578063d4f77b1c14610293578063d504cb651461029d578063e2eb41ff146102c7578063e684f46a14610308576100e7565b806385864a70146101ef5780638763b55114610217578063bb47221914610253578063c19d93fb14610269576100e7565b806353556559116100c5578063535565591461014957806359328401146101715780637365870b146101b15780637f1db215146101d9576100e7565b806338fcfa9e146100eb5780634404a438146100f55780634ba2363a1461011f575b5f5ffd5b6100f361031e565b005b348015610100575f5ffd5b50610109610433565b60405161011691906127f8565b60405180910390f35b34801561012a575f5ffd5b50610133610445565b6040516101409190612829565b60405180910390f35b348015610154575f5ffd5b5061016f600480360381019061016a9190612870565b61044b565b005b34801561017c575f5ffd5b50610197600480360381019061019291906128f5565b61059a565b6040516101a895949392919061293a565b60405180910390f35b3480156101bc575f5ffd5b506101d760048036038101906101d29190612870565b610631565b005b3480156101e4575f5ffd5b506101ed610947565b005b3480156101fa575f5ffd5b5061021560048036038101906102109190612870565b610df9565b005b348015610222575f5ffd5b5061023d60048036038101906102389190612870565b61112a565b60405161024a919061299a565b60405180910390f35b34801561025e575f5ffd5b5061026761115e565b005b348015610274575f5ffd5b5061027d611381565b60405161028a9190612a26565b60405180910390f35b61029b611392565b005b3480156102a8575f5ffd5b506102b16117b2565b6040516102be9190612829565b60405180910390f35b3480156102d2575f5ffd5b506102ed60048036038101906102e891906128f5565b6117b8565b6040516102ff96959493929190612a3f565b60405180910390f35b348015610313575f5ffd5b5061031c611834565b005b66038d7ea4c68000341015610368576040517f08c379a000000000000000000000000000000000000000000000000000000000815260040161035f90612af8565b60405180910390fd5b5f66038d7ea4c6800060143461037e9190612b43565b6103889190612bb1565b90508060015f3373ffffffffffffffffffffffffffffffffffffffff1673ffffffffffffffffffffffffffffffffffffffff1681526020019081526020015f206001015f8282546103d99190612be1565b925050819055503373ffffffffffffffffffffffffffffffffffffffff167f6a73271893757eff3e2109a31a1f50f0b3cafea2d51a26dc5cfe54ba216b531c3483604051610428929190612c14565b60405180910390a250565b60075f9054906101000a900460ff1681565b60055481565b5f60015f3373ffffffffffffffffffffffffffffffffffffffff1673ffffffffffffffffffffffffffffffffffffffff1681526020019081526020015f20905081816001015410156104d2576040517f08c379a00000000000000000000000000000000000000000000000000000000081526004016104c990612c85565b60405180910390fd5b81816001015f8282546104e59190612ca3565b925050819055505f652d79883d2000836104ff9190612b43565b90503373ffffffffffffffffffffffffffffffffffffffff166108fc8290811502906040515f60405180830381858888f19350505050158015610544573d5f5f3e3d5ffd5b503373ffffffffffffffffffffffffffffffffffffffff167f10a411a628953c6facff7cf4822b3c924b8b4cc322922727569c217b636505a8848360405161058d929190612c14565b60405180910390a2505050565b5f5f5f5f5f5f60015f8873ffffffffffffffffffffffffffffffffffffffff1673ffffffffffffffffffffffffffffffffffffffff1681526020019081526020015f2090508060010154816002015f9054906101000a900460ff168260030154836004015f9054906101000a900460ff168460040160019054906101000a900460ff16955095509550955095505091939590929450565b60026004811115610645576106446129b3565b5b5f5f9054906101000a900460ff166004811115610665576106646129b3565b5b146106a5576040517f08c379a000000000000000000000000000000000000000000000000000000000815260040161069c90612d20565b60405180910390fd5b600260075f9054906101000a900460ff1660ff16600281106106ca576106c9612d3e565b5b015f9054906101000a900473ffffffffffffffffffffffffffffffffffffffff1673ffffffffffffffffffffffffffffffffffffffff163373ffffffffffffffffffffffffffffffffffffffff1614610758576040517f08c379a000000000000000000000000000000000000000000000000000000000815260040161074f90612db5565b60405180910390fd5b5f60015f3373ffffffffffffffffffffffffffffffffffffffff1673ffffffffffffffffffffffffffffffffffffffff1681526020019081526020015f209050806004015f9054906101000a900460ff16156107e9576040517f08c379a00000000000000000000000000000000000000000000000000000000081526004016107e090612e1d565b60405180910390fd5b5f6006541461082d576040517f08c379a000000000000000000000000000000000000000000000000000000000815260040161082490612e85565b60405180910390fd5b5f82118015610840575081816001015410155b61087f576040517f08c379a000000000000000000000000000000000000000000000000000000000815260040161087690612f13565b60405180910390fd5b8160068190555081816001015f8282546108999190612ca3565b925050819055508181600301819055508160055f8282546108ba9190612be1565b925050819055503373ffffffffffffffffffffffffffffffffffffffff167f43e08d78302cdf9c94e1ffd293c2a3696139ee41cf3199b6f5eed9c7f6cc6090836040516109079190612829565b60405180910390a260075f9054906101000a900460ff16600161092a9190612f31565b60075f6101000a81548160ff021916908360ff1602179055505050565b6002600481111561095b5761095a6129b3565b5b5f5f9054906101000a900460ff16600481111561097b5761097a6129b3565b5b146109bb576040517f08c379a00000000000000000000000000000000000000000000000000000000081526004016109b290612d20565b60405180910390fd5b600260075f9054906101000a900460ff1660ff16600281106109e0576109df612d3e565b5b015f9054906101000a900473ffffffffffffffffffffffffffffffffffffffff1673ffffffffffffffffffffffffffffffffffffffff163373ffffffffffffffffffffffffffffffffffffffff1614610a6e576040517f08c379a0000000000000000000000000000000000000000000000000000000008152600401610a6590612db5565b60405180910390fd5b5f60015f3373ffffffffffffffffffffffffffffffffffffffff1673ffffffffffffffffffffffffffffffffffffffff1681526020019081526020015f209050806004015f9054906101000a900460ff1615610aff576040517f08c379a0000000000000000000000000000000000000000000000000000000008152600401610af690612e1d565b60405180910390fd5b5f60065411610b43576040517f08c379a0000000000000000000000000000000000000000000000000000000008152600401610b3a90612faf565b60405180910390fd5b5f816003015460065411610b57575f610b6a565b8160030154600654610b699190612ca3565b5b905080826001015411610c2b575f8260010154905080836003015f828254610b929190612be1565b925050819055508060055f828254610baa9190612be1565b925050819055505f836001018190555060018360040160016101000a81548160ff0219169083151502179055503373ffffffffffffffffffffffffffffffffffffffff167f9bb3c2260ae48d475a5d96eb8c13cd922d9cac3d9a138c9fb90e9d586c74b74c82604051610c1d9190612829565b60405180910390a250610cc6565b80826001015f828254610c3e9190612ca3565b9250508190555080826003015f828254610c589190612be1565b925050819055508060055f828254610c709190612be1565b925050819055503373ffffffffffffffffffffffffffffffffffffffff167f3984f38ce2c135261f712a8230a55882580d7ec5b607ae7001cac18690209cc182604051610cbd9190612829565b60405180910390a25b5f60015f600260075f9054906101000a900460ff166001610ce79190612f31565b60ff1660028110610cfb57610cfa612d3e565b5b015f9054906101000a900473ffffffffffffffffffffffffffffffffffffffff1673ffffffffffffffffffffffffffffffffffffffff1673ffffffffffffffffffffffffffffffffffffffff1681526020019081526020015f2090505f816003015490505f8460030154905080821480610d825750826004015f9054906101000a900460ff165b15610dbd5760035f5f6101000a81548160ff02191690836004811115610dab57610daa6129b3565b5b0217905550610db8611b7f565b610df2565b60075f9054906101000a900460ff166001610dd89190612f31565b60075f6101000a81548160ff021916908360ff1602179055505b5050505050565b60026004811115610e0d57610e0c6129b3565b5b5f5f9054906101000a900460ff166004811115610e2d57610e2c6129b3565b5b14610e6d576040517f08c379a0000000000000000000000000000000000000000000000000000000008152600401610e6490612d20565b60405180910390fd5b600260075f9054906101000a900460ff1660ff1660028110610e9257610e91612d3e565b5b015f9054906101000a900473ffffffffffffffffffffffffffffffffffffffff1673ffffffffffffffffffffffffffffffffffffffff163373ffffffffffffffffffffffffffffffffffffffff1614610f20576040517f08c379a0000000000000000000000000000000000000000000000000000000008152600401610f1790612db5565b60405180910390fd5b5f60015f3373ffffffffffffffffffffffffffffffffffffffff1673ffffffffffffffffffffffffffffffffffffffff1681526020019081526020015f209050806004015f9054906101000a900460ff1615610fb1576040517f08c379a0000000000000000000000000000000000000000000000000000000008152600401610fa890612e1d565b60405180910390fd5b6006548211610ff5576040517f08c379a0000000000000000000000000000000000000000000000000000000008152600401610fec90613017565b60405180910390fd5b5f81600301548311611007575f611018565b8160030154836110179190612ca3565b5b90508082600101541015611061576040517f08c379a00000000000000000000000000000000000000000000000000000000081526004016110589061307f565b60405180910390fd5b80826001015f8282546110749190612ca3565b925050819055508282600301819055508060055f8282546110959190612be1565b92505081905550826006819055503373ffffffffffffffffffffffffffffffffffffffff167f19b70886e9e49b62d56c7144fe0aa82d93221a9ccdc642b0f2497225d10c7ad0846040516110e99190612829565b60405180910390a260075f9054906101000a900460ff16600161110c9190612f31565b60075f6101000a81548160ff021916908360ff160217905550505050565b60028160028110611139575f80fd5b015f915054906101000a900473ffffffffffffffffffffffffffffffffffffffff1681565b600480811115611171576111706129b3565b5b5f5f9054906101000a900460ff166004811115611191576111906129b3565b5b146111d1576040517f08c379a00000000000000000000000000000000000000000000000000000000081526004016111c8906130e7565b60405180910390fd5b5f5f90505b60028160ff16101561132e575f60028260ff16600281106111fa576111f9612d3e565b5b015f9054906101000a900473ffffffffffffffffffffffffffffffffffffffff16905060015f8273ffffffffffffffffffffffffffffffffffffffff1673ffffffffffffffffffffffffffffffffffffffff1681526020019081526020015f205f5f82015f6101000a81549073ffffffffffffffffffffffffffffffffffffffff0219169055600182015f9055600282015f6101000a81549060ff0219169055600382015f9055600482015f6101000a81549060ff02191690556004820160016101000a81549060ff021916905550505f60028360ff16600281106112e2576112e1612d3e565b5b015f6101000a81548173ffffffffffffffffffffffffffffffffffffffff021916908373ffffffffffffffffffffffffffffffffffffffff1602179055505080806001019150506111d6565b505f60045f6101000a81548160ff021916908360ff1602179055505f6005819055505f6006819055505f5f5f6101000a81548160ff0219169083600481111561137a576113796129b3565b5b0217905550565b5f5f9054906101000a900460ff1681565b5f60048111156113a5576113a46129b3565b5b5f5f9054906101000a900460ff1660048111156113c5576113c46129b3565b5b14611405576040517f08c379a00000000000000000000000000000000000000000000000000000000081526004016113fc9061314f565b60405180910390fd5b600260045f9054906101000a900460ff1660ff1610611459576040517f08c379a0000000000000000000000000000000000000000000000000000000008152600401611450906131b7565b60405180910390fd5b66038d7ea4c6800034146114a2576040517f08c379a000000000000000000000000000000000000000000000000000000000815260040161149990613245565b60405180910390fd5b5f73ffffffffffffffffffffffffffffffffffffffff1660015f3373ffffffffffffffffffffffffffffffffffffffff1673ffffffffffffffffffffffffffffffffffffffff1681526020019081526020015f205f015f9054906101000a900473ffffffffffffffffffffffffffffffffffffffff1673ffffffffffffffffffffffffffffffffffffffff161461156e576040517f08c379a0000000000000000000000000000000000000000000000000000000008152600401611565906132ad565b60405180910390fd5b6040518060c001604052803373ffffffffffffffffffffffffffffffffffffffff168152602001601481526020015f60ff1681526020015f81526020015f151581526020015f151581525060015f3373ffffffffffffffffffffffffffffffffffffffff1673ffffffffffffffffffffffffffffffffffffffff1681526020019081526020015f205f820151815f015f6101000a81548173ffffffffffffffffffffffffffffffffffffffff021916908373ffffffffffffffffffffffffffffffffffffffff160217905550602082015181600101556040820151816002015f6101000a81548160ff021916908360ff160217905550606082015181600301556080820151816004015f6101000a81548160ff02191690831515021790555060a08201518160040160016101000a81548160ff02191690831515021790555090505033600260045f9054906101000a900460ff1660ff16600281106116d6576116d5612d3e565b5b015f6101000a81548173ffffffffffffffffffffffffffffffffffffffff021916908373ffffffffffffffffffffffffffffffffffffffff16021790555060045f81819054906101000a900460ff1680929190611732906132cb565b91906101000a81548160ff021916908360ff160217905550503373ffffffffffffffffffffffffffffffffffffffff167fd196f2977fe2b8b63f631a98b5e5967845e4fcf00f48ced5587cafe76122ea9c60405160405180910390a2600260045f9054906101000a900460ff1660ff16036117b0576117af611f5c565b5b565b60065481565b6001602052805f5260405f205f91509050805f015f9054906101000a900473ffffffffffffffffffffffffffffffffffffffff1690806001015490806002015f9054906101000a900460ff1690806003015490806004015f9054906101000a900460ff16908060040160019054906101000a900460ff16905086565b60026004811115611848576118476129b3565b5b5f5f9054906101000a900460ff166004811115611868576118676129b3565b5b146118a8576040517f08c379a000000000000000000000000000000000000000000000000000000000815260040161189f90612d20565b60405180910390fd5b600260075f9054906101000a900460ff1660ff16600281106118cd576118cc612d3e565b5b015f9054906101000a900473ffffffffffffffffffffffffffffffffffffffff1673ffffffffffffffffffffffffffffffffffffffff163373ffffffffffffffffffffffffffffffffffffffff161461195b576040517f08c379a000000000000000000000000000000000000000000000000000000000815260040161195290612db5565b60405180910390fd5b5f60015f3373ffffffffffffffffffffffffffffffffffffffff1673ffffffffffffffffffffffffffffffffffffffff1681526020019081526020015f209050806004015f9054906101000a900460ff16156119ec576040517f08c379a00000000000000000000000000000000000000000000000000000000081526004016119e390612e1d565b60405180910390fd5b6001816004015f6101000a81548160ff0219169083151502179055503373ffffffffffffffffffffffffffffffffffffffff167f199c8c7c36a66595192ead9dc8215b0688b07507960b0065d586a114d469a97560405160405180910390a2600e816002015f9054906101000a900460ff1660ff1603611af4575f600160028360010154611a7a91906132f3565b03611aa357600160028360010154611a929190612bb1565b611a9c9190612be1565b9050611ab7565b60028260010154611ab49190612bb1565b90505b5f811115611af25780826001015f828254611ad29190612ca3565b925050819055508060055f828254611aea9190612be1565b925050819055505b505b5f600260075f9054906101000a900460ff166001611b129190612f31565b60ff1660028110611b2657611b25612d3e565b5b015f9054906101000a900473ffffffffffffffffffffffffffffffffffffffff169050611b528161211a565b60045f5f6101000a81548160ff02191690836004811115611b7657611b756129b3565b5b02179055505050565b5f60015f60025f60028110611b9757611b96612d3e565b5b015f9054906101000a900473ffffffffffffffffffffffffffffffffffffffff1673ffffffffffffffffffffffffffffffffffffffff1673ffffffffffffffffffffffffffffffffffffffff1681526020019081526020015f2090505f60015f6002600160028110611c0c57611c0b612d3e565b5b015f9054906101000a900473ffffffffffffffffffffffffffffffffffffffff1673ffffffffffffffffffffffffffffffffffffffff1673ffffffffffffffffffffffffffffffffffffffff1681526020019081526020015f2090505f826002015f9054906101000a900460ff1690505f826002015f9054906101000a900460ff1690508060ff168260ff1603611dd1575f4243604051602001611cb1929190613343565b6040516020818303038152906040528051906020012090505f600e82875f015f9054906101000a900473ffffffffffffffffffffffffffffffffffffffff16604051602001611d019291906133dc565b604051602081830303815290604052805190602001205f1c611d2391906132f3565b90505f600e83875f015f9054906101000a900473ffffffffffffffffffffffffffffffffffffffff16604051602001611d5d9291906133dc565b604051602081830303815290604052805190602001205f1c611d7f91906132f3565b90505f8260ff1603611d9457600f9150611da4565b600182611da19190613407565b91505b5f8160ff1603611db757600f9050611dc7565b600181611dc49190613407565b90505b8194508093505050505b5f8160ff168360ff161115611e0a57845f015f9054906101000a900473ffffffffffffffffffffffffffffffffffffffff169050611e30565b835f015f9054906101000a900473ffffffffffffffffffffffffffffffffffffffff1690505b7fdf4a4e7597e09829b2df06da7cf6016a387ce9dad489996539fb4eca3b3415fc81865f015f9054906101000a900473ffffffffffffffffffffffffffffffffffffffff1673ffffffffffffffffffffffffffffffffffffffff168373ffffffffffffffffffffffffffffffffffffffff1614611ead5783611eaf565b845b875f015f9054906101000a900473ffffffffffffffffffffffffffffffffffffffff1673ffffffffffffffffffffffffffffffffffffffff168473ffffffffffffffffffffffffffffffffffffffff1614611f0a5785611f0c565b845b604051611f1b9392919061343b565b60405180910390a1611f2c81612283565b60045f5f6101000a81548160ff02191690836004811115611f5057611f4f6129b3565b5b02179055505050505050565b60015f5f6101000a81548160ff02191690836004811115611f8057611f7f6129b3565b5b0217905550611f8d612463565b60025f5f6101000a81548160ff02191690836004811115611fb157611fb06129b3565b5b02179055505f6006819055505f6005819055505f60075f6101000a81548160ff021916908360ff1602179055507ffc55cc067c35415abed01111d4da0583804cda015f0d752a5bbb9cfdbcb9031c60015f60025f6002811061201657612015612d3e565b5b015f9054906101000a900473ffffffffffffffffffffffffffffffffffffffff1673ffffffffffffffffffffffffffffffffffffffff1673ffffffffffffffffffffffffffffffffffffffff1681526020019081526020015f206002015f9054906101000a900460ff1660015f600260016002811061209857612097612d3e565b5b015f9054906101000a900473ffffffffffffffffffffffffffffffffffffffff1673ffffffffffffffffffffffffffffffffffffffff1673ffffffffffffffffffffffffffffffffffffffff1681526020019081526020015f206002015f9054906101000a900460ff16604051612110929190613470565b60405180910390a1565b5f60015f60025f6002811061213257612131612d3e565b5b015f9054906101000a900473ffffffffffffffffffffffffffffffffffffffff1673ffffffffffffffffffffffffffffffffffffffff1673ffffffffffffffffffffffffffffffffffffffff1681526020019081526020015f2090505f60015f60026001600281106121a7576121a6612d3e565b5b015f9054906101000a900473ffffffffffffffffffffffffffffffffffffffff1673ffffffffffffffffffffffffffffffffffffffff1673ffffffffffffffffffffffffffffffffffffffff1681526020019081526020015f2090505f8160030154836003015460055461221b9190612be1565b6122259190612be1565b90508060015f8673ffffffffffffffffffffffffffffffffffffffff1673ffffffffffffffffffffffffffffffffffffffff1681526020019081526020015f206001015f8282546122769190612be1565b9250508190555050505050565b5f60015f60025f6002811061229b5761229a612d3e565b5b015f9054906101000a900473ffffffffffffffffffffffffffffffffffffffff1673ffffffffffffffffffffffffffffffffffffffff1673ffffffffffffffffffffffffffffffffffffffff1681526020019081526020015f2090505f60015f60026001600281106123105761230f612d3e565b5b015f9054906101000a900473ffffffffffffffffffffffffffffffffffffffff1673ffffffffffffffffffffffffffffffffffffffff1673ffffffffffffffffffffffffffffffffffffffff1681526020019081526020015f2090505f826003015490505f826003015490505f81831061238a578161238c565b825b90505f60028261239c9190612b43565b90508060015f8973ffffffffffffffffffffffffffffffffffffffff1673ffffffffffffffffffffffffffffffffffffffff1681526020019081526020015f206001015f8282546123ed9190612be1565b9250508190555081841115612427575f82856124099190612ca3565b905080876001015f82825461241e9190612be1565b92505081905550505b8183111561245a575f828461243c9190612ca3565b905080866001015f8282546124519190612be1565b92505081905550505b50505050505050565b5f4244604051602001612477929190613343565b6040516020818303038152906040528051906020012090505f600e8260025f600281106124a7576124a6612d3e565b5b015f9054906101000a900473ffffffffffffffffffffffffffffffffffffffff166040516020016124d99291906133dc565b604051602081830303815290604052805190602001205f1c6124fb91906132f3565b90505f8160ff160361259957600f60015f60025f600281106125205761251f612d3e565b5b015f9054906101000a900473ffffffffffffffffffffffffffffffffffffffff1673ffffffffffffffffffffffffffffffffffffffff1673ffffffffffffffffffffffffffffffffffffffff1681526020019081526020015f206002015f6101000a81548160ff021916908360ff160217905550612632565b6001816125a69190613407565b60015f60025f600281106125bd576125bc612d3e565b5b015f9054906101000a900473ffffffffffffffffffffffffffffffffffffffff1673ffffffffffffffffffffffffffffffffffffffff1673ffffffffffffffffffffffffffffffffffffffff1681526020019081526020015f206002015f6101000a81548160ff021916908360ff1602179055505b5f600e83600260016002811061264b5761264a612d3e565b5b015f9054906101000a900473ffffffffffffffffffffffffffffffffffffffff1660405160200161267d9291906133dc565b604051602081830303815290604052805190602001205f1c61269f91906132f3565b90505f8160ff160361273e57600f60015f60026001600281106126c5576126c4612d3e565b5b015f9054906101000a900473ffffffffffffffffffffffffffffffffffffffff1673ffffffffffffffffffffffffffffffffffffffff1673ffffffffffffffffffffffffffffffffffffffff1681526020019081526020015f206002015f6101000a81548160ff021916908360ff1602179055506127d8565b60018161274b9190613407565b60015f600260016002811061276357612762612d3e565b5b015f9054906101000a900473ffffffffffffffffffffffffffffffffffffffff1673ffffffffffffffffffffffffffffffffffffffff1673ffffffffffffffffffffffffffffffffffffffff1681526020019081526020015f206002015f6101000a81548160ff021916908360ff1602179055505b505050565b5f60ff82169050919050565b6127f2816127dd565b82525050565b5f60208201905061280b5f8301846127e9565b92915050565b5f819050919050565b61282381612811565b82525050565b5f60208201905061283c5f83018461281a565b92915050565b5f5ffd5b61284f81612811565b8114612859575f5ffd5b50565b5f8135905061286a81612846565b92915050565b5f6020828403121561288557612884612842565b5b5f6128928482850161285c565b91505092915050565b5f73ffffffffffffffffffffffffffffffffffffffff82169050919050565b5f6128c48261289b565b9050919050565b6128d4816128ba565b81146128de575f5ffd5b50565b5f813590506128ef816128cb565b92915050565b5f6020828403121561290a57612909612842565b5b5f612917848285016128e1565b91505092915050565b5f8115159050919050565b61293481612920565b82525050565b5f60a08201905061294d5f83018861281a565b61295a60208301876127e9565b612967604083018661281a565b612974606083018561292b565b612981608083018461292b565b9695505050505050565b612994816128ba565b82525050565b5f6020820190506129ad5f83018461298b565b92915050565b7f4e487b71000000000000000000000000000000000000000000000000000000005f52602160045260245ffd5b600581106129f1576129f06129b3565b5b50565b5f819050612a01826129e0565b919050565b5f612a10826129f4565b9050919050565b612a2081612a06565b82525050565b5f602082019050612a395f830184612a17565b92915050565b5f60c082019050612a525f83018961298b565b612a5f602083018861281a565b612a6c60408301876127e9565b612a79606083018661281a565b612a86608083018561292b565b612a9360a083018461292b565b979650505050505050565b5f82825260208201905092915050565b7f4174206c6561737420302e303031204554482072657175697265642e000000005f82015250565b5f612ae2601c83612a9e565b9150612aed82612aae565b602082019050919050565b5f6020820190508181035f830152612b0f81612ad6565b9050919050565b7f4e487b71000000000000000000000000000000000000000000000000000000005f52601160045260245ffd5b5f612b4d82612811565b9150612b5883612811565b9250828202612b6681612811565b91508282048414831517612b7d57612b7c612b16565b5b5092915050565b7f4e487b71000000000000000000000000000000000000000000000000000000005f52601260045260245ffd5b5f612bbb82612811565b9150612bc683612811565b925082612bd657612bd5612b84565b5b828204905092915050565b5f612beb82612811565b9150612bf683612811565b9250828201905080821115612c0e57612c0d612b16565b5b92915050565b5f604082019050612c275f83018561281a565b612c34602083018461281a565b9392505050565b7f496e73756666696369656e7420636869707320666f722065786368616e67652e5f82015250565b5f612c6f602083612a9e565b9150612c7a82612c3b565b602082019050919050565b5f6020820190508181035f830152612c9c81612c63565b9050919050565b5f612cad82612811565b9150612cb883612811565b9250828203905081811115612cd057612ccf612b16565b5b92915050565b7f4e6f7420696e2062657474696e672070686173652e00000000000000000000005f82015250565b5f612d0a601583612a9e565b9150612d1582612cd6565b602082019050919050565b5f6020820190508181035f830152612d3781612cfe565b9050919050565b7f4e487b71000000000000000000000000000000000000000000000000000000005f52603260045260245ffd5b7f4e6f7420796f7572207475726e2e0000000000000000000000000000000000005f82015250565b5f612d9f600e83612a9e565b9150612daa82612d6b565b602082019050919050565b5f6020820190508181035f830152612dcc81612d93565b9050919050565b7f596f75206861766520616c726561647920666f6c6465642e00000000000000005f82015250565b5f612e07601883612a9e565b9150612e1282612dd3565b602082019050919050565b5f6020820190508181035f830152612e3481612dfb565b9050919050565b7f46697273742062657420616c726561647920706c616365642e000000000000005f82015250565b5f612e6f601983612a9e565b9150612e7a82612e3b565b602082019050919050565b5f6020820190508181035f830152612e9c81612e63565b9050919050565b7f496e73756666696369656e74206368697073206f7220696e76616c696420616d5f8201527f6f756e742e000000000000000000000000000000000000000000000000000000602082015250565b5f612efd602583612a9e565b9150612f0882612ea3565b604082019050919050565b5f6020820190508181035f830152612f2a81612ef1565b9050919050565b5f612f3b826127dd565b9150612f46836127dd565b9250828203905060ff811115612f5f57612f5e612b16565b5b92915050565b7f4e6f206163746976652062657420746f2063616c6c2e000000000000000000005f82015250565b5f612f99601683612a9e565b9150612fa482612f65565b602082019050919050565b5f6020820190508181035f830152612fc681612f8d565b9050919050565b7f5261697365206d757374206578636565642063757272656e74206265742e00005f82015250565b5f613001601e83612a9e565b915061300c82612fcd565b602082019050919050565b5f6020820190508181035f83015261302e81612ff5565b9050919050565b7f496e73756666696369656e7420636869707320666f722072616973652e0000005f82015250565b5f613069601d83612a9e565b915061307482613035565b602082019050919050565b5f6020820190508181035f8301526130968161305d565b9050919050565b7f47616d65206d7573742062652066696e697368656420746f2072657365742e005f82015250565b5f6130d1601f83612a9e565b91506130dc8261309d565b602082019050919050565b5f6020820190508181035f8301526130fe816130c5565b9050919050565b7f4e6f7420696e2077616974696e672073746174652e00000000000000000000005f82015250565b5f613139601583612a9e565b915061314482613105565b602082019050919050565b5f6020820190508181035f8301526131668161312d565b9050919050565b7f416c72656164792074776f20706c6179657273206a6f696e65642e00000000005f82015250565b5f6131a1601b83612a9e565b91506131ac8261316d565b602082019050919050565b5f6020820190508181035f8301526131ce81613195565b9050919050565b7f4d7573742073656e642065786163746c7920302e3030312045544820746f206a5f8201527f6f696e2e00000000000000000000000000000000000000000000000000000000602082015250565b5f61322f602483612a9e565b915061323a826131d5565b604082019050919050565b5f6020820190508181035f83015261325c81613223565b9050919050565b7f506c6179657220616c7265616479206a6f696e65642e000000000000000000005f82015250565b5f613297601683612a9e565b91506132a282613263565b602082019050919050565b5f6020820190508181035f8301526132c48161328b565b9050919050565b5f6132d5826127dd565b915060ff82036132e8576132e7612b16565b5b600182019050919050565b5f6132fd82612811565b915061330883612811565b92508261331857613317612b84565b5b828206905092915050565b5f819050919050565b61333d61333882612811565b613323565b82525050565b5f61334e828561332c565b60208201915061335e828461332c565b6020820191508190509392505050565b5f819050919050565b5f819050919050565b61339161338c8261336e565b613377565b82525050565b5f8160601b9050919050565b5f6133ad82613397565b9050919050565b5f6133be826133a3565b9050919050565b6133d66133d1826128ba565b6133b4565b82525050565b5f6133e78285613380565b6020820191506133f782846133c5565b6014820191508190509392505050565b5f613411826127dd565b915061341c836127dd565b9250828201905060ff81111561343557613434612b16565b5b92915050565b5f60608201905061344e5f83018661298b565b61345b60208301856127e9565b61346860408301846127e9565b949350505050565b5f6040820190506134835f8301856127e9565b61349060208301846127e9565b939250505056fea264697066735822122053c84bd15e8dd7e49a8da2cbae9d47fd9a81e4647e0f267d3c5ef13337880a2764736f6c634300081e0033",
					"opcodes": "PUSH1 0x80 PUSH1 0x40 MSTORE CALLVALUE DUP1 ISZERO PUSH1 0xE JUMPI PUSH0 PUSH0 REVERT JUMPDEST POP PUSH0 PUSH0 PUSH0 PUSH2 0x100 EXP DUP2 SLOAD DUP2 PUSH1 0xFF MUL NOT AND SWAP1 DUP4 PUSH1 0x4 DUP2 GT ISZERO PUSH1 0x2F JUMPI PUSH1 0x2E PUSH1 0x38 JUMP JUMPDEST JUMPDEST MUL OR SWAP1 SSTORE POP PUSH1 0x65 JUMP JUMPDEST PUSH32 0x4E487B7100000000000000000000000000000000000000000000000000000000 PUSH0 MSTORE PUSH1 0x21 PUSH1 0x4 MSTORE PUSH1 0x24 PUSH0 REVERT JUMPDEST PUSH2 0x34CD DUP1 PUSH2 0x72 PUSH0 CODECOPY PUSH0 RETURN INVALID PUSH1 0x80 PUSH1 0x40 MSTORE PUSH1 0x4 CALLDATASIZE LT PUSH2 0xE7 JUMPI PUSH0 CALLDATALOAD PUSH1 0xE0 SHR DUP1 PUSH4 0x85864A70 GT PUSH2 0x89 JUMPI DUP1 PUSH4 0xD4F77B1C GT PUSH2 0x58 JUMPI DUP1 PUSH4 0xD4F77B1C EQ PUSH2 0x293 JUMPI DUP1 PUSH4 0xD504CB65 EQ PUSH2 0x29D JUMPI DUP1 PUSH4 0xE2EB41FF EQ PUSH2 0x2C7 JUMPI DUP1 PUSH4 0xE684F46A EQ PUSH2 0x308 JUMPI PUSH2 0xE7 JUMP JUMPDEST DUP1 PUSH4 0x85864A70 EQ PUSH2 0x1EF JUMPI DUP1 PUSH4 0x8763B551 EQ PUSH2 0x217 JUMPI DUP1 PUSH4 0xBB472219 EQ PUSH2 0x253 JUMPI DUP1 PUSH4 0xC19D93FB EQ PUSH2 0x269 JUMPI PUSH2 0xE7 JUMP JUMPDEST DUP1 PUSH4 0x53556559 GT PUSH2 0xC5 JUMPI DUP1 PUSH4 0x53556559 EQ PUSH2 0x149 JUMPI DUP1 PUSH4 0x59328401 EQ PUSH2 0x171 JUMPI DUP1 PUSH4 0x7365870B EQ PUSH2 0x1B1 JUMPI DUP1 PUSH4 0x7F1DB215 EQ PUSH2 0x1D9 JUMPI PUSH2 0xE7 JUMP JUMPDEST DUP1 PUSH4 0x38FCFA9E EQ PUSH2 0xEB JUMPI DUP1 PUSH4 0x4404A438 EQ PUSH2 0xF5 JUMPI DUP1 PUSH4 0x4BA2363A EQ PUSH2 0x11F JUMPI JUMPDEST PUSH0 PUSH0 REVERT JUMPDEST PUSH2 0xF3 PUSH2 0x31E JUMP JUMPDEST STOP JUMPDEST CALLVALUE DUP1 ISZERO PUSH2 0x100 JUMPI PUSH0 PUSH0 REVERT JUMPDEST POP PUSH2 0x109 PUSH2 0x433 JUMP JUMPDEST PUSH1 0x40 MLOAD PUSH2 0x116 SWAP2 SWAP1 PUSH2 0x27F8 JUMP JUMPDEST PUSH1 0x40 MLOAD DUP1 SWAP2 SUB SWAP1 RETURN JUMPDEST CALLVALUE DUP1 ISZERO PUSH2 0x12A JUMPI PUSH0 PUSH0 REVERT JUMPDEST POP PUSH2 0x133 PUSH2 0x445 JUMP JUMPDEST PUSH1 0x40 MLOAD PUSH2 0x140 SWAP2 SWAP1 PUSH2 0x2829 JUMP JUMPDEST PUSH1 0x40 MLOAD DUP1 SWAP2 SUB SWAP1 RETURN JUMPDEST CALLVALUE DUP1 ISZERO PUSH2 0x154 JUMPI PUSH0 PUSH0 REVERT JUMPDEST POP PUSH2 0x16F PUSH1 0x4 DUP1 CALLDATASIZE SUB DUP2 ADD SWAP1 PUSH2 0x16A SWAP2 SWAP1 PUSH2 0x2870 JUMP JUMPDEST PUSH2 0x44B JUMP JUMPDEST STOP JUMPDEST CALLVALUE DUP1 ISZERO PUSH2 0x17C JUMPI PUSH0 PUSH0 REVERT JUMPDEST POP PUSH2 0x197 PUSH1 0x4 DUP1 CALLDATASIZE SUB DUP2 ADD SWAP1 PUSH2 0x192 SWAP2 SWAP1 PUSH2 0x28F5 JUMP JUMPDEST PUSH2 0x59A JUMP JUMPDEST PUSH1 0x40 MLOAD PUSH2 0x1A8 SWAP6 SWAP5 SWAP4 SWAP3 SWAP2 SWAP1 PUSH2 0x293A JUMP JUMPDEST PUSH1 0x40 MLOAD DUP1 SWAP2 SUB SWAP1 RETURN JUMPDEST CALLVALUE DUP1 ISZERO PUSH2 0x1BC JUMPI PUSH0 PUSH0 REVERT JUMPDEST POP PUSH2 0x1D7 PUSH1 0x4 DUP1 CALLDATASIZE SUB DUP2 ADD SWAP1 PUSH2 0x1D2 SWAP2 SWAP1 PUSH2 0x2870 JUMP JUMPDEST PUSH2 0x631 JUMP JUMPDEST STOP JUMPDEST CALLVALUE DUP1 ISZERO PUSH2 0x1E4 JUMPI PUSH0 PUSH0 REVERT JUMPDEST POP PUSH2 0x1ED PUSH2 0x947 JUMP JUMPDEST STOP JUMPDEST CALLVALUE DUP1 ISZERO PUSH2 0x1FA JUMPI PUSH0 PUSH0 REVERT JUMPDEST POP PUSH2 0x215 PUSH1 0x4 DUP1 CALLDATASIZE SUB DUP2 ADD SWAP1 PUSH2 0x210 SWAP2 SWAP1 PUSH2 0x2870 JUMP JUMPDEST PUSH2 0xDF9 JUMP JUMPDEST STOP JUMPDEST CALLVALUE DUP1 ISZERO PUSH2 0x222 JUMPI PUSH0 PUSH0 REVERT JUMPDEST POP PUSH2 0x23D PUSH1 0x4 DUP1 CALLDATASIZE SUB DUP2 ADD SWAP1 PUSH2 0x238 SWAP2 SWAP1 PUSH2 0x2870 JUMP JUMPDEST PUSH2 0x112A JUMP JUMPDEST PUSH1 0x40 MLOAD PUSH2 0x24A SWAP2 SWAP1 PUSH2 0x299A JUMP JUMPDEST PUSH1 0x40 MLOAD DUP1 SWAP2 SUB SWAP1 RETURN JUMPDEST CALLVALUE DUP1 ISZERO PUSH2 0x25E JUMPI PUSH0 PUSH0 REVERT JUMPDEST POP PUSH2 0x267 PUSH2 0x115E JUMP JUMPDEST STOP JUMPDEST CALLVALUE DUP1 ISZERO PUSH2 0x274 JUMPI PUSH0 PUSH0 REVERT JUMPDEST POP PUSH2 0x27D PUSH2 0x1381 JUMP JUMPDEST PUSH1 0x40 MLOAD PUSH2 0x28A SWAP2 SWAP1 PUSH2 0x2A26 JUMP JUMPDEST PUSH1 0x40 MLOAD DUP1 SWAP2 SUB SWAP1 RETURN JUMPDEST PUSH2 0x29B PUSH2 0x1392 JUMP JUMPDEST STOP JUMPDEST CALLVALUE DUP1 ISZERO PUSH2 0x2A8 JUMPI PUSH0 PUSH0 REVERT JUMPDEST POP PUSH2 0x2B1 PUSH2 0x17B2 JUMP JUMPDEST PUSH1 0x40 MLOAD PUSH2 0x2BE SWAP2 SWAP1 PUSH2 0x2829 JUMP JUMPDEST PUSH1 0x40 MLOAD DUP1 SWAP2 SUB SWAP1 RETURN JUMPDEST CALLVALUE DUP1 ISZERO PUSH2 0x2D2 JUMPI PUSH0 PUSH0 REVERT JUMPDEST POP PUSH2 0x2ED PUSH1 0x4 DUP1 CALLDATASIZE SUB DUP2 ADD SWAP1 PUSH2 0x2E8 SWAP2 SWAP1 PUSH2 0x28F5 JUMP JUMPDEST PUSH2 0x17B8 JUMP JUMPDEST PUSH1 0x40 MLOAD PUSH2 0x2FF SWAP7 SWAP6 SWAP5 SWAP4 SWAP3 SWAP2 SWAP1 PUSH2 0x2A3F JUMP JUMPDEST PUSH1 0x40 MLOAD DUP1 SWAP2 SUB SWAP1 RETURN JUMPDEST CALLVALUE DUP1 ISZERO PUSH2 0x313 JUMPI PUSH0 PUSH0 REVERT JUMPDEST POP PUSH2 0x31C PUSH2 0x1834 JUMP JUMPDEST STOP JUMPDEST PUSH7 0x38D7EA4C68000 CALLVALUE LT ISZERO PUSH2 0x368 JUMPI PUSH1 0x40 MLOAD PUSH32 0x8C379A000000000000000000000000000000000000000000000000000000000 DUP2 MSTORE PUSH1 0x4 ADD PUSH2 0x35F SWAP1 PUSH2 0x2AF8 JUMP JUMPDEST PUSH1 0x40 MLOAD DUP1 SWAP2 SUB SWAP1 REVERT JUMPDEST PUSH0 PUSH7 0x38D7EA4C68000 PUSH1 0x14 CALLVALUE PUSH2 0x37E SWAP2 SWAP1 PUSH2 0x2B43 JUMP JUMPDEST PUSH2 0x388 SWAP2 SWAP1 PUSH2 0x2BB1 JUMP JUMPDEST SWAP1 POP DUP1 PUSH1 0x1 PUSH0 CALLER PUSH20 0xFFFFFFFFFFFFFFFFFFFFFFFFFFFFFFFFFFFFFFFF AND PUSH20 0xFFFFFFFFFFFFFFFFFFFFFFFFFFFFFFFFFFFFFFFF AND DUP2 MSTORE PUSH1 0x20 ADD SWAP1 DUP2 MSTORE PUSH1 0x20 ADD PUSH0 KECCAK256 PUSH1 0x1 ADD PUSH0 DUP3 DUP3 SLOAD PUSH2 0x3D9 SWAP2 SWAP1 PUSH2 0x2BE1 JUMP JUMPDEST SWAP3 POP POP DUP2 SWAP1 SSTORE POP CALLER PUSH20 0xFFFFFFFFFFFFFFFFFFFFFFFFFFFFFFFFFFFFFFFF AND PUSH32 0x6A73271893757EFF3E2109A31A1F50F0B3CAFEA2D51A26DC5CFE54BA216B531C CALLVALUE DUP4 PUSH1 0x40 MLOAD PUSH2 0x428 SWAP3 SWAP2 SWAP1 PUSH2 0x2C14 JUMP JUMPDEST PUSH1 0x40 MLOAD DUP1 SWAP2 SUB SWAP1 LOG2 POP JUMP JUMPDEST PUSH1 0x7 PUSH0 SWAP1 SLOAD SWAP1 PUSH2 0x100 EXP SWAP1 DIV PUSH1 0xFF AND DUP2 JUMP JUMPDEST PUSH1 0x5 SLOAD DUP2 JUMP JUMPDEST PUSH0 PUSH1 0x1 PUSH0 CALLER PUSH20 0xFFFFFFFFFFFFFFFFFFFFFFFFFFFFFFFFFFFFFFFF AND PUSH20 0xFFFFFFFFFFFFFFFFFFFFFFFFFFFFFFFFFFFFFFFF AND DUP2 MSTORE PUSH1 0x20 ADD SWAP1 DUP2 MSTORE PUSH1 0x20 ADD PUSH0 KECCAK256 SWAP1 POP DUP2 DUP2 PUSH1 0x1 ADD SLOAD LT ISZERO PUSH2 0x4D2 JUMPI PUSH1 0x40 MLOAD PUSH32 0x8C379A000000000000000000000000000000000000000000000000000000000 DUP2 MSTORE PUSH1 0x4 ADD PUSH2 0x4C9 SWAP1 PUSH2 0x2C85 JUMP JUMPDEST PUSH1 0x40 MLOAD DUP1 SWAP2 SUB SWAP1 REVERT JUMPDEST DUP2 DUP2 PUSH1 0x1 ADD PUSH0 DUP3 DUP3 SLOAD PUSH2 0x4E5 SWAP2 SWAP1 PUSH2 0x2CA3 JUMP JUMPDEST SWAP3 POP POP DUP2 SWAP1 SSTORE POP PUSH0 PUSH6 0x2D79883D2000 DUP4 PUSH2 0x4FF SWAP2 SWAP1 PUSH2 0x2B43 JUMP JUMPDEST SWAP1 POP CALLER PUSH20 0xFFFFFFFFFFFFFFFFFFFFFFFFFFFFFFFFFFFFFFFF AND PUSH2 0x8FC DUP3 SWAP1 DUP2 ISZERO MUL SWAP1 PUSH1 0x40 MLOAD PUSH0 PUSH1 0x40 MLOAD DUP1 DUP4 SUB DUP2 DUP6 DUP9 DUP9 CALL SWAP4 POP POP POP POP ISZERO DUP1 ISZERO PUSH2 0x544 JUMPI RETURNDATASIZE PUSH0 PUSH0 RETURNDATACOPY RETURNDATASIZE PUSH0 REVERT JUMPDEST POP CALLER PUSH20 0xFFFFFFFFFFFFFFFFFFFFFFFFFFFFFFFFFFFFFFFF AND PUSH32 0x10A411A628953C6FACFF7CF4822B3C924B8B4CC322922727569C217B636505A8 DUP5 DUP4 PUSH1 0x40 MLOAD PUSH2 0x58D SWAP3 SWAP2 SWAP1 PUSH2 0x2C14 JUMP JUMPDEST PUSH1 0x40 MLOAD DUP1 SWAP2 SUB SWAP1 LOG2 POP POP POP JUMP JUMPDEST PUSH0 PUSH0 PUSH0 PUSH0 PUSH0 PUSH0 PUSH1 0x1 PUSH0 DUP9 PUSH20 0xFFFFFFFFFFFFFFFFFFFFFFFFFFFFFFFFFFFFFFFF AND PUSH20 0xFFFFFFFFFFFFFFFFFFFFFFFFFFFFFFFFFFFFFFFF AND DUP2 MSTORE PUSH1 0x20 ADD SWAP1 DUP2 MSTORE PUSH1 0x20 ADD PUSH0 KECCAK256 SWAP1 POP DUP1 PUSH1 0x1 ADD SLOAD DUP2 PUSH1 0x2 ADD PUSH0 SWAP1 SLOAD SWAP1 PUSH2 0x100 EXP SWAP1 DIV PUSH1 0xFF AND DUP3 PUSH1 0x3 ADD SLOAD DUP4 PUSH1 0x4 ADD PUSH0 SWAP1 SLOAD SWAP1 PUSH2 0x100 EXP SWAP1 DIV PUSH1 0xFF AND DUP5 PUSH1 0x4 ADD PUSH1 0x1 SWAP1 SLOAD SWAP1 PUSH2 0x100 EXP SWAP1 DIV PUSH1 0xFF AND SWAP6 POP SWAP6 POP SWAP6 POP SWAP6 POP SWAP6 POP POP SWAP2 SWAP4 SWAP6 SWAP1 SWAP3 SWAP5 POP JUMP JUMPDEST PUSH1 0x2 PUSH1 0x4 DUP2 GT ISZERO PUSH2 0x645 JUMPI PUSH2 0x644 PUSH2 0x29B3 JUMP JUMPDEST JUMPDEST PUSH0 PUSH0 SWAP1 SLOAD SWAP1 PUSH2 0x100 EXP SWAP1 DIV PUSH1 0xFF AND PUSH1 0x4 DUP2 GT ISZERO PUSH2 0x665 JUMPI PUSH2 0x664 PUSH2 0x29B3 JUMP JUMPDEST JUMPDEST EQ PUSH2 0x6A5 JUMPI PUSH1 0x40 MLOAD PUSH32 0x8C379A000000000000000000000000000000000000000000000000000000000 DUP2 MSTORE PUSH1 0x4 ADD PUSH2 0x69C SWAP1 PUSH2 0x2D20 JUMP JUMPDEST PUSH1 0x40 MLOAD DUP1 SWAP2 SUB SWAP1 REVERT JUMPDEST PUSH1 0x2 PUSH1 0x7 PUSH0 SWAP1 SLOAD SWAP1 PUSH2 0x100 EXP SWAP1 DIV PUSH1 0xFF AND PUSH1 0xFF AND PUSH1 0x2 DUP2 LT PUSH2 0x6CA JUMPI PUSH2 0x6C9 PUSH2 0x2D3E JUMP JUMPDEST JUMPDEST ADD PUSH0 SWAP1 SLOAD SWAP1 PUSH2 0x100 EXP SWAP1 DIV PUSH20 0xFFFFFFFFFFFFFFFFFFFFFFFFFFFFFFFFFFFFFFFF AND PUSH20 0xFFFFFFFFFFFFFFFFFFFFFFFFFFFFFFFFFFFFFFFF AND CALLER PUSH20 0xFFFFFFFFFFFFFFFFFFFFFFFFFFFFFFFFFFFFFFFF AND EQ PUSH2 0x758 JUMPI PUSH1 0x40 MLOAD PUSH32 0x8C379A000000000000000000000000000000000000000000000000000000000 DUP2 MSTORE PUSH1 0x4 ADD PUSH2 0x74F SWAP1 PUSH2 0x2DB5 JUMP JUMPDEST PUSH1 0x40 MLOAD DUP1 SWAP2 SUB SWAP1 REVERT JUMPDEST PUSH0 PUSH1 0x1 PUSH0 CALLER PUSH20 0xFFFFFFFFFFFFFFFFFFFFFFFFFFFFFFFFFFFFFFFF AND PUSH20 0xFFFFFFFFFFFFFFFFFFFFFFFFFFFFFFFFFFFFFFFF AND DUP2 MSTORE PUSH1 0x20 ADD SWAP1 DUP2 MSTORE PUSH1 0x20 ADD PUSH0 KECCAK256 SWAP1 POP DUP1 PUSH1 0x4 ADD PUSH0 SWAP1 SLOAD SWAP1 PUSH2 0x100 EXP SWAP1 DIV PUSH1 0xFF AND ISZERO PUSH2 0x7E9 JUMPI PUSH1 0x40 MLOAD PUSH32 0x8C379A000000000000000000000000000000000000000000000000000000000 DUP2 MSTORE PUSH1 0x4 ADD PUSH2 0x7E0 SWAP1 PUSH2 0x2E1D JUMP JUMPDEST PUSH1 0x40 MLOAD DUP1 SWAP2 SUB SWAP1 REVERT JUMPDEST PUSH0 PUSH1 0x6 SLOAD EQ PUSH2 0x82D JUMPI PUSH1 0x40 MLOAD PUSH32 0x8C379A000000000000000000000000000000000000000000000000000000000 DUP2 MSTORE PUSH1 0x4 ADD PUSH2 0x824 SWAP1 PUSH2 0x2E85 JUMP JUMPDEST PUSH1 0x40 MLOAD DUP1 SWAP2 SUB SWAP1 REVERT JUMPDEST PUSH0 DUP3 GT DUP1 ISZERO PUSH2 0x840 JUMPI POP DUP2 DUP2 PUSH1 0x1 ADD SLOAD LT ISZERO JUMPDEST PUSH2 0x87F JUMPI PUSH1 0x40 MLOAD PUSH32 0x8C379A000000000000000000000000000000000000000000000000000000000 DUP2 MSTORE PUSH1 0x4 ADD PUSH2 0x876 SWAP1 PUSH2 0x2F13 JUMP JUMPDEST PUSH1 0x40 MLOAD DUP1 SWAP2 SUB SWAP1 REVERT JUMPDEST DUP2 PUSH1 0x6 DUP2 SWAP1 SSTORE POP DUP2 DUP2 PUSH1 0x1 ADD PUSH0 DUP3 DUP3 SLOAD PUSH2 0x899 SWAP2 SWAP1 PUSH2 0x2CA3 JUMP JUMPDEST SWAP3 POP POP DUP2 SWAP1 SSTORE POP DUP2 DUP2 PUSH1 0x3 ADD DUP2 SWAP1 SSTORE POP DUP2 PUSH1 0x5 PUSH0 DUP3 DUP3 SLOAD PUSH2 0x8BA SWAP2 SWAP1 PUSH2 0x2BE1 JUMP JUMPDEST SWAP3 POP POP DUP2 SWAP1 SSTORE POP CALLER PUSH20 0xFFFFFFFFFFFFFFFFFFFFFFFFFFFFFFFFFFFFFFFF AND PUSH32 0x43E08D78302CDF9C94E1FFD293C2A3696139EE41CF3199B6F5EED9C7F6CC6090 DUP4 PUSH1 0x40 MLOAD PUSH2 0x907 SWAP2 SWAP1 PUSH2 0x2829 JUMP JUMPDEST PUSH1 0x40 MLOAD DUP1 SWAP2 SUB SWAP1 LOG2 PUSH1 0x7 PUSH0 SWAP1 SLOAD SWAP1 PUSH2 0x100 EXP SWAP1 DIV PUSH1 0xFF AND PUSH1 0x1 PUSH2 0x92A SWAP2 SWAP1 PUSH2 0x2F31 JUMP JUMPDEST PUSH1 0x7 PUSH0 PUSH2 0x100 EXP DUP2 SLOAD DUP2 PUSH1 0xFF MUL NOT AND SWAP1 DUP4 PUSH1 0xFF AND MUL OR SWAP1 SSTORE POP POP POP JUMP JUMPDEST PUSH1 0x2 PUSH1 0x4 DUP2 GT ISZERO PUSH2 0x95B JUMPI PUSH2 0x95A PUSH2 0x29B3 JUMP JUMPDEST JUMPDEST PUSH0 PUSH0 SWAP1 SLOAD SWAP1 PUSH2 0x100 EXP SWAP1 DIV PUSH1 0xFF AND PUSH1 0x4 DUP2 GT ISZERO PUSH2 0x97B JUMPI PUSH2 0x97A PUSH2 0x29B3 JUMP JUMPDEST JUMPDEST EQ PUSH2 0x9BB JUMPI PUSH1 0x40 MLOAD PUSH32 0x8C379A000000000000000000000000000000000000000000000000000000000 DUP2 MSTORE PUSH1 0x4 ADD PUSH2 0x9B2 SWAP1 PUSH2 0x2D20 JUMP JUMPDEST PUSH1 0x40 MLOAD DUP1 SWAP2 SUB SWAP1 REVERT JUMPDEST PUSH1 0x2 PUSH1 0x7 PUSH0 SWAP1 SLOAD SWAP1 PUSH2 0x100 EXP SWAP1 DIV PUSH1 0xFF AND PUSH1 0xFF AND PUSH1 0x2 DUP2 LT PUSH2 0x9E0 JUMPI PUSH2 0x9DF PUSH2 0x2D3E JUMP JUMPDEST JUMPDEST ADD PUSH0 SWAP1 SLOAD SWAP1 PUSH2 0x100 EXP SWAP1 DIV PUSH20 0xFFFFFFFFFFFFFFFFFFFFFFFFFFFFFFFFFFFFFFFF AND PUSH20 0xFFFFFFFFFFFFFFFFFFFFFFFFFFFFFFFFFFFFFFFF AND CALLER PUSH20 0xFFFFFFFFFFFFFFFFFFFFFFFFFFFFFFFFFFFFFFFF AND EQ PUSH2 0xA6E JUMPI PUSH1 0x40 MLOAD PUSH32 0x8C379A000000000000000000000000000000000000000000000000000000000 DUP2 MSTORE PUSH1 0x4 ADD PUSH2 0xA65 SWAP1 PUSH2 0x2DB5 JUMP JUMPDEST PUSH1 0x40 MLOAD DUP1 SWAP2 SUB SWAP1 REVERT JUMPDEST PUSH0 PUSH1 0x1 PUSH0 CALLER PUSH20 0xFFFFFFFFFFFFFFFFFFFFFFFFFFFFFFFFFFFFFFFF AND PUSH20 0xFFFFFFFFFFFFFFFFFFFFFFFFFFFFFFFFFFFFFFFF AND DUP2 MSTORE PUSH1 0x20 ADD SWAP1 DUP2 MSTORE PUSH1 0x20 ADD PUSH0 KECCAK256 SWAP1 POP DUP1 PUSH1 0x4 ADD PUSH0 SWAP1 SLOAD SWAP1 PUSH2 0x100 EXP SWAP1 DIV PUSH1 0xFF AND ISZERO PUSH2 0xAFF JUMPI PUSH1 0x40 MLOAD PUSH32 0x8C379A000000000000000000000000000000000000000000000000000000000 DUP2 MSTORE PUSH1 0x4 ADD PUSH2 0xAF6 SWAP1 PUSH2 0x2E1D JUMP JUMPDEST PUSH1 0x40 MLOAD DUP1 SWAP2 SUB SWAP1 REVERT JUMPDEST PUSH0 PUSH1 0x6 SLOAD GT PUSH2 0xB43 JUMPI PUSH1 0x40 MLOAD PUSH32 0x8C379A000000000000000000000000000000000000000000000000000000000 DUP2 MSTORE PUSH1 0x4 ADD PUSH2 0xB3A SWAP1 PUSH2 0x2FAF JUMP JUMPDEST PUSH1 0x40 MLOAD DUP1 SWAP2 SUB SWAP1 REVERT JUMPDEST PUSH0 DUP2 PUSH1 0x3 ADD SLOAD PUSH1 0x6 SLOAD GT PUSH2 0xB57 JUMPI PUSH0 PUSH2 0xB6A JUMP JUMPDEST DUP2 PUSH1 0x3 ADD SLOAD PUSH1 0x6 SLOAD PUSH2 0xB69 SWAP2 SWAP1 PUSH2 0x2CA3 JUMP JUMPDEST JUMPDEST SWAP1 POP DUP1 DUP3 PUSH1 0x1 ADD SLOAD GT PUSH2 0xC2B JUMPI PUSH0 DUP3 PUSH1 0x1 ADD SLOAD SWAP1 POP DUP1 DUP4 PUSH1 0x3 ADD PUSH0 DUP3 DUP3 SLOAD PUSH2 0xB92 SWAP2 SWAP1 PUSH2 0x2BE1 JUMP JUMPDEST SWAP3 POP POP DUP2 SWAP1 SSTORE POP DUP1 PUSH1 0x5 PUSH0 DUP3 DUP3 SLOAD PUSH2 0xBAA SWAP2 SWAP1 PUSH2 0x2BE1 JUMP JUMPDEST SWAP3 POP POP DUP2 SWAP1 SSTORE POP PUSH0 DUP4 PUSH1 0x1 ADD DUP2 SWAP1 SSTORE POP PUSH1 0x1 DUP4 PUSH1 0x4 ADD PUSH1 0x1 PUSH2 0x100 EXP DUP2 SLOAD DUP2 PUSH1 0xFF MUL NOT AND SWAP1 DUP4 ISZERO ISZERO MUL OR SWAP1 SSTORE POP CALLER PUSH20 0xFFFFFFFFFFFFFFFFFFFFFFFFFFFFFFFFFFFFFFFF AND PUSH32 0x9BB3C2260AE48D475A5D96EB8C13CD922D9CAC3D9A138C9FB90E9D586C74B74C DUP3 PUSH1 0x40 MLOAD PUSH2 0xC1D SWAP2 SWAP1 PUSH2 0x2829 JUMP JUMPDEST PUSH1 0x40 MLOAD DUP1 SWAP2 SUB SWAP1 LOG2 POP PUSH2 0xCC6 JUMP JUMPDEST DUP1 DUP3 PUSH1 0x1 ADD PUSH0 DUP3 DUP3 SLOAD PUSH2 0xC3E SWAP2 SWAP1 PUSH2 0x2CA3 JUMP JUMPDEST SWAP3 POP POP DUP2 SWAP1 SSTORE POP DUP1 DUP3 PUSH1 0x3 ADD PUSH0 DUP3 DUP3 SLOAD PUSH2 0xC58 SWAP2 SWAP1 PUSH2 0x2BE1 JUMP JUMPDEST SWAP3 POP POP DUP2 SWAP1 SSTORE POP DUP1 PUSH1 0x5 PUSH0 DUP3 DUP3 SLOAD PUSH2 0xC70 SWAP2 SWAP1 PUSH2 0x2BE1 JUMP JUMPDEST SWAP3 POP POP DUP2 SWAP1 SSTORE POP CALLER PUSH20 0xFFFFFFFFFFFFFFFFFFFFFFFFFFFFFFFFFFFFFFFF AND PUSH32 0x3984F38CE2C135261F712A8230A55882580D7EC5B607AE7001CAC18690209CC1 DUP3 PUSH1 0x40 MLOAD PUSH2 0xCBD SWAP2 SWAP1 PUSH2 0x2829 JUMP JUMPDEST PUSH1 0x40 MLOAD DUP1 SWAP2 SUB SWAP1 LOG2 JUMPDEST PUSH0 PUSH1 0x1 PUSH0 PUSH1 0x2 PUSH1 0x7 PUSH0 SWAP1 SLOAD SWAP1 PUSH2 0x100 EXP SWAP1 DIV PUSH1 0xFF AND PUSH1 0x1 PUSH2 0xCE7 SWAP2 SWAP1 PUSH2 0x2F31 JUMP JUMPDEST PUSH1 0xFF AND PUSH1 0x2 DUP2 LT PUSH2 0xCFB JUMPI PUSH2 0xCFA PUSH2 0x2D3E JUMP JUMPDEST JUMPDEST ADD PUSH0 SWAP1 SLOAD SWAP1 PUSH2 0x100 EXP SWAP1 DIV PUSH20 0xFFFFFFFFFFFFFFFFFFFFFFFFFFFFFFFFFFFFFFFF AND PUSH20 0xFFFFFFFFFFFFFFFFFFFFFFFFFFFFFFFFFFFFFFFF AND PUSH20 0xFFFFFFFFFFFFFFFFFFFFFFFFFFFFFFFFFFFFFFFF AND DUP2 MSTORE PUSH1 0x20 ADD SWAP1 DUP2 MSTORE PUSH1 0x20 ADD PUSH0 KECCAK256 SWAP1 POP PUSH0 DUP2 PUSH1 0x3 ADD SLOAD SWAP1 POP PUSH0 DUP5 PUSH1 0x3 ADD SLOAD SWAP1 POP DUP1 DUP3 EQ DUP1 PUSH2 0xD82 JUMPI POP DUP3 PUSH1 0x4 ADD PUSH0 SWAP1 SLOAD SWAP1 PUSH2 0x100 EXP SWAP1 DIV PUSH1 0xFF AND JUMPDEST ISZERO PUSH2 0xDBD JUMPI PUSH1 0x3 PUSH0 PUSH0 PUSH2 0x100 EXP DUP2 SLOAD DUP2 PUSH1 0xFF MUL NOT AND SWAP1 DUP4 PUSH1 0x4 DUP2 GT ISZERO PUSH2 0xDAB JUMPI PUSH2 0xDAA PUSH2 0x29B3 JUMP JUMPDEST JUMPDEST MUL OR SWAP1 SSTORE POP PUSH2 0xDB8 PUSH2 0x1B7F JUMP JUMPDEST PUSH2 0xDF2 JUMP JUMPDEST PUSH1 0x7 PUSH0 SWAP1 SLOAD SWAP1 PUSH2 0x100 EXP SWAP1 DIV PUSH1 0xFF AND PUSH1 0x1 PUSH2 0xDD8 SWAP2 SWAP1 PUSH2 0x2F31 JUMP JUMPDEST PUSH1 0x7 PUSH0 PUSH2 0x100 EXP DUP2 SLOAD DUP2 PUSH1 0xFF MUL NOT AND SWAP1 DUP4 PUSH1 0xFF AND MUL OR SWAP1 SSTORE POP JUMPDEST POP POP POP POP POP JUMP JUMPDEST PUSH1 0x2 PUSH1 0x4 DUP2 GT ISZERO PUSH2 0xE0D JUMPI PUSH2 0xE0C PUSH2 0x29B3 JUMP JUMPDEST JUMPDEST PUSH0 PUSH0 SWAP1 SLOAD SWAP1 PUSH2 0x100 EXP SWAP1 DIV PUSH1 0xFF AND PUSH1 0x4 DUP2 GT ISZERO PUSH2 0xE2D JUMPI PUSH2 0xE2C PUSH2 0x29B3 JUMP JUMPDEST JUMPDEST EQ PUSH2 0xE6D JUMPI PUSH1 0x40 MLOAD PUSH32 0x8C379A000000000000000000000000000000000000000000000000000000000 DUP2 MSTORE PUSH1 0x4 ADD PUSH2 0xE64 SWAP1 PUSH2 0x2D20 JUMP JUMPDEST PUSH1 0x40 MLOAD DUP1 SWAP2 SUB SWAP1 REVERT JUMPDEST PUSH1 0x2 PUSH1 0x7 PUSH0 SWAP1 SLOAD SWAP1 PUSH2 0x100 EXP SWAP1 DIV PUSH1 0xFF AND PUSH1 0xFF AND PUSH1 0x2 DUP2 LT PUSH2 0xE92 JUMPI PUSH2 0xE91 PUSH2 0x2D3E JUMP JUMPDEST JUMPDEST ADD PUSH0 SWAP1 SLOAD SWAP1 PUSH2 0x100 EXP SWAP1 DIV PUSH20 0xFFFFFFFFFFFFFFFFFFFFFFFFFFFFFFFFFFFFFFFF AND PUSH20 0xFFFFFFFFFFFFFFFFFFFFFFFFFFFFFFFFFFFFFFFF AND CALLER PUSH20 0xFFFFFFFFFFFFFFFFFFFFFFFFFFFFFFFFFFFFFFFF AND EQ PUSH2 0xF20 JUMPI PUSH1 0x40 MLOAD PUSH32 0x8C379A000000000000000000000000000000000000000000000000000000000 DUP2 MSTORE PUSH1 0x4 ADD PUSH2 0xF17 SWAP1 PUSH2 0x2DB5 JUMP JUMPDEST PUSH1 0x40 MLOAD DUP1 SWAP2 SUB SWAP1 REVERT JUMPDEST PUSH0 PUSH1 0x1 PUSH0 CALLER PUSH20 0xFFFFFFFFFFFFFFFFFFFFFFFFFFFFFFFFFFFFFFFF AND PUSH20 0xFFFFFFFFFFFFFFFFFFFFFFFFFFFFFFFFFFFFFFFF AND DUP2 MSTORE PUSH1 0x20 ADD SWAP1 DUP2 MSTORE PUSH1 0x20 ADD PUSH0 KECCAK256 SWAP1 POP DUP1 PUSH1 0x4 ADD PUSH0 SWAP1 SLOAD SWAP1 PUSH2 0x100 EXP SWAP1 DIV PUSH1 0xFF AND ISZERO PUSH2 0xFB1 JUMPI PUSH1 0x40 MLOAD PUSH32 0x8C379A000000000000000000000000000000000000000000000000000000000 DUP2 MSTORE PUSH1 0x4 ADD PUSH2 0xFA8 SWAP1 PUSH2 0x2E1D JUMP JUMPDEST PUSH1 0x40 MLOAD DUP1 SWAP2 SUB SWAP1 REVERT JUMPDEST PUSH1 0x6 SLOAD DUP3 GT PUSH2 0xFF5 JUMPI PUSH1 0x40 MLOAD PUSH32 0x8C379A000000000000000000000000000000000000000000000000000000000 DUP2 MSTORE PUSH1 0x4 ADD PUSH2 0xFEC SWAP1 PUSH2 0x3017 JUMP JUMPDEST PUSH1 0x40 MLOAD DUP1 SWAP2 SUB SWAP1 REVERT JUMPDEST PUSH0 DUP2 PUSH1 0x3 ADD SLOAD DUP4 GT PUSH2 0x1007 JUMPI PUSH0 PUSH2 0x1018 JUMP JUMPDEST DUP2 PUSH1 0x3 ADD SLOAD DUP4 PUSH2 0x1017 SWAP2 SWAP1 PUSH2 0x2CA3 JUMP JUMPDEST JUMPDEST SWAP1 POP DUP1 DUP3 PUSH1 0x1 ADD SLOAD LT ISZERO PUSH2 0x1061 JUMPI PUSH1 0x40 MLOAD PUSH32 0x8C379A000000000000000000000000000000000000000000000000000000000 DUP2 MSTORE PUSH1 0x4 ADD PUSH2 0x1058 SWAP1 PUSH2 0x307F JUMP JUMPDEST PUSH1 0x40 MLOAD DUP1 SWAP2 SUB SWAP1 REVERT JUMPDEST DUP1 DUP3 PUSH1 0x1 ADD PUSH0 DUP3 DUP3 SLOAD PUSH2 0x1074 SWAP2 SWAP1 PUSH2 0x2CA3 JUMP JUMPDEST SWAP3 POP POP DUP2 SWAP1 SSTORE POP DUP3 DUP3 PUSH1 0x3 ADD DUP2 SWAP1 SSTORE POP DUP1 PUSH1 0x5 PUSH0 DUP3 DUP3 SLOAD PUSH2 0x1095 SWAP2 SWAP1 PUSH2 0x2BE1 JUMP JUMPDEST SWAP3 POP POP DUP2 SWAP1 SSTORE POP DUP3 PUSH1 0x6 DUP2 SWAP1 SSTORE POP CALLER PUSH20 0xFFFFFFFFFFFFFFFFFFFFFFFFFFFFFFFFFFFFFFFF AND PUSH32 0x19B70886E9E49B62D56C7144FE0AA82D93221A9CCDC642B0F2497225D10C7AD0 DUP5 PUSH1 0x40 MLOAD PUSH2 0x10E9 SWAP2 SWAP1 PUSH2 0x2829 JUMP JUMPDEST PUSH1 0x40 MLOAD DUP1 SWAP2 SUB SWAP1 LOG2 PUSH1 0x7 PUSH0 SWAP1 SLOAD SWAP1 PUSH2 0x100 EXP SWAP1 DIV PUSH1 0xFF AND PUSH1 0x1 PUSH2 0x110C SWAP2 SWAP1 PUSH2 0x2F31 JUMP JUMPDEST PUSH1 0x7 PUSH0 PUSH2 0x100 EXP DUP2 SLOAD DUP2 PUSH1 0xFF MUL NOT AND SWAP1 DUP4 PUSH1 0xFF AND MUL OR SWAP1 SSTORE POP POP POP POP JUMP JUMPDEST PUSH1 0x2 DUP2 PUSH1 0x2 DUP2 LT PUSH2 0x1139 JUMPI PUSH0 DUP1 REVERT JUMPDEST ADD PUSH0 SWAP2 POP SLOAD SWAP1 PUSH2 0x100 EXP SWAP1 DIV PUSH20 0xFFFFFFFFFFFFFFFFFFFFFFFFFFFFFFFFFFFFFFFF AND DUP2 JUMP JUMPDEST PUSH1 0x4 DUP1 DUP2 GT ISZERO PUSH2 0x1171 JUMPI PUSH2 0x1170 PUSH2 0x29B3 JUMP JUMPDEST JUMPDEST PUSH0 PUSH0 SWAP1 SLOAD SWAP1 PUSH2 0x100 EXP SWAP1 DIV PUSH1 0xFF AND PUSH1 0x4 DUP2 GT ISZERO PUSH2 0x1191 JUMPI PUSH2 0x1190 PUSH2 0x29B3 JUMP JUMPDEST JUMPDEST EQ PUSH2 0x11D1 JUMPI PUSH1 0x40 MLOAD PUSH32 0x8C379A000000000000000000000000000000000000000000000000000000000 DUP2 MSTORE PUSH1 0x4 ADD PUSH2 0x11C8 SWAP1 PUSH2 0x30E7 JUMP JUMPDEST PUSH1 0x40 MLOAD DUP1 SWAP2 SUB SWAP1 REVERT JUMPDEST PUSH0 PUSH0 SWAP1 POP JUMPDEST PUSH1 0x2 DUP2 PUSH1 0xFF AND LT ISZERO PUSH2 0x132E JUMPI PUSH0 PUSH1 0x2 DUP3 PUSH1 0xFF AND PUSH1 0x2 DUP2 LT PUSH2 0x11FA JUMPI PUSH2 0x11F9 PUSH2 0x2D3E JUMP JUMPDEST JUMPDEST ADD PUSH0 SWAP1 SLOAD SWAP1 PUSH2 0x100 EXP SWAP1 DIV PUSH20 0xFFFFFFFFFFFFFFFFFFFFFFFFFFFFFFFFFFFFFFFF AND SWAP1 POP PUSH1 0x1 PUSH0 DUP3 PUSH20 0xFFFFFFFFFFFFFFFFFFFFFFFFFFFFFFFFFFFFFFFF AND PUSH20 0xFFFFFFFFFFFFFFFFFFFFFFFFFFFFFFFFFFFFFFFF AND DUP2 MSTORE PUSH1 0x20 ADD SWAP1 DUP2 MSTORE PUSH1 0x20 ADD PUSH0 KECCAK256 PUSH0 PUSH0 DUP3 ADD PUSH0 PUSH2 0x100 EXP DUP2 SLOAD SWAP1 PUSH20 0xFFFFFFFFFFFFFFFFFFFFFFFFFFFFFFFFFFFFFFFF MUL NOT AND SWAP1 SSTORE PUSH1 0x1 DUP3 ADD PUSH0 SWAP1 SSTORE PUSH1 0x2 DUP3 ADD PUSH0 PUSH2 0x100 EXP DUP2 SLOAD SWAP1 PUSH1 0xFF MUL NOT AND SWAP1 SSTORE PUSH1 0x3 DUP3 ADD PUSH0 SWAP1 SSTORE PUSH1 0x4 DUP3 ADD PUSH0 PUSH2 0x100 EXP DUP2 SLOAD SWAP1 PUSH1 0xFF MUL NOT AND SWAP1 SSTORE PUSH1 0x4 DUP3 ADD PUSH1 0x1 PUSH2 0x100 EXP DUP2 SLOAD SWAP1 PUSH1 0xFF MUL NOT AND SWAP1 SSTORE POP POP PUSH0 PUSH1 0x2 DUP4 PUSH1 0xFF AND PUSH1 0x2 DUP2 LT PUSH2 0x12E2 JUMPI PUSH2 0x12E1 PUSH2 0x2D3E JUMP JUMPDEST JUMPDEST ADD PUSH0 PUSH2 0x100 EXP DUP2 SLOAD DUP2 PUSH20 0xFFFFFFFFFFFFFFFFFFFFFFFFFFFFFFFFFFFFFFFF MUL NOT AND SWAP1 DUP4 PUSH20 0xFFFFFFFFFFFFFFFFFFFFFFFFFFFFFFFFFFFFFFFF AND MUL OR SWAP1 SSTORE POP POP DUP1 DUP1 PUSH1 0x1 ADD SWAP2 POP POP PUSH2 0x11D6 JUMP JUMPDEST POP PUSH0 PUSH1 0x4 PUSH0 PUSH2 0x100 EXP DUP2 SLOAD DUP2 PUSH1 0xFF MUL NOT AND SWAP1 DUP4 PUSH1 0xFF AND MUL OR SWAP1 SSTORE POP PUSH0 PUSH1 0x5 DUP2 SWAP1 SSTORE POP PUSH0 PUSH1 0x6 DUP2 SWAP1 SSTORE POP PUSH0 PUSH0 PUSH0 PUSH2 0x100 EXP DUP2 SLOAD DUP2 PUSH1 0xFF MUL NOT AND SWAP1 DUP4 PUSH1 0x4 DUP2 GT ISZERO PUSH2 0x137A JUMPI PUSH2 0x1379 PUSH2 0x29B3 JUMP JUMPDEST JUMPDEST MUL OR SWAP1 SSTORE POP JUMP JUMPDEST PUSH0 PUSH0 SWAP1 SLOAD SWAP1 PUSH2 0x100 EXP SWAP1 DIV PUSH1 0xFF AND DUP2 JUMP JUMPDEST PUSH0 PUSH1 0x4 DUP2 GT ISZERO PUSH2 0x13A5 JUMPI PUSH2 0x13A4 PUSH2 0x29B3 JUMP JUMPDEST JUMPDEST PUSH0 PUSH0 SWAP1 SLOAD SWAP1 PUSH2 0x100 EXP SWAP1 DIV PUSH1 0xFF AND PUSH1 0x4 DUP2 GT ISZERO PUSH2 0x13C5 JUMPI PUSH2 0x13C4 PUSH2 0x29B3 JUMP JUMPDEST JUMPDEST EQ PUSH2 0x1405 JUMPI PUSH1 0x40 MLOAD PUSH32 0x8C379A000000000000000000000000000000000000000000000000000000000 DUP2 MSTORE PUSH1 0x4 ADD PUSH2 0x13FC SWAP1 PUSH2 0x314F JUMP JUMPDEST PUSH1 0x40 MLOAD DUP1 SWAP2 SUB SWAP1 REVERT JUMPDEST PUSH1 0x2 PUSH1 0x4 PUSH0 SWAP1 SLOAD SWAP1 PUSH2 0x100 EXP SWAP1 DIV PUSH1 0xFF AND PUSH1 0xFF AND LT PUSH2 0x1459 JUMPI PUSH1 0x40 MLOAD PUSH32 0x8C379A000000000000000000000000000000000000000000000000000000000 DUP2 MSTORE PUSH1 0x4 ADD PUSH2 0x1450 SWAP1 PUSH2 0x31B7 JUMP JUMPDEST PUSH1 0x40 MLOAD DUP1 SWAP2 SUB SWAP1 REVERT JUMPDEST PUSH7 0x38D7EA4C68000 CALLVALUE EQ PUSH2 0x14A2 JUMPI PUSH1 0x40 MLOAD PUSH32 0x8C379A000000000000000000000000000000000000000000000000000000000 DUP2 MSTORE PUSH1 0x4 ADD PUSH2 0x1499 SWAP1 PUSH2 0x3245 JUMP JUMPDEST PUSH1 0x40 MLOAD DUP1 SWAP2 SUB SWAP1 REVERT JUMPDEST PUSH0 PUSH20 0xFFFFFFFFFFFFFFFFFFFFFFFFFFFFFFFFFFFFFFFF AND PUSH1 0x1 PUSH0 CALLER PUSH20 0xFFFFFFFFFFFFFFFFFFFFFFFFFFFFFFFFFFFFFFFF AND PUSH20 0xFFFFFFFFFFFFFFFFFFFFFFFFFFFFFFFFFFFFFFFF AND DUP2 MSTORE PUSH1 0x20 ADD SWAP1 DUP2 MSTORE PUSH1 0x20 ADD PUSH0 KECCAK256 PUSH0 ADD PUSH0 SWAP1 SLOAD SWAP1 PUSH2 0x100 EXP SWAP1 DIV PUSH20 0xFFFFFFFFFFFFFFFFFFFFFFFFFFFFFFFFFFFFFFFF AND PUSH20 0xFFFFFFFFFFFFFFFFFFFFFFFFFFFFFFFFFFFFFFFF AND EQ PUSH2 0x156E JUMPI PUSH1 0x40 MLOAD PUSH32 0x8C379A000000000000000000000000000000000000000000000000000000000 DUP2 MSTORE PUSH1 0x4 ADD PUSH2 0x1565 SWAP1 PUSH2 0x32AD JUMP JUMPDEST PUSH1 0x40 MLOAD DUP1 SWAP2 SUB SWAP1 REVERT JUMPDEST PUSH1 0x40 MLOAD DUP1 PUSH1 0xC0 ADD PUSH1 0x40 MSTORE DUP1 CALLER PUSH20 0xFFFFFFFFFFFFFFFFFFFFFFFFFFFFFFFFFFFFFFFF AND DUP2 MSTORE PUSH1 0x20 ADD PUSH1 0x14 DUP2 MSTORE PUSH1 0x20 ADD PUSH0 PUSH1 0xFF AND DUP2 MSTORE PUSH1 0x20 ADD PUSH0 DUP2 MSTORE PUSH1 0x20 ADD PUSH0 ISZERO ISZERO DUP2 MSTORE PUSH1 0x20 ADD PUSH0 ISZERO ISZERO DUP2 MSTORE POP PUSH1 0x1 PUSH0 CALLER PUSH20 0xFFFFFFFFFFFFFFFFFFFFFFFFFFFFFFFFFFFFFFFF AND PUSH20 0xFFFFFFFFFFFFFFFFFFFFFFFFFFFFFFFFFFFFFFFF AND DUP2 MSTORE PUSH1 0x20 ADD SWAP1 DUP2 MSTORE PUSH1 0x20 ADD PUSH0 KECCAK256 PUSH0 DUP3 ADD MLOAD DUP2 PUSH0 ADD PUSH0 PUSH2 0x100 EXP DUP2 SLOAD DUP2 PUSH20 0xFFFFFFFFFFFFFFFFFFFFFFFFFFFFFFFFFFFFFFFF MUL NOT AND SWAP1 DUP4 PUSH20 0xFFFFFFFFFFFFFFFFFFFFFFFFFFFFFFFFFFFFFFFF AND MUL OR SWAP1 SSTORE POP PUSH1 0x20 DUP3 ADD MLOAD DUP2 PUSH1 0x1 ADD SSTORE PUSH1 0x40 DUP3 ADD MLOAD DUP2 PUSH1 0x2 ADD PUSH0 PUSH2 0x100 EXP DUP2 SLOAD DUP2 PUSH1 0xFF MUL NOT AND SWAP1 DUP4 PUSH1 0xFF AND MUL OR SWAP1 SSTORE POP PUSH1 0x60 DUP3 ADD MLOAD DUP2 PUSH1 0x3 ADD SSTORE PUSH1 0x80 DUP3 ADD MLOAD DUP2 PUSH1 0x4 ADD PUSH0 PUSH2 0x100 EXP DUP2 SLOAD DUP2 PUSH1 0xFF MUL NOT AND SWAP1 DUP4 ISZERO ISZERO MUL OR SWAP1 SSTORE POP PUSH1 0xA0 DUP3 ADD MLOAD DUP2 PUSH1 0x4 ADD PUSH1 0x1 PUSH2 0x100 EXP DUP2 SLOAD DUP2 PUSH1 0xFF MUL NOT AND SWAP1 DUP4 ISZERO ISZERO MUL OR SWAP1 SSTORE POP SWAP1 POP POP CALLER PUSH1 0x2 PUSH1 0x4 PUSH0 SWAP1 SLOAD SWAP1 PUSH2 0x100 EXP SWAP1 DIV PUSH1 0xFF AND PUSH1 0xFF AND PUSH1 0x2 DUP2 LT PUSH2 0x16D6 JUMPI PUSH2 0x16D5 PUSH2 0x2D3E JUMP JUMPDEST JUMPDEST ADD PUSH0 PUSH2 0x100 EXP DUP2 SLOAD DUP2 PUSH20 0xFFFFFFFFFFFFFFFFFFFFFFFFFFFFFFFFFFFFFFFF MUL NOT AND SWAP1 DUP4 PUSH20 0xFFFFFFFFFFFFFFFFFFFFFFFFFFFFFFFFFFFFFFFF AND MUL OR SWAP1 SSTORE POP PUSH1 0x4 PUSH0 DUP2 DUP2 SWAP1 SLOAD SWAP1 PUSH2 0x100 EXP SWAP1 DIV PUSH1 0xFF AND DUP1 SWAP3 SWAP2 SWAP1 PUSH2 0x1732 SWAP1 PUSH2 0x32CB JUMP JUMPDEST SWAP2 SWAP1 PUSH2 0x100 EXP DUP2 SLOAD DUP2 PUSH1 0xFF MUL NOT AND SWAP1 DUP4 PUSH1 0xFF AND MUL OR SWAP1 SSTORE POP POP CALLER PUSH20 0xFFFFFFFFFFFFFFFFFFFFFFFFFFFFFFFFFFFFFFFF AND PUSH32 0xD196F2977FE2B8B63F631A98B5E5967845E4FCF00F48CED5587CAFE76122EA9C PUSH1 0x40 MLOAD PUSH1 0x40 MLOAD DUP1 SWAP2 SUB SWAP1 LOG2 PUSH1 0x2 PUSH1 0x4 PUSH0 SWAP1 SLOAD SWAP1 PUSH2 0x100 EXP SWAP1 DIV PUSH1 0xFF AND PUSH1 0xFF AND SUB PUSH2 0x17B0 JUMPI PUSH2 0x17AF PUSH2 0x1F5C JUMP JUMPDEST JUMPDEST JUMP JUMPDEST PUSH1 0x6 SLOAD DUP2 JUMP JUMPDEST PUSH1 0x1 PUSH1 0x20 MSTORE DUP1 PUSH0 MSTORE PUSH1 0x40 PUSH0 KECCAK256 PUSH0 SWAP2 POP SWAP1 POP DUP1 PUSH0 ADD PUSH0 SWAP1 SLOAD SWAP1 PUSH2 0x100 EXP SWAP1 DIV PUSH20 0xFFFFFFFFFFFFFFFFFFFFFFFFFFFFFFFFFFFFFFFF AND SWAP1 DUP1 PUSH1 0x1 ADD SLOAD SWAP1 DUP1 PUSH1 0x2 ADD PUSH0 SWAP1 SLOAD SWAP1 PUSH2 0x100 EXP SWAP1 DIV PUSH1 0xFF AND SWAP1 DUP1 PUSH1 0x3 ADD SLOAD SWAP1 DUP1 PUSH1 0x4 ADD PUSH0 SWAP1 SLOAD SWAP1 PUSH2 0x100 EXP SWAP1 DIV PUSH1 0xFF AND SWAP1 DUP1 PUSH1 0x4 ADD PUSH1 0x1 SWAP1 SLOAD SWAP1 PUSH2 0x100 EXP SWAP1 DIV PUSH1 0xFF AND SWAP1 POP DUP7 JUMP JUMPDEST PUSH1 0x2 PUSH1 0x4 DUP2 GT ISZERO PUSH2 0x1848 JUMPI PUSH2 0x1847 PUSH2 0x29B3 JUMP JUMPDEST JUMPDEST PUSH0 PUSH0 SWAP1 SLOAD SWAP1 PUSH2 0x100 EXP SWAP1 DIV PUSH1 0xFF AND PUSH1 0x4 DUP2 GT ISZERO PUSH2 0x1868 JUMPI PUSH2 0x1867 PUSH2 0x29B3 JUMP JUMPDEST JUMPDEST EQ PUSH2 0x18A8 JUMPI PUSH1 0x40 MLOAD PUSH32 0x8C379A000000000000000000000000000000000000000000000000000000000 DUP2 MSTORE PUSH1 0x4 ADD PUSH2 0x189F SWAP1 PUSH2 0x2D20 JUMP JUMPDEST PUSH1 0x40 MLOAD DUP1 SWAP2 SUB SWAP1 REVERT JUMPDEST PUSH1 0x2 PUSH1 0x7 PUSH0 SWAP1 SLOAD SWAP1 PUSH2 0x100 EXP SWAP1 DIV PUSH1 0xFF AND PUSH1 0xFF AND PUSH1 0x2 DUP2 LT PUSH2 0x18CD JUMPI PUSH2 0x18CC PUSH2 0x2D3E JUMP JUMPDEST JUMPDEST ADD PUSH0 SWAP1 SLOAD SWAP1 PUSH2 0x100 EXP SWAP1 DIV PUSH20 0xFFFFFFFFFFFFFFFFFFFFFFFFFFFFFFFFFFFFFFFF AND PUSH20 0xFFFFFFFFFFFFFFFFFFFFFFFFFFFFFFFFFFFFFFFF AND CALLER PUSH20 0xFFFFFFFFFFFFFFFFFFFFFFFFFFFFFFFFFFFFFFFF AND EQ PUSH2 0x195B JUMPI PUSH1 0x40 MLOAD PUSH32 0x8C379A000000000000000000000000000000000000000000000000000000000 DUP2 MSTORE PUSH1 0x4 ADD PUSH2 0x1952 SWAP1 PUSH2 0x2DB5 JUMP JUMPDEST PUSH1 0x40 MLOAD DUP1 SWAP2 SUB SWAP1 REVERT JUMPDEST PUSH0 PUSH1 0x1 PUSH0 CALLER PUSH20 0xFFFFFFFFFFFFFFFFFFFFFFFFFFFFFFFFFFFFFFFF AND PUSH20 0xFFFFFFFFFFFFFFFFFFFFFFFFFFFFFFFFFFFFFFFF AND DUP2 MSTORE PUSH1 0x20 ADD SWAP1 DUP2 MSTORE PUSH1 0x20 ADD PUSH0 KECCAK256 SWAP1 POP DUP1 PUSH1 0x4 ADD PUSH0 SWAP1 SLOAD SWAP1 PUSH2 0x100 EXP SWAP1 DIV PUSH1 0xFF AND ISZERO PUSH2 0x19EC JUMPI PUSH1 0x40 MLOAD PUSH32 0x8C379A000000000000000000000000000000000000000000000000000000000 DUP2 MSTORE PUSH1 0x4 ADD PUSH2 0x19E3 SWAP1 PUSH2 0x2E1D JUMP JUMPDEST PUSH1 0x40 MLOAD DUP1 SWAP2 SUB SWAP1 REVERT JUMPDEST PUSH1 0x1 DUP2 PUSH1 0x4 ADD PUSH0 PUSH2 0x100 EXP DUP2 SLOAD DUP2 PUSH1 0xFF MUL NOT AND SWAP1 DUP4 ISZERO ISZERO MUL OR SWAP1 SSTORE POP CALLER PUSH20 0xFFFFFFFFFFFFFFFFFFFFFFFFFFFFFFFFFFFFFFFF AND PUSH32 0x199C8C7C36A66595192EAD9DC8215B0688B07507960B0065D586A114D469A975 PUSH1 0x40 MLOAD PUSH1 0x40 MLOAD DUP1 SWAP2 SUB SWAP1 LOG2 PUSH1 0xE DUP2 PUSH1 0x2 ADD PUSH0 SWAP1 SLOAD SWAP1 PUSH2 0x100 EXP SWAP1 DIV PUSH1 0xFF AND PUSH1 0xFF AND SUB PUSH2 0x1AF4 JUMPI PUSH0 PUSH1 0x1 PUSH1 0x2 DUP4 PUSH1 0x1 ADD SLOAD PUSH2 0x1A7A SWAP2 SWAP1 PUSH2 0x32F3 JUMP JUMPDEST SUB PUSH2 0x1AA3 JUMPI PUSH1 0x1 PUSH1 0x2 DUP4 PUSH1 0x1 ADD SLOAD PUSH2 0x1A92 SWAP2 SWAP1 PUSH2 0x2BB1 JUMP JUMPDEST PUSH2 0x1A9C SWAP2 SWAP1 PUSH2 0x2BE1 JUMP JUMPDEST SWAP1 POP PUSH2 0x1AB7 JUMP JUMPDEST PUSH1 0x2 DUP3 PUSH1 0x1 ADD SLOAD PUSH2 0x1AB4 SWAP2 SWAP1 PUSH2 0x2BB1 JUMP JUMPDEST SWAP1 POP JUMPDEST PUSH0 DUP2 GT ISZERO PUSH2 0x1AF2 JUMPI DUP1 DUP3 PUSH1 0x1 ADD PUSH0 DUP3 DUP3 SLOAD PUSH2 0x1AD2 SWAP2 SWAP1 PUSH2 0x2CA3 JUMP JUMPDEST SWAP3 POP POP DUP2 SWAP1 SSTORE POP DUP1 PUSH1 0x5 PUSH0 DUP3 DUP3 SLOAD PUSH2 0x1AEA SWAP2 SWAP1 PUSH2 0x2BE1 JUMP JUMPDEST SWAP3 POP POP DUP2 SWAP1 SSTORE POP JUMPDEST POP JUMPDEST PUSH0 PUSH1 0x2 PUSH1 0x7 PUSH0 SWAP1 SLOAD SWAP1 PUSH2 0x100 EXP SWAP1 DIV PUSH1 0xFF AND PUSH1 0x1 PUSH2 0x1B12 SWAP2 SWAP1 PUSH2 0x2F31 JUMP JUMPDEST PUSH1 0xFF AND PUSH1 0x2 DUP2 LT PUSH2 0x1B26 JUMPI PUSH2 0x1B25 PUSH2 0x2D3E JUMP JUMPDEST JUMPDEST ADD PUSH0 SWAP1 SLOAD SWAP1 PUSH2 0x100 EXP SWAP1 DIV PUSH20 0xFFFFFFFFFFFFFFFFFFFFFFFFFFFFFFFFFFFFFFFF AND SWAP1 POP PUSH2 0x1B52 DUP2 PUSH2 0x211A JUMP JUMPDEST PUSH1 0x4 PUSH0 PUSH0 PUSH2 0x100 EXP DUP2 SLOAD DUP2 PUSH1 0xFF MUL NOT AND SWAP1 DUP4 PUSH1 0x4 DUP2 GT ISZERO PUSH2 0x1B76 JUMPI PUSH2 0x1B75 PUSH2 0x29B3 JUMP JUMPDEST JUMPDEST MUL OR SWAP1 SSTORE POP POP POP JUMP JUMPDEST PUSH0 PUSH1 0x1 PUSH0 PUSH1 0x2 PUSH0 PUSH1 0x2 DUP2 LT PUSH2 0x1B97 JUMPI PUSH2 0x1B96 PUSH2 0x2D3E JUMP JUMPDEST JUMPDEST ADD PUSH0 SWAP1 SLOAD SWAP1 PUSH2 0x100 EXP SWAP1 DIV PUSH20 0xFFFFFFFFFFFFFFFFFFFFFFFFFFFFFFFFFFFFFFFF AND PUSH20 0xFFFFFFFFFFFFFFFFFFFFFFFFFFFFFFFFFFFFFFFF AND PUSH20 0xFFFFFFFFFFFFFFFFFFFFFFFFFFFFFFFFFFFFFFFF AND DUP2 MSTORE PUSH1 0x20 ADD SWAP1 DUP2 MSTORE PUSH1 0x20 ADD PUSH0 KECCAK256 SWAP1 POP PUSH0 PUSH1 0x1 PUSH0 PUSH1 0x2 PUSH1 0x1 PUSH1 0x2 DUP2 LT PUSH2 0x1C0C JUMPI PUSH2 0x1C0B PUSH2 0x2D3E JUMP JUMPDEST JUMPDEST ADD PUSH0 SWAP1 SLOAD SWAP1 PUSH2 0x100 EXP SWAP1 DIV PUSH20 0xFFFFFFFFFFFFFFFFFFFFFFFFFFFFFFFFFFFFFFFF AND PUSH20 0xFFFFFFFFFFFFFFFFFFFFFFFFFFFFFFFFFFFFFFFF AND PUSH20 0xFFFFFFFFFFFFFFFFFFFFFFFFFFFFFFFFFFFFFFFF AND DUP2 MSTORE PUSH1 0x20 ADD SWAP1 DUP2 MSTORE PUSH1 0x20 ADD PUSH0 KECCAK256 SWAP1 POP PUSH0 DUP3 PUSH1 0x2 ADD PUSH0 SWAP1 SLOAD SWAP1 PUSH2 0x100 EXP SWAP1 DIV PUSH1 0xFF AND SWAP1 POP PUSH0 DUP3 PUSH1 0x2 ADD PUSH0 SWAP1 SLOAD SWAP1 PUSH2 0x100 EXP SWAP1 DIV PUSH1 0xFF AND SWAP1 POP DUP1 PUSH1 0xFF AND DUP3 PUSH1 0xFF AND SUB PUSH2 0x1DD1 JUMPI PUSH0 TIMESTAMP NUMBER PUSH1 0x40 MLOAD PUSH1 0x20 ADD PUSH2 0x1CB1 SWAP3 SWAP2 SWAP1 PUSH2 0x3343 JUMP JUMPDEST PUSH1 0x40 MLOAD PUSH1 0x20 DUP2 DUP4 SUB SUB DUP2 MSTORE SWAP1 PUSH1 0x40 MSTORE DUP1 MLOAD SWAP1 PUSH1 0x20 ADD KECCAK256 SWAP1 POP PUSH0 PUSH1 0xE DUP3 DUP8 PUSH0 ADD PUSH0 SWAP1 SLOAD SWAP1 PUSH2 0x100 EXP SWAP1 DIV PUSH20 0xFFFFFFFFFFFFFFFFFFFFFFFFFFFFFFFFFFFFFFFF AND PUSH1 0x40 MLOAD PUSH1 0x20 ADD PUSH2 0x1D01 SWAP3 SWAP2 SWAP1 PUSH2 0x33DC JUMP JUMPDEST PUSH1 0x40 MLOAD PUSH1 0x20 DUP2 DUP4 SUB SUB DUP2 MSTORE SWAP1 PUSH1 0x40 MSTORE DUP1 MLOAD SWAP1 PUSH1 0x20 ADD KECCAK256 PUSH0 SHR PUSH2 0x1D23 SWAP2 SWAP1 PUSH2 0x32F3 JUMP JUMPDEST SWAP1 POP PUSH0 PUSH1 0xE DUP4 DUP8 PUSH0 ADD PUSH0 SWAP1 SLOAD SWAP1 PUSH2 0x100 EXP SWAP1 DIV PUSH20 0xFFFFFFFFFFFFFFFFFFFFFFFFFFFFFFFFFFFFFFFF AND PUSH1 0x40 MLOAD PUSH1 0x20 ADD PUSH2 0x1D5D SWAP3 SWAP2 SWAP1 PUSH2 0x33DC JUMP JUMPDEST PUSH1 0x40 MLOAD PUSH1 0x20 DUP2 DUP4 SUB SUB DUP2 MSTORE SWAP1 PUSH1 0x40 MSTORE DUP1 MLOAD SWAP1 PUSH1 0x20 ADD KECCAK256 PUSH0 SHR PUSH2 0x1D7F SWAP2 SWAP1 PUSH2 0x32F3 JUMP JUMPDEST SWAP1 POP PUSH0 DUP3 PUSH1 0xFF AND SUB PUSH2 0x1D94 JUMPI PUSH1 0xF SWAP2 POP PUSH2 0x1DA4 JUMP JUMPDEST PUSH1 0x1 DUP3 PUSH2 0x1DA1 SWAP2 SWAP1 PUSH2 0x3407 JUMP JUMPDEST SWAP2 POP JUMPDEST PUSH0 DUP2 PUSH1 0xFF AND SUB PUSH2 0x1DB7 JUMPI PUSH1 0xF SWAP1 POP PUSH2 0x1DC7 JUMP JUMPDEST PUSH1 0x1 DUP2 PUSH2 0x1DC4 SWAP2 SWAP1 PUSH2 0x3407 JUMP JUMPDEST SWAP1 POP JUMPDEST DUP2 SWAP5 POP DUP1 SWAP4 POP POP POP POP JUMPDEST PUSH0 DUP2 PUSH1 0xFF AND DUP4 PUSH1 0xFF AND GT ISZERO PUSH2 0x1E0A JUMPI DUP5 PUSH0 ADD PUSH0 SWAP1 SLOAD SWAP1 PUSH2 0x100 EXP SWAP1 DIV PUSH20 0xFFFFFFFFFFFFFFFFFFFFFFFFFFFFFFFFFFFFFFFF AND SWAP1 POP PUSH2 0x1E30 JUMP JUMPDEST DUP4 PUSH0 ADD PUSH0 SWAP1 SLOAD SWAP1 PUSH2 0x100 EXP SWAP1 DIV PUSH20 0xFFFFFFFFFFFFFFFFFFFFFFFFFFFFFFFFFFFFFFFF AND SWAP1 POP JUMPDEST PUSH32 0xDF4A4E7597E09829B2DF06DA7CF6016A387CE9DAD489996539FB4ECA3B3415FC DUP2 DUP7 PUSH0 ADD PUSH0 SWAP1 SLOAD SWAP1 PUSH2 0x100 EXP SWAP1 DIV PUSH20 0xFFFFFFFFFFFFFFFFFFFFFFFFFFFFFFFFFFFFFFFF AND PUSH20 0xFFFFFFFFFFFFFFFFFFFFFFFFFFFFFFFFFFFFFFFF AND DUP4 PUSH20 0xFFFFFFFFFFFFFFFFFFFFFFFFFFFFFFFFFFFFFFFF AND EQ PUSH2 0x1EAD JUMPI DUP4 PUSH2 0x1EAF JUMP JUMPDEST DUP5 JUMPDEST DUP8 PUSH0 ADD PUSH0 SWAP1 SLOAD SWAP1 PUSH2 0x100 EXP SWAP1 DIV PUSH20 0xFFFFFFFFFFFFFFFFFFFFFFFFFFFFFFFFFFFFFFFF AND PUSH20 0xFFFFFFFFFFFFFFFFFFFFFFFFFFFFFFFFFFFFFFFF AND DUP5 PUSH20 0xFFFFFFFFFFFFFFFFFFFFFFFFFFFFFFFFFFFFFFFF AND EQ PUSH2 0x1F0A JUMPI DUP6 PUSH2 0x1F0C JUMP JUMPDEST DUP5 JUMPDEST PUSH1 0x40 MLOAD PUSH2 0x1F1B SWAP4 SWAP3 SWAP2 SWAP1 PUSH2 0x343B JUMP JUMPDEST PUSH1 0x40 MLOAD DUP1 SWAP2 SUB SWAP1 LOG1 PUSH2 0x1F2C DUP2 PUSH2 0x2283 JUMP JUMPDEST PUSH1 0x4 PUSH0 PUSH0 PUSH2 0x100 EXP DUP2 SLOAD DUP2 PUSH1 0xFF MUL NOT AND SWAP1 DUP4 PUSH1 0x4 DUP2 GT ISZERO PUSH2 0x1F50 JUMPI PUSH2 0x1F4F PUSH2 0x29B3 JUMP JUMPDEST JUMPDEST MUL OR SWAP1 SSTORE POP POP POP POP POP POP JUMP JUMPDEST PUSH1 0x1 PUSH0 PUSH0 PUSH2 0x100 EXP DUP2 SLOAD DUP2 PUSH1 0xFF MUL NOT AND SWAP1 DUP4 PUSH1 0x4 DUP2 GT ISZERO PUSH2 0x1F80 JUMPI PUSH2 0x1F7F PUSH2 0x29B3 JUMP JUMPDEST JUMPDEST MUL OR SWAP1 SSTORE POP PUSH2 0x1F8D PUSH2 0x2463 JUMP JUMPDEST PUSH1 0x2 PUSH0 PUSH0 PUSH2 0x100 EXP DUP2 SLOAD DUP2 PUSH1 0xFF MUL NOT AND SWAP1 DUP4 PUSH1 0x4 DUP2 GT ISZERO PUSH2 0x1FB1 JUMPI PUSH2 0x1FB0 PUSH2 0x29B3 JUMP JUMPDEST JUMPDEST MUL OR SWAP1 SSTORE POP PUSH0 PUSH1 0x6 DUP2 SWAP1 SSTORE POP PUSH0 PUSH1 0x5 DUP2 SWAP1 SSTORE POP PUSH0 PUSH1 0x7 PUSH0 PUSH2 0x100 EXP DUP2 SLOAD DUP2 PUSH1 0xFF MUL NOT AND SWAP1 DUP4 PUSH1 0xFF AND MUL OR SWAP1 SSTORE POP PUSH32 0xFC55CC067C35415ABED01111D4DA0583804CDA015F0D752A5BBB9CFDBCB9031C PUSH1 0x1 PUSH0 PUSH1 0x2 PUSH0 PUSH1 0x2 DUP2 LT PUSH2 0x2016 JUMPI PUSH2 0x2015 PUSH2 0x2D3E JUMP JUMPDEST JUMPDEST ADD PUSH0 SWAP1 SLOAD SWAP1 PUSH2 0x100 EXP SWAP1 DIV PUSH20 0xFFFFFFFFFFFFFFFFFFFFFFFFFFFFFFFFFFFFFFFF AND PUSH20 0xFFFFFFFFFFFFFFFFFFFFFFFFFFFFFFFFFFFFFFFF AND PUSH20 0xFFFFFFFFFFFFFFFFFFFFFFFFFFFFFFFFFFFFFFFF AND DUP2 MSTORE PUSH1 0x20 ADD SWAP1 DUP2 MSTORE PUSH1 0x20 ADD PUSH0 KECCAK256 PUSH1 0x2 ADD PUSH0 SWAP1 SLOAD SWAP1 PUSH2 0x100 EXP SWAP1 DIV PUSH1 0xFF AND PUSH1 0x1 PUSH0 PUSH1 0x2 PUSH1 0x1 PUSH1 0x2 DUP2 LT PUSH2 0x2098 JUMPI PUSH2 0x2097 PUSH2 0x2D3E JUMP JUMPDEST JUMPDEST ADD PUSH0 SWAP1 SLOAD SWAP1 PUSH2 0x100 EXP SWAP1 DIV PUSH20 0xFFFFFFFFFFFFFFFFFFFFFFFFFFFFFFFFFFFFFFFF AND PUSH20 0xFFFFFFFFFFFFFFFFFFFFFFFFFFFFFFFFFFFFFFFF AND PUSH20 0xFFFFFFFFFFFFFFFFFFFFFFFFFFFFFFFFFFFFFFFF AND DUP2 MSTORE PUSH1 0x20 ADD SWAP1 DUP2 MSTORE PUSH1 0x20 ADD PUSH0 KECCAK256 PUSH1 0x2 ADD PUSH0 SWAP1 SLOAD SWAP1 PUSH2 0x100 EXP SWAP1 DIV PUSH1 0xFF AND PUSH1 0x40 MLOAD PUSH2 0x2110 SWAP3 SWAP2 SWAP1 PUSH2 0x3470 JUMP JUMPDEST PUSH1 0x40 MLOAD DUP1 SWAP2 SUB SWAP1 LOG1 JUMP JUMPDEST PUSH0 PUSH1 0x1 PUSH0 PUSH1 0x2 PUSH0 PUSH1 0x2 DUP2 LT PUSH2 0x2132 JUMPI PUSH2 0x2131 PUSH2 0x2D3E JUMP JUMPDEST JUMPDEST ADD PUSH0 SWAP1 SLOAD SWAP1 PUSH2 0x100 EXP SWAP1 DIV PUSH20 0xFFFFFFFFFFFFFFFFFFFFFFFFFFFFFFFFFFFFFFFF AND PUSH20 0xFFFFFFFFFFFFFFFFFFFFFFFFFFFFFFFFFFFFFFFF AND PUSH20 0xFFFFFFFFFFFFFFFFFFFFFFFFFFFFFFFFFFFFFFFF AND DUP2 MSTORE PUSH1 0x20 ADD SWAP1 DUP2 MSTORE PUSH1 0x20 ADD PUSH0 KECCAK256 SWAP1 POP PUSH0 PUSH1 0x1 PUSH0 PUSH1 0x2 PUSH1 0x1 PUSH1 0x2 DUP2 LT PUSH2 0x21A7 JUMPI PUSH2 0x21A6 PUSH2 0x2D3E JUMP JUMPDEST JUMPDEST ADD PUSH0 SWAP1 SLOAD SWAP1 PUSH2 0x100 EXP SWAP1 DIV PUSH20 0xFFFFFFFFFFFFFFFFFFFFFFFFFFFFFFFFFFFFFFFF AND PUSH20 0xFFFFFFFFFFFFFFFFFFFFFFFFFFFFFFFFFFFFFFFF AND PUSH20 0xFFFFFFFFFFFFFFFFFFFFFFFFFFFFFFFFFFFFFFFF AND DUP2 MSTORE PUSH1 0x20 ADD SWAP1 DUP2 MSTORE PUSH1 0x20 ADD PUSH0 KECCAK256 SWAP1 POP PUSH0 DUP2 PUSH1 0x3 ADD SLOAD DUP4 PUSH1 0x3 ADD SLOAD PUSH1 0x5 SLOAD PUSH2 0x221B SWAP2 SWAP1 PUSH2 0x2BE1 JUMP JUMPDEST PUSH2 0x2225 SWAP2 SWAP1 PUSH2 0x2BE1 JUMP JUMPDEST SWAP1 POP DUP1 PUSH1 0x1 PUSH0 DUP7 PUSH20 0xFFFFFFFFFFFFFFFFFFFFFFFFFFFFFFFFFFFFFFFF AND PUSH20 0xFFFFFFFFFFFFFFFFFFFFFFFFFFFFFFFFFFFFFFFF AND DUP2 MSTORE PUSH1 0x20 ADD SWAP1 DUP2 MSTORE PUSH1 0x20 ADD PUSH0 KECCAK256 PUSH1 0x1 ADD PUSH0 DUP3 DUP3 SLOAD PUSH2 0x2276 SWAP2 SWAP1 PUSH2 0x2BE1 JUMP JUMPDEST SWAP3 POP POP DUP2 SWAP1 SSTORE POP POP POP POP POP JUMP JUMPDEST PUSH0 PUSH1 0x1 PUSH0 PUSH1 0x2 PUSH0 PUSH1 0x2 DUP2 LT PUSH2 0x229B JUMPI PUSH2 0x229A PUSH2 0x2D3E JUMP JUMPDEST JUMPDEST ADD PUSH0 SWAP1 SLOAD SWAP1 PUSH2 0x100 EXP SWAP1 DIV PUSH20 0xFFFFFFFFFFFFFFFFFFFFFFFFFFFFFFFFFFFFFFFF AND PUSH20 0xFFFFFFFFFFFFFFFFFFFFFFFFFFFFFFFFFFFFFFFF AND PUSH20 0xFFFFFFFFFFFFFFFFFFFFFFFFFFFFFFFFFFFFFFFF AND DUP2 MSTORE PUSH1 0x20 ADD SWAP1 DUP2 MSTORE PUSH1 0x20 ADD PUSH0 KECCAK256 SWAP1 POP PUSH0 PUSH1 0x1 PUSH0 PUSH1 0x2 PUSH1 0x1 PUSH1 0x2 DUP2 LT PUSH2 0x2310 JUMPI PUSH2 0x230F PUSH2 0x2D3E JUMP JUMPDEST JUMPDEST ADD PUSH0 SWAP1 SLOAD SWAP1 PUSH2 0x100 EXP SWAP1 DIV PUSH20 0xFFFFFFFFFFFFFFFFFFFFFFFFFFFFFFFFFFFFFFFF AND PUSH20 0xFFFFFFFFFFFFFFFFFFFFFFFFFFFFFFFFFFFFFFFF AND PUSH20 0xFFFFFFFFFFFFFFFFFFFFFFFFFFFFFFFFFFFFFFFF AND DUP2 MSTORE PUSH1 0x20 ADD SWAP1 DUP2 MSTORE PUSH1 0x20 ADD PUSH0 KECCAK256 SWAP1 POP PUSH0 DUP3 PUSH1 0x3 ADD SLOAD SWAP1 POP PUSH0 DUP3 PUSH1 0x3 ADD SLOAD SWAP1 POP PUSH0 DUP2 DUP4 LT PUSH2 0x238A JUMPI DUP2 PUSH2 0x238C JUMP JUMPDEST DUP3 JUMPDEST SWAP1 POP PUSH0 PUSH1 0x2 DUP3 PUSH2 0x239C SWAP2 SWAP1 PUSH2 0x2B43 JUMP JUMPDEST SWAP1 POP DUP1 PUSH1 0x1 PUSH0 DUP10 PUSH20 0xFFFFFFFFFFFFFFFFFFFFFFFFFFFFFFFFFFFFFFFF AND PUSH20 0xFFFFFFFFFFFFFFFFFFFFFFFFFFFFFFFFFFFFFFFF AND DUP2 MSTORE PUSH1 0x20 ADD SWAP1 DUP2 MSTORE PUSH1 0x20 ADD PUSH0 KECCAK256 PUSH1 0x1 ADD PUSH0 DUP3 DUP3 SLOAD PUSH2 0x23ED SWAP2 SWAP1 PUSH2 0x2BE1 JUMP JUMPDEST SWAP3 POP POP DUP2 SWAP1 SSTORE POP DUP2 DUP5 GT ISZERO PUSH2 0x2427 JUMPI PUSH0 DUP3 DUP6 PUSH2 0x2409 SWAP2 SWAP1 PUSH2 0x2CA3 JUMP JUMPDEST SWAP1 POP DUP1 DUP8 PUSH1 0x1 ADD PUSH0 DUP3 DUP3 SLOAD PUSH2 0x241E SWAP2 SWAP1 PUSH2 0x2BE1 JUMP JUMPDEST SWAP3 POP POP DUP2 SWAP1 SSTORE POP POP JUMPDEST DUP2 DUP4 GT ISZERO PUSH2 0x245A JUMPI PUSH0 DUP3 DUP5 PUSH2 0x243C SWAP2 SWAP1 PUSH2 0x2CA3 JUMP JUMPDEST SWAP1 POP DUP1 DUP7 PUSH1 0x1 ADD PUSH0 DUP3 DUP3 SLOAD PUSH2 0x2451 SWAP2 SWAP1 PUSH2 0x2BE1 JUMP JUMPDEST SWAP3 POP POP DUP2 SWAP1 SSTORE POP POP JUMPDEST POP POP POP POP POP POP POP JUMP JUMPDEST PUSH0 TIMESTAMP PREVRANDAO PUSH1 0x40 MLOAD PUSH1 0x20 ADD PUSH2 0x2477 SWAP3 SWAP2 SWAP1 PUSH2 0x3343 JUMP JUMPDEST PUSH1 0x40 MLOAD PUSH1 0x20 DUP2 DUP4 SUB SUB DUP2 MSTORE SWAP1 PUSH1 0x40 MSTORE DUP1 MLOAD SWAP1 PUSH1 0x20 ADD KECCAK256 SWAP1 POP PUSH0 PUSH1 0xE DUP3 PUSH1 0x2 PUSH0 PUSH1 0x2 DUP2 LT PUSH2 0x24A7 JUMPI PUSH2 0x24A6 PUSH2 0x2D3E JUMP JUMPDEST JUMPDEST ADD PUSH0 SWAP1 SLOAD SWAP1 PUSH2 0x100 EXP SWAP1 DIV PUSH20 0xFFFFFFFFFFFFFFFFFFFFFFFFFFFFFFFFFFFFFFFF AND PUSH1 0x40 MLOAD PUSH1 0x20 ADD PUSH2 0x24D9 SWAP3 SWAP2 SWAP1 PUSH2 0x33DC JUMP JUMPDEST PUSH1 0x40 MLOAD PUSH1 0x20 DUP2 DUP4 SUB SUB DUP2 MSTORE SWAP1 PUSH1 0x40 MSTORE DUP1 MLOAD SWAP1 PUSH1 0x20 ADD KECCAK256 PUSH0 SHR PUSH2 0x24FB SWAP2 SWAP1 PUSH2 0x32F3 JUMP JUMPDEST SWAP1 POP PUSH0 DUP2 PUSH1 0xFF AND SUB PUSH2 0x2599 JUMPI PUSH1 0xF PUSH1 0x1 PUSH0 PUSH1 0x2 PUSH0 PUSH1 0x2 DUP2 LT PUSH2 0x2520 JUMPI PUSH2 0x251F PUSH2 0x2D3E JUMP JUMPDEST JUMPDEST ADD PUSH0 SWAP1 SLOAD SWAP1 PUSH2 0x100 EXP SWAP1 DIV PUSH20 0xFFFFFFFFFFFFFFFFFFFFFFFFFFFFFFFFFFFFFFFF AND PUSH20 0xFFFFFFFFFFFFFFFFFFFFFFFFFFFFFFFFFFFFFFFF AND PUSH20 0xFFFFFFFFFFFFFFFFFFFFFFFFFFFFFFFFFFFFFFFF AND DUP2 MSTORE PUSH1 0x20 ADD SWAP1 DUP2 MSTORE PUSH1 0x20 ADD PUSH0 KECCAK256 PUSH1 0x2 ADD PUSH0 PUSH2 0x100 EXP DUP2 SLOAD DUP2 PUSH1 0xFF MUL NOT AND SWAP1 DUP4 PUSH1 0xFF AND MUL OR SWAP1 SSTORE POP PUSH2 0x2632 JUMP JUMPDEST PUSH1 0x1 DUP2 PUSH2 0x25A6 SWAP2 SWAP1 PUSH2 0x3407 JUMP JUMPDEST PUSH1 0x1 PUSH0 PUSH1 0x2 PUSH0 PUSH1 0x2 DUP2 LT PUSH2 0x25BD JUMPI PUSH2 0x25BC PUSH2 0x2D3E JUMP JUMPDEST JUMPDEST ADD PUSH0 SWAP1 SLOAD SWAP1 PUSH2 0x100 EXP SWAP1 DIV PUSH20 0xFFFFFFFFFFFFFFFFFFFFFFFFFFFFFFFFFFFFFFFF AND PUSH20 0xFFFFFFFFFFFFFFFFFFFFFFFFFFFFFFFFFFFFFFFF AND PUSH20 0xFFFFFFFFFFFFFFFFFFFFFFFFFFFFFFFFFFFFFFFF AND DUP2 MSTORE PUSH1 0x20 ADD SWAP1 DUP2 MSTORE PUSH1 0x20 ADD PUSH0 KECCAK256 PUSH1 0x2 ADD PUSH0 PUSH2 0x100 EXP DUP2 SLOAD DUP2 PUSH1 0xFF MUL NOT AND SWAP1 DUP4 PUSH1 0xFF AND MUL OR SWAP1 SSTORE POP JUMPDEST PUSH0 PUSH1 0xE DUP4 PUSH1 0x2 PUSH1 0x1 PUSH1 0x2 DUP2 LT PUSH2 0x264B JUMPI PUSH2 0x264A PUSH2 0x2D3E JUMP JUMPDEST JUMPDEST ADD PUSH0 SWAP1 SLOAD SWAP1 PUSH2 0x100 EXP SWAP1 DIV PUSH20 0xFFFFFFFFFFFFFFFFFFFFFFFFFFFFFFFFFFFFFFFF AND PUSH1 0x40 MLOAD PUSH1 0x20 ADD PUSH2 0x267D SWAP3 SWAP2 SWAP1 PUSH2 0x33DC JUMP JUMPDEST PUSH1 0x40 MLOAD PUSH1 0x20 DUP2 DUP4 SUB SUB DUP2 MSTORE SWAP1 PUSH1 0x40 MSTORE DUP1 MLOAD SWAP1 PUSH1 0x20 ADD KECCAK256 PUSH0 SHR PUSH2 0x269F SWAP2 SWAP1 PUSH2 0x32F3 JUMP JUMPDEST SWAP1 POP PUSH0 DUP2 PUSH1 0xFF AND SUB PUSH2 0x273E JUMPI PUSH1 0xF PUSH1 0x1 PUSH0 PUSH1 0x2 PUSH1 0x1 PUSH1 0x2 DUP2 LT PUSH2 0x26C5 JUMPI PUSH2 0x26C4 PUSH2 0x2D3E JUMP JUMPDEST JUMPDEST ADD PUSH0 SWAP1 SLOAD SWAP1 PUSH2 0x100 EXP SWAP1 DIV PUSH20 0xFFFFFFFFFFFFFFFFFFFFFFFFFFFFFFFFFFFFFFFF AND PUSH20 0xFFFFFFFFFFFFFFFFFFFFFFFFFFFFFFFFFFFFFFFF AND PUSH20 0xFFFFFFFFFFFFFFFFFFFFFFFFFFFFFFFFFFFFFFFF AND DUP2 MSTORE PUSH1 0x20 ADD SWAP1 DUP2 MSTORE PUSH1 0x20 ADD PUSH0 KECCAK256 PUSH1 0x2 ADD PUSH0 PUSH2 0x100 EXP DUP2 SLOAD DUP2 PUSH1 0xFF MUL NOT AND SWAP1 DUP4 PUSH1 0xFF AND MUL OR SWAP1 SSTORE POP PUSH2 0x27D8 JUMP JUMPDEST PUSH1 0x1 DUP2 PUSH2 0x274B SWAP2 SWAP1 PUSH2 0x3407 JUMP JUMPDEST PUSH1 0x1 PUSH0 PUSH1 0x2 PUSH1 0x1 PUSH1 0x2 DUP2 LT PUSH2 0x2763 JUMPI PUSH2 0x2762 PUSH2 0x2D3E JUMP JUMPDEST JUMPDEST ADD PUSH0 SWAP1 SLOAD SWAP1 PUSH2 0x100 EXP SWAP1 DIV PUSH20 0xFFFFFFFFFFFFFFFFFFFFFFFFFFFFFFFFFFFFFFFF AND PUSH20 0xFFFFFFFFFFFFFFFFFFFFFFFFFFFFFFFFFFFFFFFF AND PUSH20 0xFFFFFFFFFFFFFFFFFFFFFFFFFFFFFFFFFFFFFFFF AND DUP2 MSTORE PUSH1 0x20 ADD SWAP1 DUP2 MSTORE PUSH1 0x20 ADD PUSH0 KECCAK256 PUSH1 0x2 ADD PUSH0 PUSH2 0x100 EXP DUP2 SLOAD DUP2 PUSH1 0xFF MUL NOT AND SWAP1 DUP4 PUSH1 0xFF AND MUL OR SWAP1 SSTORE POP JUMPDEST POP POP POP JUMP JUMPDEST PUSH0 PUSH1 0xFF DUP3 AND SWAP1 POP SWAP2 SWAP1 POP JUMP JUMPDEST PUSH2 0x27F2 DUP2 PUSH2 0x27DD JUMP JUMPDEST DUP3 MSTORE POP POP JUMP JUMPDEST PUSH0 PUSH1 0x20 DUP3 ADD SWAP1 POP PUSH2 0x280B PUSH0 DUP4 ADD DUP5 PUSH2 0x27E9 JUMP JUMPDEST SWAP3 SWAP2 POP POP JUMP JUMPDEST PUSH0 DUP2 SWAP1 POP SWAP2 SWAP1 POP JUMP JUMPDEST PUSH2 0x2823 DUP2 PUSH2 0x2811 JUMP JUMPDEST DUP3 MSTORE POP POP JUMP JUMPDEST PUSH0 PUSH1 0x20 DUP3 ADD SWAP1 POP PUSH2 0x283C PUSH0 DUP4 ADD DUP5 PUSH2 0x281A JUMP JUMPDEST SWAP3 SWAP2 POP POP JUMP JUMPDEST PUSH0 PUSH0 REVERT JUMPDEST PUSH2 0x284F DUP2 PUSH2 0x2811 JUMP JUMPDEST DUP2 EQ PUSH2 0x2859 JUMPI PUSH0 PUSH0 REVERT JUMPDEST POP JUMP JUMPDEST PUSH0 DUP2 CALLDATALOAD SWAP1 POP PUSH2 0x286A DUP2 PUSH2 0x2846 JUMP JUMPDEST SWAP3 SWAP2 POP POP JUMP JUMPDEST PUSH0 PUSH1 0x20 DUP3 DUP5 SUB SLT ISZERO PUSH2 0x2885 JUMPI PUSH2 0x2884 PUSH2 0x2842 JUMP JUMPDEST JUMPDEST PUSH0 PUSH2 0x2892 DUP5 DUP3 DUP6 ADD PUSH2 0x285C JUMP JUMPDEST SWAP2 POP POP SWAP3 SWAP2 POP POP JUMP JUMPDEST PUSH0 PUSH20 0xFFFFFFFFFFFFFFFFFFFFFFFFFFFFFFFFFFFFFFFF DUP3 AND SWAP1 POP SWAP2 SWAP1 POP JUMP JUMPDEST PUSH0 PUSH2 0x28C4 DUP3 PUSH2 0x289B JUMP JUMPDEST SWAP1 POP SWAP2 SWAP1 POP JUMP JUMPDEST PUSH2 0x28D4 DUP2 PUSH2 0x28BA JUMP JUMPDEST DUP2 EQ PUSH2 0x28DE JUMPI PUSH0 PUSH0 REVERT JUMPDEST POP JUMP JUMPDEST PUSH0 DUP2 CALLDATALOAD SWAP1 POP PUSH2 0x28EF DUP2 PUSH2 0x28CB JUMP JUMPDEST SWAP3 SWAP2 POP POP JUMP JUMPDEST PUSH0 PUSH1 0x20 DUP3 DUP5 SUB SLT ISZERO PUSH2 0x290A JUMPI PUSH2 0x2909 PUSH2 0x2842 JUMP JUMPDEST JUMPDEST PUSH0 PUSH2 0x2917 DUP5 DUP3 DUP6 ADD PUSH2 0x28E1 JUMP JUMPDEST SWAP2 POP POP SWAP3 SWAP2 POP POP JUMP JUMPDEST PUSH0 DUP2 ISZERO ISZERO SWAP1 POP SWAP2 SWAP1 POP JUMP JUMPDEST PUSH2 0x2934 DUP2 PUSH2 0x2920 JUMP JUMPDEST DUP3 MSTORE POP POP JUMP JUMPDEST PUSH0 PUSH1 0xA0 DUP3 ADD SWAP1 POP PUSH2 0x294D PUSH0 DUP4 ADD DUP9 PUSH2 0x281A JUMP JUMPDEST PUSH2 0x295A PUSH1 0x20 DUP4 ADD DUP8 PUSH2 0x27E9 JUMP JUMPDEST PUSH2 0x2967 PUSH1 0x40 DUP4 ADD DUP7 PUSH2 0x281A JUMP JUMPDEST PUSH2 0x2974 PUSH1 0x60 DUP4 ADD DUP6 PUSH2 0x292B JUMP JUMPDEST PUSH2 0x2981 PUSH1 0x80 DUP4 ADD DUP5 PUSH2 0x292B JUMP JUMPDEST SWAP7 SWAP6 POP POP POP POP POP POP JUMP JUMPDEST PUSH2 0x2994 DUP2 PUSH2 0x28BA JUMP JUMPDEST DUP3 MSTORE POP POP JUMP JUMPDEST PUSH0 PUSH1 0x20 DUP3 ADD SWAP1 POP PUSH2 0x29AD PUSH0 DUP4 ADD DUP5 PUSH2 0x298B JUMP JUMPDEST SWAP3 SWAP2 POP POP JUMP JUMPDEST PUSH32 0x4E487B7100000000000000000000000000000000000000000000000000000000 PUSH0 MSTORE PUSH1 0x21 PUSH1 0x4 MSTORE PUSH1 0x24 PUSH0 REVERT JUMPDEST PUSH1 0x5 DUP2 LT PUSH2 0x29F1 JUMPI PUSH2 0x29F0 PUSH2 0x29B3 JUMP JUMPDEST JUMPDEST POP JUMP JUMPDEST PUSH0 DUP2 SWAP1 POP PUSH2 0x2A01 DUP3 PUSH2 0x29E0 JUMP JUMPDEST SWAP2 SWAP1 POP JUMP JUMPDEST PUSH0 PUSH2 0x2A10 DUP3 PUSH2 0x29F4 JUMP JUMPDEST SWAP1 POP SWAP2 SWAP1 POP JUMP JUMPDEST PUSH2 0x2A20 DUP2 PUSH2 0x2A06 JUMP JUMPDEST DUP3 MSTORE POP POP JUMP JUMPDEST PUSH0 PUSH1 0x20 DUP3 ADD SWAP1 POP PUSH2 0x2A39 PUSH0 DUP4 ADD DUP5 PUSH2 0x2A17 JUMP JUMPDEST SWAP3 SWAP2 POP POP JUMP JUMPDEST PUSH0 PUSH1 0xC0 DUP3 ADD SWAP1 POP PUSH2 0x2A52 PUSH0 DUP4 ADD DUP10 PUSH2 0x298B JUMP JUMPDEST PUSH2 0x2A5F PUSH1 0x20 DUP4 ADD DUP9 PUSH2 0x281A JUMP JUMPDEST PUSH2 0x2A6C PUSH1 0x40 DUP4 ADD DUP8 PUSH2 0x27E9 JUMP JUMPDEST PUSH2 0x2A79 PUSH1 0x60 DUP4 ADD DUP7 PUSH2 0x281A JUMP JUMPDEST PUSH2 0x2A86 PUSH1 0x80 DUP4 ADD DUP6 PUSH2 0x292B JUMP JUMPDEST PUSH2 0x2A93 PUSH1 0xA0 DUP4 ADD DUP5 PUSH2 0x292B JUMP JUMPDEST SWAP8 SWAP7 POP POP POP POP POP POP POP JUMP JUMPDEST PUSH0 DUP3 DUP3 MSTORE PUSH1 0x20 DUP3 ADD SWAP1 POP SWAP3 SWAP2 POP POP JUMP JUMPDEST PUSH32 0x4174206C6561737420302E303031204554482072657175697265642E00000000 PUSH0 DUP3 ADD MSTORE POP JUMP JUMPDEST PUSH0 PUSH2 0x2AE2 PUSH1 0x1C DUP4 PUSH2 0x2A9E JUMP JUMPDEST SWAP2 POP PUSH2 0x2AED DUP3 PUSH2 0x2AAE JUMP JUMPDEST PUSH1 0x20 DUP3 ADD SWAP1 POP SWAP2 SWAP1 POP JUMP JUMPDEST PUSH0 PUSH1 0x20 DUP3 ADD SWAP1 POP DUP2 DUP2 SUB PUSH0 DUP4 ADD MSTORE PUSH2 0x2B0F DUP2 PUSH2 0x2AD6 JUMP JUMPDEST SWAP1 POP SWAP2 SWAP1 POP JUMP JUMPDEST PUSH32 0x4E487B7100000000000000000000000000000000000000000000000000000000 PUSH0 MSTORE PUSH1 0x11 PUSH1 0x4 MSTORE PUSH1 0x24 PUSH0 REVERT JUMPDEST PUSH0 PUSH2 0x2B4D DUP3 PUSH2 0x2811 JUMP JUMPDEST SWAP2 POP PUSH2 0x2B58 DUP4 PUSH2 0x2811 JUMP JUMPDEST SWAP3 POP DUP3 DUP3 MUL PUSH2 0x2B66 DUP2 PUSH2 0x2811 JUMP JUMPDEST SWAP2 POP DUP3 DUP3 DIV DUP5 EQ DUP4 ISZERO OR PUSH2 0x2B7D JUMPI PUSH2 0x2B7C PUSH2 0x2B16 JUMP JUMPDEST JUMPDEST POP SWAP3 SWAP2 POP POP JUMP JUMPDEST PUSH32 0x4E487B7100000000000000000000000000000000000000000000000000000000 PUSH0 MSTORE PUSH1 0x12 PUSH1 0x4 MSTORE PUSH1 0x24 PUSH0 REVERT JUMPDEST PUSH0 PUSH2 0x2BBB DUP3 PUSH2 0x2811 JUMP JUMPDEST SWAP2 POP PUSH2 0x2BC6 DUP4 PUSH2 0x2811 JUMP JUMPDEST SWAP3 POP DUP3 PUSH2 0x2BD6 JUMPI PUSH2 0x2BD5 PUSH2 0x2B84 JUMP JUMPDEST JUMPDEST DUP3 DUP3 DIV SWAP1 POP SWAP3 SWAP2 POP POP JUMP JUMPDEST PUSH0 PUSH2 0x2BEB DUP3 PUSH2 0x2811 JUMP JUMPDEST SWAP2 POP PUSH2 0x2BF6 DUP4 PUSH2 0x2811 JUMP JUMPDEST SWAP3 POP DUP3 DUP3 ADD SWAP1 POP DUP1 DUP3 GT ISZERO PUSH2 0x2C0E JUMPI PUSH2 0x2C0D PUSH2 0x2B16 JUMP JUMPDEST JUMPDEST SWAP3 SWAP2 POP POP JUMP JUMPDEST PUSH0 PUSH1 0x40 DUP3 ADD SWAP1 POP PUSH2 0x2C27 PUSH0 DUP4 ADD DUP6 PUSH2 0x281A JUMP JUMPDEST PUSH2 0x2C34 PUSH1 0x20 DUP4 ADD DUP5 PUSH2 0x281A JUMP JUMPDEST SWAP4 SWAP3 POP POP POP JUMP JUMPDEST PUSH32 0x496E73756666696369656E7420636869707320666F722065786368616E67652E PUSH0 DUP3 ADD MSTORE POP JUMP JUMPDEST PUSH0 PUSH2 0x2C6F PUSH1 0x20 DUP4 PUSH2 0x2A9E JUMP JUMPDEST SWAP2 POP PUSH2 0x2C7A DUP3 PUSH2 0x2C3B JUMP JUMPDEST PUSH1 0x20 DUP3 ADD SWAP1 POP SWAP2 SWAP1 POP JUMP JUMPDEST PUSH0 PUSH1 0x20 DUP3 ADD SWAP1 POP DUP2 DUP2 SUB PUSH0 DUP4 ADD MSTORE PUSH2 0x2C9C DUP2 PUSH2 0x2C63 JUMP JUMPDEST SWAP1 POP SWAP2 SWAP1 POP JUMP JUMPDEST PUSH0 PUSH2 0x2CAD DUP3 PUSH2 0x2811 JUMP JUMPDEST SWAP2 POP PUSH2 0x2CB8 DUP4 PUSH2 0x2811 JUMP JUMPDEST SWAP3 POP DUP3 DUP3 SUB SWAP1 POP DUP2 DUP2 GT ISZERO PUSH2 0x2CD0 JUMPI PUSH2 0x2CCF PUSH2 0x2B16 JUMP JUMPDEST JUMPDEST SWAP3 SWAP2 POP POP JUMP JUMPDEST PUSH32 0x4E6F7420696E2062657474696E672070686173652E0000000000000000000000 PUSH0 DUP3 ADD MSTORE POP JUMP JUMPDEST PUSH0 PUSH2 0x2D0A PUSH1 0x15 DUP4 PUSH2 0x2A9E JUMP JUMPDEST SWAP2 POP PUSH2 0x2D15 DUP3 PUSH2 0x2CD6 JUMP JUMPDEST PUSH1 0x20 DUP3 ADD SWAP1 POP SWAP2 SWAP1 POP JUMP JUMPDEST PUSH0 PUSH1 0x20 DUP3 ADD SWAP1 POP DUP2 DUP2 SUB PUSH0 DUP4 ADD MSTORE PUSH2 0x2D37 DUP2 PUSH2 0x2CFE JUMP JUMPDEST SWAP1 POP SWAP2 SWAP1 POP JUMP JUMPDEST PUSH32 0x4E487B7100000000000000000000000000000000000000000000000000000000 PUSH0 MSTORE PUSH1 0x32 PUSH1 0x4 MSTORE PUSH1 0x24 PUSH0 REVERT JUMPDEST PUSH32 0x4E6F7420796F7572207475726E2E000000000000000000000000000000000000 PUSH0 DUP3 ADD MSTORE POP JUMP JUMPDEST PUSH0 PUSH2 0x2D9F PUSH1 0xE DUP4 PUSH2 0x2A9E JUMP JUMPDEST SWAP2 POP PUSH2 0x2DAA DUP3 PUSH2 0x2D6B JUMP JUMPDEST PUSH1 0x20 DUP3 ADD SWAP1 POP SWAP2 SWAP1 POP JUMP JUMPDEST PUSH0 PUSH1 0x20 DUP3 ADD SWAP1 POP DUP2 DUP2 SUB PUSH0 DUP4 ADD MSTORE PUSH2 0x2DCC DUP2 PUSH2 0x2D93 JUMP JUMPDEST SWAP1 POP SWAP2 SWAP1 POP JUMP JUMPDEST PUSH32 0x596F75206861766520616C726561647920666F6C6465642E0000000000000000 PUSH0 DUP3 ADD MSTORE POP JUMP JUMPDEST PUSH0 PUSH2 0x2E07 PUSH1 0x18 DUP4 PUSH2 0x2A9E JUMP JUMPDEST SWAP2 POP PUSH2 0x2E12 DUP3 PUSH2 0x2DD3 JUMP JUMPDEST PUSH1 0x20 DUP3 ADD SWAP1 POP SWAP2 SWAP1 POP JUMP JUMPDEST PUSH0 PUSH1 0x20 DUP3 ADD SWAP1 POP DUP2 DUP2 SUB PUSH0 DUP4 ADD MSTORE PUSH2 0x2E34 DUP2 PUSH2 0x2DFB JUMP JUMPDEST SWAP1 POP SWAP2 SWAP1 POP JUMP JUMPDEST PUSH32 0x46697273742062657420616C726561647920706C616365642E00000000000000 PUSH0 DUP3 ADD MSTORE POP JUMP JUMPDEST PUSH0 PUSH2 0x2E6F PUSH1 0x19 DUP4 PUSH2 0x2A9E JUMP JUMPDEST SWAP2 POP PUSH2 0x2E7A DUP3 PUSH2 0x2E3B JUMP JUMPDEST PUSH1 0x20 DUP3 ADD SWAP1 POP SWAP2 SWAP1 POP JUMP JUMPDEST PUSH0 PUSH1 0x20 DUP3 ADD SWAP1 POP DUP2 DUP2 SUB PUSH0 DUP4 ADD MSTORE PUSH2 0x2E9C DUP2 PUSH2 0x2E63 JUMP JUMPDEST SWAP1 POP SWAP2 SWAP1 POP JUMP JUMPDEST PUSH32 0x496E73756666696369656E74206368697073206F7220696E76616C696420616D PUSH0 DUP3 ADD MSTORE PUSH32 0x6F756E742E000000000000000000000000000000000000000000000000000000 PUSH1 0x20 DUP3 ADD MSTORE POP JUMP JUMPDEST PUSH0 PUSH2 0x2EFD PUSH1 0x25 DUP4 PUSH2 0x2A9E JUMP JUMPDEST SWAP2 POP PUSH2 0x2F08 DUP3 PUSH2 0x2EA3 JUMP JUMPDEST PUSH1 0x40 DUP3 ADD SWAP1 POP SWAP2 SWAP1 POP JUMP JUMPDEST PUSH0 PUSH1 0x20 DUP3 ADD SWAP1 POP DUP2 DUP2 SUB PUSH0 DUP4 ADD MSTORE PUSH2 0x2F2A DUP2 PUSH2 0x2EF1 JUMP JUMPDEST SWAP1 POP SWAP2 SWAP1 POP JUMP JUMPDEST PUSH0 PUSH2 0x2F3B DUP3 PUSH2 0x27DD JUMP JUMPDEST SWAP2 POP PUSH2 0x2F46 DUP4 PUSH2 0x27DD JUMP JUMPDEST SWAP3 POP DUP3 DUP3 SUB SWAP1 POP PUSH1 0xFF DUP2 GT ISZERO PUSH2 0x2F5F JUMPI PUSH2 0x2F5E PUSH2 0x2B16 JUMP JUMPDEST JUMPDEST SWAP3 SWAP2 POP POP JUMP JUMPDEST PUSH32 0x4E6F206163746976652062657420746F2063616C6C2E00000000000000000000 PUSH0 DUP3 ADD MSTORE POP JUMP JUMPDEST PUSH0 PUSH2 0x2F99 PUSH1 0x16 DUP4 PUSH2 0x2A9E JUMP JUMPDEST SWAP2 POP PUSH2 0x2FA4 DUP3 PUSH2 0x2F65 JUMP JUMPDEST PUSH1 0x20 DUP3 ADD SWAP1 POP SWAP2 SWAP1 POP JUMP JUMPDEST PUSH0 PUSH1 0x20 DUP3 ADD SWAP1 POP DUP2 DUP2 SUB PUSH0 DUP4 ADD MSTORE PUSH2 0x2FC6 DUP2 PUSH2 0x2F8D JUMP JUMPDEST SWAP1 POP SWAP2 SWAP1 POP JUMP JUMPDEST PUSH32 0x5261697365206D757374206578636565642063757272656E74206265742E0000 PUSH0 DUP3 ADD MSTORE POP JUMP JUMPDEST PUSH0 PUSH2 0x3001 PUSH1 0x1E DUP4 PUSH2 0x2A9E JUMP JUMPDEST SWAP2 POP PUSH2 0x300C DUP3 PUSH2 0x2FCD JUMP JUMPDEST PUSH1 0x20 DUP3 ADD SWAP1 POP SWAP2 SWAP1 POP JUMP JUMPDEST PUSH0 PUSH1 0x20 DUP3 ADD SWAP1 POP DUP2 DUP2 SUB PUSH0 DUP4 ADD MSTORE PUSH2 0x302E DUP2 PUSH2 0x2FF5 JUMP JUMPDEST SWAP1 POP SWAP2 SWAP1 POP JUMP JUMPDEST PUSH32 0x496E73756666696369656E7420636869707320666F722072616973652E000000 PUSH0 DUP3 ADD MSTORE POP JUMP JUMPDEST PUSH0 PUSH2 0x3069 PUSH1 0x1D DUP4 PUSH2 0x2A9E JUMP JUMPDEST SWAP2 POP PUSH2 0x3074 DUP3 PUSH2 0x3035 JUMP JUMPDEST PUSH1 0x20 DUP3 ADD SWAP1 POP SWAP2 SWAP1 POP JUMP JUMPDEST PUSH0 PUSH1 0x20 DUP3 ADD SWAP1 POP DUP2 DUP2 SUB PUSH0 DUP4 ADD MSTORE PUSH2 0x3096 DUP2 PUSH2 0x305D JUMP JUMPDEST SWAP1 POP SWAP2 SWAP1 POP JUMP JUMPDEST PUSH32 0x47616D65206D7573742062652066696E697368656420746F2072657365742E00 PUSH0 DUP3 ADD MSTORE POP JUMP JUMPDEST PUSH0 PUSH2 0x30D1 PUSH1 0x1F DUP4 PUSH2 0x2A9E JUMP JUMPDEST SWAP2 POP PUSH2 0x30DC DUP3 PUSH2 0x309D JUMP JUMPDEST PUSH1 0x20 DUP3 ADD SWAP1 POP SWAP2 SWAP1 POP JUMP JUMPDEST PUSH0 PUSH1 0x20 DUP3 ADD SWAP1 POP DUP2 DUP2 SUB PUSH0 DUP4 ADD MSTORE PUSH2 0x30FE DUP2 PUSH2 0x30C5 JUMP JUMPDEST SWAP1 POP SWAP2 SWAP1 POP JUMP JUMPDEST PUSH32 0x4E6F7420696E2077616974696E672073746174652E0000000000000000000000 PUSH0 DUP3 ADD MSTORE POP JUMP JUMPDEST PUSH0 PUSH2 0x3139 PUSH1 0x15 DUP4 PUSH2 0x2A9E JUMP JUMPDEST SWAP2 POP PUSH2 0x3144 DUP3 PUSH2 0x3105 JUMP JUMPDEST PUSH1 0x20 DUP3 ADD SWAP1 POP SWAP2 SWAP1 POP JUMP JUMPDEST PUSH0 PUSH1 0x20 DUP3 ADD SWAP1 POP DUP2 DUP2 SUB PUSH0 DUP4 ADD MSTORE PUSH2 0x3166 DUP2 PUSH2 0x312D JUMP JUMPDEST SWAP1 POP SWAP2 SWAP1 POP JUMP JUMPDEST PUSH32 0x416C72656164792074776F20706C6179657273206A6F696E65642E0000000000 PUSH0 DUP3 ADD MSTORE POP JUMP JUMPDEST PUSH0 PUSH2 0x31A1 PUSH1 0x1B DUP4 PUSH2 0x2A9E JUMP JUMPDEST SWAP2 POP PUSH2 0x31AC DUP3 PUSH2 0x316D JUMP JUMPDEST PUSH1 0x20 DUP3 ADD SWAP1 POP SWAP2 SWAP1 POP JUMP JUMPDEST PUSH0 PUSH1 0x20 DUP3 ADD SWAP1 POP DUP2 DUP2 SUB PUSH0 DUP4 ADD MSTORE PUSH2 0x31CE DUP2 PUSH2 0x3195 JUMP JUMPDEST SWAP1 POP SWAP2 SWAP1 POP JUMP JUMPDEST PUSH32 0x4D7573742073656E642065786163746C7920302E3030312045544820746F206A PUSH0 DUP3 ADD MSTORE PUSH32 0x6F696E2E00000000000000000000000000000000000000000000000000000000 PUSH1 0x20 DUP3 ADD MSTORE POP JUMP JUMPDEST PUSH0 PUSH2 0x322F PUSH1 0x24 DUP4 PUSH2 0x2A9E JUMP JUMPDEST SWAP2 POP PUSH2 0x323A DUP3 PUSH2 0x31D5 JUMP JUMPDEST PUSH1 0x40 DUP3 ADD SWAP1 POP SWAP2 SWAP1 POP JUMP JUMPDEST PUSH0 PUSH1 0x20 DUP3 ADD SWAP1 POP DUP2 DUP2 SUB PUSH0 DUP4 ADD MSTORE PUSH2 0x325C DUP2 PUSH2 0x3223 JUMP JUMPDEST SWAP1 POP SWAP2 SWAP1 POP JUMP JUMPDEST PUSH32 0x506C6179657220616C7265616479206A6F696E65642E00000000000000000000 PUSH0 DUP3 ADD MSTORE POP JUMP JUMPDEST PUSH0 PUSH2 0x3297 PUSH1 0x16 DUP4 PUSH2 0x2A9E JUMP JUMPDEST SWAP2 POP PUSH2 0x32A2 DUP3 PUSH2 0x3263 JUMP JUMPDEST PUSH1 0x20 DUP3 ADD SWAP1 POP SWAP2 SWAP1 POP JUMP JUMPDEST PUSH0 PUSH1 0x20 DUP3 ADD SWAP1 POP DUP2 DUP2 SUB PUSH0 DUP4 ADD MSTORE PUSH2 0x32C4 DUP2 PUSH2 0x328B JUMP JUMPDEST SWAP1 POP SWAP2 SWAP1 POP JUMP JUMPDEST PUSH0 PUSH2 0x32D5 DUP3 PUSH2 0x27DD JUMP JUMPDEST SWAP2 POP PUSH1 0xFF DUP3 SUB PUSH2 0x32E8 JUMPI PUSH2 0x32E7 PUSH2 0x2B16 JUMP JUMPDEST JUMPDEST PUSH1 0x1 DUP3 ADD SWAP1 POP SWAP2 SWAP1 POP JUMP JUMPDEST PUSH0 PUSH2 0x32FD DUP3 PUSH2 0x2811 JUMP JUMPDEST SWAP2 POP PUSH2 0x3308 DUP4 PUSH2 0x2811 JUMP JUMPDEST SWAP3 POP DUP3 PUSH2 0x3318 JUMPI PUSH2 0x3317 PUSH2 0x2B84 JUMP JUMPDEST JUMPDEST DUP3 DUP3 MOD SWAP1 POP SWAP3 SWAP2 POP POP JUMP JUMPDEST PUSH0 DUP2 SWAP1 POP SWAP2 SWAP1 POP JUMP JUMPDEST PUSH2 0x333D PUSH2 0x3338 DUP3 PUSH2 0x2811 JUMP JUMPDEST PUSH2 0x3323 JUMP JUMPDEST DUP3 MSTORE POP POP JUMP JUMPDEST PUSH0 PUSH2 0x334E DUP3 DUP6 PUSH2 0x332C JUMP JUMPDEST PUSH1 0x20 DUP3 ADD SWAP2 POP PUSH2 0x335E DUP3 DUP5 PUSH2 0x332C JUMP JUMPDEST PUSH1 0x20 DUP3 ADD SWAP2 POP DUP2 SWAP1 POP SWAP4 SWAP3 POP POP POP JUMP JUMPDEST PUSH0 DUP2 SWAP1 POP SWAP2 SWAP1 POP JUMP JUMPDEST PUSH0 DUP2 SWAP1 POP SWAP2 SWAP1 POP JUMP JUMPDEST PUSH2 0x3391 PUSH2 0x338C DUP3 PUSH2 0x336E JUMP JUMPDEST PUSH2 0x3377 JUMP JUMPDEST DUP3 MSTORE POP POP JUMP JUMPDEST PUSH0 DUP2 PUSH1 0x60 SHL SWAP1 POP SWAP2 SWAP1 POP JUMP JUMPDEST PUSH0 PUSH2 0x33AD DUP3 PUSH2 0x3397 JUMP JUMPDEST SWAP1 POP SWAP2 SWAP1 POP JUMP JUMPDEST PUSH0 PUSH2 0x33BE DUP3 PUSH2 0x33A3 JUMP JUMPDEST SWAP1 POP SWAP2 SWAP1 POP JUMP JUMPDEST PUSH2 0x33D6 PUSH2 0x33D1 DUP3 PUSH2 0x28BA JUMP JUMPDEST PUSH2 0x33B4 JUMP JUMPDEST DUP3 MSTORE POP POP JUMP JUMPDEST PUSH0 PUSH2 0x33E7 DUP3 DUP6 PUSH2 0x3380 JUMP JUMPDEST PUSH1 0x20 DUP3 ADD SWAP2 POP PUSH2 0x33F7 DUP3 DUP5 PUSH2 0x33C5 JUMP JUMPDEST PUSH1 0x14 DUP3 ADD SWAP2 POP DUP2 SWAP1 POP SWAP4 SWAP3 POP POP POP JUMP JUMPDEST PUSH0 PUSH2 0x3411 DUP3 PUSH2 0x27DD JUMP JUMPDEST SWAP2 POP PUSH2 0x341C DUP4 PUSH2 0x27DD JUMP JUMPDEST SWAP3 POP DUP3 DUP3 ADD SWAP1 POP PUSH1 0xFF DUP2 GT ISZERO PUSH2 0x3435 JUMPI PUSH2 0x3434 PUSH2 0x2B16 JUMP JUMPDEST JUMPDEST SWAP3 SWAP2 POP POP JUMP JUMPDEST PUSH0 PUSH1 0x60 DUP3 ADD SWAP1 POP PUSH2 0x344E PUSH0 DUP4 ADD DUP7 PUSH2 0x298B JUMP JUMPDEST PUSH2 0x345B PUSH1 0x20 DUP4 ADD DUP6 PUSH2 0x27E9 JUMP JUMPDEST PUSH2 0x3468 PUSH1 0x40 DUP4 ADD DUP5 PUSH2 0x27E9 JUMP JUMPDEST SWAP5 SWAP4 POP POP POP POP JUMP JUMPDEST PUSH0 PUSH1 0x40 DUP3 ADD SWAP1 POP PUSH2 0x3483 PUSH0 DUP4 ADD DUP6 PUSH2 0x27E9 JUMP JUMPDEST PUSH2 0x3490 PUSH1 0x20 DUP4 ADD DUP5 PUSH2 0x27E9 JUMP JUMPDEST SWAP4 SWAP3 POP POP POP JUMP INVALID LOG2 PUSH5 0x6970667358 0x22 SLT KECCAK256 MSTORE8 0xC8 0x4B DATALOADN 0x5E8D 0xD7 RETF SWAP11 DUP14 LOG2 0xCB 0xAE SWAP14 SELFBALANCE REVERT SWAP11 DUP2 RETF PUSH5 0x7E0F267D3C MCOPY CALL CALLER CALLDATACOPY DUP9 EXP 0x27 PUSH5 0x736F6C6343 STOP ADDMOD 0x1E STOP CALLER "
				},
				"gasEstimates": {
					"creation": {
						"codeDepositCost": "2703400",
						"executionCost": "27232",
						"totalCost": "2730632"
					},
					"external": {
						"bet(uint256)": "infinite",
						"callOrAllIn()": "infinite",
						"currentBet()": "2469",
						"currentPlayer()": "2512",
						"exchange(uint256)": "infinite",
						"fold()": "infinite",
						"getChip()": "infinite",
						"getPlayerInfo(address)": "infinite",
						"joinGame()": "infinite",
						"playerAddrs(uint256)": "2840",
						"players(address)": "infinite",
						"pot()": "2493",
						"raiseBet(uint256)": "infinite",
						"resetGame()": "infinite",
						"state()": "2642"
					},
					"internal": {
						"awardPot(address)": "infinite",
						"awardSidePot(address)": "infinite",
						"dealCards()": "infinite",
						"showdown()": "infinite",
						"startGame()": "infinite"
					}
				},
				"methodIdentifiers": {
					"bet(uint256)": "7365870b",
					"callOrAllIn()": "7f1db215",
					"currentBet()": "d504cb65",
					"currentPlayer()": "4404a438",
					"exchange(uint256)": "53556559",
					"fold()": "e684f46a",
					"getChip()": "38fcfa9e",
					"getPlayerInfo(address)": "59328401",
					"joinGame()": "d4f77b1c",
					"playerAddrs(uint256)": "8763b551",
					"players(address)": "e2eb41ff",
					"pot()": "4ba2363a",
					"raiseBet(uint256)": "85864a70",
					"resetGame()": "bb472219",
					"state()": "c19d93fb"
				}
			},
			"storageLayout": {
				"storage": [
					{
						"astId": 11,
						"contract": "Final_Project/IndianPoker_2.sol:IndianPoker_2",
						"label": "state",
						"offset": 0,
						"slot": "0",
						"type": "t_enum(State)8"
					},
					{
						"astId": 29,
						"contract": "Final_Project/IndianPoker_2.sol:IndianPoker_2",
						"label": "players",
						"offset": 0,
						"slot": "1",
						"type": "t_mapping(t_address,t_struct(Player)24_storage)"
					},
					{
						"astId": 33,
						"contract": "Final_Project/IndianPoker_2.sol:IndianPoker_2",
						"label": "playerAddrs",
						"offset": 0,
						"slot": "2",
						"type": "t_array(t_address)2_storage"
					},
					{
						"astId": 35,
						"contract": "Final_Project/IndianPoker_2.sol:IndianPoker_2",
						"label": "playerCount",
						"offset": 0,
						"slot": "4",
						"type": "t_uint8"
					},
					{
						"astId": 37,
						"contract": "Final_Project/IndianPoker_2.sol:IndianPoker_2",
						"label": "pot",
						"offset": 0,
						"slot": "5",
						"type": "t_uint256"
					},
					{
						"astId": 39,
						"contract": "Final_Project/IndianPoker_2.sol:IndianPoker_2",
						"label": "currentBet",
						"offset": 0,
						"slot": "6",
						"type": "t_uint256"
					},
					{
						"astId": 41,
						"contract": "Final_Project/IndianPoker_2.sol:IndianPoker_2",
						"label": "currentPlayer",
						"offset": 0,
						"slot": "7",
						"type": "t_uint8"
					}
				],
				"types": {
					"t_address": {
						"encoding": "inplace",
						"label": "address",
						"numberOfBytes": "20"
					},
					"t_array(t_address)2_storage": {
						"base": "t_address",
						"encoding": "inplace",
						"label": "address[2]",
						"numberOfBytes": "64"
					},
					"t_bool": {
						"encoding": "inplace",
						"label": "bool",
						"numberOfBytes": "1"
					},
					"t_enum(State)8": {
						"encoding": "inplace",
						"label": "enum IndianPoker_2.State",
						"numberOfBytes": "1"
					},
					"t_mapping(t_address,t_struct(Player)24_storage)": {
						"encoding": "mapping",
						"key": "t_address",
						"label": "mapping(address => struct IndianPoker_2.Player)",
						"numberOfBytes": "32",
						"value": "t_struct(Player)24_storage"
					},
					"t_struct(Player)24_storage": {
						"encoding": "inplace",
						"label": "struct IndianPoker_2.Player",
						"members": [
							{
								"astId": 13,
								"contract": "Final_Project/IndianPoker_2.sol:IndianPoker_2",
								"label": "addr",
								"offset": 0,
								"slot": "0",
								"type": "t_address"
							},
							{
								"astId": 15,
								"contract": "Final_Project/IndianPoker_2.sol:IndianPoker_2",
								"label": "chips",
								"offset": 0,
								"slot": "1",
								"type": "t_uint256"
							},
							{
								"astId": 17,
								"contract": "Final_Project/IndianPoker_2.sol:IndianPoker_2",
								"label": "card",
								"offset": 0,
								"slot": "2",
								"type": "t_uint8"
							},
							{
								"astId": 19,
								"contract": "Final_Project/IndianPoker_2.sol:IndianPoker_2",
								"label": "contributed",
								"offset": 0,
								"slot": "3",
								"type": "t_uint256"
							},
							{
								"astId": 21,
								"contract": "Final_Project/IndianPoker_2.sol:IndianPoker_2",
								"label": "folded",
								"offset": 0,
								"slot": "4",
								"type": "t_bool"
							},
							{
								"astId": 23,
								"contract": "Final_Project/IndianPoker_2.sol:IndianPoker_2",
								"label": "isAllIn",
								"offset": 1,
								"slot": "4",
								"type": "t_bool"
							}
						],
						"numberOfBytes": "160"
					},
					"t_uint256": {
						"encoding": "inplace",
						"label": "uint256",
						"numberOfBytes": "32"
					},
					"t_uint8": {
						"encoding": "inplace",
						"label": "uint8",
						"numberOfBytes": "1"
					}
				}
			},
			"userdoc": {
				"kind": "user",
				"methods": {
					"bet(uint256)": {
						"notice": "Initial betting on the first turn: player may bet any positive chip amount."
					},
					"callOrAllIn()": {
						"notice": "Call or go all-in:   - If player’s chips <= needed to call, they go all-in.   - Otherwise, match the current bet."
					},
					"exchange(uint256)": {
						"notice": "Exchange chips back to ETH (0.00005 ETH per chip)"
					},
					"fold()": {
						"notice": "Fold: player gives up their contribution. If they hold an Ace (card==14), apply penalty.   - Ace penalty: pay half of remaining chips (round up if odd) and add to pot."
					},
					"getChip()": {
						"notice": "Buy chips with ETH (20 chips per 0.001 ETH)"
					},
					"getPlayerInfo(address)": {
						"notice": "Get a player’s info (for debugging)"
					},
					"joinGame()": {
						"notice": "Join the game by sending exactly 0.001 ETH. Automatically grants 20 chips."
					},
					"raiseBet(uint256)": {
						"notice": "Raise the current bet to a higher amount."
					},
					"resetGame()": {
						"notice": "Reset the game to initial state (clear both players). Only callable when state == Finished."
					}
				},
				"notice": "Simple two-player Indian Poker smart contract implementation",
				"version": 1
			}
		}
	}
}