{
	"data": {
		"bytecode": {
			"linkReferences": {},
			"object": "6080604052348015600e575f5ffd5b5060015f819055505f60015f6101000a81548160ff0219169083600481111560375760366040565b5b0217905550606d565b7f4e487b71000000000000000000000000000000000000000000000000000000005f52602160045260245ffd5b6156f18061007a5f395ff3fe608060405260043610610142575f3560e01c806359328401116100b5578063e6aa216c1161006e578063e6aa216c146103e0578063f71d96cb1461040b578063f84561a21461044f578063fb9bdab414610479578063fd09d7d6146104a3578063ff558143146104b957610149565b806359328401146103035780637365870b146103445780638536b0651461036c578063a7c82f0b14610382578063d4f77b1c146103ac578063d94e6d5e146103b657610149565b806338fcfa9e1161010757806338fcfa9e1461021e5780633951be87146102285780633cfa3d12146102525780634ba2363a1461027a5780634c5f2861146102a457806350fc2c61146102ce57610149565b80624f48031461014d57806313728125146101755780631704a28c1461019f57806320944dc2146101c9578063302bcc57146101f457610149565b3661014957005b5f5ffd5b348015610158575f5ffd5b50610173600480360381019061016e9190613ecc565b6104cf565b005b348015610180575f5ffd5b5061018961083e565b6040516101969190613f36565b60405180910390f35b3480156101aa575f5ffd5b506101b3610863565b6040516101c09190613f5e565b60405180910390f35b3480156101d4575f5ffd5b506101dd61086d565b6040516101eb929190613f77565b60405180910390f35b3480156101ff575f5ffd5b50610208610881565b6040516102159190613fb9565b60405180910390f35b610226610893565b005b348015610233575f5ffd5b5061023c610ac3565b6040516102499190614045565b60405180910390f35b34801561025d575f5ffd5b5061027860048036038101906102739190613ecc565b610ad5565b005b348015610285575f5ffd5b5061028e610cea565b60405161029b9190613f5e565b60405180910390f35b3480156102af575f5ffd5b506102b8610cf0565b6040516102c59190613f5e565b60405180910390f35b3480156102d9575f5ffd5b506102e2610cf5565b6040516102fa9c9b9a99989796959493929190614078565b60405180910390f35b34801561030e575f5ffd5b506103296004803603810190610324919061415a565b610f85565b60405161033b96959493929190614185565b60405180910390f35b34801561034f575f5ffd5b5061036a60048036038101906103659190613ecc565b61100e565b005b348015610377575f5ffd5b506103806112ca565b005b34801561038d575f5ffd5b50610396611660565b6040516103a39190613fb9565b60405180910390f35b6103b4611963565b005b3480156103c1575f5ffd5b506103ca611d25565b6040516103d79190613f5e565b60405180910390f35b3480156103eb575f5ffd5b506103f4611d30565b604051610402929190613f77565b60405180910390f35b348015610416575f5ffd5b50610431600480360381019061042c9190613ecc565b611d43565b60405161044699989796959493929190614204565b60405180910390f35b34801561045a575f5ffd5b50610463611df1565b6040516104709190613f5e565b60405180910390f35b348015610484575f5ffd5b5061048d611df7565b60405161049a9190613fb9565b60405180910390f35b3480156104ae575f5ffd5b506104b7611e0a565b005b3480156104c4575f5ffd5b506104cd61209d565b005b6104d761231a565b6104df61235e565b600160048111156104f3576104f2613fd2565b5b60015f9054906101000a900460ff16600481111561051457610513613fd2565b5b14610554576040517f08c379a000000000000000000000000000000000000000000000000000000000815260040161054b906142e9565b60405180910390fd5b5f60125411610598576040517f08c379a000000000000000000000000000000000000000000000000000000000815260040161058f90614377565b60405180910390fd5b60125481116105dc576040517f08c379a00000000000000000000000000000000000000000000000000000000081526004016105d390614405565b60405180910390fd5b5f6002601060019054906101000a900460ff1660ff166002811061060357610602614423565b5b6007020190505f81600301548361061a919061447d565b90508082600101541015610663576040517f08c379a000000000000000000000000000000000000000000000000000000000815260040161065a906144fa565b60405180910390fd5b808260010154036107005760018260040160016101000a81548160ff021916908315150217905550815f015f9054906101000a900473ffffffffffffffffffffffffffffffffffffffff1673ffffffffffffffffffffffffffffffffffffffff167f1efe18fa0ee5fa18dbc4bdcec4958e3699bf04a5fa0bc93d0dbfc4732d4290b883600101546040516106f79190613f5e565b60405180910390a25b80826001015f828254610713919061447d565b9250508190555080826003015f82825461072d9190614518565b925050819055508060115f8282546107459190614518565b925050819055508160030154601281905550815f015f9054906101000a900473ffffffffffffffffffffffffffffffffffffffff1660135f6101000a81548173ffffffffffffffffffffffffffffffffffffffff021916908373ffffffffffffffffffffffffffffffffffffffff160217905550815f015f9054906101000a900473ffffffffffffffffffffffffffffffffffffffff1673ffffffffffffffffffffffffffffffffffffffff167f0c88911e6edc5dd5a11ca334d41c09dc4befa3e330c89e8a93dfb8717dee27e1846040516108219190613f5e565b60405180910390a2610831612419565b505061083b612451565b50565b60135f9054906101000a900473ffffffffffffffffffffffffffffffffffffffff1681565b652d79883d200081565b5f5f66038d7ea4c680006014915091509091565b60105f9054906101000a900460ff1681565b5f34116108d5576040517f08c379a00000000000000000000000000000000000000000000000000000000081526004016108cc90614595565b60405180910390fd5b5f66038d7ea4c68000346108e991906145e0565b14610929576040517f08c379a000000000000000000000000000000000000000000000000000000000815260040161092090614680565b60405180910390fd5b5f66038d7ea4c680003461093d919061469e565b90505f60148261094d91906146ce565b90505f5f90505f5f90505b60105f9054906101000a900460ff1660ff168160ff161015610a2d573373ffffffffffffffffffffffffffffffffffffffff1660028260ff16600281106109a2576109a1614423565b5b600702015f015f9054906101000a900473ffffffffffffffffffffffffffffffffffffffff1673ffffffffffffffffffffffffffffffffffffffff1603610a20578260028260ff16600281106109fb576109fa614423565b5b600702016001015f828254610a109190614518565b9250508190555060019150610a2d565b8080600101915050610958565b5080610a6e576040517f08c379a0000000000000000000000000000000000000000000000000000000008152600401610a659061477f565b60405180910390fd5b3373ffffffffffffffffffffffffffffffffffffffff167f6a73271893757eff3e2109a31a1f50f0b3cafea2d51a26dc5cfe54ba216b531c3484604051610ab6929190613f77565b60405180910390a2505050565b60015f9054906101000a900460ff1681565b610add61231a565b5f8111610b1f576040517f08c379a0000000000000000000000000000000000000000000000000000000008152600401610b16906147e7565b60405180910390fd5b5f610b293361245a565b90508181600101541015610b72576040517f08c379a0000000000000000000000000000000000000000000000000000000008152600401610b699061484f565b60405180910390fd5b5f652d79883d200083610b8591906146ce565b905080471015610bca576040517f08c379a0000000000000000000000000000000000000000000000000000000008152600401610bc1906148dd565b60405180910390fd5b82826001015f828254610bdd919061447d565b925050819055505f3373ffffffffffffffffffffffffffffffffffffffff1682604051610c0990614928565b5f6040518083038185875af1925050503d805f8114610c43576040519150601f19603f3d011682016040523d82523d5f602084013e610c48565b606091505b5050905080610c8c576040517f08c379a0000000000000000000000000000000000000000000000000000000008152600401610c8390614986565b60405180910390fd5b3373ffffffffffffffffffffffffffffffffffffffff167f10a411a628953c6facff7cf4822b3c924b8b4cc322922727569c217b636505a88584604051610cd4929190613f77565b60405180910390a2505050610ce7612451565b50565b60115481565b601481565b5f5f5f5f5f5f5f5f5f5f5f5f60025f60028110610d1557610d14614423565b5b600702015f015f9054906101000a900473ffffffffffffffffffffffffffffffffffffffff16995060025f60028110610d5157610d50614423565b5b6007020160010154985060025f60028110610d6f57610d6e614423565b5b6007020160030154975060025f60028110610d8d57610d8c614423565b5b600702016004015f9054906101000a900460ff169650600160105f9054906101000a900460ff1660ff161115610e68576002600160028110610dd257610dd1614423565b5b600702015f015f9054906101000a900473ffffffffffffffffffffffffffffffffffffffff1695506002600160028110610e0f57610e0e614423565b5b600702016001015494506002600160028110610e2e57610e2d614423565b5b600702016003015493506002600160028110610e4d57610e4c614423565b5b600702016004015f9054906101000a900460ff169250610e75565b5f95505f94505f93505f92505b60016004811115610e8957610e88613fd2565b5b60015f9054906101000a900460ff166004811115610eaa57610ea9613fd2565b5b1480610ee8575060036004811115610ec557610ec4613fd2565b5b60015f9054906101000a900460ff166004811115610ee657610ee5613fd2565b5b145b610ef2575f610f3f565b6002601060019054906101000a900460ff1660ff1660028110610f1857610f17614423565b5b600702015f015f9054906101000a900473ffffffffffffffffffffffffffffffffffffffff165b915060015f9054906101000a900460ff166011548b8b8b8b8b8b8b8b8b6012549b509b509b509b509b509b509b509b509b509b509b509b50909192939495969798999a9b565b5f5f5f5f5f5f5f610f958861245a565b9050805f015f9054906101000a900473ffffffffffffffffffffffffffffffffffffffff168160010154826002015f9054906101000a900460ff168360030154846004015f9054906101000a900460ff168560040160019054906101000a900460ff169650965096509650965096505091939550919395565b61101661231a565b61101e61235e565b6001600481111561103257611031613fd2565b5b60015f9054906101000a900460ff16600481111561105357611052613fd2565b5b14611093576040517f08c379a000000000000000000000000000000000000000000000000000000000815260040161108a906142e9565b60405180910390fd5b5f81116110d5576040517f08c379a00000000000000000000000000000000000000000000000000000000081526004016110cc906149ee565b60405180910390fd5b5f60125414611119576040517f08c379a000000000000000000000000000000000000000000000000000000000815260040161111090614aa2565b60405180910390fd5b5f6002601060019054906101000a900460ff1660ff16600281106111405761113f614423565b5b600702019050818160010154101561118d576040517f08c379a000000000000000000000000000000000000000000000000000000000815260040161118490614b0a565b60405180910390fd5b81816001015f8282546111a0919061447d565b9250508190555081816003015f8282546111ba9190614518565b925050819055508160115f8282546111d29190614518565b925050819055508060030154601281905550805f015f9054906101000a900473ffffffffffffffffffffffffffffffffffffffff1660135f6101000a81548173ffffffffffffffffffffffffffffffffffffffff021916908373ffffffffffffffffffffffffffffffffffffffff160217905550805f015f9054906101000a900473ffffffffffffffffffffffffffffffffffffffff1673ffffffffffffffffffffffffffffffffffffffff167f9e17ef180bea2554f5c3fb7836e27cfee9ed413e79550adced153652e3141843836040516112ae9190613f5e565b60405180910390a26112be612419565b506112c7612451565b50565b6112d261231a565b6112da61235e565b600160048111156112ee576112ed613fd2565b5b60015f9054906101000a900460ff16600481111561130f5761130e613fd2565b5b1461134f576040517f08c379a0000000000000000000000000000000000000000000000000000000008152600401611346906142e9565b60405180910390fd5b5f60125411611393576040517f08c379a000000000000000000000000000000000000000000000000000000000815260040161138a90614b72565b60405180910390fd5b5f6002601060019054906101000a900460ff1660ff16600281106113ba576113b9614423565b5b6007020190505f81600301546012546113d3919061447d565b90505f8111611417576040517f08c379a000000000000000000000000000000000000000000000000000000000815260040161140e90614c00565b60405180910390fd5b808260010154116114f8575f826001015490508060115f82825461143b9190614518565b9250508190555080836003015f8282546114559190614518565b925050819055505f836001018190555060018360040160016101000a81548160ff021916908315150217905550825f015f9054906101000a900473ffffffffffffffffffffffffffffffffffffffff1673ffffffffffffffffffffffffffffffffffffffff167f1efe18fa0ee5fa18dbc4bdcec4958e3699bf04a5fa0bc93d0dbfc4732d4290b8826040516114ea9190613f5e565b60405180910390a2506115b5565b80826001015f82825461150b919061447d565b9250508190555080826003015f8282546115259190614518565b925050819055508060115f82825461153d9190614518565b92505081905550815f015f9054906101000a900473ffffffffffffffffffffffffffffffffffffffff1673ffffffffffffffffffffffffffffffffffffffff167f56e2553d0f74a9bb2a53fbfe35b858c21d7ced66cfd06949bf151c2f0a0ca1d6826040516115ac9190613f5e565b60405180910390a25b60135f9054906101000a900473ffffffffffffffffffffffffffffffffffffffff1673ffffffffffffffffffffffffffffffffffffffff16825f015f9054906101000a900473ffffffffffffffffffffffffffffffffffffffff1673ffffffffffffffffffffffffffffffffffffffff161415801561163957506012548260030154145b1561164b5761164661255c565b611654565b61165361255c565b5b505061165e612451565b565b5f600260105f9054906101000a900460ff1660ff16146116b5576040517f08c379a00000000000000000000000000000000000000000000000000000000081526004016116ac90614c68565b60405180910390fd5b5f60048111156116c8576116c7613fd2565b5b60015f9054906101000a900460ff1660048111156116e9576116e8613fd2565b5b14158015611729575060048081111561170557611704613fd2565b5b60015f9054906101000a900460ff16600481111561172657611725613fd2565b5b14155b611768576040517f08c379a000000000000000000000000000000000000000000000000000000000815260040161175f90614cd0565b60405180910390fd5b5f60025f6002811061177d5761177c614423565b5b600702015f015f9054906101000a900473ffffffffffffffffffffffffffffffffffffffff1673ffffffffffffffffffffffffffffffffffffffff163373ffffffffffffffffffffffffffffffffffffffff16036117de576001905061188f565b60026001600281106117f3576117f2614423565b5b600702015f015f9054906101000a900473ffffffffffffffffffffffffffffffffffffffff1673ffffffffffffffffffffffffffffffffffffffff163373ffffffffffffffffffffffffffffffffffffffff1603611853575f905061188e565b6040517f08c379a000000000000000000000000000000000000000000000000000000000815260040161188590614d38565b60405180910390fd5b5b600360048111156118a3576118a2613fd2565b5b60015f9054906101000a900460ff1660048111156118c4576118c3613fd2565b5b1480156118f8575060028160ff16600281106118e3576118e2614423565b5b600702016006015f9054906101000a900460ff165b156119315760028160ff166002811061191457611913614423565b5b6007020160060160019054906101000a900460ff16915050611960565b60028160ff166002811061194857611947614423565b5b600702016002015f9054906101000a900460ff169150505b90565b61196b61231a565b600260105f9054906101000a900460ff1660ff16106119bf576040517f08c379a00000000000000000000000000000000000000000000000000000000081526004016119b690614da0565b60405180910390fd5b66038d7ea4c680003414611a08576040517f08c379a00000000000000000000000000000000000000000000000000000000081526004016119ff90614e2e565b60405180910390fd5b5f5f90505b60105f9054906101000a900460ff1660ff168160ff161015611ae0573373ffffffffffffffffffffffffffffffffffffffff1660028260ff1660028110611a5757611a56614423565b5b600702015f015f9054906101000a900473ffffffffffffffffffffffffffffffffffffffff1673ffffffffffffffffffffffffffffffffffffffff1603611ad3576040517f08c379a0000000000000000000000000000000000000000000000000000000008152600401611aca90614e96565b60405180910390fd5b8080600101915050611a0d565b506040518061012001604052803373ffffffffffffffffffffffffffffffffffffffff168152602001601481526020015f60ff1681526020015f81526020015f151581526020015f15158152602001601481526020015f151581526020015f60ff16815250600260105f9054906101000a900460ff1660ff1660028110611b6a57611b69614423565b5b600702015f820151815f015f6101000a81548173ffffffffffffffffffffffffffffffffffffffff021916908373ffffffffffffffffffffffffffffffffffffffff160217905550602082015181600101556040820151816002015f6101000a81548160ff021916908360ff160217905550606082015181600301556080820151816004015f6101000a81548160ff02191690831515021790555060a08201518160040160016101000a81548160ff02191690831515021790555060c0820151816005015560e0820151816006015f6101000a81548160ff0219169083151502179055506101008201518160060160016101000a81548160ff021916908360ff16021790555090505060105f81819054906101000a900460ff1680929190611c9190614eb4565b91906101000a81548160ff021916908360ff160217905550503373ffffffffffffffffffffffffffffffffffffffff167f3330a6773675f31f62070870f40379f8c6d42e3761410011a4dfc42b18043d2f6014604051611cf19190613f5e565b60405180910390a2600260105f9054906101000a900460ff1660ff1603611d1b57611d1a612715565b5b611d23612451565b565b66038d7ea4c6800081565b5f5f6001652d79883d2000915091509091565b60028160028110611d52575f80fd5b600702015f91509050805f015f9054906101000a900473ffffffffffffffffffffffffffffffffffffffff1690806001015490806002015f9054906101000a900460ff1690806003015490806004015f9054906101000a900460ff16908060040160019054906101000a900460ff1690806005015490806006015f9054906101000a900460ff16908060060160019054906101000a900460ff16905089565b60125481565b601060019054906101000a900460ff1681565b611e1261231a565b611e1a61235e565b60016004811115611e2e57611e2d613fd2565b5b60015f9054906101000a900460ff166004811115611e4f57611e4e613fd2565b5b1480611e8d575060036004811115611e6a57611e69613fd2565b5b60015f9054906101000a900460ff166004811115611e8b57611e8a613fd2565b5b145b611ecc576040517f08c379a0000000000000000000000000000000000000000000000000000000008152600401611ec390614f4c565b60405180910390fd5b5f6002601060019054906101000a900460ff1660ff1660028110611ef357611ef2614423565b5b6007020190506001816004015f6101000a81548160ff021916908315150217905550805f015f9054906101000a900473ffffffffffffffffffffffffffffffffffffffff1673ffffffffffffffffffffffffffffffffffffffff167fffd9118163057444bb5e3809d9d4297382740f1b9dcc7b984deb91c9dc39aea160405160405180910390a2600e60ff16816002015f9054906101000a900460ff1660ff160361208a575f60028260010154611faa919061469e565b90505f60028360010154611fbe91906145e0565b14611fd2578080611fce90614f6a565b9150505b8082600101541015611fe657816001015490505b80826001015f828254611ff9919061447d565b925050819055508060115f8282546120119190614518565b92505081905550815f015f9054906101000a900473ffffffffffffffffffffffffffffffffffffffff1673ffffffffffffffffffffffffffffffffffffffff167f4ca7d74dacbfed7e9a76dd08ac8e6686fcbfc2b45b84d18b884285c2e58d54d7826040516120809190613f5e565b60405180910390a2505b612092612ada565b5061209b612451565b565b6120a561231a565b600260105f9054906101000a900460ff1660ff16146120f9576040517f08c379a00000000000000000000000000000000000000000000000000000000081526004016120f090614ffb565b60405180910390fd5b60048081111561210c5761210b613fd2565b5b60015f9054906101000a900460ff16600481111561212d5761212c613fd2565b5b1461216d576040517f08c379a000000000000000000000000000000000000000000000000000000000815260040161216490615089565b60405180910390fd5b5f60025f6002811061218257612181614423565b5b60070201600101541180156121b257505f60026001600281106121a8576121a7614423565b5b6007020160010154115b6121f1576040517f08c379a00000000000000000000000000000000000000000000000000000000081526004016121e890615117565b60405180910390fd5b60025f6002811061220557612204614423565b5b600702015f015f9054906101000a900473ffffffffffffffffffffffffffffffffffffffff1673ffffffffffffffffffffffffffffffffffffffff163373ffffffffffffffffffffffffffffffffffffffff1614806122c95750600260016002811061227457612273614423565b5b600702015f015f9054906101000a900473ffffffffffffffffffffffffffffffffffffffff1673ffffffffffffffffffffffffffffffffffffffff163373ffffffffffffffffffffffffffffffffffffffff16145b612308576040517f08c379a00000000000000000000000000000000000000000000000000000000081526004016122ff906151a5565b60405180910390fd5b612310612715565b612318612451565b565b60025f5403612355576040517f3ee5aeb500000000000000000000000000000000000000000000000000000000815260040160405180910390fd5b60025f81905550565b6002601060019054906101000a900460ff1660ff166002811061238457612383614423565b5b600702015f015f9054906101000a900473ffffffffffffffffffffffffffffffffffffffff1673ffffffffffffffffffffffffffffffffffffffff163373ffffffffffffffffffffffffffffffffffffffff1614612417576040517f08c379a000000000000000000000000000000000000000000000000000000000815260040161240e9061520d565b60405180910390fd5b565b601060019054906101000a900460ff166001612435919061522b565b601060016101000a81548160ff021916908360ff160217905550565b60015f81905550565b5f5f5f90505b60105f9054906101000a900460ff1660ff168160ff16101561251b578273ffffffffffffffffffffffffffffffffffffffff1660028260ff16600281106124aa576124a9614423565b5b600702015f015f9054906101000a900473ffffffffffffffffffffffffffffffffffffffff1673ffffffffffffffffffffffffffffffffffffffff160361250e5760028160ff166002811061250257612501614423565b5b60070201915050612557565b8080600101915050612460565b506040517f08c379a000000000000000000000000000000000000000000000000000000000815260040161254e906152a9565b60405180910390fd5b919050565b5f5f90505f60025f6002811061257557612574614423565b5b6007020190505f600260016002811061259157612590614423565b5b60070201905080600301548260030154036125af5760019250612615565b8160040160019054906101000a900460ff1680156125d557508160030154816003015410155b156125e35760019250612614565b8060040160019054906101000a900460ff16801561260957508060030154826003015410155b1561261357600192505b5b5b8215612707576001600481111561262f5761262e613fd2565b5b60015f9054906101000a900460ff1660048111156126505761264f613fd2565b5b036126945761265d612bd3565b600260015f6101000a81548160ff0219169083600481111561268257612681613fd2565b5b021790555061268f612d64565b612702565b600360048111156126a8576126a7613fd2565b5b60015f9054906101000a900460ff1660048111156126c9576126c8613fd2565b5b0361270157600260015f6101000a81548160ff021916908360048111156126f3576126f2613fd2565b5b0217905550612700612f5e565b5b5b612710565b61270f612419565b5b505050565b600260105f9054906101000a900460ff1660ff1614612769576040517f08c379a000000000000000000000000000000000000000000000000000000000815260040161276090615311565b60405180910390fd5b6001805f6101000a81548160ff0219169083600481111561278d5761278c613fd2565b5b02179055505f601060016101000a81548160ff021916908360ff1602179055505f60135f6101000a81548173ffffffffffffffffffffffffffffffffffffffff021916908373ffffffffffffffffffffffffffffffffffffffff1602179055505f6012819055505f6011819055505f5f90505b60028160ff1610156129b4575f60028260ff166002811061282457612823614423565b5b60070201600301819055505f60028260ff166002811061284757612846614423565b5b600702016004015f6101000a81548160ff0219169083151502179055505f60028260ff166002811061287c5761287b614423565b5b6007020160040160016101000a81548160ff02191690831515021790555060028160ff16600281106128b1576128b0614423565b5b600702016001015460028260ff16600281106128d0576128cf614423565b5b60070201600501819055505f60028260ff16600281106128f3576128f2614423565b5b600702016006015f6101000a81548160ff0219169083151502179055505f60028260ff166002811061292857612927614423565b5b6007020160060160016101000a81548160ff021916908360ff1602179055505f60028260ff166002811061295f5761295e614423565b5b6007020160010154116129a7576040517f08c379a000000000000000000000000000000000000000000000000000000000815260040161299e9061539f565b60405180910390fd5b8080600101915050612800565b506129bd6131f5565b6129c56133e4565b60026001600281106129da576129d9614423565b5b600702015f015f9054906101000a900473ffffffffffffffffffffffffffffffffffffffff1673ffffffffffffffffffffffffffffffffffffffff1660025f60028110612a2a57612a29614423565b5b600702015f015f9054906101000a900473ffffffffffffffffffffffffffffffffffffffff1673ffffffffffffffffffffffffffffffffffffffff167f55b25d7f9b5bf8ea934ba7079455d2ba00c68ea7e66c13695275f6b75b95e5f860405160405180910390a37fdde4d267456af328388c0298cb5303e07177b5953528af7f5d7a6456ed0170a0601060019054906101000a900460ff16604051612ad09190613fb9565b60405180910390a1565b5f5f601060019054906101000a900460ff1660ff1614612afa575f612afd565b60015b905060115460028260ff1660028110612b1957612b18614423565b5b600702016001015f828254612b2e9190614518565b9250508190555060028160ff1660028110612b4c57612b4b614423565b5b600702015f015f9054906101000a900473ffffffffffffffffffffffffffffffffffffffff1673ffffffffffffffffffffffffffffffffffffffff167f6fafc1817661502fca20a0a735270d1344ad3a710b309b32b9ed925956c500c5601154604051612bb99190613f5e565b60405180910390a25f601181905550612bd0613584565b50565b5f60025f60028110612be857612be7614423565b5b6007020190505f6002600160028110612c0457612c03614423565b5b6007020190505f5f90505f8360040160019054906101000a900460ff168015612c34575083600301548360030154115b15612cb85783600301548360030154612c4d919061447d565b915081836001015f828254612c629190614518565b925050819055508160115f828254612c7a919061447d565b9250508190555083600301548360030181905550825f015f9054906101000a900473ffffffffffffffffffffffffffffffffffffffff169050612d5e565b8260040160019054906101000a900460ff168015612cdd575082600301548460030154115b15612d5d5782600301548460030154612cf6919061447d565b915081846001015f828254612d0b9190614518565b925050819055508160115f828254612d23919061447d565b9250508190555082600301548460030181905550835f015f9054906101000a900473ffffffffffffffffffffffffffffffffffffffff1690505b5b50505050565b60026004811115612d7857612d77613fd2565b5b60015f9054906101000a900460ff166004811115612d9957612d98613fd2565b5b14612dd9576040517f08c379a0000000000000000000000000000000000000000000000000000000008152600401612dd090615407565b60405180910390fd5b6002600160028110612dee57612ded614423565b5b600702015f015f9054906101000a900473ffffffffffffffffffffffffffffffffffffffff1673ffffffffffffffffffffffffffffffffffffffff1660025f60028110612e3e57612e3d614423565b5b600702015f015f9054906101000a900473ffffffffffffffffffffffffffffffffffffffff1673ffffffffffffffffffffffffffffffffffffffff167f89f4b08c6f7aaca8e6d515a41d4d09dba640357ce7ef3abae6546a874d577d7460025f60028110612eaf57612eae614423565b5b600702016002015f9054906101000a900460ff166002600160028110612ed857612ed7614423565b5b600702016002015f9054906101000a900460ff16604051612efa929190615425565b60405180910390a3612f5c60025f60028110612f1957612f18614423565b5b600702016002015f9054906101000a900460ff166002600160028110612f4257612f41614423565b5b600702016002015f9054906101000a900460ff165f6135b0565b565b60026004811115612f7257612f71613fd2565b5b60015f9054906101000a900460ff166004811115612f9357612f92613fd2565b5b14612fd3576040517f08c379a0000000000000000000000000000000000000000000000000000000008152600401612fca906154bc565b60405180910390fd5b60025f60028110612fe757612fe6614423565b5b600702016006015f9054906101000a900460ff16801561302c5750600260016002811061301757613016614423565b5b600702016006015f9054906101000a900460ff165b61306b576040517f08c379a000000000000000000000000000000000000000000000000000000000815260040161306290615524565b60405180910390fd5b60026001600281106130805761307f614423565b5b600702015f015f9054906101000a900473ffffffffffffffffffffffffffffffffffffffff1673ffffffffffffffffffffffffffffffffffffffff1660025f600281106130d0576130cf614423565b5b600702015f015f9054906101000a900473ffffffffffffffffffffffffffffffffffffffff1673ffffffffffffffffffffffffffffffffffffffff167f9c900ccf611715ccf004887226374999dbcb73d5a1620067f9afbb48c4d2670360025f6002811061314157613140614423565b5b6007020160060160019054906101000a900460ff16600260016002811061316b5761316a614423565b5b6007020160060160019054906101000a900460ff1660405161318e929190615425565b60405180910390a36131f360025f600281106131ad576131ac614423565b5b6007020160060160019054906101000a900460ff1660026001600281106131d7576131d6614423565b5b6007020160060160019054906101000a900460ff1660016135b0565b565b60145f6132029190613e55565b5f600190505b600e8160ff161161326957601481908060018154018082558091505060019003905f5260205f2090602091828204019190069091909190916101000a81548160ff021916908360ff160217905550808061326190614eb4565b915050613208565b505f600160148054905061327d919061447d565b90505b5f8111156133c7575f6001826132969190614518565b4244846040516020016132ab93929190615562565b604051602081830303815290604052805190602001205f1c6132cd91906145e0565b9050601481815481106132e3576132e2614423565b5b905f5260205f2090602091828204019190069054906101000a900460ff166014838154811061331557613314614423565b5b905f5260205f2090602091828204019190069054906101000a900460ff166014848154811061334757613346614423565b5b905f5260205f2090602091828204019190066014858154811061336d5761336c614423565b5b905f5260205f2090602091828204019190068491906101000a81548160ff021916908360ff1602179055508391906101000a81548160ff021916908360ff16021790555050505080806133bf9061559e565b915050613280565b505f60155f6101000a81548160ff021916908360ff160217905550565b600260155f9054906101000a900460ff1660ff16601480549050613408919061447d565b1015613449576040517f08c379a00000000000000000000000000000000000000000000000000000000081526004016134409061560f565b60405180910390fd5b601460155f81819054906101000a900460ff168092919061346990614eb4565b91906101000a81548160ff021916908360ff16021790555060ff168154811061349557613494614423565b5b905f5260205f2090602091828204019190069054906101000a900460ff1660025f600281106134c7576134c6614423565b5b600702016002015f6101000a81548160ff021916908360ff160217905550601460155f81819054906101000a900460ff168092919061350590614eb4565b91906101000a81548160ff021916908360ff16021790555060ff168154811061353157613530614423565b5b905f5260205f2090602091828204019190069054906101000a900460ff16600260016002811061356457613563614423565b5b600702016002015f6101000a81548160ff021916908360ff160217905550565b600460015f6101000a81548160ff021916908360048111156135a9576135a8613fd2565b5b0217905550565b5f6135bd84846001613b29565b90505f6135cc84866001613b29565b90505f5f90505f5f90508260ff168460ff1611156136255760025f600281106135f8576135f7614423565b5b600702015f015f9054906101000a900473ffffffffffffffffffffffffffffffffffffffff16915061367b565b8360ff168360ff16111561367557600260016002811061364857613647614423565b5b600702015f015f9054906101000a900473ffffffffffffffffffffffffffffffffffffffff16915061367a565b600190505b5b80156137ac578461379f57600360015f6101000a81548160ff021916908360048111156136ab576136aa613fd2565b5b02179055506136b8613bd9565b60025f600281106136cc576136cb614423565b5b6007020160060160016101000a81548160ff021916908360ff160217905550600160025f6002811061370157613700614423565b5b600702016006015f6101000a81548160ff021916908315150217905550613726613bd9565b600260016002811061373b5761373a614423565b5b6007020160060160016101000a81548160ff021916908360ff1602179055506001600260016002811061377157613770614423565b5b600702016006015f6101000a81548160ff02191690831515021790555061379661255c565b50505050613b24565b6137a7613cae565b613b17565b5f60025f600281106137c1576137c0614423565b5b600702016003015490505f60026001600281106137e1576137e0614423565b5b6007020160030154905060025f600281106137ff576137fe614423565b5b600702015f015f9054906101000a900473ffffffffffffffffffffffffffffffffffffffff1673ffffffffffffffffffffffffffffffffffffffff168473ffffffffffffffffffffffffffffffffffffffff16036139b3575f81836138649190614518565b905060025f6002811061387a57613879614423565b5b6007020160040160019054906101000a900460ff16801561389a57508183105b156138b3576002836138ac91906146ce565b90506138c2565b81836138bf9190614518565b90505b80601154118015613929575060025f600281106138e2576138e1614423565b5b6007020160040160019054906101000a900460ff16806139285750600260016002811061391257613911614423565b5b6007020160040160019054906101000a900460ff165b5b5060115460025f6002811061394157613940614423565b5b600702016001015f8282546139569190614518565b925050819055508473ffffffffffffffffffffffffffffffffffffffff167f6fafc1817661502fca20a0a735270d1344ad3a710b309b32b9ed925956c500c56011546040516139a59190613f5e565b60405180910390a250613b0d565b5f81836139c09190614518565b905060026001600281106139d7576139d6614423565b5b6007020160040160019054906101000a900460ff1680156139f757508282105b15613a1057600282613a0991906146ce565b9050613a1f565b8183613a1c9190614518565b90505b80601154118015613a86575060025f60028110613a3f57613a3e614423565b5b6007020160040160019054906101000a900460ff1680613a8557506002600160028110613a6f57613a6e614423565b5b6007020160040160019054906101000a900460ff165b5b506011546002600160028110613a9f57613a9e614423565b5b600702016001015f828254613ab49190614518565b925050819055508473ffffffffffffffffffffffffffffffffffffffff167f6fafc1817661502fca20a0a735270d1344ad3a710b309b32b9ed925956c500c5601154604051613b039190613f5e565b60405180910390a2505b5f60118190555050505b613b1f613584565b505050505b505050565b5f5f8490505f8490508315613b8757600160ff168260ff16148015613b545750600e60ff168160ff16145b15613b6457600f92505050613bd2565b600160ff168260ff1603613b7d57600192505050613bd2565b8192505050613bd2565b600160ff168160ff16148015613ba35750600e60ff168260ff16145b15613bb357600f92505050613bd2565b600160ff168160ff1603613bcc57600192505050613bd2565b80925050505b9392505050565b5f600160155f9054906101000a900460ff1660ff16601480549050613bfe919061447d565b1015613c3f576040517f08c379a0000000000000000000000000000000000000000000000000000000008152600401613c369061569d565b60405180910390fd5b601460155f81819054906101000a900460ff1680929190613c5f90614eb4565b91906101000a81548160ff021916908360ff16021790555060ff1681548110613c8b57613c8a614423565b5b905f5260205f2090602091828204019190069054906101000a900460ff16905090565b5f6002601154613cbe919061469e565b90508060025f60028110613cd557613cd4614423565b5b600702016001015f828254613cea9190614518565b92505081905550806002600160028110613d0757613d06614423565b5b600702016001015f828254613d1c9190614518565b925050819055505f6002601154613d3391906145e0565b14613d6b57600160025f60028110613d4e57613d4d614423565b5b600702016001015f828254613d639190614518565b925050819055505b6002600160028110613d8057613d7f614423565b5b600702015f015f9054906101000a900473ffffffffffffffffffffffffffffffffffffffff1673ffffffffffffffffffffffffffffffffffffffff1660025f60028110613dd057613dcf614423565b5b600702015f015f9054906101000a900473ffffffffffffffffffffffffffffffffffffffff1673ffffffffffffffffffffffffffffffffffffffff167f146ee9fedaf502aa2159cf1e890ff5e6a2b7e634b2c1fdcef212a4502ab3a09e83604051613e3b9190613f5e565b60405180910390a35f601181905550613e52613584565b50565b5080545f8255601f0160209004905f5260205f2090810190613e779190613e7a565b50565b5b80821115613e91575f815f905550600101613e7b565b5090565b5f5ffd5b5f819050919050565b613eab81613e99565b8114613eb5575f5ffd5b50565b5f81359050613ec681613ea2565b92915050565b5f60208284031215613ee157613ee0613e95565b5b5f613eee84828501613eb8565b91505092915050565b5f73ffffffffffffffffffffffffffffffffffffffff82169050919050565b5f613f2082613ef7565b9050919050565b613f3081613f16565b82525050565b5f602082019050613f495f830184613f27565b92915050565b613f5881613e99565b82525050565b5f602082019050613f715f830184613f4f565b92915050565b5f604082019050613f8a5f830185613f4f565b613f976020830184613f4f565b9392505050565b5f60ff82169050919050565b613fb381613f9e565b82525050565b5f602082019050613fcc5f830184613faa565b92915050565b7f4e487b71000000000000000000000000000000000000000000000000000000005f52602160045260245ffd5b600581106140105761400f613fd2565b5b50565b5f81905061402082613fff565b919050565b5f61402f82614013565b9050919050565b61403f81614025565b82525050565b5f6020820190506140585f830184614036565b92915050565b5f8115159050919050565b6140728161405e565b82525050565b5f6101808201905061408c5f83018f614036565b614099602083018e613f4f565b6140a6604083018d613f27565b6140b3606083018c613f4f565b6140c0608083018b613f4f565b6140cd60a083018a614069565b6140da60c0830189613f27565b6140e760e0830188613f4f565b6140f5610100830187613f4f565b614103610120830186614069565b614111610140830185613f27565b61411f610160830184613f4f565b9d9c50505050505050505050505050565b61413981613f16565b8114614143575f5ffd5b50565b5f8135905061415481614130565b92915050565b5f6020828403121561416f5761416e613e95565b5b5f61417c84828501614146565b91505092915050565b5f60c0820190506141985f830189613f27565b6141a56020830188613f4f565b6141b26040830187613faa565b6141bf6060830186613f4f565b6141cc6080830185614069565b6141d960a0830184614069565b979650505050505050565b5f6141ee82613ef7565b9050919050565b6141fe816141e4565b82525050565b5f610120820190506142185f83018c6141f5565b614225602083018b613f4f565b614232604083018a613faa565b61423f6060830189613f4f565b61424c6080830188614069565b61425960a0830187614069565b61426660c0830186613f4f565b61427360e0830185614069565b614281610100830184613faa565b9a9950505050505050505050565b5f82825260208201905092915050565b7f4e6f7420696e2062657474696e672070686173650000000000000000000000005f82015250565b5f6142d360148361428f565b91506142de8261429f565b602082019050919050565b5f6020820190508181035f830152614300816142c7565b9050919050565b7f43616e6e6f742072616973652069662074686572652773206e6f2070726576695f8201527f6f7573206265743b2075736520626574282920696e73746561642e0000000000602082015250565b5f614361603b8361428f565b915061436c82614307565b604082019050919050565b5f6020820190508181035f83015261438e81614355565b9050919050565b7f526169736520616d6f756e74206d7573742062652067726561746572207468615f8201527f6e2063757272656e7420616d6f756e7420746f2063616c6c0000000000000000602082015250565b5f6143ef60388361428f565b91506143fa82614395565b604082019050919050565b5f6020820190508181035f83015261441c816143e3565b9050919050565b7f4e487b71000000000000000000000000000000000000000000000000000000005f52603260045260245ffd5b7f4e487b71000000000000000000000000000000000000000000000000000000005f52601160045260245ffd5b5f61448782613e99565b915061449283613e99565b92508282039050818111156144aa576144a9614450565b5b92915050565b7f496e73756666696369656e7420636869707320746f20726169736500000000005f82015250565b5f6144e4601b8361428f565b91506144ef826144b0565b602082019050919050565b5f6020820190508181035f830152614511816144d8565b9050919050565b5f61452282613e99565b915061452d83613e99565b925082820190508082111561454557614544614450565b5b92915050565b7f4d7573742073656e642045544820746f206765742063686970730000000000005f82015250565b5f61457f601a8361428f565b915061458a8261454b565b602082019050919050565b5f6020820190508181035f8301526145ac81614573565b9050919050565b7f4e487b71000000000000000000000000000000000000000000000000000000005f52601260045260245ffd5b5f6145ea82613e99565b91506145f583613e99565b925082614605576146046145b3565b5b828206905092915050565b7f45544820616d6f756e74206d7573742062652061206d756c7469706c65206f665f8201527f204d494e5f4255595f494e5f4554480000000000000000000000000000000000602082015250565b5f61466a602f8361428f565b915061467582614610565b604082019050919050565b5f6020820190508181035f8301526146978161465e565b9050919050565b5f6146a882613e99565b91506146b383613e99565b9250826146c3576146c26145b3565b5b828204905092915050565b5f6146d882613e99565b91506146e383613e99565b92508282026146f181613e99565b9150828204841483151761470857614707614450565b5b5092915050565b7f506c61796572206e6f7420666f756e642e204a6f696e2067616d65206f7220655f8201527f6e7375726520796f75206172652061207061727469636970616e742e00000000602082015250565b5f614769603c8361428f565b91506147748261470f565b604082019050919050565b5f6020820190508181035f8301526147968161475d565b9050919050565b7f4368697020616d6f756e74206d75737420626520706f736974697665000000005f82015250565b5f6147d1601c8361428f565b91506147dc8261479d565b602082019050919050565b5f6020820190508181035f8301526147fe816147c5565b9050919050565b7f496e73756666696369656e7420636869707300000000000000000000000000005f82015250565b5f61483960128361428f565b915061484482614805565b602082019050919050565b5f6020820190508181035f8301526148668161482d565b9050919050565b7f436f6e74726163742068617320696e73756666696369656e742045544820666f5f8201527f722065786368616e676500000000000000000000000000000000000000000000602082015250565b5f6148c7602a8361428f565b91506148d28261486d565b604082019050919050565b5f6020820190508181035f8301526148f4816148bb565b9050919050565b5f81905092915050565b50565b5f6149135f836148fb565b915061491e82614905565b5f82019050919050565b5f61493282614908565b9150819050919050565b7f455448207472616e73666572206661696c6564000000000000000000000000005f82015250565b5f61497060138361428f565b915061497b8261493c565b602082019050919050565b5f6020820190508181035f83015261499d81614964565b9050919050565b7f42657420616d6f756e74206d75737420626520706f73697469766500000000005f82015250565b5f6149d8601b8361428f565b91506149e3826149a4565b602082019050919050565b5f6020820190508181035f830152614a05816149cc565b9050919050565b7f43616e6e6f74206265742c206d7573742063616c6c2c207261697365206f72205f8201527f666f6c642e204f722074686973206973206e6f7420746865206669727374206160208201527f6374696f6e2e0000000000000000000000000000000000000000000000000000604082015250565b5f614a8c60468361428f565b9150614a9782614a0c565b606082019050919050565b5f6020820190508181035f830152614ab981614a80565b9050919050565b7f496e73756666696369656e7420636869707320746f20626574000000000000005f82015250565b5f614af460198361428f565b9150614aff82614ac0565b602082019050919050565b5f6020820190508181035f830152614b2181614ae8565b9050919050565b7f4e6f2062657420746f2063616c6c0000000000000000000000000000000000005f82015250565b5f614b5c600e8361428f565b9150614b6782614b28565b602082019050919050565b5f6020820190508181035f830152614b8981614b50565b9050919050565b7f4e6f7468696e6720746f2063616c6c206f7220616c72656164792063616c6c655f8201527f6420656e6f756768000000000000000000000000000000000000000000000000602082015250565b5f614bea60288361428f565b9150614bf582614b90565b604082019050919050565b5f6020820190508181035f830152614c1781614bde565b9050919050565b7f47616d65206e6f74206163746976652077697468203220706c617965727300005f82015250565b5f614c52601e8361428f565b9150614c5d82614c1e565b602082019050919050565b5f6020820190508181035f830152614c7f81614c46565b9050919050565b7f47616d65206e6f7420696e2061637469766520726f756e6400000000000000005f82015250565b5f614cba60188361428f565b9150614cc582614c86565b602082019050919050565b5f6020820190508181035f830152614ce781614cae565b9050919050565b7f43616c6c6572206973206e6f742070617274206f6620746869732067616d65005f82015250565b5f614d22601f8361428f565b9150614d2d82614cee565b602082019050919050565b5f6020820190508181035f830152614d4f81614d16565b9050919050565b7f47616d652069732066756c6c00000000000000000000000000000000000000005f82015250565b5f614d8a600c8361428f565b9150614d9582614d56565b602082019050919050565b5f6020820190508181035f830152614db781614d7e565b9050919050565b7f4d7573742073656e642065786163746c79204d494e5f4255595f494e5f4554485f8201527f20746f206a6f696e000000000000000000000000000000000000000000000000602082015250565b5f614e1860288361428f565b9150614e2382614dbe565b604082019050919050565b5f6020820190508181035f830152614e4581614e0c565b9050919050565b7f506c6179657220616c7265616479206a6f696e656400000000000000000000005f82015250565b5f614e8060158361428f565b9150614e8b82614e4c565b602082019050919050565b5f6020820190508181035f830152614ead81614e74565b9050919050565b5f614ebe82613f9e565b915060ff8203614ed157614ed0614450565b5b600182019050919050565b7f4e6f7420696e206120706861736520776865726520666f6c64696e67206973205f8201527f616c6c6f77656400000000000000000000000000000000000000000000000000602082015250565b5f614f3660278361428f565b9150614f4182614edc565b604082019050919050565b5f6020820190508181035f830152614f6381614f2a565b9050919050565b5f614f7482613e99565b91507fffffffffffffffffffffffffffffffffffffffffffffffffffffffffffffffff8203614fa657614fa5614450565b5b600182019050919050565b7f4e656564203220706c61796572732077686f20686164206a6f696e65640000005f82015250565b5f614fe5601d8361428f565b9150614ff082614fb1565b602082019050919050565b5f6020820190508181035f83015261501281614fd9565b9050919050565b7f43616e206f6e6c792073746172742061206e65772068616e64206966207468655f8201527f2070726576696f7573206f6e65206973206f7665720000000000000000000000602082015250565b5f61507360358361428f565b915061507e82615019565b604082019050919050565b5f6020820190508181035f8301526150a081615067565b9050919050565b7f426f746820706c6179657273206e65656420636869707320746f2073746172745f8201527f2061206e65772068616e64000000000000000000000000000000000000000000602082015250565b5f615101602b8361428f565b915061510c826150a7565b604082019050919050565b5f6020820190508181035f83015261512e816150f5565b9050919050565b7f4f6e6c7920706c61796572732063616e2073746172742061206e65772068616e5f8201527f6400000000000000000000000000000000000000000000000000000000000000602082015250565b5f61518f60218361428f565b915061519a82615135565b604082019050919050565b5f6020820190508181035f8301526151bc81615183565b9050919050565b7f4e6f7420796f7572207475726e000000000000000000000000000000000000005f82015250565b5f6151f7600d8361428f565b9150615202826151c3565b602082019050919050565b5f6020820190508181035f830152615224816151eb565b9050919050565b5f61523582613f9e565b915061524083613f9e565b9250828203905060ff81111561525957615258614450565b5b92915050565b7f506c61796572206e6f7420666f756e6420696e2067616d6500000000000000005f82015250565b5f61529360188361428f565b915061529e8261525f565b602082019050919050565b5f6020820190508181035f8301526152c081615287565b9050919050565b7f4e656564203220706c617965727320746f2073746172740000000000000000005f82015250565b5f6152fb60178361428f565b9150615306826152c7565b602082019050919050565b5f6020820190508181035f830152615328816152ef565b9050919050565b7f506c61796572206d757374206861766520636869707320746f207374617274205f8201527f6120726f756e6400000000000000000000000000000000000000000000000000602082015250565b5f61538960278361428f565b91506153948261532f565b604082019050919050565b5f6020820190508181035f8301526153b68161537d565b9050919050565b7f4e6f7420696e2073686f77646f776e20706861736500000000000000000000005f82015250565b5f6153f160158361428f565b91506153fc826153bd565b602082019050919050565b5f6020820190508181035f83015261541e816153e5565b9050919050565b5f6040820190506154385f830185613faa565b6154456020830184613faa565b9392505050565b7f4e6f7420696e2073686f77646f776e20706861736520666f72206472617720635f8201527f6172647300000000000000000000000000000000000000000000000000000000602082015250565b5f6154a660248361428f565b91506154b18261544c565b604082019050919050565b5f6020820190508181035f8301526154d38161549a565b9050919050565b7f44726177206361726473206e6f742072657665616c656420627920626f7468005f82015250565b5f61550e601f8361428f565b9150615519826154da565b602082019050919050565b5f6020820190508181035f83015261553b81615502565b9050919050565b5f819050919050565b61555c61555782613e99565b615542565b82525050565b5f61556d828661554b565b60208201915061557d828561554b565b60208201915061558d828461554b565b602082019150819050949350505050565b5f6155a882613e99565b91505f82036155ba576155b9614450565b5b600182039050919050565b7f4e6f7420656e6f75676820636172647320696e206465636b00000000000000005f82015250565b5f6155f960188361428f565b9150615604826155c5565b602082019050919050565b5f6020820190508181035f830152615626816155ed565b9050919050565b7f4e6f7420656e6f75676820636172647320696e206465636b20666f72206472615f8201527f7700000000000000000000000000000000000000000000000000000000000000602082015250565b5f61568760218361428f565b91506156928261562d565b604082019050919050565b5f6020820190508181035f8301526156b48161567b565b905091905056fea2646970667358221220b950e2b13cf1b0319497473eabf635a95bcddd89fc82070351d83b05ee30bba364736f6c634300081e0033",
			"opcodes": "PUSH1 0x80 PUSH1 0x40 MSTORE CALLVALUE DUP1 ISZERO PUSH1 0xE JUMPI PUSH0 PUSH0 REVERT JUMPDEST POP PUSH1 0x1 PUSH0 DUP2 SWAP1 SSTORE POP PUSH0 PUSH1 0x1 PUSH0 PUSH2 0x100 EXP DUP2 SLOAD DUP2 PUSH1 0xFF MUL NOT AND SWAP1 DUP4 PUSH1 0x4 DUP2 GT ISZERO PUSH1 0x37 JUMPI PUSH1 0x36 PUSH1 0x40 JUMP JUMPDEST JUMPDEST MUL OR SWAP1 SSTORE POP PUSH1 0x6D JUMP JUMPDEST PUSH32 0x4E487B7100000000000000000000000000000000000000000000000000000000 PUSH0 MSTORE PUSH1 0x21 PUSH1 0x4 MSTORE PUSH1 0x24 PUSH0 REVERT JUMPDEST PUSH2 0x56F1 DUP1 PUSH2 0x7A PUSH0 CODECOPY PUSH0 RETURN INVALID PUSH1 0x80 PUSH1 0x40 MSTORE PUSH1 0x4 CALLDATASIZE LT PUSH2 0x142 JUMPI PUSH0 CALLDATALOAD PUSH1 0xE0 SHR DUP1 PUSH4 0x59328401 GT PUSH2 0xB5 JUMPI DUP1 PUSH4 0xE6AA216C GT PUSH2 0x6E JUMPI DUP1 PUSH4 0xE6AA216C EQ PUSH2 0x3E0 JUMPI DUP1 PUSH4 0xF71D96CB EQ PUSH2 0x40B JUMPI DUP1 PUSH4 0xF84561A2 EQ PUSH2 0x44F JUMPI DUP1 PUSH4 0xFB9BDAB4 EQ PUSH2 0x479 JUMPI DUP1 PUSH4 0xFD09D7D6 EQ PUSH2 0x4A3 JUMPI DUP1 PUSH4 0xFF558143 EQ PUSH2 0x4B9 JUMPI PUSH2 0x149 JUMP JUMPDEST DUP1 PUSH4 0x59328401 EQ PUSH2 0x303 JUMPI DUP1 PUSH4 0x7365870B EQ PUSH2 0x344 JUMPI DUP1 PUSH4 0x8536B065 EQ PUSH2 0x36C JUMPI DUP1 PUSH4 0xA7C82F0B EQ PUSH2 0x382 JUMPI DUP1 PUSH4 0xD4F77B1C EQ PUSH2 0x3AC JUMPI DUP1 PUSH4 0xD94E6D5E EQ PUSH2 0x3B6 JUMPI PUSH2 0x149 JUMP JUMPDEST DUP1 PUSH4 0x38FCFA9E GT PUSH2 0x107 JUMPI DUP1 PUSH4 0x38FCFA9E EQ PUSH2 0x21E JUMPI DUP1 PUSH4 0x3951BE87 EQ PUSH2 0x228 JUMPI DUP1 PUSH4 0x3CFA3D12 EQ PUSH2 0x252 JUMPI DUP1 PUSH4 0x4BA2363A EQ PUSH2 0x27A JUMPI DUP1 PUSH4 0x4C5F2861 EQ PUSH2 0x2A4 JUMPI DUP1 PUSH4 0x50FC2C61 EQ PUSH2 0x2CE JUMPI PUSH2 0x149 JUMP JUMPDEST DUP1 PUSH3 0x4F4803 EQ PUSH2 0x14D JUMPI DUP1 PUSH4 0x13728125 EQ PUSH2 0x175 JUMPI DUP1 PUSH4 0x1704A28C EQ PUSH2 0x19F JUMPI DUP1 PUSH4 0x20944DC2 EQ PUSH2 0x1C9 JUMPI DUP1 PUSH4 0x302BCC57 EQ PUSH2 0x1F4 JUMPI PUSH2 0x149 JUMP JUMPDEST CALLDATASIZE PUSH2 0x149 JUMPI STOP JUMPDEST PUSH0 PUSH0 REVERT JUMPDEST CALLVALUE DUP1 ISZERO PUSH2 0x158 JUMPI PUSH0 PUSH0 REVERT JUMPDEST POP PUSH2 0x173 PUSH1 0x4 DUP1 CALLDATASIZE SUB DUP2 ADD SWAP1 PUSH2 0x16E SWAP2 SWAP1 PUSH2 0x3ECC JUMP JUMPDEST PUSH2 0x4CF JUMP JUMPDEST STOP JUMPDEST CALLVALUE DUP1 ISZERO PUSH2 0x180 JUMPI PUSH0 PUSH0 REVERT JUMPDEST POP PUSH2 0x189 PUSH2 0x83E JUMP JUMPDEST PUSH1 0x40 MLOAD PUSH2 0x196 SWAP2 SWAP1 PUSH2 0x3F36 JUMP JUMPDEST PUSH1 0x40 MLOAD DUP1 SWAP2 SUB SWAP1 RETURN JUMPDEST CALLVALUE DUP1 ISZERO PUSH2 0x1AA JUMPI PUSH0 PUSH0 REVERT JUMPDEST POP PUSH2 0x1B3 PUSH2 0x863 JUMP JUMPDEST PUSH1 0x40 MLOAD PUSH2 0x1C0 SWAP2 SWAP1 PUSH2 0x3F5E JUMP JUMPDEST PUSH1 0x40 MLOAD DUP1 SWAP2 SUB SWAP1 RETURN JUMPDEST CALLVALUE DUP1 ISZERO PUSH2 0x1D4 JUMPI PUSH0 PUSH0 REVERT JUMPDEST POP PUSH2 0x1DD PUSH2 0x86D JUMP JUMPDEST PUSH1 0x40 MLOAD PUSH2 0x1EB SWAP3 SWAP2 SWAP1 PUSH2 0x3F77 JUMP JUMPDEST PUSH1 0x40 MLOAD DUP1 SWAP2 SUB SWAP1 RETURN JUMPDEST CALLVALUE DUP1 ISZERO PUSH2 0x1FF JUMPI PUSH0 PUSH0 REVERT JUMPDEST POP PUSH2 0x208 PUSH2 0x881 JUMP JUMPDEST PUSH1 0x40 MLOAD PUSH2 0x215 SWAP2 SWAP1 PUSH2 0x3FB9 JUMP JUMPDEST PUSH1 0x40 MLOAD DUP1 SWAP2 SUB SWAP1 RETURN JUMPDEST PUSH2 0x226 PUSH2 0x893 JUMP JUMPDEST STOP JUMPDEST CALLVALUE DUP1 ISZERO PUSH2 0x233 JUMPI PUSH0 PUSH0 REVERT JUMPDEST POP PUSH2 0x23C PUSH2 0xAC3 JUMP JUMPDEST PUSH1 0x40 MLOAD PUSH2 0x249 SWAP2 SWAP1 PUSH2 0x4045 JUMP JUMPDEST PUSH1 0x40 MLOAD DUP1 SWAP2 SUB SWAP1 RETURN JUMPDEST CALLVALUE DUP1 ISZERO PUSH2 0x25D JUMPI PUSH0 PUSH0 REVERT JUMPDEST POP PUSH2 0x278 PUSH1 0x4 DUP1 CALLDATASIZE SUB DUP2 ADD SWAP1 PUSH2 0x273 SWAP2 SWAP1 PUSH2 0x3ECC JUMP JUMPDEST PUSH2 0xAD5 JUMP JUMPDEST STOP JUMPDEST CALLVALUE DUP1 ISZERO PUSH2 0x285 JUMPI PUSH0 PUSH0 REVERT JUMPDEST POP PUSH2 0x28E PUSH2 0xCEA JUMP JUMPDEST PUSH1 0x40 MLOAD PUSH2 0x29B SWAP2 SWAP1 PUSH2 0x3F5E JUMP JUMPDEST PUSH1 0x40 MLOAD DUP1 SWAP2 SUB SWAP1 RETURN JUMPDEST CALLVALUE DUP1 ISZERO PUSH2 0x2AF JUMPI PUSH0 PUSH0 REVERT JUMPDEST POP PUSH2 0x2B8 PUSH2 0xCF0 JUMP JUMPDEST PUSH1 0x40 MLOAD PUSH2 0x2C5 SWAP2 SWAP1 PUSH2 0x3F5E JUMP JUMPDEST PUSH1 0x40 MLOAD DUP1 SWAP2 SUB SWAP1 RETURN JUMPDEST CALLVALUE DUP1 ISZERO PUSH2 0x2D9 JUMPI PUSH0 PUSH0 REVERT JUMPDEST POP PUSH2 0x2E2 PUSH2 0xCF5 JUMP JUMPDEST PUSH1 0x40 MLOAD PUSH2 0x2FA SWAP13 SWAP12 SWAP11 SWAP10 SWAP9 SWAP8 SWAP7 SWAP6 SWAP5 SWAP4 SWAP3 SWAP2 SWAP1 PUSH2 0x4078 JUMP JUMPDEST PUSH1 0x40 MLOAD DUP1 SWAP2 SUB SWAP1 RETURN JUMPDEST CALLVALUE DUP1 ISZERO PUSH2 0x30E JUMPI PUSH0 PUSH0 REVERT JUMPDEST POP PUSH2 0x329 PUSH1 0x4 DUP1 CALLDATASIZE SUB DUP2 ADD SWAP1 PUSH2 0x324 SWAP2 SWAP1 PUSH2 0x415A JUMP JUMPDEST PUSH2 0xF85 JUMP JUMPDEST PUSH1 0x40 MLOAD PUSH2 0x33B SWAP7 SWAP6 SWAP5 SWAP4 SWAP3 SWAP2 SWAP1 PUSH2 0x4185 JUMP JUMPDEST PUSH1 0x40 MLOAD DUP1 SWAP2 SUB SWAP1 RETURN JUMPDEST CALLVALUE DUP1 ISZERO PUSH2 0x34F JUMPI PUSH0 PUSH0 REVERT JUMPDEST POP PUSH2 0x36A PUSH1 0x4 DUP1 CALLDATASIZE SUB DUP2 ADD SWAP1 PUSH2 0x365 SWAP2 SWAP1 PUSH2 0x3ECC JUMP JUMPDEST PUSH2 0x100E JUMP JUMPDEST STOP JUMPDEST CALLVALUE DUP1 ISZERO PUSH2 0x377 JUMPI PUSH0 PUSH0 REVERT JUMPDEST POP PUSH2 0x380 PUSH2 0x12CA JUMP JUMPDEST STOP JUMPDEST CALLVALUE DUP1 ISZERO PUSH2 0x38D JUMPI PUSH0 PUSH0 REVERT JUMPDEST POP PUSH2 0x396 PUSH2 0x1660 JUMP JUMPDEST PUSH1 0x40 MLOAD PUSH2 0x3A3 SWAP2 SWAP1 PUSH2 0x3FB9 JUMP JUMPDEST PUSH1 0x40 MLOAD DUP1 SWAP2 SUB SWAP1 RETURN JUMPDEST PUSH2 0x3B4 PUSH2 0x1963 JUMP JUMPDEST STOP JUMPDEST CALLVALUE DUP1 ISZERO PUSH2 0x3C1 JUMPI PUSH0 PUSH0 REVERT JUMPDEST POP PUSH2 0x3CA PUSH2 0x1D25 JUMP JUMPDEST PUSH1 0x40 MLOAD PUSH2 0x3D7 SWAP2 SWAP1 PUSH2 0x3F5E JUMP JUMPDEST PUSH1 0x40 MLOAD DUP1 SWAP2 SUB SWAP1 RETURN JUMPDEST CALLVALUE DUP1 ISZERO PUSH2 0x3EB JUMPI PUSH0 PUSH0 REVERT JUMPDEST POP PUSH2 0x3F4 PUSH2 0x1D30 JUMP JUMPDEST PUSH1 0x40 MLOAD PUSH2 0x402 SWAP3 SWAP2 SWAP1 PUSH2 0x3F77 JUMP JUMPDEST PUSH1 0x40 MLOAD DUP1 SWAP2 SUB SWAP1 RETURN JUMPDEST CALLVALUE DUP1 ISZERO PUSH2 0x416 JUMPI PUSH0 PUSH0 REVERT JUMPDEST POP PUSH2 0x431 PUSH1 0x4 DUP1 CALLDATASIZE SUB DUP2 ADD SWAP1 PUSH2 0x42C SWAP2 SWAP1 PUSH2 0x3ECC JUMP JUMPDEST PUSH2 0x1D43 JUMP JUMPDEST PUSH1 0x40 MLOAD PUSH2 0x446 SWAP10 SWAP9 SWAP8 SWAP7 SWAP6 SWAP5 SWAP4 SWAP3 SWAP2 SWAP1 PUSH2 0x4204 JUMP JUMPDEST PUSH1 0x40 MLOAD DUP1 SWAP2 SUB SWAP1 RETURN JUMPDEST CALLVALUE DUP1 ISZERO PUSH2 0x45A JUMPI PUSH0 PUSH0 REVERT JUMPDEST POP PUSH2 0x463 PUSH2 0x1DF1 JUMP JUMPDEST PUSH1 0x40 MLOAD PUSH2 0x470 SWAP2 SWAP1 PUSH2 0x3F5E JUMP JUMPDEST PUSH1 0x40 MLOAD DUP1 SWAP2 SUB SWAP1 RETURN JUMPDEST CALLVALUE DUP1 ISZERO PUSH2 0x484 JUMPI PUSH0 PUSH0 REVERT JUMPDEST POP PUSH2 0x48D PUSH2 0x1DF7 JUMP JUMPDEST PUSH1 0x40 MLOAD PUSH2 0x49A SWAP2 SWAP1 PUSH2 0x3FB9 JUMP JUMPDEST PUSH1 0x40 MLOAD DUP1 SWAP2 SUB SWAP1 RETURN JUMPDEST CALLVALUE DUP1 ISZERO PUSH2 0x4AE JUMPI PUSH0 PUSH0 REVERT JUMPDEST POP PUSH2 0x4B7 PUSH2 0x1E0A JUMP JUMPDEST STOP JUMPDEST CALLVALUE DUP1 ISZERO PUSH2 0x4C4 JUMPI PUSH0 PUSH0 REVERT JUMPDEST POP PUSH2 0x4CD PUSH2 0x209D JUMP JUMPDEST STOP JUMPDEST PUSH2 0x4D7 PUSH2 0x231A JUMP JUMPDEST PUSH2 0x4DF PUSH2 0x235E JUMP JUMPDEST PUSH1 0x1 PUSH1 0x4 DUP2 GT ISZERO PUSH2 0x4F3 JUMPI PUSH2 0x4F2 PUSH2 0x3FD2 JUMP JUMPDEST JUMPDEST PUSH1 0x1 PUSH0 SWAP1 SLOAD SWAP1 PUSH2 0x100 EXP SWAP1 DIV PUSH1 0xFF AND PUSH1 0x4 DUP2 GT ISZERO PUSH2 0x514 JUMPI PUSH2 0x513 PUSH2 0x3FD2 JUMP JUMPDEST JUMPDEST EQ PUSH2 0x554 JUMPI PUSH1 0x40 MLOAD PUSH32 0x8C379A000000000000000000000000000000000000000000000000000000000 DUP2 MSTORE PUSH1 0x4 ADD PUSH2 0x54B SWAP1 PUSH2 0x42E9 JUMP JUMPDEST PUSH1 0x40 MLOAD DUP1 SWAP2 SUB SWAP1 REVERT JUMPDEST PUSH0 PUSH1 0x12 SLOAD GT PUSH2 0x598 JUMPI PUSH1 0x40 MLOAD PUSH32 0x8C379A000000000000000000000000000000000000000000000000000000000 DUP2 MSTORE PUSH1 0x4 ADD PUSH2 0x58F SWAP1 PUSH2 0x4377 JUMP JUMPDEST PUSH1 0x40 MLOAD DUP1 SWAP2 SUB SWAP1 REVERT JUMPDEST PUSH1 0x12 SLOAD DUP2 GT PUSH2 0x5DC JUMPI PUSH1 0x40 MLOAD PUSH32 0x8C379A000000000000000000000000000000000000000000000000000000000 DUP2 MSTORE PUSH1 0x4 ADD PUSH2 0x5D3 SWAP1 PUSH2 0x4405 JUMP JUMPDEST PUSH1 0x40 MLOAD DUP1 SWAP2 SUB SWAP1 REVERT JUMPDEST PUSH0 PUSH1 0x2 PUSH1 0x10 PUSH1 0x1 SWAP1 SLOAD SWAP1 PUSH2 0x100 EXP SWAP1 DIV PUSH1 0xFF AND PUSH1 0xFF AND PUSH1 0x2 DUP2 LT PUSH2 0x603 JUMPI PUSH2 0x602 PUSH2 0x4423 JUMP JUMPDEST JUMPDEST PUSH1 0x7 MUL ADD SWAP1 POP PUSH0 DUP2 PUSH1 0x3 ADD SLOAD DUP4 PUSH2 0x61A SWAP2 SWAP1 PUSH2 0x447D JUMP JUMPDEST SWAP1 POP DUP1 DUP3 PUSH1 0x1 ADD SLOAD LT ISZERO PUSH2 0x663 JUMPI PUSH1 0x40 MLOAD PUSH32 0x8C379A000000000000000000000000000000000000000000000000000000000 DUP2 MSTORE PUSH1 0x4 ADD PUSH2 0x65A SWAP1 PUSH2 0x44FA JUMP JUMPDEST PUSH1 0x40 MLOAD DUP1 SWAP2 SUB SWAP1 REVERT JUMPDEST DUP1 DUP3 PUSH1 0x1 ADD SLOAD SUB PUSH2 0x700 JUMPI PUSH1 0x1 DUP3 PUSH1 0x4 ADD PUSH1 0x1 PUSH2 0x100 EXP DUP2 SLOAD DUP2 PUSH1 0xFF MUL NOT AND SWAP1 DUP4 ISZERO ISZERO MUL OR SWAP1 SSTORE POP DUP2 PUSH0 ADD PUSH0 SWAP1 SLOAD SWAP1 PUSH2 0x100 EXP SWAP1 DIV PUSH20 0xFFFFFFFFFFFFFFFFFFFFFFFFFFFFFFFFFFFFFFFF AND PUSH20 0xFFFFFFFFFFFFFFFFFFFFFFFFFFFFFFFFFFFFFFFF AND PUSH32 0x1EFE18FA0EE5FA18DBC4BDCEC4958E3699BF04A5FA0BC93D0DBFC4732D4290B8 DUP4 PUSH1 0x1 ADD SLOAD PUSH1 0x40 MLOAD PUSH2 0x6F7 SWAP2 SWAP1 PUSH2 0x3F5E JUMP JUMPDEST PUSH1 0x40 MLOAD DUP1 SWAP2 SUB SWAP1 LOG2 JUMPDEST DUP1 DUP3 PUSH1 0x1 ADD PUSH0 DUP3 DUP3 SLOAD PUSH2 0x713 SWAP2 SWAP1 PUSH2 0x447D JUMP JUMPDEST SWAP3 POP POP DUP2 SWAP1 SSTORE POP DUP1 DUP3 PUSH1 0x3 ADD PUSH0 DUP3 DUP3 SLOAD PUSH2 0x72D SWAP2 SWAP1 PUSH2 0x4518 JUMP JUMPDEST SWAP3 POP POP DUP2 SWAP1 SSTORE POP DUP1 PUSH1 0x11 PUSH0 DUP3 DUP3 SLOAD PUSH2 0x745 SWAP2 SWAP1 PUSH2 0x4518 JUMP JUMPDEST SWAP3 POP POP DUP2 SWAP1 SSTORE POP DUP2 PUSH1 0x3 ADD SLOAD PUSH1 0x12 DUP2 SWAP1 SSTORE POP DUP2 PUSH0 ADD PUSH0 SWAP1 SLOAD SWAP1 PUSH2 0x100 EXP SWAP1 DIV PUSH20 0xFFFFFFFFFFFFFFFFFFFFFFFFFFFFFFFFFFFFFFFF AND PUSH1 0x13 PUSH0 PUSH2 0x100 EXP DUP2 SLOAD DUP2 PUSH20 0xFFFFFFFFFFFFFFFFFFFFFFFFFFFFFFFFFFFFFFFF MUL NOT AND SWAP1 DUP4 PUSH20 0xFFFFFFFFFFFFFFFFFFFFFFFFFFFFFFFFFFFFFFFF AND MUL OR SWAP1 SSTORE POP DUP2 PUSH0 ADD PUSH0 SWAP1 SLOAD SWAP1 PUSH2 0x100 EXP SWAP1 DIV PUSH20 0xFFFFFFFFFFFFFFFFFFFFFFFFFFFFFFFFFFFFFFFF AND PUSH20 0xFFFFFFFFFFFFFFFFFFFFFFFFFFFFFFFFFFFFFFFF AND PUSH32 0xC88911E6EDC5DD5A11CA334D41C09DC4BEFA3E330C89E8A93DFB8717DEE27E1 DUP5 PUSH1 0x40 MLOAD PUSH2 0x821 SWAP2 SWAP1 PUSH2 0x3F5E JUMP JUMPDEST PUSH1 0x40 MLOAD DUP1 SWAP2 SUB SWAP1 LOG2 PUSH2 0x831 PUSH2 0x2419 JUMP JUMPDEST POP POP PUSH2 0x83B PUSH2 0x2451 JUMP JUMPDEST POP JUMP JUMPDEST PUSH1 0x13 PUSH0 SWAP1 SLOAD SWAP1 PUSH2 0x100 EXP SWAP1 DIV PUSH20 0xFFFFFFFFFFFFFFFFFFFFFFFFFFFFFFFFFFFFFFFF AND DUP2 JUMP JUMPDEST PUSH6 0x2D79883D2000 DUP2 JUMP JUMPDEST PUSH0 PUSH0 PUSH7 0x38D7EA4C68000 PUSH1 0x14 SWAP2 POP SWAP2 POP SWAP1 SWAP2 JUMP JUMPDEST PUSH1 0x10 PUSH0 SWAP1 SLOAD SWAP1 PUSH2 0x100 EXP SWAP1 DIV PUSH1 0xFF AND DUP2 JUMP JUMPDEST PUSH0 CALLVALUE GT PUSH2 0x8D5 JUMPI PUSH1 0x40 MLOAD PUSH32 0x8C379A000000000000000000000000000000000000000000000000000000000 DUP2 MSTORE PUSH1 0x4 ADD PUSH2 0x8CC SWAP1 PUSH2 0x4595 JUMP JUMPDEST PUSH1 0x40 MLOAD DUP1 SWAP2 SUB SWAP1 REVERT JUMPDEST PUSH0 PUSH7 0x38D7EA4C68000 CALLVALUE PUSH2 0x8E9 SWAP2 SWAP1 PUSH2 0x45E0 JUMP JUMPDEST EQ PUSH2 0x929 JUMPI PUSH1 0x40 MLOAD PUSH32 0x8C379A000000000000000000000000000000000000000000000000000000000 DUP2 MSTORE PUSH1 0x4 ADD PUSH2 0x920 SWAP1 PUSH2 0x4680 JUMP JUMPDEST PUSH1 0x40 MLOAD DUP1 SWAP2 SUB SWAP1 REVERT JUMPDEST PUSH0 PUSH7 0x38D7EA4C68000 CALLVALUE PUSH2 0x93D SWAP2 SWAP1 PUSH2 0x469E JUMP JUMPDEST SWAP1 POP PUSH0 PUSH1 0x14 DUP3 PUSH2 0x94D SWAP2 SWAP1 PUSH2 0x46CE JUMP JUMPDEST SWAP1 POP PUSH0 PUSH0 SWAP1 POP PUSH0 PUSH0 SWAP1 POP JUMPDEST PUSH1 0x10 PUSH0 SWAP1 SLOAD SWAP1 PUSH2 0x100 EXP SWAP1 DIV PUSH1 0xFF AND PUSH1 0xFF AND DUP2 PUSH1 0xFF AND LT ISZERO PUSH2 0xA2D JUMPI CALLER PUSH20 0xFFFFFFFFFFFFFFFFFFFFFFFFFFFFFFFFFFFFFFFF AND PUSH1 0x2 DUP3 PUSH1 0xFF AND PUSH1 0x2 DUP2 LT PUSH2 0x9A2 JUMPI PUSH2 0x9A1 PUSH2 0x4423 JUMP JUMPDEST JUMPDEST PUSH1 0x7 MUL ADD PUSH0 ADD PUSH0 SWAP1 SLOAD SWAP1 PUSH2 0x100 EXP SWAP1 DIV PUSH20 0xFFFFFFFFFFFFFFFFFFFFFFFFFFFFFFFFFFFFFFFF AND PUSH20 0xFFFFFFFFFFFFFFFFFFFFFFFFFFFFFFFFFFFFFFFF AND SUB PUSH2 0xA20 JUMPI DUP3 PUSH1 0x2 DUP3 PUSH1 0xFF AND PUSH1 0x2 DUP2 LT PUSH2 0x9FB JUMPI PUSH2 0x9FA PUSH2 0x4423 JUMP JUMPDEST JUMPDEST PUSH1 0x7 MUL ADD PUSH1 0x1 ADD PUSH0 DUP3 DUP3 SLOAD PUSH2 0xA10 SWAP2 SWAP1 PUSH2 0x4518 JUMP JUMPDEST SWAP3 POP POP DUP2 SWAP1 SSTORE POP PUSH1 0x1 SWAP2 POP PUSH2 0xA2D JUMP JUMPDEST DUP1 DUP1 PUSH1 0x1 ADD SWAP2 POP POP PUSH2 0x958 JUMP JUMPDEST POP DUP1 PUSH2 0xA6E JUMPI PUSH1 0x40 MLOAD PUSH32 0x8C379A000000000000000000000000000000000000000000000000000000000 DUP2 MSTORE PUSH1 0x4 ADD PUSH2 0xA65 SWAP1 PUSH2 0x477F JUMP JUMPDEST PUSH1 0x40 MLOAD DUP1 SWAP2 SUB SWAP1 REVERT JUMPDEST CALLER PUSH20 0xFFFFFFFFFFFFFFFFFFFFFFFFFFFFFFFFFFFFFFFF AND PUSH32 0x6A73271893757EFF3E2109A31A1F50F0B3CAFEA2D51A26DC5CFE54BA216B531C CALLVALUE DUP5 PUSH1 0x40 MLOAD PUSH2 0xAB6 SWAP3 SWAP2 SWAP1 PUSH2 0x3F77 JUMP JUMPDEST PUSH1 0x40 MLOAD DUP1 SWAP2 SUB SWAP1 LOG2 POP POP POP JUMP JUMPDEST PUSH1 0x1 PUSH0 SWAP1 SLOAD SWAP1 PUSH2 0x100 EXP SWAP1 DIV PUSH1 0xFF AND DUP2 JUMP JUMPDEST PUSH2 0xADD PUSH2 0x231A JUMP JUMPDEST PUSH0 DUP2 GT PUSH2 0xB1F JUMPI PUSH1 0x40 MLOAD PUSH32 0x8C379A000000000000000000000000000000000000000000000000000000000 DUP2 MSTORE PUSH1 0x4 ADD PUSH2 0xB16 SWAP1 PUSH2 0x47E7 JUMP JUMPDEST PUSH1 0x40 MLOAD DUP1 SWAP2 SUB SWAP1 REVERT JUMPDEST PUSH0 PUSH2 0xB29 CALLER PUSH2 0x245A JUMP JUMPDEST SWAP1 POP DUP2 DUP2 PUSH1 0x1 ADD SLOAD LT ISZERO PUSH2 0xB72 JUMPI PUSH1 0x40 MLOAD PUSH32 0x8C379A000000000000000000000000000000000000000000000000000000000 DUP2 MSTORE PUSH1 0x4 ADD PUSH2 0xB69 SWAP1 PUSH2 0x484F JUMP JUMPDEST PUSH1 0x40 MLOAD DUP1 SWAP2 SUB SWAP1 REVERT JUMPDEST PUSH0 PUSH6 0x2D79883D2000 DUP4 PUSH2 0xB85 SWAP2 SWAP1 PUSH2 0x46CE JUMP JUMPDEST SWAP1 POP DUP1 SELFBALANCE LT ISZERO PUSH2 0xBCA JUMPI PUSH1 0x40 MLOAD PUSH32 0x8C379A000000000000000000000000000000000000000000000000000000000 DUP2 MSTORE PUSH1 0x4 ADD PUSH2 0xBC1 SWAP1 PUSH2 0x48DD JUMP JUMPDEST PUSH1 0x40 MLOAD DUP1 SWAP2 SUB SWAP1 REVERT JUMPDEST DUP3 DUP3 PUSH1 0x1 ADD PUSH0 DUP3 DUP3 SLOAD PUSH2 0xBDD SWAP2 SWAP1 PUSH2 0x447D JUMP JUMPDEST SWAP3 POP POP DUP2 SWAP1 SSTORE POP PUSH0 CALLER PUSH20 0xFFFFFFFFFFFFFFFFFFFFFFFFFFFFFFFFFFFFFFFF AND DUP3 PUSH1 0x40 MLOAD PUSH2 0xC09 SWAP1 PUSH2 0x4928 JUMP JUMPDEST PUSH0 PUSH1 0x40 MLOAD DUP1 DUP4 SUB DUP2 DUP6 DUP8 GAS CALL SWAP3 POP POP POP RETURNDATASIZE DUP1 PUSH0 DUP2 EQ PUSH2 0xC43 JUMPI PUSH1 0x40 MLOAD SWAP2 POP PUSH1 0x1F NOT PUSH1 0x3F RETURNDATASIZE ADD AND DUP3 ADD PUSH1 0x40 MSTORE RETURNDATASIZE DUP3 MSTORE RETURNDATASIZE PUSH0 PUSH1 0x20 DUP5 ADD RETURNDATACOPY PUSH2 0xC48 JUMP JUMPDEST PUSH1 0x60 SWAP2 POP JUMPDEST POP POP SWAP1 POP DUP1 PUSH2 0xC8C JUMPI PUSH1 0x40 MLOAD PUSH32 0x8C379A000000000000000000000000000000000000000000000000000000000 DUP2 MSTORE PUSH1 0x4 ADD PUSH2 0xC83 SWAP1 PUSH2 0x4986 JUMP JUMPDEST PUSH1 0x40 MLOAD DUP1 SWAP2 SUB SWAP1 REVERT JUMPDEST CALLER PUSH20 0xFFFFFFFFFFFFFFFFFFFFFFFFFFFFFFFFFFFFFFFF AND PUSH32 0x10A411A628953C6FACFF7CF4822B3C924B8B4CC322922727569C217B636505A8 DUP6 DUP5 PUSH1 0x40 MLOAD PUSH2 0xCD4 SWAP3 SWAP2 SWAP1 PUSH2 0x3F77 JUMP JUMPDEST PUSH1 0x40 MLOAD DUP1 SWAP2 SUB SWAP1 LOG2 POP POP POP PUSH2 0xCE7 PUSH2 0x2451 JUMP JUMPDEST POP JUMP JUMPDEST PUSH1 0x11 SLOAD DUP2 JUMP JUMPDEST PUSH1 0x14 DUP2 JUMP JUMPDEST PUSH0 PUSH0 PUSH0 PUSH0 PUSH0 PUSH0 PUSH0 PUSH0 PUSH0 PUSH0 PUSH0 PUSH0 PUSH1 0x2 PUSH0 PUSH1 0x2 DUP2 LT PUSH2 0xD15 JUMPI PUSH2 0xD14 PUSH2 0x4423 JUMP JUMPDEST JUMPDEST PUSH1 0x7 MUL ADD PUSH0 ADD PUSH0 SWAP1 SLOAD SWAP1 PUSH2 0x100 EXP SWAP1 DIV PUSH20 0xFFFFFFFFFFFFFFFFFFFFFFFFFFFFFFFFFFFFFFFF AND SWAP10 POP PUSH1 0x2 PUSH0 PUSH1 0x2 DUP2 LT PUSH2 0xD51 JUMPI PUSH2 0xD50 PUSH2 0x4423 JUMP JUMPDEST JUMPDEST PUSH1 0x7 MUL ADD PUSH1 0x1 ADD SLOAD SWAP9 POP PUSH1 0x2 PUSH0 PUSH1 0x2 DUP2 LT PUSH2 0xD6F JUMPI PUSH2 0xD6E PUSH2 0x4423 JUMP JUMPDEST JUMPDEST PUSH1 0x7 MUL ADD PUSH1 0x3 ADD SLOAD SWAP8 POP PUSH1 0x2 PUSH0 PUSH1 0x2 DUP2 LT PUSH2 0xD8D JUMPI PUSH2 0xD8C PUSH2 0x4423 JUMP JUMPDEST JUMPDEST PUSH1 0x7 MUL ADD PUSH1 0x4 ADD PUSH0 SWAP1 SLOAD SWAP1 PUSH2 0x100 EXP SWAP1 DIV PUSH1 0xFF AND SWAP7 POP PUSH1 0x1 PUSH1 0x10 PUSH0 SWAP1 SLOAD SWAP1 PUSH2 0x100 EXP SWAP1 DIV PUSH1 0xFF AND PUSH1 0xFF AND GT ISZERO PUSH2 0xE68 JUMPI PUSH1 0x2 PUSH1 0x1 PUSH1 0x2 DUP2 LT PUSH2 0xDD2 JUMPI PUSH2 0xDD1 PUSH2 0x4423 JUMP JUMPDEST JUMPDEST PUSH1 0x7 MUL ADD PUSH0 ADD PUSH0 SWAP1 SLOAD SWAP1 PUSH2 0x100 EXP SWAP1 DIV PUSH20 0xFFFFFFFFFFFFFFFFFFFFFFFFFFFFFFFFFFFFFFFF AND SWAP6 POP PUSH1 0x2 PUSH1 0x1 PUSH1 0x2 DUP2 LT PUSH2 0xE0F JUMPI PUSH2 0xE0E PUSH2 0x4423 JUMP JUMPDEST JUMPDEST PUSH1 0x7 MUL ADD PUSH1 0x1 ADD SLOAD SWAP5 POP PUSH1 0x2 PUSH1 0x1 PUSH1 0x2 DUP2 LT PUSH2 0xE2E JUMPI PUSH2 0xE2D PUSH2 0x4423 JUMP JUMPDEST JUMPDEST PUSH1 0x7 MUL ADD PUSH1 0x3 ADD SLOAD SWAP4 POP PUSH1 0x2 PUSH1 0x1 PUSH1 0x2 DUP2 LT PUSH2 0xE4D JUMPI PUSH2 0xE4C PUSH2 0x4423 JUMP JUMPDEST JUMPDEST PUSH1 0x7 MUL ADD PUSH1 0x4 ADD PUSH0 SWAP1 SLOAD SWAP1 PUSH2 0x100 EXP SWAP1 DIV PUSH1 0xFF AND SWAP3 POP PUSH2 0xE75 JUMP JUMPDEST PUSH0 SWAP6 POP PUSH0 SWAP5 POP PUSH0 SWAP4 POP PUSH0 SWAP3 POP JUMPDEST PUSH1 0x1 PUSH1 0x4 DUP2 GT ISZERO PUSH2 0xE89 JUMPI PUSH2 0xE88 PUSH2 0x3FD2 JUMP JUMPDEST JUMPDEST PUSH1 0x1 PUSH0 SWAP1 SLOAD SWAP1 PUSH2 0x100 EXP SWAP1 DIV PUSH1 0xFF AND PUSH1 0x4 DUP2 GT ISZERO PUSH2 0xEAA JUMPI PUSH2 0xEA9 PUSH2 0x3FD2 JUMP JUMPDEST JUMPDEST EQ DUP1 PUSH2 0xEE8 JUMPI POP PUSH1 0x3 PUSH1 0x4 DUP2 GT ISZERO PUSH2 0xEC5 JUMPI PUSH2 0xEC4 PUSH2 0x3FD2 JUMP JUMPDEST JUMPDEST PUSH1 0x1 PUSH0 SWAP1 SLOAD SWAP1 PUSH2 0x100 EXP SWAP1 DIV PUSH1 0xFF AND PUSH1 0x4 DUP2 GT ISZERO PUSH2 0xEE6 JUMPI PUSH2 0xEE5 PUSH2 0x3FD2 JUMP JUMPDEST JUMPDEST EQ JUMPDEST PUSH2 0xEF2 JUMPI PUSH0 PUSH2 0xF3F JUMP JUMPDEST PUSH1 0x2 PUSH1 0x10 PUSH1 0x1 SWAP1 SLOAD SWAP1 PUSH2 0x100 EXP SWAP1 DIV PUSH1 0xFF AND PUSH1 0xFF AND PUSH1 0x2 DUP2 LT PUSH2 0xF18 JUMPI PUSH2 0xF17 PUSH2 0x4423 JUMP JUMPDEST JUMPDEST PUSH1 0x7 MUL ADD PUSH0 ADD PUSH0 SWAP1 SLOAD SWAP1 PUSH2 0x100 EXP SWAP1 DIV PUSH20 0xFFFFFFFFFFFFFFFFFFFFFFFFFFFFFFFFFFFFFFFF AND JUMPDEST SWAP2 POP PUSH1 0x1 PUSH0 SWAP1 SLOAD SWAP1 PUSH2 0x100 EXP SWAP1 DIV PUSH1 0xFF AND PUSH1 0x11 SLOAD DUP12 DUP12 DUP12 DUP12 DUP12 DUP12 DUP12 DUP12 DUP12 PUSH1 0x12 SLOAD SWAP12 POP SWAP12 POP SWAP12 POP SWAP12 POP SWAP12 POP SWAP12 POP SWAP12 POP SWAP12 POP SWAP12 POP SWAP12 POP SWAP12 POP SWAP12 POP SWAP1 SWAP2 SWAP3 SWAP4 SWAP5 SWAP6 SWAP7 SWAP8 SWAP9 SWAP10 SWAP11 SWAP12 JUMP JUMPDEST PUSH0 PUSH0 PUSH0 PUSH0 PUSH0 PUSH0 PUSH0 PUSH2 0xF95 DUP9 PUSH2 0x245A JUMP JUMPDEST SWAP1 POP DUP1 PUSH0 ADD PUSH0 SWAP1 SLOAD SWAP1 PUSH2 0x100 EXP SWAP1 DIV PUSH20 0xFFFFFFFFFFFFFFFFFFFFFFFFFFFFFFFFFFFFFFFF AND DUP2 PUSH1 0x1 ADD SLOAD DUP3 PUSH1 0x2 ADD PUSH0 SWAP1 SLOAD SWAP1 PUSH2 0x100 EXP SWAP1 DIV PUSH1 0xFF AND DUP4 PUSH1 0x3 ADD SLOAD DUP5 PUSH1 0x4 ADD PUSH0 SWAP1 SLOAD SWAP1 PUSH2 0x100 EXP SWAP1 DIV PUSH1 0xFF AND DUP6 PUSH1 0x4 ADD PUSH1 0x1 SWAP1 SLOAD SWAP1 PUSH2 0x100 EXP SWAP1 DIV PUSH1 0xFF AND SWAP7 POP SWAP7 POP SWAP7 POP SWAP7 POP SWAP7 POP SWAP7 POP POP SWAP2 SWAP4 SWAP6 POP SWAP2 SWAP4 SWAP6 JUMP JUMPDEST PUSH2 0x1016 PUSH2 0x231A JUMP JUMPDEST PUSH2 0x101E PUSH2 0x235E JUMP JUMPDEST PUSH1 0x1 PUSH1 0x4 DUP2 GT ISZERO PUSH2 0x1032 JUMPI PUSH2 0x1031 PUSH2 0x3FD2 JUMP JUMPDEST JUMPDEST PUSH1 0x1 PUSH0 SWAP1 SLOAD SWAP1 PUSH2 0x100 EXP SWAP1 DIV PUSH1 0xFF AND PUSH1 0x4 DUP2 GT ISZERO PUSH2 0x1053 JUMPI PUSH2 0x1052 PUSH2 0x3FD2 JUMP JUMPDEST JUMPDEST EQ PUSH2 0x1093 JUMPI PUSH1 0x40 MLOAD PUSH32 0x8C379A000000000000000000000000000000000000000000000000000000000 DUP2 MSTORE PUSH1 0x4 ADD PUSH2 0x108A SWAP1 PUSH2 0x42E9 JUMP JUMPDEST PUSH1 0x40 MLOAD DUP1 SWAP2 SUB SWAP1 REVERT JUMPDEST PUSH0 DUP2 GT PUSH2 0x10D5 JUMPI PUSH1 0x40 MLOAD PUSH32 0x8C379A000000000000000000000000000000000000000000000000000000000 DUP2 MSTORE PUSH1 0x4 ADD PUSH2 0x10CC SWAP1 PUSH2 0x49EE JUMP JUMPDEST PUSH1 0x40 MLOAD DUP1 SWAP2 SUB SWAP1 REVERT JUMPDEST PUSH0 PUSH1 0x12 SLOAD EQ PUSH2 0x1119 JUMPI PUSH1 0x40 MLOAD PUSH32 0x8C379A000000000000000000000000000000000000000000000000000000000 DUP2 MSTORE PUSH1 0x4 ADD PUSH2 0x1110 SWAP1 PUSH2 0x4AA2 JUMP JUMPDEST PUSH1 0x40 MLOAD DUP1 SWAP2 SUB SWAP1 REVERT JUMPDEST PUSH0 PUSH1 0x2 PUSH1 0x10 PUSH1 0x1 SWAP1 SLOAD SWAP1 PUSH2 0x100 EXP SWAP1 DIV PUSH1 0xFF AND PUSH1 0xFF AND PUSH1 0x2 DUP2 LT PUSH2 0x1140 JUMPI PUSH2 0x113F PUSH2 0x4423 JUMP JUMPDEST JUMPDEST PUSH1 0x7 MUL ADD SWAP1 POP DUP2 DUP2 PUSH1 0x1 ADD SLOAD LT ISZERO PUSH2 0x118D JUMPI PUSH1 0x40 MLOAD PUSH32 0x8C379A000000000000000000000000000000000000000000000000000000000 DUP2 MSTORE PUSH1 0x4 ADD PUSH2 0x1184 SWAP1 PUSH2 0x4B0A JUMP JUMPDEST PUSH1 0x40 MLOAD DUP1 SWAP2 SUB SWAP1 REVERT JUMPDEST DUP2 DUP2 PUSH1 0x1 ADD PUSH0 DUP3 DUP3 SLOAD PUSH2 0x11A0 SWAP2 SWAP1 PUSH2 0x447D JUMP JUMPDEST SWAP3 POP POP DUP2 SWAP1 SSTORE POP DUP2 DUP2 PUSH1 0x3 ADD PUSH0 DUP3 DUP3 SLOAD PUSH2 0x11BA SWAP2 SWAP1 PUSH2 0x4518 JUMP JUMPDEST SWAP3 POP POP DUP2 SWAP1 SSTORE POP DUP2 PUSH1 0x11 PUSH0 DUP3 DUP3 SLOAD PUSH2 0x11D2 SWAP2 SWAP1 PUSH2 0x4518 JUMP JUMPDEST SWAP3 POP POP DUP2 SWAP1 SSTORE POP DUP1 PUSH1 0x3 ADD SLOAD PUSH1 0x12 DUP2 SWAP1 SSTORE POP DUP1 PUSH0 ADD PUSH0 SWAP1 SLOAD SWAP1 PUSH2 0x100 EXP SWAP1 DIV PUSH20 0xFFFFFFFFFFFFFFFFFFFFFFFFFFFFFFFFFFFFFFFF AND PUSH1 0x13 PUSH0 PUSH2 0x100 EXP DUP2 SLOAD DUP2 PUSH20 0xFFFFFFFFFFFFFFFFFFFFFFFFFFFFFFFFFFFFFFFF MUL NOT AND SWAP1 DUP4 PUSH20 0xFFFFFFFFFFFFFFFFFFFFFFFFFFFFFFFFFFFFFFFF AND MUL OR SWAP1 SSTORE POP DUP1 PUSH0 ADD PUSH0 SWAP1 SLOAD SWAP1 PUSH2 0x100 EXP SWAP1 DIV PUSH20 0xFFFFFFFFFFFFFFFFFFFFFFFFFFFFFFFFFFFFFFFF AND PUSH20 0xFFFFFFFFFFFFFFFFFFFFFFFFFFFFFFFFFFFFFFFF AND PUSH32 0x9E17EF180BEA2554F5C3FB7836E27CFEE9ED413E79550ADCED153652E3141843 DUP4 PUSH1 0x40 MLOAD PUSH2 0x12AE SWAP2 SWAP1 PUSH2 0x3F5E JUMP JUMPDEST PUSH1 0x40 MLOAD DUP1 SWAP2 SUB SWAP1 LOG2 PUSH2 0x12BE PUSH2 0x2419 JUMP JUMPDEST POP PUSH2 0x12C7 PUSH2 0x2451 JUMP JUMPDEST POP JUMP JUMPDEST PUSH2 0x12D2 PUSH2 0x231A JUMP JUMPDEST PUSH2 0x12DA PUSH2 0x235E JUMP JUMPDEST PUSH1 0x1 PUSH1 0x4 DUP2 GT ISZERO PUSH2 0x12EE JUMPI PUSH2 0x12ED PUSH2 0x3FD2 JUMP JUMPDEST JUMPDEST PUSH1 0x1 PUSH0 SWAP1 SLOAD SWAP1 PUSH2 0x100 EXP SWAP1 DIV PUSH1 0xFF AND PUSH1 0x4 DUP2 GT ISZERO PUSH2 0x130F JUMPI PUSH2 0x130E PUSH2 0x3FD2 JUMP JUMPDEST JUMPDEST EQ PUSH2 0x134F JUMPI PUSH1 0x40 MLOAD PUSH32 0x8C379A000000000000000000000000000000000000000000000000000000000 DUP2 MSTORE PUSH1 0x4 ADD PUSH2 0x1346 SWAP1 PUSH2 0x42E9 JUMP JUMPDEST PUSH1 0x40 MLOAD DUP1 SWAP2 SUB SWAP1 REVERT JUMPDEST PUSH0 PUSH1 0x12 SLOAD GT PUSH2 0x1393 JUMPI PUSH1 0x40 MLOAD PUSH32 0x8C379A000000000000000000000000000000000000000000000000000000000 DUP2 MSTORE PUSH1 0x4 ADD PUSH2 0x138A SWAP1 PUSH2 0x4B72 JUMP JUMPDEST PUSH1 0x40 MLOAD DUP1 SWAP2 SUB SWAP1 REVERT JUMPDEST PUSH0 PUSH1 0x2 PUSH1 0x10 PUSH1 0x1 SWAP1 SLOAD SWAP1 PUSH2 0x100 EXP SWAP1 DIV PUSH1 0xFF AND PUSH1 0xFF AND PUSH1 0x2 DUP2 LT PUSH2 0x13BA JUMPI PUSH2 0x13B9 PUSH2 0x4423 JUMP JUMPDEST JUMPDEST PUSH1 0x7 MUL ADD SWAP1 POP PUSH0 DUP2 PUSH1 0x3 ADD SLOAD PUSH1 0x12 SLOAD PUSH2 0x13D3 SWAP2 SWAP1 PUSH2 0x447D JUMP JUMPDEST SWAP1 POP PUSH0 DUP2 GT PUSH2 0x1417 JUMPI PUSH1 0x40 MLOAD PUSH32 0x8C379A000000000000000000000000000000000000000000000000000000000 DUP2 MSTORE PUSH1 0x4 ADD PUSH2 0x140E SWAP1 PUSH2 0x4C00 JUMP JUMPDEST PUSH1 0x40 MLOAD DUP1 SWAP2 SUB SWAP1 REVERT JUMPDEST DUP1 DUP3 PUSH1 0x1 ADD SLOAD GT PUSH2 0x14F8 JUMPI PUSH0 DUP3 PUSH1 0x1 ADD SLOAD SWAP1 POP DUP1 PUSH1 0x11 PUSH0 DUP3 DUP3 SLOAD PUSH2 0x143B SWAP2 SWAP1 PUSH2 0x4518 JUMP JUMPDEST SWAP3 POP POP DUP2 SWAP1 SSTORE POP DUP1 DUP4 PUSH1 0x3 ADD PUSH0 DUP3 DUP3 SLOAD PUSH2 0x1455 SWAP2 SWAP1 PUSH2 0x4518 JUMP JUMPDEST SWAP3 POP POP DUP2 SWAP1 SSTORE POP PUSH0 DUP4 PUSH1 0x1 ADD DUP2 SWAP1 SSTORE POP PUSH1 0x1 DUP4 PUSH1 0x4 ADD PUSH1 0x1 PUSH2 0x100 EXP DUP2 SLOAD DUP2 PUSH1 0xFF MUL NOT AND SWAP1 DUP4 ISZERO ISZERO MUL OR SWAP1 SSTORE POP DUP3 PUSH0 ADD PUSH0 SWAP1 SLOAD SWAP1 PUSH2 0x100 EXP SWAP1 DIV PUSH20 0xFFFFFFFFFFFFFFFFFFFFFFFFFFFFFFFFFFFFFFFF AND PUSH20 0xFFFFFFFFFFFFFFFFFFFFFFFFFFFFFFFFFFFFFFFF AND PUSH32 0x1EFE18FA0EE5FA18DBC4BDCEC4958E3699BF04A5FA0BC93D0DBFC4732D4290B8 DUP3 PUSH1 0x40 MLOAD PUSH2 0x14EA SWAP2 SWAP1 PUSH2 0x3F5E JUMP JUMPDEST PUSH1 0x40 MLOAD DUP1 SWAP2 SUB SWAP1 LOG2 POP PUSH2 0x15B5 JUMP JUMPDEST DUP1 DUP3 PUSH1 0x1 ADD PUSH0 DUP3 DUP3 SLOAD PUSH2 0x150B SWAP2 SWAP1 PUSH2 0x447D JUMP JUMPDEST SWAP3 POP POP DUP2 SWAP1 SSTORE POP DUP1 DUP3 PUSH1 0x3 ADD PUSH0 DUP3 DUP3 SLOAD PUSH2 0x1525 SWAP2 SWAP1 PUSH2 0x4518 JUMP JUMPDEST SWAP3 POP POP DUP2 SWAP1 SSTORE POP DUP1 PUSH1 0x11 PUSH0 DUP3 DUP3 SLOAD PUSH2 0x153D SWAP2 SWAP1 PUSH2 0x4518 JUMP JUMPDEST SWAP3 POP POP DUP2 SWAP1 SSTORE POP DUP2 PUSH0 ADD PUSH0 SWAP1 SLOAD SWAP1 PUSH2 0x100 EXP SWAP1 DIV PUSH20 0xFFFFFFFFFFFFFFFFFFFFFFFFFFFFFFFFFFFFFFFF AND PUSH20 0xFFFFFFFFFFFFFFFFFFFFFFFFFFFFFFFFFFFFFFFF AND PUSH32 0x56E2553D0F74A9BB2A53FBFE35B858C21D7CED66CFD06949BF151C2F0A0CA1D6 DUP3 PUSH1 0x40 MLOAD PUSH2 0x15AC SWAP2 SWAP1 PUSH2 0x3F5E JUMP JUMPDEST PUSH1 0x40 MLOAD DUP1 SWAP2 SUB SWAP1 LOG2 JUMPDEST PUSH1 0x13 PUSH0 SWAP1 SLOAD SWAP1 PUSH2 0x100 EXP SWAP1 DIV PUSH20 0xFFFFFFFFFFFFFFFFFFFFFFFFFFFFFFFFFFFFFFFF AND PUSH20 0xFFFFFFFFFFFFFFFFFFFFFFFFFFFFFFFFFFFFFFFF AND DUP3 PUSH0 ADD PUSH0 SWAP1 SLOAD SWAP1 PUSH2 0x100 EXP SWAP1 DIV PUSH20 0xFFFFFFFFFFFFFFFFFFFFFFFFFFFFFFFFFFFFFFFF AND PUSH20 0xFFFFFFFFFFFFFFFFFFFFFFFFFFFFFFFFFFFFFFFF AND EQ ISZERO DUP1 ISZERO PUSH2 0x1639 JUMPI POP PUSH1 0x12 SLOAD DUP3 PUSH1 0x3 ADD SLOAD EQ JUMPDEST ISZERO PUSH2 0x164B JUMPI PUSH2 0x1646 PUSH2 0x255C JUMP JUMPDEST PUSH2 0x1654 JUMP JUMPDEST PUSH2 0x1653 PUSH2 0x255C JUMP JUMPDEST JUMPDEST POP POP PUSH2 0x165E PUSH2 0x2451 JUMP JUMPDEST JUMP JUMPDEST PUSH0 PUSH1 0x2 PUSH1 0x10 PUSH0 SWAP1 SLOAD SWAP1 PUSH2 0x100 EXP SWAP1 DIV PUSH1 0xFF AND PUSH1 0xFF AND EQ PUSH2 0x16B5 JUMPI PUSH1 0x40 MLOAD PUSH32 0x8C379A000000000000000000000000000000000000000000000000000000000 DUP2 MSTORE PUSH1 0x4 ADD PUSH2 0x16AC SWAP1 PUSH2 0x4C68 JUMP JUMPDEST PUSH1 0x40 MLOAD DUP1 SWAP2 SUB SWAP1 REVERT JUMPDEST PUSH0 PUSH1 0x4 DUP2 GT ISZERO PUSH2 0x16C8 JUMPI PUSH2 0x16C7 PUSH2 0x3FD2 JUMP JUMPDEST JUMPDEST PUSH1 0x1 PUSH0 SWAP1 SLOAD SWAP1 PUSH2 0x100 EXP SWAP1 DIV PUSH1 0xFF AND PUSH1 0x4 DUP2 GT ISZERO PUSH2 0x16E9 JUMPI PUSH2 0x16E8 PUSH2 0x3FD2 JUMP JUMPDEST JUMPDEST EQ ISZERO DUP1 ISZERO PUSH2 0x1729 JUMPI POP PUSH1 0x4 DUP1 DUP2 GT ISZERO PUSH2 0x1705 JUMPI PUSH2 0x1704 PUSH2 0x3FD2 JUMP JUMPDEST JUMPDEST PUSH1 0x1 PUSH0 SWAP1 SLOAD SWAP1 PUSH2 0x100 EXP SWAP1 DIV PUSH1 0xFF AND PUSH1 0x4 DUP2 GT ISZERO PUSH2 0x1726 JUMPI PUSH2 0x1725 PUSH2 0x3FD2 JUMP JUMPDEST JUMPDEST EQ ISZERO JUMPDEST PUSH2 0x1768 JUMPI PUSH1 0x40 MLOAD PUSH32 0x8C379A000000000000000000000000000000000000000000000000000000000 DUP2 MSTORE PUSH1 0x4 ADD PUSH2 0x175F SWAP1 PUSH2 0x4CD0 JUMP JUMPDEST PUSH1 0x40 MLOAD DUP1 SWAP2 SUB SWAP1 REVERT JUMPDEST PUSH0 PUSH1 0x2 PUSH0 PUSH1 0x2 DUP2 LT PUSH2 0x177D JUMPI PUSH2 0x177C PUSH2 0x4423 JUMP JUMPDEST JUMPDEST PUSH1 0x7 MUL ADD PUSH0 ADD PUSH0 SWAP1 SLOAD SWAP1 PUSH2 0x100 EXP SWAP1 DIV PUSH20 0xFFFFFFFFFFFFFFFFFFFFFFFFFFFFFFFFFFFFFFFF AND PUSH20 0xFFFFFFFFFFFFFFFFFFFFFFFFFFFFFFFFFFFFFFFF AND CALLER PUSH20 0xFFFFFFFFFFFFFFFFFFFFFFFFFFFFFFFFFFFFFFFF AND SUB PUSH2 0x17DE JUMPI PUSH1 0x1 SWAP1 POP PUSH2 0x188F JUMP JUMPDEST PUSH1 0x2 PUSH1 0x1 PUSH1 0x2 DUP2 LT PUSH2 0x17F3 JUMPI PUSH2 0x17F2 PUSH2 0x4423 JUMP JUMPDEST JUMPDEST PUSH1 0x7 MUL ADD PUSH0 ADD PUSH0 SWAP1 SLOAD SWAP1 PUSH2 0x100 EXP SWAP1 DIV PUSH20 0xFFFFFFFFFFFFFFFFFFFFFFFFFFFFFFFFFFFFFFFF AND PUSH20 0xFFFFFFFFFFFFFFFFFFFFFFFFFFFFFFFFFFFFFFFF AND CALLER PUSH20 0xFFFFFFFFFFFFFFFFFFFFFFFFFFFFFFFFFFFFFFFF AND SUB PUSH2 0x1853 JUMPI PUSH0 SWAP1 POP PUSH2 0x188E JUMP JUMPDEST PUSH1 0x40 MLOAD PUSH32 0x8C379A000000000000000000000000000000000000000000000000000000000 DUP2 MSTORE PUSH1 0x4 ADD PUSH2 0x1885 SWAP1 PUSH2 0x4D38 JUMP JUMPDEST PUSH1 0x40 MLOAD DUP1 SWAP2 SUB SWAP1 REVERT JUMPDEST JUMPDEST PUSH1 0x3 PUSH1 0x4 DUP2 GT ISZERO PUSH2 0x18A3 JUMPI PUSH2 0x18A2 PUSH2 0x3FD2 JUMP JUMPDEST JUMPDEST PUSH1 0x1 PUSH0 SWAP1 SLOAD SWAP1 PUSH2 0x100 EXP SWAP1 DIV PUSH1 0xFF AND PUSH1 0x4 DUP2 GT ISZERO PUSH2 0x18C4 JUMPI PUSH2 0x18C3 PUSH2 0x3FD2 JUMP JUMPDEST JUMPDEST EQ DUP1 ISZERO PUSH2 0x18F8 JUMPI POP PUSH1 0x2 DUP2 PUSH1 0xFF AND PUSH1 0x2 DUP2 LT PUSH2 0x18E3 JUMPI PUSH2 0x18E2 PUSH2 0x4423 JUMP JUMPDEST JUMPDEST PUSH1 0x7 MUL ADD PUSH1 0x6 ADD PUSH0 SWAP1 SLOAD SWAP1 PUSH2 0x100 EXP SWAP1 DIV PUSH1 0xFF AND JUMPDEST ISZERO PUSH2 0x1931 JUMPI PUSH1 0x2 DUP2 PUSH1 0xFF AND PUSH1 0x2 DUP2 LT PUSH2 0x1914 JUMPI PUSH2 0x1913 PUSH2 0x4423 JUMP JUMPDEST JUMPDEST PUSH1 0x7 MUL ADD PUSH1 0x6 ADD PUSH1 0x1 SWAP1 SLOAD SWAP1 PUSH2 0x100 EXP SWAP1 DIV PUSH1 0xFF AND SWAP2 POP POP PUSH2 0x1960 JUMP JUMPDEST PUSH1 0x2 DUP2 PUSH1 0xFF AND PUSH1 0x2 DUP2 LT PUSH2 0x1948 JUMPI PUSH2 0x1947 PUSH2 0x4423 JUMP JUMPDEST JUMPDEST PUSH1 0x7 MUL ADD PUSH1 0x2 ADD PUSH0 SWAP1 SLOAD SWAP1 PUSH2 0x100 EXP SWAP1 DIV PUSH1 0xFF AND SWAP2 POP POP JUMPDEST SWAP1 JUMP JUMPDEST PUSH2 0x196B PUSH2 0x231A JUMP JUMPDEST PUSH1 0x2 PUSH1 0x10 PUSH0 SWAP1 SLOAD SWAP1 PUSH2 0x100 EXP SWAP1 DIV PUSH1 0xFF AND PUSH1 0xFF AND LT PUSH2 0x19BF JUMPI PUSH1 0x40 MLOAD PUSH32 0x8C379A000000000000000000000000000000000000000000000000000000000 DUP2 MSTORE PUSH1 0x4 ADD PUSH2 0x19B6 SWAP1 PUSH2 0x4DA0 JUMP JUMPDEST PUSH1 0x40 MLOAD DUP1 SWAP2 SUB SWAP1 REVERT JUMPDEST PUSH7 0x38D7EA4C68000 CALLVALUE EQ PUSH2 0x1A08 JUMPI PUSH1 0x40 MLOAD PUSH32 0x8C379A000000000000000000000000000000000000000000000000000000000 DUP2 MSTORE PUSH1 0x4 ADD PUSH2 0x19FF SWAP1 PUSH2 0x4E2E JUMP JUMPDEST PUSH1 0x40 MLOAD DUP1 SWAP2 SUB SWAP1 REVERT JUMPDEST PUSH0 PUSH0 SWAP1 POP JUMPDEST PUSH1 0x10 PUSH0 SWAP1 SLOAD SWAP1 PUSH2 0x100 EXP SWAP1 DIV PUSH1 0xFF AND PUSH1 0xFF AND DUP2 PUSH1 0xFF AND LT ISZERO PUSH2 0x1AE0 JUMPI CALLER PUSH20 0xFFFFFFFFFFFFFFFFFFFFFFFFFFFFFFFFFFFFFFFF AND PUSH1 0x2 DUP3 PUSH1 0xFF AND PUSH1 0x2 DUP2 LT PUSH2 0x1A57 JUMPI PUSH2 0x1A56 PUSH2 0x4423 JUMP JUMPDEST JUMPDEST PUSH1 0x7 MUL ADD PUSH0 ADD PUSH0 SWAP1 SLOAD SWAP1 PUSH2 0x100 EXP SWAP1 DIV PUSH20 0xFFFFFFFFFFFFFFFFFFFFFFFFFFFFFFFFFFFFFFFF AND PUSH20 0xFFFFFFFFFFFFFFFFFFFFFFFFFFFFFFFFFFFFFFFF AND SUB PUSH2 0x1AD3 JUMPI PUSH1 0x40 MLOAD PUSH32 0x8C379A000000000000000000000000000000000000000000000000000000000 DUP2 MSTORE PUSH1 0x4 ADD PUSH2 0x1ACA SWAP1 PUSH2 0x4E96 JUMP JUMPDEST PUSH1 0x40 MLOAD DUP1 SWAP2 SUB SWAP1 REVERT JUMPDEST DUP1 DUP1 PUSH1 0x1 ADD SWAP2 POP POP PUSH2 0x1A0D JUMP JUMPDEST POP PUSH1 0x40 MLOAD DUP1 PUSH2 0x120 ADD PUSH1 0x40 MSTORE DUP1 CALLER PUSH20 0xFFFFFFFFFFFFFFFFFFFFFFFFFFFFFFFFFFFFFFFF AND DUP2 MSTORE PUSH1 0x20 ADD PUSH1 0x14 DUP2 MSTORE PUSH1 0x20 ADD PUSH0 PUSH1 0xFF AND DUP2 MSTORE PUSH1 0x20 ADD PUSH0 DUP2 MSTORE PUSH1 0x20 ADD PUSH0 ISZERO ISZERO DUP2 MSTORE PUSH1 0x20 ADD PUSH0 ISZERO ISZERO DUP2 MSTORE PUSH1 0x20 ADD PUSH1 0x14 DUP2 MSTORE PUSH1 0x20 ADD PUSH0 ISZERO ISZERO DUP2 MSTORE PUSH1 0x20 ADD PUSH0 PUSH1 0xFF AND DUP2 MSTORE POP PUSH1 0x2 PUSH1 0x10 PUSH0 SWAP1 SLOAD SWAP1 PUSH2 0x100 EXP SWAP1 DIV PUSH1 0xFF AND PUSH1 0xFF AND PUSH1 0x2 DUP2 LT PUSH2 0x1B6A JUMPI PUSH2 0x1B69 PUSH2 0x4423 JUMP JUMPDEST JUMPDEST PUSH1 0x7 MUL ADD PUSH0 DUP3 ADD MLOAD DUP2 PUSH0 ADD PUSH0 PUSH2 0x100 EXP DUP2 SLOAD DUP2 PUSH20 0xFFFFFFFFFFFFFFFFFFFFFFFFFFFFFFFFFFFFFFFF MUL NOT AND SWAP1 DUP4 PUSH20 0xFFFFFFFFFFFFFFFFFFFFFFFFFFFFFFFFFFFFFFFF AND MUL OR SWAP1 SSTORE POP PUSH1 0x20 DUP3 ADD MLOAD DUP2 PUSH1 0x1 ADD SSTORE PUSH1 0x40 DUP3 ADD MLOAD DUP2 PUSH1 0x2 ADD PUSH0 PUSH2 0x100 EXP DUP2 SLOAD DUP2 PUSH1 0xFF MUL NOT AND SWAP1 DUP4 PUSH1 0xFF AND MUL OR SWAP1 SSTORE POP PUSH1 0x60 DUP3 ADD MLOAD DUP2 PUSH1 0x3 ADD SSTORE PUSH1 0x80 DUP3 ADD MLOAD DUP2 PUSH1 0x4 ADD PUSH0 PUSH2 0x100 EXP DUP2 SLOAD DUP2 PUSH1 0xFF MUL NOT AND SWAP1 DUP4 ISZERO ISZERO MUL OR SWAP1 SSTORE POP PUSH1 0xA0 DUP3 ADD MLOAD DUP2 PUSH1 0x4 ADD PUSH1 0x1 PUSH2 0x100 EXP DUP2 SLOAD DUP2 PUSH1 0xFF MUL NOT AND SWAP1 DUP4 ISZERO ISZERO MUL OR SWAP1 SSTORE POP PUSH1 0xC0 DUP3 ADD MLOAD DUP2 PUSH1 0x5 ADD SSTORE PUSH1 0xE0 DUP3 ADD MLOAD DUP2 PUSH1 0x6 ADD PUSH0 PUSH2 0x100 EXP DUP2 SLOAD DUP2 PUSH1 0xFF MUL NOT AND SWAP1 DUP4 ISZERO ISZERO MUL OR SWAP1 SSTORE POP PUSH2 0x100 DUP3 ADD MLOAD DUP2 PUSH1 0x6 ADD PUSH1 0x1 PUSH2 0x100 EXP DUP2 SLOAD DUP2 PUSH1 0xFF MUL NOT AND SWAP1 DUP4 PUSH1 0xFF AND MUL OR SWAP1 SSTORE POP SWAP1 POP POP PUSH1 0x10 PUSH0 DUP2 DUP2 SWAP1 SLOAD SWAP1 PUSH2 0x100 EXP SWAP1 DIV PUSH1 0xFF AND DUP1 SWAP3 SWAP2 SWAP1 PUSH2 0x1C91 SWAP1 PUSH2 0x4EB4 JUMP JUMPDEST SWAP2 SWAP1 PUSH2 0x100 EXP DUP2 SLOAD DUP2 PUSH1 0xFF MUL NOT AND SWAP1 DUP4 PUSH1 0xFF AND MUL OR SWAP1 SSTORE POP POP CALLER PUSH20 0xFFFFFFFFFFFFFFFFFFFFFFFFFFFFFFFFFFFFFFFF AND PUSH32 0x3330A6773675F31F62070870F40379F8C6D42E3761410011A4DFC42B18043D2F PUSH1 0x14 PUSH1 0x40 MLOAD PUSH2 0x1CF1 SWAP2 SWAP1 PUSH2 0x3F5E JUMP JUMPDEST PUSH1 0x40 MLOAD DUP1 SWAP2 SUB SWAP1 LOG2 PUSH1 0x2 PUSH1 0x10 PUSH0 SWAP1 SLOAD SWAP1 PUSH2 0x100 EXP SWAP1 DIV PUSH1 0xFF AND PUSH1 0xFF AND SUB PUSH2 0x1D1B JUMPI PUSH2 0x1D1A PUSH2 0x2715 JUMP JUMPDEST JUMPDEST PUSH2 0x1D23 PUSH2 0x2451 JUMP JUMPDEST JUMP JUMPDEST PUSH7 0x38D7EA4C68000 DUP2 JUMP JUMPDEST PUSH0 PUSH0 PUSH1 0x1 PUSH6 0x2D79883D2000 SWAP2 POP SWAP2 POP SWAP1 SWAP2 JUMP JUMPDEST PUSH1 0x2 DUP2 PUSH1 0x2 DUP2 LT PUSH2 0x1D52 JUMPI PUSH0 DUP1 REVERT JUMPDEST PUSH1 0x7 MUL ADD PUSH0 SWAP2 POP SWAP1 POP DUP1 PUSH0 ADD PUSH0 SWAP1 SLOAD SWAP1 PUSH2 0x100 EXP SWAP1 DIV PUSH20 0xFFFFFFFFFFFFFFFFFFFFFFFFFFFFFFFFFFFFFFFF AND SWAP1 DUP1 PUSH1 0x1 ADD SLOAD SWAP1 DUP1 PUSH1 0x2 ADD PUSH0 SWAP1 SLOAD SWAP1 PUSH2 0x100 EXP SWAP1 DIV PUSH1 0xFF AND SWAP1 DUP1 PUSH1 0x3 ADD SLOAD SWAP1 DUP1 PUSH1 0x4 ADD PUSH0 SWAP1 SLOAD SWAP1 PUSH2 0x100 EXP SWAP1 DIV PUSH1 0xFF AND SWAP1 DUP1 PUSH1 0x4 ADD PUSH1 0x1 SWAP1 SLOAD SWAP1 PUSH2 0x100 EXP SWAP1 DIV PUSH1 0xFF AND SWAP1 DUP1 PUSH1 0x5 ADD SLOAD SWAP1 DUP1 PUSH1 0x6 ADD PUSH0 SWAP1 SLOAD SWAP1 PUSH2 0x100 EXP SWAP1 DIV PUSH1 0xFF AND SWAP1 DUP1 PUSH1 0x6 ADD PUSH1 0x1 SWAP1 SLOAD SWAP1 PUSH2 0x100 EXP SWAP1 DIV PUSH1 0xFF AND SWAP1 POP DUP10 JUMP JUMPDEST PUSH1 0x12 SLOAD DUP2 JUMP JUMPDEST PUSH1 0x10 PUSH1 0x1 SWAP1 SLOAD SWAP1 PUSH2 0x100 EXP SWAP1 DIV PUSH1 0xFF AND DUP2 JUMP JUMPDEST PUSH2 0x1E12 PUSH2 0x231A JUMP JUMPDEST PUSH2 0x1E1A PUSH2 0x235E JUMP JUMPDEST PUSH1 0x1 PUSH1 0x4 DUP2 GT ISZERO PUSH2 0x1E2E JUMPI PUSH2 0x1E2D PUSH2 0x3FD2 JUMP JUMPDEST JUMPDEST PUSH1 0x1 PUSH0 SWAP1 SLOAD SWAP1 PUSH2 0x100 EXP SWAP1 DIV PUSH1 0xFF AND PUSH1 0x4 DUP2 GT ISZERO PUSH2 0x1E4F JUMPI PUSH2 0x1E4E PUSH2 0x3FD2 JUMP JUMPDEST JUMPDEST EQ DUP1 PUSH2 0x1E8D JUMPI POP PUSH1 0x3 PUSH1 0x4 DUP2 GT ISZERO PUSH2 0x1E6A JUMPI PUSH2 0x1E69 PUSH2 0x3FD2 JUMP JUMPDEST JUMPDEST PUSH1 0x1 PUSH0 SWAP1 SLOAD SWAP1 PUSH2 0x100 EXP SWAP1 DIV PUSH1 0xFF AND PUSH1 0x4 DUP2 GT ISZERO PUSH2 0x1E8B JUMPI PUSH2 0x1E8A PUSH2 0x3FD2 JUMP JUMPDEST JUMPDEST EQ JUMPDEST PUSH2 0x1ECC JUMPI PUSH1 0x40 MLOAD PUSH32 0x8C379A000000000000000000000000000000000000000000000000000000000 DUP2 MSTORE PUSH1 0x4 ADD PUSH2 0x1EC3 SWAP1 PUSH2 0x4F4C JUMP JUMPDEST PUSH1 0x40 MLOAD DUP1 SWAP2 SUB SWAP1 REVERT JUMPDEST PUSH0 PUSH1 0x2 PUSH1 0x10 PUSH1 0x1 SWAP1 SLOAD SWAP1 PUSH2 0x100 EXP SWAP1 DIV PUSH1 0xFF AND PUSH1 0xFF AND PUSH1 0x2 DUP2 LT PUSH2 0x1EF3 JUMPI PUSH2 0x1EF2 PUSH2 0x4423 JUMP JUMPDEST JUMPDEST PUSH1 0x7 MUL ADD SWAP1 POP PUSH1 0x1 DUP2 PUSH1 0x4 ADD PUSH0 PUSH2 0x100 EXP DUP2 SLOAD DUP2 PUSH1 0xFF MUL NOT AND SWAP1 DUP4 ISZERO ISZERO MUL OR SWAP1 SSTORE POP DUP1 PUSH0 ADD PUSH0 SWAP1 SLOAD SWAP1 PUSH2 0x100 EXP SWAP1 DIV PUSH20 0xFFFFFFFFFFFFFFFFFFFFFFFFFFFFFFFFFFFFFFFF AND PUSH20 0xFFFFFFFFFFFFFFFFFFFFFFFFFFFFFFFFFFFFFFFF AND PUSH32 0xFFD9118163057444BB5E3809D9D4297382740F1B9DCC7B984DEB91C9DC39AEA1 PUSH1 0x40 MLOAD PUSH1 0x40 MLOAD DUP1 SWAP2 SUB SWAP1 LOG2 PUSH1 0xE PUSH1 0xFF AND DUP2 PUSH1 0x2 ADD PUSH0 SWAP1 SLOAD SWAP1 PUSH2 0x100 EXP SWAP1 DIV PUSH1 0xFF AND PUSH1 0xFF AND SUB PUSH2 0x208A JUMPI PUSH0 PUSH1 0x2 DUP3 PUSH1 0x1 ADD SLOAD PUSH2 0x1FAA SWAP2 SWAP1 PUSH2 0x469E JUMP JUMPDEST SWAP1 POP PUSH0 PUSH1 0x2 DUP4 PUSH1 0x1 ADD SLOAD PUSH2 0x1FBE SWAP2 SWAP1 PUSH2 0x45E0 JUMP JUMPDEST EQ PUSH2 0x1FD2 JUMPI DUP1 DUP1 PUSH2 0x1FCE SWAP1 PUSH2 0x4F6A JUMP JUMPDEST SWAP2 POP POP JUMPDEST DUP1 DUP3 PUSH1 0x1 ADD SLOAD LT ISZERO PUSH2 0x1FE6 JUMPI DUP2 PUSH1 0x1 ADD SLOAD SWAP1 POP JUMPDEST DUP1 DUP3 PUSH1 0x1 ADD PUSH0 DUP3 DUP3 SLOAD PUSH2 0x1FF9 SWAP2 SWAP1 PUSH2 0x447D JUMP JUMPDEST SWAP3 POP POP DUP2 SWAP1 SSTORE POP DUP1 PUSH1 0x11 PUSH0 DUP3 DUP3 SLOAD PUSH2 0x2011 SWAP2 SWAP1 PUSH2 0x4518 JUMP JUMPDEST SWAP3 POP POP DUP2 SWAP1 SSTORE POP DUP2 PUSH0 ADD PUSH0 SWAP1 SLOAD SWAP1 PUSH2 0x100 EXP SWAP1 DIV PUSH20 0xFFFFFFFFFFFFFFFFFFFFFFFFFFFFFFFFFFFFFFFF AND PUSH20 0xFFFFFFFFFFFFFFFFFFFFFFFFFFFFFFFFFFFFFFFF AND PUSH32 0x4CA7D74DACBFED7E9A76DD08AC8E6686FCBFC2B45B84D18B884285C2E58D54D7 DUP3 PUSH1 0x40 MLOAD PUSH2 0x2080 SWAP2 SWAP1 PUSH2 0x3F5E JUMP JUMPDEST PUSH1 0x40 MLOAD DUP1 SWAP2 SUB SWAP1 LOG2 POP JUMPDEST PUSH2 0x2092 PUSH2 0x2ADA JUMP JUMPDEST POP PUSH2 0x209B PUSH2 0x2451 JUMP JUMPDEST JUMP JUMPDEST PUSH2 0x20A5 PUSH2 0x231A JUMP JUMPDEST PUSH1 0x2 PUSH1 0x10 PUSH0 SWAP1 SLOAD SWAP1 PUSH2 0x100 EXP SWAP1 DIV PUSH1 0xFF AND PUSH1 0xFF AND EQ PUSH2 0x20F9 JUMPI PUSH1 0x40 MLOAD PUSH32 0x8C379A000000000000000000000000000000000000000000000000000000000 DUP2 MSTORE PUSH1 0x4 ADD PUSH2 0x20F0 SWAP1 PUSH2 0x4FFB JUMP JUMPDEST PUSH1 0x40 MLOAD DUP1 SWAP2 SUB SWAP1 REVERT JUMPDEST PUSH1 0x4 DUP1 DUP2 GT ISZERO PUSH2 0x210C JUMPI PUSH2 0x210B PUSH2 0x3FD2 JUMP JUMPDEST JUMPDEST PUSH1 0x1 PUSH0 SWAP1 SLOAD SWAP1 PUSH2 0x100 EXP SWAP1 DIV PUSH1 0xFF AND PUSH1 0x4 DUP2 GT ISZERO PUSH2 0x212D JUMPI PUSH2 0x212C PUSH2 0x3FD2 JUMP JUMPDEST JUMPDEST EQ PUSH2 0x216D JUMPI PUSH1 0x40 MLOAD PUSH32 0x8C379A000000000000000000000000000000000000000000000000000000000 DUP2 MSTORE PUSH1 0x4 ADD PUSH2 0x2164 SWAP1 PUSH2 0x5089 JUMP JUMPDEST PUSH1 0x40 MLOAD DUP1 SWAP2 SUB SWAP1 REVERT JUMPDEST PUSH0 PUSH1 0x2 PUSH0 PUSH1 0x2 DUP2 LT PUSH2 0x2182 JUMPI PUSH2 0x2181 PUSH2 0x4423 JUMP JUMPDEST JUMPDEST PUSH1 0x7 MUL ADD PUSH1 0x1 ADD SLOAD GT DUP1 ISZERO PUSH2 0x21B2 JUMPI POP PUSH0 PUSH1 0x2 PUSH1 0x1 PUSH1 0x2 DUP2 LT PUSH2 0x21A8 JUMPI PUSH2 0x21A7 PUSH2 0x4423 JUMP JUMPDEST JUMPDEST PUSH1 0x7 MUL ADD PUSH1 0x1 ADD SLOAD GT JUMPDEST PUSH2 0x21F1 JUMPI PUSH1 0x40 MLOAD PUSH32 0x8C379A000000000000000000000000000000000000000000000000000000000 DUP2 MSTORE PUSH1 0x4 ADD PUSH2 0x21E8 SWAP1 PUSH2 0x5117 JUMP JUMPDEST PUSH1 0x40 MLOAD DUP1 SWAP2 SUB SWAP1 REVERT JUMPDEST PUSH1 0x2 PUSH0 PUSH1 0x2 DUP2 LT PUSH2 0x2205 JUMPI PUSH2 0x2204 PUSH2 0x4423 JUMP JUMPDEST JUMPDEST PUSH1 0x7 MUL ADD PUSH0 ADD PUSH0 SWAP1 SLOAD SWAP1 PUSH2 0x100 EXP SWAP1 DIV PUSH20 0xFFFFFFFFFFFFFFFFFFFFFFFFFFFFFFFFFFFFFFFF AND PUSH20 0xFFFFFFFFFFFFFFFFFFFFFFFFFFFFFFFFFFFFFFFF AND CALLER PUSH20 0xFFFFFFFFFFFFFFFFFFFFFFFFFFFFFFFFFFFFFFFF AND EQ DUP1 PUSH2 0x22C9 JUMPI POP PUSH1 0x2 PUSH1 0x1 PUSH1 0x2 DUP2 LT PUSH2 0x2274 JUMPI PUSH2 0x2273 PUSH2 0x4423 JUMP JUMPDEST JUMPDEST PUSH1 0x7 MUL ADD PUSH0 ADD PUSH0 SWAP1 SLOAD SWAP1 PUSH2 0x100 EXP SWAP1 DIV PUSH20 0xFFFFFFFFFFFFFFFFFFFFFFFFFFFFFFFFFFFFFFFF AND PUSH20 0xFFFFFFFFFFFFFFFFFFFFFFFFFFFFFFFFFFFFFFFF AND CALLER PUSH20 0xFFFFFFFFFFFFFFFFFFFFFFFFFFFFFFFFFFFFFFFF AND EQ JUMPDEST PUSH2 0x2308 JUMPI PUSH1 0x40 MLOAD PUSH32 0x8C379A000000000000000000000000000000000000000000000000000000000 DUP2 MSTORE PUSH1 0x4 ADD PUSH2 0x22FF SWAP1 PUSH2 0x51A5 JUMP JUMPDEST PUSH1 0x40 MLOAD DUP1 SWAP2 SUB SWAP1 REVERT JUMPDEST PUSH2 0x2310 PUSH2 0x2715 JUMP JUMPDEST PUSH2 0x2318 PUSH2 0x2451 JUMP JUMPDEST JUMP JUMPDEST PUSH1 0x2 PUSH0 SLOAD SUB PUSH2 0x2355 JUMPI PUSH1 0x40 MLOAD PUSH32 0x3EE5AEB500000000000000000000000000000000000000000000000000000000 DUP2 MSTORE PUSH1 0x4 ADD PUSH1 0x40 MLOAD DUP1 SWAP2 SUB SWAP1 REVERT JUMPDEST PUSH1 0x2 PUSH0 DUP2 SWAP1 SSTORE POP JUMP JUMPDEST PUSH1 0x2 PUSH1 0x10 PUSH1 0x1 SWAP1 SLOAD SWAP1 PUSH2 0x100 EXP SWAP1 DIV PUSH1 0xFF AND PUSH1 0xFF AND PUSH1 0x2 DUP2 LT PUSH2 0x2384 JUMPI PUSH2 0x2383 PUSH2 0x4423 JUMP JUMPDEST JUMPDEST PUSH1 0x7 MUL ADD PUSH0 ADD PUSH0 SWAP1 SLOAD SWAP1 PUSH2 0x100 EXP SWAP1 DIV PUSH20 0xFFFFFFFFFFFFFFFFFFFFFFFFFFFFFFFFFFFFFFFF AND PUSH20 0xFFFFFFFFFFFFFFFFFFFFFFFFFFFFFFFFFFFFFFFF AND CALLER PUSH20 0xFFFFFFFFFFFFFFFFFFFFFFFFFFFFFFFFFFFFFFFF AND EQ PUSH2 0x2417 JUMPI PUSH1 0x40 MLOAD PUSH32 0x8C379A000000000000000000000000000000000000000000000000000000000 DUP2 MSTORE PUSH1 0x4 ADD PUSH2 0x240E SWAP1 PUSH2 0x520D JUMP JUMPDEST PUSH1 0x40 MLOAD DUP1 SWAP2 SUB SWAP1 REVERT JUMPDEST JUMP JUMPDEST PUSH1 0x10 PUSH1 0x1 SWAP1 SLOAD SWAP1 PUSH2 0x100 EXP SWAP1 DIV PUSH1 0xFF AND PUSH1 0x1 PUSH2 0x2435 SWAP2 SWAP1 PUSH2 0x522B JUMP JUMPDEST PUSH1 0x10 PUSH1 0x1 PUSH2 0x100 EXP DUP2 SLOAD DUP2 PUSH1 0xFF MUL NOT AND SWAP1 DUP4 PUSH1 0xFF AND MUL OR SWAP1 SSTORE POP JUMP JUMPDEST PUSH1 0x1 PUSH0 DUP2 SWAP1 SSTORE POP JUMP JUMPDEST PUSH0 PUSH0 PUSH0 SWAP1 POP JUMPDEST PUSH1 0x10 PUSH0 SWAP1 SLOAD SWAP1 PUSH2 0x100 EXP SWAP1 DIV PUSH1 0xFF AND PUSH1 0xFF AND DUP2 PUSH1 0xFF AND LT ISZERO PUSH2 0x251B JUMPI DUP3 PUSH20 0xFFFFFFFFFFFFFFFFFFFFFFFFFFFFFFFFFFFFFFFF AND PUSH1 0x2 DUP3 PUSH1 0xFF AND PUSH1 0x2 DUP2 LT PUSH2 0x24AA JUMPI PUSH2 0x24A9 PUSH2 0x4423 JUMP JUMPDEST JUMPDEST PUSH1 0x7 MUL ADD PUSH0 ADD PUSH0 SWAP1 SLOAD SWAP1 PUSH2 0x100 EXP SWAP1 DIV PUSH20 0xFFFFFFFFFFFFFFFFFFFFFFFFFFFFFFFFFFFFFFFF AND PUSH20 0xFFFFFFFFFFFFFFFFFFFFFFFFFFFFFFFFFFFFFFFF AND SUB PUSH2 0x250E JUMPI PUSH1 0x2 DUP2 PUSH1 0xFF AND PUSH1 0x2 DUP2 LT PUSH2 0x2502 JUMPI PUSH2 0x2501 PUSH2 0x4423 JUMP JUMPDEST JUMPDEST PUSH1 0x7 MUL ADD SWAP2 POP POP PUSH2 0x2557 JUMP JUMPDEST DUP1 DUP1 PUSH1 0x1 ADD SWAP2 POP POP PUSH2 0x2460 JUMP JUMPDEST POP PUSH1 0x40 MLOAD PUSH32 0x8C379A000000000000000000000000000000000000000000000000000000000 DUP2 MSTORE PUSH1 0x4 ADD PUSH2 0x254E SWAP1 PUSH2 0x52A9 JUMP JUMPDEST PUSH1 0x40 MLOAD DUP1 SWAP2 SUB SWAP1 REVERT JUMPDEST SWAP2 SWAP1 POP JUMP JUMPDEST PUSH0 PUSH0 SWAP1 POP PUSH0 PUSH1 0x2 PUSH0 PUSH1 0x2 DUP2 LT PUSH2 0x2575 JUMPI PUSH2 0x2574 PUSH2 0x4423 JUMP JUMPDEST JUMPDEST PUSH1 0x7 MUL ADD SWAP1 POP PUSH0 PUSH1 0x2 PUSH1 0x1 PUSH1 0x2 DUP2 LT PUSH2 0x2591 JUMPI PUSH2 0x2590 PUSH2 0x4423 JUMP JUMPDEST JUMPDEST PUSH1 0x7 MUL ADD SWAP1 POP DUP1 PUSH1 0x3 ADD SLOAD DUP3 PUSH1 0x3 ADD SLOAD SUB PUSH2 0x25AF JUMPI PUSH1 0x1 SWAP3 POP PUSH2 0x2615 JUMP JUMPDEST DUP2 PUSH1 0x4 ADD PUSH1 0x1 SWAP1 SLOAD SWAP1 PUSH2 0x100 EXP SWAP1 DIV PUSH1 0xFF AND DUP1 ISZERO PUSH2 0x25D5 JUMPI POP DUP2 PUSH1 0x3 ADD SLOAD DUP2 PUSH1 0x3 ADD SLOAD LT ISZERO JUMPDEST ISZERO PUSH2 0x25E3 JUMPI PUSH1 0x1 SWAP3 POP PUSH2 0x2614 JUMP JUMPDEST DUP1 PUSH1 0x4 ADD PUSH1 0x1 SWAP1 SLOAD SWAP1 PUSH2 0x100 EXP SWAP1 DIV PUSH1 0xFF AND DUP1 ISZERO PUSH2 0x2609 JUMPI POP DUP1 PUSH1 0x3 ADD SLOAD DUP3 PUSH1 0x3 ADD SLOAD LT ISZERO JUMPDEST ISZERO PUSH2 0x2613 JUMPI PUSH1 0x1 SWAP3 POP JUMPDEST JUMPDEST JUMPDEST DUP3 ISZERO PUSH2 0x2707 JUMPI PUSH1 0x1 PUSH1 0x4 DUP2 GT ISZERO PUSH2 0x262F JUMPI PUSH2 0x262E PUSH2 0x3FD2 JUMP JUMPDEST JUMPDEST PUSH1 0x1 PUSH0 SWAP1 SLOAD SWAP1 PUSH2 0x100 EXP SWAP1 DIV PUSH1 0xFF AND PUSH1 0x4 DUP2 GT ISZERO PUSH2 0x2650 JUMPI PUSH2 0x264F PUSH2 0x3FD2 JUMP JUMPDEST JUMPDEST SUB PUSH2 0x2694 JUMPI PUSH2 0x265D PUSH2 0x2BD3 JUMP JUMPDEST PUSH1 0x2 PUSH1 0x1 PUSH0 PUSH2 0x100 EXP DUP2 SLOAD DUP2 PUSH1 0xFF MUL NOT AND SWAP1 DUP4 PUSH1 0x4 DUP2 GT ISZERO PUSH2 0x2682 JUMPI PUSH2 0x2681 PUSH2 0x3FD2 JUMP JUMPDEST JUMPDEST MUL OR SWAP1 SSTORE POP PUSH2 0x268F PUSH2 0x2D64 JUMP JUMPDEST PUSH2 0x2702 JUMP JUMPDEST PUSH1 0x3 PUSH1 0x4 DUP2 GT ISZERO PUSH2 0x26A8 JUMPI PUSH2 0x26A7 PUSH2 0x3FD2 JUMP JUMPDEST JUMPDEST PUSH1 0x1 PUSH0 SWAP1 SLOAD SWAP1 PUSH2 0x100 EXP SWAP1 DIV PUSH1 0xFF AND PUSH1 0x4 DUP2 GT ISZERO PUSH2 0x26C9 JUMPI PUSH2 0x26C8 PUSH2 0x3FD2 JUMP JUMPDEST JUMPDEST SUB PUSH2 0x2701 JUMPI PUSH1 0x2 PUSH1 0x1 PUSH0 PUSH2 0x100 EXP DUP2 SLOAD DUP2 PUSH1 0xFF MUL NOT AND SWAP1 DUP4 PUSH1 0x4 DUP2 GT ISZERO PUSH2 0x26F3 JUMPI PUSH2 0x26F2 PUSH2 0x3FD2 JUMP JUMPDEST JUMPDEST MUL OR SWAP1 SSTORE POP PUSH2 0x2700 PUSH2 0x2F5E JUMP JUMPDEST JUMPDEST JUMPDEST PUSH2 0x2710 JUMP JUMPDEST PUSH2 0x270F PUSH2 0x2419 JUMP JUMPDEST JUMPDEST POP POP POP JUMP JUMPDEST PUSH1 0x2 PUSH1 0x10 PUSH0 SWAP1 SLOAD SWAP1 PUSH2 0x100 EXP SWAP1 DIV PUSH1 0xFF AND PUSH1 0xFF AND EQ PUSH2 0x2769 JUMPI PUSH1 0x40 MLOAD PUSH32 0x8C379A000000000000000000000000000000000000000000000000000000000 DUP2 MSTORE PUSH1 0x4 ADD PUSH2 0x2760 SWAP1 PUSH2 0x5311 JUMP JUMPDEST PUSH1 0x40 MLOAD DUP1 SWAP2 SUB SWAP1 REVERT JUMPDEST PUSH1 0x1 DUP1 PUSH0 PUSH2 0x100 EXP DUP2 SLOAD DUP2 PUSH1 0xFF MUL NOT AND SWAP1 DUP4 PUSH1 0x4 DUP2 GT ISZERO PUSH2 0x278D JUMPI PUSH2 0x278C PUSH2 0x3FD2 JUMP JUMPDEST JUMPDEST MUL OR SWAP1 SSTORE POP PUSH0 PUSH1 0x10 PUSH1 0x1 PUSH2 0x100 EXP DUP2 SLOAD DUP2 PUSH1 0xFF MUL NOT AND SWAP1 DUP4 PUSH1 0xFF AND MUL OR SWAP1 SSTORE POP PUSH0 PUSH1 0x13 PUSH0 PUSH2 0x100 EXP DUP2 SLOAD DUP2 PUSH20 0xFFFFFFFFFFFFFFFFFFFFFFFFFFFFFFFFFFFFFFFF MUL NOT AND SWAP1 DUP4 PUSH20 0xFFFFFFFFFFFFFFFFFFFFFFFFFFFFFFFFFFFFFFFF AND MUL OR SWAP1 SSTORE POP PUSH0 PUSH1 0x12 DUP2 SWAP1 SSTORE POP PUSH0 PUSH1 0x11 DUP2 SWAP1 SSTORE POP PUSH0 PUSH0 SWAP1 POP JUMPDEST PUSH1 0x2 DUP2 PUSH1 0xFF AND LT ISZERO PUSH2 0x29B4 JUMPI PUSH0 PUSH1 0x2 DUP3 PUSH1 0xFF AND PUSH1 0x2 DUP2 LT PUSH2 0x2824 JUMPI PUSH2 0x2823 PUSH2 0x4423 JUMP JUMPDEST JUMPDEST PUSH1 0x7 MUL ADD PUSH1 0x3 ADD DUP2 SWAP1 SSTORE POP PUSH0 PUSH1 0x2 DUP3 PUSH1 0xFF AND PUSH1 0x2 DUP2 LT PUSH2 0x2847 JUMPI PUSH2 0x2846 PUSH2 0x4423 JUMP JUMPDEST JUMPDEST PUSH1 0x7 MUL ADD PUSH1 0x4 ADD PUSH0 PUSH2 0x100 EXP DUP2 SLOAD DUP2 PUSH1 0xFF MUL NOT AND SWAP1 DUP4 ISZERO ISZERO MUL OR SWAP1 SSTORE POP PUSH0 PUSH1 0x2 DUP3 PUSH1 0xFF AND PUSH1 0x2 DUP2 LT PUSH2 0x287C JUMPI PUSH2 0x287B PUSH2 0x4423 JUMP JUMPDEST JUMPDEST PUSH1 0x7 MUL ADD PUSH1 0x4 ADD PUSH1 0x1 PUSH2 0x100 EXP DUP2 SLOAD DUP2 PUSH1 0xFF MUL NOT AND SWAP1 DUP4 ISZERO ISZERO MUL OR SWAP1 SSTORE POP PUSH1 0x2 DUP2 PUSH1 0xFF AND PUSH1 0x2 DUP2 LT PUSH2 0x28B1 JUMPI PUSH2 0x28B0 PUSH2 0x4423 JUMP JUMPDEST JUMPDEST PUSH1 0x7 MUL ADD PUSH1 0x1 ADD SLOAD PUSH1 0x2 DUP3 PUSH1 0xFF AND PUSH1 0x2 DUP2 LT PUSH2 0x28D0 JUMPI PUSH2 0x28CF PUSH2 0x4423 JUMP JUMPDEST JUMPDEST PUSH1 0x7 MUL ADD PUSH1 0x5 ADD DUP2 SWAP1 SSTORE POP PUSH0 PUSH1 0x2 DUP3 PUSH1 0xFF AND PUSH1 0x2 DUP2 LT PUSH2 0x28F3 JUMPI PUSH2 0x28F2 PUSH2 0x4423 JUMP JUMPDEST JUMPDEST PUSH1 0x7 MUL ADD PUSH1 0x6 ADD PUSH0 PUSH2 0x100 EXP DUP2 SLOAD DUP2 PUSH1 0xFF MUL NOT AND SWAP1 DUP4 ISZERO ISZERO MUL OR SWAP1 SSTORE POP PUSH0 PUSH1 0x2 DUP3 PUSH1 0xFF AND PUSH1 0x2 DUP2 LT PUSH2 0x2928 JUMPI PUSH2 0x2927 PUSH2 0x4423 JUMP JUMPDEST JUMPDEST PUSH1 0x7 MUL ADD PUSH1 0x6 ADD PUSH1 0x1 PUSH2 0x100 EXP DUP2 SLOAD DUP2 PUSH1 0xFF MUL NOT AND SWAP1 DUP4 PUSH1 0xFF AND MUL OR SWAP1 SSTORE POP PUSH0 PUSH1 0x2 DUP3 PUSH1 0xFF AND PUSH1 0x2 DUP2 LT PUSH2 0x295F JUMPI PUSH2 0x295E PUSH2 0x4423 JUMP JUMPDEST JUMPDEST PUSH1 0x7 MUL ADD PUSH1 0x1 ADD SLOAD GT PUSH2 0x29A7 JUMPI PUSH1 0x40 MLOAD PUSH32 0x8C379A000000000000000000000000000000000000000000000000000000000 DUP2 MSTORE PUSH1 0x4 ADD PUSH2 0x299E SWAP1 PUSH2 0x539F JUMP JUMPDEST PUSH1 0x40 MLOAD DUP1 SWAP2 SUB SWAP1 REVERT JUMPDEST DUP1 DUP1 PUSH1 0x1 ADD SWAP2 POP POP PUSH2 0x2800 JUMP JUMPDEST POP PUSH2 0x29BD PUSH2 0x31F5 JUMP JUMPDEST PUSH2 0x29C5 PUSH2 0x33E4 JUMP JUMPDEST PUSH1 0x2 PUSH1 0x1 PUSH1 0x2 DUP2 LT PUSH2 0x29DA JUMPI PUSH2 0x29D9 PUSH2 0x4423 JUMP JUMPDEST JUMPDEST PUSH1 0x7 MUL ADD PUSH0 ADD PUSH0 SWAP1 SLOAD SWAP1 PUSH2 0x100 EXP SWAP1 DIV PUSH20 0xFFFFFFFFFFFFFFFFFFFFFFFFFFFFFFFFFFFFFFFF AND PUSH20 0xFFFFFFFFFFFFFFFFFFFFFFFFFFFFFFFFFFFFFFFF AND PUSH1 0x2 PUSH0 PUSH1 0x2 DUP2 LT PUSH2 0x2A2A JUMPI PUSH2 0x2A29 PUSH2 0x4423 JUMP JUMPDEST JUMPDEST PUSH1 0x7 MUL ADD PUSH0 ADD PUSH0 SWAP1 SLOAD SWAP1 PUSH2 0x100 EXP SWAP1 DIV PUSH20 0xFFFFFFFFFFFFFFFFFFFFFFFFFFFFFFFFFFFFFFFF AND PUSH20 0xFFFFFFFFFFFFFFFFFFFFFFFFFFFFFFFFFFFFFFFF AND PUSH32 0x55B25D7F9B5BF8EA934BA7079455D2BA00C68EA7E66C13695275F6B75B95E5F8 PUSH1 0x40 MLOAD PUSH1 0x40 MLOAD DUP1 SWAP2 SUB SWAP1 LOG3 PUSH32 0xDDE4D267456AF328388C0298CB5303E07177B5953528AF7F5D7A6456ED0170A0 PUSH1 0x10 PUSH1 0x1 SWAP1 SLOAD SWAP1 PUSH2 0x100 EXP SWAP1 DIV PUSH1 0xFF AND PUSH1 0x40 MLOAD PUSH2 0x2AD0 SWAP2 SWAP1 PUSH2 0x3FB9 JUMP JUMPDEST PUSH1 0x40 MLOAD DUP1 SWAP2 SUB SWAP1 LOG1 JUMP JUMPDEST PUSH0 PUSH0 PUSH1 0x10 PUSH1 0x1 SWAP1 SLOAD SWAP1 PUSH2 0x100 EXP SWAP1 DIV PUSH1 0xFF AND PUSH1 0xFF AND EQ PUSH2 0x2AFA JUMPI PUSH0 PUSH2 0x2AFD JUMP JUMPDEST PUSH1 0x1 JUMPDEST SWAP1 POP PUSH1 0x11 SLOAD PUSH1 0x2 DUP3 PUSH1 0xFF AND PUSH1 0x2 DUP2 LT PUSH2 0x2B19 JUMPI PUSH2 0x2B18 PUSH2 0x4423 JUMP JUMPDEST JUMPDEST PUSH1 0x7 MUL ADD PUSH1 0x1 ADD PUSH0 DUP3 DUP3 SLOAD PUSH2 0x2B2E SWAP2 SWAP1 PUSH2 0x4518 JUMP JUMPDEST SWAP3 POP POP DUP2 SWAP1 SSTORE POP PUSH1 0x2 DUP2 PUSH1 0xFF AND PUSH1 0x2 DUP2 LT PUSH2 0x2B4C JUMPI PUSH2 0x2B4B PUSH2 0x4423 JUMP JUMPDEST JUMPDEST PUSH1 0x7 MUL ADD PUSH0 ADD PUSH0 SWAP1 SLOAD SWAP1 PUSH2 0x100 EXP SWAP1 DIV PUSH20 0xFFFFFFFFFFFFFFFFFFFFFFFFFFFFFFFFFFFFFFFF AND PUSH20 0xFFFFFFFFFFFFFFFFFFFFFFFFFFFFFFFFFFFFFFFF AND PUSH32 0x6FAFC1817661502FCA20A0A735270D1344AD3A710B309B32B9ED925956C500C5 PUSH1 0x11 SLOAD PUSH1 0x40 MLOAD PUSH2 0x2BB9 SWAP2 SWAP1 PUSH2 0x3F5E JUMP JUMPDEST PUSH1 0x40 MLOAD DUP1 SWAP2 SUB SWAP1 LOG2 PUSH0 PUSH1 0x11 DUP2 SWAP1 SSTORE POP PUSH2 0x2BD0 PUSH2 0x3584 JUMP JUMPDEST POP JUMP JUMPDEST PUSH0 PUSH1 0x2 PUSH0 PUSH1 0x2 DUP2 LT PUSH2 0x2BE8 JUMPI PUSH2 0x2BE7 PUSH2 0x4423 JUMP JUMPDEST JUMPDEST PUSH1 0x7 MUL ADD SWAP1 POP PUSH0 PUSH1 0x2 PUSH1 0x1 PUSH1 0x2 DUP2 LT PUSH2 0x2C04 JUMPI PUSH2 0x2C03 PUSH2 0x4423 JUMP JUMPDEST JUMPDEST PUSH1 0x7 MUL ADD SWAP1 POP PUSH0 PUSH0 SWAP1 POP PUSH0 DUP4 PUSH1 0x4 ADD PUSH1 0x1 SWAP1 SLOAD SWAP1 PUSH2 0x100 EXP SWAP1 DIV PUSH1 0xFF AND DUP1 ISZERO PUSH2 0x2C34 JUMPI POP DUP4 PUSH1 0x3 ADD SLOAD DUP4 PUSH1 0x3 ADD SLOAD GT JUMPDEST ISZERO PUSH2 0x2CB8 JUMPI DUP4 PUSH1 0x3 ADD SLOAD DUP4 PUSH1 0x3 ADD SLOAD PUSH2 0x2C4D SWAP2 SWAP1 PUSH2 0x447D JUMP JUMPDEST SWAP2 POP DUP2 DUP4 PUSH1 0x1 ADD PUSH0 DUP3 DUP3 SLOAD PUSH2 0x2C62 SWAP2 SWAP1 PUSH2 0x4518 JUMP JUMPDEST SWAP3 POP POP DUP2 SWAP1 SSTORE POP DUP2 PUSH1 0x11 PUSH0 DUP3 DUP3 SLOAD PUSH2 0x2C7A SWAP2 SWAP1 PUSH2 0x447D JUMP JUMPDEST SWAP3 POP POP DUP2 SWAP1 SSTORE POP DUP4 PUSH1 0x3 ADD SLOAD DUP4 PUSH1 0x3 ADD DUP2 SWAP1 SSTORE POP DUP3 PUSH0 ADD PUSH0 SWAP1 SLOAD SWAP1 PUSH2 0x100 EXP SWAP1 DIV PUSH20 0xFFFFFFFFFFFFFFFFFFFFFFFFFFFFFFFFFFFFFFFF AND SWAP1 POP PUSH2 0x2D5E JUMP JUMPDEST DUP3 PUSH1 0x4 ADD PUSH1 0x1 SWAP1 SLOAD SWAP1 PUSH2 0x100 EXP SWAP1 DIV PUSH1 0xFF AND DUP1 ISZERO PUSH2 0x2CDD JUMPI POP DUP3 PUSH1 0x3 ADD SLOAD DUP5 PUSH1 0x3 ADD SLOAD GT JUMPDEST ISZERO PUSH2 0x2D5D JUMPI DUP3 PUSH1 0x3 ADD SLOAD DUP5 PUSH1 0x3 ADD SLOAD PUSH2 0x2CF6 SWAP2 SWAP1 PUSH2 0x447D JUMP JUMPDEST SWAP2 POP DUP2 DUP5 PUSH1 0x1 ADD PUSH0 DUP3 DUP3 SLOAD PUSH2 0x2D0B SWAP2 SWAP1 PUSH2 0x4518 JUMP JUMPDEST SWAP3 POP POP DUP2 SWAP1 SSTORE POP DUP2 PUSH1 0x11 PUSH0 DUP3 DUP3 SLOAD PUSH2 0x2D23 SWAP2 SWAP1 PUSH2 0x447D JUMP JUMPDEST SWAP3 POP POP DUP2 SWAP1 SSTORE POP DUP3 PUSH1 0x3 ADD SLOAD DUP5 PUSH1 0x3 ADD DUP2 SWAP1 SSTORE POP DUP4 PUSH0 ADD PUSH0 SWAP1 SLOAD SWAP1 PUSH2 0x100 EXP SWAP1 DIV PUSH20 0xFFFFFFFFFFFFFFFFFFFFFFFFFFFFFFFFFFFFFFFF AND SWAP1 POP JUMPDEST JUMPDEST POP POP POP POP JUMP JUMPDEST PUSH1 0x2 PUSH1 0x4 DUP2 GT ISZERO PUSH2 0x2D78 JUMPI PUSH2 0x2D77 PUSH2 0x3FD2 JUMP JUMPDEST JUMPDEST PUSH1 0x1 PUSH0 SWAP1 SLOAD SWAP1 PUSH2 0x100 EXP SWAP1 DIV PUSH1 0xFF AND PUSH1 0x4 DUP2 GT ISZERO PUSH2 0x2D99 JUMPI PUSH2 0x2D98 PUSH2 0x3FD2 JUMP JUMPDEST JUMPDEST EQ PUSH2 0x2DD9 JUMPI PUSH1 0x40 MLOAD PUSH32 0x8C379A000000000000000000000000000000000000000000000000000000000 DUP2 MSTORE PUSH1 0x4 ADD PUSH2 0x2DD0 SWAP1 PUSH2 0x5407 JUMP JUMPDEST PUSH1 0x40 MLOAD DUP1 SWAP2 SUB SWAP1 REVERT JUMPDEST PUSH1 0x2 PUSH1 0x1 PUSH1 0x2 DUP2 LT PUSH2 0x2DEE JUMPI PUSH2 0x2DED PUSH2 0x4423 JUMP JUMPDEST JUMPDEST PUSH1 0x7 MUL ADD PUSH0 ADD PUSH0 SWAP1 SLOAD SWAP1 PUSH2 0x100 EXP SWAP1 DIV PUSH20 0xFFFFFFFFFFFFFFFFFFFFFFFFFFFFFFFFFFFFFFFF AND PUSH20 0xFFFFFFFFFFFFFFFFFFFFFFFFFFFFFFFFFFFFFFFF AND PUSH1 0x2 PUSH0 PUSH1 0x2 DUP2 LT PUSH2 0x2E3E JUMPI PUSH2 0x2E3D PUSH2 0x4423 JUMP JUMPDEST JUMPDEST PUSH1 0x7 MUL ADD PUSH0 ADD PUSH0 SWAP1 SLOAD SWAP1 PUSH2 0x100 EXP SWAP1 DIV PUSH20 0xFFFFFFFFFFFFFFFFFFFFFFFFFFFFFFFFFFFFFFFF AND PUSH20 0xFFFFFFFFFFFFFFFFFFFFFFFFFFFFFFFFFFFFFFFF AND PUSH32 0x89F4B08C6F7AACA8E6D515A41D4D09DBA640357CE7EF3ABAE6546A874D577D74 PUSH1 0x2 PUSH0 PUSH1 0x2 DUP2 LT PUSH2 0x2EAF JUMPI PUSH2 0x2EAE PUSH2 0x4423 JUMP JUMPDEST JUMPDEST PUSH1 0x7 MUL ADD PUSH1 0x2 ADD PUSH0 SWAP1 SLOAD SWAP1 PUSH2 0x100 EXP SWAP1 DIV PUSH1 0xFF AND PUSH1 0x2 PUSH1 0x1 PUSH1 0x2 DUP2 LT PUSH2 0x2ED8 JUMPI PUSH2 0x2ED7 PUSH2 0x4423 JUMP JUMPDEST JUMPDEST PUSH1 0x7 MUL ADD PUSH1 0x2 ADD PUSH0 SWAP1 SLOAD SWAP1 PUSH2 0x100 EXP SWAP1 DIV PUSH1 0xFF AND PUSH1 0x40 MLOAD PUSH2 0x2EFA SWAP3 SWAP2 SWAP1 PUSH2 0x5425 JUMP JUMPDEST PUSH1 0x40 MLOAD DUP1 SWAP2 SUB SWAP1 LOG3 PUSH2 0x2F5C PUSH1 0x2 PUSH0 PUSH1 0x2 DUP2 LT PUSH2 0x2F19 JUMPI PUSH2 0x2F18 PUSH2 0x4423 JUMP JUMPDEST JUMPDEST PUSH1 0x7 MUL ADD PUSH1 0x2 ADD PUSH0 SWAP1 SLOAD SWAP1 PUSH2 0x100 EXP SWAP1 DIV PUSH1 0xFF AND PUSH1 0x2 PUSH1 0x1 PUSH1 0x2 DUP2 LT PUSH2 0x2F42 JUMPI PUSH2 0x2F41 PUSH2 0x4423 JUMP JUMPDEST JUMPDEST PUSH1 0x7 MUL ADD PUSH1 0x2 ADD PUSH0 SWAP1 SLOAD SWAP1 PUSH2 0x100 EXP SWAP1 DIV PUSH1 0xFF AND PUSH0 PUSH2 0x35B0 JUMP JUMPDEST JUMP JUMPDEST PUSH1 0x2 PUSH1 0x4 DUP2 GT ISZERO PUSH2 0x2F72 JUMPI PUSH2 0x2F71 PUSH2 0x3FD2 JUMP JUMPDEST JUMPDEST PUSH1 0x1 PUSH0 SWAP1 SLOAD SWAP1 PUSH2 0x100 EXP SWAP1 DIV PUSH1 0xFF AND PUSH1 0x4 DUP2 GT ISZERO PUSH2 0x2F93 JUMPI PUSH2 0x2F92 PUSH2 0x3FD2 JUMP JUMPDEST JUMPDEST EQ PUSH2 0x2FD3 JUMPI PUSH1 0x40 MLOAD PUSH32 0x8C379A000000000000000000000000000000000000000000000000000000000 DUP2 MSTORE PUSH1 0x4 ADD PUSH2 0x2FCA SWAP1 PUSH2 0x54BC JUMP JUMPDEST PUSH1 0x40 MLOAD DUP1 SWAP2 SUB SWAP1 REVERT JUMPDEST PUSH1 0x2 PUSH0 PUSH1 0x2 DUP2 LT PUSH2 0x2FE7 JUMPI PUSH2 0x2FE6 PUSH2 0x4423 JUMP JUMPDEST JUMPDEST PUSH1 0x7 MUL ADD PUSH1 0x6 ADD PUSH0 SWAP1 SLOAD SWAP1 PUSH2 0x100 EXP SWAP1 DIV PUSH1 0xFF AND DUP1 ISZERO PUSH2 0x302C JUMPI POP PUSH1 0x2 PUSH1 0x1 PUSH1 0x2 DUP2 LT PUSH2 0x3017 JUMPI PUSH2 0x3016 PUSH2 0x4423 JUMP JUMPDEST JUMPDEST PUSH1 0x7 MUL ADD PUSH1 0x6 ADD PUSH0 SWAP1 SLOAD SWAP1 PUSH2 0x100 EXP SWAP1 DIV PUSH1 0xFF AND JUMPDEST PUSH2 0x306B JUMPI PUSH1 0x40 MLOAD PUSH32 0x8C379A000000000000000000000000000000000000000000000000000000000 DUP2 MSTORE PUSH1 0x4 ADD PUSH2 0x3062 SWAP1 PUSH2 0x5524 JUMP JUMPDEST PUSH1 0x40 MLOAD DUP1 SWAP2 SUB SWAP1 REVERT JUMPDEST PUSH1 0x2 PUSH1 0x1 PUSH1 0x2 DUP2 LT PUSH2 0x3080 JUMPI PUSH2 0x307F PUSH2 0x4423 JUMP JUMPDEST JUMPDEST PUSH1 0x7 MUL ADD PUSH0 ADD PUSH0 SWAP1 SLOAD SWAP1 PUSH2 0x100 EXP SWAP1 DIV PUSH20 0xFFFFFFFFFFFFFFFFFFFFFFFFFFFFFFFFFFFFFFFF AND PUSH20 0xFFFFFFFFFFFFFFFFFFFFFFFFFFFFFFFFFFFFFFFF AND PUSH1 0x2 PUSH0 PUSH1 0x2 DUP2 LT PUSH2 0x30D0 JUMPI PUSH2 0x30CF PUSH2 0x4423 JUMP JUMPDEST JUMPDEST PUSH1 0x7 MUL ADD PUSH0 ADD PUSH0 SWAP1 SLOAD SWAP1 PUSH2 0x100 EXP SWAP1 DIV PUSH20 0xFFFFFFFFFFFFFFFFFFFFFFFFFFFFFFFFFFFFFFFF AND PUSH20 0xFFFFFFFFFFFFFFFFFFFFFFFFFFFFFFFFFFFFFFFF AND PUSH32 0x9C900CCF611715CCF004887226374999DBCB73D5A1620067F9AFBB48C4D26703 PUSH1 0x2 PUSH0 PUSH1 0x2 DUP2 LT PUSH2 0x3141 JUMPI PUSH2 0x3140 PUSH2 0x4423 JUMP JUMPDEST JUMPDEST PUSH1 0x7 MUL ADD PUSH1 0x6 ADD PUSH1 0x1 SWAP1 SLOAD SWAP1 PUSH2 0x100 EXP SWAP1 DIV PUSH1 0xFF AND PUSH1 0x2 PUSH1 0x1 PUSH1 0x2 DUP2 LT PUSH2 0x316B JUMPI PUSH2 0x316A PUSH2 0x4423 JUMP JUMPDEST JUMPDEST PUSH1 0x7 MUL ADD PUSH1 0x6 ADD PUSH1 0x1 SWAP1 SLOAD SWAP1 PUSH2 0x100 EXP SWAP1 DIV PUSH1 0xFF AND PUSH1 0x40 MLOAD PUSH2 0x318E SWAP3 SWAP2 SWAP1 PUSH2 0x5425 JUMP JUMPDEST PUSH1 0x40 MLOAD DUP1 SWAP2 SUB SWAP1 LOG3 PUSH2 0x31F3 PUSH1 0x2 PUSH0 PUSH1 0x2 DUP2 LT PUSH2 0x31AD JUMPI PUSH2 0x31AC PUSH2 0x4423 JUMP JUMPDEST JUMPDEST PUSH1 0x7 MUL ADD PUSH1 0x6 ADD PUSH1 0x1 SWAP1 SLOAD SWAP1 PUSH2 0x100 EXP SWAP1 DIV PUSH1 0xFF AND PUSH1 0x2 PUSH1 0x1 PUSH1 0x2 DUP2 LT PUSH2 0x31D7 JUMPI PUSH2 0x31D6 PUSH2 0x4423 JUMP JUMPDEST JUMPDEST PUSH1 0x7 MUL ADD PUSH1 0x6 ADD PUSH1 0x1 SWAP1 SLOAD SWAP1 PUSH2 0x100 EXP SWAP1 DIV PUSH1 0xFF AND PUSH1 0x1 PUSH2 0x35B0 JUMP JUMPDEST JUMP JUMPDEST PUSH1 0x14 PUSH0 PUSH2 0x3202 SWAP2 SWAP1 PUSH2 0x3E55 JUMP JUMPDEST PUSH0 PUSH1 0x1 SWAP1 POP JUMPDEST PUSH1 0xE DUP2 PUSH1 0xFF AND GT PUSH2 0x3269 JUMPI PUSH1 0x14 DUP2 SWAP1 DUP1 PUSH1 0x1 DUP2 SLOAD ADD DUP1 DUP3 SSTORE DUP1 SWAP2 POP POP PUSH1 0x1 SWAP1 SUB SWAP1 PUSH0 MSTORE PUSH1 0x20 PUSH0 KECCAK256 SWAP1 PUSH1 0x20 SWAP2 DUP3 DUP3 DIV ADD SWAP2 SWAP1 MOD SWAP1 SWAP2 SWAP1 SWAP2 SWAP1 SWAP2 PUSH2 0x100 EXP DUP2 SLOAD DUP2 PUSH1 0xFF MUL NOT AND SWAP1 DUP4 PUSH1 0xFF AND MUL OR SWAP1 SSTORE POP DUP1 DUP1 PUSH2 0x3261 SWAP1 PUSH2 0x4EB4 JUMP JUMPDEST SWAP2 POP POP PUSH2 0x3208 JUMP JUMPDEST POP PUSH0 PUSH1 0x1 PUSH1 0x14 DUP1 SLOAD SWAP1 POP PUSH2 0x327D SWAP2 SWAP1 PUSH2 0x447D JUMP JUMPDEST SWAP1 POP JUMPDEST PUSH0 DUP2 GT ISZERO PUSH2 0x33C7 JUMPI PUSH0 PUSH1 0x1 DUP3 PUSH2 0x3296 SWAP2 SWAP1 PUSH2 0x4518 JUMP JUMPDEST TIMESTAMP PREVRANDAO DUP5 PUSH1 0x40 MLOAD PUSH1 0x20 ADD PUSH2 0x32AB SWAP4 SWAP3 SWAP2 SWAP1 PUSH2 0x5562 JUMP JUMPDEST PUSH1 0x40 MLOAD PUSH1 0x20 DUP2 DUP4 SUB SUB DUP2 MSTORE SWAP1 PUSH1 0x40 MSTORE DUP1 MLOAD SWAP1 PUSH1 0x20 ADD KECCAK256 PUSH0 SHR PUSH2 0x32CD SWAP2 SWAP1 PUSH2 0x45E0 JUMP JUMPDEST SWAP1 POP PUSH1 0x14 DUP2 DUP2 SLOAD DUP2 LT PUSH2 0x32E3 JUMPI PUSH2 0x32E2 PUSH2 0x4423 JUMP JUMPDEST JUMPDEST SWAP1 PUSH0 MSTORE PUSH1 0x20 PUSH0 KECCAK256 SWAP1 PUSH1 0x20 SWAP2 DUP3 DUP3 DIV ADD SWAP2 SWAP1 MOD SWAP1 SLOAD SWAP1 PUSH2 0x100 EXP SWAP1 DIV PUSH1 0xFF AND PUSH1 0x14 DUP4 DUP2 SLOAD DUP2 LT PUSH2 0x3315 JUMPI PUSH2 0x3314 PUSH2 0x4423 JUMP JUMPDEST JUMPDEST SWAP1 PUSH0 MSTORE PUSH1 0x20 PUSH0 KECCAK256 SWAP1 PUSH1 0x20 SWAP2 DUP3 DUP3 DIV ADD SWAP2 SWAP1 MOD SWAP1 SLOAD SWAP1 PUSH2 0x100 EXP SWAP1 DIV PUSH1 0xFF AND PUSH1 0x14 DUP5 DUP2 SLOAD DUP2 LT PUSH2 0x3347 JUMPI PUSH2 0x3346 PUSH2 0x4423 JUMP JUMPDEST JUMPDEST SWAP1 PUSH0 MSTORE PUSH1 0x20 PUSH0 KECCAK256 SWAP1 PUSH1 0x20 SWAP2 DUP3 DUP3 DIV ADD SWAP2 SWAP1 MOD PUSH1 0x14 DUP6 DUP2 SLOAD DUP2 LT PUSH2 0x336D JUMPI PUSH2 0x336C PUSH2 0x4423 JUMP JUMPDEST JUMPDEST SWAP1 PUSH0 MSTORE PUSH1 0x20 PUSH0 KECCAK256 SWAP1 PUSH1 0x20 SWAP2 DUP3 DUP3 DIV ADD SWAP2 SWAP1 MOD DUP5 SWAP2 SWAP1 PUSH2 0x100 EXP DUP2 SLOAD DUP2 PUSH1 0xFF MUL NOT AND SWAP1 DUP4 PUSH1 0xFF AND MUL OR SWAP1 SSTORE POP DUP4 SWAP2 SWAP1 PUSH2 0x100 EXP DUP2 SLOAD DUP2 PUSH1 0xFF MUL NOT AND SWAP1 DUP4 PUSH1 0xFF AND MUL OR SWAP1 SSTORE POP POP POP POP DUP1 DUP1 PUSH2 0x33BF SWAP1 PUSH2 0x559E JUMP JUMPDEST SWAP2 POP POP PUSH2 0x3280 JUMP JUMPDEST POP PUSH0 PUSH1 0x15 PUSH0 PUSH2 0x100 EXP DUP2 SLOAD DUP2 PUSH1 0xFF MUL NOT AND SWAP1 DUP4 PUSH1 0xFF AND MUL OR SWAP1 SSTORE POP JUMP JUMPDEST PUSH1 0x2 PUSH1 0x15 PUSH0 SWAP1 SLOAD SWAP1 PUSH2 0x100 EXP SWAP1 DIV PUSH1 0xFF AND PUSH1 0xFF AND PUSH1 0x14 DUP1 SLOAD SWAP1 POP PUSH2 0x3408 SWAP2 SWAP1 PUSH2 0x447D JUMP JUMPDEST LT ISZERO PUSH2 0x3449 JUMPI PUSH1 0x40 MLOAD PUSH32 0x8C379A000000000000000000000000000000000000000000000000000000000 DUP2 MSTORE PUSH1 0x4 ADD PUSH2 0x3440 SWAP1 PUSH2 0x560F JUMP JUMPDEST PUSH1 0x40 MLOAD DUP1 SWAP2 SUB SWAP1 REVERT JUMPDEST PUSH1 0x14 PUSH1 0x15 PUSH0 DUP2 DUP2 SWAP1 SLOAD SWAP1 PUSH2 0x100 EXP SWAP1 DIV PUSH1 0xFF AND DUP1 SWAP3 SWAP2 SWAP1 PUSH2 0x3469 SWAP1 PUSH2 0x4EB4 JUMP JUMPDEST SWAP2 SWAP1 PUSH2 0x100 EXP DUP2 SLOAD DUP2 PUSH1 0xFF MUL NOT AND SWAP1 DUP4 PUSH1 0xFF AND MUL OR SWAP1 SSTORE POP PUSH1 0xFF AND DUP2 SLOAD DUP2 LT PUSH2 0x3495 JUMPI PUSH2 0x3494 PUSH2 0x4423 JUMP JUMPDEST JUMPDEST SWAP1 PUSH0 MSTORE PUSH1 0x20 PUSH0 KECCAK256 SWAP1 PUSH1 0x20 SWAP2 DUP3 DUP3 DIV ADD SWAP2 SWAP1 MOD SWAP1 SLOAD SWAP1 PUSH2 0x100 EXP SWAP1 DIV PUSH1 0xFF AND PUSH1 0x2 PUSH0 PUSH1 0x2 DUP2 LT PUSH2 0x34C7 JUMPI PUSH2 0x34C6 PUSH2 0x4423 JUMP JUMPDEST JUMPDEST PUSH1 0x7 MUL ADD PUSH1 0x2 ADD PUSH0 PUSH2 0x100 EXP DUP2 SLOAD DUP2 PUSH1 0xFF MUL NOT AND SWAP1 DUP4 PUSH1 0xFF AND MUL OR SWAP1 SSTORE POP PUSH1 0x14 PUSH1 0x15 PUSH0 DUP2 DUP2 SWAP1 SLOAD SWAP1 PUSH2 0x100 EXP SWAP1 DIV PUSH1 0xFF AND DUP1 SWAP3 SWAP2 SWAP1 PUSH2 0x3505 SWAP1 PUSH2 0x4EB4 JUMP JUMPDEST SWAP2 SWAP1 PUSH2 0x100 EXP DUP2 SLOAD DUP2 PUSH1 0xFF MUL NOT AND SWAP1 DUP4 PUSH1 0xFF AND MUL OR SWAP1 SSTORE POP PUSH1 0xFF AND DUP2 SLOAD DUP2 LT PUSH2 0x3531 JUMPI PUSH2 0x3530 PUSH2 0x4423 JUMP JUMPDEST JUMPDEST SWAP1 PUSH0 MSTORE PUSH1 0x20 PUSH0 KECCAK256 SWAP1 PUSH1 0x20 SWAP2 DUP3 DUP3 DIV ADD SWAP2 SWAP1 MOD SWAP1 SLOAD SWAP1 PUSH2 0x100 EXP SWAP1 DIV PUSH1 0xFF AND PUSH1 0x2 PUSH1 0x1 PUSH1 0x2 DUP2 LT PUSH2 0x3564 JUMPI PUSH2 0x3563 PUSH2 0x4423 JUMP JUMPDEST JUMPDEST PUSH1 0x7 MUL ADD PUSH1 0x2 ADD PUSH0 PUSH2 0x100 EXP DUP2 SLOAD DUP2 PUSH1 0xFF MUL NOT AND SWAP1 DUP4 PUSH1 0xFF AND MUL OR SWAP1 SSTORE POP JUMP JUMPDEST PUSH1 0x4 PUSH1 0x1 PUSH0 PUSH2 0x100 EXP DUP2 SLOAD DUP2 PUSH1 0xFF MUL NOT AND SWAP1 DUP4 PUSH1 0x4 DUP2 GT ISZERO PUSH2 0x35A9 JUMPI PUSH2 0x35A8 PUSH2 0x3FD2 JUMP JUMPDEST JUMPDEST MUL OR SWAP1 SSTORE POP JUMP JUMPDEST PUSH0 PUSH2 0x35BD DUP5 DUP5 PUSH1 0x1 PUSH2 0x3B29 JUMP JUMPDEST SWAP1 POP PUSH0 PUSH2 0x35CC DUP5 DUP7 PUSH1 0x1 PUSH2 0x3B29 JUMP JUMPDEST SWAP1 POP PUSH0 PUSH0 SWAP1 POP PUSH0 PUSH0 SWAP1 POP DUP3 PUSH1 0xFF AND DUP5 PUSH1 0xFF AND GT ISZERO PUSH2 0x3625 JUMPI PUSH1 0x2 PUSH0 PUSH1 0x2 DUP2 LT PUSH2 0x35F8 JUMPI PUSH2 0x35F7 PUSH2 0x4423 JUMP JUMPDEST JUMPDEST PUSH1 0x7 MUL ADD PUSH0 ADD PUSH0 SWAP1 SLOAD SWAP1 PUSH2 0x100 EXP SWAP1 DIV PUSH20 0xFFFFFFFFFFFFFFFFFFFFFFFFFFFFFFFFFFFFFFFF AND SWAP2 POP PUSH2 0x367B JUMP JUMPDEST DUP4 PUSH1 0xFF AND DUP4 PUSH1 0xFF AND GT ISZERO PUSH2 0x3675 JUMPI PUSH1 0x2 PUSH1 0x1 PUSH1 0x2 DUP2 LT PUSH2 0x3648 JUMPI PUSH2 0x3647 PUSH2 0x4423 JUMP JUMPDEST JUMPDEST PUSH1 0x7 MUL ADD PUSH0 ADD PUSH0 SWAP1 SLOAD SWAP1 PUSH2 0x100 EXP SWAP1 DIV PUSH20 0xFFFFFFFFFFFFFFFFFFFFFFFFFFFFFFFFFFFFFFFF AND SWAP2 POP PUSH2 0x367A JUMP JUMPDEST PUSH1 0x1 SWAP1 POP JUMPDEST JUMPDEST DUP1 ISZERO PUSH2 0x37AC JUMPI DUP5 PUSH2 0x379F JUMPI PUSH1 0x3 PUSH1 0x1 PUSH0 PUSH2 0x100 EXP DUP2 SLOAD DUP2 PUSH1 0xFF MUL NOT AND SWAP1 DUP4 PUSH1 0x4 DUP2 GT ISZERO PUSH2 0x36AB JUMPI PUSH2 0x36AA PUSH2 0x3FD2 JUMP JUMPDEST JUMPDEST MUL OR SWAP1 SSTORE POP PUSH2 0x36B8 PUSH2 0x3BD9 JUMP JUMPDEST PUSH1 0x2 PUSH0 PUSH1 0x2 DUP2 LT PUSH2 0x36CC JUMPI PUSH2 0x36CB PUSH2 0x4423 JUMP JUMPDEST JUMPDEST PUSH1 0x7 MUL ADD PUSH1 0x6 ADD PUSH1 0x1 PUSH2 0x100 EXP DUP2 SLOAD DUP2 PUSH1 0xFF MUL NOT AND SWAP1 DUP4 PUSH1 0xFF AND MUL OR SWAP1 SSTORE POP PUSH1 0x1 PUSH1 0x2 PUSH0 PUSH1 0x2 DUP2 LT PUSH2 0x3701 JUMPI PUSH2 0x3700 PUSH2 0x4423 JUMP JUMPDEST JUMPDEST PUSH1 0x7 MUL ADD PUSH1 0x6 ADD PUSH0 PUSH2 0x100 EXP DUP2 SLOAD DUP2 PUSH1 0xFF MUL NOT AND SWAP1 DUP4 ISZERO ISZERO MUL OR SWAP1 SSTORE POP PUSH2 0x3726 PUSH2 0x3BD9 JUMP JUMPDEST PUSH1 0x2 PUSH1 0x1 PUSH1 0x2 DUP2 LT PUSH2 0x373B JUMPI PUSH2 0x373A PUSH2 0x4423 JUMP JUMPDEST JUMPDEST PUSH1 0x7 MUL ADD PUSH1 0x6 ADD PUSH1 0x1 PUSH2 0x100 EXP DUP2 SLOAD DUP2 PUSH1 0xFF MUL NOT AND SWAP1 DUP4 PUSH1 0xFF AND MUL OR SWAP1 SSTORE POP PUSH1 0x1 PUSH1 0x2 PUSH1 0x1 PUSH1 0x2 DUP2 LT PUSH2 0x3771 JUMPI PUSH2 0x3770 PUSH2 0x4423 JUMP JUMPDEST JUMPDEST PUSH1 0x7 MUL ADD PUSH1 0x6 ADD PUSH0 PUSH2 0x100 EXP DUP2 SLOAD DUP2 PUSH1 0xFF MUL NOT AND SWAP1 DUP4 ISZERO ISZERO MUL OR SWAP1 SSTORE POP PUSH2 0x3796 PUSH2 0x255C JUMP JUMPDEST POP POP POP POP PUSH2 0x3B24 JUMP JUMPDEST PUSH2 0x37A7 PUSH2 0x3CAE JUMP JUMPDEST PUSH2 0x3B17 JUMP JUMPDEST PUSH0 PUSH1 0x2 PUSH0 PUSH1 0x2 DUP2 LT PUSH2 0x37C1 JUMPI PUSH2 0x37C0 PUSH2 0x4423 JUMP JUMPDEST JUMPDEST PUSH1 0x7 MUL ADD PUSH1 0x3 ADD SLOAD SWAP1 POP PUSH0 PUSH1 0x2 PUSH1 0x1 PUSH1 0x2 DUP2 LT PUSH2 0x37E1 JUMPI PUSH2 0x37E0 PUSH2 0x4423 JUMP JUMPDEST JUMPDEST PUSH1 0x7 MUL ADD PUSH1 0x3 ADD SLOAD SWAP1 POP PUSH1 0x2 PUSH0 PUSH1 0x2 DUP2 LT PUSH2 0x37FF JUMPI PUSH2 0x37FE PUSH2 0x4423 JUMP JUMPDEST JUMPDEST PUSH1 0x7 MUL ADD PUSH0 ADD PUSH0 SWAP1 SLOAD SWAP1 PUSH2 0x100 EXP SWAP1 DIV PUSH20 0xFFFFFFFFFFFFFFFFFFFFFFFFFFFFFFFFFFFFFFFF AND PUSH20 0xFFFFFFFFFFFFFFFFFFFFFFFFFFFFFFFFFFFFFFFF AND DUP5 PUSH20 0xFFFFFFFFFFFFFFFFFFFFFFFFFFFFFFFFFFFFFFFF AND SUB PUSH2 0x39B3 JUMPI PUSH0 DUP2 DUP4 PUSH2 0x3864 SWAP2 SWAP1 PUSH2 0x4518 JUMP JUMPDEST SWAP1 POP PUSH1 0x2 PUSH0 PUSH1 0x2 DUP2 LT PUSH2 0x387A JUMPI PUSH2 0x3879 PUSH2 0x4423 JUMP JUMPDEST JUMPDEST PUSH1 0x7 MUL ADD PUSH1 0x4 ADD PUSH1 0x1 SWAP1 SLOAD SWAP1 PUSH2 0x100 EXP SWAP1 DIV PUSH1 0xFF AND DUP1 ISZERO PUSH2 0x389A JUMPI POP DUP2 DUP4 LT JUMPDEST ISZERO PUSH2 0x38B3 JUMPI PUSH1 0x2 DUP4 PUSH2 0x38AC SWAP2 SWAP1 PUSH2 0x46CE JUMP JUMPDEST SWAP1 POP PUSH2 0x38C2 JUMP JUMPDEST DUP2 DUP4 PUSH2 0x38BF SWAP2 SWAP1 PUSH2 0x4518 JUMP JUMPDEST SWAP1 POP JUMPDEST DUP1 PUSH1 0x11 SLOAD GT DUP1 ISZERO PUSH2 0x3929 JUMPI POP PUSH1 0x2 PUSH0 PUSH1 0x2 DUP2 LT PUSH2 0x38E2 JUMPI PUSH2 0x38E1 PUSH2 0x4423 JUMP JUMPDEST JUMPDEST PUSH1 0x7 MUL ADD PUSH1 0x4 ADD PUSH1 0x1 SWAP1 SLOAD SWAP1 PUSH2 0x100 EXP SWAP1 DIV PUSH1 0xFF AND DUP1 PUSH2 0x3928 JUMPI POP PUSH1 0x2 PUSH1 0x1 PUSH1 0x2 DUP2 LT PUSH2 0x3912 JUMPI PUSH2 0x3911 PUSH2 0x4423 JUMP JUMPDEST JUMPDEST PUSH1 0x7 MUL ADD PUSH1 0x4 ADD PUSH1 0x1 SWAP1 SLOAD SWAP1 PUSH2 0x100 EXP SWAP1 DIV PUSH1 0xFF AND JUMPDEST JUMPDEST POP PUSH1 0x11 SLOAD PUSH1 0x2 PUSH0 PUSH1 0x2 DUP2 LT PUSH2 0x3941 JUMPI PUSH2 0x3940 PUSH2 0x4423 JUMP JUMPDEST JUMPDEST PUSH1 0x7 MUL ADD PUSH1 0x1 ADD PUSH0 DUP3 DUP3 SLOAD PUSH2 0x3956 SWAP2 SWAP1 PUSH2 0x4518 JUMP JUMPDEST SWAP3 POP POP DUP2 SWAP1 SSTORE POP DUP5 PUSH20 0xFFFFFFFFFFFFFFFFFFFFFFFFFFFFFFFFFFFFFFFF AND PUSH32 0x6FAFC1817661502FCA20A0A735270D1344AD3A710B309B32B9ED925956C500C5 PUSH1 0x11 SLOAD PUSH1 0x40 MLOAD PUSH2 0x39A5 SWAP2 SWAP1 PUSH2 0x3F5E JUMP JUMPDEST PUSH1 0x40 MLOAD DUP1 SWAP2 SUB SWAP1 LOG2 POP PUSH2 0x3B0D JUMP JUMPDEST PUSH0 DUP2 DUP4 PUSH2 0x39C0 SWAP2 SWAP1 PUSH2 0x4518 JUMP JUMPDEST SWAP1 POP PUSH1 0x2 PUSH1 0x1 PUSH1 0x2 DUP2 LT PUSH2 0x39D7 JUMPI PUSH2 0x39D6 PUSH2 0x4423 JUMP JUMPDEST JUMPDEST PUSH1 0x7 MUL ADD PUSH1 0x4 ADD PUSH1 0x1 SWAP1 SLOAD SWAP1 PUSH2 0x100 EXP SWAP1 DIV PUSH1 0xFF AND DUP1 ISZERO PUSH2 0x39F7 JUMPI POP DUP3 DUP3 LT JUMPDEST ISZERO PUSH2 0x3A10 JUMPI PUSH1 0x2 DUP3 PUSH2 0x3A09 SWAP2 SWAP1 PUSH2 0x46CE JUMP JUMPDEST SWAP1 POP PUSH2 0x3A1F JUMP JUMPDEST DUP2 DUP4 PUSH2 0x3A1C SWAP2 SWAP1 PUSH2 0x4518 JUMP JUMPDEST SWAP1 POP JUMPDEST DUP1 PUSH1 0x11 SLOAD GT DUP1 ISZERO PUSH2 0x3A86 JUMPI POP PUSH1 0x2 PUSH0 PUSH1 0x2 DUP2 LT PUSH2 0x3A3F JUMPI PUSH2 0x3A3E PUSH2 0x4423 JUMP JUMPDEST JUMPDEST PUSH1 0x7 MUL ADD PUSH1 0x4 ADD PUSH1 0x1 SWAP1 SLOAD SWAP1 PUSH2 0x100 EXP SWAP1 DIV PUSH1 0xFF AND DUP1 PUSH2 0x3A85 JUMPI POP PUSH1 0x2 PUSH1 0x1 PUSH1 0x2 DUP2 LT PUSH2 0x3A6F JUMPI PUSH2 0x3A6E PUSH2 0x4423 JUMP JUMPDEST JUMPDEST PUSH1 0x7 MUL ADD PUSH1 0x4 ADD PUSH1 0x1 SWAP1 SLOAD SWAP1 PUSH2 0x100 EXP SWAP1 DIV PUSH1 0xFF AND JUMPDEST JUMPDEST POP PUSH1 0x11 SLOAD PUSH1 0x2 PUSH1 0x1 PUSH1 0x2 DUP2 LT PUSH2 0x3A9F JUMPI PUSH2 0x3A9E PUSH2 0x4423 JUMP JUMPDEST JUMPDEST PUSH1 0x7 MUL ADD PUSH1 0x1 ADD PUSH0 DUP3 DUP3 SLOAD PUSH2 0x3AB4 SWAP2 SWAP1 PUSH2 0x4518 JUMP JUMPDEST SWAP3 POP POP DUP2 SWAP1 SSTORE POP DUP5 PUSH20 0xFFFFFFFFFFFFFFFFFFFFFFFFFFFFFFFFFFFFFFFF AND PUSH32 0x6FAFC1817661502FCA20A0A735270D1344AD3A710B309B32B9ED925956C500C5 PUSH1 0x11 SLOAD PUSH1 0x40 MLOAD PUSH2 0x3B03 SWAP2 SWAP1 PUSH2 0x3F5E JUMP JUMPDEST PUSH1 0x40 MLOAD DUP1 SWAP2 SUB SWAP1 LOG2 POP JUMPDEST PUSH0 PUSH1 0x11 DUP2 SWAP1 SSTORE POP POP POP JUMPDEST PUSH2 0x3B1F PUSH2 0x3584 JUMP JUMPDEST POP POP POP POP JUMPDEST POP POP POP JUMP JUMPDEST PUSH0 PUSH0 DUP5 SWAP1 POP PUSH0 DUP5 SWAP1 POP DUP4 ISZERO PUSH2 0x3B87 JUMPI PUSH1 0x1 PUSH1 0xFF AND DUP3 PUSH1 0xFF AND EQ DUP1 ISZERO PUSH2 0x3B54 JUMPI POP PUSH1 0xE PUSH1 0xFF AND DUP2 PUSH1 0xFF AND EQ JUMPDEST ISZERO PUSH2 0x3B64 JUMPI PUSH1 0xF SWAP3 POP POP POP PUSH2 0x3BD2 JUMP JUMPDEST PUSH1 0x1 PUSH1 0xFF AND DUP3 PUSH1 0xFF AND SUB PUSH2 0x3B7D JUMPI PUSH1 0x1 SWAP3 POP POP POP PUSH2 0x3BD2 JUMP JUMPDEST DUP2 SWAP3 POP POP POP PUSH2 0x3BD2 JUMP JUMPDEST PUSH1 0x1 PUSH1 0xFF AND DUP2 PUSH1 0xFF AND EQ DUP1 ISZERO PUSH2 0x3BA3 JUMPI POP PUSH1 0xE PUSH1 0xFF AND DUP3 PUSH1 0xFF AND EQ JUMPDEST ISZERO PUSH2 0x3BB3 JUMPI PUSH1 0xF SWAP3 POP POP POP PUSH2 0x3BD2 JUMP JUMPDEST PUSH1 0x1 PUSH1 0xFF AND DUP2 PUSH1 0xFF AND SUB PUSH2 0x3BCC JUMPI PUSH1 0x1 SWAP3 POP POP POP PUSH2 0x3BD2 JUMP JUMPDEST DUP1 SWAP3 POP POP POP JUMPDEST SWAP4 SWAP3 POP POP POP JUMP JUMPDEST PUSH0 PUSH1 0x1 PUSH1 0x15 PUSH0 SWAP1 SLOAD SWAP1 PUSH2 0x100 EXP SWAP1 DIV PUSH1 0xFF AND PUSH1 0xFF AND PUSH1 0x14 DUP1 SLOAD SWAP1 POP PUSH2 0x3BFE SWAP2 SWAP1 PUSH2 0x447D JUMP JUMPDEST LT ISZERO PUSH2 0x3C3F JUMPI PUSH1 0x40 MLOAD PUSH32 0x8C379A000000000000000000000000000000000000000000000000000000000 DUP2 MSTORE PUSH1 0x4 ADD PUSH2 0x3C36 SWAP1 PUSH2 0x569D JUMP JUMPDEST PUSH1 0x40 MLOAD DUP1 SWAP2 SUB SWAP1 REVERT JUMPDEST PUSH1 0x14 PUSH1 0x15 PUSH0 DUP2 DUP2 SWAP1 SLOAD SWAP1 PUSH2 0x100 EXP SWAP1 DIV PUSH1 0xFF AND DUP1 SWAP3 SWAP2 SWAP1 PUSH2 0x3C5F SWAP1 PUSH2 0x4EB4 JUMP JUMPDEST SWAP2 SWAP1 PUSH2 0x100 EXP DUP2 SLOAD DUP2 PUSH1 0xFF MUL NOT AND SWAP1 DUP4 PUSH1 0xFF AND MUL OR SWAP1 SSTORE POP PUSH1 0xFF AND DUP2 SLOAD DUP2 LT PUSH2 0x3C8B JUMPI PUSH2 0x3C8A PUSH2 0x4423 JUMP JUMPDEST JUMPDEST SWAP1 PUSH0 MSTORE PUSH1 0x20 PUSH0 KECCAK256 SWAP1 PUSH1 0x20 SWAP2 DUP3 DUP3 DIV ADD SWAP2 SWAP1 MOD SWAP1 SLOAD SWAP1 PUSH2 0x100 EXP SWAP1 DIV PUSH1 0xFF AND SWAP1 POP SWAP1 JUMP JUMPDEST PUSH0 PUSH1 0x2 PUSH1 0x11 SLOAD PUSH2 0x3CBE SWAP2 SWAP1 PUSH2 0x469E JUMP JUMPDEST SWAP1 POP DUP1 PUSH1 0x2 PUSH0 PUSH1 0x2 DUP2 LT PUSH2 0x3CD5 JUMPI PUSH2 0x3CD4 PUSH2 0x4423 JUMP JUMPDEST JUMPDEST PUSH1 0x7 MUL ADD PUSH1 0x1 ADD PUSH0 DUP3 DUP3 SLOAD PUSH2 0x3CEA SWAP2 SWAP1 PUSH2 0x4518 JUMP JUMPDEST SWAP3 POP POP DUP2 SWAP1 SSTORE POP DUP1 PUSH1 0x2 PUSH1 0x1 PUSH1 0x2 DUP2 LT PUSH2 0x3D07 JUMPI PUSH2 0x3D06 PUSH2 0x4423 JUMP JUMPDEST JUMPDEST PUSH1 0x7 MUL ADD PUSH1 0x1 ADD PUSH0 DUP3 DUP3 SLOAD PUSH2 0x3D1C SWAP2 SWAP1 PUSH2 0x4518 JUMP JUMPDEST SWAP3 POP POP DUP2 SWAP1 SSTORE POP PUSH0 PUSH1 0x2 PUSH1 0x11 SLOAD PUSH2 0x3D33 SWAP2 SWAP1 PUSH2 0x45E0 JUMP JUMPDEST EQ PUSH2 0x3D6B JUMPI PUSH1 0x1 PUSH1 0x2 PUSH0 PUSH1 0x2 DUP2 LT PUSH2 0x3D4E JUMPI PUSH2 0x3D4D PUSH2 0x4423 JUMP JUMPDEST JUMPDEST PUSH1 0x7 MUL ADD PUSH1 0x1 ADD PUSH0 DUP3 DUP3 SLOAD PUSH2 0x3D63 SWAP2 SWAP1 PUSH2 0x4518 JUMP JUMPDEST SWAP3 POP POP DUP2 SWAP1 SSTORE POP JUMPDEST PUSH1 0x2 PUSH1 0x1 PUSH1 0x2 DUP2 LT PUSH2 0x3D80 JUMPI PUSH2 0x3D7F PUSH2 0x4423 JUMP JUMPDEST JUMPDEST PUSH1 0x7 MUL ADD PUSH0 ADD PUSH0 SWAP1 SLOAD SWAP1 PUSH2 0x100 EXP SWAP1 DIV PUSH20 0xFFFFFFFFFFFFFFFFFFFFFFFFFFFFFFFFFFFFFFFF AND PUSH20 0xFFFFFFFFFFFFFFFFFFFFFFFFFFFFFFFFFFFFFFFF AND PUSH1 0x2 PUSH0 PUSH1 0x2 DUP2 LT PUSH2 0x3DD0 JUMPI PUSH2 0x3DCF PUSH2 0x4423 JUMP JUMPDEST JUMPDEST PUSH1 0x7 MUL ADD PUSH0 ADD PUSH0 SWAP1 SLOAD SWAP1 PUSH2 0x100 EXP SWAP1 DIV PUSH20 0xFFFFFFFFFFFFFFFFFFFFFFFFFFFFFFFFFFFFFFFF AND PUSH20 0xFFFFFFFFFFFFFFFFFFFFFFFFFFFFFFFFFFFFFFFF AND PUSH32 0x146EE9FEDAF502AA2159CF1E890FF5E6A2B7E634B2C1FDCEF212A4502AB3A09E DUP4 PUSH1 0x40 MLOAD PUSH2 0x3E3B SWAP2 SWAP1 PUSH2 0x3F5E JUMP JUMPDEST PUSH1 0x40 MLOAD DUP1 SWAP2 SUB SWAP1 LOG3 PUSH0 PUSH1 0x11 DUP2 SWAP1 SSTORE POP PUSH2 0x3E52 PUSH2 0x3584 JUMP JUMPDEST POP JUMP JUMPDEST POP DUP1 SLOAD PUSH0 DUP3 SSTORE PUSH1 0x1F ADD PUSH1 0x20 SWAP1 DIV SWAP1 PUSH0 MSTORE PUSH1 0x20 PUSH0 KECCAK256 SWAP1 DUP2 ADD SWAP1 PUSH2 0x3E77 SWAP2 SWAP1 PUSH2 0x3E7A JUMP JUMPDEST POP JUMP JUMPDEST JUMPDEST DUP1 DUP3 GT ISZERO PUSH2 0x3E91 JUMPI PUSH0 DUP2 PUSH0 SWAP1 SSTORE POP PUSH1 0x1 ADD PUSH2 0x3E7B JUMP JUMPDEST POP SWAP1 JUMP JUMPDEST PUSH0 PUSH0 REVERT JUMPDEST PUSH0 DUP2 SWAP1 POP SWAP2 SWAP1 POP JUMP JUMPDEST PUSH2 0x3EAB DUP2 PUSH2 0x3E99 JUMP JUMPDEST DUP2 EQ PUSH2 0x3EB5 JUMPI PUSH0 PUSH0 REVERT JUMPDEST POP JUMP JUMPDEST PUSH0 DUP2 CALLDATALOAD SWAP1 POP PUSH2 0x3EC6 DUP2 PUSH2 0x3EA2 JUMP JUMPDEST SWAP3 SWAP2 POP POP JUMP JUMPDEST PUSH0 PUSH1 0x20 DUP3 DUP5 SUB SLT ISZERO PUSH2 0x3EE1 JUMPI PUSH2 0x3EE0 PUSH2 0x3E95 JUMP JUMPDEST JUMPDEST PUSH0 PUSH2 0x3EEE DUP5 DUP3 DUP6 ADD PUSH2 0x3EB8 JUMP JUMPDEST SWAP2 POP POP SWAP3 SWAP2 POP POP JUMP JUMPDEST PUSH0 PUSH20 0xFFFFFFFFFFFFFFFFFFFFFFFFFFFFFFFFFFFFFFFF DUP3 AND SWAP1 POP SWAP2 SWAP1 POP JUMP JUMPDEST PUSH0 PUSH2 0x3F20 DUP3 PUSH2 0x3EF7 JUMP JUMPDEST SWAP1 POP SWAP2 SWAP1 POP JUMP JUMPDEST PUSH2 0x3F30 DUP2 PUSH2 0x3F16 JUMP JUMPDEST DUP3 MSTORE POP POP JUMP JUMPDEST PUSH0 PUSH1 0x20 DUP3 ADD SWAP1 POP PUSH2 0x3F49 PUSH0 DUP4 ADD DUP5 PUSH2 0x3F27 JUMP JUMPDEST SWAP3 SWAP2 POP POP JUMP JUMPDEST PUSH2 0x3F58 DUP2 PUSH2 0x3E99 JUMP JUMPDEST DUP3 MSTORE POP POP JUMP JUMPDEST PUSH0 PUSH1 0x20 DUP3 ADD SWAP1 POP PUSH2 0x3F71 PUSH0 DUP4 ADD DUP5 PUSH2 0x3F4F JUMP JUMPDEST SWAP3 SWAP2 POP POP JUMP JUMPDEST PUSH0 PUSH1 0x40 DUP3 ADD SWAP1 POP PUSH2 0x3F8A PUSH0 DUP4 ADD DUP6 PUSH2 0x3F4F JUMP JUMPDEST PUSH2 0x3F97 PUSH1 0x20 DUP4 ADD DUP5 PUSH2 0x3F4F JUMP JUMPDEST SWAP4 SWAP3 POP POP POP JUMP JUMPDEST PUSH0 PUSH1 0xFF DUP3 AND SWAP1 POP SWAP2 SWAP1 POP JUMP JUMPDEST PUSH2 0x3FB3 DUP2 PUSH2 0x3F9E JUMP JUMPDEST DUP3 MSTORE POP POP JUMP JUMPDEST PUSH0 PUSH1 0x20 DUP3 ADD SWAP1 POP PUSH2 0x3FCC PUSH0 DUP4 ADD DUP5 PUSH2 0x3FAA JUMP JUMPDEST SWAP3 SWAP2 POP POP JUMP JUMPDEST PUSH32 0x4E487B7100000000000000000000000000000000000000000000000000000000 PUSH0 MSTORE PUSH1 0x21 PUSH1 0x4 MSTORE PUSH1 0x24 PUSH0 REVERT JUMPDEST PUSH1 0x5 DUP2 LT PUSH2 0x4010 JUMPI PUSH2 0x400F PUSH2 0x3FD2 JUMP JUMPDEST JUMPDEST POP JUMP JUMPDEST PUSH0 DUP2 SWAP1 POP PUSH2 0x4020 DUP3 PUSH2 0x3FFF JUMP JUMPDEST SWAP2 SWAP1 POP JUMP JUMPDEST PUSH0 PUSH2 0x402F DUP3 PUSH2 0x4013 JUMP JUMPDEST SWAP1 POP SWAP2 SWAP1 POP JUMP JUMPDEST PUSH2 0x403F DUP2 PUSH2 0x4025 JUMP JUMPDEST DUP3 MSTORE POP POP JUMP JUMPDEST PUSH0 PUSH1 0x20 DUP3 ADD SWAP1 POP PUSH2 0x4058 PUSH0 DUP4 ADD DUP5 PUSH2 0x4036 JUMP JUMPDEST SWAP3 SWAP2 POP POP JUMP JUMPDEST PUSH0 DUP2 ISZERO ISZERO SWAP1 POP SWAP2 SWAP1 POP JUMP JUMPDEST PUSH2 0x4072 DUP2 PUSH2 0x405E JUMP JUMPDEST DUP3 MSTORE POP POP JUMP JUMPDEST PUSH0 PUSH2 0x180 DUP3 ADD SWAP1 POP PUSH2 0x408C PUSH0 DUP4 ADD DUP16 PUSH2 0x4036 JUMP JUMPDEST PUSH2 0x4099 PUSH1 0x20 DUP4 ADD DUP15 PUSH2 0x3F4F JUMP JUMPDEST PUSH2 0x40A6 PUSH1 0x40 DUP4 ADD DUP14 PUSH2 0x3F27 JUMP JUMPDEST PUSH2 0x40B3 PUSH1 0x60 DUP4 ADD DUP13 PUSH2 0x3F4F JUMP JUMPDEST PUSH2 0x40C0 PUSH1 0x80 DUP4 ADD DUP12 PUSH2 0x3F4F JUMP JUMPDEST PUSH2 0x40CD PUSH1 0xA0 DUP4 ADD DUP11 PUSH2 0x4069 JUMP JUMPDEST PUSH2 0x40DA PUSH1 0xC0 DUP4 ADD DUP10 PUSH2 0x3F27 JUMP JUMPDEST PUSH2 0x40E7 PUSH1 0xE0 DUP4 ADD DUP9 PUSH2 0x3F4F JUMP JUMPDEST PUSH2 0x40F5 PUSH2 0x100 DUP4 ADD DUP8 PUSH2 0x3F4F JUMP JUMPDEST PUSH2 0x4103 PUSH2 0x120 DUP4 ADD DUP7 PUSH2 0x4069 JUMP JUMPDEST PUSH2 0x4111 PUSH2 0x140 DUP4 ADD DUP6 PUSH2 0x3F27 JUMP JUMPDEST PUSH2 0x411F PUSH2 0x160 DUP4 ADD DUP5 PUSH2 0x3F4F JUMP JUMPDEST SWAP14 SWAP13 POP POP POP POP POP POP POP POP POP POP POP POP POP JUMP JUMPDEST PUSH2 0x4139 DUP2 PUSH2 0x3F16 JUMP JUMPDEST DUP2 EQ PUSH2 0x4143 JUMPI PUSH0 PUSH0 REVERT JUMPDEST POP JUMP JUMPDEST PUSH0 DUP2 CALLDATALOAD SWAP1 POP PUSH2 0x4154 DUP2 PUSH2 0x4130 JUMP JUMPDEST SWAP3 SWAP2 POP POP JUMP JUMPDEST PUSH0 PUSH1 0x20 DUP3 DUP5 SUB SLT ISZERO PUSH2 0x416F JUMPI PUSH2 0x416E PUSH2 0x3E95 JUMP JUMPDEST JUMPDEST PUSH0 PUSH2 0x417C DUP5 DUP3 DUP6 ADD PUSH2 0x4146 JUMP JUMPDEST SWAP2 POP POP SWAP3 SWAP2 POP POP JUMP JUMPDEST PUSH0 PUSH1 0xC0 DUP3 ADD SWAP1 POP PUSH2 0x4198 PUSH0 DUP4 ADD DUP10 PUSH2 0x3F27 JUMP JUMPDEST PUSH2 0x41A5 PUSH1 0x20 DUP4 ADD DUP9 PUSH2 0x3F4F JUMP JUMPDEST PUSH2 0x41B2 PUSH1 0x40 DUP4 ADD DUP8 PUSH2 0x3FAA JUMP JUMPDEST PUSH2 0x41BF PUSH1 0x60 DUP4 ADD DUP7 PUSH2 0x3F4F JUMP JUMPDEST PUSH2 0x41CC PUSH1 0x80 DUP4 ADD DUP6 PUSH2 0x4069 JUMP JUMPDEST PUSH2 0x41D9 PUSH1 0xA0 DUP4 ADD DUP5 PUSH2 0x4069 JUMP JUMPDEST SWAP8 SWAP7 POP POP POP POP POP POP POP JUMP JUMPDEST PUSH0 PUSH2 0x41EE DUP3 PUSH2 0x3EF7 JUMP JUMPDEST SWAP1 POP SWAP2 SWAP1 POP JUMP JUMPDEST PUSH2 0x41FE DUP2 PUSH2 0x41E4 JUMP JUMPDEST DUP3 MSTORE POP POP JUMP JUMPDEST PUSH0 PUSH2 0x120 DUP3 ADD SWAP1 POP PUSH2 0x4218 PUSH0 DUP4 ADD DUP13 PUSH2 0x41F5 JUMP JUMPDEST PUSH2 0x4225 PUSH1 0x20 DUP4 ADD DUP12 PUSH2 0x3F4F JUMP JUMPDEST PUSH2 0x4232 PUSH1 0x40 DUP4 ADD DUP11 PUSH2 0x3FAA JUMP JUMPDEST PUSH2 0x423F PUSH1 0x60 DUP4 ADD DUP10 PUSH2 0x3F4F JUMP JUMPDEST PUSH2 0x424C PUSH1 0x80 DUP4 ADD DUP9 PUSH2 0x4069 JUMP JUMPDEST PUSH2 0x4259 PUSH1 0xA0 DUP4 ADD DUP8 PUSH2 0x4069 JUMP JUMPDEST PUSH2 0x4266 PUSH1 0xC0 DUP4 ADD DUP7 PUSH2 0x3F4F JUMP JUMPDEST PUSH2 0x4273 PUSH1 0xE0 DUP4 ADD DUP6 PUSH2 0x4069 JUMP JUMPDEST PUSH2 0x4281 PUSH2 0x100 DUP4 ADD DUP5 PUSH2 0x3FAA JUMP JUMPDEST SWAP11 SWAP10 POP POP POP POP POP POP POP POP POP POP JUMP JUMPDEST PUSH0 DUP3 DUP3 MSTORE PUSH1 0x20 DUP3 ADD SWAP1 POP SWAP3 SWAP2 POP POP JUMP JUMPDEST PUSH32 0x4E6F7420696E2062657474696E67207068617365000000000000000000000000 PUSH0 DUP3 ADD MSTORE POP JUMP JUMPDEST PUSH0 PUSH2 0x42D3 PUSH1 0x14 DUP4 PUSH2 0x428F JUMP JUMPDEST SWAP2 POP PUSH2 0x42DE DUP3 PUSH2 0x429F JUMP JUMPDEST PUSH1 0x20 DUP3 ADD SWAP1 POP SWAP2 SWAP1 POP JUMP JUMPDEST PUSH0 PUSH1 0x20 DUP3 ADD SWAP1 POP DUP2 DUP2 SUB PUSH0 DUP4 ADD MSTORE PUSH2 0x4300 DUP2 PUSH2 0x42C7 JUMP JUMPDEST SWAP1 POP SWAP2 SWAP1 POP JUMP JUMPDEST PUSH32 0x43616E6E6F742072616973652069662074686572652773206E6F207072657669 PUSH0 DUP3 ADD MSTORE PUSH32 0x6F7573206265743B2075736520626574282920696E73746561642E0000000000 PUSH1 0x20 DUP3 ADD MSTORE POP JUMP JUMPDEST PUSH0 PUSH2 0x4361 PUSH1 0x3B DUP4 PUSH2 0x428F JUMP JUMPDEST SWAP2 POP PUSH2 0x436C DUP3 PUSH2 0x4307 JUMP JUMPDEST PUSH1 0x40 DUP3 ADD SWAP1 POP SWAP2 SWAP1 POP JUMP JUMPDEST PUSH0 PUSH1 0x20 DUP3 ADD SWAP1 POP DUP2 DUP2 SUB PUSH0 DUP4 ADD MSTORE PUSH2 0x438E DUP2 PUSH2 0x4355 JUMP JUMPDEST SWAP1 POP SWAP2 SWAP1 POP JUMP JUMPDEST PUSH32 0x526169736520616D6F756E74206D757374206265206772656174657220746861 PUSH0 DUP3 ADD MSTORE PUSH32 0x6E2063757272656E7420616D6F756E7420746F2063616C6C0000000000000000 PUSH1 0x20 DUP3 ADD MSTORE POP JUMP JUMPDEST PUSH0 PUSH2 0x43EF PUSH1 0x38 DUP4 PUSH2 0x428F JUMP JUMPDEST SWAP2 POP PUSH2 0x43FA DUP3 PUSH2 0x4395 JUMP JUMPDEST PUSH1 0x40 DUP3 ADD SWAP1 POP SWAP2 SWAP1 POP JUMP JUMPDEST PUSH0 PUSH1 0x20 DUP3 ADD SWAP1 POP DUP2 DUP2 SUB PUSH0 DUP4 ADD MSTORE PUSH2 0x441C DUP2 PUSH2 0x43E3 JUMP JUMPDEST SWAP1 POP SWAP2 SWAP1 POP JUMP JUMPDEST PUSH32 0x4E487B7100000000000000000000000000000000000000000000000000000000 PUSH0 MSTORE PUSH1 0x32 PUSH1 0x4 MSTORE PUSH1 0x24 PUSH0 REVERT JUMPDEST PUSH32 0x4E487B7100000000000000000000000000000000000000000000000000000000 PUSH0 MSTORE PUSH1 0x11 PUSH1 0x4 MSTORE PUSH1 0x24 PUSH0 REVERT JUMPDEST PUSH0 PUSH2 0x4487 DUP3 PUSH2 0x3E99 JUMP JUMPDEST SWAP2 POP PUSH2 0x4492 DUP4 PUSH2 0x3E99 JUMP JUMPDEST SWAP3 POP DUP3 DUP3 SUB SWAP1 POP DUP2 DUP2 GT ISZERO PUSH2 0x44AA JUMPI PUSH2 0x44A9 PUSH2 0x4450 JUMP JUMPDEST JUMPDEST SWAP3 SWAP2 POP POP JUMP JUMPDEST PUSH32 0x496E73756666696369656E7420636869707320746F2072616973650000000000 PUSH0 DUP3 ADD MSTORE POP JUMP JUMPDEST PUSH0 PUSH2 0x44E4 PUSH1 0x1B DUP4 PUSH2 0x428F JUMP JUMPDEST SWAP2 POP PUSH2 0x44EF DUP3 PUSH2 0x44B0 JUMP JUMPDEST PUSH1 0x20 DUP3 ADD SWAP1 POP SWAP2 SWAP1 POP JUMP JUMPDEST PUSH0 PUSH1 0x20 DUP3 ADD SWAP1 POP DUP2 DUP2 SUB PUSH0 DUP4 ADD MSTORE PUSH2 0x4511 DUP2 PUSH2 0x44D8 JUMP JUMPDEST SWAP1 POP SWAP2 SWAP1 POP JUMP JUMPDEST PUSH0 PUSH2 0x4522 DUP3 PUSH2 0x3E99 JUMP JUMPDEST SWAP2 POP PUSH2 0x452D DUP4 PUSH2 0x3E99 JUMP JUMPDEST SWAP3 POP DUP3 DUP3 ADD SWAP1 POP DUP1 DUP3 GT ISZERO PUSH2 0x4545 JUMPI PUSH2 0x4544 PUSH2 0x4450 JUMP JUMPDEST JUMPDEST SWAP3 SWAP2 POP POP JUMP JUMPDEST PUSH32 0x4D7573742073656E642045544820746F20676574206368697073000000000000 PUSH0 DUP3 ADD MSTORE POP JUMP JUMPDEST PUSH0 PUSH2 0x457F PUSH1 0x1A DUP4 PUSH2 0x428F JUMP JUMPDEST SWAP2 POP PUSH2 0x458A DUP3 PUSH2 0x454B JUMP JUMPDEST PUSH1 0x20 DUP3 ADD SWAP1 POP SWAP2 SWAP1 POP JUMP JUMPDEST PUSH0 PUSH1 0x20 DUP3 ADD SWAP1 POP DUP2 DUP2 SUB PUSH0 DUP4 ADD MSTORE PUSH2 0x45AC DUP2 PUSH2 0x4573 JUMP JUMPDEST SWAP1 POP SWAP2 SWAP1 POP JUMP JUMPDEST PUSH32 0x4E487B7100000000000000000000000000000000000000000000000000000000 PUSH0 MSTORE PUSH1 0x12 PUSH1 0x4 MSTORE PUSH1 0x24 PUSH0 REVERT JUMPDEST PUSH0 PUSH2 0x45EA DUP3 PUSH2 0x3E99 JUMP JUMPDEST SWAP2 POP PUSH2 0x45F5 DUP4 PUSH2 0x3E99 JUMP JUMPDEST SWAP3 POP DUP3 PUSH2 0x4605 JUMPI PUSH2 0x4604 PUSH2 0x45B3 JUMP JUMPDEST JUMPDEST DUP3 DUP3 MOD SWAP1 POP SWAP3 SWAP2 POP POP JUMP JUMPDEST PUSH32 0x45544820616D6F756E74206D7573742062652061206D756C7469706C65206F66 PUSH0 DUP3 ADD MSTORE PUSH32 0x204D494E5F4255595F494E5F4554480000000000000000000000000000000000 PUSH1 0x20 DUP3 ADD MSTORE POP JUMP JUMPDEST PUSH0 PUSH2 0x466A PUSH1 0x2F DUP4 PUSH2 0x428F JUMP JUMPDEST SWAP2 POP PUSH2 0x4675 DUP3 PUSH2 0x4610 JUMP JUMPDEST PUSH1 0x40 DUP3 ADD SWAP1 POP SWAP2 SWAP1 POP JUMP JUMPDEST PUSH0 PUSH1 0x20 DUP3 ADD SWAP1 POP DUP2 DUP2 SUB PUSH0 DUP4 ADD MSTORE PUSH2 0x4697 DUP2 PUSH2 0x465E JUMP JUMPDEST SWAP1 POP SWAP2 SWAP1 POP JUMP JUMPDEST PUSH0 PUSH2 0x46A8 DUP3 PUSH2 0x3E99 JUMP JUMPDEST SWAP2 POP PUSH2 0x46B3 DUP4 PUSH2 0x3E99 JUMP JUMPDEST SWAP3 POP DUP3 PUSH2 0x46C3 JUMPI PUSH2 0x46C2 PUSH2 0x45B3 JUMP JUMPDEST JUMPDEST DUP3 DUP3 DIV SWAP1 POP SWAP3 SWAP2 POP POP JUMP JUMPDEST PUSH0 PUSH2 0x46D8 DUP3 PUSH2 0x3E99 JUMP JUMPDEST SWAP2 POP PUSH2 0x46E3 DUP4 PUSH2 0x3E99 JUMP JUMPDEST SWAP3 POP DUP3 DUP3 MUL PUSH2 0x46F1 DUP2 PUSH2 0x3E99 JUMP JUMPDEST SWAP2 POP DUP3 DUP3 DIV DUP5 EQ DUP4 ISZERO OR PUSH2 0x4708 JUMPI PUSH2 0x4707 PUSH2 0x4450 JUMP JUMPDEST JUMPDEST POP SWAP3 SWAP2 POP POP JUMP JUMPDEST PUSH32 0x506C61796572206E6F7420666F756E642E204A6F696E2067616D65206F722065 PUSH0 DUP3 ADD MSTORE PUSH32 0x6E7375726520796F75206172652061207061727469636970616E742E00000000 PUSH1 0x20 DUP3 ADD MSTORE POP JUMP JUMPDEST PUSH0 PUSH2 0x4769 PUSH1 0x3C DUP4 PUSH2 0x428F JUMP JUMPDEST SWAP2 POP PUSH2 0x4774 DUP3 PUSH2 0x470F JUMP JUMPDEST PUSH1 0x40 DUP3 ADD SWAP1 POP SWAP2 SWAP1 POP JUMP JUMPDEST PUSH0 PUSH1 0x20 DUP3 ADD SWAP1 POP DUP2 DUP2 SUB PUSH0 DUP4 ADD MSTORE PUSH2 0x4796 DUP2 PUSH2 0x475D JUMP JUMPDEST SWAP1 POP SWAP2 SWAP1 POP JUMP JUMPDEST PUSH32 0x4368697020616D6F756E74206D75737420626520706F73697469766500000000 PUSH0 DUP3 ADD MSTORE POP JUMP JUMPDEST PUSH0 PUSH2 0x47D1 PUSH1 0x1C DUP4 PUSH2 0x428F JUMP JUMPDEST SWAP2 POP PUSH2 0x47DC DUP3 PUSH2 0x479D JUMP JUMPDEST PUSH1 0x20 DUP3 ADD SWAP1 POP SWAP2 SWAP1 POP JUMP JUMPDEST PUSH0 PUSH1 0x20 DUP3 ADD SWAP1 POP DUP2 DUP2 SUB PUSH0 DUP4 ADD MSTORE PUSH2 0x47FE DUP2 PUSH2 0x47C5 JUMP JUMPDEST SWAP1 POP SWAP2 SWAP1 POP JUMP JUMPDEST PUSH32 0x496E73756666696369656E742063686970730000000000000000000000000000 PUSH0 DUP3 ADD MSTORE POP JUMP JUMPDEST PUSH0 PUSH2 0x4839 PUSH1 0x12 DUP4 PUSH2 0x428F JUMP JUMPDEST SWAP2 POP PUSH2 0x4844 DUP3 PUSH2 0x4805 JUMP JUMPDEST PUSH1 0x20 DUP3 ADD SWAP1 POP SWAP2 SWAP1 POP JUMP JUMPDEST PUSH0 PUSH1 0x20 DUP3 ADD SWAP1 POP DUP2 DUP2 SUB PUSH0 DUP4 ADD MSTORE PUSH2 0x4866 DUP2 PUSH2 0x482D JUMP JUMPDEST SWAP1 POP SWAP2 SWAP1 POP JUMP JUMPDEST PUSH32 0x436F6E74726163742068617320696E73756666696369656E742045544820666F PUSH0 DUP3 ADD MSTORE PUSH32 0x722065786368616E676500000000000000000000000000000000000000000000 PUSH1 0x20 DUP3 ADD MSTORE POP JUMP JUMPDEST PUSH0 PUSH2 0x48C7 PUSH1 0x2A DUP4 PUSH2 0x428F JUMP JUMPDEST SWAP2 POP PUSH2 0x48D2 DUP3 PUSH2 0x486D JUMP JUMPDEST PUSH1 0x40 DUP3 ADD SWAP1 POP SWAP2 SWAP1 POP JUMP JUMPDEST PUSH0 PUSH1 0x20 DUP3 ADD SWAP1 POP DUP2 DUP2 SUB PUSH0 DUP4 ADD MSTORE PUSH2 0x48F4 DUP2 PUSH2 0x48BB JUMP JUMPDEST SWAP1 POP SWAP2 SWAP1 POP JUMP JUMPDEST PUSH0 DUP2 SWAP1 POP SWAP3 SWAP2 POP POP JUMP JUMPDEST POP JUMP JUMPDEST PUSH0 PUSH2 0x4913 PUSH0 DUP4 PUSH2 0x48FB JUMP JUMPDEST SWAP2 POP PUSH2 0x491E DUP3 PUSH2 0x4905 JUMP JUMPDEST PUSH0 DUP3 ADD SWAP1 POP SWAP2 SWAP1 POP JUMP JUMPDEST PUSH0 PUSH2 0x4932 DUP3 PUSH2 0x4908 JUMP JUMPDEST SWAP2 POP DUP2 SWAP1 POP SWAP2 SWAP1 POP JUMP JUMPDEST PUSH32 0x455448207472616E73666572206661696C656400000000000000000000000000 PUSH0 DUP3 ADD MSTORE POP JUMP JUMPDEST PUSH0 PUSH2 0x4970 PUSH1 0x13 DUP4 PUSH2 0x428F JUMP JUMPDEST SWAP2 POP PUSH2 0x497B DUP3 PUSH2 0x493C JUMP JUMPDEST PUSH1 0x20 DUP3 ADD SWAP1 POP SWAP2 SWAP1 POP JUMP JUMPDEST PUSH0 PUSH1 0x20 DUP3 ADD SWAP1 POP DUP2 DUP2 SUB PUSH0 DUP4 ADD MSTORE PUSH2 0x499D DUP2 PUSH2 0x4964 JUMP JUMPDEST SWAP1 POP SWAP2 SWAP1 POP JUMP JUMPDEST PUSH32 0x42657420616D6F756E74206D75737420626520706F7369746976650000000000 PUSH0 DUP3 ADD MSTORE POP JUMP JUMPDEST PUSH0 PUSH2 0x49D8 PUSH1 0x1B DUP4 PUSH2 0x428F JUMP JUMPDEST SWAP2 POP PUSH2 0x49E3 DUP3 PUSH2 0x49A4 JUMP JUMPDEST PUSH1 0x20 DUP3 ADD SWAP1 POP SWAP2 SWAP1 POP JUMP JUMPDEST PUSH0 PUSH1 0x20 DUP3 ADD SWAP1 POP DUP2 DUP2 SUB PUSH0 DUP4 ADD MSTORE PUSH2 0x4A05 DUP2 PUSH2 0x49CC JUMP JUMPDEST SWAP1 POP SWAP2 SWAP1 POP JUMP JUMPDEST PUSH32 0x43616E6E6F74206265742C206D7573742063616C6C2C207261697365206F7220 PUSH0 DUP3 ADD MSTORE PUSH32 0x666F6C642E204F722074686973206973206E6F74207468652066697273742061 PUSH1 0x20 DUP3 ADD MSTORE PUSH32 0x6374696F6E2E0000000000000000000000000000000000000000000000000000 PUSH1 0x40 DUP3 ADD MSTORE POP JUMP JUMPDEST PUSH0 PUSH2 0x4A8C PUSH1 0x46 DUP4 PUSH2 0x428F JUMP JUMPDEST SWAP2 POP PUSH2 0x4A97 DUP3 PUSH2 0x4A0C JUMP JUMPDEST PUSH1 0x60 DUP3 ADD SWAP1 POP SWAP2 SWAP1 POP JUMP JUMPDEST PUSH0 PUSH1 0x20 DUP3 ADD SWAP1 POP DUP2 DUP2 SUB PUSH0 DUP4 ADD MSTORE PUSH2 0x4AB9 DUP2 PUSH2 0x4A80 JUMP JUMPDEST SWAP1 POP SWAP2 SWAP1 POP JUMP JUMPDEST PUSH32 0x496E73756666696369656E7420636869707320746F2062657400000000000000 PUSH0 DUP3 ADD MSTORE POP JUMP JUMPDEST PUSH0 PUSH2 0x4AF4 PUSH1 0x19 DUP4 PUSH2 0x428F JUMP JUMPDEST SWAP2 POP PUSH2 0x4AFF DUP3 PUSH2 0x4AC0 JUMP JUMPDEST PUSH1 0x20 DUP3 ADD SWAP1 POP SWAP2 SWAP1 POP JUMP JUMPDEST PUSH0 PUSH1 0x20 DUP3 ADD SWAP1 POP DUP2 DUP2 SUB PUSH0 DUP4 ADD MSTORE PUSH2 0x4B21 DUP2 PUSH2 0x4AE8 JUMP JUMPDEST SWAP1 POP SWAP2 SWAP1 POP JUMP JUMPDEST PUSH32 0x4E6F2062657420746F2063616C6C000000000000000000000000000000000000 PUSH0 DUP3 ADD MSTORE POP JUMP JUMPDEST PUSH0 PUSH2 0x4B5C PUSH1 0xE DUP4 PUSH2 0x428F JUMP JUMPDEST SWAP2 POP PUSH2 0x4B67 DUP3 PUSH2 0x4B28 JUMP JUMPDEST PUSH1 0x20 DUP3 ADD SWAP1 POP SWAP2 SWAP1 POP JUMP JUMPDEST PUSH0 PUSH1 0x20 DUP3 ADD SWAP1 POP DUP2 DUP2 SUB PUSH0 DUP4 ADD MSTORE PUSH2 0x4B89 DUP2 PUSH2 0x4B50 JUMP JUMPDEST SWAP1 POP SWAP2 SWAP1 POP JUMP JUMPDEST PUSH32 0x4E6F7468696E6720746F2063616C6C206F7220616C72656164792063616C6C65 PUSH0 DUP3 ADD MSTORE PUSH32 0x6420656E6F756768000000000000000000000000000000000000000000000000 PUSH1 0x20 DUP3 ADD MSTORE POP JUMP JUMPDEST PUSH0 PUSH2 0x4BEA PUSH1 0x28 DUP4 PUSH2 0x428F JUMP JUMPDEST SWAP2 POP PUSH2 0x4BF5 DUP3 PUSH2 0x4B90 JUMP JUMPDEST PUSH1 0x40 DUP3 ADD SWAP1 POP SWAP2 SWAP1 POP JUMP JUMPDEST PUSH0 PUSH1 0x20 DUP3 ADD SWAP1 POP DUP2 DUP2 SUB PUSH0 DUP4 ADD MSTORE PUSH2 0x4C17 DUP2 PUSH2 0x4BDE JUMP JUMPDEST SWAP1 POP SWAP2 SWAP1 POP JUMP JUMPDEST PUSH32 0x47616D65206E6F74206163746976652077697468203220706C61796572730000 PUSH0 DUP3 ADD MSTORE POP JUMP JUMPDEST PUSH0 PUSH2 0x4C52 PUSH1 0x1E DUP4 PUSH2 0x428F JUMP JUMPDEST SWAP2 POP PUSH2 0x4C5D DUP3 PUSH2 0x4C1E JUMP JUMPDEST PUSH1 0x20 DUP3 ADD SWAP1 POP SWAP2 SWAP1 POP JUMP JUMPDEST PUSH0 PUSH1 0x20 DUP3 ADD SWAP1 POP DUP2 DUP2 SUB PUSH0 DUP4 ADD MSTORE PUSH2 0x4C7F DUP2 PUSH2 0x4C46 JUMP JUMPDEST SWAP1 POP SWAP2 SWAP1 POP JUMP JUMPDEST PUSH32 0x47616D65206E6F7420696E2061637469766520726F756E640000000000000000 PUSH0 DUP3 ADD MSTORE POP JUMP JUMPDEST PUSH0 PUSH2 0x4CBA PUSH1 0x18 DUP4 PUSH2 0x428F JUMP JUMPDEST SWAP2 POP PUSH2 0x4CC5 DUP3 PUSH2 0x4C86 JUMP JUMPDEST PUSH1 0x20 DUP3 ADD SWAP1 POP SWAP2 SWAP1 POP JUMP JUMPDEST PUSH0 PUSH1 0x20 DUP3 ADD SWAP1 POP DUP2 DUP2 SUB PUSH0 DUP4 ADD MSTORE PUSH2 0x4CE7 DUP2 PUSH2 0x4CAE JUMP JUMPDEST SWAP1 POP SWAP2 SWAP1 POP JUMP JUMPDEST PUSH32 0x43616C6C6572206973206E6F742070617274206F6620746869732067616D6500 PUSH0 DUP3 ADD MSTORE POP JUMP JUMPDEST PUSH0 PUSH2 0x4D22 PUSH1 0x1F DUP4 PUSH2 0x428F JUMP JUMPDEST SWAP2 POP PUSH2 0x4D2D DUP3 PUSH2 0x4CEE JUMP JUMPDEST PUSH1 0x20 DUP3 ADD SWAP1 POP SWAP2 SWAP1 POP JUMP JUMPDEST PUSH0 PUSH1 0x20 DUP3 ADD SWAP1 POP DUP2 DUP2 SUB PUSH0 DUP4 ADD MSTORE PUSH2 0x4D4F DUP2 PUSH2 0x4D16 JUMP JUMPDEST SWAP1 POP SWAP2 SWAP1 POP JUMP JUMPDEST PUSH32 0x47616D652069732066756C6C0000000000000000000000000000000000000000 PUSH0 DUP3 ADD MSTORE POP JUMP JUMPDEST PUSH0 PUSH2 0x4D8A PUSH1 0xC DUP4 PUSH2 0x428F JUMP JUMPDEST SWAP2 POP PUSH2 0x4D95 DUP3 PUSH2 0x4D56 JUMP JUMPDEST PUSH1 0x20 DUP3 ADD SWAP1 POP SWAP2 SWAP1 POP JUMP JUMPDEST PUSH0 PUSH1 0x20 DUP3 ADD SWAP1 POP DUP2 DUP2 SUB PUSH0 DUP4 ADD MSTORE PUSH2 0x4DB7 DUP2 PUSH2 0x4D7E JUMP JUMPDEST SWAP1 POP SWAP2 SWAP1 POP JUMP JUMPDEST PUSH32 0x4D7573742073656E642065786163746C79204D494E5F4255595F494E5F455448 PUSH0 DUP3 ADD MSTORE PUSH32 0x20746F206A6F696E000000000000000000000000000000000000000000000000 PUSH1 0x20 DUP3 ADD MSTORE POP JUMP JUMPDEST PUSH0 PUSH2 0x4E18 PUSH1 0x28 DUP4 PUSH2 0x428F JUMP JUMPDEST SWAP2 POP PUSH2 0x4E23 DUP3 PUSH2 0x4DBE JUMP JUMPDEST PUSH1 0x40 DUP3 ADD SWAP1 POP SWAP2 SWAP1 POP JUMP JUMPDEST PUSH0 PUSH1 0x20 DUP3 ADD SWAP1 POP DUP2 DUP2 SUB PUSH0 DUP4 ADD MSTORE PUSH2 0x4E45 DUP2 PUSH2 0x4E0C JUMP JUMPDEST SWAP1 POP SWAP2 SWAP1 POP JUMP JUMPDEST PUSH32 0x506C6179657220616C7265616479206A6F696E65640000000000000000000000 PUSH0 DUP3 ADD MSTORE POP JUMP JUMPDEST PUSH0 PUSH2 0x4E80 PUSH1 0x15 DUP4 PUSH2 0x428F JUMP JUMPDEST SWAP2 POP PUSH2 0x4E8B DUP3 PUSH2 0x4E4C JUMP JUMPDEST PUSH1 0x20 DUP3 ADD SWAP1 POP SWAP2 SWAP1 POP JUMP JUMPDEST PUSH0 PUSH1 0x20 DUP3 ADD SWAP1 POP DUP2 DUP2 SUB PUSH0 DUP4 ADD MSTORE PUSH2 0x4EAD DUP2 PUSH2 0x4E74 JUMP JUMPDEST SWAP1 POP SWAP2 SWAP1 POP JUMP JUMPDEST PUSH0 PUSH2 0x4EBE DUP3 PUSH2 0x3F9E JUMP JUMPDEST SWAP2 POP PUSH1 0xFF DUP3 SUB PUSH2 0x4ED1 JUMPI PUSH2 0x4ED0 PUSH2 0x4450 JUMP JUMPDEST JUMPDEST PUSH1 0x1 DUP3 ADD SWAP1 POP SWAP2 SWAP1 POP JUMP JUMPDEST PUSH32 0x4E6F7420696E206120706861736520776865726520666F6C64696E6720697320 PUSH0 DUP3 ADD MSTORE PUSH32 0x616C6C6F77656400000000000000000000000000000000000000000000000000 PUSH1 0x20 DUP3 ADD MSTORE POP JUMP JUMPDEST PUSH0 PUSH2 0x4F36 PUSH1 0x27 DUP4 PUSH2 0x428F JUMP JUMPDEST SWAP2 POP PUSH2 0x4F41 DUP3 PUSH2 0x4EDC JUMP JUMPDEST PUSH1 0x40 DUP3 ADD SWAP1 POP SWAP2 SWAP1 POP JUMP JUMPDEST PUSH0 PUSH1 0x20 DUP3 ADD SWAP1 POP DUP2 DUP2 SUB PUSH0 DUP4 ADD MSTORE PUSH2 0x4F63 DUP2 PUSH2 0x4F2A JUMP JUMPDEST SWAP1 POP SWAP2 SWAP1 POP JUMP JUMPDEST PUSH0 PUSH2 0x4F74 DUP3 PUSH2 0x3E99 JUMP JUMPDEST SWAP2 POP PUSH32 0xFFFFFFFFFFFFFFFFFFFFFFFFFFFFFFFFFFFFFFFFFFFFFFFFFFFFFFFFFFFFFFFF DUP3 SUB PUSH2 0x4FA6 JUMPI PUSH2 0x4FA5 PUSH2 0x4450 JUMP JUMPDEST JUMPDEST PUSH1 0x1 DUP3 ADD SWAP1 POP SWAP2 SWAP1 POP JUMP JUMPDEST PUSH32 0x4E656564203220706C61796572732077686F20686164206A6F696E6564000000 PUSH0 DUP3 ADD MSTORE POP JUMP JUMPDEST PUSH0 PUSH2 0x4FE5 PUSH1 0x1D DUP4 PUSH2 0x428F JUMP JUMPDEST SWAP2 POP PUSH2 0x4FF0 DUP3 PUSH2 0x4FB1 JUMP JUMPDEST PUSH1 0x20 DUP3 ADD SWAP1 POP SWAP2 SWAP1 POP JUMP JUMPDEST PUSH0 PUSH1 0x20 DUP3 ADD SWAP1 POP DUP2 DUP2 SUB PUSH0 DUP4 ADD MSTORE PUSH2 0x5012 DUP2 PUSH2 0x4FD9 JUMP JUMPDEST SWAP1 POP SWAP2 SWAP1 POP JUMP JUMPDEST PUSH32 0x43616E206F6E6C792073746172742061206E65772068616E6420696620746865 PUSH0 DUP3 ADD MSTORE PUSH32 0x2070726576696F7573206F6E65206973206F7665720000000000000000000000 PUSH1 0x20 DUP3 ADD MSTORE POP JUMP JUMPDEST PUSH0 PUSH2 0x5073 PUSH1 0x35 DUP4 PUSH2 0x428F JUMP JUMPDEST SWAP2 POP PUSH2 0x507E DUP3 PUSH2 0x5019 JUMP JUMPDEST PUSH1 0x40 DUP3 ADD SWAP1 POP SWAP2 SWAP1 POP JUMP JUMPDEST PUSH0 PUSH1 0x20 DUP3 ADD SWAP1 POP DUP2 DUP2 SUB PUSH0 DUP4 ADD MSTORE PUSH2 0x50A0 DUP2 PUSH2 0x5067 JUMP JUMPDEST SWAP1 POP SWAP2 SWAP1 POP JUMP JUMPDEST PUSH32 0x426F746820706C6179657273206E65656420636869707320746F207374617274 PUSH0 DUP3 ADD MSTORE PUSH32 0x2061206E65772068616E64000000000000000000000000000000000000000000 PUSH1 0x20 DUP3 ADD MSTORE POP JUMP JUMPDEST PUSH0 PUSH2 0x5101 PUSH1 0x2B DUP4 PUSH2 0x428F JUMP JUMPDEST SWAP2 POP PUSH2 0x510C DUP3 PUSH2 0x50A7 JUMP JUMPDEST PUSH1 0x40 DUP3 ADD SWAP1 POP SWAP2 SWAP1 POP JUMP JUMPDEST PUSH0 PUSH1 0x20 DUP3 ADD SWAP1 POP DUP2 DUP2 SUB PUSH0 DUP4 ADD MSTORE PUSH2 0x512E DUP2 PUSH2 0x50F5 JUMP JUMPDEST SWAP1 POP SWAP2 SWAP1 POP JUMP JUMPDEST PUSH32 0x4F6E6C7920706C61796572732063616E2073746172742061206E65772068616E PUSH0 DUP3 ADD MSTORE PUSH32 0x6400000000000000000000000000000000000000000000000000000000000000 PUSH1 0x20 DUP3 ADD MSTORE POP JUMP JUMPDEST PUSH0 PUSH2 0x518F PUSH1 0x21 DUP4 PUSH2 0x428F JUMP JUMPDEST SWAP2 POP PUSH2 0x519A DUP3 PUSH2 0x5135 JUMP JUMPDEST PUSH1 0x40 DUP3 ADD SWAP1 POP SWAP2 SWAP1 POP JUMP JUMPDEST PUSH0 PUSH1 0x20 DUP3 ADD SWAP1 POP DUP2 DUP2 SUB PUSH0 DUP4 ADD MSTORE PUSH2 0x51BC DUP2 PUSH2 0x5183 JUMP JUMPDEST SWAP1 POP SWAP2 SWAP1 POP JUMP JUMPDEST PUSH32 0x4E6F7420796F7572207475726E00000000000000000000000000000000000000 PUSH0 DUP3 ADD MSTORE POP JUMP JUMPDEST PUSH0 PUSH2 0x51F7 PUSH1 0xD DUP4 PUSH2 0x428F JUMP JUMPDEST SWAP2 POP PUSH2 0x5202 DUP3 PUSH2 0x51C3 JUMP JUMPDEST PUSH1 0x20 DUP3 ADD SWAP1 POP SWAP2 SWAP1 POP JUMP JUMPDEST PUSH0 PUSH1 0x20 DUP3 ADD SWAP1 POP DUP2 DUP2 SUB PUSH0 DUP4 ADD MSTORE PUSH2 0x5224 DUP2 PUSH2 0x51EB JUMP JUMPDEST SWAP1 POP SWAP2 SWAP1 POP JUMP JUMPDEST PUSH0 PUSH2 0x5235 DUP3 PUSH2 0x3F9E JUMP JUMPDEST SWAP2 POP PUSH2 0x5240 DUP4 PUSH2 0x3F9E JUMP JUMPDEST SWAP3 POP DUP3 DUP3 SUB SWAP1 POP PUSH1 0xFF DUP2 GT ISZERO PUSH2 0x5259 JUMPI PUSH2 0x5258 PUSH2 0x4450 JUMP JUMPDEST JUMPDEST SWAP3 SWAP2 POP POP JUMP JUMPDEST PUSH32 0x506C61796572206E6F7420666F756E6420696E2067616D650000000000000000 PUSH0 DUP3 ADD MSTORE POP JUMP JUMPDEST PUSH0 PUSH2 0x5293 PUSH1 0x18 DUP4 PUSH2 0x428F JUMP JUMPDEST SWAP2 POP PUSH2 0x529E DUP3 PUSH2 0x525F JUMP JUMPDEST PUSH1 0x20 DUP3 ADD SWAP1 POP SWAP2 SWAP1 POP JUMP JUMPDEST PUSH0 PUSH1 0x20 DUP3 ADD SWAP1 POP DUP2 DUP2 SUB PUSH0 DUP4 ADD MSTORE PUSH2 0x52C0 DUP2 PUSH2 0x5287 JUMP JUMPDEST SWAP1 POP SWAP2 SWAP1 POP JUMP JUMPDEST PUSH32 0x4E656564203220706C617965727320746F207374617274000000000000000000 PUSH0 DUP3 ADD MSTORE POP JUMP JUMPDEST PUSH0 PUSH2 0x52FB PUSH1 0x17 DUP4 PUSH2 0x428F JUMP JUMPDEST SWAP2 POP PUSH2 0x5306 DUP3 PUSH2 0x52C7 JUMP JUMPDEST PUSH1 0x20 DUP3 ADD SWAP1 POP SWAP2 SWAP1 POP JUMP JUMPDEST PUSH0 PUSH1 0x20 DUP3 ADD SWAP1 POP DUP2 DUP2 SUB PUSH0 DUP4 ADD MSTORE PUSH2 0x5328 DUP2 PUSH2 0x52EF JUMP JUMPDEST SWAP1 POP SWAP2 SWAP1 POP JUMP JUMPDEST PUSH32 0x506C61796572206D757374206861766520636869707320746F20737461727420 PUSH0 DUP3 ADD MSTORE PUSH32 0x6120726F756E6400000000000000000000000000000000000000000000000000 PUSH1 0x20 DUP3 ADD MSTORE POP JUMP JUMPDEST PUSH0 PUSH2 0x5389 PUSH1 0x27 DUP4 PUSH2 0x428F JUMP JUMPDEST SWAP2 POP PUSH2 0x5394 DUP3 PUSH2 0x532F JUMP JUMPDEST PUSH1 0x40 DUP3 ADD SWAP1 POP SWAP2 SWAP1 POP JUMP JUMPDEST PUSH0 PUSH1 0x20 DUP3 ADD SWAP1 POP DUP2 DUP2 SUB PUSH0 DUP4 ADD MSTORE PUSH2 0x53B6 DUP2 PUSH2 0x537D JUMP JUMPDEST SWAP1 POP SWAP2 SWAP1 POP JUMP JUMPDEST PUSH32 0x4E6F7420696E2073686F77646F776E2070686173650000000000000000000000 PUSH0 DUP3 ADD MSTORE POP JUMP JUMPDEST PUSH0 PUSH2 0x53F1 PUSH1 0x15 DUP4 PUSH2 0x428F JUMP JUMPDEST SWAP2 POP PUSH2 0x53FC DUP3 PUSH2 0x53BD JUMP JUMPDEST PUSH1 0x20 DUP3 ADD SWAP1 POP SWAP2 SWAP1 POP JUMP JUMPDEST PUSH0 PUSH1 0x20 DUP3 ADD SWAP1 POP DUP2 DUP2 SUB PUSH0 DUP4 ADD MSTORE PUSH2 0x541E DUP2 PUSH2 0x53E5 JUMP JUMPDEST SWAP1 POP SWAP2 SWAP1 POP JUMP JUMPDEST PUSH0 PUSH1 0x40 DUP3 ADD SWAP1 POP PUSH2 0x5438 PUSH0 DUP4 ADD DUP6 PUSH2 0x3FAA JUMP JUMPDEST PUSH2 0x5445 PUSH1 0x20 DUP4 ADD DUP5 PUSH2 0x3FAA JUMP JUMPDEST SWAP4 SWAP3 POP POP POP JUMP JUMPDEST PUSH32 0x4E6F7420696E2073686F77646F776E20706861736520666F7220647261772063 PUSH0 DUP3 ADD MSTORE PUSH32 0x6172647300000000000000000000000000000000000000000000000000000000 PUSH1 0x20 DUP3 ADD MSTORE POP JUMP JUMPDEST PUSH0 PUSH2 0x54A6 PUSH1 0x24 DUP4 PUSH2 0x428F JUMP JUMPDEST SWAP2 POP PUSH2 0x54B1 DUP3 PUSH2 0x544C JUMP JUMPDEST PUSH1 0x40 DUP3 ADD SWAP1 POP SWAP2 SWAP1 POP JUMP JUMPDEST PUSH0 PUSH1 0x20 DUP3 ADD SWAP1 POP DUP2 DUP2 SUB PUSH0 DUP4 ADD MSTORE PUSH2 0x54D3 DUP2 PUSH2 0x549A JUMP JUMPDEST SWAP1 POP SWAP2 SWAP1 POP JUMP JUMPDEST PUSH32 0x44726177206361726473206E6F742072657665616C656420627920626F746800 PUSH0 DUP3 ADD MSTORE POP JUMP JUMPDEST PUSH0 PUSH2 0x550E PUSH1 0x1F DUP4 PUSH2 0x428F JUMP JUMPDEST SWAP2 POP PUSH2 0x5519 DUP3 PUSH2 0x54DA JUMP JUMPDEST PUSH1 0x20 DUP3 ADD SWAP1 POP SWAP2 SWAP1 POP JUMP JUMPDEST PUSH0 PUSH1 0x20 DUP3 ADD SWAP1 POP DUP2 DUP2 SUB PUSH0 DUP4 ADD MSTORE PUSH2 0x553B DUP2 PUSH2 0x5502 JUMP JUMPDEST SWAP1 POP SWAP2 SWAP1 POP JUMP JUMPDEST PUSH0 DUP2 SWAP1 POP SWAP2 SWAP1 POP JUMP JUMPDEST PUSH2 0x555C PUSH2 0x5557 DUP3 PUSH2 0x3E99 JUMP JUMPDEST PUSH2 0x5542 JUMP JUMPDEST DUP3 MSTORE POP POP JUMP JUMPDEST PUSH0 PUSH2 0x556D DUP3 DUP7 PUSH2 0x554B JUMP JUMPDEST PUSH1 0x20 DUP3 ADD SWAP2 POP PUSH2 0x557D DUP3 DUP6 PUSH2 0x554B JUMP JUMPDEST PUSH1 0x20 DUP3 ADD SWAP2 POP PUSH2 0x558D DUP3 DUP5 PUSH2 0x554B JUMP JUMPDEST PUSH1 0x20 DUP3 ADD SWAP2 POP DUP2 SWAP1 POP SWAP5 SWAP4 POP POP POP POP JUMP JUMPDEST PUSH0 PUSH2 0x55A8 DUP3 PUSH2 0x3E99 JUMP JUMPDEST SWAP2 POP PUSH0 DUP3 SUB PUSH2 0x55BA JUMPI PUSH2 0x55B9 PUSH2 0x4450 JUMP JUMPDEST JUMPDEST PUSH1 0x1 DUP3 SUB SWAP1 POP SWAP2 SWAP1 POP JUMP JUMPDEST PUSH32 0x4E6F7420656E6F75676820636172647320696E206465636B0000000000000000 PUSH0 DUP3 ADD MSTORE POP JUMP JUMPDEST PUSH0 PUSH2 0x55F9 PUSH1 0x18 DUP4 PUSH2 0x428F JUMP JUMPDEST SWAP2 POP PUSH2 0x5604 DUP3 PUSH2 0x55C5 JUMP JUMPDEST PUSH1 0x20 DUP3 ADD SWAP1 POP SWAP2 SWAP1 POP JUMP JUMPDEST PUSH0 PUSH1 0x20 DUP3 ADD SWAP1 POP DUP2 DUP2 SUB PUSH0 DUP4 ADD MSTORE PUSH2 0x5626 DUP2 PUSH2 0x55ED JUMP JUMPDEST SWAP1 POP SWAP2 SWAP1 POP JUMP JUMPDEST PUSH32 0x4E6F7420656E6F75676820636172647320696E206465636B20666F7220647261 PUSH0 DUP3 ADD MSTORE PUSH32 0x7700000000000000000000000000000000000000000000000000000000000000 PUSH1 0x20 DUP3 ADD MSTORE POP JUMP JUMPDEST PUSH0 PUSH2 0x5687 PUSH1 0x21 DUP4 PUSH2 0x428F JUMP JUMPDEST SWAP2 POP PUSH2 0x5692 DUP3 PUSH2 0x562D JUMP JUMPDEST PUSH1 0x40 DUP3 ADD SWAP1 POP SWAP2 SWAP1 POP JUMP JUMPDEST PUSH0 PUSH1 0x20 DUP3 ADD SWAP1 POP DUP2 DUP2 SUB PUSH0 DUP4 ADD MSTORE PUSH2 0x56B4 DUP2 PUSH2 0x567B JUMP JUMPDEST SWAP1 POP SWAP2 SWAP1 POP JUMP INVALID LOG2 PUSH5 0x6970667358 0x22 SLT KECCAK256 0xB9 POP 0xE2 0xB1 EXTCODECOPY CALL 0xB0 BALANCE SWAP5 SWAP8 SELFBALANCE RETURNDATACOPY 0xAB 0xF6 CALLDATALOAD 0xA9 JUMPDEST 0xCD 0xDD DUP10 0xFC DUP3 SMOD SUB MLOAD 0xD8 EXTCODESIZE SDIV RETURNCONTRACT 0x30 0xBB LOG3 PUSH5 0x736F6C6343 STOP ADDMOD 0x1E STOP CALLER "
		},
		"gasEstimates": {
			"creation": {
				"codeDepositCost": "4451400",
				"executionCost": "51581",
				"totalCost": "4502981"
			},
			"external": {
				"CHIPS_PER_MIN_BUY_IN()": "436",
				"ETH_PER_CHIP()": "393",
				"MIN_BUY_IN_ETH()": "458",
				"amountToCall()": "2491",
				"bet(uint256)": "infinite",
				"callAction()": "infinite",
				"currentPlayerIndex()": "2605",
				"exchangeChips(uint256)": "infinite",
				"foldAction()": "infinite",
				"gamePhase()": "2599",
				"getChip()": "infinite",
				"getChipRate()": "infinite",
				"getExchangeRate()": "infinite",
				"getGameDetails()": "infinite",
				"getOpponentCard()": "18136",
				"getPlayerInfo(address)": "infinite",
				"joinGame()": "infinite",
				"lastRaiser()": "2554",
				"playerCount()": "2578",
				"players(uint256)": "infinite",
				"pot()": "2514",
				"raise(uint256)": "infinite",
				"startNewHand()": "infinite"
			},
			"internal": {
				"_dealCards()": "infinite",
				"_dealSingleCard()": "infinite",
				"_determineWinnerAndDistributePot(uint8,uint8,bool)": "infinite",
				"_determineWinnerByFold()": "infinite",
				"_endRound()": "24295",
				"_getCardEffectiveValue(uint8,uint8,bool)": "202",
				"_getPlayerStorage(address)": "infinite",
				"_handlePotentialRefund()": "infinite",
				"_initializeAndShuffleDeck()": "infinite",
				"_proceedToNextPhase()": "infinite",
				"_requireCorrectPlayer()": "infinite",
				"_showdown()": "infinite",
				"_showdownDraw()": "infinite",
				"_splitPot()": "infinite",
				"_startGame()": "infinite",
				"_switchPlayer()": "infinite"
			}
		},
		"methodIdentifiers": {
			"CHIPS_PER_MIN_BUY_IN()": "4c5f2861",
			"ETH_PER_CHIP()": "1704a28c",
			"MIN_BUY_IN_ETH()": "d94e6d5e",
			"amountToCall()": "f84561a2",
			"bet(uint256)": "7365870b",
			"callAction()": "8536b065",
			"currentPlayerIndex()": "fb9bdab4",
			"exchangeChips(uint256)": "3cfa3d12",
			"foldAction()": "fd09d7d6",
			"gamePhase()": "3951be87",
			"getChip()": "38fcfa9e",
			"getChipRate()": "20944dc2",
			"getExchangeRate()": "e6aa216c",
			"getGameDetails()": "50fc2c61",
			"getOpponentCard()": "a7c82f0b",
			"getPlayerInfo(address)": "59328401",
			"joinGame()": "d4f77b1c",
			"lastRaiser()": "13728125",
			"playerCount()": "302bcc57",
			"players(uint256)": "f71d96cb",
			"pot()": "4ba2363a",
			"raise(uint256)": "004f4803",
			"startNewHand()": "ff558143"
		}
	},
	"abi": [
		{
			"inputs": [],
			"stateMutability": "nonpayable",
			"type": "constructor"
		},
		{
			"inputs": [],
			"name": "ReentrancyGuardReentrantCall",
			"type": "error"
		},
		{
			"anonymous": false,
			"inputs": [
				{
					"indexed": true,
					"internalType": "address",
					"name": "player",
					"type": "address"
				},
				{
					"indexed": false,
					"internalType": "uint256",
					"name": "penaltyAmount",
					"type": "uint256"
				}
			],
			"name": "AcePenaltyPaid",
			"type": "event"
		},
		{
			"anonymous": false,
			"inputs": [
				{
					"indexed": true,
					"internalType": "address",
					"name": "player",
					"type": "address"
				},
				{
					"indexed": false,
					"internalType": "uint256",
					"name": "chipsSold",
					"type": "uint256"
				},
				{
					"indexed": false,
					"internalType": "uint256",
					"name": "ethReceived",
					"type": "uint256"
				}
			],
			"name": "ChipsExchanged",
			"type": "event"
		},
		{
			"anonymous": false,
			"inputs": [
				{
					"indexed": true,
					"internalType": "address",
					"name": "player",
					"type": "address"
				},
				{
					"indexed": false,
					"internalType": "uint256",
					"name": "amount",
					"type": "uint256"
				},
				{
					"indexed": false,
					"internalType": "uint256",
					"name": "chipsReceived",
					"type": "uint256"
				}
			],
			"name": "ChipsPurchased",
			"type": "event"
		},
		{
			"anonymous": false,
			"inputs": [
				{
					"indexed": true,
					"internalType": "address",
					"name": "player1",
					"type": "address"
				},
				{
					"indexed": false,
					"internalType": "uint8",
					"name": "drawCard1",
					"type": "uint8"
				},
				{
					"indexed": true,
					"internalType": "address",
					"name": "player2",
					"type": "address"
				},
				{
					"indexed": false,
					"internalType": "uint8",
					"name": "drawCard2",
					"type": "uint8"
				}
			],
			"name": "DrawShowdown",
			"type": "event"
		},
		{
			"anonymous": false,
			"inputs": [
				{
					"indexed": true,
					"internalType": "address",
					"name": "player1",
					"type": "address"
				},
				{
					"indexed": true,
					"internalType": "address",
					"name": "player2",
					"type": "address"
				}
			],
			"name": "GameStarted",
			"type": "event"
		},
		{
			"anonymous": false,
			"inputs": [
				{
					"indexed": true,
					"internalType": "address",
					"name": "player",
					"type": "address"
				},
				{
					"indexed": false,
					"internalType": "uint256",
					"name": "amount",
					"type": "uint256"
				}
			],
			"name": "PlayerAllIn",
			"type": "event"
		},
		{
			"anonymous": false,
			"inputs": [
				{
					"indexed": true,
					"internalType": "address",
					"name": "player",
					"type": "address"
				},
				{
					"indexed": false,
					"internalType": "uint256",
					"name": "amount",
					"type": "uint256"
				}
			],
			"name": "PlayerBet",
			"type": "event"
		},
		{
			"anonymous": false,
			"inputs": [
				{
					"indexed": true,
					"internalType": "address",
					"name": "player",
					"type": "address"
				},
				{
					"indexed": false,
					"internalType": "uint256",
					"name": "amount",
					"type": "uint256"
				}
			],
			"name": "PlayerCalled",
			"type": "event"
		},
		{
			"anonymous": false,
			"inputs": [
				{
					"indexed": true,
					"internalType": "address",
					"name": "player",
					"type": "address"
				}
			],
			"name": "PlayerFolded",
			"type": "event"
		},
		{
			"anonymous": false,
			"inputs": [
				{
					"indexed": true,
					"internalType": "address",
					"name": "player",
					"type": "address"
				},
				{
					"indexed": false,
					"internalType": "uint256",
					"name": "initialChips",
					"type": "uint256"
				}
			],
			"name": "PlayerJoined",
			"type": "event"
		},
		{
			"anonymous": false,
			"inputs": [
				{
					"indexed": true,
					"internalType": "address",
					"name": "player",
					"type": "address"
				},
				{
					"indexed": false,
					"internalType": "uint256",
					"name": "totalBetAmount",
					"type": "uint256"
				}
			],
			"name": "PlayerRaised",
			"type": "event"
		},
		{
			"anonymous": false,
			"inputs": [
				{
					"indexed": true,
					"internalType": "address",
					"name": "player1",
					"type": "address"
				},
				{
					"indexed": true,
					"internalType": "address",
					"name": "player2",
					"type": "address"
				},
				{
					"indexed": false,
					"internalType": "uint256",
					"name": "amountEach",
					"type": "uint256"
				}
			],
			"name": "PotSplit",
			"type": "event"
		},
		{
			"anonymous": false,
			"inputs": [
				{
					"indexed": false,
					"internalType": "uint8",
					"name": "dealerPlayerIndex",
					"type": "uint8"
				}
			],
			"name": "RoundStarted",
			"type": "event"
		},
		{
			"anonymous": false,
			"inputs": [
				{
					"indexed": true,
					"internalType": "address",
					"name": "player1",
					"type": "address"
				},
				{
					"indexed": false,
					"internalType": "uint8",
					"name": "card1",
					"type": "uint8"
				},
				{
					"indexed": true,
					"internalType": "address",
					"name": "player2",
					"type": "address"
				},
				{
					"indexed": false,
					"internalType": "uint8",
					"name": "card2",
					"type": "uint8"
				}
			],
			"name": "Showdown",
			"type": "event"
		},
		{
			"anonymous": false,
			"inputs": [
				{
					"indexed": true,
					"internalType": "address",
					"name": "winner",
					"type": "address"
				},
				{
					"indexed": false,
					"internalType": "uint256",
					"name": "potWon",
					"type": "uint256"
				}
			],
			"name": "WinnerDetermined",
			"type": "event"
		},
		{
			"inputs": [],
			"name": "CHIPS_PER_MIN_BUY_IN",
			"outputs": [
				{
					"internalType": "uint256",
					"name": "",
					"type": "uint256"
				}
			],
			"stateMutability": "view",
			"type": "function"
		},
		{
			"inputs": [],
			"name": "ETH_PER_CHIP",
			"outputs": [
				{
					"internalType": "uint256",
					"name": "",
					"type": "uint256"
				}
			],
			"stateMutability": "view",
			"type": "function"
		},
		{
			"inputs": [],
			"name": "MIN_BUY_IN_ETH",
			"outputs": [
				{
					"internalType": "uint256",
					"name": "",
					"type": "uint256"
				}
			],
			"stateMutability": "view",
			"type": "function"
		},
		{
			"inputs": [],
			"name": "amountToCall",
			"outputs": [
				{
					"internalType": "uint256",
					"name": "",
					"type": "uint256"
				}
			],
			"stateMutability": "view",
			"type": "function"
		},
		{
			"inputs": [
				{
					"internalType": "uint256",
					"name": "betAmount",
					"type": "uint256"
				}
			],
			"name": "bet",
			"outputs": [],
			"stateMutability": "nonpayable",
			"type": "function"
		},
		{
			"inputs": [],
			"name": "callAction",
			"outputs": [],
			"stateMutability": "nonpayable",
			"type": "function"
		},
		{
			"inputs": [],
			"name": "currentPlayerIndex",
			"outputs": [
				{
					"internalType": "uint8",
					"name": "",
					"type": "uint8"
				}
			],
			"stateMutability": "view",
			"type": "function"
		},
		{
			"inputs": [
				{
					"internalType": "uint256",
					"name": "chipAmount",
					"type": "uint256"
				}
			],
			"name": "exchangeChips",
			"outputs": [],
			"stateMutability": "nonpayable",
			"type": "function"
		},
		{
			"inputs": [],
			"name": "foldAction",
			"outputs": [],
			"stateMutability": "nonpayable",
			"type": "function"
		},
		{
			"inputs": [],
			"name": "gamePhase",
			"outputs": [
				{
					"internalType": "enum IndianPoker_3.GamePhase",
					"name": "",
					"type": "uint8"
				}
			],
			"stateMutability": "view",
			"type": "function"
		},
		{
			"inputs": [],
			"name": "getChip",
			"outputs": [],
			"stateMutability": "payable",
			"type": "function"
		},
		{
			"inputs": [],
			"name": "getChipRate",
			"outputs": [
				{
					"internalType": "uint256",
					"name": "ethAmount",
					"type": "uint256"
				},
				{
					"internalType": "uint256",
					"name": "chipAmount",
					"type": "uint256"
				}
			],
			"stateMutability": "pure",
			"type": "function"
		},
		{
			"inputs": [],
			"name": "getExchangeRate",
			"outputs": [
				{
					"internalType": "uint256",
					"name": "chipAmount",
					"type": "uint256"
				},
				{
					"internalType": "uint256",
					"name": "ethAmount",
					"type": "uint256"
				}
			],
			"stateMutability": "pure",
			"type": "function"
		},
		{
			"inputs": [],
			"name": "getGameDetails",
			"outputs": [
				{
					"internalType": "enum IndianPoker_3.GamePhase",
					"name": "currentPhase",
					"type": "uint8"
				},
				{
					"internalType": "uint256",
					"name": "currentPot",
					"type": "uint256"
				},
				{
					"internalType": "address",
					"name": "p0Addr",
					"type": "address"
				},
				{
					"internalType": "uint256",
					"name": "p0Chips",
					"type": "uint256"
				},
				{
					"internalType": "uint256",
					"name": "p0Bet",
					"type": "uint256"
				},
				{
					"internalType": "bool",
					"name": "p0Folded",
					"type": "bool"
				},
				{
					"internalType": "address",
					"name": "p1Addr",
					"type": "address"
				},
				{
					"internalType": "uint256",
					"name": "p1Chips",
					"type": "uint256"
				},
				{
					"internalType": "uint256",
					"name": "p1Bet",
					"type": "uint256"
				},
				{
					"internalType": "bool",
					"name": "p1Folded",
					"type": "bool"
				},
				{
					"internalType": "address",
					"name": "currentTurnPlayer",
					"type": "address"
				},
				{
					"internalType": "uint256",
					"name": "callAmount",
					"type": "uint256"
				}
			],
			"stateMutability": "view",
			"type": "function"
		},
		{
			"inputs": [],
			"name": "getOpponentCard",
			"outputs": [
				{
					"internalType": "uint8",
					"name": "",
					"type": "uint8"
				}
			],
			"stateMutability": "view",
			"type": "function"
		},
		{
			"inputs": [
				{
					"internalType": "address",
					"name": "playerAddr",
					"type": "address"
				}
			],
			"name": "getPlayerInfo",
			"outputs": [
				{
					"internalType": "address",
					"name": "addr",
					"type": "address"
				},
				{
					"internalType": "uint256",
					"name": "chips",
					"type": "uint256"
				},
				{
					"internalType": "uint8",
					"name": "card",
					"type": "uint8"
				},
				{
					"internalType": "uint256",
					"name": "currentBet",
					"type": "uint256"
				},
				{
					"internalType": "bool",
					"name": "hasFolded",
					"type": "bool"
				},
				{
					"internalType": "bool",
					"name": "isAllIn",
					"type": "bool"
				}
			],
			"stateMutability": "view",
			"type": "function"
		},
		{
			"inputs": [],
			"name": "joinGame",
			"outputs": [],
			"stateMutability": "payable",
			"type": "function"
		},
		{
			"inputs": [],
			"name": "lastRaiser",
			"outputs": [
				{
					"internalType": "address",
					"name": "",
					"type": "address"
				}
			],
			"stateMutability": "view",
			"type": "function"
		},
		{
			"inputs": [],
			"name": "playerCount",
			"outputs": [
				{
					"internalType": "uint8",
					"name": "",
					"type": "uint8"
				}
			],
			"stateMutability": "view",
			"type": "function"
		},
		{
			"inputs": [
				{
					"internalType": "uint256",
					"name": "",
					"type": "uint256"
				}
			],
			"name": "players",
			"outputs": [
				{
					"internalType": "address payable",
					"name": "addr",
					"type": "address"
				},
				{
					"internalType": "uint256",
					"name": "chips",
					"type": "uint256"
				},
				{
					"internalType": "uint8",
					"name": "card",
					"type": "uint8"
				},
				{
					"internalType": "uint256",
					"name": "currentBetInRound",
					"type": "uint256"
				},
				{
					"internalType": "bool",
					"name": "hasFolded",
					"type": "bool"
				},
				{
					"internalType": "bool",
					"name": "isAllIn",
					"type": "bool"
				},
				{
					"internalType": "uint256",
					"name": "initialChipsInRound",
					"type": "uint256"
				},
				{
					"internalType": "bool",
					"name": "hasRevealedDrawCard",
					"type": "bool"
				},
				{
					"internalType": "uint8",
					"name": "drawCard",
					"type": "uint8"
				}
			],
			"stateMutability": "view",
			"type": "function"
		},
		{
			"inputs": [],
			"name": "pot",
			"outputs": [
				{
					"internalType": "uint256",
					"name": "",
					"type": "uint256"
				}
			],
			"stateMutability": "view",
			"type": "function"
		},
		{
			"inputs": [
				{
					"internalType": "uint256",
					"name": "totalBetAmount",
					"type": "uint256"
				}
			],
			"name": "raise",
			"outputs": [],
			"stateMutability": "nonpayable",
			"type": "function"
		},
		{
			"inputs": [],
			"name": "startNewHand",
			"outputs": [],
			"stateMutability": "nonpayable",
			"type": "function"
		},
		{
			"stateMutability": "payable",
			"type": "receive"
		}
	]
}